{
	"tokenShop.sol": {
		"TokenShop": {
			"abi": [
				{
					"inputs": [
						{
							"internalType": "address",
							"name": "_priceFeed",
							"type": "address"
						},
						{
							"internalType": "address",
							"name": "_minter",
							"type": "address"
						}
					],
					"stateMutability": "nonpayable",
					"type": "constructor"
				},
				{
					"inputs": [],
					"name": "InvalidRoundId",
					"type": "error"
				},
				{
					"inputs": [],
					"name": "PriceFeedDdosed",
					"type": "error"
				},
				{
					"inputs": [],
					"name": "StalePriceFeed",
					"type": "error"
				},
				{
					"inputs": [],
					"name": "getChainlinkDataFeedLatestAnswer",
					"outputs": [
						{
							"internalType": "uint256",
							"name": "",
							"type": "uint256"
						}
					],
					"stateMutability": "view",
					"type": "function"
				},
				{
					"inputs": [],
					"name": "withdraw",
					"outputs": [],
					"stateMutability": "nonpayable",
					"type": "function"
				},
				{
					"stateMutability": "payable",
					"type": "receive"
				}
			],
			"devdoc": {
				"kind": "dev",
				"methods": {},
				"version": 1
			},
			"evm": {
				"assembly": "    /* \"tokenShop.sol\":236:2196  contract TokenShop {... */\n  mstore(0x40, 0xc0)\n    /* \"tokenShop.sol\":550:553  200 */\n  0xc8\n    /* \"tokenShop.sol\":529:553  uint256 tokenPrice = 200 */\n  0x01\n  sstore\n    /* \"tokenShop.sol\":562:752  constructor(address _priceFeed , address _minter){... */\n  callvalue\n  dup1\n  iszero\n  tag_1\n  jumpi\n  revert(0x00, 0x00)\ntag_1:\n  pop\n  mload(0x40)\n  sub(codesize, bytecodeSize)\n  dup1\n  bytecodeSize\n  dup4\n  codecopy\n  dup2\n  dup2\n  add\n  0x40\n  mstore\n  dup2\n  add\n  swap1\n  tag_2\n  swap2\n  swap1\n  tag_3\n  jump\t// in\ntag_2:\n    /* \"tokenShop.sol\":631:641  msg.sender */\n  caller\n    /* \"tokenShop.sol\":622:627  owner */\n  0x00\n  0x00\n    /* \"tokenShop.sol\":622:641  owner =  msg.sender */\n  0x0100\n  exp\n  dup2\n  sload\n  dup2\n  0xffffffffffffffffffffffffffffffffffffffff\n  mul\n  not\n  and\n  swap1\n  dup4\n  0xffffffffffffffffffffffffffffffffffffffff\n  and\n  mul\n  or\n  swap1\n  sstore\n  pop\n    /* \"tokenShop.sol\":688:698  _priceFeed */\n  dup2\n    /* \"tokenShop.sol\":652:699  i_priceFeed = AggregatorV3Interface(_priceFeed) */\n  0xffffffffffffffffffffffffffffffffffffffff\n  and\n  0x80\n  dup2\n  0xffffffffffffffffffffffffffffffffffffffff\n  and\n  dup2\n  mstore\n  pop\n  pop\n    /* \"tokenShop.sol\":736:743  _minter */\n  dup1\n    /* \"tokenShop.sol\":710:744  i_minter = TokenInterface(_minter) */\n  0xffffffffffffffffffffffffffffffffffffffff\n  and\n  0xa0\n  dup2\n  0xffffffffffffffffffffffffffffffffffffffff\n  and\n  dup2\n  mstore\n  pop\n  pop\n    /* \"tokenShop.sol\":562:752  constructor(address _priceFeed , address _minter){... */\n  pop\n  pop\n    /* \"tokenShop.sol\":236:2196  contract TokenShop {... */\n  jump(tag_6)\n    /* \"#utility.yul\":88:205   */\ntag_8:\n    /* \"#utility.yul\":197:198   */\n  0x00\n    /* \"#utility.yul\":194:195   */\n  0x00\n    /* \"#utility.yul\":187:199   */\n  revert\n    /* \"#utility.yul\":334:460   */\ntag_10:\n    /* \"#utility.yul\":371:378   */\n  0x00\n    /* \"#utility.yul\":411:453   */\n  0xffffffffffffffffffffffffffffffffffffffff\n    /* \"#utility.yul\":404:409   */\n  dup3\n    /* \"#utility.yul\":400:454   */\n  and\n    /* \"#utility.yul\":389:454   */\n  swap1\n  pop\n    /* \"#utility.yul\":334:460   */\n  swap2\n  swap1\n  pop\n  jump\t// out\n    /* \"#utility.yul\":466:562   */\ntag_11:\n    /* \"#utility.yul\":503:510   */\n  0x00\n    /* \"#utility.yul\":532:556   */\n  tag_20\n    /* \"#utility.yul\":550:555   */\n  dup3\n    /* \"#utility.yul\":532:556   */\n  tag_10\n  jump\t// in\ntag_20:\n    /* \"#utility.yul\":521:556   */\n  swap1\n  pop\n    /* \"#utility.yul\":466:562   */\n  swap2\n  swap1\n  pop\n  jump\t// out\n    /* \"#utility.yul\":568:690   */\ntag_12:\n    /* \"#utility.yul\":641:665   */\n  tag_22\n    /* \"#utility.yul\":659:664   */\n  dup2\n    /* \"#utility.yul\":641:665   */\n  tag_11\n  jump\t// in\ntag_22:\n    /* \"#utility.yul\":634:639   */\n  dup2\n    /* \"#utility.yul\":631:666   */\n  eq\n    /* \"#utility.yul\":621:684   */\n  tag_23\n  jumpi\n    /* \"#utility.yul\":680:681   */\n  0x00\n    /* \"#utility.yul\":677:678   */\n  0x00\n    /* \"#utility.yul\":670:682   */\n  revert\n    /* \"#utility.yul\":621:684   */\ntag_23:\n    /* \"#utility.yul\":568:690   */\n  pop\n  jump\t// out\n    /* \"#utility.yul\":696:839   */\ntag_13:\n    /* \"#utility.yul\":753:758   */\n  0x00\n    /* \"#utility.yul\":784:790   */\n  dup2\n    /* \"#utility.yul\":778:791   */\n  mload\n    /* \"#utility.yul\":769:791   */\n  swap1\n  pop\n    /* \"#utility.yul\":800:833   */\n  tag_25\n    /* \"#utility.yul\":827:832   */\n  dup2\n    /* \"#utility.yul\":800:833   */\n  tag_12\n  jump\t// in\ntag_25:\n    /* \"#utility.yul\":696:839   */\n  swap3\n  swap2\n  pop\n  pop\n  jump\t// out\n    /* \"#utility.yul\":845:1352   */\ntag_3:\n    /* \"#utility.yul\":924:930   */\n  0x00\n    /* \"#utility.yul\":932:938   */\n  0x00\n    /* \"#utility.yul\":981:983   */\n  0x40\n    /* \"#utility.yul\":969:978   */\n  dup4\n    /* \"#utility.yul\":960:967   */\n  dup6\n    /* \"#utility.yul\":956:979   */\n  sub\n    /* \"#utility.yul\":952:984   */\n  slt\n    /* \"#utility.yul\":949:1068   */\n  iszero\n  tag_27\n  jumpi\n    /* \"#utility.yul\":987:1066   */\n  tag_28\n  tag_8\n  jump\t// in\ntag_28:\n    /* \"#utility.yul\":949:1068   */\ntag_27:\n    /* \"#utility.yul\":1107:1108   */\n  0x00\n    /* \"#utility.yul\":1132:1196   */\n  tag_29\n    /* \"#utility.yul\":1188:1195   */\n  dup6\n    /* \"#utility.yul\":1179:1185   */\n  dup3\n    /* \"#utility.yul\":1168:1177   */\n  dup7\n    /* \"#utility.yul\":1164:1186   */\n  add\n    /* \"#utility.yul\":1132:1196   */\n  tag_13\n  jump\t// in\ntag_29:\n    /* \"#utility.yul\":1122:1196   */\n  swap3\n  pop\n    /* \"#utility.yul\":1078:1206   */\n  pop\n    /* \"#utility.yul\":1245:1247   */\n  0x20\n    /* \"#utility.yul\":1271:1335   */\n  tag_30\n    /* \"#utility.yul\":1327:1334   */\n  dup6\n    /* \"#utility.yul\":1318:1324   */\n  dup3\n    /* \"#utility.yul\":1307:1316   */\n  dup7\n    /* \"#utility.yul\":1303:1325   */\n  add\n    /* \"#utility.yul\":1271:1335   */\n  tag_13\n  jump\t// in\ntag_30:\n    /* \"#utility.yul\":1261:1335   */\n  swap2\n  pop\n    /* \"#utility.yul\":1216:1345   */\n  pop\n    /* \"#utility.yul\":845:1352   */\n  swap3\n  pop\n  swap3\n  swap1\n  pop\n  jump\t// out\n    /* \"tokenShop.sol\":236:2196  contract TokenShop {... */\ntag_6:\n  mload(0x80)\n  mload(0xa0)\n  codecopy(0x00, dataOffset(sub_0), dataSize(sub_0))\n  0x00\n  assignImmutable(\"0xcdbc23227c72e0a3f4683bdbccfcbed38047ca1a70d48b78c210dc5393029019\")\n  0x00\n  assignImmutable(\"0xeafa31dc210956fc0884ec5660eba9405197797219cbbda41b6aaf7118c651d8\")\n  return(0x00, dataSize(sub_0))\nstop\n\nsub_0: assembly {\n        /* \"tokenShop.sol\":236:2196  contract TokenShop {... */\n      mstore(0x40, 0x80)\n      jumpi(tag_1, lt(calldatasize, 0x04))\n      shr(0xe0, calldataload(0x00))\n      dup1\n      0x3ccfd60b\n      eq\n      tag_3\n      jumpi\n      dup1\n      0xbea4dfb5\n      eq\n      tag_4\n      jumpi\n      jump(tag_2)\n    tag_1:\n      jumpi(tag_2, calldatasize)\n        /* \"tokenShop.sol\":798:812  uint256 amount */\n      0x00\n        /* \"tokenShop.sol\":815:846  calculateTokenAmount(msg.value) */\n      tag_7\n        /* \"tokenShop.sol\":836:845  msg.value */\n      callvalue\n        /* \"tokenShop.sol\":815:835  calculateTokenAmount */\n      tag_8\n        /* \"tokenShop.sol\":815:846  calculateTokenAmount(msg.value) */\n      jump\t// in\n    tag_7:\n        /* \"tokenShop.sol\":798:846  uint256 amount = calculateTokenAmount(msg.value) */\n      swap1\n      pop\n        /* \"tokenShop.sol\":857:865  i_minter */\n      immutable(\"0xcdbc23227c72e0a3f4683bdbccfcbed38047ca1a70d48b78c210dc5393029019\")\n        /* \"tokenShop.sol\":857:870  i_minter.mint */\n      0xffffffffffffffffffffffffffffffffffffffff\n      and\n      0x40c10f19\n        /* \"tokenShop.sol\":871:881  msg.sender */\n      caller\n        /* \"tokenShop.sol\":882:888  amount */\n      dup4\n        /* \"tokenShop.sol\":857:889  i_minter.mint(msg.sender,amount) */\n      mload(0x40)\n      dup4\n      0xffffffff\n      and\n      0xe0\n      shl\n      dup2\n      mstore\n      0x04\n      add\n      tag_9\n      swap3\n      swap2\n      swap1\n      tag_10\n      jump\t// in\n    tag_9:\n      0x00\n      mload(0x40)\n      dup1\n      dup4\n      sub\n      dup2\n      0x00\n      dup8\n      dup1\n      extcodesize\n      iszero\n      dup1\n      iszero\n      tag_11\n      jumpi\n      revert(0x00, 0x00)\n    tag_11:\n      pop\n      gas\n      call\n      iszero\n      dup1\n      iszero\n      tag_13\n      jumpi\n      returndatacopy(0x00, 0x00, returndatasize)\n      revert(0x00, returndatasize)\n    tag_13:\n      stop\n        /* \"tokenShop.sol\":236:2196  contract TokenShop {... */\n    tag_2:\n      revert(0x00, 0x00)\n        /* \"tokenShop.sol\":2088:2192  function withdraw() external onlyOwner {... */\n    tag_3:\n      callvalue\n      dup1\n      iszero\n      tag_14\n      jumpi\n      revert(0x00, 0x00)\n    tag_14:\n      pop\n      tag_15\n      tag_16\n      jump\t// in\n    tag_15:\n      stop\n        /* \"tokenShop.sol\":1238:1992  function getChainlinkDataFeedLatestAnswer() public view returns (uint256) {... */\n    tag_4:\n      callvalue\n      dup1\n      iszero\n      tag_17\n      jumpi\n      revert(0x00, 0x00)\n    tag_17:\n      pop\n      tag_18\n      tag_19\n      jump\t// in\n    tag_18:\n      mload(0x40)\n      tag_20\n      swap2\n      swap1\n      tag_21\n      jump\t// in\n    tag_20:\n      mload(0x40)\n      dup1\n      swap2\n      sub\n      swap1\n      return\n        /* \"tokenShop.sol\":909:1230  function calculateTokenAmount(uint256 ethAmount)internal view returns (uint256) {... */\n    tag_8:\n        /* \"tokenShop.sol\":980:987  uint256 */\n      0x00\n        /* \"tokenShop.sol\":1010:1023  uint256 price */\n      0x00\n        /* \"tokenShop.sol\":1063:1067  1e10 */\n      0x02540be400\n        /* \"tokenShop.sol\":1026:1060  getChainlinkDataFeedLatestAnswer() */\n      tag_23\n        /* \"tokenShop.sol\":1026:1058  getChainlinkDataFeedLatestAnswer */\n      tag_19\n        /* \"tokenShop.sol\":1026:1060  getChainlinkDataFeedLatestAnswer() */\n      jump\t// in\n    tag_23:\n        /* \"tokenShop.sol\":1026:1067  getChainlinkDataFeedLatestAnswer() * 1e10 */\n      tag_24\n      swap2\n      swap1\n      tag_25\n      jump\t// in\n    tag_24:\n        /* \"tokenShop.sol\":1010:1067  uint256 price = getChainlinkDataFeedLatestAnswer() * 1e10 */\n      swap1\n      pop\n        /* \"tokenShop.sol\":1078:1095  uint256 usdAmount */\n      0x00\n        /* \"tokenShop.sol\":1120:1124  1e18 */\n      0x0de0b6b3a7640000\n        /* \"tokenShop.sol\":1111:1116  price */\n      dup3\n        /* \"tokenShop.sol\":1099:1108  ethAmount */\n      dup6\n        /* \"tokenShop.sol\":1099:1116  ethAmount * price */\n      tag_26\n      swap2\n      swap1\n      tag_25\n      jump\t// in\n    tag_26:\n        /* \"tokenShop.sol\":1098:1124  (ethAmount * price) / 1e18 */\n      tag_27\n      swap2\n      swap1\n      tag_28\n      jump\t// in\n    tag_27:\n        /* \"tokenShop.sol\":1078:1124  uint256 usdAmount = (ethAmount * price) / 1e18 */\n      swap1\n      pop\n        /* \"tokenShop.sol\":1135:1154  uint256 amountToken */\n      0x00\n        /* \"tokenShop.sol\":1182:1191  10**(8/2) */\n      0x2710\n        /* \"tokenShop.sol\":1169:1179  tokenPrice */\n      sload(0x01)\n        /* \"tokenShop.sol\":1157:1166  usdAmount */\n      dup4\n        /* \"tokenShop.sol\":1157:1179  usdAmount / tokenPrice */\n      tag_29\n      swap2\n      swap1\n      tag_28\n      jump\t// in\n    tag_29:\n        /* \"tokenShop.sol\":1157:1191  usdAmount / tokenPrice / 10**(8/2) */\n      tag_30\n      swap2\n      swap1\n      tag_28\n      jump\t// in\n    tag_30:\n        /* \"tokenShop.sol\":1135:1191  uint256 amountToken = usdAmount / tokenPrice / 10**(8/2) */\n      swap1\n      pop\n        /* \"tokenShop.sol\":1211:1222  amountToken */\n      dup1\n        /* \"tokenShop.sol\":1204:1222  return amountToken */\n      swap4\n      pop\n      pop\n      pop\n      pop\n        /* \"tokenShop.sol\":909:1230  function calculateTokenAmount(uint256 ethAmount)internal view returns (uint256) {... */\n      swap2\n      swap1\n      pop\n      jump\t// out\n        /* \"tokenShop.sol\":2088:2192  function withdraw() external onlyOwner {... */\n    tag_16:\n        /* \"tokenShop.sol\":2054:2059  owner */\n      0x00\n      0x00\n      swap1\n      sload\n      swap1\n      0x0100\n      exp\n      swap1\n      div\n      0xffffffffffffffffffffffffffffffffffffffff\n      and\n        /* \"tokenShop.sol\":2040:2059  msg.sender == owner */\n      0xffffffffffffffffffffffffffffffffffffffff\n      and\n        /* \"tokenShop.sol\":2040:2050  msg.sender */\n      caller\n        /* \"tokenShop.sol\":2040:2059  msg.sender == owner */\n      0xffffffffffffffffffffffffffffffffffffffff\n      and\n      eq\n        /* \"tokenShop.sol\":2032:2060  require(msg.sender == owner) */\n      tag_32\n      jumpi\n      revert(0x00, 0x00)\n    tag_32:\n        /* \"tokenShop.sol\":2146:2151  owner */\n      0x00\n      0x00\n      swap1\n      sload\n      swap1\n      0x0100\n      exp\n      swap1\n      div\n      0xffffffffffffffffffffffffffffffffffffffff\n      and\n        /* \"tokenShop.sol\":2138:2161  payable(owner).transfer */\n      0xffffffffffffffffffffffffffffffffffffffff\n      and\n        /* \"tokenShop.sol\":2138:2184  payable(owner).transfer(address(this).balance) */\n      0x08fc\n        /* \"tokenShop.sol\":2162:2183  address(this).balance */\n      selfbalance\n        /* \"tokenShop.sol\":2138:2184  payable(owner).transfer(address(this).balance) */\n      swap1\n      dup2\n      iszero\n      mul\n      swap1\n      mload(0x40)\n      0x00\n      mload(0x40)\n      dup1\n      dup4\n      sub\n      dup2\n      dup6\n      dup9\n      dup9\n      call\n      swap4\n      pop\n      pop\n      pop\n      pop\n      iszero\n      dup1\n      iszero\n      tag_35\n      jumpi\n      returndatacopy(0x00, 0x00, returndatasize)\n      revert(0x00, returndatasize)\n    tag_35:\n      pop\n        /* \"tokenShop.sol\":2088:2192  function withdraw() external onlyOwner {... */\n      jump\t// out\n        /* \"tokenShop.sol\":1238:1992  function getChainlinkDataFeedLatestAnswer() public view returns (uint256) {... */\n    tag_19:\n        /* \"tokenShop.sol\":1303:1310  uint256 */\n      0x00\n        /* \"tokenShop.sol\":1323:1338  uint80 _roundId */\n      0x00\n        /* \"tokenShop.sol\":1349:1362  int256 _price */\n      0x00\n        /* \"tokenShop.sol\":1373:1391  uint256 _updatedAt */\n      0x00\n        /* \"tokenShop.sol\":1407:1418  i_priceFeed */\n      immutable(\"0xeafa31dc210956fc0884ec5660eba9405197797219cbbda41b6aaf7118c651d8\")\n        /* \"tokenShop.sol\":1407:1434  i_priceFeed.latestRoundData */\n      0xffffffffffffffffffffffffffffffffffffffff\n      and\n      0xfeaf968c\n        /* \"tokenShop.sol\":1407:1436  i_priceFeed.latestRoundData() */\n      mload(0x40)\n      dup2\n      0xffffffff\n      and\n      0xe0\n      shl\n      dup2\n      mstore\n      0x04\n      add\n      0xa0\n      mload(0x40)\n      dup1\n      dup4\n      sub\n      dup2\n      dup7\n      gas\n      staticcall\n      swap3\n      pop\n      pop\n      pop\n      dup1\n      iszero\n      tag_37\n      jumpi\n      pop\n      mload(0x40)\n      returndatasize\n      not(0x1f)\n      0x1f\n      dup3\n      add\n      and\n      dup3\n      add\n      dup1\n      0x40\n      mstore\n      pop\n      dup2\n      add\n      swap1\n      tag_38\n      swap2\n      swap1\n      tag_39\n      jump\t// in\n    tag_38:\n      0x01\n    tag_37:\n        /* \"tokenShop.sol\":1402:1791  try  i_priceFeed.latestRoundData() returns(... */\n      tag_40\n      jumpi\n        /* \"tokenShop.sol\":1762:1779  PriceFeedDdosed() */\n      mload(0x40)\n      0xbc2332ed00000000000000000000000000000000000000000000000000000000\n      dup2\n      mstore\n      0x04\n      add\n      mload(0x40)\n      dup1\n      swap2\n      sub\n      swap1\n      revert\n        /* \"tokenShop.sol\":1402:1791  try  i_priceFeed.latestRoundData() returns(... */\n    tag_40:\n        /* \"tokenShop.sol\":1648:1655  roundId */\n      dup5\n        /* \"tokenShop.sol\":1637:1655  _roundId = roundId */\n      swap8\n      pop\n        /* \"tokenShop.sol\":1680:1685  price */\n      dup4\n        /* \"tokenShop.sol\":1670:1685  _price =  price */\n      swap7\n      pop\n        /* \"tokenShop.sol\":1714:1723  updatedAt */\n      dup2\n        /* \"tokenShop.sol\":1700:1723  _updatedAt  = updatedAt */\n      swap6\n      pop\n        /* \"tokenShop.sol\":1437:1735  returns(... */\n      pop\n      pop\n      pop\n      pop\n      pop\n        /* \"tokenShop.sol\":1816:1817  0 */\n      0x00\n        /* \"tokenShop.sol\":1804:1812  _roundId */\n      dup4\n        /* \"tokenShop.sol\":1804:1817  _roundId == 0 */\n      0xffffffffffffffffffff\n      and\n      sub\n        /* \"tokenShop.sol\":1801:1843  if(_roundId == 0 ) revert InvalidRoundId() */\n      tag_45\n      jumpi\n        /* \"tokenShop.sol\":1827:1843  InvalidRoundId() */\n      mload(0x40)\n      0xbfbe031f00000000000000000000000000000000000000000000000000000000\n      dup2\n      mstore\n      0x04\n      add\n      mload(0x40)\n      dup1\n      swap2\n      sub\n      swap1\n      revert\n        /* \"tokenShop.sol\":1801:1843  if(_roundId == 0 ) revert InvalidRoundId() */\n    tag_45:\n        /* \"tokenShop.sol\":517:522  86400 */\n      0x015180\n        /* \"tokenShop.sol\":1870:1885  block.timestamp */\n      timestamp\n        /* \"tokenShop.sol\":1870:1897  block.timestamp - HEARTBEAT */\n      tag_46\n      swap2\n      swap1\n      tag_47\n      jump\t// in\n    tag_46:\n        /* \"tokenShop.sol\":1857:1867  _updatedAt */\n      dup2\n        /* \"tokenShop.sol\":1857:1897  _updatedAt < block.timestamp - HEARTBEAT */\n      lt\n        /* \"tokenShop.sol\":1854:1948  if(_updatedAt < block.timestamp - HEARTBEAT){... */\n      iszero\n      tag_48\n      jumpi\n        /* \"tokenShop.sol\":1920:1936  StalePriceFeed() */\n      mload(0x40)\n      0x1087e10900000000000000000000000000000000000000000000000000000000\n      dup2\n      mstore\n      0x04\n      add\n      mload(0x40)\n      dup1\n      swap2\n      sub\n      swap1\n      revert\n        /* \"tokenShop.sol\":1854:1948  if(_updatedAt < block.timestamp - HEARTBEAT){... */\n    tag_48:\n        /* \"tokenShop.sol\":1975:1981  _price */\n      dup2\n        /* \"tokenShop.sol\":1960:1982  return uint256(_price) */\n      swap4\n      pop\n      pop\n      pop\n      pop\n        /* \"tokenShop.sol\":1238:1992  function getChainlinkDataFeedLatestAnswer() public view returns (uint256) {... */\n      swap1\n      jump\t// out\n        /* \"#utility.yul\":7:133   */\n    tag_49:\n        /* \"#utility.yul\":44:51   */\n      0x00\n        /* \"#utility.yul\":84:126   */\n      0xffffffffffffffffffffffffffffffffffffffff\n        /* \"#utility.yul\":77:82   */\n      dup3\n        /* \"#utility.yul\":73:127   */\n      and\n        /* \"#utility.yul\":62:127   */\n      swap1\n      pop\n        /* \"#utility.yul\":7:133   */\n      swap2\n      swap1\n      pop\n      jump\t// out\n        /* \"#utility.yul\":139:235   */\n    tag_50:\n        /* \"#utility.yul\":176:183   */\n      0x00\n        /* \"#utility.yul\":205:229   */\n      tag_70\n        /* \"#utility.yul\":223:228   */\n      dup3\n        /* \"#utility.yul\":205:229   */\n      tag_49\n      jump\t// in\n    tag_70:\n        /* \"#utility.yul\":194:229   */\n      swap1\n      pop\n        /* \"#utility.yul\":139:235   */\n      swap2\n      swap1\n      pop\n      jump\t// out\n        /* \"#utility.yul\":241:359   */\n    tag_51:\n        /* \"#utility.yul\":328:352   */\n      tag_72\n        /* \"#utility.yul\":346:351   */\n      dup2\n        /* \"#utility.yul\":328:352   */\n      tag_50\n      jump\t// in\n    tag_72:\n        /* \"#utility.yul\":323:326   */\n      dup3\n        /* \"#utility.yul\":316:353   */\n      mstore\n        /* \"#utility.yul\":241:359   */\n      pop\n      pop\n      jump\t// out\n        /* \"#utility.yul\":365:442   */\n    tag_52:\n        /* \"#utility.yul\":402:409   */\n      0x00\n        /* \"#utility.yul\":431:436   */\n      dup2\n        /* \"#utility.yul\":420:436   */\n      swap1\n      pop\n        /* \"#utility.yul\":365:442   */\n      swap2\n      swap1\n      pop\n      jump\t// out\n        /* \"#utility.yul\":448:566   */\n    tag_53:\n        /* \"#utility.yul\":535:559   */\n      tag_75\n        /* \"#utility.yul\":553:558   */\n      dup2\n        /* \"#utility.yul\":535:559   */\n      tag_52\n      jump\t// in\n    tag_75:\n        /* \"#utility.yul\":530:533   */\n      dup3\n        /* \"#utility.yul\":523:560   */\n      mstore\n        /* \"#utility.yul\":448:566   */\n      pop\n      pop\n      jump\t// out\n        /* \"#utility.yul\":572:904   */\n    tag_10:\n        /* \"#utility.yul\":693:697   */\n      0x00\n        /* \"#utility.yul\":731:733   */\n      0x40\n        /* \"#utility.yul\":720:729   */\n      dup3\n        /* \"#utility.yul\":716:734   */\n      add\n        /* \"#utility.yul\":708:734   */\n      swap1\n      pop\n        /* \"#utility.yul\":744:815   */\n      tag_77\n        /* \"#utility.yul\":812:813   */\n      0x00\n        /* \"#utility.yul\":801:810   */\n      dup4\n        /* \"#utility.yul\":797:814   */\n      add\n        /* \"#utility.yul\":788:794   */\n      dup6\n        /* \"#utility.yul\":744:815   */\n      tag_51\n      jump\t// in\n    tag_77:\n        /* \"#utility.yul\":825:897   */\n      tag_78\n        /* \"#utility.yul\":893:895   */\n      0x20\n        /* \"#utility.yul\":882:891   */\n      dup4\n        /* \"#utility.yul\":878:896   */\n      add\n        /* \"#utility.yul\":869:875   */\n      dup5\n        /* \"#utility.yul\":825:897   */\n      tag_53\n      jump\t// in\n    tag_78:\n        /* \"#utility.yul\":572:904   */\n      swap4\n      swap3\n      pop\n      pop\n      pop\n      jump\t// out\n        /* \"#utility.yul\":910:1132   */\n    tag_21:\n        /* \"#utility.yul\":1003:1007   */\n      0x00\n        /* \"#utility.yul\":1041:1043   */\n      0x20\n        /* \"#utility.yul\":1030:1039   */\n      dup3\n        /* \"#utility.yul\":1026:1044   */\n      add\n        /* \"#utility.yul\":1018:1044   */\n      swap1\n      pop\n        /* \"#utility.yul\":1054:1125   */\n      tag_80\n        /* \"#utility.yul\":1122:1123   */\n      0x00\n        /* \"#utility.yul\":1111:1120   */\n      dup4\n        /* \"#utility.yul\":1107:1124   */\n      add\n        /* \"#utility.yul\":1098:1104   */\n      dup5\n        /* \"#utility.yul\":1054:1125   */\n      tag_53\n      jump\t// in\n    tag_80:\n        /* \"#utility.yul\":910:1132   */\n      swap3\n      swap2\n      pop\n      pop\n      jump\t// out\n        /* \"#utility.yul\":1138:1318   */\n    tag_54:\n        /* \"#utility.yul\":1186:1263   */\n      0x4e487b7100000000000000000000000000000000000000000000000000000000\n        /* \"#utility.yul\":1183:1184   */\n      0x00\n        /* \"#utility.yul\":1176:1264   */\n      mstore\n        /* \"#utility.yul\":1283:1287   */\n      0x11\n        /* \"#utility.yul\":1280:1281   */\n      0x04\n        /* \"#utility.yul\":1273:1288   */\n      mstore\n        /* \"#utility.yul\":1307:1311   */\n      0x24\n        /* \"#utility.yul\":1304:1305   */\n      0x00\n        /* \"#utility.yul\":1297:1312   */\n      revert\n        /* \"#utility.yul\":1324:1734   */\n    tag_25:\n        /* \"#utility.yul\":1364:1371   */\n      0x00\n        /* \"#utility.yul\":1387:1407   */\n      tag_83\n        /* \"#utility.yul\":1405:1406   */\n      dup3\n        /* \"#utility.yul\":1387:1407   */\n      tag_52\n      jump\t// in\n    tag_83:\n        /* \"#utility.yul\":1382:1407   */\n      swap2\n      pop\n        /* \"#utility.yul\":1421:1441   */\n      tag_84\n        /* \"#utility.yul\":1439:1440   */\n      dup4\n        /* \"#utility.yul\":1421:1441   */\n      tag_52\n      jump\t// in\n    tag_84:\n        /* \"#utility.yul\":1416:1441   */\n      swap3\n      pop\n        /* \"#utility.yul\":1476:1477   */\n      dup3\n        /* \"#utility.yul\":1473:1474   */\n      dup3\n        /* \"#utility.yul\":1469:1478   */\n      mul\n        /* \"#utility.yul\":1498:1528   */\n      tag_85\n        /* \"#utility.yul\":1516:1527   */\n      dup2\n        /* \"#utility.yul\":1498:1528   */\n      tag_52\n      jump\t// in\n    tag_85:\n        /* \"#utility.yul\":1487:1528   */\n      swap2\n      pop\n        /* \"#utility.yul\":1677:1678   */\n      dup3\n        /* \"#utility.yul\":1668:1675   */\n      dup3\n        /* \"#utility.yul\":1664:1679   */\n      div\n        /* \"#utility.yul\":1661:1662   */\n      dup5\n        /* \"#utility.yul\":1658:1680   */\n      eq\n        /* \"#utility.yul\":1638:1639   */\n      dup4\n        /* \"#utility.yul\":1631:1640   */\n      iszero\n        /* \"#utility.yul\":1611:1694   */\n      or\n        /* \"#utility.yul\":1588:1727   */\n      tag_86\n      jumpi\n        /* \"#utility.yul\":1707:1725   */\n      tag_87\n      tag_54\n      jump\t// in\n    tag_87:\n        /* \"#utility.yul\":1588:1727   */\n    tag_86:\n        /* \"#utility.yul\":1372:1734   */\n      pop\n        /* \"#utility.yul\":1324:1734   */\n      swap3\n      swap2\n      pop\n      pop\n      jump\t// out\n        /* \"#utility.yul\":1740:1920   */\n    tag_55:\n        /* \"#utility.yul\":1788:1865   */\n      0x4e487b7100000000000000000000000000000000000000000000000000000000\n        /* \"#utility.yul\":1785:1786   */\n      0x00\n        /* \"#utility.yul\":1778:1866   */\n      mstore\n        /* \"#utility.yul\":1885:1889   */\n      0x12\n        /* \"#utility.yul\":1882:1883   */\n      0x04\n        /* \"#utility.yul\":1875:1890   */\n      mstore\n        /* \"#utility.yul\":1909:1913   */\n      0x24\n        /* \"#utility.yul\":1906:1907   */\n      0x00\n        /* \"#utility.yul\":1899:1914   */\n      revert\n        /* \"#utility.yul\":1926:2111   */\n    tag_28:\n        /* \"#utility.yul\":1966:1967   */\n      0x00\n        /* \"#utility.yul\":1983:2003   */\n      tag_90\n        /* \"#utility.yul\":2001:2002   */\n      dup3\n        /* \"#utility.yul\":1983:2003   */\n      tag_52\n      jump\t// in\n    tag_90:\n        /* \"#utility.yul\":1978:2003   */\n      swap2\n      pop\n        /* \"#utility.yul\":2017:2037   */\n      tag_91\n        /* \"#utility.yul\":2035:2036   */\n      dup4\n        /* \"#utility.yul\":2017:2037   */\n      tag_52\n      jump\t// in\n    tag_91:\n        /* \"#utility.yul\":2012:2037   */\n      swap3\n      pop\n        /* \"#utility.yul\":2056:2057   */\n      dup3\n        /* \"#utility.yul\":2046:2081   */\n      tag_92\n      jumpi\n        /* \"#utility.yul\":2061:2079   */\n      tag_93\n      tag_55\n      jump\t// in\n    tag_93:\n        /* \"#utility.yul\":2046:2081   */\n    tag_92:\n        /* \"#utility.yul\":2103:2104   */\n      dup3\n        /* \"#utility.yul\":2100:2101   */\n      dup3\n        /* \"#utility.yul\":2096:2105   */\n      div\n        /* \"#utility.yul\":2091:2105   */\n      swap1\n      pop\n        /* \"#utility.yul\":1926:2111   */\n      swap3\n      swap2\n      pop\n      pop\n      jump\t// out\n        /* \"#utility.yul\":2198:2315   */\n    tag_57:\n        /* \"#utility.yul\":2307:2308   */\n      0x00\n        /* \"#utility.yul\":2304:2305   */\n      0x00\n        /* \"#utility.yul\":2297:2309   */\n      revert\n        /* \"#utility.yul\":2444:2549   */\n    tag_59:\n        /* \"#utility.yul\":2480:2487   */\n      0x00\n        /* \"#utility.yul\":2520:2542   */\n      0xffffffffffffffffffff\n        /* \"#utility.yul\":2513:2518   */\n      dup3\n        /* \"#utility.yul\":2509:2543   */\n      and\n        /* \"#utility.yul\":2498:2543   */\n      swap1\n      pop\n        /* \"#utility.yul\":2444:2549   */\n      swap2\n      swap1\n      pop\n      jump\t// out\n        /* \"#utility.yul\":2555:2675   */\n    tag_60:\n        /* \"#utility.yul\":2627:2650   */\n      tag_99\n        /* \"#utility.yul\":2644:2649   */\n      dup2\n        /* \"#utility.yul\":2627:2650   */\n      tag_59\n      jump\t// in\n    tag_99:\n        /* \"#utility.yul\":2620:2625   */\n      dup2\n        /* \"#utility.yul\":2617:2651   */\n      eq\n        /* \"#utility.yul\":2607:2669   */\n      tag_100\n      jumpi\n        /* \"#utility.yul\":2665:2666   */\n      0x00\n        /* \"#utility.yul\":2662:2663   */\n      0x00\n        /* \"#utility.yul\":2655:2667   */\n      revert\n        /* \"#utility.yul\":2607:2669   */\n    tag_100:\n        /* \"#utility.yul\":2555:2675   */\n      pop\n      jump\t// out\n        /* \"#utility.yul\":2681:2822   */\n    tag_61:\n        /* \"#utility.yul\":2737:2742   */\n      0x00\n        /* \"#utility.yul\":2768:2774   */\n      dup2\n        /* \"#utility.yul\":2762:2775   */\n      mload\n        /* \"#utility.yul\":2753:2775   */\n      swap1\n      pop\n        /* \"#utility.yul\":2784:2816   */\n      tag_102\n        /* \"#utility.yul\":2810:2815   */\n      dup2\n        /* \"#utility.yul\":2784:2816   */\n      tag_60\n      jump\t// in\n    tag_102:\n        /* \"#utility.yul\":2681:2822   */\n      swap3\n      swap2\n      pop\n      pop\n      jump\t// out\n        /* \"#utility.yul\":2828:2904   */\n    tag_62:\n        /* \"#utility.yul\":2864:2871   */\n      0x00\n        /* \"#utility.yul\":2893:2898   */\n      dup2\n        /* \"#utility.yul\":2882:2898   */\n      swap1\n      pop\n        /* \"#utility.yul\":2828:2904   */\n      swap2\n      swap1\n      pop\n      jump\t// out\n        /* \"#utility.yul\":2910:3030   */\n    tag_63:\n        /* \"#utility.yul\":2982:3005   */\n      tag_105\n        /* \"#utility.yul\":2999:3004   */\n      dup2\n        /* \"#utility.yul\":2982:3005   */\n      tag_62\n      jump\t// in\n    tag_105:\n        /* \"#utility.yul\":2975:2980   */\n      dup2\n        /* \"#utility.yul\":2972:3006   */\n      eq\n        /* \"#utility.yul\":2962:3024   */\n      tag_106\n      jumpi\n        /* \"#utility.yul\":3020:3021   */\n      0x00\n        /* \"#utility.yul\":3017:3018   */\n      0x00\n        /* \"#utility.yul\":3010:3022   */\n      revert\n        /* \"#utility.yul\":2962:3024   */\n    tag_106:\n        /* \"#utility.yul\":2910:3030   */\n      pop\n      jump\t// out\n        /* \"#utility.yul\":3036:3177   */\n    tag_64:\n        /* \"#utility.yul\":3092:3097   */\n      0x00\n        /* \"#utility.yul\":3123:3129   */\n      dup2\n        /* \"#utility.yul\":3117:3130   */\n      mload\n        /* \"#utility.yul\":3108:3130   */\n      swap1\n      pop\n        /* \"#utility.yul\":3139:3171   */\n      tag_108\n        /* \"#utility.yul\":3165:3170   */\n      dup2\n        /* \"#utility.yul\":3139:3171   */\n      tag_63\n      jump\t// in\n    tag_108:\n        /* \"#utility.yul\":3036:3177   */\n      swap3\n      swap2\n      pop\n      pop\n      jump\t// out\n        /* \"#utility.yul\":3183:3305   */\n    tag_65:\n        /* \"#utility.yul\":3256:3280   */\n      tag_110\n        /* \"#utility.yul\":3274:3279   */\n      dup2\n        /* \"#utility.yul\":3256:3280   */\n      tag_52\n      jump\t// in\n    tag_110:\n        /* \"#utility.yul\":3249:3254   */\n      dup2\n        /* \"#utility.yul\":3246:3281   */\n      eq\n        /* \"#utility.yul\":3236:3299   */\n      tag_111\n      jumpi\n        /* \"#utility.yul\":3295:3296   */\n      0x00\n        /* \"#utility.yul\":3292:3293   */\n      0x00\n        /* \"#utility.yul\":3285:3297   */\n      revert\n        /* \"#utility.yul\":3236:3299   */\n    tag_111:\n        /* \"#utility.yul\":3183:3305   */\n      pop\n      jump\t// out\n        /* \"#utility.yul\":3311:3454   */\n    tag_66:\n        /* \"#utility.yul\":3368:3373   */\n      0x00\n        /* \"#utility.yul\":3399:3405   */\n      dup2\n        /* \"#utility.yul\":3393:3406   */\n      mload\n        /* \"#utility.yul\":3384:3406   */\n      swap1\n      pop\n        /* \"#utility.yul\":3415:3448   */\n      tag_113\n        /* \"#utility.yul\":3442:3447   */\n      dup2\n        /* \"#utility.yul\":3415:3448   */\n      tag_65\n      jump\t// in\n    tag_113:\n        /* \"#utility.yul\":3311:3454   */\n      swap3\n      swap2\n      pop\n      pop\n      jump\t// out\n        /* \"#utility.yul\":3460:4431   */\n    tag_39:\n        /* \"#utility.yul\":3563:3569   */\n      0x00\n        /* \"#utility.yul\":3571:3577   */\n      0x00\n        /* \"#utility.yul\":3579:3585   */\n      0x00\n        /* \"#utility.yul\":3587:3593   */\n      0x00\n        /* \"#utility.yul\":3595:3601   */\n      0x00\n        /* \"#utility.yul\":3644:3647   */\n      0xa0\n        /* \"#utility.yul\":3632:3641   */\n      dup7\n        /* \"#utility.yul\":3623:3630   */\n      dup9\n        /* \"#utility.yul\":3619:3642   */\n      sub\n        /* \"#utility.yul\":3615:3648   */\n      slt\n        /* \"#utility.yul\":3612:3732   */\n      iszero\n      tag_115\n      jumpi\n        /* \"#utility.yul\":3651:3730   */\n      tag_116\n      tag_57\n      jump\t// in\n    tag_116:\n        /* \"#utility.yul\":3612:3732   */\n    tag_115:\n        /* \"#utility.yul\":3771:3772   */\n      0x00\n        /* \"#utility.yul\":3796:3859   */\n      tag_117\n        /* \"#utility.yul\":3851:3858   */\n      dup9\n        /* \"#utility.yul\":3842:3848   */\n      dup3\n        /* \"#utility.yul\":3831:3840   */\n      dup10\n        /* \"#utility.yul\":3827:3849   */\n      add\n        /* \"#utility.yul\":3796:3859   */\n      tag_61\n      jump\t// in\n    tag_117:\n        /* \"#utility.yul\":3786:3859   */\n      swap6\n      pop\n        /* \"#utility.yul\":3742:3869   */\n      pop\n        /* \"#utility.yul\":3908:3910   */\n      0x20\n        /* \"#utility.yul\":3934:3997   */\n      tag_118\n        /* \"#utility.yul\":3989:3996   */\n      dup9\n        /* \"#utility.yul\":3980:3986   */\n      dup3\n        /* \"#utility.yul\":3969:3978   */\n      dup10\n        /* \"#utility.yul\":3965:3987   */\n      add\n        /* \"#utility.yul\":3934:3997   */\n      tag_64\n      jump\t// in\n    tag_118:\n        /* \"#utility.yul\":3924:3997   */\n      swap5\n      pop\n        /* \"#utility.yul\":3879:4007   */\n      pop\n        /* \"#utility.yul\":4046:4048   */\n      0x40\n        /* \"#utility.yul\":4072:4136   */\n      tag_119\n        /* \"#utility.yul\":4128:4135   */\n      dup9\n        /* \"#utility.yul\":4119:4125   */\n      dup3\n        /* \"#utility.yul\":4108:4117   */\n      dup10\n        /* \"#utility.yul\":4104:4126   */\n      add\n        /* \"#utility.yul\":4072:4136   */\n      tag_66\n      jump\t// in\n    tag_119:\n        /* \"#utility.yul\":4062:4136   */\n      swap4\n      pop\n        /* \"#utility.yul\":4017:4146   */\n      pop\n        /* \"#utility.yul\":4185:4187   */\n      0x60\n        /* \"#utility.yul\":4211:4275   */\n      tag_120\n        /* \"#utility.yul\":4267:4274   */\n      dup9\n        /* \"#utility.yul\":4258:4264   */\n      dup3\n        /* \"#utility.yul\":4247:4256   */\n      dup10\n        /* \"#utility.yul\":4243:4265   */\n      add\n        /* \"#utility.yul\":4211:4275   */\n      tag_66\n      jump\t// in\n    tag_120:\n        /* \"#utility.yul\":4201:4275   */\n      swap3\n      pop\n        /* \"#utility.yul\":4156:4285   */\n      pop\n        /* \"#utility.yul\":4324:4327   */\n      0x80\n        /* \"#utility.yul\":4351:4414   */\n      tag_121\n        /* \"#utility.yul\":4406:4413   */\n      dup9\n        /* \"#utility.yul\":4397:4403   */\n      dup3\n        /* \"#utility.yul\":4386:4395   */\n      dup10\n        /* \"#utility.yul\":4382:4404   */\n      add\n        /* \"#utility.yul\":4351:4414   */\n      tag_61\n      jump\t// in\n    tag_121:\n        /* \"#utility.yul\":4341:4414   */\n      swap2\n      pop\n        /* \"#utility.yul\":4295:4424   */\n      pop\n        /* \"#utility.yul\":3460:4431   */\n      swap3\n      swap6\n      pop\n      swap3\n      swap6\n      swap1\n      swap4\n      pop\n      jump\t// out\n        /* \"#utility.yul\":4437:4631   */\n    tag_47:\n        /* \"#utility.yul\":4477:4481   */\n      0x00\n        /* \"#utility.yul\":4497:4517   */\n      tag_123\n        /* \"#utility.yul\":4515:4516   */\n      dup3\n        /* \"#utility.yul\":4497:4517   */\n      tag_52\n      jump\t// in\n    tag_123:\n        /* \"#utility.yul\":4492:4517   */\n      swap2\n      pop\n        /* \"#utility.yul\":4531:4551   */\n      tag_124\n        /* \"#utility.yul\":4549:4550   */\n      dup4\n        /* \"#utility.yul\":4531:4551   */\n      tag_52\n      jump\t// in\n    tag_124:\n        /* \"#utility.yul\":4526:4551   */\n      swap3\n      pop\n        /* \"#utility.yul\":4575:4576   */\n      dup3\n        /* \"#utility.yul\":4572:4573   */\n      dup3\n        /* \"#utility.yul\":4568:4577   */\n      sub\n        /* \"#utility.yul\":4560:4577   */\n      swap1\n      pop\n        /* \"#utility.yul\":4599:4600   */\n      dup2\n        /* \"#utility.yul\":4593:4597   */\n      dup2\n        /* \"#utility.yul\":4590:4601   */\n      gt\n        /* \"#utility.yul\":4587:4624   */\n      iszero\n      tag_125\n      jumpi\n        /* \"#utility.yul\":4604:4622   */\n      tag_126\n      tag_54\n      jump\t// in\n    tag_126:\n        /* \"#utility.yul\":4587:4624   */\n    tag_125:\n        /* \"#utility.yul\":4437:4631   */\n      swap3\n      swap2\n      pop\n      pop\n      jump\t// out\n\n    auxdata: 0xa264697066735822122064034a7fb4c7c92acee54e5d14574fb447b4193d367020923b23d2d87b19528864736f6c634300081b0033\n}\n",
				"bytecode": {
					"linkReferences": {},
					"object": "60c060405260c8600155348015610014575f5ffd5b5060405161081338038061081383398181016040528101906100369190610142565b335f5f6101000a81548173ffffffffffffffffffffffffffffffffffffffff021916908373ffffffffffffffffffffffffffffffffffffffff1602179055508173ffffffffffffffffffffffffffffffffffffffff1660808173ffffffffffffffffffffffffffffffffffffffff16815250508073ffffffffffffffffffffffffffffffffffffffff1660a08173ffffffffffffffffffffffffffffffffffffffff16815250505050610180565b5f5ffd5b5f73ffffffffffffffffffffffffffffffffffffffff82169050919050565b5f610111826100e8565b9050919050565b61012181610107565b811461012b575f5ffd5b50565b5f8151905061013c81610118565b92915050565b5f5f60408385031215610158576101576100e4565b5b5f6101658582860161012e565b92505060206101768582860161012e565b9150509250929050565b60805160a0516106736101a05f395f603f01525f61023101526106735ff3fe60806040526004361061002c575f3560e01c80633ccfd60b146100c7578063bea4dfb5146100dd576100c3565b366100c3575f61003b34610107565b90507f000000000000000000000000000000000000000000000000000000000000000073ffffffffffffffffffffffffffffffffffffffff166340c10f1933836040518363ffffffff1660e01b81526004016100989291906103e8565b5f604051808303815f87803b1580156100af575f5ffd5b505af11580156100c1573d5f5f3e3d5ffd5b005b5f5ffd5b3480156100d2575f5ffd5b506100db61016e565b005b3480156100e8575f5ffd5b506100f161022b565b6040516100fe919061040f565b60405180910390f35b5f5f6402540be40061011761022b565b6101219190610455565b90505f670de0b6b3a764000082856101399190610455565b61014391906104c3565b90505f6127106001548361015791906104c3565b61016191906104c3565b9050809350505050919050565b5f5f9054906101000a900473ffffffffffffffffffffffffffffffffffffffff1673ffffffffffffffffffffffffffffffffffffffff163373ffffffffffffffffffffffffffffffffffffffff16146101c5575f5ffd5b5f5f9054906101000a900473ffffffffffffffffffffffffffffffffffffffff1673ffffffffffffffffffffffffffffffffffffffff166108fc4790811502906040515f60405180830381858888f19350505050158015610228573d5f5f3e3d5ffd5b50565b5f5f5f5f7f000000000000000000000000000000000000000000000000000000000000000073ffffffffffffffffffffffffffffffffffffffff1663feaf968c6040518163ffffffff1660e01b815260040160a060405180830381865afa9250505080156102b757506040513d601f19601f820116820180604052508101906102b49190610593565b60015b6102ed576040517fbc2332ed00000000000000000000000000000000000000000000000000000000815260040160405180910390fd5b84975083965081955050505050505f8369ffffffffffffffffffff1603610340576040517fbfbe031f00000000000000000000000000000000000000000000000000000000815260040160405180910390fd5b620151804261034f919061060a565b811015610388576040517f1087e10900000000000000000000000000000000000000000000000000000000815260040160405180910390fd5b81935050505090565b5f73ffffffffffffffffffffffffffffffffffffffff82169050919050565b5f6103ba82610391565b9050919050565b6103ca816103b0565b82525050565b5f819050919050565b6103e2816103d0565b82525050565b5f6040820190506103fb5f8301856103c1565b61040860208301846103d9565b9392505050565b5f6020820190506104225f8301846103d9565b92915050565b7f4e487b71000000000000000000000000000000000000000000000000000000005f52601160045260245ffd5b5f61045f826103d0565b915061046a836103d0565b9250828202610478816103d0565b9150828204841483151761048f5761048e610428565b5b5092915050565b7f4e487b71000000000000000000000000000000000000000000000000000000005f52601260045260245ffd5b5f6104cd826103d0565b91506104d8836103d0565b9250826104e8576104e7610496565b5b828204905092915050565b5f5ffd5b5f69ffffffffffffffffffff82169050919050565b610515816104f7565b811461051f575f5ffd5b50565b5f815190506105308161050c565b92915050565b5f819050919050565b61054881610536565b8114610552575f5ffd5b50565b5f815190506105638161053f565b92915050565b610572816103d0565b811461057c575f5ffd5b50565b5f8151905061058d81610569565b92915050565b5f5f5f5f5f60a086880312156105ac576105ab6104f3565b5b5f6105b988828901610522565b95505060206105ca88828901610555565b94505060406105db8882890161057f565b93505060606105ec8882890161057f565b92505060806105fd88828901610522565b9150509295509295909350565b5f610614826103d0565b915061061f836103d0565b925082820390508181111561063757610636610428565b5b9291505056fea264697066735822122064034a7fb4c7c92acee54e5d14574fb447b4193d367020923b23d2d87b19528864736f6c634300081b0033",
					"opcodes": "PUSH1 0xC0 PUSH1 0x40 MSTORE PUSH1 0xC8 PUSH1 0x1 SSTORE CALLVALUE DUP1 ISZERO PUSH2 0x14 JUMPI PUSH0 PUSH0 REVERT JUMPDEST POP PUSH1 0x40 MLOAD PUSH2 0x813 CODESIZE SUB DUP1 PUSH2 0x813 DUP4 CODECOPY DUP2 DUP2 ADD PUSH1 0x40 MSTORE DUP2 ADD SWAP1 PUSH2 0x36 SWAP2 SWAP1 PUSH2 0x142 JUMP JUMPDEST CALLER PUSH0 PUSH0 PUSH2 0x100 EXP DUP2 SLOAD DUP2 PUSH20 0xFFFFFFFFFFFFFFFFFFFFFFFFFFFFFFFFFFFFFFFF MUL NOT AND SWAP1 DUP4 PUSH20 0xFFFFFFFFFFFFFFFFFFFFFFFFFFFFFFFFFFFFFFFF AND MUL OR SWAP1 SSTORE POP DUP2 PUSH20 0xFFFFFFFFFFFFFFFFFFFFFFFFFFFFFFFFFFFFFFFF AND PUSH1 0x80 DUP2 PUSH20 0xFFFFFFFFFFFFFFFFFFFFFFFFFFFFFFFFFFFFFFFF AND DUP2 MSTORE POP POP DUP1 PUSH20 0xFFFFFFFFFFFFFFFFFFFFFFFFFFFFFFFFFFFFFFFF AND PUSH1 0xA0 DUP2 PUSH20 0xFFFFFFFFFFFFFFFFFFFFFFFFFFFFFFFFFFFFFFFF AND DUP2 MSTORE POP POP POP POP PUSH2 0x180 JUMP JUMPDEST PUSH0 PUSH0 REVERT JUMPDEST PUSH0 PUSH20 0xFFFFFFFFFFFFFFFFFFFFFFFFFFFFFFFFFFFFFFFF DUP3 AND SWAP1 POP SWAP2 SWAP1 POP JUMP JUMPDEST PUSH0 PUSH2 0x111 DUP3 PUSH2 0xE8 JUMP JUMPDEST SWAP1 POP SWAP2 SWAP1 POP JUMP JUMPDEST PUSH2 0x121 DUP2 PUSH2 0x107 JUMP JUMPDEST DUP2 EQ PUSH2 0x12B JUMPI PUSH0 PUSH0 REVERT JUMPDEST POP JUMP JUMPDEST PUSH0 DUP2 MLOAD SWAP1 POP PUSH2 0x13C DUP2 PUSH2 0x118 JUMP JUMPDEST SWAP3 SWAP2 POP POP JUMP JUMPDEST PUSH0 PUSH0 PUSH1 0x40 DUP4 DUP6 SUB SLT ISZERO PUSH2 0x158 JUMPI PUSH2 0x157 PUSH2 0xE4 JUMP JUMPDEST JUMPDEST PUSH0 PUSH2 0x165 DUP6 DUP3 DUP7 ADD PUSH2 0x12E JUMP JUMPDEST SWAP3 POP POP PUSH1 0x20 PUSH2 0x176 DUP6 DUP3 DUP7 ADD PUSH2 0x12E JUMP JUMPDEST SWAP2 POP POP SWAP3 POP SWAP3 SWAP1 POP JUMP JUMPDEST PUSH1 0x80 MLOAD PUSH1 0xA0 MLOAD PUSH2 0x673 PUSH2 0x1A0 PUSH0 CODECOPY PUSH0 PUSH1 0x3F ADD MSTORE PUSH0 PUSH2 0x231 ADD MSTORE PUSH2 0x673 PUSH0 RETURN INVALID PUSH1 0x80 PUSH1 0x40 MSTORE PUSH1 0x4 CALLDATASIZE LT PUSH2 0x2C JUMPI PUSH0 CALLDATALOAD PUSH1 0xE0 SHR DUP1 PUSH4 0x3CCFD60B EQ PUSH2 0xC7 JUMPI DUP1 PUSH4 0xBEA4DFB5 EQ PUSH2 0xDD JUMPI PUSH2 0xC3 JUMP JUMPDEST CALLDATASIZE PUSH2 0xC3 JUMPI PUSH0 PUSH2 0x3B CALLVALUE PUSH2 0x107 JUMP JUMPDEST SWAP1 POP PUSH32 0x0 PUSH20 0xFFFFFFFFFFFFFFFFFFFFFFFFFFFFFFFFFFFFFFFF AND PUSH4 0x40C10F19 CALLER DUP4 PUSH1 0x40 MLOAD DUP4 PUSH4 0xFFFFFFFF AND PUSH1 0xE0 SHL DUP2 MSTORE PUSH1 0x4 ADD PUSH2 0x98 SWAP3 SWAP2 SWAP1 PUSH2 0x3E8 JUMP JUMPDEST PUSH0 PUSH1 0x40 MLOAD DUP1 DUP4 SUB DUP2 PUSH0 DUP8 DUP1 EXTCODESIZE ISZERO DUP1 ISZERO PUSH2 0xAF JUMPI PUSH0 PUSH0 REVERT JUMPDEST POP GAS CALL ISZERO DUP1 ISZERO PUSH2 0xC1 JUMPI RETURNDATASIZE PUSH0 PUSH0 RETURNDATACOPY RETURNDATASIZE PUSH0 REVERT JUMPDEST STOP JUMPDEST PUSH0 PUSH0 REVERT JUMPDEST CALLVALUE DUP1 ISZERO PUSH2 0xD2 JUMPI PUSH0 PUSH0 REVERT JUMPDEST POP PUSH2 0xDB PUSH2 0x16E JUMP JUMPDEST STOP JUMPDEST CALLVALUE DUP1 ISZERO PUSH2 0xE8 JUMPI PUSH0 PUSH0 REVERT JUMPDEST POP PUSH2 0xF1 PUSH2 0x22B JUMP JUMPDEST PUSH1 0x40 MLOAD PUSH2 0xFE SWAP2 SWAP1 PUSH2 0x40F JUMP JUMPDEST PUSH1 0x40 MLOAD DUP1 SWAP2 SUB SWAP1 RETURN JUMPDEST PUSH0 PUSH0 PUSH5 0x2540BE400 PUSH2 0x117 PUSH2 0x22B JUMP JUMPDEST PUSH2 0x121 SWAP2 SWAP1 PUSH2 0x455 JUMP JUMPDEST SWAP1 POP PUSH0 PUSH8 0xDE0B6B3A7640000 DUP3 DUP6 PUSH2 0x139 SWAP2 SWAP1 PUSH2 0x455 JUMP JUMPDEST PUSH2 0x143 SWAP2 SWAP1 PUSH2 0x4C3 JUMP JUMPDEST SWAP1 POP PUSH0 PUSH2 0x2710 PUSH1 0x1 SLOAD DUP4 PUSH2 0x157 SWAP2 SWAP1 PUSH2 0x4C3 JUMP JUMPDEST PUSH2 0x161 SWAP2 SWAP1 PUSH2 0x4C3 JUMP JUMPDEST SWAP1 POP DUP1 SWAP4 POP POP POP POP SWAP2 SWAP1 POP JUMP JUMPDEST PUSH0 PUSH0 SWAP1 SLOAD SWAP1 PUSH2 0x100 EXP SWAP1 DIV PUSH20 0xFFFFFFFFFFFFFFFFFFFFFFFFFFFFFFFFFFFFFFFF AND PUSH20 0xFFFFFFFFFFFFFFFFFFFFFFFFFFFFFFFFFFFFFFFF AND CALLER PUSH20 0xFFFFFFFFFFFFFFFFFFFFFFFFFFFFFFFFFFFFFFFF AND EQ PUSH2 0x1C5 JUMPI PUSH0 PUSH0 REVERT JUMPDEST PUSH0 PUSH0 SWAP1 SLOAD SWAP1 PUSH2 0x100 EXP SWAP1 DIV PUSH20 0xFFFFFFFFFFFFFFFFFFFFFFFFFFFFFFFFFFFFFFFF AND PUSH20 0xFFFFFFFFFFFFFFFFFFFFFFFFFFFFFFFFFFFFFFFF AND PUSH2 0x8FC SELFBALANCE SWAP1 DUP2 ISZERO MUL SWAP1 PUSH1 0x40 MLOAD PUSH0 PUSH1 0x40 MLOAD DUP1 DUP4 SUB DUP2 DUP6 DUP9 DUP9 CALL SWAP4 POP POP POP POP ISZERO DUP1 ISZERO PUSH2 0x228 JUMPI RETURNDATASIZE PUSH0 PUSH0 RETURNDATACOPY RETURNDATASIZE PUSH0 REVERT JUMPDEST POP JUMP JUMPDEST PUSH0 PUSH0 PUSH0 PUSH0 PUSH32 0x0 PUSH20 0xFFFFFFFFFFFFFFFFFFFFFFFFFFFFFFFFFFFFFFFF AND PUSH4 0xFEAF968C PUSH1 0x40 MLOAD DUP2 PUSH4 0xFFFFFFFF AND PUSH1 0xE0 SHL DUP2 MSTORE PUSH1 0x4 ADD PUSH1 0xA0 PUSH1 0x40 MLOAD DUP1 DUP4 SUB DUP2 DUP7 GAS STATICCALL SWAP3 POP POP POP DUP1 ISZERO PUSH2 0x2B7 JUMPI POP PUSH1 0x40 MLOAD RETURNDATASIZE PUSH1 0x1F NOT PUSH1 0x1F DUP3 ADD AND DUP3 ADD DUP1 PUSH1 0x40 MSTORE POP DUP2 ADD SWAP1 PUSH2 0x2B4 SWAP2 SWAP1 PUSH2 0x593 JUMP JUMPDEST PUSH1 0x1 JUMPDEST PUSH2 0x2ED JUMPI PUSH1 0x40 MLOAD PUSH32 0xBC2332ED00000000000000000000000000000000000000000000000000000000 DUP2 MSTORE PUSH1 0x4 ADD PUSH1 0x40 MLOAD DUP1 SWAP2 SUB SWAP1 REVERT JUMPDEST DUP5 SWAP8 POP DUP4 SWAP7 POP DUP2 SWAP6 POP POP POP POP POP POP PUSH0 DUP4 PUSH10 0xFFFFFFFFFFFFFFFFFFFF AND SUB PUSH2 0x340 JUMPI PUSH1 0x40 MLOAD PUSH32 0xBFBE031F00000000000000000000000000000000000000000000000000000000 DUP2 MSTORE PUSH1 0x4 ADD PUSH1 0x40 MLOAD DUP1 SWAP2 SUB SWAP1 REVERT JUMPDEST PUSH3 0x15180 TIMESTAMP PUSH2 0x34F SWAP2 SWAP1 PUSH2 0x60A JUMP JUMPDEST DUP2 LT ISZERO PUSH2 0x388 JUMPI PUSH1 0x40 MLOAD PUSH32 0x1087E10900000000000000000000000000000000000000000000000000000000 DUP2 MSTORE PUSH1 0x4 ADD PUSH1 0x40 MLOAD DUP1 SWAP2 SUB SWAP1 REVERT JUMPDEST DUP2 SWAP4 POP POP POP POP SWAP1 JUMP JUMPDEST PUSH0 PUSH20 0xFFFFFFFFFFFFFFFFFFFFFFFFFFFFFFFFFFFFFFFF DUP3 AND SWAP1 POP SWAP2 SWAP1 POP JUMP JUMPDEST PUSH0 PUSH2 0x3BA DUP3 PUSH2 0x391 JUMP JUMPDEST SWAP1 POP SWAP2 SWAP1 POP JUMP JUMPDEST PUSH2 0x3CA DUP2 PUSH2 0x3B0 JUMP JUMPDEST DUP3 MSTORE POP POP JUMP JUMPDEST PUSH0 DUP2 SWAP1 POP SWAP2 SWAP1 POP JUMP JUMPDEST PUSH2 0x3E2 DUP2 PUSH2 0x3D0 JUMP JUMPDEST DUP3 MSTORE POP POP JUMP JUMPDEST PUSH0 PUSH1 0x40 DUP3 ADD SWAP1 POP PUSH2 0x3FB PUSH0 DUP4 ADD DUP6 PUSH2 0x3C1 JUMP JUMPDEST PUSH2 0x408 PUSH1 0x20 DUP4 ADD DUP5 PUSH2 0x3D9 JUMP JUMPDEST SWAP4 SWAP3 POP POP POP JUMP JUMPDEST PUSH0 PUSH1 0x20 DUP3 ADD SWAP1 POP PUSH2 0x422 PUSH0 DUP4 ADD DUP5 PUSH2 0x3D9 JUMP JUMPDEST SWAP3 SWAP2 POP POP JUMP JUMPDEST PUSH32 0x4E487B7100000000000000000000000000000000000000000000000000000000 PUSH0 MSTORE PUSH1 0x11 PUSH1 0x4 MSTORE PUSH1 0x24 PUSH0 REVERT JUMPDEST PUSH0 PUSH2 0x45F DUP3 PUSH2 0x3D0 JUMP JUMPDEST SWAP2 POP PUSH2 0x46A DUP4 PUSH2 0x3D0 JUMP JUMPDEST SWAP3 POP DUP3 DUP3 MUL PUSH2 0x478 DUP2 PUSH2 0x3D0 JUMP JUMPDEST SWAP2 POP DUP3 DUP3 DIV DUP5 EQ DUP4 ISZERO OR PUSH2 0x48F JUMPI PUSH2 0x48E PUSH2 0x428 JUMP JUMPDEST JUMPDEST POP SWAP3 SWAP2 POP POP JUMP JUMPDEST PUSH32 0x4E487B7100000000000000000000000000000000000000000000000000000000 PUSH0 MSTORE PUSH1 0x12 PUSH1 0x4 MSTORE PUSH1 0x24 PUSH0 REVERT JUMPDEST PUSH0 PUSH2 0x4CD DUP3 PUSH2 0x3D0 JUMP JUMPDEST SWAP2 POP PUSH2 0x4D8 DUP4 PUSH2 0x3D0 JUMP JUMPDEST SWAP3 POP DUP3 PUSH2 0x4E8 JUMPI PUSH2 0x4E7 PUSH2 0x496 JUMP JUMPDEST JUMPDEST DUP3 DUP3 DIV SWAP1 POP SWAP3 SWAP2 POP POP JUMP JUMPDEST PUSH0 PUSH0 REVERT JUMPDEST PUSH0 PUSH10 0xFFFFFFFFFFFFFFFFFFFF DUP3 AND SWAP1 POP SWAP2 SWAP1 POP JUMP JUMPDEST PUSH2 0x515 DUP2 PUSH2 0x4F7 JUMP JUMPDEST DUP2 EQ PUSH2 0x51F JUMPI PUSH0 PUSH0 REVERT JUMPDEST POP JUMP JUMPDEST PUSH0 DUP2 MLOAD SWAP1 POP PUSH2 0x530 DUP2 PUSH2 0x50C JUMP JUMPDEST SWAP3 SWAP2 POP POP JUMP JUMPDEST PUSH0 DUP2 SWAP1 POP SWAP2 SWAP1 POP JUMP JUMPDEST PUSH2 0x548 DUP2 PUSH2 0x536 JUMP JUMPDEST DUP2 EQ PUSH2 0x552 JUMPI PUSH0 PUSH0 REVERT JUMPDEST POP JUMP JUMPDEST PUSH0 DUP2 MLOAD SWAP1 POP PUSH2 0x563 DUP2 PUSH2 0x53F JUMP JUMPDEST SWAP3 SWAP2 POP POP JUMP JUMPDEST PUSH2 0x572 DUP2 PUSH2 0x3D0 JUMP JUMPDEST DUP2 EQ PUSH2 0x57C JUMPI PUSH0 PUSH0 REVERT JUMPDEST POP JUMP JUMPDEST PUSH0 DUP2 MLOAD SWAP1 POP PUSH2 0x58D DUP2 PUSH2 0x569 JUMP JUMPDEST SWAP3 SWAP2 POP POP JUMP JUMPDEST PUSH0 PUSH0 PUSH0 PUSH0 PUSH0 PUSH1 0xA0 DUP7 DUP9 SUB SLT ISZERO PUSH2 0x5AC JUMPI PUSH2 0x5AB PUSH2 0x4F3 JUMP JUMPDEST JUMPDEST PUSH0 PUSH2 0x5B9 DUP9 DUP3 DUP10 ADD PUSH2 0x522 JUMP JUMPDEST SWAP6 POP POP PUSH1 0x20 PUSH2 0x5CA DUP9 DUP3 DUP10 ADD PUSH2 0x555 JUMP JUMPDEST SWAP5 POP POP PUSH1 0x40 PUSH2 0x5DB DUP9 DUP3 DUP10 ADD PUSH2 0x57F JUMP JUMPDEST SWAP4 POP POP PUSH1 0x60 PUSH2 0x5EC DUP9 DUP3 DUP10 ADD PUSH2 0x57F JUMP JUMPDEST SWAP3 POP POP PUSH1 0x80 PUSH2 0x5FD DUP9 DUP3 DUP10 ADD PUSH2 0x522 JUMP JUMPDEST SWAP2 POP POP SWAP3 SWAP6 POP SWAP3 SWAP6 SWAP1 SWAP4 POP JUMP JUMPDEST PUSH0 PUSH2 0x614 DUP3 PUSH2 0x3D0 JUMP JUMPDEST SWAP2 POP PUSH2 0x61F DUP4 PUSH2 0x3D0 JUMP JUMPDEST SWAP3 POP DUP3 DUP3 SUB SWAP1 POP DUP2 DUP2 GT ISZERO PUSH2 0x637 JUMPI PUSH2 0x636 PUSH2 0x428 JUMP JUMPDEST JUMPDEST SWAP3 SWAP2 POP POP JUMP INVALID LOG2 PUSH5 0x6970667358 0x22 SLT KECCAK256 PUSH5 0x34A7FB4C7 0xC9 0x2A 0xCE 0xE5 0x4E TSTORE EQ JUMPI 0x4F 0xB4 SELFBALANCE 0xB4 NOT RETURNDATASIZE CALLDATASIZE PUSH17 0x20923B23D2D87B19528864736F6C634300 ADDMOD SHL STOP CALLER "
				},
				"gasEstimates": {
					"creation": {
						"codeDepositCost": "330200",
						"executionCost": "infinite",
						"totalCost": "infinite"
					},
					"external": {
						"getChainlinkDataFeedLatestAnswer()": "infinite",
						"withdraw()": "infinite"
					},
					"internal": {
						"calculateTokenAmount(uint256)": "infinite"
					}
				},
				"methodIdentifiers": {
					"getChainlinkDataFeedLatestAnswer()": "bea4dfb5",
					"withdraw()": "3ccfd60b"
				}
			},
			"storageLayout": {
				"storage": [
					{
						"astId": 64,
						"contract": "tokenShop.sol:TokenShop",
						"label": "owner",
						"offset": 0,
						"slot": "0",
						"type": "t_address"
					},
					{
						"astId": 76,
						"contract": "tokenShop.sol:TokenShop",
						"label": "tokenPrice",
						"offset": 0,
						"slot": "1",
						"type": "t_uint256"
					}
				],
				"types": {
					"t_address": {
						"encoding": "inplace",
						"label": "address",
						"numberOfBytes": "20"
					},
					"t_uint256": {
						"encoding": "inplace",
						"label": "uint256",
						"numberOfBytes": "32"
					}
				}
			},
			"userdoc": {
				"kind": "user",
				"methods": {},
				"version": 1
			}
		}
	}
}