{
	"data": {
		"bytecode": {
			"linkReferences": {},
			"object": "60806040527fc799bd1e3bd4d1a41cd4968997a4e03dfd2a3c7c04b695881138580163f428875f1b600f55620186a060105f6101000a81548163ffffffff021916908363ffffffff1602179055506003601060046101000a81548161ffff021916908361ffff1602179055506002601060066101000a81548163ffffffff021916908363ffffffff16021790555060405180608001604052806040518060800160405280605e8152602001615956605e913981526020016040518060a00160405280606181526020016158956061913981526020016040518060800160405280605e8152602001615837605e913981526020016040518060800160405280606081526020016158f660609139815250601190600461011e9291906105ca565b5060405180608001604052806040518060400160405280600381526020017f456c66000000000000000000000000000000000000000000000000000000000081525081526020016040518060400160405280600681526020017f4b6e69676874000000000000000000000000000000000000000000000000000081525081526020016040518060400160405280600381526020017f4f7263000000000000000000000000000000000000000000000000000000000081525081526020016040518060400160405280600581526020017f576974636800000000000000000000000000000000000000000000000000000081525081525060129060046102249291906105ca565b50348015610230575f5ffd5b506040516159b43803806159b4833981810160405281019061025291906106d3565b735c210ef41cd1a72de73bf76ec39637bb0d3d7bee33805f6040518060400160405280600681526020017f72756e6e657200000000000000000000000000000000000000000000000000008152506040518060400160405280600281526020017f6b73000000000000000000000000000000000000000000000000000000000000815250815f90816102e49190610932565b5080600190816102f49190610932565b5050505f73ffffffffffffffffffffffffffffffffffffffff168273ffffffffffffffffffffffffffffffffffffffff1603610365576040517f08c379a000000000000000000000000000000000000000000000000000000000815260040161035c90610a5b565b60405180910390fd5b8160075f6101000a81548173ffffffffffffffffffffffffffffffffffffffff021916908373ffffffffffffffffffffffffffffffffffffffff1602179055505f73ffffffffffffffffffffffffffffffffffffffff168173ffffffffffffffffffffffffffffffffffffffff16146103e8576103e78161049e60201b60201c565b5b5050505f73ffffffffffffffffffffffffffffffffffffffff168173ffffffffffffffffffffffffffffffffffffffff1603610450576040517fd92e233d00000000000000000000000000000000000000000000000000000000815260040160405180910390fd5b8060095f6101000a81548173ffffffffffffffffffffffffffffffffffffffff021916908373ffffffffffffffffffffffffffffffffffffffff1602179055505080600c8190555050610ae1565b3373ffffffffffffffffffffffffffffffffffffffff168173ffffffffffffffffffffffffffffffffffffffff160361050c576040517f08c379a000000000000000000000000000000000000000000000000000000000815260040161050390610ac3565b60405180910390fd5b8060085f6101000a81548173ffffffffffffffffffffffffffffffffffffffff021916908373ffffffffffffffffffffffffffffffffffffffff1602179055508073ffffffffffffffffffffffffffffffffffffffff1660075f9054906101000a900473ffffffffffffffffffffffffffffffffffffffff1673ffffffffffffffffffffffffffffffffffffffff167fed8889f560326eb138920d842192f0eb3dd22b4f139c87a2c57538e05bae127860405160405180910390a350565b828054828255905f5260205f20908101928215610610579160200282015b8281111561060f5782518290816105ff9190610932565b50916020019190600101906105e8565b5b50905061061d9190610621565b5090565b5b80821115610640575f81816106379190610644565b50600101610622565b5090565b50805461065090610762565b5f825580601f10610661575061067e565b601f0160209004905f5260205f209081019061067d9190610681565b5b50565b5b80821115610698575f815f905550600101610682565b5090565b5f5ffd5b5f819050919050565b6106b2816106a0565b81146106bc575f5ffd5b50565b5f815190506106cd816106a9565b92915050565b5f602082840312156106e8576106e761069c565b5b5f6106f5848285016106bf565b91505092915050565b5f81519050919050565b7f4e487b71000000000000000000000000000000000000000000000000000000005f52604160045260245ffd5b7f4e487b71000000000000000000000000000000000000000000000000000000005f52602260045260245ffd5b5f600282049050600182168061077957607f821691505b60208210810361078c5761078b610735565b5b50919050565b5f819050815f5260205f209050919050565b5f6020601f8301049050919050565b5f82821b905092915050565b5f600883026107ee7fffffffffffffffffffffffffffffffffffffffffffffffffffffffffffffffff826107b3565b6107f886836107b3565b95508019841693508086168417925050509392505050565b5f819050919050565b5f61083361082e610829846106a0565b610810565b6106a0565b9050919050565b5f819050919050565b61084c83610819565b6108606108588261083a565b8484546107bf565b825550505050565b5f5f905090565b610877610868565b610882818484610843565b505050565b5b818110156108a55761089a5f8261086f565b600181019050610888565b5050565b601f8211156108ea576108bb81610792565b6108c4846107a4565b810160208510156108d3578190505b6108e76108df856107a4565b830182610887565b50505b505050565b5f82821c905092915050565b5f61090a5f19846008026108ef565b1980831691505092915050565b5f61092283836108fb565b9150826002028217905092915050565b61093b826106fe565b67ffffffffffffffff81111561095457610953610708565b5b61095e8254610762565b6109698282856108a9565b5f60209050601f83116001811461099a575f8415610988578287015190505b6109928582610917565b8655506109f9565b601f1984166109a886610792565b5f5b828110156109cf578489015182556001820191506020850194506020810190506109aa565b868310156109ec57848901516109e8601f8916826108fb565b8355505b6001600288020188555050505b505050505050565b5f82825260208201905092915050565b7f43616e6e6f7420736574206f776e657220746f207a65726f00000000000000005f82015250565b5f610a45601883610a01565b9150610a5082610a11565b602082019050919050565b5f6020820190508181035f830152610a7281610a39565b9050919050565b7f43616e6e6f74207472616e7366657220746f2073656c660000000000000000005f82015250565b5f610aad601783610a01565b9150610ab882610a79565b602082019050919050565b5f6020820190508181035f830152610ada81610aa1565b9050919050565b614d4980610aee5f395ff3fe608060405234801561000f575f5ffd5b50600436106101e3575f3560e01c80638ac000211161010d578063b0fb162f116100a0578063d8a4676f1161006f578063d8a4676f1461057e578063e985e9c5146105af578063f2fde38b146105df578063fc2a88c3146105fb576101e3565b8063b0fb162f146104e4578063b88d4fde14610502578063bc85777c1461051e578063c87b56dd1461054e576101e3565b806398bdf6f5116100dc57806398bdf6f51461045b5780639eccacf614610479578063a168fa8914610497578063a22cb465146104c8576101e3565b80638ac00021146103e55780638da5cb5b146104035780638ea981171461042157806395d89b411461043d576101e3565b806331c864e81161018557806370a082311161015457806370a082311461035d57806379ba50971461038d5780637ccfd7fc146103975780638796ba8c146103b5576101e3565b806331c864e8146102d757806342842e0e146102f357806361728f391461030f5780636352211e1461032d576101e3565b8063095ea7b3116101c1578063095ea7b3146102655780631fe543e31461028157806323b872dd1461029d57806324f74697146102b9576101e3565b806301ffc9a7146101e757806306fdde0314610217578063081812fc14610235575b5f5ffd5b61020160048036038101906101fc9190612e05565b610619565b60405161020e9190612e4a565b60405180910390f35b61021f6106fa565b60405161022c9190612ed3565b60405180910390f35b61024f600480360381019061024a9190612f26565b610789565b60405161025c9190612f90565b60405180910390f35b61027f600480360381019061027a9190612fd3565b61080a565b005b61029b60048036038101906102969190613072565b610920565b005b6102b760048036038101906102b291906130cf565b6109e4565b005b6102c1610a44565b6040516102ce919061313d565b60405180910390f35b6102f160048036038101906102ec9190612f26565b610a59565b005b61030d600480360381019061030891906130cf565b610d49565b005b610317610d68565b604051610324919061316e565b60405180910390f35b61034760048036038101906103429190612f26565b610d6e565b6040516103549190612f90565b60405180910390f35b61037760048036038101906103729190613187565b610e1a565b60405161038491906131c1565b60405180910390f35b610395610ece565b005b61039f61105f565b6040516103ac919061313d565b60405180910390f35b6103cf60048036038101906103ca9190612f26565b611075565b6040516103dc91906131c1565b60405180910390f35b6103ed611095565b6040516103fa91906131c1565b60405180910390f35b61040b61109b565b6040516104189190612f90565b60405180910390f35b61043b60048036038101906104369190613187565b6110c3565b005b6104456112a0565b6040516104529190612ed3565b60405180910390f35b610463611330565b60405161047091906131c1565b60405180910390f35b61048161133b565b60405161048e9190613235565b60405180910390f35b6104b160048036038101906104ac9190612f26565b611360565b6040516104bf92919061324e565b60405180910390f35b6104e260048036038101906104dd919061329f565b611398565b005b6104ec6113ae565b6040516104f991906132f9565b60405180910390f35b61051c6004803603810190610517919061343a565b6113c2565b005b61053860048036038101906105339190612f26565b611424565b60405161054591906131c1565b60405180910390f35b61056860048036038101906105639190612f26565b6116b4565b6040516105759190612ed3565b60405180910390f35b61059860048036038101906105939190612f26565b6116c6565b6040516105a6929190613571565b60405180910390f35b6105c960048036038101906105c4919061359f565b6117e4565b6040516105d69190612e4a565b60405180910390f35b6105f960048036038101906105f49190613187565b611872565b005b610603611886565b60405161061091906131c1565b60405180910390f35b5f7f80ac58cd000000000000000000000000000000000000000000000000000000007bffffffffffffffffffffffffffffffffffffffffffffffffffffffff1916827bffffffffffffffffffffffffffffffffffffffffffffffffffffffff191614806106e357507f5b5e139f000000000000000000000000000000000000000000000000000000007bffffffffffffffffffffffffffffffffffffffffffffffffffffffff1916827bffffffffffffffffffffffffffffffffffffffffffffffffffffffff1916145b806106f357506106f28261188c565b5b9050919050565b60605f80546107089061360a565b80601f01602080910402602001604051908101604052809291908181526020018280546107349061360a565b801561077f5780601f106107565761010080835404028352916020019161077f565b820191905f5260205f20905b81548152906001019060200180831161076257829003601f168201915b5050505050905090565b5f610793826118f5565b6107d2576040517f08c379a00000000000000000000000000000000000000000000000000000000081526004016107c9906136aa565b60405180910390fd5b60045f8381526020019081526020015f205f9054906101000a900473ffffffffffffffffffffffffffffffffffffffff169050919050565b5f61081482610d6e565b90508073ffffffffffffffffffffffffffffffffffffffff168373ffffffffffffffffffffffffffffffffffffffff1603610884576040517f08c379a000000000000000000000000000000000000000000000000000000000815260040161087b90613738565b60405180910390fd5b8073ffffffffffffffffffffffffffffffffffffffff166108a361195d565b73ffffffffffffffffffffffffffffffffffffffff1614806108d257506108d1816108cc61195d565b6117e4565b5b610911576040517f08c379a0000000000000000000000000000000000000000000000000000000008152600401610908906137c6565b60405180910390fd5b61091b8383611964565b505050565b60095f9054906101000a900473ffffffffffffffffffffffffffffffffffffffff1673ffffffffffffffffffffffffffffffffffffffff163373ffffffffffffffffffffffffffffffffffffffff16146109d4573360095f9054906101000a900473ffffffffffffffffffffffffffffffffffffffff166040517f1cf993f40000000000000000000000000000000000000000000000000000000081526004016109cb9291906137e4565b60405180910390fd5b6109df838383611a1a565b505050565b6109f56109ef61195d565b82611c65565b610a34576040517f08c379a0000000000000000000000000000000000000000000000000000000008152600401610a2b9061387b565b60405180910390fd5b610a3f838383611d41565b505050565b60105f9054906101000a900463ffffffff1681565b5f81905060038160ff16118015610a7257505f8160ff16105b15610aa9576040517f9d4221eb00000000000000000000000000000000000000000000000000000000815260040160405180910390fd5b5f610ab4600a611f9c565b9050604051806080016040528060128460ff1681548110610ad857610ad7613899565b5b905f5260205f20018054610aeb9061360a565b80601f0160208091040260200160405190810160405280929190818152602001828054610b179061360a565b8015610b625780601f10610b3957610100808354040283529160200191610b62565b820191905f5260205f20905b815481529060010190602001808311610b4557829003601f168201915b5050505050815260200160118460ff1681548110610b8357610b82613899565b5b905f5260205f20018054610b969061360a565b80601f0160208091040260200160405190810160405280929190818152602001828054610bc29061360a565b8015610c0d5780601f10610be457610100808354040283529160200191610c0d565b820191905f5260205f20905b815481529060010190602001808311610bf057829003601f168201915b505050505081526020015f81526020015f81525060135f8381526020019081526020015f205f820151815f019081610c459190613a5d565b506020820151816001019081610c5b9190613a5d565b506040820151816002015560608201518160030155905050610c7d600a611fa8565b5f610d0960135f8481526020019081526020015f205f0160135f8581526020019081526020015f20600101610cc560135f8781526020019081526020015f2060020154611fbc565b610ce260135f8881526020019081526020015f2060030154611fbc565b604051602001610cf59493929190613ea6565b604051602081830303815290604052612115565b90505f81604051602001610d1d9190613fa6565b6040516020818303038152906040529050610d383384612274565b610d428382612291565b5050505050565b610d6383838360405180602001604052805f8152506113c2565b505050565b600f5481565b5f5f60025f8481526020019081526020015f205f9054906101000a900473ffffffffffffffffffffffffffffffffffffffff1690505f73ffffffffffffffffffffffffffffffffffffffff168173ffffffffffffffffffffffffffffffffffffffff1603610e11576040517f08c379a0000000000000000000000000000000000000000000000000000000008152600401610e0890614037565b60405180910390fd5b80915050919050565b5f5f73ffffffffffffffffffffffffffffffffffffffff168273ffffffffffffffffffffffffffffffffffffffff1603610e89576040517f08c379a0000000000000000000000000000000000000000000000000000000008152600401610e80906140c5565b60405180910390fd5b60035f8373ffffffffffffffffffffffffffffffffffffffff1673ffffffffffffffffffffffffffffffffffffffff1681526020019081526020015f20549050919050565b60085f9054906101000a900473ffffffffffffffffffffffffffffffffffffffff1673ffffffffffffffffffffffffffffffffffffffff163373ffffffffffffffffffffffffffffffffffffffff1614610f5d576040517f08c379a0000000000000000000000000000000000000000000000000000000008152600401610f549061412d565b60405180910390fd5b5f60075f9054906101000a900473ffffffffffffffffffffffffffffffffffffffff1690503360075f6101000a81548173ffffffffffffffffffffffffffffffffffffffff021916908373ffffffffffffffffffffffffffffffffffffffff1602179055505f60085f6101000a81548173ffffffffffffffffffffffffffffffffffffffff021916908373ffffffffffffffffffffffffffffffffffffffff1602179055503373ffffffffffffffffffffffffffffffffffffffff168173ffffffffffffffffffffffffffffffffffffffff167f8be0079c531659141344cd1fd0a4f28419497f9722a3daafe3b4186f6b6457e060405160405180910390a350565b601060069054906101000a900463ffffffff1681565b600d8181548110611084575f80fd5b905f5260205f20015f915090505481565b600c5481565b5f60075f9054906101000a900473ffffffffffffffffffffffffffffffffffffffff16905090565b6110cb61109b565b73ffffffffffffffffffffffffffffffffffffffff163373ffffffffffffffffffffffffffffffffffffffff1614158015611153575060095f9054906101000a900473ffffffffffffffffffffffffffffffffffffffff1673ffffffffffffffffffffffffffffffffffffffff163373ffffffffffffffffffffffffffffffffffffffff1614155b156111c1573361116161109b565b60095f9054906101000a900473ffffffffffffffffffffffffffffffffffffffff166040517f061db9c10000000000000000000000000000000000000000000000000000000081526004016111b89392919061414b565b60405180910390fd5b5f73ffffffffffffffffffffffffffffffffffffffff168173ffffffffffffffffffffffffffffffffffffffff1603611226576040517fd92e233d00000000000000000000000000000000000000000000000000000000815260040160405180910390fd5b8060095f6101000a81548173ffffffffffffffffffffffffffffffffffffffff021916908373ffffffffffffffffffffffffffffffffffffffff1602179055507fd1a6a14209a385a964d036e404cb5cfb71f4000cdb03c9366292430787261be6816040516112959190612f90565b60405180910390a150565b6060600180546112af9061360a565b80601f01602080910402602001604051908101604052809291908181526020018280546112db9061360a565b80156113265780601f106112fd57610100808354040283529160200191611326565b820191905f5260205f20905b81548152906001019060200180831161130957829003601f168201915b5050505050905090565b600a805f0154905081565b60095f9054906101000a900473ffffffffffffffffffffffffffffffffffffffff1681565b600b602052805f5260405f205f91509050805f015f9054906101000a900460ff1690805f0160019054906101000a900460ff16905082565b6113aa6113a361195d565b83836122fc565b5050565b601060049054906101000a900461ffff1681565b6113d36113cd61195d565b83611c65565b611412576040517f08c379a00000000000000000000000000000000000000000000000000000000081526004016114099061387b565b60405180910390fd5b61141e84848484612463565b50505050565b5f60095f9054906101000a900473ffffffffffffffffffffffffffffffffffffffff1673ffffffffffffffffffffffffffffffffffffffff16639b1c385e6040518060c00160405280600f548152602001600c548152602001601060049054906101000a900461ffff1661ffff16815260200160105f9054906101000a900463ffffffff1663ffffffff168152602001601060069054906101000a900463ffffffff1663ffffffff1681526020016114eb60405180602001604052805f15158152506124bf565b8152506040518263ffffffff1660e01b815260040161150a9190614285565b6020604051808303815f875af1158015611526573d5f5f3e3d5ffd5b505050506040513d601f19601f8201168201806040525081019061154a91906142b9565b905060405180606001604052805f151581526020016001151581526020015f67ffffffffffffffff81111561158257611581613316565b5b6040519080825280602002602001820160405280156115b05781602001602082028036833780820191505090505b50815250600b5f8381526020019081526020015f205f820151815f015f6101000a81548160ff0219169083151502179055506020820151815f0160016101000a81548160ff021916908315150217905550604082015181600101908051906020019061161d929190612cee565b50905050600d81908060018154018082558091505060019003905f5260205f20015f909190919091505580600e819055507fcc58b13ad3eab50626c6a6300b1d139cd6ebb1688a7cced9461c2f7e762665ee81601060069054906101000a900463ffffffff166040516116919291906142e4565b60405180910390a18160145f8381526020019081526020015f2081905550919050565b60606116bf82612557565b9050919050565b5f6060600b5f8481526020019081526020015f205f0160019054906101000a900460ff16611729576040517f08c379a000000000000000000000000000000000000000000000000000000000815260040161172090614355565b60405180910390fd5b5f600b5f8581526020019081526020015f206040518060600160405290815f82015f9054906101000a900460ff161515151581526020015f820160019054906101000a900460ff16151515158152602001600182018054806020026020016040519081016040528092919081815260200182805480156117c657602002820191905f5260205f20905b8154815260200190600101908083116117b2575b5050505050815250509050805f015181604001519250925050915091565b5f60055f8473ffffffffffffffffffffffffffffffffffffffff1673ffffffffffffffffffffffffffffffffffffffff1681526020019081526020015f205f8373ffffffffffffffffffffffffffffffffffffffff1673ffffffffffffffffffffffffffffffffffffffff1681526020019081526020015f205f9054906101000a900460ff16905092915050565b61187a6126a0565b61188381612731565b50565b600e5481565b5f7f01ffc9a7000000000000000000000000000000000000000000000000000000007bffffffffffffffffffffffffffffffffffffffffffffffffffffffff1916827bffffffffffffffffffffffffffffffffffffffffffffffffffffffff1916149050919050565b5f5f73ffffffffffffffffffffffffffffffffffffffff1660025f8481526020019081526020015f205f9054906101000a900473ffffffffffffffffffffffffffffffffffffffff1673ffffffffffffffffffffffffffffffffffffffff1614159050919050565b5f33905090565b8160045f8381526020019081526020015f205f6101000a81548173ffffffffffffffffffffffffffffffffffffffff021916908373ffffffffffffffffffffffffffffffffffffffff160217905550808273ffffffffffffffffffffffffffffffffffffffff166119d483610d6e565b73ffffffffffffffffffffffffffffffffffffffff167f8c5be1e5ebec7d5bd14f71427d1e84f3dd0314c0f7b2291e5b200ac8c7c3b92560405160405180910390a45050565b600b5f8481526020019081526020015f205f0160019054906101000a900460ff16611a7a576040517f08c379a0000000000000000000000000000000000000000000000000000000008152600401611a7190614355565b60405180910390fd5b6001600b5f8581526020019081526020015f205f015f6101000a81548160ff0219169083151502179055508181600b5f8681526020019081526020015f206001019190611ac8929190612d39565b507ffe2e2d779dba245964d4e3ef9b994be63856fd568bf7d3ca9e224755cb1bd54d838383604051611afc939291906143db565b60405180910390a15f6001606484845f818110611b1c57611b1b613899565b5b90506020020135611b2d9190614438565b611b379190614495565b90505f60145f8681526020019081526020015f205490508160135f8381526020019081526020015f206002015f828254611b719190614495565b9250508190555060135f8281526020019081526020015f206003015f815480929190611b9c906144c8565b91905055505f611c2d60135f8481526020019081526020015f205f0160135f8581526020019081526020015f20600101611be960135f8781526020019081526020015f2060020154611fbc565b611c0660135f8881526020019081526020015f2060030154611fbc565b604051602001611c199493929190613ea6565b604051602081830303815290604052612115565b90505f81604051602001611c419190613fa6565b6040516020818303038152906040529050611c5c8382612291565b50505050505050565b5f611c6f826118f5565b611cae576040517f08c379a0000000000000000000000000000000000000000000000000000000008152600401611ca59061457f565b60405180910390fd5b5f611cb883610d6e565b90508073ffffffffffffffffffffffffffffffffffffffff168473ffffffffffffffffffffffffffffffffffffffff161480611cfa5750611cf981856117e4565b5b80611d3857508373ffffffffffffffffffffffffffffffffffffffff16611d2084610789565b73ffffffffffffffffffffffffffffffffffffffff16145b91505092915050565b8273ffffffffffffffffffffffffffffffffffffffff16611d6182610d6e565b73ffffffffffffffffffffffffffffffffffffffff1614611db7576040517f08c379a0000000000000000000000000000000000000000000000000000000008152600401611dae9061460d565b60405180910390fd5b5f73ffffffffffffffffffffffffffffffffffffffff168273ffffffffffffffffffffffffffffffffffffffff1603611e25576040517f08c379a0000000000000000000000000000000000000000000000000000000008152600401611e1c9061469b565b60405180910390fd5b611e3083838361285d565b611e3a5f82611964565b600160035f8573ffffffffffffffffffffffffffffffffffffffff1673ffffffffffffffffffffffffffffffffffffffff1681526020019081526020015f205f828254611e8791906146b9565b92505081905550600160035f8473ffffffffffffffffffffffffffffffffffffffff1673ffffffffffffffffffffffffffffffffffffffff1681526020019081526020015f205f828254611edb9190614495565b925050819055508160025f8381526020019081526020015f205f6101000a81548173ffffffffffffffffffffffffffffffffffffffff021916908373ffffffffffffffffffffffffffffffffffffffff160217905550808273ffffffffffffffffffffffffffffffffffffffff168473ffffffffffffffffffffffffffffffffffffffff167fddf252ad1be2c89b69c2b068fc378daa952ba7f163c4a11628f55a4df523b3ef60405160405180910390a4611f97838383612862565b505050565b5f815f01549050919050565b6001815f015f828254019250508190555050565b60605f8203612002576040518060400160405280600181526020017f30000000000000000000000000000000000000000000000000000000000000008152509050612110565b5f8290505f5b5f821461203157808061201a906144c8565b915050600a8261202a91906146ec565b9150612008565b5f8167ffffffffffffffff81111561204c5761204b613316565b5b6040519080825280601f01601f19166020018201604052801561207e5781602001600182028036833780820191505090505b5090505b5f85146121095760018261209691906146b9565b9150600a856120a59190614438565b60306120b19190614495565b60f81b8183815181106120c7576120c6613899565b5b60200101907effffffffffffffffffffffffffffffffffffffffffffffffffffffffffffff191690815f1a905350600a8561210291906146ec565b9450612082565b8093505050505b919050565b60605f8251036121355760405180602001604052805f815250905061226f565b5f604051806060016040528060408152602001614cd46040913990505f6003600285516121629190614495565b61216c91906146ec565b6004612178919061471c565b67ffffffffffffffff81111561219157612190613316565b5b6040519080825280601f01601f1916602001820160405280156121c35781602001600182028036833780820191505090505b509050600182016020820185865187015b8082101561222f576003820191508151603f8160121c168501518453600184019350603f81600c1c168501518453600184019350603f8160061c168501518453600184019350603f81168501518453600184019350506121d4565b505060038651066001811461224b576002811461225e57612266565b603d6001830353603d6002830353612266565b603d60018303535b50505080925050505b919050565b61228d828260405180602001604052805f815250612867565b5050565b61229a826118f5565b6122d9576040517f08c379a00000000000000000000000000000000000000000000000000000000081526004016122d0906147cd565b60405180910390fd5b8060065f8481526020019081526020015f2090816122f79190613a5d565b505050565b8173ffffffffffffffffffffffffffffffffffffffff168373ffffffffffffffffffffffffffffffffffffffff160361236a576040517f08c379a000000000000000000000000000000000000000000000000000000000815260040161236190614835565b60405180910390fd5b8060055f8573ffffffffffffffffffffffffffffffffffffffff1673ffffffffffffffffffffffffffffffffffffffff1681526020019081526020015f205f8473ffffffffffffffffffffffffffffffffffffffff1673ffffffffffffffffffffffffffffffffffffffff1681526020019081526020015f205f6101000a81548160ff0219169083151502179055508173ffffffffffffffffffffffffffffffffffffffff168373ffffffffffffffffffffffffffffffffffffffff167f17307eab39ab6107e8899845ad3d59bd9653f200f220920489ca2b5937696c31836040516124569190612e4a565b60405180910390a3505050565b61246e848484611d41565b61247a848484846128c1565b6124b9576040517f08c379a00000000000000000000000000000000000000000000000000000000081526004016124b0906148c3565b60405180910390fd5b50505050565b60607f92fd13387c7fe7befbc38d303d6468778fb9731bc4583f17d92989c6fcfdeaaa826040516024016124f3919061490a565b604051602081830303815290604052907bffffffffffffffffffffffffffffffffffffffffffffffffffffffff19166020820180517bffffffffffffffffffffffffffffffffffffffffffffffffffffffff83818316178352505050509050919050565b6060612562826118f5565b6125a1576040517f08c379a000000000000000000000000000000000000000000000000000000000815260040161259890614993565b60405180910390fd5b5f60065f8481526020019081526020015f2080546125be9061360a565b80601f01602080910402602001604051908101604052809291908181526020018280546125ea9061360a565b80156126355780601f1061260c57610100808354040283529160200191612635565b820191905f5260205f20905b81548152906001019060200180831161261857829003601f168201915b505050505090505f612645612a43565b90505f81510361265957819250505061269b565b5f8251111561268d5780826040516020016126759291906149b1565b6040516020818303038152906040529250505061269b565b61269684612a59565b925050505b919050565b60075f9054906101000a900473ffffffffffffffffffffffffffffffffffffffff1673ffffffffffffffffffffffffffffffffffffffff163373ffffffffffffffffffffffffffffffffffffffff161461272f576040517f08c379a000000000000000000000000000000000000000000000000000000000815260040161272690614a1e565b60405180910390fd5b565b3373ffffffffffffffffffffffffffffffffffffffff168173ffffffffffffffffffffffffffffffffffffffff160361279f576040517f08c379a000000000000000000000000000000000000000000000000000000000815260040161279690614a86565b60405180910390fd5b8060085f6101000a81548173ffffffffffffffffffffffffffffffffffffffff021916908373ffffffffffffffffffffffffffffffffffffffff1602179055508073ffffffffffffffffffffffffffffffffffffffff1660075f9054906101000a900473ffffffffffffffffffffffffffffffffffffffff1673ffffffffffffffffffffffffffffffffffffffff167fed8889f560326eb138920d842192f0eb3dd22b4f139c87a2c57538e05bae127860405160405180910390a350565b505050565b505050565b6128718383612afd565b61287d5f8484846128c1565b6128bc576040517f08c379a00000000000000000000000000000000000000000000000000000000081526004016128b3906148c3565b60405180910390fd5b505050565b5f6128e18473ffffffffffffffffffffffffffffffffffffffff16612ccc565b15612a36578373ffffffffffffffffffffffffffffffffffffffff1663150b7a0261290a61195d565b8786866040518563ffffffff1660e01b815260040161292c9493929190614aec565b6020604051808303815f875af192505050801561296757506040513d601f19601f820116820180604052508101906129649190614b4a565b60015b6129e6573d805f8114612995576040519150601f19603f3d011682016040523d82523d5f602084013e61299a565b606091505b505f8151036129de576040517f08c379a00000000000000000000000000000000000000000000000000000000081526004016129d5906148c3565b60405180910390fd5b805181602001fd5b63150b7a0260e01b7bffffffffffffffffffffffffffffffffffffffffffffffffffffffff1916817bffffffffffffffffffffffffffffffffffffffffffffffffffffffff191614915050612a3b565b600190505b949350505050565b606060405180602001604052805f815250905090565b6060612a64826118f5565b612aa3576040517f08c379a0000000000000000000000000000000000000000000000000000000008152600401612a9a90614be5565b60405180910390fd5b5f612aac612a43565b90505f815111612aca5760405180602001604052805f815250612af5565b80612ad484611fbc565b604051602001612ae59291906149b1565b6040516020818303038152906040525b915050919050565b5f73ffffffffffffffffffffffffffffffffffffffff168273ffffffffffffffffffffffffffffffffffffffff1603612b6b576040517f08c379a0000000000000000000000000000000000000000000000000000000008152600401612b6290614c4d565b60405180910390fd5b612b74816118f5565b15612bb4576040517f08c379a0000000000000000000000000000000000000000000000000000000008152600401612bab90614cb5565b60405180910390fd5b612bbf5f838361285d565b600160035f8473ffffffffffffffffffffffffffffffffffffffff1673ffffffffffffffffffffffffffffffffffffffff1681526020019081526020015f205f828254612c0c9190614495565b925050819055508160025f8381526020019081526020015f205f6101000a81548173ffffffffffffffffffffffffffffffffffffffff021916908373ffffffffffffffffffffffffffffffffffffffff160217905550808273ffffffffffffffffffffffffffffffffffffffff165f73ffffffffffffffffffffffffffffffffffffffff167fddf252ad1be2c89b69c2b068fc378daa952ba7f163c4a11628f55a4df523b3ef60405160405180910390a4612cc85f8383612862565b5050565b5f5f8273ffffffffffffffffffffffffffffffffffffffff163b119050919050565b828054828255905f5260205f20908101928215612d28579160200282015b82811115612d27578251825591602001919060010190612d0c565b5b509050612d359190612d84565b5090565b828054828255905f5260205f20908101928215612d73579160200282015b82811115612d72578235825591602001919060010190612d57565b5b509050612d809190612d84565b5090565b5b80821115612d9b575f815f905550600101612d85565b5090565b5f604051905090565b5f5ffd5b5f5ffd5b5f7fffffffff0000000000000000000000000000000000000000000000000000000082169050919050565b612de481612db0565b8114612dee575f5ffd5b50565b5f81359050612dff81612ddb565b92915050565b5f60208284031215612e1a57612e19612da8565b5b5f612e2784828501612df1565b91505092915050565b5f8115159050919050565b612e4481612e30565b82525050565b5f602082019050612e5d5f830184612e3b565b92915050565b5f81519050919050565b5f82825260208201905092915050565b8281835e5f83830152505050565b5f601f19601f8301169050919050565b5f612ea582612e63565b612eaf8185612e6d565b9350612ebf818560208601612e7d565b612ec881612e8b565b840191505092915050565b5f6020820190508181035f830152612eeb8184612e9b565b905092915050565b5f819050919050565b612f0581612ef3565b8114612f0f575f5ffd5b50565b5f81359050612f2081612efc565b92915050565b5f60208284031215612f3b57612f3a612da8565b5b5f612f4884828501612f12565b91505092915050565b5f73ffffffffffffffffffffffffffffffffffffffff82169050919050565b5f612f7a82612f51565b9050919050565b612f8a81612f70565b82525050565b5f602082019050612fa35f830184612f81565b92915050565b612fb281612f70565b8114612fbc575f5ffd5b50565b5f81359050612fcd81612fa9565b92915050565b5f5f60408385031215612fe957612fe8612da8565b5b5f612ff685828601612fbf565b925050602061300785828601612f12565b9150509250929050565b5f5ffd5b5f5ffd5b5f5ffd5b5f5f83601f84011261303257613031613011565b5b8235905067ffffffffffffffff81111561304f5761304e613015565b5b60208301915083602082028301111561306b5761306a613019565b5b9250929050565b5f5f5f6040848603121561308957613088612da8565b5b5f61309686828701612f12565b935050602084013567ffffffffffffffff8111156130b7576130b6612dac565b5b6130c38682870161301d565b92509250509250925092565b5f5f5f606084860312156130e6576130e5612da8565b5b5f6130f386828701612fbf565b935050602061310486828701612fbf565b925050604061311586828701612f12565b9150509250925092565b5f63ffffffff82169050919050565b6131378161311f565b82525050565b5f6020820190506131505f83018461312e565b92915050565b5f819050919050565b61316881613156565b82525050565b5f6020820190506131815f83018461315f565b92915050565b5f6020828403121561319c5761319b612da8565b5b5f6131a984828501612fbf565b91505092915050565b6131bb81612ef3565b82525050565b5f6020820190506131d45f8301846131b2565b92915050565b5f819050919050565b5f6131fd6131f86131f384612f51565b6131da565b612f51565b9050919050565b5f61320e826131e3565b9050919050565b5f61321f82613204565b9050919050565b61322f81613215565b82525050565b5f6020820190506132485f830184613226565b92915050565b5f6040820190506132615f830185612e3b565b61326e6020830184612e3b565b9392505050565b61327e81612e30565b8114613288575f5ffd5b50565b5f8135905061329981613275565b92915050565b5f5f604083850312156132b5576132b4612da8565b5b5f6132c285828601612fbf565b92505060206132d38582860161328b565b9150509250929050565b5f61ffff82169050919050565b6132f3816132dd565b82525050565b5f60208201905061330c5f8301846132ea565b92915050565b5f5ffd5b7f4e487b71000000000000000000000000000000000000000000000000000000005f52604160045260245ffd5b61334c82612e8b565b810181811067ffffffffffffffff8211171561336b5761336a613316565b5b80604052505050565b5f61337d612d9f565b90506133898282613343565b919050565b5f67ffffffffffffffff8211156133a8576133a7613316565b5b6133b182612e8b565b9050602081019050919050565b828183375f83830152505050565b5f6133de6133d98461338e565b613374565b9050828152602081018484840111156133fa576133f9613312565b5b6134058482856133be565b509392505050565b5f82601f83011261342157613420613011565b5b81356134318482602086016133cc565b91505092915050565b5f5f5f5f6080858703121561345257613451612da8565b5b5f61345f87828801612fbf565b945050602061347087828801612fbf565b935050604061348187828801612f12565b925050606085013567ffffffffffffffff8111156134a2576134a1612dac565b5b6134ae8782880161340d565b91505092959194509250565b5f81519050919050565b5f82825260208201905092915050565b5f819050602082019050919050565b6134ec81612ef3565b82525050565b5f6134fd83836134e3565b60208301905092915050565b5f602082019050919050565b5f61351f826134ba565b61352981856134c4565b9350613534836134d4565b805f5b8381101561356457815161354b88826134f2565b975061355683613509565b925050600181019050613537565b5085935050505092915050565b5f6040820190506135845f830185612e3b565b81810360208301526135968184613515565b90509392505050565b5f5f604083850312156135b5576135b4612da8565b5b5f6135c285828601612fbf565b92505060206135d385828601612fbf565b9150509250929050565b7f4e487b71000000000000000000000000000000000000000000000000000000005f52602260045260245ffd5b5f600282049050600182168061362157607f821691505b602082108103613634576136336135dd565b5b50919050565b7f4552433732313a20617070726f76656420717565727920666f72206e6f6e65785f8201527f697374656e7420746f6b656e0000000000000000000000000000000000000000602082015250565b5f613694602c83612e6d565b915061369f8261363a565b604082019050919050565b5f6020820190508181035f8301526136c181613688565b9050919050565b7f4552433732313a20617070726f76616c20746f2063757272656e74206f776e655f8201527f7200000000000000000000000000000000000000000000000000000000000000602082015250565b5f613722602183612e6d565b915061372d826136c8565b604082019050919050565b5f6020820190508181035f83015261374f81613716565b9050919050565b7f4552433732313a20617070726f76652063616c6c6572206973206e6f74206f775f8201527f6e6572206e6f7220617070726f76656420666f7220616c6c0000000000000000602082015250565b5f6137b0603883612e6d565b91506137bb82613756565b604082019050919050565b5f6020820190508181035f8301526137dd816137a4565b9050919050565b5f6040820190506137f75f830185612f81565b6138046020830184612f81565b9392505050565b7f4552433732313a207472616e736665722063616c6c6572206973206e6f74206f5f8201527f776e6572206e6f7220617070726f766564000000000000000000000000000000602082015250565b5f613865603183612e6d565b91506138708261380b565b604082019050919050565b5f6020820190508181035f83015261389281613859565b9050919050565b7f4e487b71000000000000000000000000000000000000000000000000000000005f52603260045260245ffd5b5f819050815f5260205f209050919050565b5f6020601f8301049050919050565b5f82821b905092915050565b5f600883026139227fffffffffffffffffffffffffffffffffffffffffffffffffffffffffffffffff826138e7565b61392c86836138e7565b95508019841693508086168417925050509392505050565b5f61395e61395961395484612ef3565b6131da565b612ef3565b9050919050565b5f819050919050565b61397783613944565b61398b61398382613965565b8484546138f3565b825550505050565b5f5f905090565b6139a2613993565b6139ad81848461396e565b505050565b5b818110156139d0576139c55f8261399a565b6001810190506139b3565b5050565b601f821115613a15576139e6816138c6565b6139ef846138d8565b810160208510156139fe578190505b613a12613a0a856138d8565b8301826139b2565b50505b505050565b5f82821c905092915050565b5f613a355f1984600802613a1a565b1980831691505092915050565b5f613a4d8383613a26565b9150826002028217905092915050565b613a6682612e63565b67ffffffffffffffff811115613a7f57613a7e613316565b5b613a89825461360a565b613a948282856139d4565b5f60209050601f831160018114613ac5575f8415613ab3578287015190505b613abd8582613a42565b865550613b24565b601f198416613ad3866138c6565b5f5b82811015613afa57848901518255600182019150602085019450602081019050613ad5565b86831015613b175784890151613b13601f891682613a26565b8355505b6001600288020188555050505b505050505050565b5f81905092915050565b7f7b226e616d65223a2022000000000000000000000000000000000000000000005f82015250565b5f613b6a600a83613b2c565b9150613b7582613b36565b600a82019050919050565b5f8154613b8c8161360a565b613b968186613b2c565b9450600182165f8114613bb05760018114613bc557613bf7565b60ff1983168652811515820286019350613bf7565b613bce856138c6565b5f5b83811015613bef57815481890152600182019150602081019050613bd0565b838801955050505b50505092915050565b7f222c226465736372697074696f6e223a2022436861696e6c696e6b2072756e6e5f8201527f6572222c00000000000000000000000000000000000000000000000000000000602082015250565b5f613c5a602483613b2c565b9150613c6582613c00565b602482019050919050565b7f22696d616765223a2022000000000000000000000000000000000000000000005f82015250565b5f613ca4600a83613b2c565b9150613caf82613c70565b600a82019050919050565b7f222c2261747472696275746573223a205b0000000000000000000000000000005f82015250565b5f613cee601183613b2c565b9150613cf982613cba565b601182019050919050565b7f7b2274726169745f74797065223a202264697374616e6365222c0000000000005f82015250565b5f613d38601a83613b2c565b9150613d4382613d04565b601a82019050919050565b7f2276616c7565223a2000000000000000000000000000000000000000000000005f82015250565b5f613d82600983613b2c565b9150613d8d82613d4e565b600982019050919050565b5f613da282612e63565b613dac8185613b2c565b9350613dbc818560208601612e7d565b80840191505092915050565b7f7d000000000000000000000000000000000000000000000000000000000000005f82015250565b5f613dfc600183613b2c565b9150613e0782613dc8565b600182019050919050565b7f2c7b2274726169745f74797065223a2022726f756e64222c00000000000000005f82015250565b5f613e46601883613b2c565b9150613e5182613e12565b601882019050919050565b7f5d7d0000000000000000000000000000000000000000000000000000000000005f82015250565b5f613e90600283613b2c565b9150613e9b82613e5c565b600282019050919050565b5f613eb082613b5e565b9150613ebc8287613b80565b9150613ec782613c4e565b9150613ed282613c98565b9150613ede8286613b80565b9150613ee982613ce2565b9150613ef482613d2c565b9150613eff82613d76565b9150613f0b8285613d98565b9150613f1682613df0565b9150613f2182613e3a565b9150613f2c82613d76565b9150613f388284613d98565b9150613f4382613df0565b9150613f4e82613e84565b915081905095945050505050565b7f646174613a6170706c69636174696f6e2f6a736f6e3b6261736536342c0000005f82015250565b5f613f90601d83613b2c565b9150613f9b82613f5c565b601d82019050919050565b5f613fb082613f84565b9150613fbc8284613d98565b915081905092915050565b7f4552433732313a206f776e657220717565727920666f72206e6f6e65786973745f8201527f656e7420746f6b656e0000000000000000000000000000000000000000000000602082015250565b5f614021602983612e6d565b915061402c82613fc7565b604082019050919050565b5f6020820190508181035f83015261404e81614015565b9050919050565b7f4552433732313a2062616c616e636520717565727920666f7220746865207a655f8201527f726f206164647265737300000000000000000000000000000000000000000000602082015250565b5f6140af602a83612e6d565b91506140ba82614055565b604082019050919050565b5f6020820190508181035f8301526140dc816140a3565b9050919050565b7f4d7573742062652070726f706f736564206f776e6572000000000000000000005f82015250565b5f614117601683612e6d565b9150614122826140e3565b602082019050919050565b5f6020820190508181035f8301526141448161410b565b9050919050565b5f60608201905061415e5f830186612f81565b61416b6020830185612f81565b6141786040830184612f81565b949350505050565b61418981613156565b82525050565b614198816132dd565b82525050565b6141a78161311f565b82525050565b5f81519050919050565b5f82825260208201905092915050565b5f6141d1826141ad565b6141db81856141b7565b93506141eb818560208601612e7d565b6141f481612e8b565b840191505092915050565b5f60c083015f8301516142145f860182614180565b50602083015161422760208601826134e3565b50604083015161423a604086018261418f565b50606083015161424d606086018261419e565b506080830151614260608086018261419e565b5060a083015184820360a086015261427882826141c7565b9150508091505092915050565b5f6020820190508181035f83015261429d81846141ff565b905092915050565b5f815190506142b381612efc565b92915050565b5f602082840312156142ce576142cd612da8565b5b5f6142db848285016142a5565b91505092915050565b5f6040820190506142f75f8301856131b2565b614304602083018461312e565b9392505050565b7f72657175657374206e6f7420666f756e640000000000000000000000000000005f82015250565b5f61433f601183612e6d565b915061434a8261430b565b602082019050919050565b5f6020820190508181035f83015261436c81614333565b9050919050565b5f5ffd5b82818337505050565b5f61438b83856134c4565b93507f07ffffffffffffffffffffffffffffffffffffffffffffffffffffffffffffff8311156143be576143bd614373565b5b6020830292506143cf838584614377565b82840190509392505050565b5f6040820190506143ee5f8301866131b2565b8181036020830152614401818486614380565b9050949350505050565b7f4e487b71000000000000000000000000000000000000000000000000000000005f52601260045260245ffd5b5f61444282612ef3565b915061444d83612ef3565b92508261445d5761445c61440b565b5b828206905092915050565b7f4e487b71000000000000000000000000000000000000000000000000000000005f52601160045260245ffd5b5f61449f82612ef3565b91506144aa83612ef3565b92508282019050808211156144c2576144c1614468565b5b92915050565b5f6144d282612ef3565b91507fffffffffffffffffffffffffffffffffffffffffffffffffffffffffffffffff820361450457614503614468565b5b600182019050919050565b7f4552433732313a206f70657261746f7220717565727920666f72206e6f6e65785f8201527f697374656e7420746f6b656e0000000000000000000000000000000000000000602082015250565b5f614569602c83612e6d565b91506145748261450f565b604082019050919050565b5f6020820190508181035f8301526145968161455d565b9050919050565b7f4552433732313a207472616e736665722066726f6d20696e636f7272656374205f8201527f6f776e6572000000000000000000000000000000000000000000000000000000602082015250565b5f6145f7602583612e6d565b91506146028261459d565b604082019050919050565b5f6020820190508181035f830152614624816145eb565b9050919050565b7f4552433732313a207472616e7366657220746f20746865207a65726f206164645f8201527f7265737300000000000000000000000000000000000000000000000000000000602082015250565b5f614685602483612e6d565b91506146908261462b565b604082019050919050565b5f6020820190508181035f8301526146b281614679565b9050919050565b5f6146c382612ef3565b91506146ce83612ef3565b92508282039050818111156146e6576146e5614468565b5b92915050565b5f6146f682612ef3565b915061470183612ef3565b9250826147115761471061440b565b5b828204905092915050565b5f61472682612ef3565b915061473183612ef3565b925082820261473f81612ef3565b9150828204841483151761475657614755614468565b5b5092915050565b7f45524337323155524953746f726167653a2055524920736574206f66206e6f6e5f8201527f6578697374656e7420746f6b656e000000000000000000000000000000000000602082015250565b5f6147b7602e83612e6d565b91506147c28261475d565b604082019050919050565b5f6020820190508181035f8301526147e4816147ab565b9050919050565b7f4552433732313a20617070726f766520746f2063616c6c6572000000000000005f82015250565b5f61481f601983612e6d565b915061482a826147eb565b602082019050919050565b5f6020820190508181035f83015261484c81614813565b9050919050565b7f4552433732313a207472616e7366657220746f206e6f6e2045524337323152655f8201527f63656976657220696d706c656d656e7465720000000000000000000000000000602082015250565b5f6148ad603283612e6d565b91506148b882614853565b604082019050919050565b5f6020820190508181035f8301526148da816148a1565b9050919050565b6148ea81612e30565b82525050565b602082015f8201516149045f8501826148e1565b50505050565b5f60208201905061491d5f8301846148f0565b92915050565b7f45524337323155524953746f726167653a2055524920717565727920666f72205f8201527f6e6f6e6578697374656e7420746f6b656e000000000000000000000000000000602082015250565b5f61497d603183612e6d565b915061498882614923565b604082019050919050565b5f6020820190508181035f8301526149aa81614971565b9050919050565b5f6149bc8285613d98565b91506149c88284613d98565b91508190509392505050565b7f4f6e6c792063616c6c61626c65206279206f776e6572000000000000000000005f82015250565b5f614a08601683612e6d565b9150614a13826149d4565b602082019050919050565b5f6020820190508181035f830152614a35816149fc565b9050919050565b7f43616e6e6f74207472616e7366657220746f2073656c660000000000000000005f82015250565b5f614a70601783612e6d565b9150614a7b82614a3c565b602082019050919050565b5f6020820190508181035f830152614a9d81614a64565b9050919050565b5f82825260208201905092915050565b5f614abe826141ad565b614ac88185614aa4565b9350614ad8818560208601612e7d565b614ae181612e8b565b840191505092915050565b5f608082019050614aff5f830187612f81565b614b0c6020830186612f81565b614b1960408301856131b2565b8181036060830152614b2b8184614ab4565b905095945050505050565b5f81519050614b4481612ddb565b92915050565b5f60208284031215614b5f57614b5e612da8565b5b5f614b6c84828501614b36565b91505092915050565b7f4552433732314d657461646174613a2055524920717565727920666f72206e6f5f8201527f6e6578697374656e7420746f6b656e0000000000000000000000000000000000602082015250565b5f614bcf602f83612e6d565b9150614bda82614b75565b604082019050919050565b5f6020820190508181035f830152614bfc81614bc3565b9050919050565b7f4552433732313a206d696e7420746f20746865207a65726f20616464726573735f82015250565b5f614c37602083612e6d565b9150614c4282614c03565b602082019050919050565b5f6020820190508181035f830152614c6481614c2b565b9050919050565b7f4552433732313a20746f6b656e20616c7265616479206d696e746564000000005f82015250565b5f614c9f601c83612e6d565b9150614caa82614c6b565b602082019050919050565b5f6020820190508181035f830152614ccc81614c93565b905091905056fe4142434445464748494a4b4c4d4e4f505152535455565758595a6162636465666768696a6b6c6d6e6f707172737475767778797a303132333435363738392b2fa26469706673582212201312ed3c1d51e6c1ff585af2eb53f8c704716f3f1de787eaa38b408a337f269964736f6c634300081b003368747470733a2f2f697066732e696f2f697066732f516d5731746f61705973374d3239727a4c5854454e6e33706276776538696f696b583150777a41437a6a666448503f66696c656e616d653d436861696e6c696e6b5f4f72632e706e6768747470733a2f2f697066732e696f2f697066732f516d5a47514139327269316a667a537536314a52614e5158596731624c754d37703859543833447a4641324b4c483f66696c656e616d653d436861696e6c696e6b5f4b6e696768742e706e6768747470733a2f2f697066732e696f2f697066732f516d504d775174467045644b72556a70514a666f54655a533161565365754a54364d6f66377556323941635570463f66696c656e616d653d436861696e6c696e6b5f57697463682e706e6768747470733a2f2f697066732e696f2f697066732f516d5467716e6846424d6b665439733850484b636458426e3166356247335135686d426152345536686f547662313f66696c656e616d653d436861696e6c696e6b5f456c662e706e67",
			"opcodes": "PUSH1 0x80 PUSH1 0x40 MSTORE PUSH32 0xC799BD1E3BD4D1A41CD4968997A4E03DFD2A3C7C04B695881138580163F42887 PUSH0 SHL PUSH1 0xF SSTORE PUSH3 0x186A0 PUSH1 0x10 PUSH0 PUSH2 0x100 EXP DUP2 SLOAD DUP2 PUSH4 0xFFFFFFFF MUL NOT AND SWAP1 DUP4 PUSH4 0xFFFFFFFF AND MUL OR SWAP1 SSTORE POP PUSH1 0x3 PUSH1 0x10 PUSH1 0x4 PUSH2 0x100 EXP DUP2 SLOAD DUP2 PUSH2 0xFFFF MUL NOT AND SWAP1 DUP4 PUSH2 0xFFFF AND MUL OR SWAP1 SSTORE POP PUSH1 0x2 PUSH1 0x10 PUSH1 0x6 PUSH2 0x100 EXP DUP2 SLOAD DUP2 PUSH4 0xFFFFFFFF MUL NOT AND SWAP1 DUP4 PUSH4 0xFFFFFFFF AND MUL OR SWAP1 SSTORE POP PUSH1 0x40 MLOAD DUP1 PUSH1 0x80 ADD PUSH1 0x40 MSTORE DUP1 PUSH1 0x40 MLOAD DUP1 PUSH1 0x80 ADD PUSH1 0x40 MSTORE DUP1 PUSH1 0x5E DUP2 MSTORE PUSH1 0x20 ADD PUSH2 0x5956 PUSH1 0x5E SWAP2 CODECOPY DUP2 MSTORE PUSH1 0x20 ADD PUSH1 0x40 MLOAD DUP1 PUSH1 0xA0 ADD PUSH1 0x40 MSTORE DUP1 PUSH1 0x61 DUP2 MSTORE PUSH1 0x20 ADD PUSH2 0x5895 PUSH1 0x61 SWAP2 CODECOPY DUP2 MSTORE PUSH1 0x20 ADD PUSH1 0x40 MLOAD DUP1 PUSH1 0x80 ADD PUSH1 0x40 MSTORE DUP1 PUSH1 0x5E DUP2 MSTORE PUSH1 0x20 ADD PUSH2 0x5837 PUSH1 0x5E SWAP2 CODECOPY DUP2 MSTORE PUSH1 0x20 ADD PUSH1 0x40 MLOAD DUP1 PUSH1 0x80 ADD PUSH1 0x40 MSTORE DUP1 PUSH1 0x60 DUP2 MSTORE PUSH1 0x20 ADD PUSH2 0x58F6 PUSH1 0x60 SWAP2 CODECOPY DUP2 MSTORE POP PUSH1 0x11 SWAP1 PUSH1 0x4 PUSH2 0x11E SWAP3 SWAP2 SWAP1 PUSH2 0x5CA JUMP JUMPDEST POP PUSH1 0x40 MLOAD DUP1 PUSH1 0x80 ADD PUSH1 0x40 MSTORE DUP1 PUSH1 0x40 MLOAD DUP1 PUSH1 0x40 ADD PUSH1 0x40 MSTORE DUP1 PUSH1 0x3 DUP2 MSTORE PUSH1 0x20 ADD PUSH32 0x456C660000000000000000000000000000000000000000000000000000000000 DUP2 MSTORE POP DUP2 MSTORE PUSH1 0x20 ADD PUSH1 0x40 MLOAD DUP1 PUSH1 0x40 ADD PUSH1 0x40 MSTORE DUP1 PUSH1 0x6 DUP2 MSTORE PUSH1 0x20 ADD PUSH32 0x4B6E696768740000000000000000000000000000000000000000000000000000 DUP2 MSTORE POP DUP2 MSTORE PUSH1 0x20 ADD PUSH1 0x40 MLOAD DUP1 PUSH1 0x40 ADD PUSH1 0x40 MSTORE DUP1 PUSH1 0x3 DUP2 MSTORE PUSH1 0x20 ADD PUSH32 0x4F72630000000000000000000000000000000000000000000000000000000000 DUP2 MSTORE POP DUP2 MSTORE PUSH1 0x20 ADD PUSH1 0x40 MLOAD DUP1 PUSH1 0x40 ADD PUSH1 0x40 MSTORE DUP1 PUSH1 0x5 DUP2 MSTORE PUSH1 0x20 ADD PUSH32 0x5769746368000000000000000000000000000000000000000000000000000000 DUP2 MSTORE POP DUP2 MSTORE POP PUSH1 0x12 SWAP1 PUSH1 0x4 PUSH2 0x224 SWAP3 SWAP2 SWAP1 PUSH2 0x5CA JUMP JUMPDEST POP CALLVALUE DUP1 ISZERO PUSH2 0x230 JUMPI PUSH0 PUSH0 REVERT JUMPDEST POP PUSH1 0x40 MLOAD PUSH2 0x59B4 CODESIZE SUB DUP1 PUSH2 0x59B4 DUP4 CODECOPY DUP2 DUP2 ADD PUSH1 0x40 MSTORE DUP2 ADD SWAP1 PUSH2 0x252 SWAP2 SWAP1 PUSH2 0x6D3 JUMP JUMPDEST PUSH20 0x5C210EF41CD1A72DE73BF76EC39637BB0D3D7BEE CALLER DUP1 PUSH0 PUSH1 0x40 MLOAD DUP1 PUSH1 0x40 ADD PUSH1 0x40 MSTORE DUP1 PUSH1 0x6 DUP2 MSTORE PUSH1 0x20 ADD PUSH32 0x72756E6E65720000000000000000000000000000000000000000000000000000 DUP2 MSTORE POP PUSH1 0x40 MLOAD DUP1 PUSH1 0x40 ADD PUSH1 0x40 MSTORE DUP1 PUSH1 0x2 DUP2 MSTORE PUSH1 0x20 ADD PUSH32 0x6B73000000000000000000000000000000000000000000000000000000000000 DUP2 MSTORE POP DUP2 PUSH0 SWAP1 DUP2 PUSH2 0x2E4 SWAP2 SWAP1 PUSH2 0x932 JUMP JUMPDEST POP DUP1 PUSH1 0x1 SWAP1 DUP2 PUSH2 0x2F4 SWAP2 SWAP1 PUSH2 0x932 JUMP JUMPDEST POP POP POP PUSH0 PUSH20 0xFFFFFFFFFFFFFFFFFFFFFFFFFFFFFFFFFFFFFFFF AND DUP3 PUSH20 0xFFFFFFFFFFFFFFFFFFFFFFFFFFFFFFFFFFFFFFFF AND SUB PUSH2 0x365 JUMPI PUSH1 0x40 MLOAD PUSH32 0x8C379A000000000000000000000000000000000000000000000000000000000 DUP2 MSTORE PUSH1 0x4 ADD PUSH2 0x35C SWAP1 PUSH2 0xA5B JUMP JUMPDEST PUSH1 0x40 MLOAD DUP1 SWAP2 SUB SWAP1 REVERT JUMPDEST DUP2 PUSH1 0x7 PUSH0 PUSH2 0x100 EXP DUP2 SLOAD DUP2 PUSH20 0xFFFFFFFFFFFFFFFFFFFFFFFFFFFFFFFFFFFFFFFF MUL NOT AND SWAP1 DUP4 PUSH20 0xFFFFFFFFFFFFFFFFFFFFFFFFFFFFFFFFFFFFFFFF AND MUL OR SWAP1 SSTORE POP PUSH0 PUSH20 0xFFFFFFFFFFFFFFFFFFFFFFFFFFFFFFFFFFFFFFFF AND DUP2 PUSH20 0xFFFFFFFFFFFFFFFFFFFFFFFFFFFFFFFFFFFFFFFF AND EQ PUSH2 0x3E8 JUMPI PUSH2 0x3E7 DUP2 PUSH2 0x49E PUSH1 0x20 SHL PUSH1 0x20 SHR JUMP JUMPDEST JUMPDEST POP POP POP PUSH0 PUSH20 0xFFFFFFFFFFFFFFFFFFFFFFFFFFFFFFFFFFFFFFFF AND DUP2 PUSH20 0xFFFFFFFFFFFFFFFFFFFFFFFFFFFFFFFFFFFFFFFF AND SUB PUSH2 0x450 JUMPI PUSH1 0x40 MLOAD PUSH32 0xD92E233D00000000000000000000000000000000000000000000000000000000 DUP2 MSTORE PUSH1 0x4 ADD PUSH1 0x40 MLOAD DUP1 SWAP2 SUB SWAP1 REVERT JUMPDEST DUP1 PUSH1 0x9 PUSH0 PUSH2 0x100 EXP DUP2 SLOAD DUP2 PUSH20 0xFFFFFFFFFFFFFFFFFFFFFFFFFFFFFFFFFFFFFFFF MUL NOT AND SWAP1 DUP4 PUSH20 0xFFFFFFFFFFFFFFFFFFFFFFFFFFFFFFFFFFFFFFFF AND MUL OR SWAP1 SSTORE POP POP DUP1 PUSH1 0xC DUP2 SWAP1 SSTORE POP POP PUSH2 0xAE1 JUMP JUMPDEST CALLER PUSH20 0xFFFFFFFFFFFFFFFFFFFFFFFFFFFFFFFFFFFFFFFF AND DUP2 PUSH20 0xFFFFFFFFFFFFFFFFFFFFFFFFFFFFFFFFFFFFFFFF AND SUB PUSH2 0x50C JUMPI PUSH1 0x40 MLOAD PUSH32 0x8C379A000000000000000000000000000000000000000000000000000000000 DUP2 MSTORE PUSH1 0x4 ADD PUSH2 0x503 SWAP1 PUSH2 0xAC3 JUMP JUMPDEST PUSH1 0x40 MLOAD DUP1 SWAP2 SUB SWAP1 REVERT JUMPDEST DUP1 PUSH1 0x8 PUSH0 PUSH2 0x100 EXP DUP2 SLOAD DUP2 PUSH20 0xFFFFFFFFFFFFFFFFFFFFFFFFFFFFFFFFFFFFFFFF MUL NOT AND SWAP1 DUP4 PUSH20 0xFFFFFFFFFFFFFFFFFFFFFFFFFFFFFFFFFFFFFFFF AND MUL OR SWAP1 SSTORE POP DUP1 PUSH20 0xFFFFFFFFFFFFFFFFFFFFFFFFFFFFFFFFFFFFFFFF AND PUSH1 0x7 PUSH0 SWAP1 SLOAD SWAP1 PUSH2 0x100 EXP SWAP1 DIV PUSH20 0xFFFFFFFFFFFFFFFFFFFFFFFFFFFFFFFFFFFFFFFF AND PUSH20 0xFFFFFFFFFFFFFFFFFFFFFFFFFFFFFFFFFFFFFFFF AND PUSH32 0xED8889F560326EB138920D842192F0EB3DD22B4F139C87A2C57538E05BAE1278 PUSH1 0x40 MLOAD PUSH1 0x40 MLOAD DUP1 SWAP2 SUB SWAP1 LOG3 POP JUMP JUMPDEST DUP3 DUP1 SLOAD DUP3 DUP3 SSTORE SWAP1 PUSH0 MSTORE PUSH1 0x20 PUSH0 KECCAK256 SWAP1 DUP2 ADD SWAP3 DUP3 ISZERO PUSH2 0x610 JUMPI SWAP2 PUSH1 0x20 MUL DUP3 ADD JUMPDEST DUP3 DUP2 GT ISZERO PUSH2 0x60F JUMPI DUP3 MLOAD DUP3 SWAP1 DUP2 PUSH2 0x5FF SWAP2 SWAP1 PUSH2 0x932 JUMP JUMPDEST POP SWAP2 PUSH1 0x20 ADD SWAP2 SWAP1 PUSH1 0x1 ADD SWAP1 PUSH2 0x5E8 JUMP JUMPDEST JUMPDEST POP SWAP1 POP PUSH2 0x61D SWAP2 SWAP1 PUSH2 0x621 JUMP JUMPDEST POP SWAP1 JUMP JUMPDEST JUMPDEST DUP1 DUP3 GT ISZERO PUSH2 0x640 JUMPI PUSH0 DUP2 DUP2 PUSH2 0x637 SWAP2 SWAP1 PUSH2 0x644 JUMP JUMPDEST POP PUSH1 0x1 ADD PUSH2 0x622 JUMP JUMPDEST POP SWAP1 JUMP JUMPDEST POP DUP1 SLOAD PUSH2 0x650 SWAP1 PUSH2 0x762 JUMP JUMPDEST PUSH0 DUP3 SSTORE DUP1 PUSH1 0x1F LT PUSH2 0x661 JUMPI POP PUSH2 0x67E JUMP JUMPDEST PUSH1 0x1F ADD PUSH1 0x20 SWAP1 DIV SWAP1 PUSH0 MSTORE PUSH1 0x20 PUSH0 KECCAK256 SWAP1 DUP2 ADD SWAP1 PUSH2 0x67D SWAP2 SWAP1 PUSH2 0x681 JUMP JUMPDEST JUMPDEST POP JUMP JUMPDEST JUMPDEST DUP1 DUP3 GT ISZERO PUSH2 0x698 JUMPI PUSH0 DUP2 PUSH0 SWAP1 SSTORE POP PUSH1 0x1 ADD PUSH2 0x682 JUMP JUMPDEST POP SWAP1 JUMP JUMPDEST PUSH0 PUSH0 REVERT JUMPDEST PUSH0 DUP2 SWAP1 POP SWAP2 SWAP1 POP JUMP JUMPDEST PUSH2 0x6B2 DUP2 PUSH2 0x6A0 JUMP JUMPDEST DUP2 EQ PUSH2 0x6BC JUMPI PUSH0 PUSH0 REVERT JUMPDEST POP JUMP JUMPDEST PUSH0 DUP2 MLOAD SWAP1 POP PUSH2 0x6CD DUP2 PUSH2 0x6A9 JUMP JUMPDEST SWAP3 SWAP2 POP POP JUMP JUMPDEST PUSH0 PUSH1 0x20 DUP3 DUP5 SUB SLT ISZERO PUSH2 0x6E8 JUMPI PUSH2 0x6E7 PUSH2 0x69C JUMP JUMPDEST JUMPDEST PUSH0 PUSH2 0x6F5 DUP5 DUP3 DUP6 ADD PUSH2 0x6BF JUMP JUMPDEST SWAP2 POP POP SWAP3 SWAP2 POP POP JUMP JUMPDEST PUSH0 DUP2 MLOAD SWAP1 POP SWAP2 SWAP1 POP JUMP JUMPDEST PUSH32 0x4E487B7100000000000000000000000000000000000000000000000000000000 PUSH0 MSTORE PUSH1 0x41 PUSH1 0x4 MSTORE PUSH1 0x24 PUSH0 REVERT JUMPDEST PUSH32 0x4E487B7100000000000000000000000000000000000000000000000000000000 PUSH0 MSTORE PUSH1 0x22 PUSH1 0x4 MSTORE PUSH1 0x24 PUSH0 REVERT JUMPDEST PUSH0 PUSH1 0x2 DUP3 DIV SWAP1 POP PUSH1 0x1 DUP3 AND DUP1 PUSH2 0x779 JUMPI PUSH1 0x7F DUP3 AND SWAP2 POP JUMPDEST PUSH1 0x20 DUP3 LT DUP2 SUB PUSH2 0x78C JUMPI PUSH2 0x78B PUSH2 0x735 JUMP JUMPDEST JUMPDEST POP SWAP2 SWAP1 POP JUMP JUMPDEST PUSH0 DUP2 SWAP1 POP DUP2 PUSH0 MSTORE PUSH1 0x20 PUSH0 KECCAK256 SWAP1 POP SWAP2 SWAP1 POP JUMP JUMPDEST PUSH0 PUSH1 0x20 PUSH1 0x1F DUP4 ADD DIV SWAP1 POP SWAP2 SWAP1 POP JUMP JUMPDEST PUSH0 DUP3 DUP3 SHL SWAP1 POP SWAP3 SWAP2 POP POP JUMP JUMPDEST PUSH0 PUSH1 0x8 DUP4 MUL PUSH2 0x7EE PUSH32 0xFFFFFFFFFFFFFFFFFFFFFFFFFFFFFFFFFFFFFFFFFFFFFFFFFFFFFFFFFFFFFFFF DUP3 PUSH2 0x7B3 JUMP JUMPDEST PUSH2 0x7F8 DUP7 DUP4 PUSH2 0x7B3 JUMP JUMPDEST SWAP6 POP DUP1 NOT DUP5 AND SWAP4 POP DUP1 DUP7 AND DUP5 OR SWAP3 POP POP POP SWAP4 SWAP3 POP POP POP JUMP JUMPDEST PUSH0 DUP2 SWAP1 POP SWAP2 SWAP1 POP JUMP JUMPDEST PUSH0 PUSH2 0x833 PUSH2 0x82E PUSH2 0x829 DUP5 PUSH2 0x6A0 JUMP JUMPDEST PUSH2 0x810 JUMP JUMPDEST PUSH2 0x6A0 JUMP JUMPDEST SWAP1 POP SWAP2 SWAP1 POP JUMP JUMPDEST PUSH0 DUP2 SWAP1 POP SWAP2 SWAP1 POP JUMP JUMPDEST PUSH2 0x84C DUP4 PUSH2 0x819 JUMP JUMPDEST PUSH2 0x860 PUSH2 0x858 DUP3 PUSH2 0x83A JUMP JUMPDEST DUP5 DUP5 SLOAD PUSH2 0x7BF JUMP JUMPDEST DUP3 SSTORE POP POP POP POP JUMP JUMPDEST PUSH0 PUSH0 SWAP1 POP SWAP1 JUMP JUMPDEST PUSH2 0x877 PUSH2 0x868 JUMP JUMPDEST PUSH2 0x882 DUP2 DUP5 DUP5 PUSH2 0x843 JUMP JUMPDEST POP POP POP JUMP JUMPDEST JUMPDEST DUP2 DUP2 LT ISZERO PUSH2 0x8A5 JUMPI PUSH2 0x89A PUSH0 DUP3 PUSH2 0x86F JUMP JUMPDEST PUSH1 0x1 DUP2 ADD SWAP1 POP PUSH2 0x888 JUMP JUMPDEST POP POP JUMP JUMPDEST PUSH1 0x1F DUP3 GT ISZERO PUSH2 0x8EA JUMPI PUSH2 0x8BB DUP2 PUSH2 0x792 JUMP JUMPDEST PUSH2 0x8C4 DUP5 PUSH2 0x7A4 JUMP JUMPDEST DUP2 ADD PUSH1 0x20 DUP6 LT ISZERO PUSH2 0x8D3 JUMPI DUP2 SWAP1 POP JUMPDEST PUSH2 0x8E7 PUSH2 0x8DF DUP6 PUSH2 0x7A4 JUMP JUMPDEST DUP4 ADD DUP3 PUSH2 0x887 JUMP JUMPDEST POP POP JUMPDEST POP POP POP JUMP JUMPDEST PUSH0 DUP3 DUP3 SHR SWAP1 POP SWAP3 SWAP2 POP POP JUMP JUMPDEST PUSH0 PUSH2 0x90A PUSH0 NOT DUP5 PUSH1 0x8 MUL PUSH2 0x8EF JUMP JUMPDEST NOT DUP1 DUP4 AND SWAP2 POP POP SWAP3 SWAP2 POP POP JUMP JUMPDEST PUSH0 PUSH2 0x922 DUP4 DUP4 PUSH2 0x8FB JUMP JUMPDEST SWAP2 POP DUP3 PUSH1 0x2 MUL DUP3 OR SWAP1 POP SWAP3 SWAP2 POP POP JUMP JUMPDEST PUSH2 0x93B DUP3 PUSH2 0x6FE JUMP JUMPDEST PUSH8 0xFFFFFFFFFFFFFFFF DUP2 GT ISZERO PUSH2 0x954 JUMPI PUSH2 0x953 PUSH2 0x708 JUMP JUMPDEST JUMPDEST PUSH2 0x95E DUP3 SLOAD PUSH2 0x762 JUMP JUMPDEST PUSH2 0x969 DUP3 DUP3 DUP6 PUSH2 0x8A9 JUMP JUMPDEST PUSH0 PUSH1 0x20 SWAP1 POP PUSH1 0x1F DUP4 GT PUSH1 0x1 DUP2 EQ PUSH2 0x99A JUMPI PUSH0 DUP5 ISZERO PUSH2 0x988 JUMPI DUP3 DUP8 ADD MLOAD SWAP1 POP JUMPDEST PUSH2 0x992 DUP6 DUP3 PUSH2 0x917 JUMP JUMPDEST DUP7 SSTORE POP PUSH2 0x9F9 JUMP JUMPDEST PUSH1 0x1F NOT DUP5 AND PUSH2 0x9A8 DUP7 PUSH2 0x792 JUMP JUMPDEST PUSH0 JUMPDEST DUP3 DUP2 LT ISZERO PUSH2 0x9CF JUMPI DUP5 DUP10 ADD MLOAD DUP3 SSTORE PUSH1 0x1 DUP3 ADD SWAP2 POP PUSH1 0x20 DUP6 ADD SWAP5 POP PUSH1 0x20 DUP2 ADD SWAP1 POP PUSH2 0x9AA JUMP JUMPDEST DUP7 DUP4 LT ISZERO PUSH2 0x9EC JUMPI DUP5 DUP10 ADD MLOAD PUSH2 0x9E8 PUSH1 0x1F DUP10 AND DUP3 PUSH2 0x8FB JUMP JUMPDEST DUP4 SSTORE POP JUMPDEST PUSH1 0x1 PUSH1 0x2 DUP9 MUL ADD DUP9 SSTORE POP POP POP JUMPDEST POP POP POP POP POP POP JUMP JUMPDEST PUSH0 DUP3 DUP3 MSTORE PUSH1 0x20 DUP3 ADD SWAP1 POP SWAP3 SWAP2 POP POP JUMP JUMPDEST PUSH32 0x43616E6E6F7420736574206F776E657220746F207A65726F0000000000000000 PUSH0 DUP3 ADD MSTORE POP JUMP JUMPDEST PUSH0 PUSH2 0xA45 PUSH1 0x18 DUP4 PUSH2 0xA01 JUMP JUMPDEST SWAP2 POP PUSH2 0xA50 DUP3 PUSH2 0xA11 JUMP JUMPDEST PUSH1 0x20 DUP3 ADD SWAP1 POP SWAP2 SWAP1 POP JUMP JUMPDEST PUSH0 PUSH1 0x20 DUP3 ADD SWAP1 POP DUP2 DUP2 SUB PUSH0 DUP4 ADD MSTORE PUSH2 0xA72 DUP2 PUSH2 0xA39 JUMP JUMPDEST SWAP1 POP SWAP2 SWAP1 POP JUMP JUMPDEST PUSH32 0x43616E6E6F74207472616E7366657220746F2073656C66000000000000000000 PUSH0 DUP3 ADD MSTORE POP JUMP JUMPDEST PUSH0 PUSH2 0xAAD PUSH1 0x17 DUP4 PUSH2 0xA01 JUMP JUMPDEST SWAP2 POP PUSH2 0xAB8 DUP3 PUSH2 0xA79 JUMP JUMPDEST PUSH1 0x20 DUP3 ADD SWAP1 POP SWAP2 SWAP1 POP JUMP JUMPDEST PUSH0 PUSH1 0x20 DUP3 ADD SWAP1 POP DUP2 DUP2 SUB PUSH0 DUP4 ADD MSTORE PUSH2 0xADA DUP2 PUSH2 0xAA1 JUMP JUMPDEST SWAP1 POP SWAP2 SWAP1 POP JUMP JUMPDEST PUSH2 0x4D49 DUP1 PUSH2 0xAEE PUSH0 CODECOPY PUSH0 RETURN INVALID PUSH1 0x80 PUSH1 0x40 MSTORE CALLVALUE DUP1 ISZERO PUSH2 0xF JUMPI PUSH0 PUSH0 REVERT JUMPDEST POP PUSH1 0x4 CALLDATASIZE LT PUSH2 0x1E3 JUMPI PUSH0 CALLDATALOAD PUSH1 0xE0 SHR DUP1 PUSH4 0x8AC00021 GT PUSH2 0x10D JUMPI DUP1 PUSH4 0xB0FB162F GT PUSH2 0xA0 JUMPI DUP1 PUSH4 0xD8A4676F GT PUSH2 0x6F JUMPI DUP1 PUSH4 0xD8A4676F EQ PUSH2 0x57E JUMPI DUP1 PUSH4 0xE985E9C5 EQ PUSH2 0x5AF JUMPI DUP1 PUSH4 0xF2FDE38B EQ PUSH2 0x5DF JUMPI DUP1 PUSH4 0xFC2A88C3 EQ PUSH2 0x5FB JUMPI PUSH2 0x1E3 JUMP JUMPDEST DUP1 PUSH4 0xB0FB162F EQ PUSH2 0x4E4 JUMPI DUP1 PUSH4 0xB88D4FDE EQ PUSH2 0x502 JUMPI DUP1 PUSH4 0xBC85777C EQ PUSH2 0x51E JUMPI DUP1 PUSH4 0xC87B56DD EQ PUSH2 0x54E JUMPI PUSH2 0x1E3 JUMP JUMPDEST DUP1 PUSH4 0x98BDF6F5 GT PUSH2 0xDC JUMPI DUP1 PUSH4 0x98BDF6F5 EQ PUSH2 0x45B JUMPI DUP1 PUSH4 0x9ECCACF6 EQ PUSH2 0x479 JUMPI DUP1 PUSH4 0xA168FA89 EQ PUSH2 0x497 JUMPI DUP1 PUSH4 0xA22CB465 EQ PUSH2 0x4C8 JUMPI PUSH2 0x1E3 JUMP JUMPDEST DUP1 PUSH4 0x8AC00021 EQ PUSH2 0x3E5 JUMPI DUP1 PUSH4 0x8DA5CB5B EQ PUSH2 0x403 JUMPI DUP1 PUSH4 0x8EA98117 EQ PUSH2 0x421 JUMPI DUP1 PUSH4 0x95D89B41 EQ PUSH2 0x43D JUMPI PUSH2 0x1E3 JUMP JUMPDEST DUP1 PUSH4 0x31C864E8 GT PUSH2 0x185 JUMPI DUP1 PUSH4 0x70A08231 GT PUSH2 0x154 JUMPI DUP1 PUSH4 0x70A08231 EQ PUSH2 0x35D JUMPI DUP1 PUSH4 0x79BA5097 EQ PUSH2 0x38D JUMPI DUP1 PUSH4 0x7CCFD7FC EQ PUSH2 0x397 JUMPI DUP1 PUSH4 0x8796BA8C EQ PUSH2 0x3B5 JUMPI PUSH2 0x1E3 JUMP JUMPDEST DUP1 PUSH4 0x31C864E8 EQ PUSH2 0x2D7 JUMPI DUP1 PUSH4 0x42842E0E EQ PUSH2 0x2F3 JUMPI DUP1 PUSH4 0x61728F39 EQ PUSH2 0x30F JUMPI DUP1 PUSH4 0x6352211E EQ PUSH2 0x32D JUMPI PUSH2 0x1E3 JUMP JUMPDEST DUP1 PUSH4 0x95EA7B3 GT PUSH2 0x1C1 JUMPI DUP1 PUSH4 0x95EA7B3 EQ PUSH2 0x265 JUMPI DUP1 PUSH4 0x1FE543E3 EQ PUSH2 0x281 JUMPI DUP1 PUSH4 0x23B872DD EQ PUSH2 0x29D JUMPI DUP1 PUSH4 0x24F74697 EQ PUSH2 0x2B9 JUMPI PUSH2 0x1E3 JUMP JUMPDEST DUP1 PUSH4 0x1FFC9A7 EQ PUSH2 0x1E7 JUMPI DUP1 PUSH4 0x6FDDE03 EQ PUSH2 0x217 JUMPI DUP1 PUSH4 0x81812FC EQ PUSH2 0x235 JUMPI JUMPDEST PUSH0 PUSH0 REVERT JUMPDEST PUSH2 0x201 PUSH1 0x4 DUP1 CALLDATASIZE SUB DUP2 ADD SWAP1 PUSH2 0x1FC SWAP2 SWAP1 PUSH2 0x2E05 JUMP JUMPDEST PUSH2 0x619 JUMP JUMPDEST PUSH1 0x40 MLOAD PUSH2 0x20E SWAP2 SWAP1 PUSH2 0x2E4A JUMP JUMPDEST PUSH1 0x40 MLOAD DUP1 SWAP2 SUB SWAP1 RETURN JUMPDEST PUSH2 0x21F PUSH2 0x6FA JUMP JUMPDEST PUSH1 0x40 MLOAD PUSH2 0x22C SWAP2 SWAP1 PUSH2 0x2ED3 JUMP JUMPDEST PUSH1 0x40 MLOAD DUP1 SWAP2 SUB SWAP1 RETURN JUMPDEST PUSH2 0x24F PUSH1 0x4 DUP1 CALLDATASIZE SUB DUP2 ADD SWAP1 PUSH2 0x24A SWAP2 SWAP1 PUSH2 0x2F26 JUMP JUMPDEST PUSH2 0x789 JUMP JUMPDEST PUSH1 0x40 MLOAD PUSH2 0x25C SWAP2 SWAP1 PUSH2 0x2F90 JUMP JUMPDEST PUSH1 0x40 MLOAD DUP1 SWAP2 SUB SWAP1 RETURN JUMPDEST PUSH2 0x27F PUSH1 0x4 DUP1 CALLDATASIZE SUB DUP2 ADD SWAP1 PUSH2 0x27A SWAP2 SWAP1 PUSH2 0x2FD3 JUMP JUMPDEST PUSH2 0x80A JUMP JUMPDEST STOP JUMPDEST PUSH2 0x29B PUSH1 0x4 DUP1 CALLDATASIZE SUB DUP2 ADD SWAP1 PUSH2 0x296 SWAP2 SWAP1 PUSH2 0x3072 JUMP JUMPDEST PUSH2 0x920 JUMP JUMPDEST STOP JUMPDEST PUSH2 0x2B7 PUSH1 0x4 DUP1 CALLDATASIZE SUB DUP2 ADD SWAP1 PUSH2 0x2B2 SWAP2 SWAP1 PUSH2 0x30CF JUMP JUMPDEST PUSH2 0x9E4 JUMP JUMPDEST STOP JUMPDEST PUSH2 0x2C1 PUSH2 0xA44 JUMP JUMPDEST PUSH1 0x40 MLOAD PUSH2 0x2CE SWAP2 SWAP1 PUSH2 0x313D JUMP JUMPDEST PUSH1 0x40 MLOAD DUP1 SWAP2 SUB SWAP1 RETURN JUMPDEST PUSH2 0x2F1 PUSH1 0x4 DUP1 CALLDATASIZE SUB DUP2 ADD SWAP1 PUSH2 0x2EC SWAP2 SWAP1 PUSH2 0x2F26 JUMP JUMPDEST PUSH2 0xA59 JUMP JUMPDEST STOP JUMPDEST PUSH2 0x30D PUSH1 0x4 DUP1 CALLDATASIZE SUB DUP2 ADD SWAP1 PUSH2 0x308 SWAP2 SWAP1 PUSH2 0x30CF JUMP JUMPDEST PUSH2 0xD49 JUMP JUMPDEST STOP JUMPDEST PUSH2 0x317 PUSH2 0xD68 JUMP JUMPDEST PUSH1 0x40 MLOAD PUSH2 0x324 SWAP2 SWAP1 PUSH2 0x316E JUMP JUMPDEST PUSH1 0x40 MLOAD DUP1 SWAP2 SUB SWAP1 RETURN JUMPDEST PUSH2 0x347 PUSH1 0x4 DUP1 CALLDATASIZE SUB DUP2 ADD SWAP1 PUSH2 0x342 SWAP2 SWAP1 PUSH2 0x2F26 JUMP JUMPDEST PUSH2 0xD6E JUMP JUMPDEST PUSH1 0x40 MLOAD PUSH2 0x354 SWAP2 SWAP1 PUSH2 0x2F90 JUMP JUMPDEST PUSH1 0x40 MLOAD DUP1 SWAP2 SUB SWAP1 RETURN JUMPDEST PUSH2 0x377 PUSH1 0x4 DUP1 CALLDATASIZE SUB DUP2 ADD SWAP1 PUSH2 0x372 SWAP2 SWAP1 PUSH2 0x3187 JUMP JUMPDEST PUSH2 0xE1A JUMP JUMPDEST PUSH1 0x40 MLOAD PUSH2 0x384 SWAP2 SWAP1 PUSH2 0x31C1 JUMP JUMPDEST PUSH1 0x40 MLOAD DUP1 SWAP2 SUB SWAP1 RETURN JUMPDEST PUSH2 0x395 PUSH2 0xECE JUMP JUMPDEST STOP JUMPDEST PUSH2 0x39F PUSH2 0x105F JUMP JUMPDEST PUSH1 0x40 MLOAD PUSH2 0x3AC SWAP2 SWAP1 PUSH2 0x313D JUMP JUMPDEST PUSH1 0x40 MLOAD DUP1 SWAP2 SUB SWAP1 RETURN JUMPDEST PUSH2 0x3CF PUSH1 0x4 DUP1 CALLDATASIZE SUB DUP2 ADD SWAP1 PUSH2 0x3CA SWAP2 SWAP1 PUSH2 0x2F26 JUMP JUMPDEST PUSH2 0x1075 JUMP JUMPDEST PUSH1 0x40 MLOAD PUSH2 0x3DC SWAP2 SWAP1 PUSH2 0x31C1 JUMP JUMPDEST PUSH1 0x40 MLOAD DUP1 SWAP2 SUB SWAP1 RETURN JUMPDEST PUSH2 0x3ED PUSH2 0x1095 JUMP JUMPDEST PUSH1 0x40 MLOAD PUSH2 0x3FA SWAP2 SWAP1 PUSH2 0x31C1 JUMP JUMPDEST PUSH1 0x40 MLOAD DUP1 SWAP2 SUB SWAP1 RETURN JUMPDEST PUSH2 0x40B PUSH2 0x109B JUMP JUMPDEST PUSH1 0x40 MLOAD PUSH2 0x418 SWAP2 SWAP1 PUSH2 0x2F90 JUMP JUMPDEST PUSH1 0x40 MLOAD DUP1 SWAP2 SUB SWAP1 RETURN JUMPDEST PUSH2 0x43B PUSH1 0x4 DUP1 CALLDATASIZE SUB DUP2 ADD SWAP1 PUSH2 0x436 SWAP2 SWAP1 PUSH2 0x3187 JUMP JUMPDEST PUSH2 0x10C3 JUMP JUMPDEST STOP JUMPDEST PUSH2 0x445 PUSH2 0x12A0 JUMP JUMPDEST PUSH1 0x40 MLOAD PUSH2 0x452 SWAP2 SWAP1 PUSH2 0x2ED3 JUMP JUMPDEST PUSH1 0x40 MLOAD DUP1 SWAP2 SUB SWAP1 RETURN JUMPDEST PUSH2 0x463 PUSH2 0x1330 JUMP JUMPDEST PUSH1 0x40 MLOAD PUSH2 0x470 SWAP2 SWAP1 PUSH2 0x31C1 JUMP JUMPDEST PUSH1 0x40 MLOAD DUP1 SWAP2 SUB SWAP1 RETURN JUMPDEST PUSH2 0x481 PUSH2 0x133B JUMP JUMPDEST PUSH1 0x40 MLOAD PUSH2 0x48E SWAP2 SWAP1 PUSH2 0x3235 JUMP JUMPDEST PUSH1 0x40 MLOAD DUP1 SWAP2 SUB SWAP1 RETURN JUMPDEST PUSH2 0x4B1 PUSH1 0x4 DUP1 CALLDATASIZE SUB DUP2 ADD SWAP1 PUSH2 0x4AC SWAP2 SWAP1 PUSH2 0x2F26 JUMP JUMPDEST PUSH2 0x1360 JUMP JUMPDEST PUSH1 0x40 MLOAD PUSH2 0x4BF SWAP3 SWAP2 SWAP1 PUSH2 0x324E JUMP JUMPDEST PUSH1 0x40 MLOAD DUP1 SWAP2 SUB SWAP1 RETURN JUMPDEST PUSH2 0x4E2 PUSH1 0x4 DUP1 CALLDATASIZE SUB DUP2 ADD SWAP1 PUSH2 0x4DD SWAP2 SWAP1 PUSH2 0x329F JUMP JUMPDEST PUSH2 0x1398 JUMP JUMPDEST STOP JUMPDEST PUSH2 0x4EC PUSH2 0x13AE JUMP JUMPDEST PUSH1 0x40 MLOAD PUSH2 0x4F9 SWAP2 SWAP1 PUSH2 0x32F9 JUMP JUMPDEST PUSH1 0x40 MLOAD DUP1 SWAP2 SUB SWAP1 RETURN JUMPDEST PUSH2 0x51C PUSH1 0x4 DUP1 CALLDATASIZE SUB DUP2 ADD SWAP1 PUSH2 0x517 SWAP2 SWAP1 PUSH2 0x343A JUMP JUMPDEST PUSH2 0x13C2 JUMP JUMPDEST STOP JUMPDEST PUSH2 0x538 PUSH1 0x4 DUP1 CALLDATASIZE SUB DUP2 ADD SWAP1 PUSH2 0x533 SWAP2 SWAP1 PUSH2 0x2F26 JUMP JUMPDEST PUSH2 0x1424 JUMP JUMPDEST PUSH1 0x40 MLOAD PUSH2 0x545 SWAP2 SWAP1 PUSH2 0x31C1 JUMP JUMPDEST PUSH1 0x40 MLOAD DUP1 SWAP2 SUB SWAP1 RETURN JUMPDEST PUSH2 0x568 PUSH1 0x4 DUP1 CALLDATASIZE SUB DUP2 ADD SWAP1 PUSH2 0x563 SWAP2 SWAP1 PUSH2 0x2F26 JUMP JUMPDEST PUSH2 0x16B4 JUMP JUMPDEST PUSH1 0x40 MLOAD PUSH2 0x575 SWAP2 SWAP1 PUSH2 0x2ED3 JUMP JUMPDEST PUSH1 0x40 MLOAD DUP1 SWAP2 SUB SWAP1 RETURN JUMPDEST PUSH2 0x598 PUSH1 0x4 DUP1 CALLDATASIZE SUB DUP2 ADD SWAP1 PUSH2 0x593 SWAP2 SWAP1 PUSH2 0x2F26 JUMP JUMPDEST PUSH2 0x16C6 JUMP JUMPDEST PUSH1 0x40 MLOAD PUSH2 0x5A6 SWAP3 SWAP2 SWAP1 PUSH2 0x3571 JUMP JUMPDEST PUSH1 0x40 MLOAD DUP1 SWAP2 SUB SWAP1 RETURN JUMPDEST PUSH2 0x5C9 PUSH1 0x4 DUP1 CALLDATASIZE SUB DUP2 ADD SWAP1 PUSH2 0x5C4 SWAP2 SWAP1 PUSH2 0x359F JUMP JUMPDEST PUSH2 0x17E4 JUMP JUMPDEST PUSH1 0x40 MLOAD PUSH2 0x5D6 SWAP2 SWAP1 PUSH2 0x2E4A JUMP JUMPDEST PUSH1 0x40 MLOAD DUP1 SWAP2 SUB SWAP1 RETURN JUMPDEST PUSH2 0x5F9 PUSH1 0x4 DUP1 CALLDATASIZE SUB DUP2 ADD SWAP1 PUSH2 0x5F4 SWAP2 SWAP1 PUSH2 0x3187 JUMP JUMPDEST PUSH2 0x1872 JUMP JUMPDEST STOP JUMPDEST PUSH2 0x603 PUSH2 0x1886 JUMP JUMPDEST PUSH1 0x40 MLOAD PUSH2 0x610 SWAP2 SWAP1 PUSH2 0x31C1 JUMP JUMPDEST PUSH1 0x40 MLOAD DUP1 SWAP2 SUB SWAP1 RETURN JUMPDEST PUSH0 PUSH32 0x80AC58CD00000000000000000000000000000000000000000000000000000000 PUSH28 0xFFFFFFFFFFFFFFFFFFFFFFFFFFFFFFFFFFFFFFFFFFFFFFFFFFFFFFFF NOT AND DUP3 PUSH28 0xFFFFFFFFFFFFFFFFFFFFFFFFFFFFFFFFFFFFFFFFFFFFFFFFFFFFFFFF NOT AND EQ DUP1 PUSH2 0x6E3 JUMPI POP PUSH32 0x5B5E139F00000000000000000000000000000000000000000000000000000000 PUSH28 0xFFFFFFFFFFFFFFFFFFFFFFFFFFFFFFFFFFFFFFFFFFFFFFFFFFFFFFFF NOT AND DUP3 PUSH28 0xFFFFFFFFFFFFFFFFFFFFFFFFFFFFFFFFFFFFFFFFFFFFFFFFFFFFFFFF NOT AND EQ JUMPDEST DUP1 PUSH2 0x6F3 JUMPI POP PUSH2 0x6F2 DUP3 PUSH2 0x188C JUMP JUMPDEST JUMPDEST SWAP1 POP SWAP2 SWAP1 POP JUMP JUMPDEST PUSH1 0x60 PUSH0 DUP1 SLOAD PUSH2 0x708 SWAP1 PUSH2 0x360A JUMP JUMPDEST DUP1 PUSH1 0x1F ADD PUSH1 0x20 DUP1 SWAP2 DIV MUL PUSH1 0x20 ADD PUSH1 0x40 MLOAD SWAP1 DUP2 ADD PUSH1 0x40 MSTORE DUP1 SWAP3 SWAP2 SWAP1 DUP2 DUP2 MSTORE PUSH1 0x20 ADD DUP3 DUP1 SLOAD PUSH2 0x734 SWAP1 PUSH2 0x360A JUMP JUMPDEST DUP1 ISZERO PUSH2 0x77F JUMPI DUP1 PUSH1 0x1F LT PUSH2 0x756 JUMPI PUSH2 0x100 DUP1 DUP4 SLOAD DIV MUL DUP4 MSTORE SWAP2 PUSH1 0x20 ADD SWAP2 PUSH2 0x77F JUMP JUMPDEST DUP3 ADD SWAP2 SWAP1 PUSH0 MSTORE PUSH1 0x20 PUSH0 KECCAK256 SWAP1 JUMPDEST DUP2 SLOAD DUP2 MSTORE SWAP1 PUSH1 0x1 ADD SWAP1 PUSH1 0x20 ADD DUP1 DUP4 GT PUSH2 0x762 JUMPI DUP3 SWAP1 SUB PUSH1 0x1F AND DUP3 ADD SWAP2 JUMPDEST POP POP POP POP POP SWAP1 POP SWAP1 JUMP JUMPDEST PUSH0 PUSH2 0x793 DUP3 PUSH2 0x18F5 JUMP JUMPDEST PUSH2 0x7D2 JUMPI PUSH1 0x40 MLOAD PUSH32 0x8C379A000000000000000000000000000000000000000000000000000000000 DUP2 MSTORE PUSH1 0x4 ADD PUSH2 0x7C9 SWAP1 PUSH2 0x36AA JUMP JUMPDEST PUSH1 0x40 MLOAD DUP1 SWAP2 SUB SWAP1 REVERT JUMPDEST PUSH1 0x4 PUSH0 DUP4 DUP2 MSTORE PUSH1 0x20 ADD SWAP1 DUP2 MSTORE PUSH1 0x20 ADD PUSH0 KECCAK256 PUSH0 SWAP1 SLOAD SWAP1 PUSH2 0x100 EXP SWAP1 DIV PUSH20 0xFFFFFFFFFFFFFFFFFFFFFFFFFFFFFFFFFFFFFFFF AND SWAP1 POP SWAP2 SWAP1 POP JUMP JUMPDEST PUSH0 PUSH2 0x814 DUP3 PUSH2 0xD6E JUMP JUMPDEST SWAP1 POP DUP1 PUSH20 0xFFFFFFFFFFFFFFFFFFFFFFFFFFFFFFFFFFFFFFFF AND DUP4 PUSH20 0xFFFFFFFFFFFFFFFFFFFFFFFFFFFFFFFFFFFFFFFF AND SUB PUSH2 0x884 JUMPI PUSH1 0x40 MLOAD PUSH32 0x8C379A000000000000000000000000000000000000000000000000000000000 DUP2 MSTORE PUSH1 0x4 ADD PUSH2 0x87B SWAP1 PUSH2 0x3738 JUMP JUMPDEST PUSH1 0x40 MLOAD DUP1 SWAP2 SUB SWAP1 REVERT JUMPDEST DUP1 PUSH20 0xFFFFFFFFFFFFFFFFFFFFFFFFFFFFFFFFFFFFFFFF AND PUSH2 0x8A3 PUSH2 0x195D JUMP JUMPDEST PUSH20 0xFFFFFFFFFFFFFFFFFFFFFFFFFFFFFFFFFFFFFFFF AND EQ DUP1 PUSH2 0x8D2 JUMPI POP PUSH2 0x8D1 DUP2 PUSH2 0x8CC PUSH2 0x195D JUMP JUMPDEST PUSH2 0x17E4 JUMP JUMPDEST JUMPDEST PUSH2 0x911 JUMPI PUSH1 0x40 MLOAD PUSH32 0x8C379A000000000000000000000000000000000000000000000000000000000 DUP2 MSTORE PUSH1 0x4 ADD PUSH2 0x908 SWAP1 PUSH2 0x37C6 JUMP JUMPDEST PUSH1 0x40 MLOAD DUP1 SWAP2 SUB SWAP1 REVERT JUMPDEST PUSH2 0x91B DUP4 DUP4 PUSH2 0x1964 JUMP JUMPDEST POP POP POP JUMP JUMPDEST PUSH1 0x9 PUSH0 SWAP1 SLOAD SWAP1 PUSH2 0x100 EXP SWAP1 DIV PUSH20 0xFFFFFFFFFFFFFFFFFFFFFFFFFFFFFFFFFFFFFFFF AND PUSH20 0xFFFFFFFFFFFFFFFFFFFFFFFFFFFFFFFFFFFFFFFF AND CALLER PUSH20 0xFFFFFFFFFFFFFFFFFFFFFFFFFFFFFFFFFFFFFFFF AND EQ PUSH2 0x9D4 JUMPI CALLER PUSH1 0x9 PUSH0 SWAP1 SLOAD SWAP1 PUSH2 0x100 EXP SWAP1 DIV PUSH20 0xFFFFFFFFFFFFFFFFFFFFFFFFFFFFFFFFFFFFFFFF AND PUSH1 0x40 MLOAD PUSH32 0x1CF993F400000000000000000000000000000000000000000000000000000000 DUP2 MSTORE PUSH1 0x4 ADD PUSH2 0x9CB SWAP3 SWAP2 SWAP1 PUSH2 0x37E4 JUMP JUMPDEST PUSH1 0x40 MLOAD DUP1 SWAP2 SUB SWAP1 REVERT JUMPDEST PUSH2 0x9DF DUP4 DUP4 DUP4 PUSH2 0x1A1A JUMP JUMPDEST POP POP POP JUMP JUMPDEST PUSH2 0x9F5 PUSH2 0x9EF PUSH2 0x195D JUMP JUMPDEST DUP3 PUSH2 0x1C65 JUMP JUMPDEST PUSH2 0xA34 JUMPI PUSH1 0x40 MLOAD PUSH32 0x8C379A000000000000000000000000000000000000000000000000000000000 DUP2 MSTORE PUSH1 0x4 ADD PUSH2 0xA2B SWAP1 PUSH2 0x387B JUMP JUMPDEST PUSH1 0x40 MLOAD DUP1 SWAP2 SUB SWAP1 REVERT JUMPDEST PUSH2 0xA3F DUP4 DUP4 DUP4 PUSH2 0x1D41 JUMP JUMPDEST POP POP POP JUMP JUMPDEST PUSH1 0x10 PUSH0 SWAP1 SLOAD SWAP1 PUSH2 0x100 EXP SWAP1 DIV PUSH4 0xFFFFFFFF AND DUP2 JUMP JUMPDEST PUSH0 DUP2 SWAP1 POP PUSH1 0x3 DUP2 PUSH1 0xFF AND GT DUP1 ISZERO PUSH2 0xA72 JUMPI POP PUSH0 DUP2 PUSH1 0xFF AND LT JUMPDEST ISZERO PUSH2 0xAA9 JUMPI PUSH1 0x40 MLOAD PUSH32 0x9D4221EB00000000000000000000000000000000000000000000000000000000 DUP2 MSTORE PUSH1 0x4 ADD PUSH1 0x40 MLOAD DUP1 SWAP2 SUB SWAP1 REVERT JUMPDEST PUSH0 PUSH2 0xAB4 PUSH1 0xA PUSH2 0x1F9C JUMP JUMPDEST SWAP1 POP PUSH1 0x40 MLOAD DUP1 PUSH1 0x80 ADD PUSH1 0x40 MSTORE DUP1 PUSH1 0x12 DUP5 PUSH1 0xFF AND DUP2 SLOAD DUP2 LT PUSH2 0xAD8 JUMPI PUSH2 0xAD7 PUSH2 0x3899 JUMP JUMPDEST JUMPDEST SWAP1 PUSH0 MSTORE PUSH1 0x20 PUSH0 KECCAK256 ADD DUP1 SLOAD PUSH2 0xAEB SWAP1 PUSH2 0x360A JUMP JUMPDEST DUP1 PUSH1 0x1F ADD PUSH1 0x20 DUP1 SWAP2 DIV MUL PUSH1 0x20 ADD PUSH1 0x40 MLOAD SWAP1 DUP2 ADD PUSH1 0x40 MSTORE DUP1 SWAP3 SWAP2 SWAP1 DUP2 DUP2 MSTORE PUSH1 0x20 ADD DUP3 DUP1 SLOAD PUSH2 0xB17 SWAP1 PUSH2 0x360A JUMP JUMPDEST DUP1 ISZERO PUSH2 0xB62 JUMPI DUP1 PUSH1 0x1F LT PUSH2 0xB39 JUMPI PUSH2 0x100 DUP1 DUP4 SLOAD DIV MUL DUP4 MSTORE SWAP2 PUSH1 0x20 ADD SWAP2 PUSH2 0xB62 JUMP JUMPDEST DUP3 ADD SWAP2 SWAP1 PUSH0 MSTORE PUSH1 0x20 PUSH0 KECCAK256 SWAP1 JUMPDEST DUP2 SLOAD DUP2 MSTORE SWAP1 PUSH1 0x1 ADD SWAP1 PUSH1 0x20 ADD DUP1 DUP4 GT PUSH2 0xB45 JUMPI DUP3 SWAP1 SUB PUSH1 0x1F AND DUP3 ADD SWAP2 JUMPDEST POP POP POP POP POP DUP2 MSTORE PUSH1 0x20 ADD PUSH1 0x11 DUP5 PUSH1 0xFF AND DUP2 SLOAD DUP2 LT PUSH2 0xB83 JUMPI PUSH2 0xB82 PUSH2 0x3899 JUMP JUMPDEST JUMPDEST SWAP1 PUSH0 MSTORE PUSH1 0x20 PUSH0 KECCAK256 ADD DUP1 SLOAD PUSH2 0xB96 SWAP1 PUSH2 0x360A JUMP JUMPDEST DUP1 PUSH1 0x1F ADD PUSH1 0x20 DUP1 SWAP2 DIV MUL PUSH1 0x20 ADD PUSH1 0x40 MLOAD SWAP1 DUP2 ADD PUSH1 0x40 MSTORE DUP1 SWAP3 SWAP2 SWAP1 DUP2 DUP2 MSTORE PUSH1 0x20 ADD DUP3 DUP1 SLOAD PUSH2 0xBC2 SWAP1 PUSH2 0x360A JUMP JUMPDEST DUP1 ISZERO PUSH2 0xC0D JUMPI DUP1 PUSH1 0x1F LT PUSH2 0xBE4 JUMPI PUSH2 0x100 DUP1 DUP4 SLOAD DIV MUL DUP4 MSTORE SWAP2 PUSH1 0x20 ADD SWAP2 PUSH2 0xC0D JUMP JUMPDEST DUP3 ADD SWAP2 SWAP1 PUSH0 MSTORE PUSH1 0x20 PUSH0 KECCAK256 SWAP1 JUMPDEST DUP2 SLOAD DUP2 MSTORE SWAP1 PUSH1 0x1 ADD SWAP1 PUSH1 0x20 ADD DUP1 DUP4 GT PUSH2 0xBF0 JUMPI DUP3 SWAP1 SUB PUSH1 0x1F AND DUP3 ADD SWAP2 JUMPDEST POP POP POP POP POP DUP2 MSTORE PUSH1 0x20 ADD PUSH0 DUP2 MSTORE PUSH1 0x20 ADD PUSH0 DUP2 MSTORE POP PUSH1 0x13 PUSH0 DUP4 DUP2 MSTORE PUSH1 0x20 ADD SWAP1 DUP2 MSTORE PUSH1 0x20 ADD PUSH0 KECCAK256 PUSH0 DUP3 ADD MLOAD DUP2 PUSH0 ADD SWAP1 DUP2 PUSH2 0xC45 SWAP2 SWAP1 PUSH2 0x3A5D JUMP JUMPDEST POP PUSH1 0x20 DUP3 ADD MLOAD DUP2 PUSH1 0x1 ADD SWAP1 DUP2 PUSH2 0xC5B SWAP2 SWAP1 PUSH2 0x3A5D JUMP JUMPDEST POP PUSH1 0x40 DUP3 ADD MLOAD DUP2 PUSH1 0x2 ADD SSTORE PUSH1 0x60 DUP3 ADD MLOAD DUP2 PUSH1 0x3 ADD SSTORE SWAP1 POP POP PUSH2 0xC7D PUSH1 0xA PUSH2 0x1FA8 JUMP JUMPDEST PUSH0 PUSH2 0xD09 PUSH1 0x13 PUSH0 DUP5 DUP2 MSTORE PUSH1 0x20 ADD SWAP1 DUP2 MSTORE PUSH1 0x20 ADD PUSH0 KECCAK256 PUSH0 ADD PUSH1 0x13 PUSH0 DUP6 DUP2 MSTORE PUSH1 0x20 ADD SWAP1 DUP2 MSTORE PUSH1 0x20 ADD PUSH0 KECCAK256 PUSH1 0x1 ADD PUSH2 0xCC5 PUSH1 0x13 PUSH0 DUP8 DUP2 MSTORE PUSH1 0x20 ADD SWAP1 DUP2 MSTORE PUSH1 0x20 ADD PUSH0 KECCAK256 PUSH1 0x2 ADD SLOAD PUSH2 0x1FBC JUMP JUMPDEST PUSH2 0xCE2 PUSH1 0x13 PUSH0 DUP9 DUP2 MSTORE PUSH1 0x20 ADD SWAP1 DUP2 MSTORE PUSH1 0x20 ADD PUSH0 KECCAK256 PUSH1 0x3 ADD SLOAD PUSH2 0x1FBC JUMP JUMPDEST PUSH1 0x40 MLOAD PUSH1 0x20 ADD PUSH2 0xCF5 SWAP5 SWAP4 SWAP3 SWAP2 SWAP1 PUSH2 0x3EA6 JUMP JUMPDEST PUSH1 0x40 MLOAD PUSH1 0x20 DUP2 DUP4 SUB SUB DUP2 MSTORE SWAP1 PUSH1 0x40 MSTORE PUSH2 0x2115 JUMP JUMPDEST SWAP1 POP PUSH0 DUP2 PUSH1 0x40 MLOAD PUSH1 0x20 ADD PUSH2 0xD1D SWAP2 SWAP1 PUSH2 0x3FA6 JUMP JUMPDEST PUSH1 0x40 MLOAD PUSH1 0x20 DUP2 DUP4 SUB SUB DUP2 MSTORE SWAP1 PUSH1 0x40 MSTORE SWAP1 POP PUSH2 0xD38 CALLER DUP5 PUSH2 0x2274 JUMP JUMPDEST PUSH2 0xD42 DUP4 DUP3 PUSH2 0x2291 JUMP JUMPDEST POP POP POP POP POP JUMP JUMPDEST PUSH2 0xD63 DUP4 DUP4 DUP4 PUSH1 0x40 MLOAD DUP1 PUSH1 0x20 ADD PUSH1 0x40 MSTORE DUP1 PUSH0 DUP2 MSTORE POP PUSH2 0x13C2 JUMP JUMPDEST POP POP POP JUMP JUMPDEST PUSH1 0xF SLOAD DUP2 JUMP JUMPDEST PUSH0 PUSH0 PUSH1 0x2 PUSH0 DUP5 DUP2 MSTORE PUSH1 0x20 ADD SWAP1 DUP2 MSTORE PUSH1 0x20 ADD PUSH0 KECCAK256 PUSH0 SWAP1 SLOAD SWAP1 PUSH2 0x100 EXP SWAP1 DIV PUSH20 0xFFFFFFFFFFFFFFFFFFFFFFFFFFFFFFFFFFFFFFFF AND SWAP1 POP PUSH0 PUSH20 0xFFFFFFFFFFFFFFFFFFFFFFFFFFFFFFFFFFFFFFFF AND DUP2 PUSH20 0xFFFFFFFFFFFFFFFFFFFFFFFFFFFFFFFFFFFFFFFF AND SUB PUSH2 0xE11 JUMPI PUSH1 0x40 MLOAD PUSH32 0x8C379A000000000000000000000000000000000000000000000000000000000 DUP2 MSTORE PUSH1 0x4 ADD PUSH2 0xE08 SWAP1 PUSH2 0x4037 JUMP JUMPDEST PUSH1 0x40 MLOAD DUP1 SWAP2 SUB SWAP1 REVERT JUMPDEST DUP1 SWAP2 POP POP SWAP2 SWAP1 POP JUMP JUMPDEST PUSH0 PUSH0 PUSH20 0xFFFFFFFFFFFFFFFFFFFFFFFFFFFFFFFFFFFFFFFF AND DUP3 PUSH20 0xFFFFFFFFFFFFFFFFFFFFFFFFFFFFFFFFFFFFFFFF AND SUB PUSH2 0xE89 JUMPI PUSH1 0x40 MLOAD PUSH32 0x8C379A000000000000000000000000000000000000000000000000000000000 DUP2 MSTORE PUSH1 0x4 ADD PUSH2 0xE80 SWAP1 PUSH2 0x40C5 JUMP JUMPDEST PUSH1 0x40 MLOAD DUP1 SWAP2 SUB SWAP1 REVERT JUMPDEST PUSH1 0x3 PUSH0 DUP4 PUSH20 0xFFFFFFFFFFFFFFFFFFFFFFFFFFFFFFFFFFFFFFFF AND PUSH20 0xFFFFFFFFFFFFFFFFFFFFFFFFFFFFFFFFFFFFFFFF AND DUP2 MSTORE PUSH1 0x20 ADD SWAP1 DUP2 MSTORE PUSH1 0x20 ADD PUSH0 KECCAK256 SLOAD SWAP1 POP SWAP2 SWAP1 POP JUMP JUMPDEST PUSH1 0x8 PUSH0 SWAP1 SLOAD SWAP1 PUSH2 0x100 EXP SWAP1 DIV PUSH20 0xFFFFFFFFFFFFFFFFFFFFFFFFFFFFFFFFFFFFFFFF AND PUSH20 0xFFFFFFFFFFFFFFFFFFFFFFFFFFFFFFFFFFFFFFFF AND CALLER PUSH20 0xFFFFFFFFFFFFFFFFFFFFFFFFFFFFFFFFFFFFFFFF AND EQ PUSH2 0xF5D JUMPI PUSH1 0x40 MLOAD PUSH32 0x8C379A000000000000000000000000000000000000000000000000000000000 DUP2 MSTORE PUSH1 0x4 ADD PUSH2 0xF54 SWAP1 PUSH2 0x412D JUMP JUMPDEST PUSH1 0x40 MLOAD DUP1 SWAP2 SUB SWAP1 REVERT JUMPDEST PUSH0 PUSH1 0x7 PUSH0 SWAP1 SLOAD SWAP1 PUSH2 0x100 EXP SWAP1 DIV PUSH20 0xFFFFFFFFFFFFFFFFFFFFFFFFFFFFFFFFFFFFFFFF AND SWAP1 POP CALLER PUSH1 0x7 PUSH0 PUSH2 0x100 EXP DUP2 SLOAD DUP2 PUSH20 0xFFFFFFFFFFFFFFFFFFFFFFFFFFFFFFFFFFFFFFFF MUL NOT AND SWAP1 DUP4 PUSH20 0xFFFFFFFFFFFFFFFFFFFFFFFFFFFFFFFFFFFFFFFF AND MUL OR SWAP1 SSTORE POP PUSH0 PUSH1 0x8 PUSH0 PUSH2 0x100 EXP DUP2 SLOAD DUP2 PUSH20 0xFFFFFFFFFFFFFFFFFFFFFFFFFFFFFFFFFFFFFFFF MUL NOT AND SWAP1 DUP4 PUSH20 0xFFFFFFFFFFFFFFFFFFFFFFFFFFFFFFFFFFFFFFFF AND MUL OR SWAP1 SSTORE POP CALLER PUSH20 0xFFFFFFFFFFFFFFFFFFFFFFFFFFFFFFFFFFFFFFFF AND DUP2 PUSH20 0xFFFFFFFFFFFFFFFFFFFFFFFFFFFFFFFFFFFFFFFF AND PUSH32 0x8BE0079C531659141344CD1FD0A4F28419497F9722A3DAAFE3B4186F6B6457E0 PUSH1 0x40 MLOAD PUSH1 0x40 MLOAD DUP1 SWAP2 SUB SWAP1 LOG3 POP JUMP JUMPDEST PUSH1 0x10 PUSH1 0x6 SWAP1 SLOAD SWAP1 PUSH2 0x100 EXP SWAP1 DIV PUSH4 0xFFFFFFFF AND DUP2 JUMP JUMPDEST PUSH1 0xD DUP2 DUP2 SLOAD DUP2 LT PUSH2 0x1084 JUMPI PUSH0 DUP1 REVERT JUMPDEST SWAP1 PUSH0 MSTORE PUSH1 0x20 PUSH0 KECCAK256 ADD PUSH0 SWAP2 POP SWAP1 POP SLOAD DUP2 JUMP JUMPDEST PUSH1 0xC SLOAD DUP2 JUMP JUMPDEST PUSH0 PUSH1 0x7 PUSH0 SWAP1 SLOAD SWAP1 PUSH2 0x100 EXP SWAP1 DIV PUSH20 0xFFFFFFFFFFFFFFFFFFFFFFFFFFFFFFFFFFFFFFFF AND SWAP1 POP SWAP1 JUMP JUMPDEST PUSH2 0x10CB PUSH2 0x109B JUMP JUMPDEST PUSH20 0xFFFFFFFFFFFFFFFFFFFFFFFFFFFFFFFFFFFFFFFF AND CALLER PUSH20 0xFFFFFFFFFFFFFFFFFFFFFFFFFFFFFFFFFFFFFFFF AND EQ ISZERO DUP1 ISZERO PUSH2 0x1153 JUMPI POP PUSH1 0x9 PUSH0 SWAP1 SLOAD SWAP1 PUSH2 0x100 EXP SWAP1 DIV PUSH20 0xFFFFFFFFFFFFFFFFFFFFFFFFFFFFFFFFFFFFFFFF AND PUSH20 0xFFFFFFFFFFFFFFFFFFFFFFFFFFFFFFFFFFFFFFFF AND CALLER PUSH20 0xFFFFFFFFFFFFFFFFFFFFFFFFFFFFFFFFFFFFFFFF AND EQ ISZERO JUMPDEST ISZERO PUSH2 0x11C1 JUMPI CALLER PUSH2 0x1161 PUSH2 0x109B JUMP JUMPDEST PUSH1 0x9 PUSH0 SWAP1 SLOAD SWAP1 PUSH2 0x100 EXP SWAP1 DIV PUSH20 0xFFFFFFFFFFFFFFFFFFFFFFFFFFFFFFFFFFFFFFFF AND PUSH1 0x40 MLOAD PUSH32 0x61DB9C100000000000000000000000000000000000000000000000000000000 DUP2 MSTORE PUSH1 0x4 ADD PUSH2 0x11B8 SWAP4 SWAP3 SWAP2 SWAP1 PUSH2 0x414B JUMP JUMPDEST PUSH1 0x40 MLOAD DUP1 SWAP2 SUB SWAP1 REVERT JUMPDEST PUSH0 PUSH20 0xFFFFFFFFFFFFFFFFFFFFFFFFFFFFFFFFFFFFFFFF AND DUP2 PUSH20 0xFFFFFFFFFFFFFFFFFFFFFFFFFFFFFFFFFFFFFFFF AND SUB PUSH2 0x1226 JUMPI PUSH1 0x40 MLOAD PUSH32 0xD92E233D00000000000000000000000000000000000000000000000000000000 DUP2 MSTORE PUSH1 0x4 ADD PUSH1 0x40 MLOAD DUP1 SWAP2 SUB SWAP1 REVERT JUMPDEST DUP1 PUSH1 0x9 PUSH0 PUSH2 0x100 EXP DUP2 SLOAD DUP2 PUSH20 0xFFFFFFFFFFFFFFFFFFFFFFFFFFFFFFFFFFFFFFFF MUL NOT AND SWAP1 DUP4 PUSH20 0xFFFFFFFFFFFFFFFFFFFFFFFFFFFFFFFFFFFFFFFF AND MUL OR SWAP1 SSTORE POP PUSH32 0xD1A6A14209A385A964D036E404CB5CFB71F4000CDB03C9366292430787261BE6 DUP2 PUSH1 0x40 MLOAD PUSH2 0x1295 SWAP2 SWAP1 PUSH2 0x2F90 JUMP JUMPDEST PUSH1 0x40 MLOAD DUP1 SWAP2 SUB SWAP1 LOG1 POP JUMP JUMPDEST PUSH1 0x60 PUSH1 0x1 DUP1 SLOAD PUSH2 0x12AF SWAP1 PUSH2 0x360A JUMP JUMPDEST DUP1 PUSH1 0x1F ADD PUSH1 0x20 DUP1 SWAP2 DIV MUL PUSH1 0x20 ADD PUSH1 0x40 MLOAD SWAP1 DUP2 ADD PUSH1 0x40 MSTORE DUP1 SWAP3 SWAP2 SWAP1 DUP2 DUP2 MSTORE PUSH1 0x20 ADD DUP3 DUP1 SLOAD PUSH2 0x12DB SWAP1 PUSH2 0x360A JUMP JUMPDEST DUP1 ISZERO PUSH2 0x1326 JUMPI DUP1 PUSH1 0x1F LT PUSH2 0x12FD JUMPI PUSH2 0x100 DUP1 DUP4 SLOAD DIV MUL DUP4 MSTORE SWAP2 PUSH1 0x20 ADD SWAP2 PUSH2 0x1326 JUMP JUMPDEST DUP3 ADD SWAP2 SWAP1 PUSH0 MSTORE PUSH1 0x20 PUSH0 KECCAK256 SWAP1 JUMPDEST DUP2 SLOAD DUP2 MSTORE SWAP1 PUSH1 0x1 ADD SWAP1 PUSH1 0x20 ADD DUP1 DUP4 GT PUSH2 0x1309 JUMPI DUP3 SWAP1 SUB PUSH1 0x1F AND DUP3 ADD SWAP2 JUMPDEST POP POP POP POP POP SWAP1 POP SWAP1 JUMP JUMPDEST PUSH1 0xA DUP1 PUSH0 ADD SLOAD SWAP1 POP DUP2 JUMP JUMPDEST PUSH1 0x9 PUSH0 SWAP1 SLOAD SWAP1 PUSH2 0x100 EXP SWAP1 DIV PUSH20 0xFFFFFFFFFFFFFFFFFFFFFFFFFFFFFFFFFFFFFFFF AND DUP2 JUMP JUMPDEST PUSH1 0xB PUSH1 0x20 MSTORE DUP1 PUSH0 MSTORE PUSH1 0x40 PUSH0 KECCAK256 PUSH0 SWAP2 POP SWAP1 POP DUP1 PUSH0 ADD PUSH0 SWAP1 SLOAD SWAP1 PUSH2 0x100 EXP SWAP1 DIV PUSH1 0xFF AND SWAP1 DUP1 PUSH0 ADD PUSH1 0x1 SWAP1 SLOAD SWAP1 PUSH2 0x100 EXP SWAP1 DIV PUSH1 0xFF AND SWAP1 POP DUP3 JUMP JUMPDEST PUSH2 0x13AA PUSH2 0x13A3 PUSH2 0x195D JUMP JUMPDEST DUP4 DUP4 PUSH2 0x22FC JUMP JUMPDEST POP POP JUMP JUMPDEST PUSH1 0x10 PUSH1 0x4 SWAP1 SLOAD SWAP1 PUSH2 0x100 EXP SWAP1 DIV PUSH2 0xFFFF AND DUP2 JUMP JUMPDEST PUSH2 0x13D3 PUSH2 0x13CD PUSH2 0x195D JUMP JUMPDEST DUP4 PUSH2 0x1C65 JUMP JUMPDEST PUSH2 0x1412 JUMPI PUSH1 0x40 MLOAD PUSH32 0x8C379A000000000000000000000000000000000000000000000000000000000 DUP2 MSTORE PUSH1 0x4 ADD PUSH2 0x1409 SWAP1 PUSH2 0x387B JUMP JUMPDEST PUSH1 0x40 MLOAD DUP1 SWAP2 SUB SWAP1 REVERT JUMPDEST PUSH2 0x141E DUP5 DUP5 DUP5 DUP5 PUSH2 0x2463 JUMP JUMPDEST POP POP POP POP JUMP JUMPDEST PUSH0 PUSH1 0x9 PUSH0 SWAP1 SLOAD SWAP1 PUSH2 0x100 EXP SWAP1 DIV PUSH20 0xFFFFFFFFFFFFFFFFFFFFFFFFFFFFFFFFFFFFFFFF AND PUSH20 0xFFFFFFFFFFFFFFFFFFFFFFFFFFFFFFFFFFFFFFFF AND PUSH4 0x9B1C385E PUSH1 0x40 MLOAD DUP1 PUSH1 0xC0 ADD PUSH1 0x40 MSTORE DUP1 PUSH1 0xF SLOAD DUP2 MSTORE PUSH1 0x20 ADD PUSH1 0xC SLOAD DUP2 MSTORE PUSH1 0x20 ADD PUSH1 0x10 PUSH1 0x4 SWAP1 SLOAD SWAP1 PUSH2 0x100 EXP SWAP1 DIV PUSH2 0xFFFF AND PUSH2 0xFFFF AND DUP2 MSTORE PUSH1 0x20 ADD PUSH1 0x10 PUSH0 SWAP1 SLOAD SWAP1 PUSH2 0x100 EXP SWAP1 DIV PUSH4 0xFFFFFFFF AND PUSH4 0xFFFFFFFF AND DUP2 MSTORE PUSH1 0x20 ADD PUSH1 0x10 PUSH1 0x6 SWAP1 SLOAD SWAP1 PUSH2 0x100 EXP SWAP1 DIV PUSH4 0xFFFFFFFF AND PUSH4 0xFFFFFFFF AND DUP2 MSTORE PUSH1 0x20 ADD PUSH2 0x14EB PUSH1 0x40 MLOAD DUP1 PUSH1 0x20 ADD PUSH1 0x40 MSTORE DUP1 PUSH0 ISZERO ISZERO DUP2 MSTORE POP PUSH2 0x24BF JUMP JUMPDEST DUP2 MSTORE POP PUSH1 0x40 MLOAD DUP3 PUSH4 0xFFFFFFFF AND PUSH1 0xE0 SHL DUP2 MSTORE PUSH1 0x4 ADD PUSH2 0x150A SWAP2 SWAP1 PUSH2 0x4285 JUMP JUMPDEST PUSH1 0x20 PUSH1 0x40 MLOAD DUP1 DUP4 SUB DUP2 PUSH0 DUP8 GAS CALL ISZERO DUP1 ISZERO PUSH2 0x1526 JUMPI RETURNDATASIZE PUSH0 PUSH0 RETURNDATACOPY RETURNDATASIZE PUSH0 REVERT JUMPDEST POP POP POP POP PUSH1 0x40 MLOAD RETURNDATASIZE PUSH1 0x1F NOT PUSH1 0x1F DUP3 ADD AND DUP3 ADD DUP1 PUSH1 0x40 MSTORE POP DUP2 ADD SWAP1 PUSH2 0x154A SWAP2 SWAP1 PUSH2 0x42B9 JUMP JUMPDEST SWAP1 POP PUSH1 0x40 MLOAD DUP1 PUSH1 0x60 ADD PUSH1 0x40 MSTORE DUP1 PUSH0 ISZERO ISZERO DUP2 MSTORE PUSH1 0x20 ADD PUSH1 0x1 ISZERO ISZERO DUP2 MSTORE PUSH1 0x20 ADD PUSH0 PUSH8 0xFFFFFFFFFFFFFFFF DUP2 GT ISZERO PUSH2 0x1582 JUMPI PUSH2 0x1581 PUSH2 0x3316 JUMP JUMPDEST JUMPDEST PUSH1 0x40 MLOAD SWAP1 DUP1 DUP3 MSTORE DUP1 PUSH1 0x20 MUL PUSH1 0x20 ADD DUP3 ADD PUSH1 0x40 MSTORE DUP1 ISZERO PUSH2 0x15B0 JUMPI DUP2 PUSH1 0x20 ADD PUSH1 0x20 DUP3 MUL DUP1 CALLDATASIZE DUP4 CALLDATACOPY DUP1 DUP3 ADD SWAP2 POP POP SWAP1 POP JUMPDEST POP DUP2 MSTORE POP PUSH1 0xB PUSH0 DUP4 DUP2 MSTORE PUSH1 0x20 ADD SWAP1 DUP2 MSTORE PUSH1 0x20 ADD PUSH0 KECCAK256 PUSH0 DUP3 ADD MLOAD DUP2 PUSH0 ADD PUSH0 PUSH2 0x100 EXP DUP2 SLOAD DUP2 PUSH1 0xFF MUL NOT AND SWAP1 DUP4 ISZERO ISZERO MUL OR SWAP1 SSTORE POP PUSH1 0x20 DUP3 ADD MLOAD DUP2 PUSH0 ADD PUSH1 0x1 PUSH2 0x100 EXP DUP2 SLOAD DUP2 PUSH1 0xFF MUL NOT AND SWAP1 DUP4 ISZERO ISZERO MUL OR SWAP1 SSTORE POP PUSH1 0x40 DUP3 ADD MLOAD DUP2 PUSH1 0x1 ADD SWAP1 DUP1 MLOAD SWAP1 PUSH1 0x20 ADD SWAP1 PUSH2 0x161D SWAP3 SWAP2 SWAP1 PUSH2 0x2CEE JUMP JUMPDEST POP SWAP1 POP POP PUSH1 0xD DUP2 SWAP1 DUP1 PUSH1 0x1 DUP2 SLOAD ADD DUP1 DUP3 SSTORE DUP1 SWAP2 POP POP PUSH1 0x1 SWAP1 SUB SWAP1 PUSH0 MSTORE PUSH1 0x20 PUSH0 KECCAK256 ADD PUSH0 SWAP1 SWAP2 SWAP1 SWAP2 SWAP1 SWAP2 POP SSTORE DUP1 PUSH1 0xE DUP2 SWAP1 SSTORE POP PUSH32 0xCC58B13AD3EAB50626C6A6300B1D139CD6EBB1688A7CCED9461C2F7E762665EE DUP2 PUSH1 0x10 PUSH1 0x6 SWAP1 SLOAD SWAP1 PUSH2 0x100 EXP SWAP1 DIV PUSH4 0xFFFFFFFF AND PUSH1 0x40 MLOAD PUSH2 0x1691 SWAP3 SWAP2 SWAP1 PUSH2 0x42E4 JUMP JUMPDEST PUSH1 0x40 MLOAD DUP1 SWAP2 SUB SWAP1 LOG1 DUP2 PUSH1 0x14 PUSH0 DUP4 DUP2 MSTORE PUSH1 0x20 ADD SWAP1 DUP2 MSTORE PUSH1 0x20 ADD PUSH0 KECCAK256 DUP2 SWAP1 SSTORE POP SWAP2 SWAP1 POP JUMP JUMPDEST PUSH1 0x60 PUSH2 0x16BF DUP3 PUSH2 0x2557 JUMP JUMPDEST SWAP1 POP SWAP2 SWAP1 POP JUMP JUMPDEST PUSH0 PUSH1 0x60 PUSH1 0xB PUSH0 DUP5 DUP2 MSTORE PUSH1 0x20 ADD SWAP1 DUP2 MSTORE PUSH1 0x20 ADD PUSH0 KECCAK256 PUSH0 ADD PUSH1 0x1 SWAP1 SLOAD SWAP1 PUSH2 0x100 EXP SWAP1 DIV PUSH1 0xFF AND PUSH2 0x1729 JUMPI PUSH1 0x40 MLOAD PUSH32 0x8C379A000000000000000000000000000000000000000000000000000000000 DUP2 MSTORE PUSH1 0x4 ADD PUSH2 0x1720 SWAP1 PUSH2 0x4355 JUMP JUMPDEST PUSH1 0x40 MLOAD DUP1 SWAP2 SUB SWAP1 REVERT JUMPDEST PUSH0 PUSH1 0xB PUSH0 DUP6 DUP2 MSTORE PUSH1 0x20 ADD SWAP1 DUP2 MSTORE PUSH1 0x20 ADD PUSH0 KECCAK256 PUSH1 0x40 MLOAD DUP1 PUSH1 0x60 ADD PUSH1 0x40 MSTORE SWAP1 DUP2 PUSH0 DUP3 ADD PUSH0 SWAP1 SLOAD SWAP1 PUSH2 0x100 EXP SWAP1 DIV PUSH1 0xFF AND ISZERO ISZERO ISZERO ISZERO DUP2 MSTORE PUSH1 0x20 ADD PUSH0 DUP3 ADD PUSH1 0x1 SWAP1 SLOAD SWAP1 PUSH2 0x100 EXP SWAP1 DIV PUSH1 0xFF AND ISZERO ISZERO ISZERO ISZERO DUP2 MSTORE PUSH1 0x20 ADD PUSH1 0x1 DUP3 ADD DUP1 SLOAD DUP1 PUSH1 0x20 MUL PUSH1 0x20 ADD PUSH1 0x40 MLOAD SWAP1 DUP2 ADD PUSH1 0x40 MSTORE DUP1 SWAP3 SWAP2 SWAP1 DUP2 DUP2 MSTORE PUSH1 0x20 ADD DUP3 DUP1 SLOAD DUP1 ISZERO PUSH2 0x17C6 JUMPI PUSH1 0x20 MUL DUP3 ADD SWAP2 SWAP1 PUSH0 MSTORE PUSH1 0x20 PUSH0 KECCAK256 SWAP1 JUMPDEST DUP2 SLOAD DUP2 MSTORE PUSH1 0x20 ADD SWAP1 PUSH1 0x1 ADD SWAP1 DUP1 DUP4 GT PUSH2 0x17B2 JUMPI JUMPDEST POP POP POP POP POP DUP2 MSTORE POP POP SWAP1 POP DUP1 PUSH0 ADD MLOAD DUP2 PUSH1 0x40 ADD MLOAD SWAP3 POP SWAP3 POP POP SWAP2 POP SWAP2 JUMP JUMPDEST PUSH0 PUSH1 0x5 PUSH0 DUP5 PUSH20 0xFFFFFFFFFFFFFFFFFFFFFFFFFFFFFFFFFFFFFFFF AND PUSH20 0xFFFFFFFFFFFFFFFFFFFFFFFFFFFFFFFFFFFFFFFF AND DUP2 MSTORE PUSH1 0x20 ADD SWAP1 DUP2 MSTORE PUSH1 0x20 ADD PUSH0 KECCAK256 PUSH0 DUP4 PUSH20 0xFFFFFFFFFFFFFFFFFFFFFFFFFFFFFFFFFFFFFFFF AND PUSH20 0xFFFFFFFFFFFFFFFFFFFFFFFFFFFFFFFFFFFFFFFF AND DUP2 MSTORE PUSH1 0x20 ADD SWAP1 DUP2 MSTORE PUSH1 0x20 ADD PUSH0 KECCAK256 PUSH0 SWAP1 SLOAD SWAP1 PUSH2 0x100 EXP SWAP1 DIV PUSH1 0xFF AND SWAP1 POP SWAP3 SWAP2 POP POP JUMP JUMPDEST PUSH2 0x187A PUSH2 0x26A0 JUMP JUMPDEST PUSH2 0x1883 DUP2 PUSH2 0x2731 JUMP JUMPDEST POP JUMP JUMPDEST PUSH1 0xE SLOAD DUP2 JUMP JUMPDEST PUSH0 PUSH32 0x1FFC9A700000000000000000000000000000000000000000000000000000000 PUSH28 0xFFFFFFFFFFFFFFFFFFFFFFFFFFFFFFFFFFFFFFFFFFFFFFFFFFFFFFFF NOT AND DUP3 PUSH28 0xFFFFFFFFFFFFFFFFFFFFFFFFFFFFFFFFFFFFFFFFFFFFFFFFFFFFFFFF NOT AND EQ SWAP1 POP SWAP2 SWAP1 POP JUMP JUMPDEST PUSH0 PUSH0 PUSH20 0xFFFFFFFFFFFFFFFFFFFFFFFFFFFFFFFFFFFFFFFF AND PUSH1 0x2 PUSH0 DUP5 DUP2 MSTORE PUSH1 0x20 ADD SWAP1 DUP2 MSTORE PUSH1 0x20 ADD PUSH0 KECCAK256 PUSH0 SWAP1 SLOAD SWAP1 PUSH2 0x100 EXP SWAP1 DIV PUSH20 0xFFFFFFFFFFFFFFFFFFFFFFFFFFFFFFFFFFFFFFFF AND PUSH20 0xFFFFFFFFFFFFFFFFFFFFFFFFFFFFFFFFFFFFFFFF AND EQ ISZERO SWAP1 POP SWAP2 SWAP1 POP JUMP JUMPDEST PUSH0 CALLER SWAP1 POP SWAP1 JUMP JUMPDEST DUP2 PUSH1 0x4 PUSH0 DUP4 DUP2 MSTORE PUSH1 0x20 ADD SWAP1 DUP2 MSTORE PUSH1 0x20 ADD PUSH0 KECCAK256 PUSH0 PUSH2 0x100 EXP DUP2 SLOAD DUP2 PUSH20 0xFFFFFFFFFFFFFFFFFFFFFFFFFFFFFFFFFFFFFFFF MUL NOT AND SWAP1 DUP4 PUSH20 0xFFFFFFFFFFFFFFFFFFFFFFFFFFFFFFFFFFFFFFFF AND MUL OR SWAP1 SSTORE POP DUP1 DUP3 PUSH20 0xFFFFFFFFFFFFFFFFFFFFFFFFFFFFFFFFFFFFFFFF AND PUSH2 0x19D4 DUP4 PUSH2 0xD6E JUMP JUMPDEST PUSH20 0xFFFFFFFFFFFFFFFFFFFFFFFFFFFFFFFFFFFFFFFF AND PUSH32 0x8C5BE1E5EBEC7D5BD14F71427D1E84F3DD0314C0F7B2291E5B200AC8C7C3B925 PUSH1 0x40 MLOAD PUSH1 0x40 MLOAD DUP1 SWAP2 SUB SWAP1 LOG4 POP POP JUMP JUMPDEST PUSH1 0xB PUSH0 DUP5 DUP2 MSTORE PUSH1 0x20 ADD SWAP1 DUP2 MSTORE PUSH1 0x20 ADD PUSH0 KECCAK256 PUSH0 ADD PUSH1 0x1 SWAP1 SLOAD SWAP1 PUSH2 0x100 EXP SWAP1 DIV PUSH1 0xFF AND PUSH2 0x1A7A JUMPI PUSH1 0x40 MLOAD PUSH32 0x8C379A000000000000000000000000000000000000000000000000000000000 DUP2 MSTORE PUSH1 0x4 ADD PUSH2 0x1A71 SWAP1 PUSH2 0x4355 JUMP JUMPDEST PUSH1 0x40 MLOAD DUP1 SWAP2 SUB SWAP1 REVERT JUMPDEST PUSH1 0x1 PUSH1 0xB PUSH0 DUP6 DUP2 MSTORE PUSH1 0x20 ADD SWAP1 DUP2 MSTORE PUSH1 0x20 ADD PUSH0 KECCAK256 PUSH0 ADD PUSH0 PUSH2 0x100 EXP DUP2 SLOAD DUP2 PUSH1 0xFF MUL NOT AND SWAP1 DUP4 ISZERO ISZERO MUL OR SWAP1 SSTORE POP DUP2 DUP2 PUSH1 0xB PUSH0 DUP7 DUP2 MSTORE PUSH1 0x20 ADD SWAP1 DUP2 MSTORE PUSH1 0x20 ADD PUSH0 KECCAK256 PUSH1 0x1 ADD SWAP2 SWAP1 PUSH2 0x1AC8 SWAP3 SWAP2 SWAP1 PUSH2 0x2D39 JUMP JUMPDEST POP PUSH32 0xFE2E2D779DBA245964D4E3EF9B994BE63856FD568BF7D3CA9E224755CB1BD54D DUP4 DUP4 DUP4 PUSH1 0x40 MLOAD PUSH2 0x1AFC SWAP4 SWAP3 SWAP2 SWAP1 PUSH2 0x43DB JUMP JUMPDEST PUSH1 0x40 MLOAD DUP1 SWAP2 SUB SWAP1 LOG1 PUSH0 PUSH1 0x1 PUSH1 0x64 DUP5 DUP5 PUSH0 DUP2 DUP2 LT PUSH2 0x1B1C JUMPI PUSH2 0x1B1B PUSH2 0x3899 JUMP JUMPDEST JUMPDEST SWAP1 POP PUSH1 0x20 MUL ADD CALLDATALOAD PUSH2 0x1B2D SWAP2 SWAP1 PUSH2 0x4438 JUMP JUMPDEST PUSH2 0x1B37 SWAP2 SWAP1 PUSH2 0x4495 JUMP JUMPDEST SWAP1 POP PUSH0 PUSH1 0x14 PUSH0 DUP7 DUP2 MSTORE PUSH1 0x20 ADD SWAP1 DUP2 MSTORE PUSH1 0x20 ADD PUSH0 KECCAK256 SLOAD SWAP1 POP DUP2 PUSH1 0x13 PUSH0 DUP4 DUP2 MSTORE PUSH1 0x20 ADD SWAP1 DUP2 MSTORE PUSH1 0x20 ADD PUSH0 KECCAK256 PUSH1 0x2 ADD PUSH0 DUP3 DUP3 SLOAD PUSH2 0x1B71 SWAP2 SWAP1 PUSH2 0x4495 JUMP JUMPDEST SWAP3 POP POP DUP2 SWAP1 SSTORE POP PUSH1 0x13 PUSH0 DUP3 DUP2 MSTORE PUSH1 0x20 ADD SWAP1 DUP2 MSTORE PUSH1 0x20 ADD PUSH0 KECCAK256 PUSH1 0x3 ADD PUSH0 DUP2 SLOAD DUP1 SWAP3 SWAP2 SWAP1 PUSH2 0x1B9C SWAP1 PUSH2 0x44C8 JUMP JUMPDEST SWAP2 SWAP1 POP SSTORE POP PUSH0 PUSH2 0x1C2D PUSH1 0x13 PUSH0 DUP5 DUP2 MSTORE PUSH1 0x20 ADD SWAP1 DUP2 MSTORE PUSH1 0x20 ADD PUSH0 KECCAK256 PUSH0 ADD PUSH1 0x13 PUSH0 DUP6 DUP2 MSTORE PUSH1 0x20 ADD SWAP1 DUP2 MSTORE PUSH1 0x20 ADD PUSH0 KECCAK256 PUSH1 0x1 ADD PUSH2 0x1BE9 PUSH1 0x13 PUSH0 DUP8 DUP2 MSTORE PUSH1 0x20 ADD SWAP1 DUP2 MSTORE PUSH1 0x20 ADD PUSH0 KECCAK256 PUSH1 0x2 ADD SLOAD PUSH2 0x1FBC JUMP JUMPDEST PUSH2 0x1C06 PUSH1 0x13 PUSH0 DUP9 DUP2 MSTORE PUSH1 0x20 ADD SWAP1 DUP2 MSTORE PUSH1 0x20 ADD PUSH0 KECCAK256 PUSH1 0x3 ADD SLOAD PUSH2 0x1FBC JUMP JUMPDEST PUSH1 0x40 MLOAD PUSH1 0x20 ADD PUSH2 0x1C19 SWAP5 SWAP4 SWAP3 SWAP2 SWAP1 PUSH2 0x3EA6 JUMP JUMPDEST PUSH1 0x40 MLOAD PUSH1 0x20 DUP2 DUP4 SUB SUB DUP2 MSTORE SWAP1 PUSH1 0x40 MSTORE PUSH2 0x2115 JUMP JUMPDEST SWAP1 POP PUSH0 DUP2 PUSH1 0x40 MLOAD PUSH1 0x20 ADD PUSH2 0x1C41 SWAP2 SWAP1 PUSH2 0x3FA6 JUMP JUMPDEST PUSH1 0x40 MLOAD PUSH1 0x20 DUP2 DUP4 SUB SUB DUP2 MSTORE SWAP1 PUSH1 0x40 MSTORE SWAP1 POP PUSH2 0x1C5C DUP4 DUP3 PUSH2 0x2291 JUMP JUMPDEST POP POP POP POP POP POP POP JUMP JUMPDEST PUSH0 PUSH2 0x1C6F DUP3 PUSH2 0x18F5 JUMP JUMPDEST PUSH2 0x1CAE JUMPI PUSH1 0x40 MLOAD PUSH32 0x8C379A000000000000000000000000000000000000000000000000000000000 DUP2 MSTORE PUSH1 0x4 ADD PUSH2 0x1CA5 SWAP1 PUSH2 0x457F JUMP JUMPDEST PUSH1 0x40 MLOAD DUP1 SWAP2 SUB SWAP1 REVERT JUMPDEST PUSH0 PUSH2 0x1CB8 DUP4 PUSH2 0xD6E JUMP JUMPDEST SWAP1 POP DUP1 PUSH20 0xFFFFFFFFFFFFFFFFFFFFFFFFFFFFFFFFFFFFFFFF AND DUP5 PUSH20 0xFFFFFFFFFFFFFFFFFFFFFFFFFFFFFFFFFFFFFFFF AND EQ DUP1 PUSH2 0x1CFA JUMPI POP PUSH2 0x1CF9 DUP2 DUP6 PUSH2 0x17E4 JUMP JUMPDEST JUMPDEST DUP1 PUSH2 0x1D38 JUMPI POP DUP4 PUSH20 0xFFFFFFFFFFFFFFFFFFFFFFFFFFFFFFFFFFFFFFFF AND PUSH2 0x1D20 DUP5 PUSH2 0x789 JUMP JUMPDEST PUSH20 0xFFFFFFFFFFFFFFFFFFFFFFFFFFFFFFFFFFFFFFFF AND EQ JUMPDEST SWAP2 POP POP SWAP3 SWAP2 POP POP JUMP JUMPDEST DUP3 PUSH20 0xFFFFFFFFFFFFFFFFFFFFFFFFFFFFFFFFFFFFFFFF AND PUSH2 0x1D61 DUP3 PUSH2 0xD6E JUMP JUMPDEST PUSH20 0xFFFFFFFFFFFFFFFFFFFFFFFFFFFFFFFFFFFFFFFF AND EQ PUSH2 0x1DB7 JUMPI PUSH1 0x40 MLOAD PUSH32 0x8C379A000000000000000000000000000000000000000000000000000000000 DUP2 MSTORE PUSH1 0x4 ADD PUSH2 0x1DAE SWAP1 PUSH2 0x460D JUMP JUMPDEST PUSH1 0x40 MLOAD DUP1 SWAP2 SUB SWAP1 REVERT JUMPDEST PUSH0 PUSH20 0xFFFFFFFFFFFFFFFFFFFFFFFFFFFFFFFFFFFFFFFF AND DUP3 PUSH20 0xFFFFFFFFFFFFFFFFFFFFFFFFFFFFFFFFFFFFFFFF AND SUB PUSH2 0x1E25 JUMPI PUSH1 0x40 MLOAD PUSH32 0x8C379A000000000000000000000000000000000000000000000000000000000 DUP2 MSTORE PUSH1 0x4 ADD PUSH2 0x1E1C SWAP1 PUSH2 0x469B JUMP JUMPDEST PUSH1 0x40 MLOAD DUP1 SWAP2 SUB SWAP1 REVERT JUMPDEST PUSH2 0x1E30 DUP4 DUP4 DUP4 PUSH2 0x285D JUMP JUMPDEST PUSH2 0x1E3A PUSH0 DUP3 PUSH2 0x1964 JUMP JUMPDEST PUSH1 0x1 PUSH1 0x3 PUSH0 DUP6 PUSH20 0xFFFFFFFFFFFFFFFFFFFFFFFFFFFFFFFFFFFFFFFF AND PUSH20 0xFFFFFFFFFFFFFFFFFFFFFFFFFFFFFFFFFFFFFFFF AND DUP2 MSTORE PUSH1 0x20 ADD SWAP1 DUP2 MSTORE PUSH1 0x20 ADD PUSH0 KECCAK256 PUSH0 DUP3 DUP3 SLOAD PUSH2 0x1E87 SWAP2 SWAP1 PUSH2 0x46B9 JUMP JUMPDEST SWAP3 POP POP DUP2 SWAP1 SSTORE POP PUSH1 0x1 PUSH1 0x3 PUSH0 DUP5 PUSH20 0xFFFFFFFFFFFFFFFFFFFFFFFFFFFFFFFFFFFFFFFF AND PUSH20 0xFFFFFFFFFFFFFFFFFFFFFFFFFFFFFFFFFFFFFFFF AND DUP2 MSTORE PUSH1 0x20 ADD SWAP1 DUP2 MSTORE PUSH1 0x20 ADD PUSH0 KECCAK256 PUSH0 DUP3 DUP3 SLOAD PUSH2 0x1EDB SWAP2 SWAP1 PUSH2 0x4495 JUMP JUMPDEST SWAP3 POP POP DUP2 SWAP1 SSTORE POP DUP2 PUSH1 0x2 PUSH0 DUP4 DUP2 MSTORE PUSH1 0x20 ADD SWAP1 DUP2 MSTORE PUSH1 0x20 ADD PUSH0 KECCAK256 PUSH0 PUSH2 0x100 EXP DUP2 SLOAD DUP2 PUSH20 0xFFFFFFFFFFFFFFFFFFFFFFFFFFFFFFFFFFFFFFFF MUL NOT AND SWAP1 DUP4 PUSH20 0xFFFFFFFFFFFFFFFFFFFFFFFFFFFFFFFFFFFFFFFF AND MUL OR SWAP1 SSTORE POP DUP1 DUP3 PUSH20 0xFFFFFFFFFFFFFFFFFFFFFFFFFFFFFFFFFFFFFFFF AND DUP5 PUSH20 0xFFFFFFFFFFFFFFFFFFFFFFFFFFFFFFFFFFFFFFFF AND PUSH32 0xDDF252AD1BE2C89B69C2B068FC378DAA952BA7F163C4A11628F55A4DF523B3EF PUSH1 0x40 MLOAD PUSH1 0x40 MLOAD DUP1 SWAP2 SUB SWAP1 LOG4 PUSH2 0x1F97 DUP4 DUP4 DUP4 PUSH2 0x2862 JUMP JUMPDEST POP POP POP JUMP JUMPDEST PUSH0 DUP2 PUSH0 ADD SLOAD SWAP1 POP SWAP2 SWAP1 POP JUMP JUMPDEST PUSH1 0x1 DUP2 PUSH0 ADD PUSH0 DUP3 DUP3 SLOAD ADD SWAP3 POP POP DUP2 SWAP1 SSTORE POP POP JUMP JUMPDEST PUSH1 0x60 PUSH0 DUP3 SUB PUSH2 0x2002 JUMPI PUSH1 0x40 MLOAD DUP1 PUSH1 0x40 ADD PUSH1 0x40 MSTORE DUP1 PUSH1 0x1 DUP2 MSTORE PUSH1 0x20 ADD PUSH32 0x3000000000000000000000000000000000000000000000000000000000000000 DUP2 MSTORE POP SWAP1 POP PUSH2 0x2110 JUMP JUMPDEST PUSH0 DUP3 SWAP1 POP PUSH0 JUMPDEST PUSH0 DUP3 EQ PUSH2 0x2031 JUMPI DUP1 DUP1 PUSH2 0x201A SWAP1 PUSH2 0x44C8 JUMP JUMPDEST SWAP2 POP POP PUSH1 0xA DUP3 PUSH2 0x202A SWAP2 SWAP1 PUSH2 0x46EC JUMP JUMPDEST SWAP2 POP PUSH2 0x2008 JUMP JUMPDEST PUSH0 DUP2 PUSH8 0xFFFFFFFFFFFFFFFF DUP2 GT ISZERO PUSH2 0x204C JUMPI PUSH2 0x204B PUSH2 0x3316 JUMP JUMPDEST JUMPDEST PUSH1 0x40 MLOAD SWAP1 DUP1 DUP3 MSTORE DUP1 PUSH1 0x1F ADD PUSH1 0x1F NOT AND PUSH1 0x20 ADD DUP3 ADD PUSH1 0x40 MSTORE DUP1 ISZERO PUSH2 0x207E JUMPI DUP2 PUSH1 0x20 ADD PUSH1 0x1 DUP3 MUL DUP1 CALLDATASIZE DUP4 CALLDATACOPY DUP1 DUP3 ADD SWAP2 POP POP SWAP1 POP JUMPDEST POP SWAP1 POP JUMPDEST PUSH0 DUP6 EQ PUSH2 0x2109 JUMPI PUSH1 0x1 DUP3 PUSH2 0x2096 SWAP2 SWAP1 PUSH2 0x46B9 JUMP JUMPDEST SWAP2 POP PUSH1 0xA DUP6 PUSH2 0x20A5 SWAP2 SWAP1 PUSH2 0x4438 JUMP JUMPDEST PUSH1 0x30 PUSH2 0x20B1 SWAP2 SWAP1 PUSH2 0x4495 JUMP JUMPDEST PUSH1 0xF8 SHL DUP2 DUP4 DUP2 MLOAD DUP2 LT PUSH2 0x20C7 JUMPI PUSH2 0x20C6 PUSH2 0x3899 JUMP JUMPDEST JUMPDEST PUSH1 0x20 ADD ADD SWAP1 PUSH31 0xFFFFFFFFFFFFFFFFFFFFFFFFFFFFFFFFFFFFFFFFFFFFFFFFFFFFFFFFFFFFFF NOT AND SWAP1 DUP2 PUSH0 BYTE SWAP1 MSTORE8 POP PUSH1 0xA DUP6 PUSH2 0x2102 SWAP2 SWAP1 PUSH2 0x46EC JUMP JUMPDEST SWAP5 POP PUSH2 0x2082 JUMP JUMPDEST DUP1 SWAP4 POP POP POP POP JUMPDEST SWAP2 SWAP1 POP JUMP JUMPDEST PUSH1 0x60 PUSH0 DUP3 MLOAD SUB PUSH2 0x2135 JUMPI PUSH1 0x40 MLOAD DUP1 PUSH1 0x20 ADD PUSH1 0x40 MSTORE DUP1 PUSH0 DUP2 MSTORE POP SWAP1 POP PUSH2 0x226F JUMP JUMPDEST PUSH0 PUSH1 0x40 MLOAD DUP1 PUSH1 0x60 ADD PUSH1 0x40 MSTORE DUP1 PUSH1 0x40 DUP2 MSTORE PUSH1 0x20 ADD PUSH2 0x4CD4 PUSH1 0x40 SWAP2 CODECOPY SWAP1 POP PUSH0 PUSH1 0x3 PUSH1 0x2 DUP6 MLOAD PUSH2 0x2162 SWAP2 SWAP1 PUSH2 0x4495 JUMP JUMPDEST PUSH2 0x216C SWAP2 SWAP1 PUSH2 0x46EC JUMP JUMPDEST PUSH1 0x4 PUSH2 0x2178 SWAP2 SWAP1 PUSH2 0x471C JUMP JUMPDEST PUSH8 0xFFFFFFFFFFFFFFFF DUP2 GT ISZERO PUSH2 0x2191 JUMPI PUSH2 0x2190 PUSH2 0x3316 JUMP JUMPDEST JUMPDEST PUSH1 0x40 MLOAD SWAP1 DUP1 DUP3 MSTORE DUP1 PUSH1 0x1F ADD PUSH1 0x1F NOT AND PUSH1 0x20 ADD DUP3 ADD PUSH1 0x40 MSTORE DUP1 ISZERO PUSH2 0x21C3 JUMPI DUP2 PUSH1 0x20 ADD PUSH1 0x1 DUP3 MUL DUP1 CALLDATASIZE DUP4 CALLDATACOPY DUP1 DUP3 ADD SWAP2 POP POP SWAP1 POP JUMPDEST POP SWAP1 POP PUSH1 0x1 DUP3 ADD PUSH1 0x20 DUP3 ADD DUP6 DUP7 MLOAD DUP8 ADD JUMPDEST DUP1 DUP3 LT ISZERO PUSH2 0x222F JUMPI PUSH1 0x3 DUP3 ADD SWAP2 POP DUP2 MLOAD PUSH1 0x3F DUP2 PUSH1 0x12 SHR AND DUP6 ADD MLOAD DUP5 MSTORE8 PUSH1 0x1 DUP5 ADD SWAP4 POP PUSH1 0x3F DUP2 PUSH1 0xC SHR AND DUP6 ADD MLOAD DUP5 MSTORE8 PUSH1 0x1 DUP5 ADD SWAP4 POP PUSH1 0x3F DUP2 PUSH1 0x6 SHR AND DUP6 ADD MLOAD DUP5 MSTORE8 PUSH1 0x1 DUP5 ADD SWAP4 POP PUSH1 0x3F DUP2 AND DUP6 ADD MLOAD DUP5 MSTORE8 PUSH1 0x1 DUP5 ADD SWAP4 POP POP PUSH2 0x21D4 JUMP JUMPDEST POP POP PUSH1 0x3 DUP7 MLOAD MOD PUSH1 0x1 DUP2 EQ PUSH2 0x224B JUMPI PUSH1 0x2 DUP2 EQ PUSH2 0x225E JUMPI PUSH2 0x2266 JUMP JUMPDEST PUSH1 0x3D PUSH1 0x1 DUP4 SUB MSTORE8 PUSH1 0x3D PUSH1 0x2 DUP4 SUB MSTORE8 PUSH2 0x2266 JUMP JUMPDEST PUSH1 0x3D PUSH1 0x1 DUP4 SUB MSTORE8 JUMPDEST POP POP POP DUP1 SWAP3 POP POP POP JUMPDEST SWAP2 SWAP1 POP JUMP JUMPDEST PUSH2 0x228D DUP3 DUP3 PUSH1 0x40 MLOAD DUP1 PUSH1 0x20 ADD PUSH1 0x40 MSTORE DUP1 PUSH0 DUP2 MSTORE POP PUSH2 0x2867 JUMP JUMPDEST POP POP JUMP JUMPDEST PUSH2 0x229A DUP3 PUSH2 0x18F5 JUMP JUMPDEST PUSH2 0x22D9 JUMPI PUSH1 0x40 MLOAD PUSH32 0x8C379A000000000000000000000000000000000000000000000000000000000 DUP2 MSTORE PUSH1 0x4 ADD PUSH2 0x22D0 SWAP1 PUSH2 0x47CD JUMP JUMPDEST PUSH1 0x40 MLOAD DUP1 SWAP2 SUB SWAP1 REVERT JUMPDEST DUP1 PUSH1 0x6 PUSH0 DUP5 DUP2 MSTORE PUSH1 0x20 ADD SWAP1 DUP2 MSTORE PUSH1 0x20 ADD PUSH0 KECCAK256 SWAP1 DUP2 PUSH2 0x22F7 SWAP2 SWAP1 PUSH2 0x3A5D JUMP JUMPDEST POP POP POP JUMP JUMPDEST DUP2 PUSH20 0xFFFFFFFFFFFFFFFFFFFFFFFFFFFFFFFFFFFFFFFF AND DUP4 PUSH20 0xFFFFFFFFFFFFFFFFFFFFFFFFFFFFFFFFFFFFFFFF AND SUB PUSH2 0x236A JUMPI PUSH1 0x40 MLOAD PUSH32 0x8C379A000000000000000000000000000000000000000000000000000000000 DUP2 MSTORE PUSH1 0x4 ADD PUSH2 0x2361 SWAP1 PUSH2 0x4835 JUMP JUMPDEST PUSH1 0x40 MLOAD DUP1 SWAP2 SUB SWAP1 REVERT JUMPDEST DUP1 PUSH1 0x5 PUSH0 DUP6 PUSH20 0xFFFFFFFFFFFFFFFFFFFFFFFFFFFFFFFFFFFFFFFF AND PUSH20 0xFFFFFFFFFFFFFFFFFFFFFFFFFFFFFFFFFFFFFFFF AND DUP2 MSTORE PUSH1 0x20 ADD SWAP1 DUP2 MSTORE PUSH1 0x20 ADD PUSH0 KECCAK256 PUSH0 DUP5 PUSH20 0xFFFFFFFFFFFFFFFFFFFFFFFFFFFFFFFFFFFFFFFF AND PUSH20 0xFFFFFFFFFFFFFFFFFFFFFFFFFFFFFFFFFFFFFFFF AND DUP2 MSTORE PUSH1 0x20 ADD SWAP1 DUP2 MSTORE PUSH1 0x20 ADD PUSH0 KECCAK256 PUSH0 PUSH2 0x100 EXP DUP2 SLOAD DUP2 PUSH1 0xFF MUL NOT AND SWAP1 DUP4 ISZERO ISZERO MUL OR SWAP1 SSTORE POP DUP2 PUSH20 0xFFFFFFFFFFFFFFFFFFFFFFFFFFFFFFFFFFFFFFFF AND DUP4 PUSH20 0xFFFFFFFFFFFFFFFFFFFFFFFFFFFFFFFFFFFFFFFF AND PUSH32 0x17307EAB39AB6107E8899845AD3D59BD9653F200F220920489CA2B5937696C31 DUP4 PUSH1 0x40 MLOAD PUSH2 0x2456 SWAP2 SWAP1 PUSH2 0x2E4A JUMP JUMPDEST PUSH1 0x40 MLOAD DUP1 SWAP2 SUB SWAP1 LOG3 POP POP POP JUMP JUMPDEST PUSH2 0x246E DUP5 DUP5 DUP5 PUSH2 0x1D41 JUMP JUMPDEST PUSH2 0x247A DUP5 DUP5 DUP5 DUP5 PUSH2 0x28C1 JUMP JUMPDEST PUSH2 0x24B9 JUMPI PUSH1 0x40 MLOAD PUSH32 0x8C379A000000000000000000000000000000000000000000000000000000000 DUP2 MSTORE PUSH1 0x4 ADD PUSH2 0x24B0 SWAP1 PUSH2 0x48C3 JUMP JUMPDEST PUSH1 0x40 MLOAD DUP1 SWAP2 SUB SWAP1 REVERT JUMPDEST POP POP POP POP JUMP JUMPDEST PUSH1 0x60 PUSH32 0x92FD13387C7FE7BEFBC38D303D6468778FB9731BC4583F17D92989C6FCFDEAAA DUP3 PUSH1 0x40 MLOAD PUSH1 0x24 ADD PUSH2 0x24F3 SWAP2 SWAP1 PUSH2 0x490A JUMP JUMPDEST PUSH1 0x40 MLOAD PUSH1 0x20 DUP2 DUP4 SUB SUB DUP2 MSTORE SWAP1 PUSH1 0x40 MSTORE SWAP1 PUSH28 0xFFFFFFFFFFFFFFFFFFFFFFFFFFFFFFFFFFFFFFFFFFFFFFFFFFFFFFFF NOT AND PUSH1 0x20 DUP3 ADD DUP1 MLOAD PUSH28 0xFFFFFFFFFFFFFFFFFFFFFFFFFFFFFFFFFFFFFFFFFFFFFFFFFFFFFFFF DUP4 DUP2 DUP4 AND OR DUP4 MSTORE POP POP POP POP SWAP1 POP SWAP2 SWAP1 POP JUMP JUMPDEST PUSH1 0x60 PUSH2 0x2562 DUP3 PUSH2 0x18F5 JUMP JUMPDEST PUSH2 0x25A1 JUMPI PUSH1 0x40 MLOAD PUSH32 0x8C379A000000000000000000000000000000000000000000000000000000000 DUP2 MSTORE PUSH1 0x4 ADD PUSH2 0x2598 SWAP1 PUSH2 0x4993 JUMP JUMPDEST PUSH1 0x40 MLOAD DUP1 SWAP2 SUB SWAP1 REVERT JUMPDEST PUSH0 PUSH1 0x6 PUSH0 DUP5 DUP2 MSTORE PUSH1 0x20 ADD SWAP1 DUP2 MSTORE PUSH1 0x20 ADD PUSH0 KECCAK256 DUP1 SLOAD PUSH2 0x25BE SWAP1 PUSH2 0x360A JUMP JUMPDEST DUP1 PUSH1 0x1F ADD PUSH1 0x20 DUP1 SWAP2 DIV MUL PUSH1 0x20 ADD PUSH1 0x40 MLOAD SWAP1 DUP2 ADD PUSH1 0x40 MSTORE DUP1 SWAP3 SWAP2 SWAP1 DUP2 DUP2 MSTORE PUSH1 0x20 ADD DUP3 DUP1 SLOAD PUSH2 0x25EA SWAP1 PUSH2 0x360A JUMP JUMPDEST DUP1 ISZERO PUSH2 0x2635 JUMPI DUP1 PUSH1 0x1F LT PUSH2 0x260C JUMPI PUSH2 0x100 DUP1 DUP4 SLOAD DIV MUL DUP4 MSTORE SWAP2 PUSH1 0x20 ADD SWAP2 PUSH2 0x2635 JUMP JUMPDEST DUP3 ADD SWAP2 SWAP1 PUSH0 MSTORE PUSH1 0x20 PUSH0 KECCAK256 SWAP1 JUMPDEST DUP2 SLOAD DUP2 MSTORE SWAP1 PUSH1 0x1 ADD SWAP1 PUSH1 0x20 ADD DUP1 DUP4 GT PUSH2 0x2618 JUMPI DUP3 SWAP1 SUB PUSH1 0x1F AND DUP3 ADD SWAP2 JUMPDEST POP POP POP POP POP SWAP1 POP PUSH0 PUSH2 0x2645 PUSH2 0x2A43 JUMP JUMPDEST SWAP1 POP PUSH0 DUP2 MLOAD SUB PUSH2 0x2659 JUMPI DUP2 SWAP3 POP POP POP PUSH2 0x269B JUMP JUMPDEST PUSH0 DUP3 MLOAD GT ISZERO PUSH2 0x268D JUMPI DUP1 DUP3 PUSH1 0x40 MLOAD PUSH1 0x20 ADD PUSH2 0x2675 SWAP3 SWAP2 SWAP1 PUSH2 0x49B1 JUMP JUMPDEST PUSH1 0x40 MLOAD PUSH1 0x20 DUP2 DUP4 SUB SUB DUP2 MSTORE SWAP1 PUSH1 0x40 MSTORE SWAP3 POP POP POP PUSH2 0x269B JUMP JUMPDEST PUSH2 0x2696 DUP5 PUSH2 0x2A59 JUMP JUMPDEST SWAP3 POP POP POP JUMPDEST SWAP2 SWAP1 POP JUMP JUMPDEST PUSH1 0x7 PUSH0 SWAP1 SLOAD SWAP1 PUSH2 0x100 EXP SWAP1 DIV PUSH20 0xFFFFFFFFFFFFFFFFFFFFFFFFFFFFFFFFFFFFFFFF AND PUSH20 0xFFFFFFFFFFFFFFFFFFFFFFFFFFFFFFFFFFFFFFFF AND CALLER PUSH20 0xFFFFFFFFFFFFFFFFFFFFFFFFFFFFFFFFFFFFFFFF AND EQ PUSH2 0x272F JUMPI PUSH1 0x40 MLOAD PUSH32 0x8C379A000000000000000000000000000000000000000000000000000000000 DUP2 MSTORE PUSH1 0x4 ADD PUSH2 0x2726 SWAP1 PUSH2 0x4A1E JUMP JUMPDEST PUSH1 0x40 MLOAD DUP1 SWAP2 SUB SWAP1 REVERT JUMPDEST JUMP JUMPDEST CALLER PUSH20 0xFFFFFFFFFFFFFFFFFFFFFFFFFFFFFFFFFFFFFFFF AND DUP2 PUSH20 0xFFFFFFFFFFFFFFFFFFFFFFFFFFFFFFFFFFFFFFFF AND SUB PUSH2 0x279F JUMPI PUSH1 0x40 MLOAD PUSH32 0x8C379A000000000000000000000000000000000000000000000000000000000 DUP2 MSTORE PUSH1 0x4 ADD PUSH2 0x2796 SWAP1 PUSH2 0x4A86 JUMP JUMPDEST PUSH1 0x40 MLOAD DUP1 SWAP2 SUB SWAP1 REVERT JUMPDEST DUP1 PUSH1 0x8 PUSH0 PUSH2 0x100 EXP DUP2 SLOAD DUP2 PUSH20 0xFFFFFFFFFFFFFFFFFFFFFFFFFFFFFFFFFFFFFFFF MUL NOT AND SWAP1 DUP4 PUSH20 0xFFFFFFFFFFFFFFFFFFFFFFFFFFFFFFFFFFFFFFFF AND MUL OR SWAP1 SSTORE POP DUP1 PUSH20 0xFFFFFFFFFFFFFFFFFFFFFFFFFFFFFFFFFFFFFFFF AND PUSH1 0x7 PUSH0 SWAP1 SLOAD SWAP1 PUSH2 0x100 EXP SWAP1 DIV PUSH20 0xFFFFFFFFFFFFFFFFFFFFFFFFFFFFFFFFFFFFFFFF AND PUSH20 0xFFFFFFFFFFFFFFFFFFFFFFFFFFFFFFFFFFFFFFFF AND PUSH32 0xED8889F560326EB138920D842192F0EB3DD22B4F139C87A2C57538E05BAE1278 PUSH1 0x40 MLOAD PUSH1 0x40 MLOAD DUP1 SWAP2 SUB SWAP1 LOG3 POP JUMP JUMPDEST POP POP POP JUMP JUMPDEST POP POP POP JUMP JUMPDEST PUSH2 0x2871 DUP4 DUP4 PUSH2 0x2AFD JUMP JUMPDEST PUSH2 0x287D PUSH0 DUP5 DUP5 DUP5 PUSH2 0x28C1 JUMP JUMPDEST PUSH2 0x28BC JUMPI PUSH1 0x40 MLOAD PUSH32 0x8C379A000000000000000000000000000000000000000000000000000000000 DUP2 MSTORE PUSH1 0x4 ADD PUSH2 0x28B3 SWAP1 PUSH2 0x48C3 JUMP JUMPDEST PUSH1 0x40 MLOAD DUP1 SWAP2 SUB SWAP1 REVERT JUMPDEST POP POP POP JUMP JUMPDEST PUSH0 PUSH2 0x28E1 DUP5 PUSH20 0xFFFFFFFFFFFFFFFFFFFFFFFFFFFFFFFFFFFFFFFF AND PUSH2 0x2CCC JUMP JUMPDEST ISZERO PUSH2 0x2A36 JUMPI DUP4 PUSH20 0xFFFFFFFFFFFFFFFFFFFFFFFFFFFFFFFFFFFFFFFF AND PUSH4 0x150B7A02 PUSH2 0x290A PUSH2 0x195D JUMP JUMPDEST DUP8 DUP7 DUP7 PUSH1 0x40 MLOAD DUP6 PUSH4 0xFFFFFFFF AND PUSH1 0xE0 SHL DUP2 MSTORE PUSH1 0x4 ADD PUSH2 0x292C SWAP5 SWAP4 SWAP3 SWAP2 SWAP1 PUSH2 0x4AEC JUMP JUMPDEST PUSH1 0x20 PUSH1 0x40 MLOAD DUP1 DUP4 SUB DUP2 PUSH0 DUP8 GAS CALL SWAP3 POP POP POP DUP1 ISZERO PUSH2 0x2967 JUMPI POP PUSH1 0x40 MLOAD RETURNDATASIZE PUSH1 0x1F NOT PUSH1 0x1F DUP3 ADD AND DUP3 ADD DUP1 PUSH1 0x40 MSTORE POP DUP2 ADD SWAP1 PUSH2 0x2964 SWAP2 SWAP1 PUSH2 0x4B4A JUMP JUMPDEST PUSH1 0x1 JUMPDEST PUSH2 0x29E6 JUMPI RETURNDATASIZE DUP1 PUSH0 DUP2 EQ PUSH2 0x2995 JUMPI PUSH1 0x40 MLOAD SWAP2 POP PUSH1 0x1F NOT PUSH1 0x3F RETURNDATASIZE ADD AND DUP3 ADD PUSH1 0x40 MSTORE RETURNDATASIZE DUP3 MSTORE RETURNDATASIZE PUSH0 PUSH1 0x20 DUP5 ADD RETURNDATACOPY PUSH2 0x299A JUMP JUMPDEST PUSH1 0x60 SWAP2 POP JUMPDEST POP PUSH0 DUP2 MLOAD SUB PUSH2 0x29DE JUMPI PUSH1 0x40 MLOAD PUSH32 0x8C379A000000000000000000000000000000000000000000000000000000000 DUP2 MSTORE PUSH1 0x4 ADD PUSH2 0x29D5 SWAP1 PUSH2 0x48C3 JUMP JUMPDEST PUSH1 0x40 MLOAD DUP1 SWAP2 SUB SWAP1 REVERT JUMPDEST DUP1 MLOAD DUP2 PUSH1 0x20 ADD REVERT JUMPDEST PUSH4 0x150B7A02 PUSH1 0xE0 SHL PUSH28 0xFFFFFFFFFFFFFFFFFFFFFFFFFFFFFFFFFFFFFFFFFFFFFFFFFFFFFFFF NOT AND DUP2 PUSH28 0xFFFFFFFFFFFFFFFFFFFFFFFFFFFFFFFFFFFFFFFFFFFFFFFFFFFFFFFF NOT AND EQ SWAP2 POP POP PUSH2 0x2A3B JUMP JUMPDEST PUSH1 0x1 SWAP1 POP JUMPDEST SWAP5 SWAP4 POP POP POP POP JUMP JUMPDEST PUSH1 0x60 PUSH1 0x40 MLOAD DUP1 PUSH1 0x20 ADD PUSH1 0x40 MSTORE DUP1 PUSH0 DUP2 MSTORE POP SWAP1 POP SWAP1 JUMP JUMPDEST PUSH1 0x60 PUSH2 0x2A64 DUP3 PUSH2 0x18F5 JUMP JUMPDEST PUSH2 0x2AA3 JUMPI PUSH1 0x40 MLOAD PUSH32 0x8C379A000000000000000000000000000000000000000000000000000000000 DUP2 MSTORE PUSH1 0x4 ADD PUSH2 0x2A9A SWAP1 PUSH2 0x4BE5 JUMP JUMPDEST PUSH1 0x40 MLOAD DUP1 SWAP2 SUB SWAP1 REVERT JUMPDEST PUSH0 PUSH2 0x2AAC PUSH2 0x2A43 JUMP JUMPDEST SWAP1 POP PUSH0 DUP2 MLOAD GT PUSH2 0x2ACA JUMPI PUSH1 0x40 MLOAD DUP1 PUSH1 0x20 ADD PUSH1 0x40 MSTORE DUP1 PUSH0 DUP2 MSTORE POP PUSH2 0x2AF5 JUMP JUMPDEST DUP1 PUSH2 0x2AD4 DUP5 PUSH2 0x1FBC JUMP JUMPDEST PUSH1 0x40 MLOAD PUSH1 0x20 ADD PUSH2 0x2AE5 SWAP3 SWAP2 SWAP1 PUSH2 0x49B1 JUMP JUMPDEST PUSH1 0x40 MLOAD PUSH1 0x20 DUP2 DUP4 SUB SUB DUP2 MSTORE SWAP1 PUSH1 0x40 MSTORE JUMPDEST SWAP2 POP POP SWAP2 SWAP1 POP JUMP JUMPDEST PUSH0 PUSH20 0xFFFFFFFFFFFFFFFFFFFFFFFFFFFFFFFFFFFFFFFF AND DUP3 PUSH20 0xFFFFFFFFFFFFFFFFFFFFFFFFFFFFFFFFFFFFFFFF AND SUB PUSH2 0x2B6B JUMPI PUSH1 0x40 MLOAD PUSH32 0x8C379A000000000000000000000000000000000000000000000000000000000 DUP2 MSTORE PUSH1 0x4 ADD PUSH2 0x2B62 SWAP1 PUSH2 0x4C4D JUMP JUMPDEST PUSH1 0x40 MLOAD DUP1 SWAP2 SUB SWAP1 REVERT JUMPDEST PUSH2 0x2B74 DUP2 PUSH2 0x18F5 JUMP JUMPDEST ISZERO PUSH2 0x2BB4 JUMPI PUSH1 0x40 MLOAD PUSH32 0x8C379A000000000000000000000000000000000000000000000000000000000 DUP2 MSTORE PUSH1 0x4 ADD PUSH2 0x2BAB SWAP1 PUSH2 0x4CB5 JUMP JUMPDEST PUSH1 0x40 MLOAD DUP1 SWAP2 SUB SWAP1 REVERT JUMPDEST PUSH2 0x2BBF PUSH0 DUP4 DUP4 PUSH2 0x285D JUMP JUMPDEST PUSH1 0x1 PUSH1 0x3 PUSH0 DUP5 PUSH20 0xFFFFFFFFFFFFFFFFFFFFFFFFFFFFFFFFFFFFFFFF AND PUSH20 0xFFFFFFFFFFFFFFFFFFFFFFFFFFFFFFFFFFFFFFFF AND DUP2 MSTORE PUSH1 0x20 ADD SWAP1 DUP2 MSTORE PUSH1 0x20 ADD PUSH0 KECCAK256 PUSH0 DUP3 DUP3 SLOAD PUSH2 0x2C0C SWAP2 SWAP1 PUSH2 0x4495 JUMP JUMPDEST SWAP3 POP POP DUP2 SWAP1 SSTORE POP DUP2 PUSH1 0x2 PUSH0 DUP4 DUP2 MSTORE PUSH1 0x20 ADD SWAP1 DUP2 MSTORE PUSH1 0x20 ADD PUSH0 KECCAK256 PUSH0 PUSH2 0x100 EXP DUP2 SLOAD DUP2 PUSH20 0xFFFFFFFFFFFFFFFFFFFFFFFFFFFFFFFFFFFFFFFF MUL NOT AND SWAP1 DUP4 PUSH20 0xFFFFFFFFFFFFFFFFFFFFFFFFFFFFFFFFFFFFFFFF AND MUL OR SWAP1 SSTORE POP DUP1 DUP3 PUSH20 0xFFFFFFFFFFFFFFFFFFFFFFFFFFFFFFFFFFFFFFFF AND PUSH0 PUSH20 0xFFFFFFFFFFFFFFFFFFFFFFFFFFFFFFFFFFFFFFFF AND PUSH32 0xDDF252AD1BE2C89B69C2B068FC378DAA952BA7F163C4A11628F55A4DF523B3EF PUSH1 0x40 MLOAD PUSH1 0x40 MLOAD DUP1 SWAP2 SUB SWAP1 LOG4 PUSH2 0x2CC8 PUSH0 DUP4 DUP4 PUSH2 0x2862 JUMP JUMPDEST POP POP JUMP JUMPDEST PUSH0 PUSH0 DUP3 PUSH20 0xFFFFFFFFFFFFFFFFFFFFFFFFFFFFFFFFFFFFFFFF AND EXTCODESIZE GT SWAP1 POP SWAP2 SWAP1 POP JUMP JUMPDEST DUP3 DUP1 SLOAD DUP3 DUP3 SSTORE SWAP1 PUSH0 MSTORE PUSH1 0x20 PUSH0 KECCAK256 SWAP1 DUP2 ADD SWAP3 DUP3 ISZERO PUSH2 0x2D28 JUMPI SWAP2 PUSH1 0x20 MUL DUP3 ADD JUMPDEST DUP3 DUP2 GT ISZERO PUSH2 0x2D27 JUMPI DUP3 MLOAD DUP3 SSTORE SWAP2 PUSH1 0x20 ADD SWAP2 SWAP1 PUSH1 0x1 ADD SWAP1 PUSH2 0x2D0C JUMP JUMPDEST JUMPDEST POP SWAP1 POP PUSH2 0x2D35 SWAP2 SWAP1 PUSH2 0x2D84 JUMP JUMPDEST POP SWAP1 JUMP JUMPDEST DUP3 DUP1 SLOAD DUP3 DUP3 SSTORE SWAP1 PUSH0 MSTORE PUSH1 0x20 PUSH0 KECCAK256 SWAP1 DUP2 ADD SWAP3 DUP3 ISZERO PUSH2 0x2D73 JUMPI SWAP2 PUSH1 0x20 MUL DUP3 ADD JUMPDEST DUP3 DUP2 GT ISZERO PUSH2 0x2D72 JUMPI DUP3 CALLDATALOAD DUP3 SSTORE SWAP2 PUSH1 0x20 ADD SWAP2 SWAP1 PUSH1 0x1 ADD SWAP1 PUSH2 0x2D57 JUMP JUMPDEST JUMPDEST POP SWAP1 POP PUSH2 0x2D80 SWAP2 SWAP1 PUSH2 0x2D84 JUMP JUMPDEST POP SWAP1 JUMP JUMPDEST JUMPDEST DUP1 DUP3 GT ISZERO PUSH2 0x2D9B JUMPI PUSH0 DUP2 PUSH0 SWAP1 SSTORE POP PUSH1 0x1 ADD PUSH2 0x2D85 JUMP JUMPDEST POP SWAP1 JUMP JUMPDEST PUSH0 PUSH1 0x40 MLOAD SWAP1 POP SWAP1 JUMP JUMPDEST PUSH0 PUSH0 REVERT JUMPDEST PUSH0 PUSH0 REVERT JUMPDEST PUSH0 PUSH32 0xFFFFFFFF00000000000000000000000000000000000000000000000000000000 DUP3 AND SWAP1 POP SWAP2 SWAP1 POP JUMP JUMPDEST PUSH2 0x2DE4 DUP2 PUSH2 0x2DB0 JUMP JUMPDEST DUP2 EQ PUSH2 0x2DEE JUMPI PUSH0 PUSH0 REVERT JUMPDEST POP JUMP JUMPDEST PUSH0 DUP2 CALLDATALOAD SWAP1 POP PUSH2 0x2DFF DUP2 PUSH2 0x2DDB JUMP JUMPDEST SWAP3 SWAP2 POP POP JUMP JUMPDEST PUSH0 PUSH1 0x20 DUP3 DUP5 SUB SLT ISZERO PUSH2 0x2E1A JUMPI PUSH2 0x2E19 PUSH2 0x2DA8 JUMP JUMPDEST JUMPDEST PUSH0 PUSH2 0x2E27 DUP5 DUP3 DUP6 ADD PUSH2 0x2DF1 JUMP JUMPDEST SWAP2 POP POP SWAP3 SWAP2 POP POP JUMP JUMPDEST PUSH0 DUP2 ISZERO ISZERO SWAP1 POP SWAP2 SWAP1 POP JUMP JUMPDEST PUSH2 0x2E44 DUP2 PUSH2 0x2E30 JUMP JUMPDEST DUP3 MSTORE POP POP JUMP JUMPDEST PUSH0 PUSH1 0x20 DUP3 ADD SWAP1 POP PUSH2 0x2E5D PUSH0 DUP4 ADD DUP5 PUSH2 0x2E3B JUMP JUMPDEST SWAP3 SWAP2 POP POP JUMP JUMPDEST PUSH0 DUP2 MLOAD SWAP1 POP SWAP2 SWAP1 POP JUMP JUMPDEST PUSH0 DUP3 DUP3 MSTORE PUSH1 0x20 DUP3 ADD SWAP1 POP SWAP3 SWAP2 POP POP JUMP JUMPDEST DUP3 DUP2 DUP4 MCOPY PUSH0 DUP4 DUP4 ADD MSTORE POP POP POP JUMP JUMPDEST PUSH0 PUSH1 0x1F NOT PUSH1 0x1F DUP4 ADD AND SWAP1 POP SWAP2 SWAP1 POP JUMP JUMPDEST PUSH0 PUSH2 0x2EA5 DUP3 PUSH2 0x2E63 JUMP JUMPDEST PUSH2 0x2EAF DUP2 DUP6 PUSH2 0x2E6D JUMP JUMPDEST SWAP4 POP PUSH2 0x2EBF DUP2 DUP6 PUSH1 0x20 DUP7 ADD PUSH2 0x2E7D JUMP JUMPDEST PUSH2 0x2EC8 DUP2 PUSH2 0x2E8B JUMP JUMPDEST DUP5 ADD SWAP2 POP POP SWAP3 SWAP2 POP POP JUMP JUMPDEST PUSH0 PUSH1 0x20 DUP3 ADD SWAP1 POP DUP2 DUP2 SUB PUSH0 DUP4 ADD MSTORE PUSH2 0x2EEB DUP2 DUP5 PUSH2 0x2E9B JUMP JUMPDEST SWAP1 POP SWAP3 SWAP2 POP POP JUMP JUMPDEST PUSH0 DUP2 SWAP1 POP SWAP2 SWAP1 POP JUMP JUMPDEST PUSH2 0x2F05 DUP2 PUSH2 0x2EF3 JUMP JUMPDEST DUP2 EQ PUSH2 0x2F0F JUMPI PUSH0 PUSH0 REVERT JUMPDEST POP JUMP JUMPDEST PUSH0 DUP2 CALLDATALOAD SWAP1 POP PUSH2 0x2F20 DUP2 PUSH2 0x2EFC JUMP JUMPDEST SWAP3 SWAP2 POP POP JUMP JUMPDEST PUSH0 PUSH1 0x20 DUP3 DUP5 SUB SLT ISZERO PUSH2 0x2F3B JUMPI PUSH2 0x2F3A PUSH2 0x2DA8 JUMP JUMPDEST JUMPDEST PUSH0 PUSH2 0x2F48 DUP5 DUP3 DUP6 ADD PUSH2 0x2F12 JUMP JUMPDEST SWAP2 POP POP SWAP3 SWAP2 POP POP JUMP JUMPDEST PUSH0 PUSH20 0xFFFFFFFFFFFFFFFFFFFFFFFFFFFFFFFFFFFFFFFF DUP3 AND SWAP1 POP SWAP2 SWAP1 POP JUMP JUMPDEST PUSH0 PUSH2 0x2F7A DUP3 PUSH2 0x2F51 JUMP JUMPDEST SWAP1 POP SWAP2 SWAP1 POP JUMP JUMPDEST PUSH2 0x2F8A DUP2 PUSH2 0x2F70 JUMP JUMPDEST DUP3 MSTORE POP POP JUMP JUMPDEST PUSH0 PUSH1 0x20 DUP3 ADD SWAP1 POP PUSH2 0x2FA3 PUSH0 DUP4 ADD DUP5 PUSH2 0x2F81 JUMP JUMPDEST SWAP3 SWAP2 POP POP JUMP JUMPDEST PUSH2 0x2FB2 DUP2 PUSH2 0x2F70 JUMP JUMPDEST DUP2 EQ PUSH2 0x2FBC JUMPI PUSH0 PUSH0 REVERT JUMPDEST POP JUMP JUMPDEST PUSH0 DUP2 CALLDATALOAD SWAP1 POP PUSH2 0x2FCD DUP2 PUSH2 0x2FA9 JUMP JUMPDEST SWAP3 SWAP2 POP POP JUMP JUMPDEST PUSH0 PUSH0 PUSH1 0x40 DUP4 DUP6 SUB SLT ISZERO PUSH2 0x2FE9 JUMPI PUSH2 0x2FE8 PUSH2 0x2DA8 JUMP JUMPDEST JUMPDEST PUSH0 PUSH2 0x2FF6 DUP6 DUP3 DUP7 ADD PUSH2 0x2FBF JUMP JUMPDEST SWAP3 POP POP PUSH1 0x20 PUSH2 0x3007 DUP6 DUP3 DUP7 ADD PUSH2 0x2F12 JUMP JUMPDEST SWAP2 POP POP SWAP3 POP SWAP3 SWAP1 POP JUMP JUMPDEST PUSH0 PUSH0 REVERT JUMPDEST PUSH0 PUSH0 REVERT JUMPDEST PUSH0 PUSH0 REVERT JUMPDEST PUSH0 PUSH0 DUP4 PUSH1 0x1F DUP5 ADD SLT PUSH2 0x3032 JUMPI PUSH2 0x3031 PUSH2 0x3011 JUMP JUMPDEST JUMPDEST DUP3 CALLDATALOAD SWAP1 POP PUSH8 0xFFFFFFFFFFFFFFFF DUP2 GT ISZERO PUSH2 0x304F JUMPI PUSH2 0x304E PUSH2 0x3015 JUMP JUMPDEST JUMPDEST PUSH1 0x20 DUP4 ADD SWAP2 POP DUP4 PUSH1 0x20 DUP3 MUL DUP4 ADD GT ISZERO PUSH2 0x306B JUMPI PUSH2 0x306A PUSH2 0x3019 JUMP JUMPDEST JUMPDEST SWAP3 POP SWAP3 SWAP1 POP JUMP JUMPDEST PUSH0 PUSH0 PUSH0 PUSH1 0x40 DUP5 DUP7 SUB SLT ISZERO PUSH2 0x3089 JUMPI PUSH2 0x3088 PUSH2 0x2DA8 JUMP JUMPDEST JUMPDEST PUSH0 PUSH2 0x3096 DUP7 DUP3 DUP8 ADD PUSH2 0x2F12 JUMP JUMPDEST SWAP4 POP POP PUSH1 0x20 DUP5 ADD CALLDATALOAD PUSH8 0xFFFFFFFFFFFFFFFF DUP2 GT ISZERO PUSH2 0x30B7 JUMPI PUSH2 0x30B6 PUSH2 0x2DAC JUMP JUMPDEST JUMPDEST PUSH2 0x30C3 DUP7 DUP3 DUP8 ADD PUSH2 0x301D JUMP JUMPDEST SWAP3 POP SWAP3 POP POP SWAP3 POP SWAP3 POP SWAP3 JUMP JUMPDEST PUSH0 PUSH0 PUSH0 PUSH1 0x60 DUP5 DUP7 SUB SLT ISZERO PUSH2 0x30E6 JUMPI PUSH2 0x30E5 PUSH2 0x2DA8 JUMP JUMPDEST JUMPDEST PUSH0 PUSH2 0x30F3 DUP7 DUP3 DUP8 ADD PUSH2 0x2FBF JUMP JUMPDEST SWAP4 POP POP PUSH1 0x20 PUSH2 0x3104 DUP7 DUP3 DUP8 ADD PUSH2 0x2FBF JUMP JUMPDEST SWAP3 POP POP PUSH1 0x40 PUSH2 0x3115 DUP7 DUP3 DUP8 ADD PUSH2 0x2F12 JUMP JUMPDEST SWAP2 POP POP SWAP3 POP SWAP3 POP SWAP3 JUMP JUMPDEST PUSH0 PUSH4 0xFFFFFFFF DUP3 AND SWAP1 POP SWAP2 SWAP1 POP JUMP JUMPDEST PUSH2 0x3137 DUP2 PUSH2 0x311F JUMP JUMPDEST DUP3 MSTORE POP POP JUMP JUMPDEST PUSH0 PUSH1 0x20 DUP3 ADD SWAP1 POP PUSH2 0x3150 PUSH0 DUP4 ADD DUP5 PUSH2 0x312E JUMP JUMPDEST SWAP3 SWAP2 POP POP JUMP JUMPDEST PUSH0 DUP2 SWAP1 POP SWAP2 SWAP1 POP JUMP JUMPDEST PUSH2 0x3168 DUP2 PUSH2 0x3156 JUMP JUMPDEST DUP3 MSTORE POP POP JUMP JUMPDEST PUSH0 PUSH1 0x20 DUP3 ADD SWAP1 POP PUSH2 0x3181 PUSH0 DUP4 ADD DUP5 PUSH2 0x315F JUMP JUMPDEST SWAP3 SWAP2 POP POP JUMP JUMPDEST PUSH0 PUSH1 0x20 DUP3 DUP5 SUB SLT ISZERO PUSH2 0x319C JUMPI PUSH2 0x319B PUSH2 0x2DA8 JUMP JUMPDEST JUMPDEST PUSH0 PUSH2 0x31A9 DUP5 DUP3 DUP6 ADD PUSH2 0x2FBF JUMP JUMPDEST SWAP2 POP POP SWAP3 SWAP2 POP POP JUMP JUMPDEST PUSH2 0x31BB DUP2 PUSH2 0x2EF3 JUMP JUMPDEST DUP3 MSTORE POP POP JUMP JUMPDEST PUSH0 PUSH1 0x20 DUP3 ADD SWAP1 POP PUSH2 0x31D4 PUSH0 DUP4 ADD DUP5 PUSH2 0x31B2 JUMP JUMPDEST SWAP3 SWAP2 POP POP JUMP JUMPDEST PUSH0 DUP2 SWAP1 POP SWAP2 SWAP1 POP JUMP JUMPDEST PUSH0 PUSH2 0x31FD PUSH2 0x31F8 PUSH2 0x31F3 DUP5 PUSH2 0x2F51 JUMP JUMPDEST PUSH2 0x31DA JUMP JUMPDEST PUSH2 0x2F51 JUMP JUMPDEST SWAP1 POP SWAP2 SWAP1 POP JUMP JUMPDEST PUSH0 PUSH2 0x320E DUP3 PUSH2 0x31E3 JUMP JUMPDEST SWAP1 POP SWAP2 SWAP1 POP JUMP JUMPDEST PUSH0 PUSH2 0x321F DUP3 PUSH2 0x3204 JUMP JUMPDEST SWAP1 POP SWAP2 SWAP1 POP JUMP JUMPDEST PUSH2 0x322F DUP2 PUSH2 0x3215 JUMP JUMPDEST DUP3 MSTORE POP POP JUMP JUMPDEST PUSH0 PUSH1 0x20 DUP3 ADD SWAP1 POP PUSH2 0x3248 PUSH0 DUP4 ADD DUP5 PUSH2 0x3226 JUMP JUMPDEST SWAP3 SWAP2 POP POP JUMP JUMPDEST PUSH0 PUSH1 0x40 DUP3 ADD SWAP1 POP PUSH2 0x3261 PUSH0 DUP4 ADD DUP6 PUSH2 0x2E3B JUMP JUMPDEST PUSH2 0x326E PUSH1 0x20 DUP4 ADD DUP5 PUSH2 0x2E3B JUMP JUMPDEST SWAP4 SWAP3 POP POP POP JUMP JUMPDEST PUSH2 0x327E DUP2 PUSH2 0x2E30 JUMP JUMPDEST DUP2 EQ PUSH2 0x3288 JUMPI PUSH0 PUSH0 REVERT JUMPDEST POP JUMP JUMPDEST PUSH0 DUP2 CALLDATALOAD SWAP1 POP PUSH2 0x3299 DUP2 PUSH2 0x3275 JUMP JUMPDEST SWAP3 SWAP2 POP POP JUMP JUMPDEST PUSH0 PUSH0 PUSH1 0x40 DUP4 DUP6 SUB SLT ISZERO PUSH2 0x32B5 JUMPI PUSH2 0x32B4 PUSH2 0x2DA8 JUMP JUMPDEST JUMPDEST PUSH0 PUSH2 0x32C2 DUP6 DUP3 DUP7 ADD PUSH2 0x2FBF JUMP JUMPDEST SWAP3 POP POP PUSH1 0x20 PUSH2 0x32D3 DUP6 DUP3 DUP7 ADD PUSH2 0x328B JUMP JUMPDEST SWAP2 POP POP SWAP3 POP SWAP3 SWAP1 POP JUMP JUMPDEST PUSH0 PUSH2 0xFFFF DUP3 AND SWAP1 POP SWAP2 SWAP1 POP JUMP JUMPDEST PUSH2 0x32F3 DUP2 PUSH2 0x32DD JUMP JUMPDEST DUP3 MSTORE POP POP JUMP JUMPDEST PUSH0 PUSH1 0x20 DUP3 ADD SWAP1 POP PUSH2 0x330C PUSH0 DUP4 ADD DUP5 PUSH2 0x32EA JUMP JUMPDEST SWAP3 SWAP2 POP POP JUMP JUMPDEST PUSH0 PUSH0 REVERT JUMPDEST PUSH32 0x4E487B7100000000000000000000000000000000000000000000000000000000 PUSH0 MSTORE PUSH1 0x41 PUSH1 0x4 MSTORE PUSH1 0x24 PUSH0 REVERT JUMPDEST PUSH2 0x334C DUP3 PUSH2 0x2E8B JUMP JUMPDEST DUP2 ADD DUP2 DUP2 LT PUSH8 0xFFFFFFFFFFFFFFFF DUP3 GT OR ISZERO PUSH2 0x336B JUMPI PUSH2 0x336A PUSH2 0x3316 JUMP JUMPDEST JUMPDEST DUP1 PUSH1 0x40 MSTORE POP POP POP JUMP JUMPDEST PUSH0 PUSH2 0x337D PUSH2 0x2D9F JUMP JUMPDEST SWAP1 POP PUSH2 0x3389 DUP3 DUP3 PUSH2 0x3343 JUMP JUMPDEST SWAP2 SWAP1 POP JUMP JUMPDEST PUSH0 PUSH8 0xFFFFFFFFFFFFFFFF DUP3 GT ISZERO PUSH2 0x33A8 JUMPI PUSH2 0x33A7 PUSH2 0x3316 JUMP JUMPDEST JUMPDEST PUSH2 0x33B1 DUP3 PUSH2 0x2E8B JUMP JUMPDEST SWAP1 POP PUSH1 0x20 DUP2 ADD SWAP1 POP SWAP2 SWAP1 POP JUMP JUMPDEST DUP3 DUP2 DUP4 CALLDATACOPY PUSH0 DUP4 DUP4 ADD MSTORE POP POP POP JUMP JUMPDEST PUSH0 PUSH2 0x33DE PUSH2 0x33D9 DUP5 PUSH2 0x338E JUMP JUMPDEST PUSH2 0x3374 JUMP JUMPDEST SWAP1 POP DUP3 DUP2 MSTORE PUSH1 0x20 DUP2 ADD DUP5 DUP5 DUP5 ADD GT ISZERO PUSH2 0x33FA JUMPI PUSH2 0x33F9 PUSH2 0x3312 JUMP JUMPDEST JUMPDEST PUSH2 0x3405 DUP5 DUP3 DUP6 PUSH2 0x33BE JUMP JUMPDEST POP SWAP4 SWAP3 POP POP POP JUMP JUMPDEST PUSH0 DUP3 PUSH1 0x1F DUP4 ADD SLT PUSH2 0x3421 JUMPI PUSH2 0x3420 PUSH2 0x3011 JUMP JUMPDEST JUMPDEST DUP2 CALLDATALOAD PUSH2 0x3431 DUP5 DUP3 PUSH1 0x20 DUP7 ADD PUSH2 0x33CC JUMP JUMPDEST SWAP2 POP POP SWAP3 SWAP2 POP POP JUMP JUMPDEST PUSH0 PUSH0 PUSH0 PUSH0 PUSH1 0x80 DUP6 DUP8 SUB SLT ISZERO PUSH2 0x3452 JUMPI PUSH2 0x3451 PUSH2 0x2DA8 JUMP JUMPDEST JUMPDEST PUSH0 PUSH2 0x345F DUP8 DUP3 DUP9 ADD PUSH2 0x2FBF JUMP JUMPDEST SWAP5 POP POP PUSH1 0x20 PUSH2 0x3470 DUP8 DUP3 DUP9 ADD PUSH2 0x2FBF JUMP JUMPDEST SWAP4 POP POP PUSH1 0x40 PUSH2 0x3481 DUP8 DUP3 DUP9 ADD PUSH2 0x2F12 JUMP JUMPDEST SWAP3 POP POP PUSH1 0x60 DUP6 ADD CALLDATALOAD PUSH8 0xFFFFFFFFFFFFFFFF DUP2 GT ISZERO PUSH2 0x34A2 JUMPI PUSH2 0x34A1 PUSH2 0x2DAC JUMP JUMPDEST JUMPDEST PUSH2 0x34AE DUP8 DUP3 DUP9 ADD PUSH2 0x340D JUMP JUMPDEST SWAP2 POP POP SWAP3 SWAP6 SWAP2 SWAP5 POP SWAP3 POP JUMP JUMPDEST PUSH0 DUP2 MLOAD SWAP1 POP SWAP2 SWAP1 POP JUMP JUMPDEST PUSH0 DUP3 DUP3 MSTORE PUSH1 0x20 DUP3 ADD SWAP1 POP SWAP3 SWAP2 POP POP JUMP JUMPDEST PUSH0 DUP2 SWAP1 POP PUSH1 0x20 DUP3 ADD SWAP1 POP SWAP2 SWAP1 POP JUMP JUMPDEST PUSH2 0x34EC DUP2 PUSH2 0x2EF3 JUMP JUMPDEST DUP3 MSTORE POP POP JUMP JUMPDEST PUSH0 PUSH2 0x34FD DUP4 DUP4 PUSH2 0x34E3 JUMP JUMPDEST PUSH1 0x20 DUP4 ADD SWAP1 POP SWAP3 SWAP2 POP POP JUMP JUMPDEST PUSH0 PUSH1 0x20 DUP3 ADD SWAP1 POP SWAP2 SWAP1 POP JUMP JUMPDEST PUSH0 PUSH2 0x351F DUP3 PUSH2 0x34BA JUMP JUMPDEST PUSH2 0x3529 DUP2 DUP6 PUSH2 0x34C4 JUMP JUMPDEST SWAP4 POP PUSH2 0x3534 DUP4 PUSH2 0x34D4 JUMP JUMPDEST DUP1 PUSH0 JUMPDEST DUP4 DUP2 LT ISZERO PUSH2 0x3564 JUMPI DUP2 MLOAD PUSH2 0x354B DUP9 DUP3 PUSH2 0x34F2 JUMP JUMPDEST SWAP8 POP PUSH2 0x3556 DUP4 PUSH2 0x3509 JUMP JUMPDEST SWAP3 POP POP PUSH1 0x1 DUP2 ADD SWAP1 POP PUSH2 0x3537 JUMP JUMPDEST POP DUP6 SWAP4 POP POP POP POP SWAP3 SWAP2 POP POP JUMP JUMPDEST PUSH0 PUSH1 0x40 DUP3 ADD SWAP1 POP PUSH2 0x3584 PUSH0 DUP4 ADD DUP6 PUSH2 0x2E3B JUMP JUMPDEST DUP2 DUP2 SUB PUSH1 0x20 DUP4 ADD MSTORE PUSH2 0x3596 DUP2 DUP5 PUSH2 0x3515 JUMP JUMPDEST SWAP1 POP SWAP4 SWAP3 POP POP POP JUMP JUMPDEST PUSH0 PUSH0 PUSH1 0x40 DUP4 DUP6 SUB SLT ISZERO PUSH2 0x35B5 JUMPI PUSH2 0x35B4 PUSH2 0x2DA8 JUMP JUMPDEST JUMPDEST PUSH0 PUSH2 0x35C2 DUP6 DUP3 DUP7 ADD PUSH2 0x2FBF JUMP JUMPDEST SWAP3 POP POP PUSH1 0x20 PUSH2 0x35D3 DUP6 DUP3 DUP7 ADD PUSH2 0x2FBF JUMP JUMPDEST SWAP2 POP POP SWAP3 POP SWAP3 SWAP1 POP JUMP JUMPDEST PUSH32 0x4E487B7100000000000000000000000000000000000000000000000000000000 PUSH0 MSTORE PUSH1 0x22 PUSH1 0x4 MSTORE PUSH1 0x24 PUSH0 REVERT JUMPDEST PUSH0 PUSH1 0x2 DUP3 DIV SWAP1 POP PUSH1 0x1 DUP3 AND DUP1 PUSH2 0x3621 JUMPI PUSH1 0x7F DUP3 AND SWAP2 POP JUMPDEST PUSH1 0x20 DUP3 LT DUP2 SUB PUSH2 0x3634 JUMPI PUSH2 0x3633 PUSH2 0x35DD JUMP JUMPDEST JUMPDEST POP SWAP2 SWAP1 POP JUMP JUMPDEST PUSH32 0x4552433732313A20617070726F76656420717565727920666F72206E6F6E6578 PUSH0 DUP3 ADD MSTORE PUSH32 0x697374656E7420746F6B656E0000000000000000000000000000000000000000 PUSH1 0x20 DUP3 ADD MSTORE POP JUMP JUMPDEST PUSH0 PUSH2 0x3694 PUSH1 0x2C DUP4 PUSH2 0x2E6D JUMP JUMPDEST SWAP2 POP PUSH2 0x369F DUP3 PUSH2 0x363A JUMP JUMPDEST PUSH1 0x40 DUP3 ADD SWAP1 POP SWAP2 SWAP1 POP JUMP JUMPDEST PUSH0 PUSH1 0x20 DUP3 ADD SWAP1 POP DUP2 DUP2 SUB PUSH0 DUP4 ADD MSTORE PUSH2 0x36C1 DUP2 PUSH2 0x3688 JUMP JUMPDEST SWAP1 POP SWAP2 SWAP1 POP JUMP JUMPDEST PUSH32 0x4552433732313A20617070726F76616C20746F2063757272656E74206F776E65 PUSH0 DUP3 ADD MSTORE PUSH32 0x7200000000000000000000000000000000000000000000000000000000000000 PUSH1 0x20 DUP3 ADD MSTORE POP JUMP JUMPDEST PUSH0 PUSH2 0x3722 PUSH1 0x21 DUP4 PUSH2 0x2E6D JUMP JUMPDEST SWAP2 POP PUSH2 0x372D DUP3 PUSH2 0x36C8 JUMP JUMPDEST PUSH1 0x40 DUP3 ADD SWAP1 POP SWAP2 SWAP1 POP JUMP JUMPDEST PUSH0 PUSH1 0x20 DUP3 ADD SWAP1 POP DUP2 DUP2 SUB PUSH0 DUP4 ADD MSTORE PUSH2 0x374F DUP2 PUSH2 0x3716 JUMP JUMPDEST SWAP1 POP SWAP2 SWAP1 POP JUMP JUMPDEST PUSH32 0x4552433732313A20617070726F76652063616C6C6572206973206E6F74206F77 PUSH0 DUP3 ADD MSTORE PUSH32 0x6E6572206E6F7220617070726F76656420666F7220616C6C0000000000000000 PUSH1 0x20 DUP3 ADD MSTORE POP JUMP JUMPDEST PUSH0 PUSH2 0x37B0 PUSH1 0x38 DUP4 PUSH2 0x2E6D JUMP JUMPDEST SWAP2 POP PUSH2 0x37BB DUP3 PUSH2 0x3756 JUMP JUMPDEST PUSH1 0x40 DUP3 ADD SWAP1 POP SWAP2 SWAP1 POP JUMP JUMPDEST PUSH0 PUSH1 0x20 DUP3 ADD SWAP1 POP DUP2 DUP2 SUB PUSH0 DUP4 ADD MSTORE PUSH2 0x37DD DUP2 PUSH2 0x37A4 JUMP JUMPDEST SWAP1 POP SWAP2 SWAP1 POP JUMP JUMPDEST PUSH0 PUSH1 0x40 DUP3 ADD SWAP1 POP PUSH2 0x37F7 PUSH0 DUP4 ADD DUP6 PUSH2 0x2F81 JUMP JUMPDEST PUSH2 0x3804 PUSH1 0x20 DUP4 ADD DUP5 PUSH2 0x2F81 JUMP JUMPDEST SWAP4 SWAP3 POP POP POP JUMP JUMPDEST PUSH32 0x4552433732313A207472616E736665722063616C6C6572206973206E6F74206F PUSH0 DUP3 ADD MSTORE PUSH32 0x776E6572206E6F7220617070726F766564000000000000000000000000000000 PUSH1 0x20 DUP3 ADD MSTORE POP JUMP JUMPDEST PUSH0 PUSH2 0x3865 PUSH1 0x31 DUP4 PUSH2 0x2E6D JUMP JUMPDEST SWAP2 POP PUSH2 0x3870 DUP3 PUSH2 0x380B JUMP JUMPDEST PUSH1 0x40 DUP3 ADD SWAP1 POP SWAP2 SWAP1 POP JUMP JUMPDEST PUSH0 PUSH1 0x20 DUP3 ADD SWAP1 POP DUP2 DUP2 SUB PUSH0 DUP4 ADD MSTORE PUSH2 0x3892 DUP2 PUSH2 0x3859 JUMP JUMPDEST SWAP1 POP SWAP2 SWAP1 POP JUMP JUMPDEST PUSH32 0x4E487B7100000000000000000000000000000000000000000000000000000000 PUSH0 MSTORE PUSH1 0x32 PUSH1 0x4 MSTORE PUSH1 0x24 PUSH0 REVERT JUMPDEST PUSH0 DUP2 SWAP1 POP DUP2 PUSH0 MSTORE PUSH1 0x20 PUSH0 KECCAK256 SWAP1 POP SWAP2 SWAP1 POP JUMP JUMPDEST PUSH0 PUSH1 0x20 PUSH1 0x1F DUP4 ADD DIV SWAP1 POP SWAP2 SWAP1 POP JUMP JUMPDEST PUSH0 DUP3 DUP3 SHL SWAP1 POP SWAP3 SWAP2 POP POP JUMP JUMPDEST PUSH0 PUSH1 0x8 DUP4 MUL PUSH2 0x3922 PUSH32 0xFFFFFFFFFFFFFFFFFFFFFFFFFFFFFFFFFFFFFFFFFFFFFFFFFFFFFFFFFFFFFFFF DUP3 PUSH2 0x38E7 JUMP JUMPDEST PUSH2 0x392C DUP7 DUP4 PUSH2 0x38E7 JUMP JUMPDEST SWAP6 POP DUP1 NOT DUP5 AND SWAP4 POP DUP1 DUP7 AND DUP5 OR SWAP3 POP POP POP SWAP4 SWAP3 POP POP POP JUMP JUMPDEST PUSH0 PUSH2 0x395E PUSH2 0x3959 PUSH2 0x3954 DUP5 PUSH2 0x2EF3 JUMP JUMPDEST PUSH2 0x31DA JUMP JUMPDEST PUSH2 0x2EF3 JUMP JUMPDEST SWAP1 POP SWAP2 SWAP1 POP JUMP JUMPDEST PUSH0 DUP2 SWAP1 POP SWAP2 SWAP1 POP JUMP JUMPDEST PUSH2 0x3977 DUP4 PUSH2 0x3944 JUMP JUMPDEST PUSH2 0x398B PUSH2 0x3983 DUP3 PUSH2 0x3965 JUMP JUMPDEST DUP5 DUP5 SLOAD PUSH2 0x38F3 JUMP JUMPDEST DUP3 SSTORE POP POP POP POP JUMP JUMPDEST PUSH0 PUSH0 SWAP1 POP SWAP1 JUMP JUMPDEST PUSH2 0x39A2 PUSH2 0x3993 JUMP JUMPDEST PUSH2 0x39AD DUP2 DUP5 DUP5 PUSH2 0x396E JUMP JUMPDEST POP POP POP JUMP JUMPDEST JUMPDEST DUP2 DUP2 LT ISZERO PUSH2 0x39D0 JUMPI PUSH2 0x39C5 PUSH0 DUP3 PUSH2 0x399A JUMP JUMPDEST PUSH1 0x1 DUP2 ADD SWAP1 POP PUSH2 0x39B3 JUMP JUMPDEST POP POP JUMP JUMPDEST PUSH1 0x1F DUP3 GT ISZERO PUSH2 0x3A15 JUMPI PUSH2 0x39E6 DUP2 PUSH2 0x38C6 JUMP JUMPDEST PUSH2 0x39EF DUP5 PUSH2 0x38D8 JUMP JUMPDEST DUP2 ADD PUSH1 0x20 DUP6 LT ISZERO PUSH2 0x39FE JUMPI DUP2 SWAP1 POP JUMPDEST PUSH2 0x3A12 PUSH2 0x3A0A DUP6 PUSH2 0x38D8 JUMP JUMPDEST DUP4 ADD DUP3 PUSH2 0x39B2 JUMP JUMPDEST POP POP JUMPDEST POP POP POP JUMP JUMPDEST PUSH0 DUP3 DUP3 SHR SWAP1 POP SWAP3 SWAP2 POP POP JUMP JUMPDEST PUSH0 PUSH2 0x3A35 PUSH0 NOT DUP5 PUSH1 0x8 MUL PUSH2 0x3A1A JUMP JUMPDEST NOT DUP1 DUP4 AND SWAP2 POP POP SWAP3 SWAP2 POP POP JUMP JUMPDEST PUSH0 PUSH2 0x3A4D DUP4 DUP4 PUSH2 0x3A26 JUMP JUMPDEST SWAP2 POP DUP3 PUSH1 0x2 MUL DUP3 OR SWAP1 POP SWAP3 SWAP2 POP POP JUMP JUMPDEST PUSH2 0x3A66 DUP3 PUSH2 0x2E63 JUMP JUMPDEST PUSH8 0xFFFFFFFFFFFFFFFF DUP2 GT ISZERO PUSH2 0x3A7F JUMPI PUSH2 0x3A7E PUSH2 0x3316 JUMP JUMPDEST JUMPDEST PUSH2 0x3A89 DUP3 SLOAD PUSH2 0x360A JUMP JUMPDEST PUSH2 0x3A94 DUP3 DUP3 DUP6 PUSH2 0x39D4 JUMP JUMPDEST PUSH0 PUSH1 0x20 SWAP1 POP PUSH1 0x1F DUP4 GT PUSH1 0x1 DUP2 EQ PUSH2 0x3AC5 JUMPI PUSH0 DUP5 ISZERO PUSH2 0x3AB3 JUMPI DUP3 DUP8 ADD MLOAD SWAP1 POP JUMPDEST PUSH2 0x3ABD DUP6 DUP3 PUSH2 0x3A42 JUMP JUMPDEST DUP7 SSTORE POP PUSH2 0x3B24 JUMP JUMPDEST PUSH1 0x1F NOT DUP5 AND PUSH2 0x3AD3 DUP7 PUSH2 0x38C6 JUMP JUMPDEST PUSH0 JUMPDEST DUP3 DUP2 LT ISZERO PUSH2 0x3AFA JUMPI DUP5 DUP10 ADD MLOAD DUP3 SSTORE PUSH1 0x1 DUP3 ADD SWAP2 POP PUSH1 0x20 DUP6 ADD SWAP5 POP PUSH1 0x20 DUP2 ADD SWAP1 POP PUSH2 0x3AD5 JUMP JUMPDEST DUP7 DUP4 LT ISZERO PUSH2 0x3B17 JUMPI DUP5 DUP10 ADD MLOAD PUSH2 0x3B13 PUSH1 0x1F DUP10 AND DUP3 PUSH2 0x3A26 JUMP JUMPDEST DUP4 SSTORE POP JUMPDEST PUSH1 0x1 PUSH1 0x2 DUP9 MUL ADD DUP9 SSTORE POP POP POP JUMPDEST POP POP POP POP POP POP JUMP JUMPDEST PUSH0 DUP2 SWAP1 POP SWAP3 SWAP2 POP POP JUMP JUMPDEST PUSH32 0x7B226E616D65223A202200000000000000000000000000000000000000000000 PUSH0 DUP3 ADD MSTORE POP JUMP JUMPDEST PUSH0 PUSH2 0x3B6A PUSH1 0xA DUP4 PUSH2 0x3B2C JUMP JUMPDEST SWAP2 POP PUSH2 0x3B75 DUP3 PUSH2 0x3B36 JUMP JUMPDEST PUSH1 0xA DUP3 ADD SWAP1 POP SWAP2 SWAP1 POP JUMP JUMPDEST PUSH0 DUP2 SLOAD PUSH2 0x3B8C DUP2 PUSH2 0x360A JUMP JUMPDEST PUSH2 0x3B96 DUP2 DUP7 PUSH2 0x3B2C JUMP JUMPDEST SWAP5 POP PUSH1 0x1 DUP3 AND PUSH0 DUP2 EQ PUSH2 0x3BB0 JUMPI PUSH1 0x1 DUP2 EQ PUSH2 0x3BC5 JUMPI PUSH2 0x3BF7 JUMP JUMPDEST PUSH1 0xFF NOT DUP4 AND DUP7 MSTORE DUP2 ISZERO ISZERO DUP3 MUL DUP7 ADD SWAP4 POP PUSH2 0x3BF7 JUMP JUMPDEST PUSH2 0x3BCE DUP6 PUSH2 0x38C6 JUMP JUMPDEST PUSH0 JUMPDEST DUP4 DUP2 LT ISZERO PUSH2 0x3BEF JUMPI DUP2 SLOAD DUP2 DUP10 ADD MSTORE PUSH1 0x1 DUP3 ADD SWAP2 POP PUSH1 0x20 DUP2 ADD SWAP1 POP PUSH2 0x3BD0 JUMP JUMPDEST DUP4 DUP9 ADD SWAP6 POP POP POP JUMPDEST POP POP POP SWAP3 SWAP2 POP POP JUMP JUMPDEST PUSH32 0x222C226465736372697074696F6E223A2022436861696E6C696E6B2072756E6E PUSH0 DUP3 ADD MSTORE PUSH32 0x6572222C00000000000000000000000000000000000000000000000000000000 PUSH1 0x20 DUP3 ADD MSTORE POP JUMP JUMPDEST PUSH0 PUSH2 0x3C5A PUSH1 0x24 DUP4 PUSH2 0x3B2C JUMP JUMPDEST SWAP2 POP PUSH2 0x3C65 DUP3 PUSH2 0x3C00 JUMP JUMPDEST PUSH1 0x24 DUP3 ADD SWAP1 POP SWAP2 SWAP1 POP JUMP JUMPDEST PUSH32 0x22696D616765223A202200000000000000000000000000000000000000000000 PUSH0 DUP3 ADD MSTORE POP JUMP JUMPDEST PUSH0 PUSH2 0x3CA4 PUSH1 0xA DUP4 PUSH2 0x3B2C JUMP JUMPDEST SWAP2 POP PUSH2 0x3CAF DUP3 PUSH2 0x3C70 JUMP JUMPDEST PUSH1 0xA DUP3 ADD SWAP1 POP SWAP2 SWAP1 POP JUMP JUMPDEST PUSH32 0x222C2261747472696275746573223A205B000000000000000000000000000000 PUSH0 DUP3 ADD MSTORE POP JUMP JUMPDEST PUSH0 PUSH2 0x3CEE PUSH1 0x11 DUP4 PUSH2 0x3B2C JUMP JUMPDEST SWAP2 POP PUSH2 0x3CF9 DUP3 PUSH2 0x3CBA JUMP JUMPDEST PUSH1 0x11 DUP3 ADD SWAP1 POP SWAP2 SWAP1 POP JUMP JUMPDEST PUSH32 0x7B2274726169745F74797065223A202264697374616E6365222C000000000000 PUSH0 DUP3 ADD MSTORE POP JUMP JUMPDEST PUSH0 PUSH2 0x3D38 PUSH1 0x1A DUP4 PUSH2 0x3B2C JUMP JUMPDEST SWAP2 POP PUSH2 0x3D43 DUP3 PUSH2 0x3D04 JUMP JUMPDEST PUSH1 0x1A DUP3 ADD SWAP1 POP SWAP2 SWAP1 POP JUMP JUMPDEST PUSH32 0x2276616C7565223A200000000000000000000000000000000000000000000000 PUSH0 DUP3 ADD MSTORE POP JUMP JUMPDEST PUSH0 PUSH2 0x3D82 PUSH1 0x9 DUP4 PUSH2 0x3B2C JUMP JUMPDEST SWAP2 POP PUSH2 0x3D8D DUP3 PUSH2 0x3D4E JUMP JUMPDEST PUSH1 0x9 DUP3 ADD SWAP1 POP SWAP2 SWAP1 POP JUMP JUMPDEST PUSH0 PUSH2 0x3DA2 DUP3 PUSH2 0x2E63 JUMP JUMPDEST PUSH2 0x3DAC DUP2 DUP6 PUSH2 0x3B2C JUMP JUMPDEST SWAP4 POP PUSH2 0x3DBC DUP2 DUP6 PUSH1 0x20 DUP7 ADD PUSH2 0x2E7D JUMP JUMPDEST DUP1 DUP5 ADD SWAP2 POP POP SWAP3 SWAP2 POP POP JUMP JUMPDEST PUSH32 0x7D00000000000000000000000000000000000000000000000000000000000000 PUSH0 DUP3 ADD MSTORE POP JUMP JUMPDEST PUSH0 PUSH2 0x3DFC PUSH1 0x1 DUP4 PUSH2 0x3B2C JUMP JUMPDEST SWAP2 POP PUSH2 0x3E07 DUP3 PUSH2 0x3DC8 JUMP JUMPDEST PUSH1 0x1 DUP3 ADD SWAP1 POP SWAP2 SWAP1 POP JUMP JUMPDEST PUSH32 0x2C7B2274726169745F74797065223A2022726F756E64222C0000000000000000 PUSH0 DUP3 ADD MSTORE POP JUMP JUMPDEST PUSH0 PUSH2 0x3E46 PUSH1 0x18 DUP4 PUSH2 0x3B2C JUMP JUMPDEST SWAP2 POP PUSH2 0x3E51 DUP3 PUSH2 0x3E12 JUMP JUMPDEST PUSH1 0x18 DUP3 ADD SWAP1 POP SWAP2 SWAP1 POP JUMP JUMPDEST PUSH32 0x5D7D000000000000000000000000000000000000000000000000000000000000 PUSH0 DUP3 ADD MSTORE POP JUMP JUMPDEST PUSH0 PUSH2 0x3E90 PUSH1 0x2 DUP4 PUSH2 0x3B2C JUMP JUMPDEST SWAP2 POP PUSH2 0x3E9B DUP3 PUSH2 0x3E5C JUMP JUMPDEST PUSH1 0x2 DUP3 ADD SWAP1 POP SWAP2 SWAP1 POP JUMP JUMPDEST PUSH0 PUSH2 0x3EB0 DUP3 PUSH2 0x3B5E JUMP JUMPDEST SWAP2 POP PUSH2 0x3EBC DUP3 DUP8 PUSH2 0x3B80 JUMP JUMPDEST SWAP2 POP PUSH2 0x3EC7 DUP3 PUSH2 0x3C4E JUMP JUMPDEST SWAP2 POP PUSH2 0x3ED2 DUP3 PUSH2 0x3C98 JUMP JUMPDEST SWAP2 POP PUSH2 0x3EDE DUP3 DUP7 PUSH2 0x3B80 JUMP JUMPDEST SWAP2 POP PUSH2 0x3EE9 DUP3 PUSH2 0x3CE2 JUMP JUMPDEST SWAP2 POP PUSH2 0x3EF4 DUP3 PUSH2 0x3D2C JUMP JUMPDEST SWAP2 POP PUSH2 0x3EFF DUP3 PUSH2 0x3D76 JUMP JUMPDEST SWAP2 POP PUSH2 0x3F0B DUP3 DUP6 PUSH2 0x3D98 JUMP JUMPDEST SWAP2 POP PUSH2 0x3F16 DUP3 PUSH2 0x3DF0 JUMP JUMPDEST SWAP2 POP PUSH2 0x3F21 DUP3 PUSH2 0x3E3A JUMP JUMPDEST SWAP2 POP PUSH2 0x3F2C DUP3 PUSH2 0x3D76 JUMP JUMPDEST SWAP2 POP PUSH2 0x3F38 DUP3 DUP5 PUSH2 0x3D98 JUMP JUMPDEST SWAP2 POP PUSH2 0x3F43 DUP3 PUSH2 0x3DF0 JUMP JUMPDEST SWAP2 POP PUSH2 0x3F4E DUP3 PUSH2 0x3E84 JUMP JUMPDEST SWAP2 POP DUP2 SWAP1 POP SWAP6 SWAP5 POP POP POP POP POP JUMP JUMPDEST PUSH32 0x646174613A6170706C69636174696F6E2F6A736F6E3B6261736536342C000000 PUSH0 DUP3 ADD MSTORE POP JUMP JUMPDEST PUSH0 PUSH2 0x3F90 PUSH1 0x1D DUP4 PUSH2 0x3B2C JUMP JUMPDEST SWAP2 POP PUSH2 0x3F9B DUP3 PUSH2 0x3F5C JUMP JUMPDEST PUSH1 0x1D DUP3 ADD SWAP1 POP SWAP2 SWAP1 POP JUMP JUMPDEST PUSH0 PUSH2 0x3FB0 DUP3 PUSH2 0x3F84 JUMP JUMPDEST SWAP2 POP PUSH2 0x3FBC DUP3 DUP5 PUSH2 0x3D98 JUMP JUMPDEST SWAP2 POP DUP2 SWAP1 POP SWAP3 SWAP2 POP POP JUMP JUMPDEST PUSH32 0x4552433732313A206F776E657220717565727920666F72206E6F6E6578697374 PUSH0 DUP3 ADD MSTORE PUSH32 0x656E7420746F6B656E0000000000000000000000000000000000000000000000 PUSH1 0x20 DUP3 ADD MSTORE POP JUMP JUMPDEST PUSH0 PUSH2 0x4021 PUSH1 0x29 DUP4 PUSH2 0x2E6D JUMP JUMPDEST SWAP2 POP PUSH2 0x402C DUP3 PUSH2 0x3FC7 JUMP JUMPDEST PUSH1 0x40 DUP3 ADD SWAP1 POP SWAP2 SWAP1 POP JUMP JUMPDEST PUSH0 PUSH1 0x20 DUP3 ADD SWAP1 POP DUP2 DUP2 SUB PUSH0 DUP4 ADD MSTORE PUSH2 0x404E DUP2 PUSH2 0x4015 JUMP JUMPDEST SWAP1 POP SWAP2 SWAP1 POP JUMP JUMPDEST PUSH32 0x4552433732313A2062616C616E636520717565727920666F7220746865207A65 PUSH0 DUP3 ADD MSTORE PUSH32 0x726F206164647265737300000000000000000000000000000000000000000000 PUSH1 0x20 DUP3 ADD MSTORE POP JUMP JUMPDEST PUSH0 PUSH2 0x40AF PUSH1 0x2A DUP4 PUSH2 0x2E6D JUMP JUMPDEST SWAP2 POP PUSH2 0x40BA DUP3 PUSH2 0x4055 JUMP JUMPDEST PUSH1 0x40 DUP3 ADD SWAP1 POP SWAP2 SWAP1 POP JUMP JUMPDEST PUSH0 PUSH1 0x20 DUP3 ADD SWAP1 POP DUP2 DUP2 SUB PUSH0 DUP4 ADD MSTORE PUSH2 0x40DC DUP2 PUSH2 0x40A3 JUMP JUMPDEST SWAP1 POP SWAP2 SWAP1 POP JUMP JUMPDEST PUSH32 0x4D7573742062652070726F706F736564206F776E657200000000000000000000 PUSH0 DUP3 ADD MSTORE POP JUMP JUMPDEST PUSH0 PUSH2 0x4117 PUSH1 0x16 DUP4 PUSH2 0x2E6D JUMP JUMPDEST SWAP2 POP PUSH2 0x4122 DUP3 PUSH2 0x40E3 JUMP JUMPDEST PUSH1 0x20 DUP3 ADD SWAP1 POP SWAP2 SWAP1 POP JUMP JUMPDEST PUSH0 PUSH1 0x20 DUP3 ADD SWAP1 POP DUP2 DUP2 SUB PUSH0 DUP4 ADD MSTORE PUSH2 0x4144 DUP2 PUSH2 0x410B JUMP JUMPDEST SWAP1 POP SWAP2 SWAP1 POP JUMP JUMPDEST PUSH0 PUSH1 0x60 DUP3 ADD SWAP1 POP PUSH2 0x415E PUSH0 DUP4 ADD DUP7 PUSH2 0x2F81 JUMP JUMPDEST PUSH2 0x416B PUSH1 0x20 DUP4 ADD DUP6 PUSH2 0x2F81 JUMP JUMPDEST PUSH2 0x4178 PUSH1 0x40 DUP4 ADD DUP5 PUSH2 0x2F81 JUMP JUMPDEST SWAP5 SWAP4 POP POP POP POP JUMP JUMPDEST PUSH2 0x4189 DUP2 PUSH2 0x3156 JUMP JUMPDEST DUP3 MSTORE POP POP JUMP JUMPDEST PUSH2 0x4198 DUP2 PUSH2 0x32DD JUMP JUMPDEST DUP3 MSTORE POP POP JUMP JUMPDEST PUSH2 0x41A7 DUP2 PUSH2 0x311F JUMP JUMPDEST DUP3 MSTORE POP POP JUMP JUMPDEST PUSH0 DUP2 MLOAD SWAP1 POP SWAP2 SWAP1 POP JUMP JUMPDEST PUSH0 DUP3 DUP3 MSTORE PUSH1 0x20 DUP3 ADD SWAP1 POP SWAP3 SWAP2 POP POP JUMP JUMPDEST PUSH0 PUSH2 0x41D1 DUP3 PUSH2 0x41AD JUMP JUMPDEST PUSH2 0x41DB DUP2 DUP6 PUSH2 0x41B7 JUMP JUMPDEST SWAP4 POP PUSH2 0x41EB DUP2 DUP6 PUSH1 0x20 DUP7 ADD PUSH2 0x2E7D JUMP JUMPDEST PUSH2 0x41F4 DUP2 PUSH2 0x2E8B JUMP JUMPDEST DUP5 ADD SWAP2 POP POP SWAP3 SWAP2 POP POP JUMP JUMPDEST PUSH0 PUSH1 0xC0 DUP4 ADD PUSH0 DUP4 ADD MLOAD PUSH2 0x4214 PUSH0 DUP7 ADD DUP3 PUSH2 0x4180 JUMP JUMPDEST POP PUSH1 0x20 DUP4 ADD MLOAD PUSH2 0x4227 PUSH1 0x20 DUP7 ADD DUP3 PUSH2 0x34E3 JUMP JUMPDEST POP PUSH1 0x40 DUP4 ADD MLOAD PUSH2 0x423A PUSH1 0x40 DUP7 ADD DUP3 PUSH2 0x418F JUMP JUMPDEST POP PUSH1 0x60 DUP4 ADD MLOAD PUSH2 0x424D PUSH1 0x60 DUP7 ADD DUP3 PUSH2 0x419E JUMP JUMPDEST POP PUSH1 0x80 DUP4 ADD MLOAD PUSH2 0x4260 PUSH1 0x80 DUP7 ADD DUP3 PUSH2 0x419E JUMP JUMPDEST POP PUSH1 0xA0 DUP4 ADD MLOAD DUP5 DUP3 SUB PUSH1 0xA0 DUP7 ADD MSTORE PUSH2 0x4278 DUP3 DUP3 PUSH2 0x41C7 JUMP JUMPDEST SWAP2 POP POP DUP1 SWAP2 POP POP SWAP3 SWAP2 POP POP JUMP JUMPDEST PUSH0 PUSH1 0x20 DUP3 ADD SWAP1 POP DUP2 DUP2 SUB PUSH0 DUP4 ADD MSTORE PUSH2 0x429D DUP2 DUP5 PUSH2 0x41FF JUMP JUMPDEST SWAP1 POP SWAP3 SWAP2 POP POP JUMP JUMPDEST PUSH0 DUP2 MLOAD SWAP1 POP PUSH2 0x42B3 DUP2 PUSH2 0x2EFC JUMP JUMPDEST SWAP3 SWAP2 POP POP JUMP JUMPDEST PUSH0 PUSH1 0x20 DUP3 DUP5 SUB SLT ISZERO PUSH2 0x42CE JUMPI PUSH2 0x42CD PUSH2 0x2DA8 JUMP JUMPDEST JUMPDEST PUSH0 PUSH2 0x42DB DUP5 DUP3 DUP6 ADD PUSH2 0x42A5 JUMP JUMPDEST SWAP2 POP POP SWAP3 SWAP2 POP POP JUMP JUMPDEST PUSH0 PUSH1 0x40 DUP3 ADD SWAP1 POP PUSH2 0x42F7 PUSH0 DUP4 ADD DUP6 PUSH2 0x31B2 JUMP JUMPDEST PUSH2 0x4304 PUSH1 0x20 DUP4 ADD DUP5 PUSH2 0x312E JUMP JUMPDEST SWAP4 SWAP3 POP POP POP JUMP JUMPDEST PUSH32 0x72657175657374206E6F7420666F756E64000000000000000000000000000000 PUSH0 DUP3 ADD MSTORE POP JUMP JUMPDEST PUSH0 PUSH2 0x433F PUSH1 0x11 DUP4 PUSH2 0x2E6D JUMP JUMPDEST SWAP2 POP PUSH2 0x434A DUP3 PUSH2 0x430B JUMP JUMPDEST PUSH1 0x20 DUP3 ADD SWAP1 POP SWAP2 SWAP1 POP JUMP JUMPDEST PUSH0 PUSH1 0x20 DUP3 ADD SWAP1 POP DUP2 DUP2 SUB PUSH0 DUP4 ADD MSTORE PUSH2 0x436C DUP2 PUSH2 0x4333 JUMP JUMPDEST SWAP1 POP SWAP2 SWAP1 POP JUMP JUMPDEST PUSH0 PUSH0 REVERT JUMPDEST DUP3 DUP2 DUP4 CALLDATACOPY POP POP POP JUMP JUMPDEST PUSH0 PUSH2 0x438B DUP4 DUP6 PUSH2 0x34C4 JUMP JUMPDEST SWAP4 POP PUSH32 0x7FFFFFFFFFFFFFFFFFFFFFFFFFFFFFFFFFFFFFFFFFFFFFFFFFFFFFFFFFFFFFF DUP4 GT ISZERO PUSH2 0x43BE JUMPI PUSH2 0x43BD PUSH2 0x4373 JUMP JUMPDEST JUMPDEST PUSH1 0x20 DUP4 MUL SWAP3 POP PUSH2 0x43CF DUP4 DUP6 DUP5 PUSH2 0x4377 JUMP JUMPDEST DUP3 DUP5 ADD SWAP1 POP SWAP4 SWAP3 POP POP POP JUMP JUMPDEST PUSH0 PUSH1 0x40 DUP3 ADD SWAP1 POP PUSH2 0x43EE PUSH0 DUP4 ADD DUP7 PUSH2 0x31B2 JUMP JUMPDEST DUP2 DUP2 SUB PUSH1 0x20 DUP4 ADD MSTORE PUSH2 0x4401 DUP2 DUP5 DUP7 PUSH2 0x4380 JUMP JUMPDEST SWAP1 POP SWAP5 SWAP4 POP POP POP POP JUMP JUMPDEST PUSH32 0x4E487B7100000000000000000000000000000000000000000000000000000000 PUSH0 MSTORE PUSH1 0x12 PUSH1 0x4 MSTORE PUSH1 0x24 PUSH0 REVERT JUMPDEST PUSH0 PUSH2 0x4442 DUP3 PUSH2 0x2EF3 JUMP JUMPDEST SWAP2 POP PUSH2 0x444D DUP4 PUSH2 0x2EF3 JUMP JUMPDEST SWAP3 POP DUP3 PUSH2 0x445D JUMPI PUSH2 0x445C PUSH2 0x440B JUMP JUMPDEST JUMPDEST DUP3 DUP3 MOD SWAP1 POP SWAP3 SWAP2 POP POP JUMP JUMPDEST PUSH32 0x4E487B7100000000000000000000000000000000000000000000000000000000 PUSH0 MSTORE PUSH1 0x11 PUSH1 0x4 MSTORE PUSH1 0x24 PUSH0 REVERT JUMPDEST PUSH0 PUSH2 0x449F DUP3 PUSH2 0x2EF3 JUMP JUMPDEST SWAP2 POP PUSH2 0x44AA DUP4 PUSH2 0x2EF3 JUMP JUMPDEST SWAP3 POP DUP3 DUP3 ADD SWAP1 POP DUP1 DUP3 GT ISZERO PUSH2 0x44C2 JUMPI PUSH2 0x44C1 PUSH2 0x4468 JUMP JUMPDEST JUMPDEST SWAP3 SWAP2 POP POP JUMP JUMPDEST PUSH0 PUSH2 0x44D2 DUP3 PUSH2 0x2EF3 JUMP JUMPDEST SWAP2 POP PUSH32 0xFFFFFFFFFFFFFFFFFFFFFFFFFFFFFFFFFFFFFFFFFFFFFFFFFFFFFFFFFFFFFFFF DUP3 SUB PUSH2 0x4504 JUMPI PUSH2 0x4503 PUSH2 0x4468 JUMP JUMPDEST JUMPDEST PUSH1 0x1 DUP3 ADD SWAP1 POP SWAP2 SWAP1 POP JUMP JUMPDEST PUSH32 0x4552433732313A206F70657261746F7220717565727920666F72206E6F6E6578 PUSH0 DUP3 ADD MSTORE PUSH32 0x697374656E7420746F6B656E0000000000000000000000000000000000000000 PUSH1 0x20 DUP3 ADD MSTORE POP JUMP JUMPDEST PUSH0 PUSH2 0x4569 PUSH1 0x2C DUP4 PUSH2 0x2E6D JUMP JUMPDEST SWAP2 POP PUSH2 0x4574 DUP3 PUSH2 0x450F JUMP JUMPDEST PUSH1 0x40 DUP3 ADD SWAP1 POP SWAP2 SWAP1 POP JUMP JUMPDEST PUSH0 PUSH1 0x20 DUP3 ADD SWAP1 POP DUP2 DUP2 SUB PUSH0 DUP4 ADD MSTORE PUSH2 0x4596 DUP2 PUSH2 0x455D JUMP JUMPDEST SWAP1 POP SWAP2 SWAP1 POP JUMP JUMPDEST PUSH32 0x4552433732313A207472616E736665722066726F6D20696E636F727265637420 PUSH0 DUP3 ADD MSTORE PUSH32 0x6F776E6572000000000000000000000000000000000000000000000000000000 PUSH1 0x20 DUP3 ADD MSTORE POP JUMP JUMPDEST PUSH0 PUSH2 0x45F7 PUSH1 0x25 DUP4 PUSH2 0x2E6D JUMP JUMPDEST SWAP2 POP PUSH2 0x4602 DUP3 PUSH2 0x459D JUMP JUMPDEST PUSH1 0x40 DUP3 ADD SWAP1 POP SWAP2 SWAP1 POP JUMP JUMPDEST PUSH0 PUSH1 0x20 DUP3 ADD SWAP1 POP DUP2 DUP2 SUB PUSH0 DUP4 ADD MSTORE PUSH2 0x4624 DUP2 PUSH2 0x45EB JUMP JUMPDEST SWAP1 POP SWAP2 SWAP1 POP JUMP JUMPDEST PUSH32 0x4552433732313A207472616E7366657220746F20746865207A65726F20616464 PUSH0 DUP3 ADD MSTORE PUSH32 0x7265737300000000000000000000000000000000000000000000000000000000 PUSH1 0x20 DUP3 ADD MSTORE POP JUMP JUMPDEST PUSH0 PUSH2 0x4685 PUSH1 0x24 DUP4 PUSH2 0x2E6D JUMP JUMPDEST SWAP2 POP PUSH2 0x4690 DUP3 PUSH2 0x462B JUMP JUMPDEST PUSH1 0x40 DUP3 ADD SWAP1 POP SWAP2 SWAP1 POP JUMP JUMPDEST PUSH0 PUSH1 0x20 DUP3 ADD SWAP1 POP DUP2 DUP2 SUB PUSH0 DUP4 ADD MSTORE PUSH2 0x46B2 DUP2 PUSH2 0x4679 JUMP JUMPDEST SWAP1 POP SWAP2 SWAP1 POP JUMP JUMPDEST PUSH0 PUSH2 0x46C3 DUP3 PUSH2 0x2EF3 JUMP JUMPDEST SWAP2 POP PUSH2 0x46CE DUP4 PUSH2 0x2EF3 JUMP JUMPDEST SWAP3 POP DUP3 DUP3 SUB SWAP1 POP DUP2 DUP2 GT ISZERO PUSH2 0x46E6 JUMPI PUSH2 0x46E5 PUSH2 0x4468 JUMP JUMPDEST JUMPDEST SWAP3 SWAP2 POP POP JUMP JUMPDEST PUSH0 PUSH2 0x46F6 DUP3 PUSH2 0x2EF3 JUMP JUMPDEST SWAP2 POP PUSH2 0x4701 DUP4 PUSH2 0x2EF3 JUMP JUMPDEST SWAP3 POP DUP3 PUSH2 0x4711 JUMPI PUSH2 0x4710 PUSH2 0x440B JUMP JUMPDEST JUMPDEST DUP3 DUP3 DIV SWAP1 POP SWAP3 SWAP2 POP POP JUMP JUMPDEST PUSH0 PUSH2 0x4726 DUP3 PUSH2 0x2EF3 JUMP JUMPDEST SWAP2 POP PUSH2 0x4731 DUP4 PUSH2 0x2EF3 JUMP JUMPDEST SWAP3 POP DUP3 DUP3 MUL PUSH2 0x473F DUP2 PUSH2 0x2EF3 JUMP JUMPDEST SWAP2 POP DUP3 DUP3 DIV DUP5 EQ DUP4 ISZERO OR PUSH2 0x4756 JUMPI PUSH2 0x4755 PUSH2 0x4468 JUMP JUMPDEST JUMPDEST POP SWAP3 SWAP2 POP POP JUMP JUMPDEST PUSH32 0x45524337323155524953746F726167653A2055524920736574206F66206E6F6E PUSH0 DUP3 ADD MSTORE PUSH32 0x6578697374656E7420746F6B656E000000000000000000000000000000000000 PUSH1 0x20 DUP3 ADD MSTORE POP JUMP JUMPDEST PUSH0 PUSH2 0x47B7 PUSH1 0x2E DUP4 PUSH2 0x2E6D JUMP JUMPDEST SWAP2 POP PUSH2 0x47C2 DUP3 PUSH2 0x475D JUMP JUMPDEST PUSH1 0x40 DUP3 ADD SWAP1 POP SWAP2 SWAP1 POP JUMP JUMPDEST PUSH0 PUSH1 0x20 DUP3 ADD SWAP1 POP DUP2 DUP2 SUB PUSH0 DUP4 ADD MSTORE PUSH2 0x47E4 DUP2 PUSH2 0x47AB JUMP JUMPDEST SWAP1 POP SWAP2 SWAP1 POP JUMP JUMPDEST PUSH32 0x4552433732313A20617070726F766520746F2063616C6C657200000000000000 PUSH0 DUP3 ADD MSTORE POP JUMP JUMPDEST PUSH0 PUSH2 0x481F PUSH1 0x19 DUP4 PUSH2 0x2E6D JUMP JUMPDEST SWAP2 POP PUSH2 0x482A DUP3 PUSH2 0x47EB JUMP JUMPDEST PUSH1 0x20 DUP3 ADD SWAP1 POP SWAP2 SWAP1 POP JUMP JUMPDEST PUSH0 PUSH1 0x20 DUP3 ADD SWAP1 POP DUP2 DUP2 SUB PUSH0 DUP4 ADD MSTORE PUSH2 0x484C DUP2 PUSH2 0x4813 JUMP JUMPDEST SWAP1 POP SWAP2 SWAP1 POP JUMP JUMPDEST PUSH32 0x4552433732313A207472616E7366657220746F206E6F6E204552433732315265 PUSH0 DUP3 ADD MSTORE PUSH32 0x63656976657220696D706C656D656E7465720000000000000000000000000000 PUSH1 0x20 DUP3 ADD MSTORE POP JUMP JUMPDEST PUSH0 PUSH2 0x48AD PUSH1 0x32 DUP4 PUSH2 0x2E6D JUMP JUMPDEST SWAP2 POP PUSH2 0x48B8 DUP3 PUSH2 0x4853 JUMP JUMPDEST PUSH1 0x40 DUP3 ADD SWAP1 POP SWAP2 SWAP1 POP JUMP JUMPDEST PUSH0 PUSH1 0x20 DUP3 ADD SWAP1 POP DUP2 DUP2 SUB PUSH0 DUP4 ADD MSTORE PUSH2 0x48DA DUP2 PUSH2 0x48A1 JUMP JUMPDEST SWAP1 POP SWAP2 SWAP1 POP JUMP JUMPDEST PUSH2 0x48EA DUP2 PUSH2 0x2E30 JUMP JUMPDEST DUP3 MSTORE POP POP JUMP JUMPDEST PUSH1 0x20 DUP3 ADD PUSH0 DUP3 ADD MLOAD PUSH2 0x4904 PUSH0 DUP6 ADD DUP3 PUSH2 0x48E1 JUMP JUMPDEST POP POP POP POP JUMP JUMPDEST PUSH0 PUSH1 0x20 DUP3 ADD SWAP1 POP PUSH2 0x491D PUSH0 DUP4 ADD DUP5 PUSH2 0x48F0 JUMP JUMPDEST SWAP3 SWAP2 POP POP JUMP JUMPDEST PUSH32 0x45524337323155524953746F726167653A2055524920717565727920666F7220 PUSH0 DUP3 ADD MSTORE PUSH32 0x6E6F6E6578697374656E7420746F6B656E000000000000000000000000000000 PUSH1 0x20 DUP3 ADD MSTORE POP JUMP JUMPDEST PUSH0 PUSH2 0x497D PUSH1 0x31 DUP4 PUSH2 0x2E6D JUMP JUMPDEST SWAP2 POP PUSH2 0x4988 DUP3 PUSH2 0x4923 JUMP JUMPDEST PUSH1 0x40 DUP3 ADD SWAP1 POP SWAP2 SWAP1 POP JUMP JUMPDEST PUSH0 PUSH1 0x20 DUP3 ADD SWAP1 POP DUP2 DUP2 SUB PUSH0 DUP4 ADD MSTORE PUSH2 0x49AA DUP2 PUSH2 0x4971 JUMP JUMPDEST SWAP1 POP SWAP2 SWAP1 POP JUMP JUMPDEST PUSH0 PUSH2 0x49BC DUP3 DUP6 PUSH2 0x3D98 JUMP JUMPDEST SWAP2 POP PUSH2 0x49C8 DUP3 DUP5 PUSH2 0x3D98 JUMP JUMPDEST SWAP2 POP DUP2 SWAP1 POP SWAP4 SWAP3 POP POP POP JUMP JUMPDEST PUSH32 0x4F6E6C792063616C6C61626C65206279206F776E657200000000000000000000 PUSH0 DUP3 ADD MSTORE POP JUMP JUMPDEST PUSH0 PUSH2 0x4A08 PUSH1 0x16 DUP4 PUSH2 0x2E6D JUMP JUMPDEST SWAP2 POP PUSH2 0x4A13 DUP3 PUSH2 0x49D4 JUMP JUMPDEST PUSH1 0x20 DUP3 ADD SWAP1 POP SWAP2 SWAP1 POP JUMP JUMPDEST PUSH0 PUSH1 0x20 DUP3 ADD SWAP1 POP DUP2 DUP2 SUB PUSH0 DUP4 ADD MSTORE PUSH2 0x4A35 DUP2 PUSH2 0x49FC JUMP JUMPDEST SWAP1 POP SWAP2 SWAP1 POP JUMP JUMPDEST PUSH32 0x43616E6E6F74207472616E7366657220746F2073656C66000000000000000000 PUSH0 DUP3 ADD MSTORE POP JUMP JUMPDEST PUSH0 PUSH2 0x4A70 PUSH1 0x17 DUP4 PUSH2 0x2E6D JUMP JUMPDEST SWAP2 POP PUSH2 0x4A7B DUP3 PUSH2 0x4A3C JUMP JUMPDEST PUSH1 0x20 DUP3 ADD SWAP1 POP SWAP2 SWAP1 POP JUMP JUMPDEST PUSH0 PUSH1 0x20 DUP3 ADD SWAP1 POP DUP2 DUP2 SUB PUSH0 DUP4 ADD MSTORE PUSH2 0x4A9D DUP2 PUSH2 0x4A64 JUMP JUMPDEST SWAP1 POP SWAP2 SWAP1 POP JUMP JUMPDEST PUSH0 DUP3 DUP3 MSTORE PUSH1 0x20 DUP3 ADD SWAP1 POP SWAP3 SWAP2 POP POP JUMP JUMPDEST PUSH0 PUSH2 0x4ABE DUP3 PUSH2 0x41AD JUMP JUMPDEST PUSH2 0x4AC8 DUP2 DUP6 PUSH2 0x4AA4 JUMP JUMPDEST SWAP4 POP PUSH2 0x4AD8 DUP2 DUP6 PUSH1 0x20 DUP7 ADD PUSH2 0x2E7D JUMP JUMPDEST PUSH2 0x4AE1 DUP2 PUSH2 0x2E8B JUMP JUMPDEST DUP5 ADD SWAP2 POP POP SWAP3 SWAP2 POP POP JUMP JUMPDEST PUSH0 PUSH1 0x80 DUP3 ADD SWAP1 POP PUSH2 0x4AFF PUSH0 DUP4 ADD DUP8 PUSH2 0x2F81 JUMP JUMPDEST PUSH2 0x4B0C PUSH1 0x20 DUP4 ADD DUP7 PUSH2 0x2F81 JUMP JUMPDEST PUSH2 0x4B19 PUSH1 0x40 DUP4 ADD DUP6 PUSH2 0x31B2 JUMP JUMPDEST DUP2 DUP2 SUB PUSH1 0x60 DUP4 ADD MSTORE PUSH2 0x4B2B DUP2 DUP5 PUSH2 0x4AB4 JUMP JUMPDEST SWAP1 POP SWAP6 SWAP5 POP POP POP POP POP JUMP JUMPDEST PUSH0 DUP2 MLOAD SWAP1 POP PUSH2 0x4B44 DUP2 PUSH2 0x2DDB JUMP JUMPDEST SWAP3 SWAP2 POP POP JUMP JUMPDEST PUSH0 PUSH1 0x20 DUP3 DUP5 SUB SLT ISZERO PUSH2 0x4B5F JUMPI PUSH2 0x4B5E PUSH2 0x2DA8 JUMP JUMPDEST JUMPDEST PUSH0 PUSH2 0x4B6C DUP5 DUP3 DUP6 ADD PUSH2 0x4B36 JUMP JUMPDEST SWAP2 POP POP SWAP3 SWAP2 POP POP JUMP JUMPDEST PUSH32 0x4552433732314D657461646174613A2055524920717565727920666F72206E6F PUSH0 DUP3 ADD MSTORE PUSH32 0x6E6578697374656E7420746F6B656E0000000000000000000000000000000000 PUSH1 0x20 DUP3 ADD MSTORE POP JUMP JUMPDEST PUSH0 PUSH2 0x4BCF PUSH1 0x2F DUP4 PUSH2 0x2E6D JUMP JUMPDEST SWAP2 POP PUSH2 0x4BDA DUP3 PUSH2 0x4B75 JUMP JUMPDEST PUSH1 0x40 DUP3 ADD SWAP1 POP SWAP2 SWAP1 POP JUMP JUMPDEST PUSH0 PUSH1 0x20 DUP3 ADD SWAP1 POP DUP2 DUP2 SUB PUSH0 DUP4 ADD MSTORE PUSH2 0x4BFC DUP2 PUSH2 0x4BC3 JUMP JUMPDEST SWAP1 POP SWAP2 SWAP1 POP JUMP JUMPDEST PUSH32 0x4552433732313A206D696E7420746F20746865207A65726F2061646472657373 PUSH0 DUP3 ADD MSTORE POP JUMP JUMPDEST PUSH0 PUSH2 0x4C37 PUSH1 0x20 DUP4 PUSH2 0x2E6D JUMP JUMPDEST SWAP2 POP PUSH2 0x4C42 DUP3 PUSH2 0x4C03 JUMP JUMPDEST PUSH1 0x20 DUP3 ADD SWAP1 POP SWAP2 SWAP1 POP JUMP JUMPDEST PUSH0 PUSH1 0x20 DUP3 ADD SWAP1 POP DUP2 DUP2 SUB PUSH0 DUP4 ADD MSTORE PUSH2 0x4C64 DUP2 PUSH2 0x4C2B JUMP JUMPDEST SWAP1 POP SWAP2 SWAP1 POP JUMP JUMPDEST PUSH32 0x4552433732313A20746F6B656E20616C7265616479206D696E74656400000000 PUSH0 DUP3 ADD MSTORE POP JUMP JUMPDEST PUSH0 PUSH2 0x4C9F PUSH1 0x1C DUP4 PUSH2 0x2E6D JUMP JUMPDEST SWAP2 POP PUSH2 0x4CAA DUP3 PUSH2 0x4C6B JUMP JUMPDEST PUSH1 0x20 DUP3 ADD SWAP1 POP SWAP2 SWAP1 POP JUMP JUMPDEST PUSH0 PUSH1 0x20 DUP3 ADD SWAP1 POP DUP2 DUP2 SUB PUSH0 DUP4 ADD MSTORE PUSH2 0x4CCC DUP2 PUSH2 0x4C93 JUMP JUMPDEST SWAP1 POP SWAP2 SWAP1 POP JUMP INVALID COINBASE TIMESTAMP NUMBER PREVRANDAO GASLIMIT CHAINID SELFBALANCE BASEFEE BLOBHASH BLOBBASEFEE 0x4B 0x4C 0x4D 0x4E 0x4F POP MLOAD MSTORE MSTORE8 SLOAD SSTORE JUMP JUMPI PC MSIZE GAS PUSH2 0x6263 PUSH5 0x6566676869 PUSH11 0x6B6C6D6E6F707172737475 PUSH23 0x7778797A303132333435363738392B2FA2646970667358 0x22 SLT KECCAK256 SGT SLT 0xED EXTCODECOPY SAR MLOAD 0xE6 0xC1 SELFDESTRUCT PC GAS CALLCODE 0xEB MSTORE8 0xF8 0xC7 DIV PUSH18 0x6F3F1DE787EAA38B408A337F269964736F6C PUSH4 0x4300081B STOP CALLER PUSH9 0x747470733A2F2F6970 PUSH7 0x732E696F2F6970 PUSH7 0x732F516D573174 PUSH16 0x61705973374D3239727A4C5854454E6E CALLER PUSH17 0x6276776538696F696B583150777A41437A PUSH11 0x666448503F66696C656E61 PUSH14 0x653D436861696E6C696E6B5F4F72 PUSH4 0x2E706E67 PUSH9 0x747470733A2F2F6970 PUSH7 0x732E696F2F6970 PUSH7 0x732F516D5A4751 COINBASE CODECOPY ORIGIN PUSH19 0x69316A667A537536314A52614E515859673162 0x4C PUSH22 0x4D37703859543833447A4641324B4C483F66696C656E PUSH2 0x6D65 RETURNDATASIZE NUMBER PUSH9 0x61696E6C696E6B5F4B PUSH15 0x696768742E706E6768747470733A2F 0x2F PUSH10 0x7066732E696F2F697066 PUSH20 0x2F516D504D775174467045644B72556A70514A66 PUSH16 0x54655A533161565365754A54364D6F66 CALLDATACOPY PUSH22 0x56323941635570463F66696C656E616D653D43686169 PUSH15 0x6C696E6B5F57697463682E706E6768 PUSH21 0x7470733A2F2F697066732E696F2F697066732F516D SLOAD PUSH8 0x716E6846424D6B66 SLOAD CODECOPY PUSH20 0x3850484B636458426E3166356247335135686D42 PUSH2 0x5234 SSTORE CALLDATASIZE PUSH9 0x6F547662313F66696C PUSH6 0x6E616D653D43 PUSH9 0x61696E6C696E6B5F45 PUSH13 0x662E706E670000000000000000 "
		},
		"gasEstimates": {
			"creation": {
				"codeDepositCost": "3957000",
				"executionCost": "infinite",
				"totalCost": "infinite"
			},
			"external": {
				"acceptOwnership()": "54600",
				"approve(address,uint256)": "infinite",
				"balanceOf(address)": "2908",
				"callbackGasLimit()": "2578",
				"getApproved(uint256)": "5233",
				"getRequestStatus(uint256)": "infinite",
				"isApprovedForAll(address,address)": "infinite",
				"keyHash()": "2515",
				"lastRequestId()": "2535",
				"name()": "infinite",
				"numWords()": "2606",
				"owner()": "2583",
				"ownerOf(uint256)": "3070",
				"rawFulfillRandomWords(uint256,uint256[])": "infinite",
				"requestConfirmations()": "2562",
				"requestIds(uint256)": "infinite",
				"requestRandomWords(uint256)": "infinite",
				"s_requests(uint256)": "infinite",
				"s_subscriptionId()": "2471",
				"s_vrfCoordinator()": "infinite",
				"safeMint(uint256)": "infinite",
				"safeTransferFrom(address,address,uint256)": "infinite",
				"safeTransferFrom(address,address,uint256,bytes)": "infinite",
				"setApprovalForAll(address,bool)": "infinite",
				"setCoordinator(address)": "infinite",
				"supportsInterface(bytes4)": "810",
				"symbol()": "infinite",
				"tokenIdCounter()": "2483",
				"tokenURI(uint256)": "infinite",
				"transferFrom(address,address,uint256)": "infinite",
				"transferOwnership(address)": "30739"
			},
			"internal": {
				"_burn(uint256)": "infinite",
				"fulfillRandomWords(uint256,uint256[] calldata)": "infinite"
			}
		},
		"methodIdentifiers": {
			"acceptOwnership()": "79ba5097",
			"approve(address,uint256)": "095ea7b3",
			"balanceOf(address)": "70a08231",
			"callbackGasLimit()": "24f74697",
			"getApproved(uint256)": "081812fc",
			"getRequestStatus(uint256)": "d8a4676f",
			"isApprovedForAll(address,address)": "e985e9c5",
			"keyHash()": "61728f39",
			"lastRequestId()": "fc2a88c3",
			"name()": "06fdde03",
			"numWords()": "7ccfd7fc",
			"owner()": "8da5cb5b",
			"ownerOf(uint256)": "6352211e",
			"rawFulfillRandomWords(uint256,uint256[])": "1fe543e3",
			"requestConfirmations()": "b0fb162f",
			"requestIds(uint256)": "8796ba8c",
			"requestRandomWords(uint256)": "bc85777c",
			"s_requests(uint256)": "a168fa89",
			"s_subscriptionId()": "8ac00021",
			"s_vrfCoordinator()": "9eccacf6",
			"safeMint(uint256)": "31c864e8",
			"safeTransferFrom(address,address,uint256)": "42842e0e",
			"safeTransferFrom(address,address,uint256,bytes)": "b88d4fde",
			"setApprovalForAll(address,bool)": "a22cb465",
			"setCoordinator(address)": "8ea98117",
			"supportsInterface(bytes4)": "01ffc9a7",
			"symbol()": "95d89b41",
			"tokenIdCounter()": "98bdf6f5",
			"tokenURI(uint256)": "c87b56dd",
			"transferFrom(address,address,uint256)": "23b872dd",
			"transferOwnership(address)": "f2fde38b"
		}
	},
	"abi": [
		{
			"inputs": [
				{
					"internalType": "uint256",
					"name": "subscriptionId",
					"type": "uint256"
				}
			],
			"stateMutability": "nonpayable",
			"type": "constructor"
		},
		{
			"inputs": [
				{
					"internalType": "address",
					"name": "have",
					"type": "address"
				},
				{
					"internalType": "address",
					"name": "want",
					"type": "address"
				}
			],
			"name": "OnlyCoordinatorCanFulfill",
			"type": "error"
		},
		{
			"inputs": [
				{
					"internalType": "address",
					"name": "have",
					"type": "address"
				},
				{
					"internalType": "address",
					"name": "owner",
					"type": "address"
				},
				{
					"internalType": "address",
					"name": "coordinator",
					"type": "address"
				}
			],
			"name": "OnlyOwnerOrCoordinator",
			"type": "error"
		},
		{
			"inputs": [],
			"name": "ZeroAddress",
			"type": "error"
		},
		{
			"inputs": [],
			"name": "invalidNumb",
			"type": "error"
		},
		{
			"anonymous": false,
			"inputs": [
				{
					"indexed": true,
					"internalType": "address",
					"name": "owner",
					"type": "address"
				},
				{
					"indexed": true,
					"internalType": "address",
					"name": "approved",
					"type": "address"
				},
				{
					"indexed": true,
					"internalType": "uint256",
					"name": "tokenId",
					"type": "uint256"
				}
			],
			"name": "Approval",
			"type": "event"
		},
		{
			"anonymous": false,
			"inputs": [
				{
					"indexed": true,
					"internalType": "address",
					"name": "owner",
					"type": "address"
				},
				{
					"indexed": true,
					"internalType": "address",
					"name": "operator",
					"type": "address"
				},
				{
					"indexed": false,
					"internalType": "bool",
					"name": "approved",
					"type": "bool"
				}
			],
			"name": "ApprovalForAll",
			"type": "event"
		},
		{
			"anonymous": false,
			"inputs": [
				{
					"indexed": false,
					"internalType": "address",
					"name": "vrfCoordinator",
					"type": "address"
				}
			],
			"name": "CoordinatorSet",
			"type": "event"
		},
		{
			"anonymous": false,
			"inputs": [
				{
					"indexed": true,
					"internalType": "address",
					"name": "from",
					"type": "address"
				},
				{
					"indexed": true,
					"internalType": "address",
					"name": "to",
					"type": "address"
				}
			],
			"name": "OwnershipTransferRequested",
			"type": "event"
		},
		{
			"anonymous": false,
			"inputs": [
				{
					"indexed": true,
					"internalType": "address",
					"name": "from",
					"type": "address"
				},
				{
					"indexed": true,
					"internalType": "address",
					"name": "to",
					"type": "address"
				}
			],
			"name": "OwnershipTransferred",
			"type": "event"
		},
		{
			"anonymous": false,
			"inputs": [
				{
					"indexed": false,
					"internalType": "uint256",
					"name": "requestId",
					"type": "uint256"
				},
				{
					"indexed": false,
					"internalType": "uint256[]",
					"name": "randomWords",
					"type": "uint256[]"
				}
			],
			"name": "RequestFulfilled",
			"type": "event"
		},
		{
			"anonymous": false,
			"inputs": [
				{
					"indexed": false,
					"internalType": "uint256",
					"name": "requestId",
					"type": "uint256"
				},
				{
					"indexed": false,
					"internalType": "uint32",
					"name": "numWords",
					"type": "uint32"
				}
			],
			"name": "RequestSent",
			"type": "event"
		},
		{
			"anonymous": false,
			"inputs": [
				{
					"indexed": true,
					"internalType": "address",
					"name": "from",
					"type": "address"
				},
				{
					"indexed": true,
					"internalType": "address",
					"name": "to",
					"type": "address"
				},
				{
					"indexed": true,
					"internalType": "uint256",
					"name": "tokenId",
					"type": "uint256"
				}
			],
			"name": "Transfer",
			"type": "event"
		},
		{
			"inputs": [],
			"name": "acceptOwnership",
			"outputs": [],
			"stateMutability": "nonpayable",
			"type": "function"
		},
		{
			"inputs": [
				{
					"internalType": "address",
					"name": "to",
					"type": "address"
				},
				{
					"internalType": "uint256",
					"name": "tokenId",
					"type": "uint256"
				}
			],
			"name": "approve",
			"outputs": [],
			"stateMutability": "nonpayable",
			"type": "function"
		},
		{
			"inputs": [
				{
					"internalType": "address",
					"name": "owner",
					"type": "address"
				}
			],
			"name": "balanceOf",
			"outputs": [
				{
					"internalType": "uint256",
					"name": "",
					"type": "uint256"
				}
			],
			"stateMutability": "view",
			"type": "function"
		},
		{
			"inputs": [],
			"name": "callbackGasLimit",
			"outputs": [
				{
					"internalType": "uint32",
					"name": "",
					"type": "uint32"
				}
			],
			"stateMutability": "view",
			"type": "function"
		},
		{
			"inputs": [
				{
					"internalType": "uint256",
					"name": "tokenId",
					"type": "uint256"
				}
			],
			"name": "getApproved",
			"outputs": [
				{
					"internalType": "address",
					"name": "",
					"type": "address"
				}
			],
			"stateMutability": "view",
			"type": "function"
		},
		{
			"inputs": [
				{
					"internalType": "uint256",
					"name": "_requestId",
					"type": "uint256"
				}
			],
			"name": "getRequestStatus",
			"outputs": [
				{
					"internalType": "bool",
					"name": "fulfilled",
					"type": "bool"
				},
				{
					"internalType": "uint256[]",
					"name": "randomWords",
					"type": "uint256[]"
				}
			],
			"stateMutability": "view",
			"type": "function"
		},
		{
			"inputs": [
				{
					"internalType": "address",
					"name": "owner",
					"type": "address"
				},
				{
					"internalType": "address",
					"name": "operator",
					"type": "address"
				}
			],
			"name": "isApprovedForAll",
			"outputs": [
				{
					"internalType": "bool",
					"name": "",
					"type": "bool"
				}
			],
			"stateMutability": "view",
			"type": "function"
		},
		{
			"inputs": [],
			"name": "keyHash",
			"outputs": [
				{
					"internalType": "bytes32",
					"name": "",
					"type": "bytes32"
				}
			],
			"stateMutability": "view",
			"type": "function"
		},
		{
			"inputs": [],
			"name": "lastRequestId",
			"outputs": [
				{
					"internalType": "uint256",
					"name": "",
					"type": "uint256"
				}
			],
			"stateMutability": "view",
			"type": "function"
		},
		{
			"inputs": [],
			"name": "name",
			"outputs": [
				{
					"internalType": "string",
					"name": "",
					"type": "string"
				}
			],
			"stateMutability": "view",
			"type": "function"
		},
		{
			"inputs": [],
			"name": "numWords",
			"outputs": [
				{
					"internalType": "uint32",
					"name": "",
					"type": "uint32"
				}
			],
			"stateMutability": "view",
			"type": "function"
		},
		{
			"inputs": [],
			"name": "owner",
			"outputs": [
				{
					"internalType": "address",
					"name": "",
					"type": "address"
				}
			],
			"stateMutability": "view",
			"type": "function"
		},
		{
			"inputs": [
				{
					"internalType": "uint256",
					"name": "tokenId",
					"type": "uint256"
				}
			],
			"name": "ownerOf",
			"outputs": [
				{
					"internalType": "address",
					"name": "",
					"type": "address"
				}
			],
			"stateMutability": "view",
			"type": "function"
		},
		{
			"inputs": [
				{
					"internalType": "uint256",
					"name": "requestId",
					"type": "uint256"
				},
				{
					"internalType": "uint256[]",
					"name": "randomWords",
					"type": "uint256[]"
				}
			],
			"name": "rawFulfillRandomWords",
			"outputs": [],
			"stateMutability": "nonpayable",
			"type": "function"
		},
		{
			"inputs": [],
			"name": "requestConfirmations",
			"outputs": [
				{
					"internalType": "uint16",
					"name": "",
					"type": "uint16"
				}
			],
			"stateMutability": "view",
			"type": "function"
		},
		{
			"inputs": [
				{
					"internalType": "uint256",
					"name": "",
					"type": "uint256"
				}
			],
			"name": "requestIds",
			"outputs": [
				{
					"internalType": "uint256",
					"name": "",
					"type": "uint256"
				}
			],
			"stateMutability": "view",
			"type": "function"
		},
		{
			"inputs": [
				{
					"internalType": "uint256",
					"name": "tokenId",
					"type": "uint256"
				}
			],
			"name": "requestRandomWords",
			"outputs": [
				{
					"internalType": "uint256",
					"name": "requestId",
					"type": "uint256"
				}
			],
			"stateMutability": "nonpayable",
			"type": "function"
		},
		{
			"inputs": [
				{
					"internalType": "uint256",
					"name": "",
					"type": "uint256"
				}
			],
			"name": "s_requests",
			"outputs": [
				{
					"internalType": "bool",
					"name": "fulfilled",
					"type": "bool"
				},
				{
					"internalType": "bool",
					"name": "exists",
					"type": "bool"
				}
			],
			"stateMutability": "view",
			"type": "function"
		},
		{
			"inputs": [],
			"name": "s_subscriptionId",
			"outputs": [
				{
					"internalType": "uint256",
					"name": "",
					"type": "uint256"
				}
			],
			"stateMutability": "view",
			"type": "function"
		},
		{
			"inputs": [],
			"name": "s_vrfCoordinator",
			"outputs": [
				{
					"internalType": "contract IVRFCoordinatorV2Plus",
					"name": "",
					"type": "address"
				}
			],
			"stateMutability": "view",
			"type": "function"
		},
		{
			"inputs": [
				{
					"internalType": "uint256",
					"name": "charId",
					"type": "uint256"
				}
			],
			"name": "safeMint",
			"outputs": [],
			"stateMutability": "nonpayable",
			"type": "function"
		},
		{
			"inputs": [
				{
					"internalType": "address",
					"name": "from",
					"type": "address"
				},
				{
					"internalType": "address",
					"name": "to",
					"type": "address"
				},
				{
					"internalType": "uint256",
					"name": "tokenId",
					"type": "uint256"
				}
			],
			"name": "safeTransferFrom",
			"outputs": [],
			"stateMutability": "nonpayable",
			"type": "function"
		},
		{
			"inputs": [
				{
					"internalType": "address",
					"name": "from",
					"type": "address"
				},
				{
					"internalType": "address",
					"name": "to",
					"type": "address"
				},
				{
					"internalType": "uint256",
					"name": "tokenId",
					"type": "uint256"
				},
				{
					"internalType": "bytes",
					"name": "_data",
					"type": "bytes"
				}
			],
			"name": "safeTransferFrom",
			"outputs": [],
			"stateMutability": "nonpayable",
			"type": "function"
		},
		{
			"inputs": [
				{
					"internalType": "address",
					"name": "operator",
					"type": "address"
				},
				{
					"internalType": "bool",
					"name": "approved",
					"type": "bool"
				}
			],
			"name": "setApprovalForAll",
			"outputs": [],
			"stateMutability": "nonpayable",
			"type": "function"
		},
		{
			"inputs": [
				{
					"internalType": "address",
					"name": "_vrfCoordinator",
					"type": "address"
				}
			],
			"name": "setCoordinator",
			"outputs": [],
			"stateMutability": "nonpayable",
			"type": "function"
		},
		{
			"inputs": [
				{
					"internalType": "bytes4",
					"name": "interfaceId",
					"type": "bytes4"
				}
			],
			"name": "supportsInterface",
			"outputs": [
				{
					"internalType": "bool",
					"name": "",
					"type": "bool"
				}
			],
			"stateMutability": "view",
			"type": "function"
		},
		{
			"inputs": [],
			"name": "symbol",
			"outputs": [
				{
					"internalType": "string",
					"name": "",
					"type": "string"
				}
			],
			"stateMutability": "view",
			"type": "function"
		},
		{
			"inputs": [],
			"name": "tokenIdCounter",
			"outputs": [
				{
					"internalType": "uint256",
					"name": "_value",
					"type": "uint256"
				}
			],
			"stateMutability": "view",
			"type": "function"
		},
		{
			"inputs": [
				{
					"internalType": "uint256",
					"name": "tokenId",
					"type": "uint256"
				}
			],
			"name": "tokenURI",
			"outputs": [
				{
					"internalType": "string",
					"name": "",
					"type": "string"
				}
			],
			"stateMutability": "view",
			"type": "function"
		},
		{
			"inputs": [
				{
					"internalType": "address",
					"name": "from",
					"type": "address"
				},
				{
					"internalType": "address",
					"name": "to",
					"type": "address"
				},
				{
					"internalType": "uint256",
					"name": "tokenId",
					"type": "uint256"
				}
			],
			"name": "transferFrom",
			"outputs": [],
			"stateMutability": "nonpayable",
			"type": "function"
		},
		{
			"inputs": [
				{
					"internalType": "address",
					"name": "to",
					"type": "address"
				}
			],
			"name": "transferOwnership",
			"outputs": [],
			"stateMutability": "nonpayable",
			"type": "function"
		}
	]
}