{
	"TemperatureFunctions.sol": {
		"TemperatureFunctions": {
			"abi": [
				{
					"inputs": [
						{
							"internalType": "uint64",
							"name": "subcription",
							"type": "uint64"
						}
					],
					"stateMutability": "nonpayable",
					"type": "constructor"
				},
				{
					"inputs": [],
					"name": "EmptyArgs",
					"type": "error"
				},
				{
					"inputs": [],
					"name": "EmptySource",
					"type": "error"
				},
				{
					"inputs": [],
					"name": "NoInlineSecrets",
					"type": "error"
				},
				{
					"inputs": [],
					"name": "OnlyRouterCanFulfill",
					"type": "error"
				},
				{
					"inputs": [
						{
							"internalType": "bytes32",
							"name": "requestId",
							"type": "bytes32"
						}
					],
					"name": "UnexpectedRequestID",
					"type": "error"
				},
				{
					"anonymous": false,
					"inputs": [
						{
							"indexed": true,
							"internalType": "bytes32",
							"name": "id",
							"type": "bytes32"
						}
					],
					"name": "RequestFulfilled",
					"type": "event"
				},
				{
					"anonymous": false,
					"inputs": [
						{
							"indexed": true,
							"internalType": "bytes32",
							"name": "id",
							"type": "bytes32"
						}
					],
					"name": "RequestSent",
					"type": "event"
				},
				{
					"anonymous": false,
					"inputs": [
						{
							"indexed": true,
							"internalType": "bytes32",
							"name": "requestId",
							"type": "bytes32"
						},
						{
							"indexed": false,
							"internalType": "string",
							"name": "temperature",
							"type": "string"
						},
						{
							"indexed": false,
							"internalType": "bytes",
							"name": "response",
							"type": "bytes"
						},
						{
							"indexed": false,
							"internalType": "bytes",
							"name": "err",
							"type": "bytes"
						}
					],
					"name": "Response",
					"type": "event"
				},
				{
					"inputs": [
						{
							"internalType": "string",
							"name": "_city",
							"type": "string"
						}
					],
					"name": "getTemperature",
					"outputs": [
						{
							"internalType": "bytes32",
							"name": "requestId",
							"type": "bytes32"
						}
					],
					"stateMutability": "nonpayable",
					"type": "function"
				},
				{
					"inputs": [
						{
							"internalType": "bytes32",
							"name": "requestId",
							"type": "bytes32"
						},
						{
							"internalType": "bytes",
							"name": "response",
							"type": "bytes"
						},
						{
							"internalType": "bytes",
							"name": "err",
							"type": "bytes"
						}
					],
					"name": "handleOracleFulfillment",
					"outputs": [],
					"stateMutability": "nonpayable",
					"type": "function"
				},
				{
					"inputs": [],
					"name": "lastCity",
					"outputs": [
						{
							"internalType": "string",
							"name": "",
							"type": "string"
						}
					],
					"stateMutability": "view",
					"type": "function"
				},
				{
					"inputs": [],
					"name": "lastTemperature",
					"outputs": [
						{
							"internalType": "string",
							"name": "",
							"type": "string"
						}
					],
					"stateMutability": "view",
					"type": "function"
				},
				{
					"inputs": [],
					"name": "s_lastError",
					"outputs": [
						{
							"internalType": "bytes",
							"name": "",
							"type": "bytes"
						}
					],
					"stateMutability": "view",
					"type": "function"
				},
				{
					"inputs": [],
					"name": "s_lastRequestId",
					"outputs": [
						{
							"internalType": "bytes32",
							"name": "",
							"type": "bytes32"
						}
					],
					"stateMutability": "view",
					"type": "function"
				},
				{
					"inputs": [],
					"name": "s_lastResponse",
					"outputs": [
						{
							"internalType": "bytes",
							"name": "",
							"type": "bytes"
						}
					],
					"stateMutability": "view",
					"type": "function"
				},
				{
					"inputs": [],
					"name": "s_subscriptionId",
					"outputs": [
						{
							"internalType": "uint64",
							"name": "",
							"type": "uint64"
						}
					],
					"stateMutability": "view",
					"type": "function"
				},
				{
					"inputs": [],
					"name": "source",
					"outputs": [
						{
							"internalType": "string",
							"name": "",
							"type": "string"
						}
					],
					"stateMutability": "view",
					"type": "function"
				}
			],
			"devdoc": {
				"kind": "dev",
				"methods": {
					"handleOracleFulfillment(bytes32,bytes,bytes)": {
						"details": "Either response or error parameter will be set, but never both.",
						"params": {
							"err": "Aggregated error either from the request's source code or from the execution pipeline.",
							"requestId": "The requestId returned by FunctionsClient.sendRequest().",
							"response": "Aggregated response from the request's source code."
						}
					}
				},
				"version": 1
			},
			"evm": {
				"assembly": "    /* \"TemperatureFunctions.sol\":307:2818  contract TemperatureFunctions is FunctionsClient{... */\n  mstore(0x40, 0xa0)\n    /* \"TemperatureFunctions.sol\":883:949  0x66756e2d6176616c616e6368652d66756a692d31000000000000000000000000 */\n  0x66756e2d6176616c616e6368652d66756a692d31000000000000000000000000\n    /* \"TemperatureFunctions.sol\":859:949  bytes32 private DONID = 0x66756e2d6176616c616e6368652d66756a692d31000000000000000000000000 */\n  0x00\n  shl\n  0x03\n  sstore\n    /* \"TemperatureFunctions.sol\":969:975  300000 */\n  0x0493e0\n    /* \"TemperatureFunctions.sol\":956:975  uint32 GAS = 300000 */\n  0x04\n  exp(0x0100, 0x00)\n  dup2\n  sload\n  dup2\n  0xffffffff\n  mul\n  not\n  and\n  swap1\n  dup4\n  0xffffffff\n  and\n  mul\n  or\n  swap1\n  sstore\n  pop\n    /* \"TemperatureFunctions.sol\":1023:1422  string public source =... */\n  mload(0x40)\n  dup1\n  0x0140\n  add\n  0x40\n  mstore\n  dup1\n  0x0101\n  dup2\n  mstore\n  0x20\n  add\n  data_33258073b24d1610740c1acddaf05d8818823dd8d8528cbdd31a195ad0aac47f\n  0x0101\n  swap2\n  codecopy\n  0x05\n  swap1\n  dup2\n  tag_1\n  swap2\n  swap1\n  tag_2\n  jump\t// in\ntag_1:\n  pop\n    /* \"TemperatureFunctions.sol\":1504:1607  constructor(uint64 subcription)FunctionsClient(ROUTER){... */\n  callvalue\n  dup1\n  iszero\n  tag_3\n  jumpi\n  revert(0x00, 0x00)\ntag_3:\n  pop\n  mload(0x40)\n  sub(codesize, bytecodeSize)\n  dup1\n  bytecodeSize\n  dup4\n  codecopy\n  dup2\n  dup2\n  add\n  0x40\n  mstore\n  dup2\n  add\n  swap1\n  tag_4\n  swap2\n  swap1\n  tag_5\n  jump\t// in\ntag_4:\n    /* \"TemperatureFunctions.sol\":810:852  0xA9d587a00A31A52Ed70D6026794a8FC5E2F5dCb0 */\n  0xa9d587a00a31a52ed70d6026794a8fc5e2f5dcb0\n    /* \"@chainlink/contracts/src/v0.8/functions/dev/v1_0_0/FunctionsClient.sol\":764:770  router */\n  dup1\n    /* \"@chainlink/contracts/src/v0.8/functions/dev/v1_0_0/FunctionsClient.sol\":736:771  i_router = IFunctionsRouter(router) */\n  0xffffffffffffffffffffffffffffffffffffffff\n  and\n  0x80\n  dup2\n  0xffffffffffffffffffffffffffffffffffffffff\n  and\n  dup2\n  mstore\n  pop\n  pop\n    /* \"@chainlink/contracts/src/v0.8/functions/dev/v1_0_0/FunctionsClient.sol\":702:776  constructor(address router) {... */\n  pop\n    /* \"TemperatureFunctions.sol\":1588:1599  subcription */\n  dup1\n    /* \"TemperatureFunctions.sol\":1569:1585  s_subscriptionId */\n  0x04\n  dup1\n    /* \"TemperatureFunctions.sol\":1569:1599  s_subscriptionId = subcription */\n  0x0100\n  exp\n  dup2\n  sload\n  dup2\n  0xffffffffffffffff\n  mul\n  not\n  and\n  swap1\n  dup4\n  0xffffffffffffffff\n  and\n  mul\n  or\n  swap1\n  sstore\n  pop\n    /* \"TemperatureFunctions.sol\":1504:1607  constructor(uint64 subcription)FunctionsClient(ROUTER){... */\n  pop\n    /* \"TemperatureFunctions.sol\":307:2818  contract TemperatureFunctions is FunctionsClient{... */\n  jump(tag_10)\n    /* \"#utility.yul\":7:106   */\ntag_11:\n    /* \"#utility.yul\":59:65   */\n  0x00\n    /* \"#utility.yul\":93:98   */\n  dup2\n    /* \"#utility.yul\":87:99   */\n  mload\n    /* \"#utility.yul\":77:99   */\n  swap1\n  pop\n    /* \"#utility.yul\":7:106   */\n  swap2\n  swap1\n  pop\n  jump\t// out\n    /* \"#utility.yul\":112:292   */\ntag_12:\n    /* \"#utility.yul\":160:237   */\n  0x4e487b7100000000000000000000000000000000000000000000000000000000\n    /* \"#utility.yul\":157:158   */\n  0x00\n    /* \"#utility.yul\":150:238   */\n  mstore\n    /* \"#utility.yul\":257:261   */\n  0x41\n    /* \"#utility.yul\":254:255   */\n  0x04\n    /* \"#utility.yul\":247:262   */\n  mstore\n    /* \"#utility.yul\":281:285   */\n  0x24\n    /* \"#utility.yul\":278:279   */\n  0x00\n    /* \"#utility.yul\":271:286   */\n  revert\n    /* \"#utility.yul\":298:478   */\ntag_13:\n    /* \"#utility.yul\":346:423   */\n  0x4e487b7100000000000000000000000000000000000000000000000000000000\n    /* \"#utility.yul\":343:344   */\n  0x00\n    /* \"#utility.yul\":336:424   */\n  mstore\n    /* \"#utility.yul\":443:447   */\n  0x22\n    /* \"#utility.yul\":440:441   */\n  0x04\n    /* \"#utility.yul\":433:448   */\n  mstore\n    /* \"#utility.yul\":467:471   */\n  0x24\n    /* \"#utility.yul\":464:465   */\n  0x00\n    /* \"#utility.yul\":457:472   */\n  revert\n    /* \"#utility.yul\":484:804   */\ntag_14:\n    /* \"#utility.yul\":528:534   */\n  0x00\n    /* \"#utility.yul\":565:566   */\n  0x02\n    /* \"#utility.yul\":559:563   */\n  dup3\n    /* \"#utility.yul\":555:567   */\n  div\n    /* \"#utility.yul\":545:567   */\n  swap1\n  pop\n    /* \"#utility.yul\":612:613   */\n  0x01\n    /* \"#utility.yul\":606:610   */\n  dup3\n    /* \"#utility.yul\":602:614   */\n  and\n    /* \"#utility.yul\":633:651   */\n  dup1\n    /* \"#utility.yul\":623:704   */\n  tag_42\n  jumpi\n    /* \"#utility.yul\":689:693   */\n  0x7f\n    /* \"#utility.yul\":681:687   */\n  dup3\n    /* \"#utility.yul\":677:694   */\n  and\n    /* \"#utility.yul\":667:694   */\n  swap2\n  pop\n    /* \"#utility.yul\":623:704   */\ntag_42:\n    /* \"#utility.yul\":751:753   */\n  0x20\n    /* \"#utility.yul\":743:749   */\n  dup3\n    /* \"#utility.yul\":740:754   */\n  lt\n    /* \"#utility.yul\":720:738   */\n  dup2\n    /* \"#utility.yul\":717:755   */\n  sub\n    /* \"#utility.yul\":714:798   */\n  tag_43\n  jumpi\n    /* \"#utility.yul\":770:788   */\n  tag_44\n  tag_13\n  jump\t// in\ntag_44:\n    /* \"#utility.yul\":714:798   */\ntag_43:\n    /* \"#utility.yul\":535:804   */\n  pop\n    /* \"#utility.yul\":484:804   */\n  swap2\n  swap1\n  pop\n  jump\t// out\n    /* \"#utility.yul\":810:951   */\ntag_15:\n    /* \"#utility.yul\":859:863   */\n  0x00\n    /* \"#utility.yul\":882:885   */\n  dup2\n    /* \"#utility.yul\":874:885   */\n  swap1\n  pop\n    /* \"#utility.yul\":905:908   */\n  dup2\n    /* \"#utility.yul\":902:903   */\n  0x00\n    /* \"#utility.yul\":895:909   */\n  mstore\n    /* \"#utility.yul\":939:943   */\n  0x20\n    /* \"#utility.yul\":936:937   */\n  0x00\n    /* \"#utility.yul\":926:944   */\n  keccak256\n    /* \"#utility.yul\":918:944   */\n  swap1\n  pop\n    /* \"#utility.yul\":810:951   */\n  swap2\n  swap1\n  pop\n  jump\t// out\n    /* \"#utility.yul\":957:1050   */\ntag_16:\n    /* \"#utility.yul\":994:1000   */\n  0x00\n    /* \"#utility.yul\":1041:1043   */\n  0x20\n    /* \"#utility.yul\":1036:1038   */\n  0x1f\n    /* \"#utility.yul\":1029:1034   */\n  dup4\n    /* \"#utility.yul\":1025:1039   */\n  add\n    /* \"#utility.yul\":1021:1044   */\n  div\n    /* \"#utility.yul\":1011:1044   */\n  swap1\n  pop\n    /* \"#utility.yul\":957:1050   */\n  swap2\n  swap1\n  pop\n  jump\t// out\n    /* \"#utility.yul\":1056:1163   */\ntag_17:\n    /* \"#utility.yul\":1100:1108   */\n  0x00\n    /* \"#utility.yul\":1150:1155   */\n  dup3\n    /* \"#utility.yul\":1144:1148   */\n  dup3\n    /* \"#utility.yul\":1140:1156   */\n  shl\n    /* \"#utility.yul\":1119:1156   */\n  swap1\n  pop\n    /* \"#utility.yul\":1056:1163   */\n  swap3\n  swap2\n  pop\n  pop\n  jump\t// out\n    /* \"#utility.yul\":1169:1562   */\ntag_18:\n    /* \"#utility.yul\":1238:1244   */\n  0x00\n    /* \"#utility.yul\":1288:1289   */\n  0x08\n    /* \"#utility.yul\":1276:1286   */\n  dup4\n    /* \"#utility.yul\":1272:1290   */\n  mul\n    /* \"#utility.yul\":1311:1408   */\n  tag_49\n    /* \"#utility.yul\":1341:1407   */\n  0xffffffffffffffffffffffffffffffffffffffffffffffffffffffffffffffff\n    /* \"#utility.yul\":1330:1339   */\n  dup3\n    /* \"#utility.yul\":1311:1408   */\n  tag_17\n  jump\t// in\ntag_49:\n    /* \"#utility.yul\":1429:1468   */\n  tag_50\n    /* \"#utility.yul\":1459:1467   */\n  dup7\n    /* \"#utility.yul\":1448:1457   */\n  dup4\n    /* \"#utility.yul\":1429:1468   */\n  tag_17\n  jump\t// in\ntag_50:\n    /* \"#utility.yul\":1417:1468   */\n  swap6\n  pop\n    /* \"#utility.yul\":1501:1505   */\n  dup1\n    /* \"#utility.yul\":1497:1506   */\n  not\n    /* \"#utility.yul\":1490:1495   */\n  dup5\n    /* \"#utility.yul\":1486:1507   */\n  and\n    /* \"#utility.yul\":1477:1507   */\n  swap4\n  pop\n    /* \"#utility.yul\":1550:1554   */\n  dup1\n    /* \"#utility.yul\":1540:1548   */\n  dup7\n    /* \"#utility.yul\":1536:1555   */\n  and\n    /* \"#utility.yul\":1529:1534   */\n  dup5\n    /* \"#utility.yul\":1526:1556   */\n  or\n    /* \"#utility.yul\":1516:1556   */\n  swap3\n  pop\n    /* \"#utility.yul\":1245:1562   */\n  pop\n  pop\n    /* \"#utility.yul\":1169:1562   */\n  swap4\n  swap3\n  pop\n  pop\n  pop\n  jump\t// out\n    /* \"#utility.yul\":1568:1645   */\ntag_19:\n    /* \"#utility.yul\":1605:1612   */\n  0x00\n    /* \"#utility.yul\":1634:1639   */\n  dup2\n    /* \"#utility.yul\":1623:1639   */\n  swap1\n  pop\n    /* \"#utility.yul\":1568:1645   */\n  swap2\n  swap1\n  pop\n  jump\t// out\n    /* \"#utility.yul\":1651:1711   */\ntag_20:\n    /* \"#utility.yul\":1679:1682   */\n  0x00\n    /* \"#utility.yul\":1700:1705   */\n  dup2\n    /* \"#utility.yul\":1693:1705   */\n  swap1\n  pop\n    /* \"#utility.yul\":1651:1711   */\n  swap2\n  swap1\n  pop\n  jump\t// out\n    /* \"#utility.yul\":1717:1859   */\ntag_21:\n    /* \"#utility.yul\":1767:1776   */\n  0x00\n    /* \"#utility.yul\":1800:1853   */\n  tag_54\n    /* \"#utility.yul\":1818:1852   */\n  tag_55\n    /* \"#utility.yul\":1827:1851   */\n  tag_56\n    /* \"#utility.yul\":1845:1850   */\n  dup5\n    /* \"#utility.yul\":1827:1851   */\n  tag_19\n  jump\t// in\ntag_56:\n    /* \"#utility.yul\":1818:1852   */\n  tag_20\n  jump\t// in\ntag_55:\n    /* \"#utility.yul\":1800:1853   */\n  tag_19\n  jump\t// in\ntag_54:\n    /* \"#utility.yul\":1787:1853   */\n  swap1\n  pop\n    /* \"#utility.yul\":1717:1859   */\n  swap2\n  swap1\n  pop\n  jump\t// out\n    /* \"#utility.yul\":1865:1940   */\ntag_22:\n    /* \"#utility.yul\":1908:1911   */\n  0x00\n    /* \"#utility.yul\":1929:1934   */\n  dup2\n    /* \"#utility.yul\":1922:1934   */\n  swap1\n  pop\n    /* \"#utility.yul\":1865:1940   */\n  swap2\n  swap1\n  pop\n  jump\t// out\n    /* \"#utility.yul\":1946:2215   */\ntag_23:\n    /* \"#utility.yul\":2056:2095   */\n  tag_59\n    /* \"#utility.yul\":2087:2094   */\n  dup4\n    /* \"#utility.yul\":2056:2095   */\n  tag_21\n  jump\t// in\ntag_59:\n    /* \"#utility.yul\":2117:2208   */\n  tag_60\n    /* \"#utility.yul\":2166:2207   */\n  tag_61\n    /* \"#utility.yul\":2190:2206   */\n  dup3\n    /* \"#utility.yul\":2166:2207   */\n  tag_22\n  jump\t// in\ntag_61:\n    /* \"#utility.yul\":2158:2164   */\n  dup5\n    /* \"#utility.yul\":2151:2155   */\n  dup5\n    /* \"#utility.yul\":2145:2156   */\n  sload\n    /* \"#utility.yul\":2117:2208   */\n  tag_18\n  jump\t// in\ntag_60:\n    /* \"#utility.yul\":2111:2115   */\n  dup3\n    /* \"#utility.yul\":2104:2209   */\n  sstore\n    /* \"#utility.yul\":2022:2215   */\n  pop\n    /* \"#utility.yul\":1946:2215   */\n  pop\n  pop\n  pop\n  jump\t// out\n    /* \"#utility.yul\":2221:2294   */\ntag_24:\n    /* \"#utility.yul\":2266:2269   */\n  0x00\n    /* \"#utility.yul\":2287:2288   */\n  0x00\n    /* \"#utility.yul\":2280:2288   */\n  swap1\n  pop\n    /* \"#utility.yul\":2221:2294   */\n  swap1\n  jump\t// out\n    /* \"#utility.yul\":2300:2489   */\ntag_25:\n    /* \"#utility.yul\":2377:2409   */\n  tag_64\n  tag_24\n  jump\t// in\ntag_64:\n    /* \"#utility.yul\":2418:2483   */\n  tag_65\n    /* \"#utility.yul\":2476:2482   */\n  dup2\n    /* \"#utility.yul\":2468:2474   */\n  dup5\n    /* \"#utility.yul\":2462:2466   */\n  dup5\n    /* \"#utility.yul\":2418:2483   */\n  tag_23\n  jump\t// in\ntag_65:\n    /* \"#utility.yul\":2353:2489   */\n  pop\n    /* \"#utility.yul\":2300:2489   */\n  pop\n  pop\n  jump\t// out\n    /* \"#utility.yul\":2495:2681   */\ntag_26:\n    /* \"#utility.yul\":2555:2675   */\ntag_67:\n    /* \"#utility.yul\":2572:2575   */\n  dup2\n    /* \"#utility.yul\":2565:2570   */\n  dup2\n    /* \"#utility.yul\":2562:2576   */\n  lt\n    /* \"#utility.yul\":2555:2675   */\n  iszero\n  tag_69\n  jumpi\n    /* \"#utility.yul\":2626:2665   */\n  tag_70\n    /* \"#utility.yul\":2663:2664   */\n  0x00\n    /* \"#utility.yul\":2656:2661   */\n  dup3\n    /* \"#utility.yul\":2626:2665   */\n  tag_25\n  jump\t// in\ntag_70:\n    /* \"#utility.yul\":2599:2600   */\n  0x01\n    /* \"#utility.yul\":2592:2597   */\n  dup2\n    /* \"#utility.yul\":2588:2601   */\n  add\n    /* \"#utility.yul\":2579:2601   */\n  swap1\n  pop\n    /* \"#utility.yul\":2555:2675   */\n  jump(tag_67)\ntag_69:\n    /* \"#utility.yul\":2495:2681   */\n  pop\n  pop\n  jump\t// out\n    /* \"#utility.yul\":2687:3230   */\ntag_27:\n    /* \"#utility.yul\":2788:2790   */\n  0x1f\n    /* \"#utility.yul\":2783:2786   */\n  dup3\n    /* \"#utility.yul\":2780:2791   */\n  gt\n    /* \"#utility.yul\":2777:3223   */\n  iszero\n  tag_72\n  jumpi\n    /* \"#utility.yul\":2822:2860   */\n  tag_73\n    /* \"#utility.yul\":2854:2859   */\n  dup2\n    /* \"#utility.yul\":2822:2860   */\n  tag_15\n  jump\t// in\ntag_73:\n    /* \"#utility.yul\":2906:2935   */\n  tag_74\n    /* \"#utility.yul\":2924:2934   */\n  dup5\n    /* \"#utility.yul\":2906:2935   */\n  tag_16\n  jump\t// in\ntag_74:\n    /* \"#utility.yul\":2896:2904   */\n  dup2\n    /* \"#utility.yul\":2892:2936   */\n  add\n    /* \"#utility.yul\":3089:3091   */\n  0x20\n    /* \"#utility.yul\":3077:3087   */\n  dup6\n    /* \"#utility.yul\":3074:3092   */\n  lt\n    /* \"#utility.yul\":3071:3120   */\n  iszero\n  tag_75\n  jumpi\n    /* \"#utility.yul\":3110:3118   */\n  dup2\n    /* \"#utility.yul\":3095:3118   */\n  swap1\n  pop\n    /* \"#utility.yul\":3071:3120   */\ntag_75:\n    /* \"#utility.yul\":3133:3213   */\n  tag_76\n    /* \"#utility.yul\":3189:3211   */\n  tag_77\n    /* \"#utility.yul\":3207:3210   */\n  dup6\n    /* \"#utility.yul\":3189:3211   */\n  tag_16\n  jump\t// in\ntag_77:\n    /* \"#utility.yul\":3179:3187   */\n  dup4\n    /* \"#utility.yul\":3175:3212   */\n  add\n    /* \"#utility.yul\":3162:3173   */\n  dup3\n    /* \"#utility.yul\":3133:3213   */\n  tag_26\n  jump\t// in\ntag_76:\n    /* \"#utility.yul\":2792:3223   */\n  pop\n  pop\n    /* \"#utility.yul\":2777:3223   */\ntag_72:\n    /* \"#utility.yul\":2687:3230   */\n  pop\n  pop\n  pop\n  jump\t// out\n    /* \"#utility.yul\":3236:3353   */\ntag_28:\n    /* \"#utility.yul\":3290:3298   */\n  0x00\n    /* \"#utility.yul\":3340:3345   */\n  dup3\n    /* \"#utility.yul\":3334:3338   */\n  dup3\n    /* \"#utility.yul\":3330:3346   */\n  shr\n    /* \"#utility.yul\":3309:3346   */\n  swap1\n  pop\n    /* \"#utility.yul\":3236:3353   */\n  swap3\n  swap2\n  pop\n  pop\n  jump\t// out\n    /* \"#utility.yul\":3359:3528   */\ntag_29:\n    /* \"#utility.yul\":3403:3409   */\n  0x00\n    /* \"#utility.yul\":3436:3487   */\n  tag_80\n    /* \"#utility.yul\":3484:3485   */\n  0x00\n    /* \"#utility.yul\":3480:3486   */\n  not\n    /* \"#utility.yul\":3472:3477   */\n  dup5\n    /* \"#utility.yul\":3469:3470   */\n  0x08\n    /* \"#utility.yul\":3465:3478   */\n  mul\n    /* \"#utility.yul\":3436:3487   */\n  tag_28\n  jump\t// in\ntag_80:\n    /* \"#utility.yul\":3432:3488   */\n  not\n    /* \"#utility.yul\":3517:3521   */\n  dup1\n    /* \"#utility.yul\":3511:3515   */\n  dup4\n    /* \"#utility.yul\":3507:3522   */\n  and\n    /* \"#utility.yul\":3497:3522   */\n  swap2\n  pop\n    /* \"#utility.yul\":3410:3528   */\n  pop\n    /* \"#utility.yul\":3359:3528   */\n  swap3\n  swap2\n  pop\n  pop\n  jump\t// out\n    /* \"#utility.yul\":3533:3828   */\ntag_30:\n    /* \"#utility.yul\":3609:3613   */\n  0x00\n    /* \"#utility.yul\":3755:3784   */\n  tag_82\n    /* \"#utility.yul\":3780:3783   */\n  dup4\n    /* \"#utility.yul\":3774:3778   */\n  dup4\n    /* \"#utility.yul\":3755:3784   */\n  tag_29\n  jump\t// in\ntag_82:\n    /* \"#utility.yul\":3747:3784   */\n  swap2\n  pop\n    /* \"#utility.yul\":3817:3820   */\n  dup3\n    /* \"#utility.yul\":3814:3815   */\n  0x02\n    /* \"#utility.yul\":3810:3821   */\n  mul\n    /* \"#utility.yul\":3804:3808   */\n  dup3\n    /* \"#utility.yul\":3801:3822   */\n  or\n    /* \"#utility.yul\":3793:3822   */\n  swap1\n  pop\n    /* \"#utility.yul\":3533:3828   */\n  swap3\n  swap2\n  pop\n  pop\n  jump\t// out\n    /* \"#utility.yul\":3833:5228   */\ntag_2:\n    /* \"#utility.yul\":3950:3987   */\n  tag_84\n    /* \"#utility.yul\":3983:3986   */\n  dup3\n    /* \"#utility.yul\":3950:3987   */\n  tag_11\n  jump\t// in\ntag_84:\n    /* \"#utility.yul\":4052:4070   */\n  0xffffffffffffffff\n    /* \"#utility.yul\":4044:4050   */\n  dup2\n    /* \"#utility.yul\":4041:4071   */\n  gt\n    /* \"#utility.yul\":4038:4094   */\n  iszero\n  tag_85\n  jumpi\n    /* \"#utility.yul\":4074:4092   */\n  tag_86\n  tag_12\n  jump\t// in\ntag_86:\n    /* \"#utility.yul\":4038:4094   */\ntag_85:\n    /* \"#utility.yul\":4118:4156   */\n  tag_87\n    /* \"#utility.yul\":4150:4154   */\n  dup3\n    /* \"#utility.yul\":4144:4155   */\n  sload\n    /* \"#utility.yul\":4118:4156   */\n  tag_14\n  jump\t// in\ntag_87:\n    /* \"#utility.yul\":4203:4270   */\n  tag_88\n    /* \"#utility.yul\":4263:4269   */\n  dup3\n    /* \"#utility.yul\":4255:4261   */\n  dup3\n    /* \"#utility.yul\":4249:4253   */\n  dup6\n    /* \"#utility.yul\":4203:4270   */\n  tag_27\n  jump\t// in\ntag_88:\n    /* \"#utility.yul\":4297:4298   */\n  0x00\n    /* \"#utility.yul\":4321:4325   */\n  0x20\n    /* \"#utility.yul\":4308:4325   */\n  swap1\n  pop\n    /* \"#utility.yul\":4353:4355   */\n  0x1f\n    /* \"#utility.yul\":4345:4351   */\n  dup4\n    /* \"#utility.yul\":4342:4356   */\n  gt\n    /* \"#utility.yul\":4370:4371   */\n  0x01\n    /* \"#utility.yul\":4365:4983   */\n  dup2\n  eq\n  tag_90\n  jumpi\n    /* \"#utility.yul\":5027:5028   */\n  0x00\n    /* \"#utility.yul\":5044:5050   */\n  dup5\n    /* \"#utility.yul\":5041:5118   */\n  iszero\n  tag_91\n  jumpi\n    /* \"#utility.yul\":5093:5102   */\n  dup3\n    /* \"#utility.yul\":5088:5091   */\n  dup8\n    /* \"#utility.yul\":5084:5103   */\n  add\n    /* \"#utility.yul\":5078:5104   */\n  mload\n    /* \"#utility.yul\":5069:5104   */\n  swap1\n  pop\n    /* \"#utility.yul\":5041:5118   */\ntag_91:\n    /* \"#utility.yul\":5144:5211   */\n  tag_92\n    /* \"#utility.yul\":5204:5210   */\n  dup6\n    /* \"#utility.yul\":5197:5202   */\n  dup3\n    /* \"#utility.yul\":5144:5211   */\n  tag_30\n  jump\t// in\ntag_92:\n    /* \"#utility.yul\":5138:5142   */\n  dup7\n    /* \"#utility.yul\":5131:5212   */\n  sstore\n    /* \"#utility.yul\":5000:5222   */\n  pop\n    /* \"#utility.yul\":4335:5222   */\n  jump(tag_89)\n    /* \"#utility.yul\":4365:4983   */\ntag_90:\n    /* \"#utility.yul\":4417:4421   */\n  0x1f\n    /* \"#utility.yul\":4413:4422   */\n  not\n    /* \"#utility.yul\":4405:4411   */\n  dup5\n    /* \"#utility.yul\":4401:4423   */\n  and\n    /* \"#utility.yul\":4451:4488   */\n  tag_93\n    /* \"#utility.yul\":4483:4487   */\n  dup7\n    /* \"#utility.yul\":4451:4488   */\n  tag_15\n  jump\t// in\ntag_93:\n    /* \"#utility.yul\":4510:4511   */\n  0x00\n    /* \"#utility.yul\":4524:4732   */\ntag_94:\n    /* \"#utility.yul\":4538:4545   */\n  dup3\n    /* \"#utility.yul\":4535:4536   */\n  dup2\n    /* \"#utility.yul\":4532:4546   */\n  lt\n    /* \"#utility.yul\":4524:4732   */\n  iszero\n  tag_96\n  jumpi\n    /* \"#utility.yul\":4617:4626   */\n  dup5\n    /* \"#utility.yul\":4612:4615   */\n  dup10\n    /* \"#utility.yul\":4608:4627   */\n  add\n    /* \"#utility.yul\":4602:4628   */\n  mload\n    /* \"#utility.yul\":4594:4600   */\n  dup3\n    /* \"#utility.yul\":4587:4629   */\n  sstore\n    /* \"#utility.yul\":4668:4669   */\n  0x01\n    /* \"#utility.yul\":4660:4666   */\n  dup3\n    /* \"#utility.yul\":4656:4670   */\n  add\n    /* \"#utility.yul\":4646:4670   */\n  swap2\n  pop\n    /* \"#utility.yul\":4715:4717   */\n  0x20\n    /* \"#utility.yul\":4704:4713   */\n  dup6\n    /* \"#utility.yul\":4700:4718   */\n  add\n    /* \"#utility.yul\":4687:4718   */\n  swap5\n  pop\n    /* \"#utility.yul\":4561:4565   */\n  0x20\n    /* \"#utility.yul\":4558:4559   */\n  dup2\n    /* \"#utility.yul\":4554:4566   */\n  add\n    /* \"#utility.yul\":4549:4566   */\n  swap1\n  pop\n    /* \"#utility.yul\":4524:4732   */\n  jump(tag_94)\ntag_96:\n    /* \"#utility.yul\":4760:4766   */\n  dup7\n    /* \"#utility.yul\":4751:4758   */\n  dup4\n    /* \"#utility.yul\":4748:4767   */\n  lt\n    /* \"#utility.yul\":4745:4924   */\n  iszero\n  tag_97\n  jumpi\n    /* \"#utility.yul\":4818:4827   */\n  dup5\n    /* \"#utility.yul\":4813:4816   */\n  dup10\n    /* \"#utility.yul\":4809:4828   */\n  add\n    /* \"#utility.yul\":4803:4829   */\n  mload\n    /* \"#utility.yul\":4861:4909   */\n  tag_98\n    /* \"#utility.yul\":4903:4907   */\n  0x1f\n    /* \"#utility.yul\":4895:4901   */\n  dup10\n    /* \"#utility.yul\":4891:4908   */\n  and\n    /* \"#utility.yul\":4880:4889   */\n  dup3\n    /* \"#utility.yul\":4861:4909   */\n  tag_29\n  jump\t// in\ntag_98:\n    /* \"#utility.yul\":4853:4859   */\n  dup4\n    /* \"#utility.yul\":4846:4910   */\n  sstore\n    /* \"#utility.yul\":4768:4924   */\n  pop\n    /* \"#utility.yul\":4745:4924   */\ntag_97:\n    /* \"#utility.yul\":4970:4971   */\n  0x01\n    /* \"#utility.yul\":4966:4967   */\n  0x02\n    /* \"#utility.yul\":4958:4964   */\n  dup9\n    /* \"#utility.yul\":4954:4968   */\n  mul\n    /* \"#utility.yul\":4950:4972   */\n  add\n    /* \"#utility.yul\":4944:4948   */\n  dup9\n    /* \"#utility.yul\":4937:4973   */\n  sstore\n    /* \"#utility.yul\":4372:4983   */\n  pop\n  pop\n  pop\n    /* \"#utility.yul\":4335:5222   */\ntag_89:\n  pop\n    /* \"#utility.yul\":3925:5228   */\n  pop\n  pop\n  pop\n    /* \"#utility.yul\":3833:5228   */\n  pop\n  pop\n  jump\t// out\n    /* \"#utility.yul\":5315:5432   */\ntag_32:\n    /* \"#utility.yul\":5424:5425   */\n  0x00\n    /* \"#utility.yul\":5421:5422   */\n  0x00\n    /* \"#utility.yul\":5414:5426   */\n  revert\n    /* \"#utility.yul\":5561:5662   */\ntag_34:\n    /* \"#utility.yul\":5597:5604   */\n  0x00\n    /* \"#utility.yul\":5637:5655   */\n  0xffffffffffffffff\n    /* \"#utility.yul\":5630:5635   */\n  dup3\n    /* \"#utility.yul\":5626:5656   */\n  and\n    /* \"#utility.yul\":5615:5656   */\n  swap1\n  pop\n    /* \"#utility.yul\":5561:5662   */\n  swap2\n  swap1\n  pop\n  jump\t// out\n    /* \"#utility.yul\":5668:5788   */\ntag_35:\n    /* \"#utility.yul\":5740:5763   */\n  tag_104\n    /* \"#utility.yul\":5757:5762   */\n  dup2\n    /* \"#utility.yul\":5740:5763   */\n  tag_34\n  jump\t// in\ntag_104:\n    /* \"#utility.yul\":5733:5738   */\n  dup2\n    /* \"#utility.yul\":5730:5764   */\n  eq\n    /* \"#utility.yul\":5720:5782   */\n  tag_105\n  jumpi\n    /* \"#utility.yul\":5778:5779   */\n  0x00\n    /* \"#utility.yul\":5775:5776   */\n  0x00\n    /* \"#utility.yul\":5768:5780   */\n  revert\n    /* \"#utility.yul\":5720:5782   */\ntag_105:\n    /* \"#utility.yul\":5668:5788   */\n  pop\n  jump\t// out\n    /* \"#utility.yul\":5794:5935   */\ntag_36:\n    /* \"#utility.yul\":5850:5855   */\n  0x00\n    /* \"#utility.yul\":5881:5887   */\n  dup2\n    /* \"#utility.yul\":5875:5888   */\n  mload\n    /* \"#utility.yul\":5866:5888   */\n  swap1\n  pop\n    /* \"#utility.yul\":5897:5929   */\n  tag_107\n    /* \"#utility.yul\":5923:5928   */\n  dup2\n    /* \"#utility.yul\":5897:5929   */\n  tag_35\n  jump\t// in\ntag_107:\n    /* \"#utility.yul\":5794:5935   */\n  swap3\n  swap2\n  pop\n  pop\n  jump\t// out\n    /* \"#utility.yul\":5941:6290   */\ntag_5:\n    /* \"#utility.yul\":6010:6016   */\n  0x00\n    /* \"#utility.yul\":6059:6061   */\n  0x20\n    /* \"#utility.yul\":6047:6056   */\n  dup3\n    /* \"#utility.yul\":6038:6045   */\n  dup5\n    /* \"#utility.yul\":6034:6057   */\n  sub\n    /* \"#utility.yul\":6030:6062   */\n  slt\n    /* \"#utility.yul\":6027:6146   */\n  iszero\n  tag_109\n  jumpi\n    /* \"#utility.yul\":6065:6144   */\n  tag_110\n  tag_32\n  jump\t// in\ntag_110:\n    /* \"#utility.yul\":6027:6146   */\ntag_109:\n    /* \"#utility.yul\":6185:6186   */\n  0x00\n    /* \"#utility.yul\":6210:6273   */\n  tag_111\n    /* \"#utility.yul\":6265:6272   */\n  dup5\n    /* \"#utility.yul\":6256:6262   */\n  dup3\n    /* \"#utility.yul\":6245:6254   */\n  dup6\n    /* \"#utility.yul\":6241:6263   */\n  add\n    /* \"#utility.yul\":6210:6273   */\n  tag_36\n  jump\t// in\ntag_111:\n    /* \"#utility.yul\":6200:6273   */\n  swap2\n  pop\n    /* \"#utility.yul\":6156:6283   */\n  pop\n    /* \"#utility.yul\":5941:6290   */\n  swap3\n  swap2\n  pop\n  pop\n  jump\t// out\n    /* \"TemperatureFunctions.sol\":307:2818  contract TemperatureFunctions is FunctionsClient{... */\ntag_10:\n  mload(0x80)\n  codecopy(0x00, dataOffset(sub_0), dataSize(sub_0))\n  0x00\n  assignImmutable(\"0x8e8fab5f003314da8d1873ea7720e8d9f47650136d916064d1edb8a11d682624\")\n  return(0x00, dataSize(sub_0))\nstop\ndata_33258073b24d1610740c1acddaf05d8818823dd8d8528cbdd31a195ad0aac47f 636f6e73742063697479203d20617267735b305d3b636f6e737420617069526573706f6e7365203d2061776169742046756e6374696f6e732e6d616b654874747052657175657374287b75726c3a206068747470733a2f2f777474722e696e2f247b636974797d3f666f726d61743d33602c726573706f6e7365547970653a202774657874277d293b69662028617069526573706f6e73652e6572726f7229207b7468726f77204572726f72282752657175657374206661696c656427293b7d636f6e7374207b2064617461207d203d20617069526573706f6e73653b72657475726e2046756e6374696f6e732e656e636f6465537472696e672864617461293b\n\nsub_0: assembly {\n        /* \"TemperatureFunctions.sol\":307:2818  contract TemperatureFunctions is FunctionsClient{... */\n      mstore(0x40, 0x80)\n      callvalue\n      dup1\n      iszero\n      tag_1\n      jumpi\n      revert(0x00, 0x00)\n    tag_1:\n      pop\n      jumpi(tag_2, lt(calldatasize, 0x04))\n      shr(0xe0, calldataload(0x00))\n      dup1\n      0x8ac00021\n      gt\n      tag_12\n      jumpi\n      dup1\n      0x8ac00021\n      eq\n      tag_7\n      jumpi\n      dup1\n      0x94d02941\n      eq\n      tag_8\n      jumpi\n      dup1\n      0x9fb51771\n      eq\n      tag_9\n      jumpi\n      dup1\n      0xb1e21749\n      eq\n      tag_10\n      jumpi\n      dup1\n      0xcd2b8d11\n      eq\n      tag_11\n      jumpi\n      jump(tag_2)\n    tag_12:\n      dup1\n      0x0ca76175\n      eq\n      tag_3\n      jumpi\n      dup1\n      0x3944ea3a\n      eq\n      tag_4\n      jumpi\n      dup1\n      0x4b0795a8\n      eq\n      tag_5\n      jumpi\n      dup1\n      0x67e828bf\n      eq\n      tag_6\n      jumpi\n    tag_2:\n      revert(0x00, 0x00)\n        /* \"@chainlink/contracts/src/v0.8/functions/dev/v1_0_0/FunctionsClient.sol\":2078:2364  function handleOracleFulfillment(bytes32 requestId, bytes memory response, bytes memory err) external override {... */\n    tag_3:\n      tag_13\n      0x04\n      dup1\n      calldatasize\n      sub\n      dup2\n      add\n      swap1\n      tag_14\n      swap2\n      swap1\n      tag_15\n      jump\t// in\n    tag_14:\n      tag_16\n      jump\t// in\n    tag_13:\n      stop\n        /* \"TemperatureFunctions.sol\":459:486  bytes public s_lastResponse */\n    tag_4:\n      tag_17\n      tag_18\n      jump\t// in\n    tag_17:\n      mload(0x40)\n      tag_19\n      swap2\n      swap1\n      tag_20\n      jump\t// in\n    tag_19:\n      mload(0x40)\n      dup1\n      swap2\n      sub\n      swap1\n      return\n        /* \"TemperatureFunctions.sol\":493:517  bytes public s_lastError */\n    tag_5:\n      tag_21\n      tag_22\n      jump\t// in\n    tag_21:\n      mload(0x40)\n      tag_23\n      swap2\n      swap1\n      tag_20\n      jump\t// in\n    tag_23:\n      mload(0x40)\n      dup1\n      swap2\n      sub\n      swap1\n      return\n        /* \"TemperatureFunctions.sol\":1023:1422  string public source =... */\n    tag_6:\n      tag_24\n      tag_25\n      jump\t// in\n    tag_24:\n      mload(0x40)\n      tag_26\n      swap2\n      swap1\n      tag_27\n      jump\t// in\n    tag_26:\n      mload(0x40)\n      dup1\n      swap2\n      sub\n      swap1\n      return\n        /* \"TemperatureFunctions.sol\":984:1014  uint64 public s_subscriptionId */\n    tag_7:\n      tag_28\n      tag_29\n      jump\t// in\n    tag_28:\n      mload(0x40)\n      tag_30\n      swap2\n      swap1\n      tag_31\n      jump\t// in\n    tag_30:\n      mload(0x40)\n      dup1\n      swap2\n      sub\n      swap1\n      return\n        /* \"TemperatureFunctions.sol\":1615:2190  function getTemperature(... */\n    tag_8:\n      tag_32\n      0x04\n      dup1\n      calldatasize\n      sub\n      dup2\n      add\n      swap1\n      tag_33\n      swap2\n      swap1\n      tag_34\n      jump\t// in\n    tag_33:\n      tag_35\n      jump\t// in\n    tag_32:\n      mload(0x40)\n      tag_36\n      swap2\n      swap1\n      tag_37\n      jump\t// in\n    tag_36:\n      mload(0x40)\n      dup1\n      swap2\n      sub\n      swap1\n      return\n        /* \"TemperatureFunctions.sol\":1464:1493  string public lastTemperature */\n    tag_9:\n      tag_38\n      tag_39\n      jump\t// in\n    tag_38:\n      mload(0x40)\n      tag_40\n      swap2\n      swap1\n      tag_27\n      jump\t// in\n    tag_40:\n      mload(0x40)\n      dup1\n      swap2\n      sub\n      swap1\n      return\n        /* \"TemperatureFunctions.sol\":422:452  bytes32 public s_lastRequestId */\n    tag_10:\n      tag_41\n      tag_42\n      jump\t// in\n    tag_41:\n      mload(0x40)\n      tag_43\n      swap2\n      swap1\n      tag_37\n      jump\t// in\n    tag_43:\n      mload(0x40)\n      dup1\n      swap2\n      sub\n      swap1\n      return\n        /* \"TemperatureFunctions.sol\":1431:1453  string public lastCity */\n    tag_11:\n      tag_44\n      tag_45\n      jump\t// in\n    tag_44:\n      mload(0x40)\n      tag_46\n      swap2\n      swap1\n      tag_27\n      jump\t// in\n    tag_46:\n      mload(0x40)\n      dup1\n      swap2\n      sub\n      swap1\n      return\n        /* \"@chainlink/contracts/src/v0.8/functions/dev/v1_0_0/FunctionsClient.sol\":2078:2364  function handleOracleFulfillment(bytes32 requestId, bytes memory response, bytes memory err) external override {... */\n    tag_16:\n        /* \"@chainlink/contracts/src/v0.8/functions/dev/v1_0_0/FunctionsClient.sol\":2221:2229  i_router */\n      immutable(\"0x8e8fab5f003314da8d1873ea7720e8d9f47650136d916064d1edb8a11d682624\")\n        /* \"@chainlink/contracts/src/v0.8/functions/dev/v1_0_0/FunctionsClient.sol\":2199:2230  msg.sender != address(i_router) */\n      0xffffffffffffffffffffffffffffffffffffffff\n      and\n        /* \"@chainlink/contracts/src/v0.8/functions/dev/v1_0_0/FunctionsClient.sol\":2199:2209  msg.sender */\n      caller\n        /* \"@chainlink/contracts/src/v0.8/functions/dev/v1_0_0/FunctionsClient.sol\":2199:2230  msg.sender != address(i_router) */\n      0xffffffffffffffffffffffffffffffffffffffff\n      and\n      eq\n        /* \"@chainlink/contracts/src/v0.8/functions/dev/v1_0_0/FunctionsClient.sol\":2195:2276  if (msg.sender != address(i_router)) {... */\n      tag_48\n      jumpi\n        /* \"@chainlink/contracts/src/v0.8/functions/dev/v1_0_0/FunctionsClient.sol\":2247:2269  OnlyRouterCanFulfill() */\n      mload(0x40)\n      0xc6829f8300000000000000000000000000000000000000000000000000000000\n      dup2\n      mstore\n      0x04\n      add\n      mload(0x40)\n      dup1\n      swap2\n      sub\n      swap1\n      revert\n        /* \"@chainlink/contracts/src/v0.8/functions/dev/v1_0_0/FunctionsClient.sol\":2195:2276  if (msg.sender != address(i_router)) {... */\n    tag_48:\n        /* \"@chainlink/contracts/src/v0.8/functions/dev/v1_0_0/FunctionsClient.sol\":2281:2321  fulfillRequest(requestId, response, err) */\n      tag_49\n        /* \"@chainlink/contracts/src/v0.8/functions/dev/v1_0_0/FunctionsClient.sol\":2296:2305  requestId */\n      dup4\n        /* \"@chainlink/contracts/src/v0.8/functions/dev/v1_0_0/FunctionsClient.sol\":2307:2315  response */\n      dup4\n        /* \"@chainlink/contracts/src/v0.8/functions/dev/v1_0_0/FunctionsClient.sol\":2317:2320  err */\n      dup4\n        /* \"@chainlink/contracts/src/v0.8/functions/dev/v1_0_0/FunctionsClient.sol\":2281:2295  fulfillRequest */\n      tag_50\n        /* \"@chainlink/contracts/src/v0.8/functions/dev/v1_0_0/FunctionsClient.sol\":2281:2321  fulfillRequest(requestId, response, err) */\n      jump\t// in\n    tag_49:\n        /* \"@chainlink/contracts/src/v0.8/functions/dev/v1_0_0/FunctionsClient.sol\":2349:2358  requestId */\n      dup3\n        /* \"@chainlink/contracts/src/v0.8/functions/dev/v1_0_0/FunctionsClient.sol\":2332:2359  RequestFulfilled(requestId) */\n      0x85e1543bf2f84fe80c6badbce3648c8539ad1df4d2b3d822938ca0538be727e6\n      mload(0x40)\n      mload(0x40)\n      dup1\n      swap2\n      sub\n      swap1\n      log2\n        /* \"@chainlink/contracts/src/v0.8/functions/dev/v1_0_0/FunctionsClient.sol\":2078:2364  function handleOracleFulfillment(bytes32 requestId, bytes memory response, bytes memory err) external override {... */\n      pop\n      pop\n      pop\n      jump\t// out\n        /* \"TemperatureFunctions.sol\":459:486  bytes public s_lastResponse */\n    tag_18:\n      0x01\n      dup1\n      sload\n      tag_51\n      swap1\n      tag_52\n      jump\t// in\n    tag_51:\n      dup1\n      0x1f\n      add\n      0x20\n      dup1\n      swap2\n      div\n      mul\n      0x20\n      add\n      mload(0x40)\n      swap1\n      dup2\n      add\n      0x40\n      mstore\n      dup1\n      swap3\n      swap2\n      swap1\n      dup2\n      dup2\n      mstore\n      0x20\n      add\n      dup3\n      dup1\n      sload\n      tag_53\n      swap1\n      tag_52\n      jump\t// in\n    tag_53:\n      dup1\n      iszero\n      tag_54\n      jumpi\n      dup1\n      0x1f\n      lt\n      tag_55\n      jumpi\n      0x0100\n      dup1\n      dup4\n      sload\n      div\n      mul\n      dup4\n      mstore\n      swap2\n      0x20\n      add\n      swap2\n      jump(tag_54)\n    tag_55:\n      dup3\n      add\n      swap2\n      swap1\n      0x00\n      mstore\n      keccak256(0x00, 0x20)\n      swap1\n    tag_56:\n      dup2\n      sload\n      dup2\n      mstore\n      swap1\n      0x01\n      add\n      swap1\n      0x20\n      add\n      dup1\n      dup4\n      gt\n      tag_56\n      jumpi\n      dup3\n      swap1\n      sub\n      0x1f\n      and\n      dup3\n      add\n      swap2\n    tag_54:\n      pop\n      pop\n      pop\n      pop\n      pop\n      dup2\n      jump\t// out\n        /* \"TemperatureFunctions.sol\":493:517  bytes public s_lastError */\n    tag_22:\n      0x02\n      dup1\n      sload\n      tag_57\n      swap1\n      tag_52\n      jump\t// in\n    tag_57:\n      dup1\n      0x1f\n      add\n      0x20\n      dup1\n      swap2\n      div\n      mul\n      0x20\n      add\n      mload(0x40)\n      swap1\n      dup2\n      add\n      0x40\n      mstore\n      dup1\n      swap3\n      swap2\n      swap1\n      dup2\n      dup2\n      mstore\n      0x20\n      add\n      dup3\n      dup1\n      sload\n      tag_58\n      swap1\n      tag_52\n      jump\t// in\n    tag_58:\n      dup1\n      iszero\n      tag_59\n      jumpi\n      dup1\n      0x1f\n      lt\n      tag_60\n      jumpi\n      0x0100\n      dup1\n      dup4\n      sload\n      div\n      mul\n      dup4\n      mstore\n      swap2\n      0x20\n      add\n      swap2\n      jump(tag_59)\n    tag_60:\n      dup3\n      add\n      swap2\n      swap1\n      0x00\n      mstore\n      keccak256(0x00, 0x20)\n      swap1\n    tag_61:\n      dup2\n      sload\n      dup2\n      mstore\n      swap1\n      0x01\n      add\n      swap1\n      0x20\n      add\n      dup1\n      dup4\n      gt\n      tag_61\n      jumpi\n      dup3\n      swap1\n      sub\n      0x1f\n      and\n      dup3\n      add\n      swap2\n    tag_59:\n      pop\n      pop\n      pop\n      pop\n      pop\n      dup2\n      jump\t// out\n        /* \"TemperatureFunctions.sol\":1023:1422  string public source =... */\n    tag_25:\n      0x05\n      dup1\n      sload\n      tag_62\n      swap1\n      tag_52\n      jump\t// in\n    tag_62:\n      dup1\n      0x1f\n      add\n      0x20\n      dup1\n      swap2\n      div\n      mul\n      0x20\n      add\n      mload(0x40)\n      swap1\n      dup2\n      add\n      0x40\n      mstore\n      dup1\n      swap3\n      swap2\n      swap1\n      dup2\n      dup2\n      mstore\n      0x20\n      add\n      dup3\n      dup1\n      sload\n      tag_63\n      swap1\n      tag_52\n      jump\t// in\n    tag_63:\n      dup1\n      iszero\n      tag_64\n      jumpi\n      dup1\n      0x1f\n      lt\n      tag_65\n      jumpi\n      0x0100\n      dup1\n      dup4\n      sload\n      div\n      mul\n      dup4\n      mstore\n      swap2\n      0x20\n      add\n      swap2\n      jump(tag_64)\n    tag_65:\n      dup3\n      add\n      swap2\n      swap1\n      0x00\n      mstore\n      keccak256(0x00, 0x20)\n      swap1\n    tag_66:\n      dup2\n      sload\n      dup2\n      mstore\n      swap1\n      0x01\n      add\n      swap1\n      0x20\n      add\n      dup1\n      dup4\n      gt\n      tag_66\n      jumpi\n      dup3\n      swap1\n      sub\n      0x1f\n      and\n      dup3\n      add\n      swap2\n    tag_64:\n      pop\n      pop\n      pop\n      pop\n      pop\n      dup2\n      jump\t// out\n        /* \"TemperatureFunctions.sol\":984:1014  uint64 public s_subscriptionId */\n    tag_29:\n      0x04\n      dup1\n      sload\n      swap1\n      0x0100\n      exp\n      swap1\n      div\n      0xffffffffffffffff\n      and\n      dup2\n      jump\t// out\n        /* \"TemperatureFunctions.sol\":1615:2190  function getTemperature(... */\n    tag_35:\n        /* \"TemperatureFunctions.sol\":1694:1711  bytes32 requestId */\n      0x00\n        /* \"TemperatureFunctions.sol\":1726:1746  string[] memory args */\n      0x00\n        /* \"TemperatureFunctions.sol\":1762:1763  1 */\n      0x01\n        /* \"TemperatureFunctions.sol\":1749:1764  new string[](1) */\n      0xffffffffffffffff\n      dup2\n      gt\n      iszero\n      tag_68\n      jumpi\n      tag_69\n      tag_70\n      jump\t// in\n    tag_69:\n    tag_68:\n      mload(0x40)\n      swap1\n      dup1\n      dup3\n      mstore\n      dup1\n      0x20\n      mul\n      0x20\n      add\n      dup3\n      add\n      0x40\n      mstore\n      dup1\n      iszero\n      tag_71\n      jumpi\n      dup2\n      0x20\n      add\n    tag_72:\n      0x60\n      dup2\n      mstore\n      0x20\n      add\n      swap1\n      0x01\n      swap1\n      sub\n      swap1\n      dup2\n      tag_72\n      jumpi\n      swap1\n      pop\n    tag_71:\n      pop\n        /* \"TemperatureFunctions.sol\":1726:1764  string[] memory args = new string[](1) */\n      swap1\n      pop\n        /* \"TemperatureFunctions.sol\":1783:1788  _city */\n      dup3\n        /* \"TemperatureFunctions.sol\":1775:1779  args */\n      dup2\n        /* \"TemperatureFunctions.sol\":1780:1781  0 */\n      0x00\n        /* \"TemperatureFunctions.sol\":1775:1782  args[0] */\n      dup2\n      mload\n      dup2\n      lt\n      tag_73\n      jumpi\n      tag_74\n      tag_75\n      jump\t// in\n    tag_74:\n    tag_73:\n      0x20\n      mul\n      0x20\n      add\n      add\n        /* \"TemperatureFunctions.sol\":1775:1788  args[0]=_city */\n      dup2\n      swap1\n      mstore\n      pop\n        /* \"TemperatureFunctions.sol\":1801:1836  FunctionsRequest.Request memory req */\n      tag_76\n      tag_77\n      jump\t// in\n    tag_76:\n        /* \"TemperatureFunctions.sol\":1847:1895  req.initializeRequestForInlineJavaScript(source) */\n      tag_78\n        /* \"TemperatureFunctions.sol\":1888:1894  source */\n      0x05\n        /* \"TemperatureFunctions.sol\":1847:1895  req.initializeRequestForInlineJavaScript(source) */\n      dup1\n      sload\n      tag_79\n      swap1\n      tag_52\n      jump\t// in\n    tag_79:\n      dup1\n      0x1f\n      add\n      0x20\n      dup1\n      swap2\n      div\n      mul\n      0x20\n      add\n      mload(0x40)\n      swap1\n      dup2\n      add\n      0x40\n      mstore\n      dup1\n      swap3\n      swap2\n      swap1\n      dup2\n      dup2\n      mstore\n      0x20\n      add\n      dup3\n      dup1\n      sload\n      tag_80\n      swap1\n      tag_52\n      jump\t// in\n    tag_80:\n      dup1\n      iszero\n      tag_81\n      jumpi\n      dup1\n      0x1f\n      lt\n      tag_82\n      jumpi\n      0x0100\n      dup1\n      dup4\n      sload\n      div\n      mul\n      dup4\n      mstore\n      swap2\n      0x20\n      add\n      swap2\n      jump(tag_81)\n    tag_82:\n      dup3\n      add\n      swap2\n      swap1\n      0x00\n      mstore\n      keccak256(0x00, 0x20)\n      swap1\n    tag_83:\n      dup2\n      sload\n      dup2\n      mstore\n      swap1\n      0x01\n      add\n      swap1\n      0x20\n      add\n      dup1\n      dup4\n      gt\n      tag_83\n      jumpi\n      dup3\n      swap1\n      sub\n      0x1f\n      and\n      dup3\n      add\n      swap2\n    tag_81:\n      pop\n      pop\n      pop\n      pop\n      pop\n        /* \"TemperatureFunctions.sol\":1847:1850  req */\n      dup3\n        /* \"TemperatureFunctions.sol\":1847:1887  req.initializeRequestForInlineJavaScript */\n      tag_84\n      swap1\n        /* \"TemperatureFunctions.sol\":1847:1895  req.initializeRequestForInlineJavaScript(source) */\n      swap2\n      swap1\n      0xffffffff\n      and\n      jump\t// in\n    tag_78:\n        /* \"TemperatureFunctions.sol\":1923:1924  0 */\n      0x00\n        /* \"TemperatureFunctions.sol\":1909:1913  args */\n      dup3\n        /* \"TemperatureFunctions.sol\":1909:1920  args.length */\n      mload\n        /* \"TemperatureFunctions.sol\":1909:1924  args.length > 0 */\n      gt\n        /* \"TemperatureFunctions.sol\":1906:1969  if(args.length > 0){... */\n      iszero\n      tag_85\n      jumpi\n        /* \"TemperatureFunctions.sol\":1940:1957  req.setArgs(args) */\n      tag_86\n        /* \"TemperatureFunctions.sol\":1952:1956  args */\n      dup3\n        /* \"TemperatureFunctions.sol\":1940:1943  req */\n      dup3\n        /* \"TemperatureFunctions.sol\":1940:1951  req.setArgs */\n      tag_87\n      swap1\n        /* \"TemperatureFunctions.sol\":1940:1957  req.setArgs(args) */\n      swap2\n      swap1\n      0xffffffff\n      and\n      jump\t// in\n    tag_86:\n        /* \"TemperatureFunctions.sol\":1906:1969  if(args.length > 0){... */\n    tag_85:\n        /* \"TemperatureFunctions.sol\":1999:2122  _sendRequest(... */\n      tag_88\n        /* \"TemperatureFunctions.sol\":2026:2042  req.encodeCBOR() */\n      tag_89\n        /* \"TemperatureFunctions.sol\":2026:2029  req */\n      dup3\n        /* \"TemperatureFunctions.sol\":2026:2040  req.encodeCBOR */\n      tag_90\n        /* \"TemperatureFunctions.sol\":2026:2042  req.encodeCBOR() */\n      jump\t// in\n    tag_89:\n        /* \"TemperatureFunctions.sol\":2057:2073  s_subscriptionId */\n      0x04\n      dup1\n      sload\n      swap1\n      0x0100\n      exp\n      swap1\n      div\n      0xffffffffffffffff\n      and\n        /* \"TemperatureFunctions.sol\":2088:2091  GAS */\n      0x04\n      0x00\n      swap1\n      sload\n      swap1\n      0x0100\n      exp\n      swap1\n      div\n      0xffffffff\n      and\n        /* \"TemperatureFunctions.sol\":2106:2111  DONID */\n      sload(0x03)\n        /* \"TemperatureFunctions.sol\":1999:2011  _sendRequest */\n      tag_91\n        /* \"TemperatureFunctions.sol\":1999:2122  _sendRequest(... */\n      jump\t// in\n    tag_88:\n        /* \"TemperatureFunctions.sol\":1981:1996  s_lastRequestId */\n      0x00\n        /* \"TemperatureFunctions.sol\":1981:2122  s_lastRequestId = _sendRequest(... */\n      dup2\n      swap1\n      sstore\n      pop\n        /* \"TemperatureFunctions.sol\":2142:2147  _city */\n      dup4\n        /* \"TemperatureFunctions.sol\":2133:2141  lastCity */\n      0x06\n        /* \"TemperatureFunctions.sol\":2133:2147  lastCity=_city */\n      swap1\n      dup2\n      tag_92\n      swap2\n      swap1\n      tag_93\n      jump\t// in\n    tag_92:\n      pop\n        /* \"TemperatureFunctions.sol\":2167:2182  s_lastRequestId */\n      sload(0x00)\n        /* \"TemperatureFunctions.sol\":2160:2182  return s_lastRequestId */\n      swap3\n      pop\n      pop\n      pop\n        /* \"TemperatureFunctions.sol\":1615:2190  function getTemperature(... */\n      swap2\n      swap1\n      pop\n      jump\t// out\n        /* \"TemperatureFunctions.sol\":1464:1493  string public lastTemperature */\n    tag_39:\n      0x07\n      dup1\n      sload\n      tag_94\n      swap1\n      tag_52\n      jump\t// in\n    tag_94:\n      dup1\n      0x1f\n      add\n      0x20\n      dup1\n      swap2\n      div\n      mul\n      0x20\n      add\n      mload(0x40)\n      swap1\n      dup2\n      add\n      0x40\n      mstore\n      dup1\n      swap3\n      swap2\n      swap1\n      dup2\n      dup2\n      mstore\n      0x20\n      add\n      dup3\n      dup1\n      sload\n      tag_95\n      swap1\n      tag_52\n      jump\t// in\n    tag_95:\n      dup1\n      iszero\n      tag_96\n      jumpi\n      dup1\n      0x1f\n      lt\n      tag_97\n      jumpi\n      0x0100\n      dup1\n      dup4\n      sload\n      div\n      mul\n      dup4\n      mstore\n      swap2\n      0x20\n      add\n      swap2\n      jump(tag_96)\n    tag_97:\n      dup3\n      add\n      swap2\n      swap1\n      0x00\n      mstore\n      keccak256(0x00, 0x20)\n      swap1\n    tag_98:\n      dup2\n      sload\n      dup2\n      mstore\n      swap1\n      0x01\n      add\n      swap1\n      0x20\n      add\n      dup1\n      dup4\n      gt\n      tag_98\n      jumpi\n      dup3\n      swap1\n      sub\n      0x1f\n      and\n      dup3\n      add\n      swap2\n    tag_96:\n      pop\n      pop\n      pop\n      pop\n      pop\n      dup2\n      jump\t// out\n        /* \"TemperatureFunctions.sol\":422:452  bytes32 public s_lastRequestId */\n    tag_42:\n      sload(0x00)\n      dup2\n      jump\t// out\n        /* \"TemperatureFunctions.sol\":1431:1453  string public lastCity */\n    tag_45:\n      0x06\n      dup1\n      sload\n      tag_99\n      swap1\n      tag_52\n      jump\t// in\n    tag_99:\n      dup1\n      0x1f\n      add\n      0x20\n      dup1\n      swap2\n      div\n      mul\n      0x20\n      add\n      mload(0x40)\n      swap1\n      dup2\n      add\n      0x40\n      mstore\n      dup1\n      swap3\n      swap2\n      swap1\n      dup2\n      dup2\n      mstore\n      0x20\n      add\n      dup3\n      dup1\n      sload\n      tag_100\n      swap1\n      tag_52\n      jump\t// in\n    tag_100:\n      dup1\n      iszero\n      tag_101\n      jumpi\n      dup1\n      0x1f\n      lt\n      tag_102\n      jumpi\n      0x0100\n      dup1\n      dup4\n      sload\n      div\n      mul\n      dup4\n      mstore\n      swap2\n      0x20\n      add\n      swap2\n      jump(tag_101)\n    tag_102:\n      dup3\n      add\n      swap2\n      swap1\n      0x00\n      mstore\n      keccak256(0x00, 0x20)\n      swap1\n    tag_103:\n      dup2\n      sload\n      dup2\n      mstore\n      swap1\n      0x01\n      add\n      swap1\n      0x20\n      add\n      dup1\n      dup4\n      gt\n      tag_103\n      jumpi\n      dup3\n      swap1\n      sub\n      0x1f\n      and\n      dup3\n      add\n      swap2\n    tag_101:\n      pop\n      pop\n      pop\n      pop\n      pop\n      dup2\n      jump\t// out\n        /* \"TemperatureFunctions.sol\":2198:2811  function fulfillRequest(... */\n    tag_50:\n        /* \"TemperatureFunctions.sol\":2368:2377  requestId */\n      dup3\n        /* \"TemperatureFunctions.sol\":2349:2364  s_lastRequestId */\n      sload(0x00)\n        /* \"TemperatureFunctions.sol\":2349:2377  s_lastRequestId != requestId */\n      eq\n        /* \"TemperatureFunctions.sol\":2345:2473  if (s_lastRequestId != requestId) {... */\n      tag_105\n      jumpi\n        /* \"TemperatureFunctions.sol\":2421:2430  requestId */\n      dup3\n        /* \"TemperatureFunctions.sol\":2401:2431  UnexpectedRequestID(requestId) */\n      mload(0x40)\n      0xd068bf5b00000000000000000000000000000000000000000000000000000000\n      dup2\n      mstore\n      0x04\n      add\n      tag_106\n      swap2\n      swap1\n      tag_37\n      jump\t// in\n    tag_106:\n      mload(0x40)\n      dup1\n      swap2\n      sub\n      swap1\n      revert\n        /* \"TemperatureFunctions.sol\":2345:2473  if (s_lastRequestId != requestId) {... */\n    tag_105:\n        /* \"TemperatureFunctions.sol\":2505:2508  err */\n      dup1\n        /* \"TemperatureFunctions.sol\":2491:2502  s_lastError */\n      0x02\n        /* \"TemperatureFunctions.sol\":2491:2508  s_lastError = err */\n      swap1\n      dup2\n      tag_107\n      swap2\n      swap1\n      tag_108\n      jump\t// in\n    tag_107:\n      pop\n        /* \"TemperatureFunctions.sol\":2621:2629  response */\n      dup2\n        /* \"TemperatureFunctions.sol\":2604:2618  s_lastResponse */\n      0x01\n        /* \"TemperatureFunctions.sol\":2604:2629  s_lastResponse = response */\n      swap1\n      dup2\n      tag_109\n      swap2\n      swap1\n      tag_108\n      jump\t// in\n    tag_109:\n      pop\n        /* \"TemperatureFunctions.sol\":2665:2673  response */\n      dup2\n        /* \"TemperatureFunctions.sol\":2640:2655  lastTemperature */\n      0x07\n        /* \"TemperatureFunctions.sol\":2640:2674  lastTemperature = string(response) */\n      swap1\n      dup2\n      tag_110\n      swap2\n      swap1\n      tag_93\n      jump\t// in\n    tag_110:\n      pop\n        /* \"TemperatureFunctions.sol\":2747:2756  requestId */\n      dup3\n        /* \"TemperatureFunctions.sol\":2738:2803  Response(requestId, lastTemperature, s_lastResponse, s_lastError) */\n      0x160ed0aaffbef6885155188b91459cb5a97d5daadccf7561d8c46deea6641b50\n        /* \"TemperatureFunctions.sol\":2758:2773  lastTemperature */\n      0x07\n        /* \"TemperatureFunctions.sol\":2775:2789  s_lastResponse */\n      0x01\n        /* \"TemperatureFunctions.sol\":2791:2802  s_lastError */\n      0x02\n        /* \"TemperatureFunctions.sol\":2738:2803  Response(requestId, lastTemperature, s_lastResponse, s_lastError) */\n      mload(0x40)\n      tag_111\n      swap4\n      swap3\n      swap2\n      swap1\n      tag_112\n      jump\t// in\n    tag_111:\n      mload(0x40)\n      dup1\n      swap2\n      sub\n      swap1\n      log2\n        /* \"TemperatureFunctions.sol\":2198:2811  function fulfillRequest(... */\n      pop\n      pop\n      pop\n      jump\t// out\n        /* \"@chainlink/contracts/src/v0.8/functions/dev/v1_0_0/libraries/FunctionsRequest.sol\":4326:4533  function initializeRequestForInlineJavaScript(Request memory self, string memory javaScriptSource) internal pure {... */\n    tag_84:\n        /* \"@chainlink/contracts/src/v0.8/functions/dev/v1_0_0/libraries/FunctionsRequest.sol\":4445:4528  initializeRequest(self, Location.Inline, CodeLanguage.JavaScript, javaScriptSource) */\n      tag_114\n        /* \"@chainlink/contracts/src/v0.8/functions/dev/v1_0_0/libraries/FunctionsRequest.sol\":4463:4467  self */\n      dup3\n        /* \"@chainlink/contracts/src/v0.8/functions/dev/v1_0_0/libraries/FunctionsRequest.sol\":4469:4484  Location.Inline */\n      0x00\n        /* \"@chainlink/contracts/src/v0.8/functions/dev/v1_0_0/libraries/FunctionsRequest.sol\":4486:4509  CodeLanguage.JavaScript */\n      0x00\n        /* \"@chainlink/contracts/src/v0.8/functions/dev/v1_0_0/libraries/FunctionsRequest.sol\":4511:4527  javaScriptSource */\n      dup5\n        /* \"@chainlink/contracts/src/v0.8/functions/dev/v1_0_0/libraries/FunctionsRequest.sol\":4445:4462  initializeRequest */\n      tag_115\n        /* \"@chainlink/contracts/src/v0.8/functions/dev/v1_0_0/libraries/FunctionsRequest.sol\":4445:4528  initializeRequest(self, Location.Inline, CodeLanguage.JavaScript, javaScriptSource) */\n      jump\t// in\n    tag_114:\n        /* \"@chainlink/contracts/src/v0.8/functions/dev/v1_0_0/libraries/FunctionsRequest.sol\":4326:4533  function initializeRequestForInlineJavaScript(Request memory self, string memory javaScriptSource) internal pure {... */\n      pop\n      pop\n      jump\t// out\n        /* \"@chainlink/contracts/src/v0.8/functions/dev/v1_0_0/libraries/FunctionsRequest.sol\":5830:5978  function setArgs(Request memory self, string[] memory args) internal pure {... */\n    tag_87:\n        /* \"@chainlink/contracts/src/v0.8/functions/dev/v1_0_0/libraries/FunctionsRequest.sol\":5929:5930  0 */\n      0x00\n        /* \"@chainlink/contracts/src/v0.8/functions/dev/v1_0_0/libraries/FunctionsRequest.sol\":5914:5918  args */\n      dup2\n        /* \"@chainlink/contracts/src/v0.8/functions/dev/v1_0_0/libraries/FunctionsRequest.sol\":5914:5925  args.length */\n      mload\n        /* \"@chainlink/contracts/src/v0.8/functions/dev/v1_0_0/libraries/FunctionsRequest.sol\":5914:5930  args.length == 0 */\n      sub\n        /* \"@chainlink/contracts/src/v0.8/functions/dev/v1_0_0/libraries/FunctionsRequest.sol\":5910:5950  if (args.length == 0) revert EmptyArgs() */\n      tag_117\n      jumpi\n        /* \"@chainlink/contracts/src/v0.8/functions/dev/v1_0_0/libraries/FunctionsRequest.sol\":5939:5950  EmptyArgs() */\n      mload(0x40)\n      0xfe936cb700000000000000000000000000000000000000000000000000000000\n      dup2\n      mstore\n      0x04\n      add\n      mload(0x40)\n      dup1\n      swap2\n      sub\n      swap1\n      revert\n        /* \"@chainlink/contracts/src/v0.8/functions/dev/v1_0_0/libraries/FunctionsRequest.sol\":5910:5950  if (args.length == 0) revert EmptyArgs() */\n    tag_117:\n        /* \"@chainlink/contracts/src/v0.8/functions/dev/v1_0_0/libraries/FunctionsRequest.sol\":5969:5973  args */\n      dup1\n        /* \"@chainlink/contracts/src/v0.8/functions/dev/v1_0_0/libraries/FunctionsRequest.sol\":5957:5961  self */\n      dup3\n        /* \"@chainlink/contracts/src/v0.8/functions/dev/v1_0_0/libraries/FunctionsRequest.sol\":5957:5966  self.args */\n      0xa0\n      add\n        /* \"@chainlink/contracts/src/v0.8/functions/dev/v1_0_0/libraries/FunctionsRequest.sol\":5957:5973  self.args = args */\n      dup2\n      swap1\n      mstore\n      pop\n        /* \"@chainlink/contracts/src/v0.8/functions/dev/v1_0_0/libraries/FunctionsRequest.sol\":5830:5978  function setArgs(Request memory self, string[] memory args) internal pure {... */\n      pop\n      pop\n      jump\t// out\n        /* \"@chainlink/contracts/src/v0.8/functions/dev/v1_0_0/libraries/FunctionsRequest.sol\":2161:3431  function encodeCBOR(Request memory self) internal pure returns (bytes memory) {... */\n    tag_90:\n        /* \"@chainlink/contracts/src/v0.8/functions/dev/v1_0_0/libraries/FunctionsRequest.sol\":2225:2237  bytes memory */\n      0x60\n        /* \"@chainlink/contracts/src/v0.8/functions/dev/v1_0_0/libraries/FunctionsRequest.sol\":2245:2274  CBOR.CBORBuffer memory buffer */\n      0x00\n        /* \"@chainlink/contracts/src/v0.8/functions/dev/v1_0_0/libraries/FunctionsRequest.sol\":2277:2309  CBOR.create(DEFAULT_BUFFER_SIZE) */\n      tag_119\n        /* \"@chainlink/contracts/src/v0.8/functions/dev/v1_0_0/libraries/FunctionsRequest.sol\":378:381  256 */\n      0x0100\n        /* \"@chainlink/contracts/src/v0.8/functions/dev/v1_0_0/libraries/FunctionsRequest.sol\":2277:2288  CBOR.create */\n      tag_120\n        /* \"@chainlink/contracts/src/v0.8/functions/dev/v1_0_0/libraries/FunctionsRequest.sol\":2277:2309  CBOR.create(DEFAULT_BUFFER_SIZE) */\n      jump\t// in\n    tag_119:\n        /* \"@chainlink/contracts/src/v0.8/functions/dev/v1_0_0/libraries/FunctionsRequest.sol\":2245:2309  CBOR.CBORBuffer memory buffer = CBOR.create(DEFAULT_BUFFER_SIZE) */\n      swap1\n      pop\n        /* \"@chainlink/contracts/src/v0.8/functions/dev/v1_0_0/libraries/FunctionsRequest.sol\":2316:2350  buffer.writeString(\"codeLocation\") */\n      tag_121\n      mload(0x40)\n      dup1\n      0x40\n      add\n      0x40\n      mstore\n      dup1\n      0x0c\n      dup2\n      mstore\n      0x20\n      add\n      0x636f64654c6f636174696f6e0000000000000000000000000000000000000000\n      dup2\n      mstore\n      pop\n        /* \"@chainlink/contracts/src/v0.8/functions/dev/v1_0_0/libraries/FunctionsRequest.sol\":2316:2322  buffer */\n      dup3\n        /* \"@chainlink/contracts/src/v0.8/functions/dev/v1_0_0/libraries/FunctionsRequest.sol\":2316:2334  buffer.writeString */\n      tag_122\n      swap1\n        /* \"@chainlink/contracts/src/v0.8/functions/dev/v1_0_0/libraries/FunctionsRequest.sol\":2316:2350  buffer.writeString(\"codeLocation\") */\n      swap2\n      swap1\n      0xffffffff\n      and\n      jump\t// in\n    tag_121:\n        /* \"@chainlink/contracts/src/v0.8/functions/dev/v1_0_0/libraries/FunctionsRequest.sol\":2356:2403  buffer.writeUInt256(uint256(self.codeLocation)) */\n      tag_123\n        /* \"@chainlink/contracts/src/v0.8/functions/dev/v1_0_0/libraries/FunctionsRequest.sol\":2384:2388  self */\n      dup4\n        /* \"@chainlink/contracts/src/v0.8/functions/dev/v1_0_0/libraries/FunctionsRequest.sol\":2384:2401  self.codeLocation */\n      0x00\n      add\n      mload\n        /* \"@chainlink/contracts/src/v0.8/functions/dev/v1_0_0/libraries/FunctionsRequest.sol\":2376:2402  uint256(self.codeLocation) */\n      0x02\n      dup2\n      gt\n      iszero\n      tag_124\n      jumpi\n      tag_125\n      tag_126\n      jump\t// in\n    tag_125:\n    tag_124:\n        /* \"@chainlink/contracts/src/v0.8/functions/dev/v1_0_0/libraries/FunctionsRequest.sol\":2356:2362  buffer */\n      dup3\n        /* \"@chainlink/contracts/src/v0.8/functions/dev/v1_0_0/libraries/FunctionsRequest.sol\":2356:2375  buffer.writeUInt256 */\n      tag_127\n      swap1\n        /* \"@chainlink/contracts/src/v0.8/functions/dev/v1_0_0/libraries/FunctionsRequest.sol\":2356:2403  buffer.writeUInt256(uint256(self.codeLocation)) */\n      swap2\n      swap1\n      0xffffffff\n      and\n      jump\t// in\n    tag_123:\n        /* \"@chainlink/contracts/src/v0.8/functions/dev/v1_0_0/libraries/FunctionsRequest.sol\":2410:2440  buffer.writeString(\"language\") */\n      tag_128\n      mload(0x40)\n      dup1\n      0x40\n      add\n      0x40\n      mstore\n      dup1\n      0x08\n      dup2\n      mstore\n      0x20\n      add\n      0x6c616e6775616765000000000000000000000000000000000000000000000000\n      dup2\n      mstore\n      pop\n        /* \"@chainlink/contracts/src/v0.8/functions/dev/v1_0_0/libraries/FunctionsRequest.sol\":2410:2416  buffer */\n      dup3\n        /* \"@chainlink/contracts/src/v0.8/functions/dev/v1_0_0/libraries/FunctionsRequest.sol\":2410:2428  buffer.writeString */\n      tag_122\n      swap1\n        /* \"@chainlink/contracts/src/v0.8/functions/dev/v1_0_0/libraries/FunctionsRequest.sol\":2410:2440  buffer.writeString(\"language\") */\n      swap2\n      swap1\n      0xffffffff\n      and\n      jump\t// in\n    tag_128:\n        /* \"@chainlink/contracts/src/v0.8/functions/dev/v1_0_0/libraries/FunctionsRequest.sol\":2446:2489  buffer.writeUInt256(uint256(self.language)) */\n      tag_129\n        /* \"@chainlink/contracts/src/v0.8/functions/dev/v1_0_0/libraries/FunctionsRequest.sol\":2474:2478  self */\n      dup4\n        /* \"@chainlink/contracts/src/v0.8/functions/dev/v1_0_0/libraries/FunctionsRequest.sol\":2474:2487  self.language */\n      0x40\n      add\n      mload\n        /* \"@chainlink/contracts/src/v0.8/functions/dev/v1_0_0/libraries/FunctionsRequest.sol\":2466:2488  uint256(self.language) */\n      0x00\n      dup2\n      gt\n      iszero\n      tag_130\n      jumpi\n      tag_131\n      tag_126\n      jump\t// in\n    tag_131:\n    tag_130:\n        /* \"@chainlink/contracts/src/v0.8/functions/dev/v1_0_0/libraries/FunctionsRequest.sol\":2446:2452  buffer */\n      dup3\n        /* \"@chainlink/contracts/src/v0.8/functions/dev/v1_0_0/libraries/FunctionsRequest.sol\":2446:2465  buffer.writeUInt256 */\n      tag_127\n      swap1\n        /* \"@chainlink/contracts/src/v0.8/functions/dev/v1_0_0/libraries/FunctionsRequest.sol\":2446:2489  buffer.writeUInt256(uint256(self.language)) */\n      swap2\n      swap1\n      0xffffffff\n      and\n      jump\t// in\n    tag_129:\n        /* \"@chainlink/contracts/src/v0.8/functions/dev/v1_0_0/libraries/FunctionsRequest.sol\":2496:2524  buffer.writeString(\"source\") */\n      tag_132\n      mload(0x40)\n      dup1\n      0x40\n      add\n      0x40\n      mstore\n      dup1\n      0x06\n      dup2\n      mstore\n      0x20\n      add\n      0x736f757263650000000000000000000000000000000000000000000000000000\n      dup2\n      mstore\n      pop\n        /* \"@chainlink/contracts/src/v0.8/functions/dev/v1_0_0/libraries/FunctionsRequest.sol\":2496:2502  buffer */\n      dup3\n        /* \"@chainlink/contracts/src/v0.8/functions/dev/v1_0_0/libraries/FunctionsRequest.sol\":2496:2514  buffer.writeString */\n      tag_122\n      swap1\n        /* \"@chainlink/contracts/src/v0.8/functions/dev/v1_0_0/libraries/FunctionsRequest.sol\":2496:2524  buffer.writeString(\"source\") */\n      swap2\n      swap1\n      0xffffffff\n      and\n      jump\t// in\n    tag_132:\n        /* \"@chainlink/contracts/src/v0.8/functions/dev/v1_0_0/libraries/FunctionsRequest.sol\":2530:2561  buffer.writeString(self.source) */\n      tag_133\n        /* \"@chainlink/contracts/src/v0.8/functions/dev/v1_0_0/libraries/FunctionsRequest.sol\":2549:2553  self */\n      dup4\n        /* \"@chainlink/contracts/src/v0.8/functions/dev/v1_0_0/libraries/FunctionsRequest.sol\":2549:2560  self.source */\n      0x60\n      add\n      mload\n        /* \"@chainlink/contracts/src/v0.8/functions/dev/v1_0_0/libraries/FunctionsRequest.sol\":2530:2536  buffer */\n      dup3\n        /* \"@chainlink/contracts/src/v0.8/functions/dev/v1_0_0/libraries/FunctionsRequest.sol\":2530:2548  buffer.writeString */\n      tag_122\n      swap1\n        /* \"@chainlink/contracts/src/v0.8/functions/dev/v1_0_0/libraries/FunctionsRequest.sol\":2530:2561  buffer.writeString(self.source) */\n      swap2\n      swap1\n      0xffffffff\n      and\n      jump\t// in\n    tag_133:\n        /* \"@chainlink/contracts/src/v0.8/functions/dev/v1_0_0/libraries/FunctionsRequest.sol\":2591:2592  0 */\n      0x00\n        /* \"@chainlink/contracts/src/v0.8/functions/dev/v1_0_0/libraries/FunctionsRequest.sol\":2572:2576  self */\n      dup4\n        /* \"@chainlink/contracts/src/v0.8/functions/dev/v1_0_0/libraries/FunctionsRequest.sol\":2572:2581  self.args */\n      0xa0\n      add\n      mload\n        /* \"@chainlink/contracts/src/v0.8/functions/dev/v1_0_0/libraries/FunctionsRequest.sol\":2572:2588  self.args.length */\n      mload\n        /* \"@chainlink/contracts/src/v0.8/functions/dev/v1_0_0/libraries/FunctionsRequest.sol\":2572:2592  self.args.length > 0 */\n      gt\n        /* \"@chainlink/contracts/src/v0.8/functions/dev/v1_0_0/libraries/FunctionsRequest.sol\":2568:2795  if (self.args.length > 0) {... */\n      iszero\n      tag_134\n      jumpi\n        /* \"@chainlink/contracts/src/v0.8/functions/dev/v1_0_0/libraries/FunctionsRequest.sol\":2602:2628  buffer.writeString(\"args\") */\n      tag_135\n      mload(0x40)\n      dup1\n      0x40\n      add\n      0x40\n      mstore\n      dup1\n      0x04\n      dup2\n      mstore\n      0x20\n      add\n      0x6172677300000000000000000000000000000000000000000000000000000000\n      dup2\n      mstore\n      pop\n        /* \"@chainlink/contracts/src/v0.8/functions/dev/v1_0_0/libraries/FunctionsRequest.sol\":2602:2608  buffer */\n      dup3\n        /* \"@chainlink/contracts/src/v0.8/functions/dev/v1_0_0/libraries/FunctionsRequest.sol\":2602:2620  buffer.writeString */\n      tag_122\n      swap1\n        /* \"@chainlink/contracts/src/v0.8/functions/dev/v1_0_0/libraries/FunctionsRequest.sol\":2602:2628  buffer.writeString(\"args\") */\n      swap2\n      swap1\n      0xffffffff\n      and\n      jump\t// in\n    tag_135:\n        /* \"@chainlink/contracts/src/v0.8/functions/dev/v1_0_0/libraries/FunctionsRequest.sol\":2636:2655  buffer.startArray() */\n      tag_136\n        /* \"@chainlink/contracts/src/v0.8/functions/dev/v1_0_0/libraries/FunctionsRequest.sol\":2636:2642  buffer */\n      dup2\n        /* \"@chainlink/contracts/src/v0.8/functions/dev/v1_0_0/libraries/FunctionsRequest.sol\":2636:2653  buffer.startArray */\n      tag_137\n        /* \"@chainlink/contracts/src/v0.8/functions/dev/v1_0_0/libraries/FunctionsRequest.sol\":2636:2655  buffer.startArray() */\n      jump\t// in\n    tag_136:\n        /* \"@chainlink/contracts/src/v0.8/functions/dev/v1_0_0/libraries/FunctionsRequest.sol\":2668:2677  uint256 i */\n      0x00\n        /* \"@chainlink/contracts/src/v0.8/functions/dev/v1_0_0/libraries/FunctionsRequest.sol\":2680:2681  0 */\n      0x00\n        /* \"@chainlink/contracts/src/v0.8/functions/dev/v1_0_0/libraries/FunctionsRequest.sol\":2668:2681  uint256 i = 0 */\n      swap1\n      pop\n        /* \"@chainlink/contracts/src/v0.8/functions/dev/v1_0_0/libraries/FunctionsRequest.sol\":2663:2761  for (uint256 i = 0; i < self.args.length; ++i) {... */\n    tag_138:\n        /* \"@chainlink/contracts/src/v0.8/functions/dev/v1_0_0/libraries/FunctionsRequest.sol\":2687:2691  self */\n      dup4\n        /* \"@chainlink/contracts/src/v0.8/functions/dev/v1_0_0/libraries/FunctionsRequest.sol\":2687:2696  self.args */\n      0xa0\n      add\n      mload\n        /* \"@chainlink/contracts/src/v0.8/functions/dev/v1_0_0/libraries/FunctionsRequest.sol\":2687:2703  self.args.length */\n      mload\n        /* \"@chainlink/contracts/src/v0.8/functions/dev/v1_0_0/libraries/FunctionsRequest.sol\":2683:2684  i */\n      dup2\n        /* \"@chainlink/contracts/src/v0.8/functions/dev/v1_0_0/libraries/FunctionsRequest.sol\":2683:2703  i < self.args.length */\n      lt\n        /* \"@chainlink/contracts/src/v0.8/functions/dev/v1_0_0/libraries/FunctionsRequest.sol\":2663:2761  for (uint256 i = 0; i < self.args.length; ++i) {... */\n      iszero\n      tag_139\n      jumpi\n        /* \"@chainlink/contracts/src/v0.8/functions/dev/v1_0_0/libraries/FunctionsRequest.sol\":2720:2752  buffer.writeString(self.args[i]) */\n      tag_141\n        /* \"@chainlink/contracts/src/v0.8/functions/dev/v1_0_0/libraries/FunctionsRequest.sol\":2739:2743  self */\n      dup5\n        /* \"@chainlink/contracts/src/v0.8/functions/dev/v1_0_0/libraries/FunctionsRequest.sol\":2739:2748  self.args */\n      0xa0\n      add\n      mload\n        /* \"@chainlink/contracts/src/v0.8/functions/dev/v1_0_0/libraries/FunctionsRequest.sol\":2749:2750  i */\n      dup3\n        /* \"@chainlink/contracts/src/v0.8/functions/dev/v1_0_0/libraries/FunctionsRequest.sol\":2739:2751  self.args[i] */\n      dup2\n      mload\n      dup2\n      lt\n      tag_142\n      jumpi\n      tag_143\n      tag_75\n      jump\t// in\n    tag_143:\n    tag_142:\n      0x20\n      mul\n      0x20\n      add\n      add\n      mload\n        /* \"@chainlink/contracts/src/v0.8/functions/dev/v1_0_0/libraries/FunctionsRequest.sol\":2720:2726  buffer */\n      dup4\n        /* \"@chainlink/contracts/src/v0.8/functions/dev/v1_0_0/libraries/FunctionsRequest.sol\":2720:2738  buffer.writeString */\n      tag_122\n      swap1\n        /* \"@chainlink/contracts/src/v0.8/functions/dev/v1_0_0/libraries/FunctionsRequest.sol\":2720:2752  buffer.writeString(self.args[i]) */\n      swap2\n      swap1\n      0xffffffff\n      and\n      jump\t// in\n    tag_141:\n        /* \"@chainlink/contracts/src/v0.8/functions/dev/v1_0_0/libraries/FunctionsRequest.sol\":2705:2708  ++i */\n      dup1\n      0x01\n      add\n      swap1\n      pop\n        /* \"@chainlink/contracts/src/v0.8/functions/dev/v1_0_0/libraries/FunctionsRequest.sol\":2663:2761  for (uint256 i = 0; i < self.args.length; ++i) {... */\n      jump(tag_138)\n    tag_139:\n      pop\n        /* \"@chainlink/contracts/src/v0.8/functions/dev/v1_0_0/libraries/FunctionsRequest.sol\":2768:2788  buffer.endSequence() */\n      tag_144\n        /* \"@chainlink/contracts/src/v0.8/functions/dev/v1_0_0/libraries/FunctionsRequest.sol\":2768:2774  buffer */\n      dup2\n        /* \"@chainlink/contracts/src/v0.8/functions/dev/v1_0_0/libraries/FunctionsRequest.sol\":2768:2786  buffer.endSequence */\n      tag_145\n        /* \"@chainlink/contracts/src/v0.8/functions/dev/v1_0_0/libraries/FunctionsRequest.sol\":2768:2788  buffer.endSequence() */\n      jump\t// in\n    tag_144:\n        /* \"@chainlink/contracts/src/v0.8/functions/dev/v1_0_0/libraries/FunctionsRequest.sol\":2568:2795  if (self.args.length > 0) {... */\n    tag_134:\n        /* \"@chainlink/contracts/src/v0.8/functions/dev/v1_0_0/libraries/FunctionsRequest.sol\":2845:2846  0 */\n      0x00\n        /* \"@chainlink/contracts/src/v0.8/functions/dev/v1_0_0/libraries/FunctionsRequest.sol\":2805:2809  self */\n      dup4\n        /* \"@chainlink/contracts/src/v0.8/functions/dev/v1_0_0/libraries/FunctionsRequest.sol\":2805:2835  self.encryptedSecretsReference */\n      0x80\n      add\n      mload\n        /* \"@chainlink/contracts/src/v0.8/functions/dev/v1_0_0/libraries/FunctionsRequest.sol\":2805:2842  self.encryptedSecretsReference.length */\n      mload\n        /* \"@chainlink/contracts/src/v0.8/functions/dev/v1_0_0/libraries/FunctionsRequest.sol\":2805:2846  self.encryptedSecretsReference.length > 0 */\n      gt\n        /* \"@chainlink/contracts/src/v0.8/functions/dev/v1_0_0/libraries/FunctionsRequest.sol\":2801:3147  if (self.encryptedSecretsReference.length > 0) {... */\n      iszero\n      tag_146\n      jumpi\n        /* \"@chainlink/contracts/src/v0.8/functions/dev/v1_0_0/libraries/FunctionsRequest.sol\":2884:2899  Location.Inline */\n      0x00\n        /* \"@chainlink/contracts/src/v0.8/functions/dev/v1_0_0/libraries/FunctionsRequest.sol\":2860:2899  self.secretsLocation == Location.Inline */\n      0x02\n      dup2\n      gt\n      iszero\n      tag_147\n      jumpi\n      tag_148\n      tag_126\n      jump\t// in\n    tag_148:\n    tag_147:\n        /* \"@chainlink/contracts/src/v0.8/functions/dev/v1_0_0/libraries/FunctionsRequest.sol\":2860:2864  self */\n      dup4\n        /* \"@chainlink/contracts/src/v0.8/functions/dev/v1_0_0/libraries/FunctionsRequest.sol\":2860:2880  self.secretsLocation */\n      0x20\n      add\n      mload\n        /* \"@chainlink/contracts/src/v0.8/functions/dev/v1_0_0/libraries/FunctionsRequest.sol\":2860:2899  self.secretsLocation == Location.Inline */\n      0x02\n      dup2\n      gt\n      iszero\n      tag_149\n      jumpi\n      tag_150\n      tag_126\n      jump\t// in\n    tag_150:\n    tag_149:\n      sub\n        /* \"@chainlink/contracts/src/v0.8/functions/dev/v1_0_0/libraries/FunctionsRequest.sol\":2856:2944  if (self.secretsLocation == Location.Inline) {... */\n      tag_151\n      jumpi\n        /* \"@chainlink/contracts/src/v0.8/functions/dev/v1_0_0/libraries/FunctionsRequest.sol\":2918:2935  NoInlineSecrets() */\n      mload(0x40)\n      0xa80d31f700000000000000000000000000000000000000000000000000000000\n      dup2\n      mstore\n      0x04\n      add\n      mload(0x40)\n      dup1\n      swap2\n      sub\n      swap1\n      revert\n        /* \"@chainlink/contracts/src/v0.8/functions/dev/v1_0_0/libraries/FunctionsRequest.sol\":2856:2944  if (self.secretsLocation == Location.Inline) {... */\n    tag_151:\n        /* \"@chainlink/contracts/src/v0.8/functions/dev/v1_0_0/libraries/FunctionsRequest.sol\":2951:2988  buffer.writeString(\"secretsLocation\") */\n      tag_152\n      mload(0x40)\n      dup1\n      0x40\n      add\n      0x40\n      mstore\n      dup1\n      0x0f\n      dup2\n      mstore\n      0x20\n      add\n      0x736563726574734c6f636174696f6e0000000000000000000000000000000000\n      dup2\n      mstore\n      pop\n        /* \"@chainlink/contracts/src/v0.8/functions/dev/v1_0_0/libraries/FunctionsRequest.sol\":2951:2957  buffer */\n      dup3\n        /* \"@chainlink/contracts/src/v0.8/functions/dev/v1_0_0/libraries/FunctionsRequest.sol\":2951:2969  buffer.writeString */\n      tag_122\n      swap1\n        /* \"@chainlink/contracts/src/v0.8/functions/dev/v1_0_0/libraries/FunctionsRequest.sol\":2951:2988  buffer.writeString(\"secretsLocation\") */\n      swap2\n      swap1\n      0xffffffff\n      and\n      jump\t// in\n    tag_152:\n        /* \"@chainlink/contracts/src/v0.8/functions/dev/v1_0_0/libraries/FunctionsRequest.sol\":2996:3046  buffer.writeUInt256(uint256(self.secretsLocation)) */\n      tag_153\n        /* \"@chainlink/contracts/src/v0.8/functions/dev/v1_0_0/libraries/FunctionsRequest.sol\":3024:3028  self */\n      dup4\n        /* \"@chainlink/contracts/src/v0.8/functions/dev/v1_0_0/libraries/FunctionsRequest.sol\":3024:3044  self.secretsLocation */\n      0x20\n      add\n      mload\n        /* \"@chainlink/contracts/src/v0.8/functions/dev/v1_0_0/libraries/FunctionsRequest.sol\":3016:3045  uint256(self.secretsLocation) */\n      0x02\n      dup2\n      gt\n      iszero\n      tag_154\n      jumpi\n      tag_155\n      tag_126\n      jump\t// in\n    tag_155:\n    tag_154:\n        /* \"@chainlink/contracts/src/v0.8/functions/dev/v1_0_0/libraries/FunctionsRequest.sol\":2996:3002  buffer */\n      dup3\n        /* \"@chainlink/contracts/src/v0.8/functions/dev/v1_0_0/libraries/FunctionsRequest.sol\":2996:3015  buffer.writeUInt256 */\n      tag_127\n      swap1\n        /* \"@chainlink/contracts/src/v0.8/functions/dev/v1_0_0/libraries/FunctionsRequest.sol\":2996:3046  buffer.writeUInt256(uint256(self.secretsLocation)) */\n      swap2\n      swap1\n      0xffffffff\n      and\n      jump\t// in\n    tag_153:\n        /* \"@chainlink/contracts/src/v0.8/functions/dev/v1_0_0/libraries/FunctionsRequest.sol\":3054:3083  buffer.writeString(\"secrets\") */\n      tag_156\n      mload(0x40)\n      dup1\n      0x40\n      add\n      0x40\n      mstore\n      dup1\n      0x07\n      dup2\n      mstore\n      0x20\n      add\n      0x7365637265747300000000000000000000000000000000000000000000000000\n      dup2\n      mstore\n      pop\n        /* \"@chainlink/contracts/src/v0.8/functions/dev/v1_0_0/libraries/FunctionsRequest.sol\":3054:3060  buffer */\n      dup3\n        /* \"@chainlink/contracts/src/v0.8/functions/dev/v1_0_0/libraries/FunctionsRequest.sol\":3054:3072  buffer.writeString */\n      tag_122\n      swap1\n        /* \"@chainlink/contracts/src/v0.8/functions/dev/v1_0_0/libraries/FunctionsRequest.sol\":3054:3083  buffer.writeString(\"secrets\") */\n      swap2\n      swap1\n      0xffffffff\n      and\n      jump\t// in\n    tag_156:\n        /* \"@chainlink/contracts/src/v0.8/functions/dev/v1_0_0/libraries/FunctionsRequest.sol\":3091:3140  buffer.writeBytes(self.encryptedSecretsReference) */\n      tag_157\n        /* \"@chainlink/contracts/src/v0.8/functions/dev/v1_0_0/libraries/FunctionsRequest.sol\":3109:3113  self */\n      dup4\n        /* \"@chainlink/contracts/src/v0.8/functions/dev/v1_0_0/libraries/FunctionsRequest.sol\":3109:3139  self.encryptedSecretsReference */\n      0x80\n      add\n      mload\n        /* \"@chainlink/contracts/src/v0.8/functions/dev/v1_0_0/libraries/FunctionsRequest.sol\":3091:3097  buffer */\n      dup3\n        /* \"@chainlink/contracts/src/v0.8/functions/dev/v1_0_0/libraries/FunctionsRequest.sol\":3091:3108  buffer.writeBytes */\n      tag_158\n      swap1\n        /* \"@chainlink/contracts/src/v0.8/functions/dev/v1_0_0/libraries/FunctionsRequest.sol\":3091:3140  buffer.writeBytes(self.encryptedSecretsReference) */\n      swap2\n      swap1\n      0xffffffff\n      and\n      jump\t// in\n    tag_157:\n        /* \"@chainlink/contracts/src/v0.8/functions/dev/v1_0_0/libraries/FunctionsRequest.sol\":2801:3147  if (self.encryptedSecretsReference.length > 0) {... */\n    tag_146:\n        /* \"@chainlink/contracts/src/v0.8/functions/dev/v1_0_0/libraries/FunctionsRequest.sol\":3181:3182  0 */\n      0x00\n        /* \"@chainlink/contracts/src/v0.8/functions/dev/v1_0_0/libraries/FunctionsRequest.sol\":3157:3161  self */\n      dup4\n        /* \"@chainlink/contracts/src/v0.8/functions/dev/v1_0_0/libraries/FunctionsRequest.sol\":3157:3171  self.bytesArgs */\n      0xc0\n      add\n      mload\n        /* \"@chainlink/contracts/src/v0.8/functions/dev/v1_0_0/libraries/FunctionsRequest.sol\":3157:3178  self.bytesArgs.length */\n      mload\n        /* \"@chainlink/contracts/src/v0.8/functions/dev/v1_0_0/libraries/FunctionsRequest.sol\":3157:3182  self.bytesArgs.length > 0 */\n      gt\n        /* \"@chainlink/contracts/src/v0.8/functions/dev/v1_0_0/libraries/FunctionsRequest.sol\":3153:3399  if (self.bytesArgs.length > 0) {... */\n      iszero\n      tag_159\n      jumpi\n        /* \"@chainlink/contracts/src/v0.8/functions/dev/v1_0_0/libraries/FunctionsRequest.sol\":3192:3223  buffer.writeString(\"bytesArgs\") */\n      tag_160\n      mload(0x40)\n      dup1\n      0x40\n      add\n      0x40\n      mstore\n      dup1\n      0x09\n      dup2\n      mstore\n      0x20\n      add\n      0x6279746573417267730000000000000000000000000000000000000000000000\n      dup2\n      mstore\n      pop\n        /* \"@chainlink/contracts/src/v0.8/functions/dev/v1_0_0/libraries/FunctionsRequest.sol\":3192:3198  buffer */\n      dup3\n        /* \"@chainlink/contracts/src/v0.8/functions/dev/v1_0_0/libraries/FunctionsRequest.sol\":3192:3210  buffer.writeString */\n      tag_122\n      swap1\n        /* \"@chainlink/contracts/src/v0.8/functions/dev/v1_0_0/libraries/FunctionsRequest.sol\":3192:3223  buffer.writeString(\"bytesArgs\") */\n      swap2\n      swap1\n      0xffffffff\n      and\n      jump\t// in\n    tag_160:\n        /* \"@chainlink/contracts/src/v0.8/functions/dev/v1_0_0/libraries/FunctionsRequest.sol\":3231:3250  buffer.startArray() */\n      tag_161\n        /* \"@chainlink/contracts/src/v0.8/functions/dev/v1_0_0/libraries/FunctionsRequest.sol\":3231:3237  buffer */\n      dup2\n        /* \"@chainlink/contracts/src/v0.8/functions/dev/v1_0_0/libraries/FunctionsRequest.sol\":3231:3248  buffer.startArray */\n      tag_137\n        /* \"@chainlink/contracts/src/v0.8/functions/dev/v1_0_0/libraries/FunctionsRequest.sol\":3231:3250  buffer.startArray() */\n      jump\t// in\n    tag_161:\n        /* \"@chainlink/contracts/src/v0.8/functions/dev/v1_0_0/libraries/FunctionsRequest.sol\":3263:3272  uint256 i */\n      0x00\n        /* \"@chainlink/contracts/src/v0.8/functions/dev/v1_0_0/libraries/FunctionsRequest.sol\":3275:3276  0 */\n      0x00\n        /* \"@chainlink/contracts/src/v0.8/functions/dev/v1_0_0/libraries/FunctionsRequest.sol\":3263:3276  uint256 i = 0 */\n      swap1\n      pop\n        /* \"@chainlink/contracts/src/v0.8/functions/dev/v1_0_0/libraries/FunctionsRequest.sol\":3258:3365  for (uint256 i = 0; i < self.bytesArgs.length; ++i) {... */\n    tag_162:\n        /* \"@chainlink/contracts/src/v0.8/functions/dev/v1_0_0/libraries/FunctionsRequest.sol\":3282:3286  self */\n      dup4\n        /* \"@chainlink/contracts/src/v0.8/functions/dev/v1_0_0/libraries/FunctionsRequest.sol\":3282:3296  self.bytesArgs */\n      0xc0\n      add\n      mload\n        /* \"@chainlink/contracts/src/v0.8/functions/dev/v1_0_0/libraries/FunctionsRequest.sol\":3282:3303  self.bytesArgs.length */\n      mload\n        /* \"@chainlink/contracts/src/v0.8/functions/dev/v1_0_0/libraries/FunctionsRequest.sol\":3278:3279  i */\n      dup2\n        /* \"@chainlink/contracts/src/v0.8/functions/dev/v1_0_0/libraries/FunctionsRequest.sol\":3278:3303  i < self.bytesArgs.length */\n      lt\n        /* \"@chainlink/contracts/src/v0.8/functions/dev/v1_0_0/libraries/FunctionsRequest.sol\":3258:3365  for (uint256 i = 0; i < self.bytesArgs.length; ++i) {... */\n      iszero\n      tag_163\n      jumpi\n        /* \"@chainlink/contracts/src/v0.8/functions/dev/v1_0_0/libraries/FunctionsRequest.sol\":3320:3356  buffer.writeBytes(self.bytesArgs[i]) */\n      tag_165\n        /* \"@chainlink/contracts/src/v0.8/functions/dev/v1_0_0/libraries/FunctionsRequest.sol\":3338:3342  self */\n      dup5\n        /* \"@chainlink/contracts/src/v0.8/functions/dev/v1_0_0/libraries/FunctionsRequest.sol\":3338:3352  self.bytesArgs */\n      0xc0\n      add\n      mload\n        /* \"@chainlink/contracts/src/v0.8/functions/dev/v1_0_0/libraries/FunctionsRequest.sol\":3353:3354  i */\n      dup3\n        /* \"@chainlink/contracts/src/v0.8/functions/dev/v1_0_0/libraries/FunctionsRequest.sol\":3338:3355  self.bytesArgs[i] */\n      dup2\n      mload\n      dup2\n      lt\n      tag_166\n      jumpi\n      tag_167\n      tag_75\n      jump\t// in\n    tag_167:\n    tag_166:\n      0x20\n      mul\n      0x20\n      add\n      add\n      mload\n        /* \"@chainlink/contracts/src/v0.8/functions/dev/v1_0_0/libraries/FunctionsRequest.sol\":3320:3326  buffer */\n      dup4\n        /* \"@chainlink/contracts/src/v0.8/functions/dev/v1_0_0/libraries/FunctionsRequest.sol\":3320:3337  buffer.writeBytes */\n      tag_158\n      swap1\n        /* \"@chainlink/contracts/src/v0.8/functions/dev/v1_0_0/libraries/FunctionsRequest.sol\":3320:3356  buffer.writeBytes(self.bytesArgs[i]) */\n      swap2\n      swap1\n      0xffffffff\n      and\n      jump\t// in\n    tag_165:\n        /* \"@chainlink/contracts/src/v0.8/functions/dev/v1_0_0/libraries/FunctionsRequest.sol\":3305:3308  ++i */\n      dup1\n      0x01\n      add\n      swap1\n      pop\n        /* \"@chainlink/contracts/src/v0.8/functions/dev/v1_0_0/libraries/FunctionsRequest.sol\":3258:3365  for (uint256 i = 0; i < self.bytesArgs.length; ++i) {... */\n      jump(tag_162)\n    tag_163:\n      pop\n        /* \"@chainlink/contracts/src/v0.8/functions/dev/v1_0_0/libraries/FunctionsRequest.sol\":3372:3392  buffer.endSequence() */\n      tag_168\n        /* \"@chainlink/contracts/src/v0.8/functions/dev/v1_0_0/libraries/FunctionsRequest.sol\":3372:3378  buffer */\n      dup2\n        /* \"@chainlink/contracts/src/v0.8/functions/dev/v1_0_0/libraries/FunctionsRequest.sol\":3372:3390  buffer.endSequence */\n      tag_145\n        /* \"@chainlink/contracts/src/v0.8/functions/dev/v1_0_0/libraries/FunctionsRequest.sol\":3372:3392  buffer.endSequence() */\n      jump\t// in\n    tag_168:\n        /* \"@chainlink/contracts/src/v0.8/functions/dev/v1_0_0/libraries/FunctionsRequest.sol\":3153:3399  if (self.bytesArgs.length > 0) {... */\n    tag_159:\n        /* \"@chainlink/contracts/src/v0.8/functions/dev/v1_0_0/libraries/FunctionsRequest.sol\":3412:3418  buffer */\n      dup1\n        /* \"@chainlink/contracts/src/v0.8/functions/dev/v1_0_0/libraries/FunctionsRequest.sol\":3412:3422  buffer.buf */\n      0x00\n      add\n      mload\n        /* \"@chainlink/contracts/src/v0.8/functions/dev/v1_0_0/libraries/FunctionsRequest.sol\":3412:3426  buffer.buf.buf */\n      0x00\n      add\n      mload\n        /* \"@chainlink/contracts/src/v0.8/functions/dev/v1_0_0/libraries/FunctionsRequest.sol\":3405:3426  return buffer.buf.buf */\n      swap2\n      pop\n      pop\n        /* \"@chainlink/contracts/src/v0.8/functions/dev/v1_0_0/libraries/FunctionsRequest.sol\":2161:3431  function encodeCBOR(Request memory self) internal pure returns (bytes memory) {... */\n      swap2\n      swap1\n      pop\n      jump\t// out\n        /* \"@chainlink/contracts/src/v0.8/functions/dev/v1_0_0/FunctionsClient.sol\":1158:1537  function _sendRequest(... */\n    tag_91:\n        /* \"@chainlink/contracts/src/v0.8/functions/dev/v1_0_0/FunctionsClient.sol\":1300:1307  bytes32 */\n      0x00\n        /* \"@chainlink/contracts/src/v0.8/functions/dev/v1_0_0/FunctionsClient.sol\":1315:1332  bytes32 requestId */\n      0x00\n        /* \"@chainlink/contracts/src/v0.8/functions/dev/v1_0_0/FunctionsClient.sol\":1335:1343  i_router */\n      immutable(\"0x8e8fab5f003314da8d1873ea7720e8d9f47650136d916064d1edb8a11d682624\")\n        /* \"@chainlink/contracts/src/v0.8/functions/dev/v1_0_0/FunctionsClient.sol\":1335:1355  i_router.sendRequest */\n      0xffffffffffffffffffffffffffffffffffffffff\n      and\n      0x461d2762\n        /* \"@chainlink/contracts/src/v0.8/functions/dev/v1_0_0/FunctionsClient.sol\":1363:1377  subscriptionId */\n      dup7\n        /* \"@chainlink/contracts/src/v0.8/functions/dev/v1_0_0/FunctionsClient.sol\":1385:1389  data */\n      dup9\n        /* \"@chainlink/contracts/src/v0.8/functions/dev/v1_0_0/libraries/FunctionsRequest.sol\":325:326  1 */\n      0x01\n        /* \"@chainlink/contracts/src/v0.8/functions/dev/v1_0_0/FunctionsClient.sol\":1442:1458  callbackGasLimit */\n      dup9\n        /* \"@chainlink/contracts/src/v0.8/functions/dev/v1_0_0/FunctionsClient.sol\":1466:1471  donId */\n      dup9\n        /* \"@chainlink/contracts/src/v0.8/functions/dev/v1_0_0/FunctionsClient.sol\":1335:1477  i_router.sendRequest(... */\n      mload(0x40)\n      dup7\n      0xffffffff\n      and\n      0xe0\n      shl\n      dup2\n      mstore\n      0x04\n      add\n      tag_170\n      swap6\n      swap5\n      swap4\n      swap3\n      swap2\n      swap1\n      tag_171\n      jump\t// in\n    tag_170:\n      0x20\n      mload(0x40)\n      dup1\n      dup4\n      sub\n      dup2\n      0x00\n      dup8\n      gas\n      call\n      iszero\n      dup1\n      iszero\n      tag_173\n      jumpi\n      returndatacopy(0x00, 0x00, returndatasize)\n      revert(0x00, returndatasize)\n    tag_173:\n      pop\n      pop\n      pop\n      pop\n      mload(0x40)\n      returndatasize\n      not(0x1f)\n      0x1f\n      dup3\n      add\n      and\n      dup3\n      add\n      dup1\n      0x40\n      mstore\n      pop\n      dup2\n      add\n      swap1\n      tag_174\n      swap2\n      swap1\n      tag_175\n      jump\t// in\n    tag_174:\n        /* \"@chainlink/contracts/src/v0.8/functions/dev/v1_0_0/FunctionsClient.sol\":1315:1477  bytes32 requestId = i_router.sendRequest(... */\n      swap1\n      pop\n        /* \"@chainlink/contracts/src/v0.8/functions/dev/v1_0_0/FunctionsClient.sol\":1500:1509  requestId */\n      dup1\n        /* \"@chainlink/contracts/src/v0.8/functions/dev/v1_0_0/FunctionsClient.sol\":1488:1510  RequestSent(requestId) */\n      0x1131472297a800fee664d1d89cfa8f7676ff07189ecc53f80bbb5f4969099db8\n      mload(0x40)\n      mload(0x40)\n      dup1\n      swap2\n      sub\n      swap1\n      log2\n        /* \"@chainlink/contracts/src/v0.8/functions/dev/v1_0_0/FunctionsClient.sol\":1523:1532  requestId */\n      dup1\n        /* \"@chainlink/contracts/src/v0.8/functions/dev/v1_0_0/FunctionsClient.sol\":1516:1532  return requestId */\n      swap2\n      pop\n      pop\n        /* \"@chainlink/contracts/src/v0.8/functions/dev/v1_0_0/FunctionsClient.sol\":1158:1537  function _sendRequest(... */\n      swap5\n      swap4\n      pop\n      pop\n      pop\n      pop\n      jump\t// out\n        /* \"@chainlink/contracts/src/v0.8/functions/dev/v1_0_0/libraries/FunctionsRequest.sol\":3780:4087  function initializeRequest(... */\n    tag_115:\n        /* \"@chainlink/contracts/src/v0.8/functions/dev/v1_0_0/libraries/FunctionsRequest.sol\":3964:3965  0 */\n      0x00\n        /* \"@chainlink/contracts/src/v0.8/functions/dev/v1_0_0/libraries/FunctionsRequest.sol\":3946:3952  source */\n      dup2\n        /* \"@chainlink/contracts/src/v0.8/functions/dev/v1_0_0/libraries/FunctionsRequest.sol\":3940:3960  bytes(source).length */\n      mload\n        /* \"@chainlink/contracts/src/v0.8/functions/dev/v1_0_0/libraries/FunctionsRequest.sol\":3940:3965  bytes(source).length == 0 */\n      sub\n        /* \"@chainlink/contracts/src/v0.8/functions/dev/v1_0_0/libraries/FunctionsRequest.sol\":3936:3987  if (bytes(source).length == 0) revert EmptySource() */\n      tag_177\n      jumpi\n        /* \"@chainlink/contracts/src/v0.8/functions/dev/v1_0_0/libraries/FunctionsRequest.sol\":3974:3987  EmptySource() */\n      mload(0x40)\n      0x22ce3edd00000000000000000000000000000000000000000000000000000000\n      dup2\n      mstore\n      0x04\n      add\n      mload(0x40)\n      dup1\n      swap2\n      sub\n      swap1\n      revert\n        /* \"@chainlink/contracts/src/v0.8/functions/dev/v1_0_0/libraries/FunctionsRequest.sol\":3936:3987  if (bytes(source).length == 0) revert EmptySource() */\n    tag_177:\n        /* \"@chainlink/contracts/src/v0.8/functions/dev/v1_0_0/libraries/FunctionsRequest.sol\":4014:4026  codeLocation */\n      dup3\n        /* \"@chainlink/contracts/src/v0.8/functions/dev/v1_0_0/libraries/FunctionsRequest.sol\":3994:3998  self */\n      dup5\n        /* \"@chainlink/contracts/src/v0.8/functions/dev/v1_0_0/libraries/FunctionsRequest.sol\":3994:4011  self.codeLocation */\n      0x00\n      add\n        /* \"@chainlink/contracts/src/v0.8/functions/dev/v1_0_0/libraries/FunctionsRequest.sol\":3994:4026  self.codeLocation = codeLocation */\n      swap1\n      0x02\n      dup2\n      gt\n      iszero\n      tag_178\n      jumpi\n      tag_179\n      tag_126\n      jump\t// in\n    tag_179:\n    tag_178:\n      swap1\n      dup2\n      0x02\n      dup2\n      gt\n      iszero\n      tag_180\n      jumpi\n      tag_181\n      tag_126\n      jump\t// in\n    tag_181:\n    tag_180:\n      dup2\n      mstore\n      pop\n      pop\n        /* \"@chainlink/contracts/src/v0.8/functions/dev/v1_0_0/libraries/FunctionsRequest.sol\":4048:4056  language */\n      dup2\n        /* \"@chainlink/contracts/src/v0.8/functions/dev/v1_0_0/libraries/FunctionsRequest.sol\":4032:4036  self */\n      dup5\n        /* \"@chainlink/contracts/src/v0.8/functions/dev/v1_0_0/libraries/FunctionsRequest.sol\":4032:4045  self.language */\n      0x40\n      add\n        /* \"@chainlink/contracts/src/v0.8/functions/dev/v1_0_0/libraries/FunctionsRequest.sol\":4032:4056  self.language = language */\n      swap1\n      0x00\n      dup2\n      gt\n      iszero\n      tag_182\n      jumpi\n      tag_183\n      tag_126\n      jump\t// in\n    tag_183:\n    tag_182:\n      swap1\n      dup2\n      0x00\n      dup2\n      gt\n      iszero\n      tag_184\n      jumpi\n      tag_185\n      tag_126\n      jump\t// in\n    tag_185:\n    tag_184:\n      dup2\n      mstore\n      pop\n      pop\n        /* \"@chainlink/contracts/src/v0.8/functions/dev/v1_0_0/libraries/FunctionsRequest.sol\":4076:4082  source */\n      dup1\n        /* \"@chainlink/contracts/src/v0.8/functions/dev/v1_0_0/libraries/FunctionsRequest.sol\":4062:4066  self */\n      dup5\n        /* \"@chainlink/contracts/src/v0.8/functions/dev/v1_0_0/libraries/FunctionsRequest.sol\":4062:4073  self.source */\n      0x60\n      add\n        /* \"@chainlink/contracts/src/v0.8/functions/dev/v1_0_0/libraries/FunctionsRequest.sol\":4062:4082  self.source = source */\n      dup2\n      swap1\n      mstore\n      pop\n        /* \"@chainlink/contracts/src/v0.8/functions/dev/v1_0_0/libraries/FunctionsRequest.sol\":3780:4087  function initializeRequest(... */\n      pop\n      pop\n      pop\n      pop\n      jump\t// out\n        /* \"@chainlink/contracts/src/v0.8/vendor/solidity-cborutils/v2.0.0/CBOR.sol\":1490:1663  function create(uint256 capacity) internal pure returns(CBORBuffer memory cbor) {... */\n    tag_120:\n        /* \"@chainlink/contracts/src/v0.8/vendor/solidity-cborutils/v2.0.0/CBOR.sol\":1546:1568  CBORBuffer memory cbor */\n      tag_186\n      tag_187\n      jump\t// in\n    tag_186:\n        /* \"@chainlink/contracts/src/v0.8/vendor/solidity-cborutils/v2.0.0/CBOR.sol\":1580:1611  Buffer.init(cbor.buf, capacity) */\n      tag_189\n        /* \"@chainlink/contracts/src/v0.8/vendor/solidity-cborutils/v2.0.0/CBOR.sol\":1592:1596  cbor */\n      dup2\n        /* \"@chainlink/contracts/src/v0.8/vendor/solidity-cborutils/v2.0.0/CBOR.sol\":1592:1600  cbor.buf */\n      0x00\n      add\n      mload\n        /* \"@chainlink/contracts/src/v0.8/vendor/solidity-cborutils/v2.0.0/CBOR.sol\":1602:1610  capacity */\n      dup4\n        /* \"@chainlink/contracts/src/v0.8/vendor/solidity-cborutils/v2.0.0/CBOR.sol\":1580:1591  Buffer.init */\n      tag_190\n        /* \"@chainlink/contracts/src/v0.8/vendor/solidity-cborutils/v2.0.0/CBOR.sol\":1580:1611  Buffer.init(cbor.buf, capacity) */\n      jump\t// in\n    tag_189:\n      pop\n        /* \"@chainlink/contracts/src/v0.8/vendor/solidity-cborutils/v2.0.0/CBOR.sol\":1634:1635  0 */\n      0x00\n        /* \"@chainlink/contracts/src/v0.8/vendor/solidity-cborutils/v2.0.0/CBOR.sol\":1621:1625  cbor */\n      dup2\n        /* \"@chainlink/contracts/src/v0.8/vendor/solidity-cborutils/v2.0.0/CBOR.sol\":1621:1631  cbor.depth */\n      0x20\n      add\n        /* \"@chainlink/contracts/src/v0.8/vendor/solidity-cborutils/v2.0.0/CBOR.sol\":1621:1635  cbor.depth = 0 */\n      dup2\n      dup2\n      mstore\n      pop\n      pop\n        /* \"@chainlink/contracts/src/v0.8/vendor/solidity-cborutils/v2.0.0/CBOR.sol\":1490:1663  function create(uint256 capacity) internal pure returns(CBORBuffer memory cbor) {... */\n      swap2\n      swap1\n      pop\n      jump\t// out\n        /* \"@chainlink/contracts/src/v0.8/vendor/solidity-cborutils/v2.0.0/CBOR.sol\":3021:3225  function writeString(CBORBuffer memory buf, string memory value) internal pure {... */\n    tag_122:\n        /* \"@chainlink/contracts/src/v0.8/vendor/solidity-cborutils/v2.0.0/CBOR.sol\":3110:3180  writeFixedNumeric(buf, MAJOR_TYPE_STRING, uint64(bytes(value).length)) */\n      tag_192\n        /* \"@chainlink/contracts/src/v0.8/vendor/solidity-cborutils/v2.0.0/CBOR.sol\":3128:3131  buf */\n      dup3\n        /* \"@chainlink/contracts/src/v0.8/vendor/solidity-cborutils/v2.0.0/CBOR.sol\":998:999  3 */\n      0x03\n        /* \"@chainlink/contracts/src/v0.8/vendor/solidity-cborutils/v2.0.0/CBOR.sol\":3165:3170  value */\n      dup4\n        /* \"@chainlink/contracts/src/v0.8/vendor/solidity-cborutils/v2.0.0/CBOR.sol\":3159:3178  bytes(value).length */\n      mload\n        /* \"@chainlink/contracts/src/v0.8/vendor/solidity-cborutils/v2.0.0/CBOR.sol\":3110:3127  writeFixedNumeric */\n      tag_193\n        /* \"@chainlink/contracts/src/v0.8/vendor/solidity-cborutils/v2.0.0/CBOR.sol\":3110:3180  writeFixedNumeric(buf, MAJOR_TYPE_STRING, uint64(bytes(value).length)) */\n      jump\t// in\n    tag_192:\n        /* \"@chainlink/contracts/src/v0.8/vendor/solidity-cborutils/v2.0.0/CBOR.sol\":3190:3218  buf.buf.append(bytes(value)) */\n      tag_194\n        /* \"@chainlink/contracts/src/v0.8/vendor/solidity-cborutils/v2.0.0/CBOR.sol\":3211:3216  value */\n      dup2\n        /* \"@chainlink/contracts/src/v0.8/vendor/solidity-cborutils/v2.0.0/CBOR.sol\":3190:3193  buf */\n      dup4\n        /* \"@chainlink/contracts/src/v0.8/vendor/solidity-cborutils/v2.0.0/CBOR.sol\":3190:3197  buf.buf */\n      0x00\n      add\n      mload\n        /* \"@chainlink/contracts/src/v0.8/vendor/solidity-cborutils/v2.0.0/CBOR.sol\":3190:3204  buf.buf.append */\n      tag_195\n      swap1\n        /* \"@chainlink/contracts/src/v0.8/vendor/solidity-cborutils/v2.0.0/CBOR.sol\":3190:3218  buf.buf.append(bytes(value)) */\n      swap2\n      swap1\n      0xffffffff\n      and\n      jump\t// in\n    tag_194:\n      pop\n        /* \"@chainlink/contracts/src/v0.8/vendor/solidity-cborutils/v2.0.0/CBOR.sol\":3021:3225  function writeString(CBORBuffer memory buf, string memory value) internal pure {... */\n      pop\n      pop\n      jump\t// out\n        /* \"@chainlink/contracts/src/v0.8/vendor/solidity-cborutils/v2.0.0/CBOR.sol\":1832:2034  function writeUInt256(CBORBuffer memory buf, uint256 value) internal pure {... */\n    tag_127:\n        /* \"@chainlink/contracts/src/v0.8/vendor/solidity-cborutils/v2.0.0/CBOR.sol\":1916:1983  buf.buf.appendUint8(uint8((MAJOR_TYPE_TAG << 5) | TAG_TYPE_BIGNUM)) */\n      tag_197\n        /* \"@chainlink/contracts/src/v0.8/vendor/solidity-cborutils/v2.0.0/CBOR.sol\":1246:1247  2 */\n      0x02\n        /* \"@chainlink/contracts/src/v0.8/vendor/solidity-cborutils/v2.0.0/CBOR.sol\":1961:1962  5 */\n      0x05\n        /* \"@chainlink/contracts/src/v0.8/vendor/solidity-cborutils/v2.0.0/CBOR.sol\":1141:1142  6 */\n      0x06\n        /* \"@chainlink/contracts/src/v0.8/vendor/solidity-cborutils/v2.0.0/CBOR.sol\":1943:1962  MAJOR_TYPE_TAG << 5 */\n      0xff\n      and\n      swap1\n      shl\n        /* \"@chainlink/contracts/src/v0.8/vendor/solidity-cborutils/v2.0.0/CBOR.sol\":1942:1981  (MAJOR_TYPE_TAG << 5) | TAG_TYPE_BIGNUM */\n      or\n        /* \"@chainlink/contracts/src/v0.8/vendor/solidity-cborutils/v2.0.0/CBOR.sol\":1916:1919  buf */\n      dup4\n        /* \"@chainlink/contracts/src/v0.8/vendor/solidity-cborutils/v2.0.0/CBOR.sol\":1916:1923  buf.buf */\n      0x00\n      add\n      mload\n        /* \"@chainlink/contracts/src/v0.8/vendor/solidity-cborutils/v2.0.0/CBOR.sol\":1916:1935  buf.buf.appendUint8 */\n      tag_198\n      swap1\n        /* \"@chainlink/contracts/src/v0.8/vendor/solidity-cborutils/v2.0.0/CBOR.sol\":1916:1983  buf.buf.appendUint8(uint8((MAJOR_TYPE_TAG << 5) | TAG_TYPE_BIGNUM)) */\n      swap2\n      swap1\n      0xffffffff\n      and\n      jump\t// in\n    tag_197:\n      pop\n        /* \"@chainlink/contracts/src/v0.8/vendor/solidity-cborutils/v2.0.0/CBOR.sol\":1993:2027  writeBytes(buf, abi.encode(value)) */\n      tag_199\n        /* \"@chainlink/contracts/src/v0.8/vendor/solidity-cborutils/v2.0.0/CBOR.sol\":2004:2007  buf */\n      dup3\n        /* \"@chainlink/contracts/src/v0.8/vendor/solidity-cborutils/v2.0.0/CBOR.sol\":2020:2025  value */\n      dup3\n        /* \"@chainlink/contracts/src/v0.8/vendor/solidity-cborutils/v2.0.0/CBOR.sol\":2009:2026  abi.encode(value) */\n      add(0x20, mload(0x40))\n      tag_200\n      swap2\n      swap1\n      tag_201\n      jump\t// in\n    tag_200:\n      mload(0x40)\n      0x20\n      dup2\n      dup4\n      sub\n      sub\n      dup2\n      mstore\n      swap1\n      0x40\n      mstore\n        /* \"@chainlink/contracts/src/v0.8/vendor/solidity-cborutils/v2.0.0/CBOR.sol\":1993:2003  writeBytes */\n      tag_158\n        /* \"@chainlink/contracts/src/v0.8/vendor/solidity-cborutils/v2.0.0/CBOR.sol\":1993:2027  writeBytes(buf, abi.encode(value)) */\n      jump\t// in\n    tag_199:\n        /* \"@chainlink/contracts/src/v0.8/vendor/solidity-cborutils/v2.0.0/CBOR.sol\":1832:2034  function writeUInt256(CBORBuffer memory buf, uint256 value) internal pure {... */\n      pop\n      pop\n      jump\t// out\n        /* \"@chainlink/contracts/src/v0.8/vendor/solidity-cborutils/v2.0.0/CBOR.sol\":3607:3753  function startArray(CBORBuffer memory buf) internal pure {... */\n    tag_137:\n        /* \"@chainlink/contracts/src/v0.8/vendor/solidity-cborutils/v2.0.0/CBOR.sol\":3674:3722  writeIndefiniteLengthType(buf, MAJOR_TYPE_ARRAY) */\n      tag_203\n        /* \"@chainlink/contracts/src/v0.8/vendor/solidity-cborutils/v2.0.0/CBOR.sol\":3700:3703  buf */\n      dup2\n        /* \"@chainlink/contracts/src/v0.8/vendor/solidity-cborutils/v2.0.0/CBOR.sol\":1047:1048  4 */\n      0x04\n        /* \"@chainlink/contracts/src/v0.8/vendor/solidity-cborutils/v2.0.0/CBOR.sol\":3674:3699  writeIndefiniteLengthType */\n      tag_204\n        /* \"@chainlink/contracts/src/v0.8/vendor/solidity-cborutils/v2.0.0/CBOR.sol\":3674:3722  writeIndefiniteLengthType(buf, MAJOR_TYPE_ARRAY) */\n      jump\t// in\n    tag_203:\n        /* \"@chainlink/contracts/src/v0.8/vendor/solidity-cborutils/v2.0.0/CBOR.sol\":3745:3746  1 */\n      0x01\n        /* \"@chainlink/contracts/src/v0.8/vendor/solidity-cborutils/v2.0.0/CBOR.sol\":3732:3735  buf */\n      dup2\n        /* \"@chainlink/contracts/src/v0.8/vendor/solidity-cborutils/v2.0.0/CBOR.sol\":3732:3741  buf.depth */\n      0x20\n      add\n        /* \"@chainlink/contracts/src/v0.8/vendor/solidity-cborutils/v2.0.0/CBOR.sol\":3732:3746  buf.depth += 1 */\n      dup2\n      dup2\n      mload\n      tag_205\n      swap2\n      swap1\n      tag_206\n      jump\t// in\n    tag_205:\n      swap2\n      pop\n      dup2\n      dup2\n      mstore\n      pop\n      pop\n        /* \"@chainlink/contracts/src/v0.8/vendor/solidity-cborutils/v2.0.0/CBOR.sol\":3607:3753  function startArray(CBORBuffer memory buf) internal pure {... */\n      pop\n      jump\t// out\n        /* \"@chainlink/contracts/src/v0.8/vendor/solidity-cborutils/v2.0.0/CBOR.sol\":4211:4365  function endSequence(CBORBuffer memory buf) internal pure {... */\n    tag_145:\n        /* \"@chainlink/contracts/src/v0.8/vendor/solidity-cborutils/v2.0.0/CBOR.sol\":4279:4334  writeIndefiniteLengthType(buf, MAJOR_TYPE_CONTENT_FREE) */\n      tag_208\n        /* \"@chainlink/contracts/src/v0.8/vendor/solidity-cborutils/v2.0.0/CBOR.sol\":4305:4308  buf */\n      dup2\n        /* \"@chainlink/contracts/src/v0.8/vendor/solidity-cborutils/v2.0.0/CBOR.sol\":1197:1198  7 */\n      0x07\n        /* \"@chainlink/contracts/src/v0.8/vendor/solidity-cborutils/v2.0.0/CBOR.sol\":4279:4304  writeIndefiniteLengthType */\n      tag_204\n        /* \"@chainlink/contracts/src/v0.8/vendor/solidity-cborutils/v2.0.0/CBOR.sol\":4279:4334  writeIndefiniteLengthType(buf, MAJOR_TYPE_CONTENT_FREE) */\n      jump\t// in\n    tag_208:\n        /* \"@chainlink/contracts/src/v0.8/vendor/solidity-cborutils/v2.0.0/CBOR.sol\":4357:4358  1 */\n      0x01\n        /* \"@chainlink/contracts/src/v0.8/vendor/solidity-cborutils/v2.0.0/CBOR.sol\":4344:4347  buf */\n      dup2\n        /* \"@chainlink/contracts/src/v0.8/vendor/solidity-cborutils/v2.0.0/CBOR.sol\":4344:4353  buf.depth */\n      0x20\n      add\n        /* \"@chainlink/contracts/src/v0.8/vendor/solidity-cborutils/v2.0.0/CBOR.sol\":4344:4358  buf.depth -= 1 */\n      dup2\n      dup2\n      mload\n      tag_209\n      swap2\n      swap1\n      tag_210\n      jump\t// in\n    tag_209:\n      swap2\n      pop\n      dup2\n      dup2\n      mstore\n      pop\n      pop\n        /* \"@chainlink/contracts/src/v0.8/vendor/solidity-cborutils/v2.0.0/CBOR.sol\":4211:4365  function endSequence(CBORBuffer memory buf) internal pure {... */\n      pop\n      jump\t// out\n        /* \"@chainlink/contracts/src/v0.8/vendor/solidity-cborutils/v2.0.0/CBOR.sol\":2828:3015  function writeBytes(CBORBuffer memory buf, bytes memory value) internal pure {... */\n    tag_158:\n        /* \"@chainlink/contracts/src/v0.8/vendor/solidity-cborutils/v2.0.0/CBOR.sol\":2915:2977  writeFixedNumeric(buf, MAJOR_TYPE_BYTES, uint64(value.length)) */\n      tag_212\n        /* \"@chainlink/contracts/src/v0.8/vendor/solidity-cborutils/v2.0.0/CBOR.sol\":2933:2936  buf */\n      dup3\n        /* \"@chainlink/contracts/src/v0.8/vendor/solidity-cborutils/v2.0.0/CBOR.sol\":948:949  2 */\n      0x02\n        /* \"@chainlink/contracts/src/v0.8/vendor/solidity-cborutils/v2.0.0/CBOR.sol\":2963:2968  value */\n      dup4\n        /* \"@chainlink/contracts/src/v0.8/vendor/solidity-cborutils/v2.0.0/CBOR.sol\":2963:2975  value.length */\n      mload\n        /* \"@chainlink/contracts/src/v0.8/vendor/solidity-cborutils/v2.0.0/CBOR.sol\":2915:2932  writeFixedNumeric */\n      tag_193\n        /* \"@chainlink/contracts/src/v0.8/vendor/solidity-cborutils/v2.0.0/CBOR.sol\":2915:2977  writeFixedNumeric(buf, MAJOR_TYPE_BYTES, uint64(value.length)) */\n      jump\t// in\n    tag_212:\n        /* \"@chainlink/contracts/src/v0.8/vendor/solidity-cborutils/v2.0.0/CBOR.sol\":2987:3008  buf.buf.append(value) */\n      tag_213\n        /* \"@chainlink/contracts/src/v0.8/vendor/solidity-cborutils/v2.0.0/CBOR.sol\":3002:3007  value */\n      dup2\n        /* \"@chainlink/contracts/src/v0.8/vendor/solidity-cborutils/v2.0.0/CBOR.sol\":2987:2990  buf */\n      dup4\n        /* \"@chainlink/contracts/src/v0.8/vendor/solidity-cborutils/v2.0.0/CBOR.sol\":2987:2994  buf.buf */\n      0x00\n      add\n      mload\n        /* \"@chainlink/contracts/src/v0.8/vendor/solidity-cborutils/v2.0.0/CBOR.sol\":2987:3001  buf.buf.append */\n      tag_195\n      swap1\n        /* \"@chainlink/contracts/src/v0.8/vendor/solidity-cborutils/v2.0.0/CBOR.sol\":2987:3008  buf.buf.append(value) */\n      swap2\n      swap1\n      0xffffffff\n      and\n      jump\t// in\n    tag_213:\n      pop\n        /* \"@chainlink/contracts/src/v0.8/vendor/solidity-cborutils/v2.0.0/CBOR.sol\":2828:3015  function writeBytes(CBORBuffer memory buf, bytes memory value) internal pure {... */\n      pop\n      pop\n      jump\t// out\n        /* \"@chainlink/contracts/src/v0.8/vendor/@ensdomains/buffer/v0.1.0/Buffer.sol\":1020:1575  function init(buffer memory buf, uint capacity) internal pure returns(buffer memory) {... */\n    tag_190:\n        /* \"@chainlink/contracts/src/v0.8/vendor/@ensdomains/buffer/v0.1.0/Buffer.sol\":1090:1103  buffer memory */\n      tag_214\n      tag_215\n      jump\t// in\n    tag_214:\n        /* \"@chainlink/contracts/src/v0.8/vendor/@ensdomains/buffer/v0.1.0/Buffer.sol\":1136:1137  0 */\n      0x00\n        /* \"@chainlink/contracts/src/v0.8/vendor/@ensdomains/buffer/v0.1.0/Buffer.sol\":1130:1132  32 */\n      0x20\n        /* \"@chainlink/contracts/src/v0.8/vendor/@ensdomains/buffer/v0.1.0/Buffer.sol\":1119:1127  capacity */\n      dup4\n        /* \"@chainlink/contracts/src/v0.8/vendor/@ensdomains/buffer/v0.1.0/Buffer.sol\":1119:1132  capacity % 32 */\n      tag_217\n      swap2\n      swap1\n      tag_218\n      jump\t// in\n    tag_217:\n        /* \"@chainlink/contracts/src/v0.8/vendor/@ensdomains/buffer/v0.1.0/Buffer.sol\":1119:1137  capacity % 32 != 0 */\n      eq\n        /* \"@chainlink/contracts/src/v0.8/vendor/@ensdomains/buffer/v0.1.0/Buffer.sol\":1115:1196  if (capacity % 32 != 0) {... */\n      tag_219\n      jumpi\n        /* \"@chainlink/contracts/src/v0.8/vendor/@ensdomains/buffer/v0.1.0/Buffer.sol\":1182:1184  32 */\n      0x20\n        /* \"@chainlink/contracts/src/v0.8/vendor/@ensdomains/buffer/v0.1.0/Buffer.sol\":1171:1179  capacity */\n      dup3\n        /* \"@chainlink/contracts/src/v0.8/vendor/@ensdomains/buffer/v0.1.0/Buffer.sol\":1171:1184  capacity % 32 */\n      tag_220\n      swap2\n      swap1\n      tag_218\n      jump\t// in\n    tag_220:\n        /* \"@chainlink/contracts/src/v0.8/vendor/@ensdomains/buffer/v0.1.0/Buffer.sol\":1165:1167  32 */\n      0x20\n        /* \"@chainlink/contracts/src/v0.8/vendor/@ensdomains/buffer/v0.1.0/Buffer.sol\":1165:1185  32 - (capacity % 32) */\n      tag_221\n      swap2\n      swap1\n      tag_210\n      jump\t// in\n    tag_221:\n        /* \"@chainlink/contracts/src/v0.8/vendor/@ensdomains/buffer/v0.1.0/Buffer.sol\":1153:1185  capacity += 32 - (capacity % 32) */\n      dup3\n      tag_222\n      swap2\n      swap1\n      tag_206\n      jump\t// in\n    tag_222:\n      swap2\n      pop\n        /* \"@chainlink/contracts/src/v0.8/vendor/@ensdomains/buffer/v0.1.0/Buffer.sol\":1115:1196  if (capacity % 32 != 0) {... */\n    tag_219:\n        /* \"@chainlink/contracts/src/v0.8/vendor/@ensdomains/buffer/v0.1.0/Buffer.sol\":1266:1274  capacity */\n      dup2\n        /* \"@chainlink/contracts/src/v0.8/vendor/@ensdomains/buffer/v0.1.0/Buffer.sol\":1251:1254  buf */\n      dup4\n        /* \"@chainlink/contracts/src/v0.8/vendor/@ensdomains/buffer/v0.1.0/Buffer.sol\":1251:1263  buf.capacity */\n      0x20\n      add\n        /* \"@chainlink/contracts/src/v0.8/vendor/@ensdomains/buffer/v0.1.0/Buffer.sol\":1251:1274  buf.capacity = capacity */\n      dup2\n      dup2\n      mstore\n      pop\n      pop\n        /* \"@chainlink/contracts/src/v0.8/vendor/@ensdomains/buffer/v0.1.0/Buffer.sol\":1324:1328  0x40 */\n      0x40\n        /* \"@chainlink/contracts/src/v0.8/vendor/@ensdomains/buffer/v0.1.0/Buffer.sol\":1318:1329  mload(0x40) */\n      mload\n        /* \"@chainlink/contracts/src/v0.8/vendor/@ensdomains/buffer/v0.1.0/Buffer.sol\":1354:1357  ptr */\n      dup1\n        /* \"@chainlink/contracts/src/v0.8/vendor/@ensdomains/buffer/v0.1.0/Buffer.sol\":1349:1352  buf */\n      dup5\n        /* \"@chainlink/contracts/src/v0.8/vendor/@ensdomains/buffer/v0.1.0/Buffer.sol\":1342:1358  mstore(buf, ptr) */\n      mstore\n        /* \"@chainlink/contracts/src/v0.8/vendor/@ensdomains/buffer/v0.1.0/Buffer.sol\":1383:1384  0 */\n      0x00\n        /* \"@chainlink/contracts/src/v0.8/vendor/@ensdomains/buffer/v0.1.0/Buffer.sol\":1378:1381  ptr */\n      dup2\n        /* \"@chainlink/contracts/src/v0.8/vendor/@ensdomains/buffer/v0.1.0/Buffer.sol\":1371:1385  mstore(ptr, 0) */\n      mstore\n        /* \"@chainlink/contracts/src/v0.8/vendor/@ensdomains/buffer/v0.1.0/Buffer.sol\":1426:1434  capacity */\n      dup3\n        /* \"@chainlink/contracts/src/v0.8/vendor/@ensdomains/buffer/v0.1.0/Buffer.sol\":1421:1424  ptr */\n      dup2\n        /* \"@chainlink/contracts/src/v0.8/vendor/@ensdomains/buffer/v0.1.0/Buffer.sol\":1417:1435  add(ptr, capacity) */\n      add\n        /* \"@chainlink/contracts/src/v0.8/vendor/@ensdomains/buffer/v0.1.0/Buffer.sol\":1413:1415  32 */\n      0x20\n        /* \"@chainlink/contracts/src/v0.8/vendor/@ensdomains/buffer/v0.1.0/Buffer.sol\":1409:1436  add(32, add(ptr, capacity)) */\n      add\n        /* \"@chainlink/contracts/src/v0.8/vendor/@ensdomains/buffer/v0.1.0/Buffer.sol\":1460:1463  ptr */\n      dup2\n        /* \"@chainlink/contracts/src/v0.8/vendor/@ensdomains/buffer/v0.1.0/Buffer.sol\":1455:1458  fpm */\n      dup2\n        /* \"@chainlink/contracts/src/v0.8/vendor/@ensdomains/buffer/v0.1.0/Buffer.sol\":1452:1464  lt(fpm, ptr) */\n      lt\n        /* \"@chainlink/contracts/src/v0.8/vendor/@ensdomains/buffer/v0.1.0/Buffer.sol\":1449:1509  if lt(fpm, ptr) {... */\n      iszero\n      tag_223\n      jumpi\n        /* \"@chainlink/contracts/src/v0.8/vendor/@ensdomains/buffer/v0.1.0/Buffer.sol\":1493:1494  0 */\n      0x00\n        /* \"@chainlink/contracts/src/v0.8/vendor/@ensdomains/buffer/v0.1.0/Buffer.sol\":1490:1491  0 */\n      0x00\n        /* \"@chainlink/contracts/src/v0.8/vendor/@ensdomains/buffer/v0.1.0/Buffer.sol\":1483:1495  revert(0, 0) */\n      revert\n        /* \"@chainlink/contracts/src/v0.8/vendor/@ensdomains/buffer/v0.1.0/Buffer.sol\":1449:1509  if lt(fpm, ptr) {... */\n    tag_223:\n        /* \"@chainlink/contracts/src/v0.8/vendor/@ensdomains/buffer/v0.1.0/Buffer.sol\":1535:1538  fpm */\n      dup1\n        /* \"@chainlink/contracts/src/v0.8/vendor/@ensdomains/buffer/v0.1.0/Buffer.sol\":1529:1533  0x40 */\n      0x40\n        /* \"@chainlink/contracts/src/v0.8/vendor/@ensdomains/buffer/v0.1.0/Buffer.sol\":1522:1539  mstore(0x40, fpm) */\n      mstore\n        /* \"@chainlink/contracts/src/v0.8/vendor/@ensdomains/buffer/v0.1.0/Buffer.sol\":1293:1549  {... */\n      pop\n      pop\n        /* \"@chainlink/contracts/src/v0.8/vendor/@ensdomains/buffer/v0.1.0/Buffer.sol\":1565:1568  buf */\n      dup3\n        /* \"@chainlink/contracts/src/v0.8/vendor/@ensdomains/buffer/v0.1.0/Buffer.sol\":1558:1568  return buf */\n      swap1\n      pop\n        /* \"@chainlink/contracts/src/v0.8/vendor/@ensdomains/buffer/v0.1.0/Buffer.sol\":1020:1575  function init(buffer memory buf, uint capacity) internal pure returns(buffer memory) {... */\n      swap3\n      swap2\n      pop\n      pop\n      jump\t// out\n        /* \"@chainlink/contracts/src/v0.8/vendor/solidity-cborutils/v2.0.0/CBOR.sol\":6156:6915  function writeFixedNumeric(... */\n    tag_193:\n        /* \"@chainlink/contracts/src/v0.8/vendor/solidity-cborutils/v2.0.0/CBOR.sol\":6299:6301  23 */\n      0x17\n        /* \"@chainlink/contracts/src/v0.8/vendor/solidity-cborutils/v2.0.0/CBOR.sol\":6290:6295  value */\n      dup2\n        /* \"@chainlink/contracts/src/v0.8/vendor/solidity-cborutils/v2.0.0/CBOR.sol\":6290:6301  value <= 23 */\n      0xffffffffffffffff\n      and\n      gt\n        /* \"@chainlink/contracts/src/v0.8/vendor/solidity-cborutils/v2.0.0/CBOR.sol\":6286:6909  if (value <= 23) {... */\n      tag_225\n      jumpi\n        /* \"@chainlink/contracts/src/v0.8/vendor/solidity-cborutils/v2.0.0/CBOR.sol\":6317:6365  buf.buf.appendUint8(uint8((major << 5) | value)) */\n      tag_226\n        /* \"@chainlink/contracts/src/v0.8/vendor/solidity-cborutils/v2.0.0/CBOR.sol\":6358:6363  value */\n      dup2\n        /* \"@chainlink/contracts/src/v0.8/vendor/solidity-cborutils/v2.0.0/CBOR.sol\":6353:6354  5 */\n      0x05\n        /* \"@chainlink/contracts/src/v0.8/vendor/solidity-cborutils/v2.0.0/CBOR.sol\":6344:6349  major */\n      dup5\n        /* \"@chainlink/contracts/src/v0.8/vendor/solidity-cborutils/v2.0.0/CBOR.sol\":6344:6354  major << 5 */\n      0xff\n      and\n      swap1\n      shl\n        /* \"@chainlink/contracts/src/v0.8/vendor/solidity-cborutils/v2.0.0/CBOR.sol\":6343:6363  (major << 5) | value */\n      0xff\n      and\n      or\n        /* \"@chainlink/contracts/src/v0.8/vendor/solidity-cborutils/v2.0.0/CBOR.sol\":6317:6320  buf */\n      dup5\n        /* \"@chainlink/contracts/src/v0.8/vendor/solidity-cborutils/v2.0.0/CBOR.sol\":6317:6324  buf.buf */\n      0x00\n      add\n      mload\n        /* \"@chainlink/contracts/src/v0.8/vendor/solidity-cborutils/v2.0.0/CBOR.sol\":6317:6336  buf.buf.appendUint8 */\n      tag_198\n      swap1\n        /* \"@chainlink/contracts/src/v0.8/vendor/solidity-cborutils/v2.0.0/CBOR.sol\":6317:6365  buf.buf.appendUint8(uint8((major << 5) | value)) */\n      swap2\n      swap1\n      0xffffffff\n      and\n      jump\t// in\n    tag_226:\n      pop\n        /* \"@chainlink/contracts/src/v0.8/vendor/solidity-cborutils/v2.0.0/CBOR.sol\":6286:6909  if (value <= 23) {... */\n      jump(tag_227)\n    tag_225:\n        /* \"@chainlink/contracts/src/v0.8/vendor/solidity-cborutils/v2.0.0/CBOR.sol\":6395:6399  0xFF */\n      0xff\n        /* \"@chainlink/contracts/src/v0.8/vendor/solidity-cborutils/v2.0.0/CBOR.sol\":6386:6391  value */\n      dup2\n        /* \"@chainlink/contracts/src/v0.8/vendor/solidity-cborutils/v2.0.0/CBOR.sol\":6386:6399  value <= 0xFF */\n      0xffffffffffffffff\n      and\n      gt\n        /* \"@chainlink/contracts/src/v0.8/vendor/solidity-cborutils/v2.0.0/CBOR.sol\":6382:6909  if (value <= 0xFF) {... */\n      tag_228\n      jumpi\n        /* \"@chainlink/contracts/src/v0.8/vendor/solidity-cborutils/v2.0.0/CBOR.sol\":6415:6460  buf.buf.appendUint8(uint8((major << 5) | 24)) */\n      tag_229\n        /* \"@chainlink/contracts/src/v0.8/vendor/solidity-cborutils/v2.0.0/CBOR.sol\":6456:6458  24 */\n      0x18\n        /* \"@chainlink/contracts/src/v0.8/vendor/solidity-cborutils/v2.0.0/CBOR.sol\":6451:6452  5 */\n      0x05\n        /* \"@chainlink/contracts/src/v0.8/vendor/solidity-cborutils/v2.0.0/CBOR.sol\":6442:6447  major */\n      dup5\n        /* \"@chainlink/contracts/src/v0.8/vendor/solidity-cborutils/v2.0.0/CBOR.sol\":6442:6452  major << 5 */\n      0xff\n      and\n      swap1\n      shl\n        /* \"@chainlink/contracts/src/v0.8/vendor/solidity-cborutils/v2.0.0/CBOR.sol\":6441:6458  (major << 5) | 24 */\n      or\n        /* \"@chainlink/contracts/src/v0.8/vendor/solidity-cborutils/v2.0.0/CBOR.sol\":6415:6418  buf */\n      dup5\n        /* \"@chainlink/contracts/src/v0.8/vendor/solidity-cborutils/v2.0.0/CBOR.sol\":6415:6422  buf.buf */\n      0x00\n      add\n      mload\n        /* \"@chainlink/contracts/src/v0.8/vendor/solidity-cborutils/v2.0.0/CBOR.sol\":6415:6434  buf.buf.appendUint8 */\n      tag_198\n      swap1\n        /* \"@chainlink/contracts/src/v0.8/vendor/solidity-cborutils/v2.0.0/CBOR.sol\":6415:6460  buf.buf.appendUint8(uint8((major << 5) | 24)) */\n      swap2\n      swap1\n      0xffffffff\n      and\n      jump\t// in\n    tag_229:\n      pop\n        /* \"@chainlink/contracts/src/v0.8/vendor/solidity-cborutils/v2.0.0/CBOR.sol\":6474:6501  buf.buf.appendInt(value, 1) */\n      tag_230\n        /* \"@chainlink/contracts/src/v0.8/vendor/solidity-cborutils/v2.0.0/CBOR.sol\":6492:6497  value */\n      dup2\n        /* \"@chainlink/contracts/src/v0.8/vendor/solidity-cborutils/v2.0.0/CBOR.sol\":6474:6501  buf.buf.appendInt(value, 1) */\n      0xffffffffffffffff\n      and\n        /* \"@chainlink/contracts/src/v0.8/vendor/solidity-cborutils/v2.0.0/CBOR.sol\":6499:6500  1 */\n      0x01\n        /* \"@chainlink/contracts/src/v0.8/vendor/solidity-cborutils/v2.0.0/CBOR.sol\":6474:6477  buf */\n      dup6\n        /* \"@chainlink/contracts/src/v0.8/vendor/solidity-cborutils/v2.0.0/CBOR.sol\":6474:6481  buf.buf */\n      0x00\n      add\n      mload\n        /* \"@chainlink/contracts/src/v0.8/vendor/solidity-cborutils/v2.0.0/CBOR.sol\":6474:6491  buf.buf.appendInt */\n      tag_231\n      swap1\n        /* \"@chainlink/contracts/src/v0.8/vendor/solidity-cborutils/v2.0.0/CBOR.sol\":6474:6501  buf.buf.appendInt(value, 1) */\n      swap3\n      swap2\n      swap1\n      0xffffffff\n      and\n      jump\t// in\n    tag_230:\n      pop\n        /* \"@chainlink/contracts/src/v0.8/vendor/solidity-cborutils/v2.0.0/CBOR.sol\":6382:6909  if (value <= 0xFF) {... */\n      jump(tag_232)\n    tag_228:\n        /* \"@chainlink/contracts/src/v0.8/vendor/solidity-cborutils/v2.0.0/CBOR.sol\":6531:6537  0xFFFF */\n      0xffff\n        /* \"@chainlink/contracts/src/v0.8/vendor/solidity-cborutils/v2.0.0/CBOR.sol\":6522:6527  value */\n      dup2\n        /* \"@chainlink/contracts/src/v0.8/vendor/solidity-cborutils/v2.0.0/CBOR.sol\":6522:6537  value <= 0xFFFF */\n      0xffffffffffffffff\n      and\n      gt\n        /* \"@chainlink/contracts/src/v0.8/vendor/solidity-cborutils/v2.0.0/CBOR.sol\":6518:6909  if (value <= 0xFFFF) {... */\n      tag_233\n      jumpi\n        /* \"@chainlink/contracts/src/v0.8/vendor/solidity-cborutils/v2.0.0/CBOR.sol\":6553:6598  buf.buf.appendUint8(uint8((major << 5) | 25)) */\n      tag_234\n        /* \"@chainlink/contracts/src/v0.8/vendor/solidity-cborutils/v2.0.0/CBOR.sol\":6594:6596  25 */\n      0x19\n        /* \"@chainlink/contracts/src/v0.8/vendor/solidity-cborutils/v2.0.0/CBOR.sol\":6589:6590  5 */\n      0x05\n        /* \"@chainlink/contracts/src/v0.8/vendor/solidity-cborutils/v2.0.0/CBOR.sol\":6580:6585  major */\n      dup5\n        /* \"@chainlink/contracts/src/v0.8/vendor/solidity-cborutils/v2.0.0/CBOR.sol\":6580:6590  major << 5 */\n      0xff\n      and\n      swap1\n      shl\n        /* \"@chainlink/contracts/src/v0.8/vendor/solidity-cborutils/v2.0.0/CBOR.sol\":6579:6596  (major << 5) | 25 */\n      or\n        /* \"@chainlink/contracts/src/v0.8/vendor/solidity-cborutils/v2.0.0/CBOR.sol\":6553:6556  buf */\n      dup5\n        /* \"@chainlink/contracts/src/v0.8/vendor/solidity-cborutils/v2.0.0/CBOR.sol\":6553:6560  buf.buf */\n      0x00\n      add\n      mload\n        /* \"@chainlink/contracts/src/v0.8/vendor/solidity-cborutils/v2.0.0/CBOR.sol\":6553:6572  buf.buf.appendUint8 */\n      tag_198\n      swap1\n        /* \"@chainlink/contracts/src/v0.8/vendor/solidity-cborutils/v2.0.0/CBOR.sol\":6553:6598  buf.buf.appendUint8(uint8((major << 5) | 25)) */\n      swap2\n      swap1\n      0xffffffff\n      and\n      jump\t// in\n    tag_234:\n      pop\n        /* \"@chainlink/contracts/src/v0.8/vendor/solidity-cborutils/v2.0.0/CBOR.sol\":6612:6639  buf.buf.appendInt(value, 2) */\n      tag_235\n        /* \"@chainlink/contracts/src/v0.8/vendor/solidity-cborutils/v2.0.0/CBOR.sol\":6630:6635  value */\n      dup2\n        /* \"@chainlink/contracts/src/v0.8/vendor/solidity-cborutils/v2.0.0/CBOR.sol\":6612:6639  buf.buf.appendInt(value, 2) */\n      0xffffffffffffffff\n      and\n        /* \"@chainlink/contracts/src/v0.8/vendor/solidity-cborutils/v2.0.0/CBOR.sol\":6637:6638  2 */\n      0x02\n        /* \"@chainlink/contracts/src/v0.8/vendor/solidity-cborutils/v2.0.0/CBOR.sol\":6612:6615  buf */\n      dup6\n        /* \"@chainlink/contracts/src/v0.8/vendor/solidity-cborutils/v2.0.0/CBOR.sol\":6612:6619  buf.buf */\n      0x00\n      add\n      mload\n        /* \"@chainlink/contracts/src/v0.8/vendor/solidity-cborutils/v2.0.0/CBOR.sol\":6612:6629  buf.buf.appendInt */\n      tag_231\n      swap1\n        /* \"@chainlink/contracts/src/v0.8/vendor/solidity-cborutils/v2.0.0/CBOR.sol\":6612:6639  buf.buf.appendInt(value, 2) */\n      swap3\n      swap2\n      swap1\n      0xffffffff\n      and\n      jump\t// in\n    tag_235:\n      pop\n        /* \"@chainlink/contracts/src/v0.8/vendor/solidity-cborutils/v2.0.0/CBOR.sol\":6518:6909  if (value <= 0xFFFF) {... */\n      jump(tag_236)\n    tag_233:\n        /* \"@chainlink/contracts/src/v0.8/vendor/solidity-cborutils/v2.0.0/CBOR.sol\":6669:6679  0xFFFFFFFF */\n      0xffffffff\n        /* \"@chainlink/contracts/src/v0.8/vendor/solidity-cborutils/v2.0.0/CBOR.sol\":6660:6665  value */\n      dup2\n        /* \"@chainlink/contracts/src/v0.8/vendor/solidity-cborutils/v2.0.0/CBOR.sol\":6660:6679  value <= 0xFFFFFFFF */\n      0xffffffffffffffff\n      and\n      gt\n        /* \"@chainlink/contracts/src/v0.8/vendor/solidity-cborutils/v2.0.0/CBOR.sol\":6656:6909  if (value <= 0xFFFFFFFF) {... */\n      tag_237\n      jumpi\n        /* \"@chainlink/contracts/src/v0.8/vendor/solidity-cborutils/v2.0.0/CBOR.sol\":6695:6740  buf.buf.appendUint8(uint8((major << 5) | 26)) */\n      tag_238\n        /* \"@chainlink/contracts/src/v0.8/vendor/solidity-cborutils/v2.0.0/CBOR.sol\":6736:6738  26 */\n      0x1a\n        /* \"@chainlink/contracts/src/v0.8/vendor/solidity-cborutils/v2.0.0/CBOR.sol\":6731:6732  5 */\n      0x05\n        /* \"@chainlink/contracts/src/v0.8/vendor/solidity-cborutils/v2.0.0/CBOR.sol\":6722:6727  major */\n      dup5\n        /* \"@chainlink/contracts/src/v0.8/vendor/solidity-cborutils/v2.0.0/CBOR.sol\":6722:6732  major << 5 */\n      0xff\n      and\n      swap1\n      shl\n        /* \"@chainlink/contracts/src/v0.8/vendor/solidity-cborutils/v2.0.0/CBOR.sol\":6721:6738  (major << 5) | 26 */\n      or\n        /* \"@chainlink/contracts/src/v0.8/vendor/solidity-cborutils/v2.0.0/CBOR.sol\":6695:6698  buf */\n      dup5\n        /* \"@chainlink/contracts/src/v0.8/vendor/solidity-cborutils/v2.0.0/CBOR.sol\":6695:6702  buf.buf */\n      0x00\n      add\n      mload\n        /* \"@chainlink/contracts/src/v0.8/vendor/solidity-cborutils/v2.0.0/CBOR.sol\":6695:6714  buf.buf.appendUint8 */\n      tag_198\n      swap1\n        /* \"@chainlink/contracts/src/v0.8/vendor/solidity-cborutils/v2.0.0/CBOR.sol\":6695:6740  buf.buf.appendUint8(uint8((major << 5) | 26)) */\n      swap2\n      swap1\n      0xffffffff\n      and\n      jump\t// in\n    tag_238:\n      pop\n        /* \"@chainlink/contracts/src/v0.8/vendor/solidity-cborutils/v2.0.0/CBOR.sol\":6754:6781  buf.buf.appendInt(value, 4) */\n      tag_239\n        /* \"@chainlink/contracts/src/v0.8/vendor/solidity-cborutils/v2.0.0/CBOR.sol\":6772:6777  value */\n      dup2\n        /* \"@chainlink/contracts/src/v0.8/vendor/solidity-cborutils/v2.0.0/CBOR.sol\":6754:6781  buf.buf.appendInt(value, 4) */\n      0xffffffffffffffff\n      and\n        /* \"@chainlink/contracts/src/v0.8/vendor/solidity-cborutils/v2.0.0/CBOR.sol\":6779:6780  4 */\n      0x04\n        /* \"@chainlink/contracts/src/v0.8/vendor/solidity-cborutils/v2.0.0/CBOR.sol\":6754:6757  buf */\n      dup6\n        /* \"@chainlink/contracts/src/v0.8/vendor/solidity-cborutils/v2.0.0/CBOR.sol\":6754:6761  buf.buf */\n      0x00\n      add\n      mload\n        /* \"@chainlink/contracts/src/v0.8/vendor/solidity-cborutils/v2.0.0/CBOR.sol\":6754:6771  buf.buf.appendInt */\n      tag_231\n      swap1\n        /* \"@chainlink/contracts/src/v0.8/vendor/solidity-cborutils/v2.0.0/CBOR.sol\":6754:6781  buf.buf.appendInt(value, 4) */\n      swap3\n      swap2\n      swap1\n      0xffffffff\n      and\n      jump\t// in\n    tag_239:\n      pop\n        /* \"@chainlink/contracts/src/v0.8/vendor/solidity-cborutils/v2.0.0/CBOR.sol\":6656:6909  if (value <= 0xFFFFFFFF) {... */\n      jump(tag_240)\n    tag_237:\n        /* \"@chainlink/contracts/src/v0.8/vendor/solidity-cborutils/v2.0.0/CBOR.sol\":6812:6857  buf.buf.appendUint8(uint8((major << 5) | 27)) */\n      tag_241\n        /* \"@chainlink/contracts/src/v0.8/vendor/solidity-cborutils/v2.0.0/CBOR.sol\":6853:6855  27 */\n      0x1b\n        /* \"@chainlink/contracts/src/v0.8/vendor/solidity-cborutils/v2.0.0/CBOR.sol\":6848:6849  5 */\n      0x05\n        /* \"@chainlink/contracts/src/v0.8/vendor/solidity-cborutils/v2.0.0/CBOR.sol\":6839:6844  major */\n      dup5\n        /* \"@chainlink/contracts/src/v0.8/vendor/solidity-cborutils/v2.0.0/CBOR.sol\":6839:6849  major << 5 */\n      0xff\n      and\n      swap1\n      shl\n        /* \"@chainlink/contracts/src/v0.8/vendor/solidity-cborutils/v2.0.0/CBOR.sol\":6838:6855  (major << 5) | 27 */\n      or\n        /* \"@chainlink/contracts/src/v0.8/vendor/solidity-cborutils/v2.0.0/CBOR.sol\":6812:6815  buf */\n      dup5\n        /* \"@chainlink/contracts/src/v0.8/vendor/solidity-cborutils/v2.0.0/CBOR.sol\":6812:6819  buf.buf */\n      0x00\n      add\n      mload\n        /* \"@chainlink/contracts/src/v0.8/vendor/solidity-cborutils/v2.0.0/CBOR.sol\":6812:6831  buf.buf.appendUint8 */\n      tag_198\n      swap1\n        /* \"@chainlink/contracts/src/v0.8/vendor/solidity-cborutils/v2.0.0/CBOR.sol\":6812:6857  buf.buf.appendUint8(uint8((major << 5) | 27)) */\n      swap2\n      swap1\n      0xffffffff\n      and\n      jump\t// in\n    tag_241:\n      pop\n        /* \"@chainlink/contracts/src/v0.8/vendor/solidity-cborutils/v2.0.0/CBOR.sol\":6871:6898  buf.buf.appendInt(value, 8) */\n      tag_242\n        /* \"@chainlink/contracts/src/v0.8/vendor/solidity-cborutils/v2.0.0/CBOR.sol\":6889:6894  value */\n      dup2\n        /* \"@chainlink/contracts/src/v0.8/vendor/solidity-cborutils/v2.0.0/CBOR.sol\":6871:6898  buf.buf.appendInt(value, 8) */\n      0xffffffffffffffff\n      and\n        /* \"@chainlink/contracts/src/v0.8/vendor/solidity-cborutils/v2.0.0/CBOR.sol\":6896:6897  8 */\n      0x08\n        /* \"@chainlink/contracts/src/v0.8/vendor/solidity-cborutils/v2.0.0/CBOR.sol\":6871:6874  buf */\n      dup6\n        /* \"@chainlink/contracts/src/v0.8/vendor/solidity-cborutils/v2.0.0/CBOR.sol\":6871:6878  buf.buf */\n      0x00\n      add\n      mload\n        /* \"@chainlink/contracts/src/v0.8/vendor/solidity-cborutils/v2.0.0/CBOR.sol\":6871:6888  buf.buf.appendInt */\n      tag_231\n      swap1\n        /* \"@chainlink/contracts/src/v0.8/vendor/solidity-cborutils/v2.0.0/CBOR.sol\":6871:6898  buf.buf.appendInt(value, 8) */\n      swap3\n      swap2\n      swap1\n      0xffffffff\n      and\n      jump\t// in\n    tag_242:\n      pop\n        /* \"@chainlink/contracts/src/v0.8/vendor/solidity-cborutils/v2.0.0/CBOR.sol\":6656:6909  if (value <= 0xFFFFFFFF) {... */\n    tag_240:\n        /* \"@chainlink/contracts/src/v0.8/vendor/solidity-cborutils/v2.0.0/CBOR.sol\":6518:6909  if (value <= 0xFFFF) {... */\n    tag_236:\n        /* \"@chainlink/contracts/src/v0.8/vendor/solidity-cborutils/v2.0.0/CBOR.sol\":6382:6909  if (value <= 0xFF) {... */\n    tag_232:\n        /* \"@chainlink/contracts/src/v0.8/vendor/solidity-cborutils/v2.0.0/CBOR.sol\":6286:6909  if (value <= 23) {... */\n    tag_227:\n        /* \"@chainlink/contracts/src/v0.8/vendor/solidity-cborutils/v2.0.0/CBOR.sol\":6156:6915  function writeFixedNumeric(... */\n      pop\n      pop\n      pop\n      jump\t// out\n        /* \"@chainlink/contracts/src/v0.8/vendor/@ensdomains/buffer/v0.1.0/Buffer.sol\":4539:4685  function append(buffer memory buf, bytes memory data) internal pure returns (buffer memory) {... */\n    tag_195:\n        /* \"@chainlink/contracts/src/v0.8/vendor/@ensdomains/buffer/v0.1.0/Buffer.sol\":4616:4629  buffer memory */\n      tag_243\n      tag_215\n      jump\t// in\n    tag_243:\n        /* \"@chainlink/contracts/src/v0.8/vendor/@ensdomains/buffer/v0.1.0/Buffer.sol\":4648:4678  append(buf, data, data.length) */\n      tag_245\n        /* \"@chainlink/contracts/src/v0.8/vendor/@ensdomains/buffer/v0.1.0/Buffer.sol\":4655:4658  buf */\n      dup4\n        /* \"@chainlink/contracts/src/v0.8/vendor/@ensdomains/buffer/v0.1.0/Buffer.sol\":4660:4664  data */\n      dup4\n        /* \"@chainlink/contracts/src/v0.8/vendor/@ensdomains/buffer/v0.1.0/Buffer.sol\":4666:4670  data */\n      dup5\n        /* \"@chainlink/contracts/src/v0.8/vendor/@ensdomains/buffer/v0.1.0/Buffer.sol\":4666:4677  data.length */\n      mload\n        /* \"@chainlink/contracts/src/v0.8/vendor/@ensdomains/buffer/v0.1.0/Buffer.sol\":4648:4654  append */\n      tag_246\n        /* \"@chainlink/contracts/src/v0.8/vendor/@ensdomains/buffer/v0.1.0/Buffer.sol\":4648:4678  append(buf, data, data.length) */\n      jump\t// in\n    tag_245:\n        /* \"@chainlink/contracts/src/v0.8/vendor/@ensdomains/buffer/v0.1.0/Buffer.sol\":4641:4678  return append(buf, data, data.length) */\n      swap1\n      pop\n        /* \"@chainlink/contracts/src/v0.8/vendor/@ensdomains/buffer/v0.1.0/Buffer.sol\":4539:4685  function append(buffer memory buf, bytes memory data) internal pure returns (buffer memory) {... */\n      swap3\n      swap2\n      pop\n      pop\n      jump\t// out\n        /* \"@chainlink/contracts/src/v0.8/vendor/@ensdomains/buffer/v0.1.0/Buffer.sol\":4948:5647  function appendUint8(buffer memory buf, uint8 data) internal pure returns(buffer memory) {... */\n    tag_198:\n        /* \"@chainlink/contracts/src/v0.8/vendor/@ensdomains/buffer/v0.1.0/Buffer.sol\":5022:5035  buffer memory */\n      tag_247\n      tag_215\n      jump\t// in\n    tag_247:\n        /* \"@chainlink/contracts/src/v0.8/vendor/@ensdomains/buffer/v0.1.0/Buffer.sol\":5047:5055  uint off */\n      0x00\n        /* \"@chainlink/contracts/src/v0.8/vendor/@ensdomains/buffer/v0.1.0/Buffer.sol\":5058:5061  buf */\n      dup4\n        /* \"@chainlink/contracts/src/v0.8/vendor/@ensdomains/buffer/v0.1.0/Buffer.sol\":5058:5065  buf.buf */\n      0x00\n      add\n      mload\n        /* \"@chainlink/contracts/src/v0.8/vendor/@ensdomains/buffer/v0.1.0/Buffer.sol\":5058:5072  buf.buf.length */\n      mload\n        /* \"@chainlink/contracts/src/v0.8/vendor/@ensdomains/buffer/v0.1.0/Buffer.sol\":5047:5072  uint off = buf.buf.length */\n      swap1\n      pop\n        /* \"@chainlink/contracts/src/v0.8/vendor/@ensdomains/buffer/v0.1.0/Buffer.sol\":5082:5097  uint offPlusOne */\n      0x00\n        /* \"@chainlink/contracts/src/v0.8/vendor/@ensdomains/buffer/v0.1.0/Buffer.sol\":5106:5107  1 */\n      0x01\n        /* \"@chainlink/contracts/src/v0.8/vendor/@ensdomains/buffer/v0.1.0/Buffer.sol\":5100:5103  off */\n      dup3\n        /* \"@chainlink/contracts/src/v0.8/vendor/@ensdomains/buffer/v0.1.0/Buffer.sol\":5100:5107  off + 1 */\n      tag_249\n      swap2\n      swap1\n      tag_206\n      jump\t// in\n    tag_249:\n        /* \"@chainlink/contracts/src/v0.8/vendor/@ensdomains/buffer/v0.1.0/Buffer.sol\":5082:5107  uint offPlusOne = off + 1 */\n      swap1\n      pop\n        /* \"@chainlink/contracts/src/v0.8/vendor/@ensdomains/buffer/v0.1.0/Buffer.sol\":5128:5131  buf */\n      dup5\n        /* \"@chainlink/contracts/src/v0.8/vendor/@ensdomains/buffer/v0.1.0/Buffer.sol\":5128:5140  buf.capacity */\n      0x20\n      add\n      mload\n        /* \"@chainlink/contracts/src/v0.8/vendor/@ensdomains/buffer/v0.1.0/Buffer.sol\":5121:5124  off */\n      dup3\n        /* \"@chainlink/contracts/src/v0.8/vendor/@ensdomains/buffer/v0.1.0/Buffer.sol\":5121:5140  off >= buf.capacity */\n      lt\n        /* \"@chainlink/contracts/src/v0.8/vendor/@ensdomains/buffer/v0.1.0/Buffer.sol\":5117:5194  if (off >= buf.capacity) {... */\n      tag_250\n      jumpi\n        /* \"@chainlink/contracts/src/v0.8/vendor/@ensdomains/buffer/v0.1.0/Buffer.sol\":5156:5183  resize(buf, offPlusOne * 2) */\n      tag_251\n        /* \"@chainlink/contracts/src/v0.8/vendor/@ensdomains/buffer/v0.1.0/Buffer.sol\":5163:5166  buf */\n      dup6\n        /* \"@chainlink/contracts/src/v0.8/vendor/@ensdomains/buffer/v0.1.0/Buffer.sol\":5181:5182  2 */\n      0x02\n        /* \"@chainlink/contracts/src/v0.8/vendor/@ensdomains/buffer/v0.1.0/Buffer.sol\":5168:5178  offPlusOne */\n      dup4\n        /* \"@chainlink/contracts/src/v0.8/vendor/@ensdomains/buffer/v0.1.0/Buffer.sol\":5168:5182  offPlusOne * 2 */\n      tag_252\n      swap2\n      swap1\n      tag_253\n      jump\t// in\n    tag_252:\n        /* \"@chainlink/contracts/src/v0.8/vendor/@ensdomains/buffer/v0.1.0/Buffer.sol\":5156:5162  resize */\n      tag_254\n        /* \"@chainlink/contracts/src/v0.8/vendor/@ensdomains/buffer/v0.1.0/Buffer.sol\":5156:5183  resize(buf, offPlusOne * 2) */\n      jump\t// in\n    tag_251:\n        /* \"@chainlink/contracts/src/v0.8/vendor/@ensdomains/buffer/v0.1.0/Buffer.sol\":5117:5194  if (off >= buf.capacity) {... */\n    tag_250:\n        /* \"@chainlink/contracts/src/v0.8/vendor/@ensdomains/buffer/v0.1.0/Buffer.sol\":5296:5299  buf */\n      dup5\n        /* \"@chainlink/contracts/src/v0.8/vendor/@ensdomains/buffer/v0.1.0/Buffer.sol\":5290:5300  mload(buf) */\n      mload\n        /* \"@chainlink/contracts/src/v0.8/vendor/@ensdomains/buffer/v0.1.0/Buffer.sol\":5417:5419  32 */\n      0x20\n        /* \"@chainlink/contracts/src/v0.8/vendor/@ensdomains/buffer/v0.1.0/Buffer.sol\":5411:5414  off */\n      dup4\n        /* \"@chainlink/contracts/src/v0.8/vendor/@ensdomains/buffer/v0.1.0/Buffer.sol\":5403:5409  bufptr */\n      dup3\n        /* \"@chainlink/contracts/src/v0.8/vendor/@ensdomains/buffer/v0.1.0/Buffer.sol\":5399:5415  add(bufptr, off) */\n      add\n        /* \"@chainlink/contracts/src/v0.8/vendor/@ensdomains/buffer/v0.1.0/Buffer.sol\":5395:5420  add(add(bufptr, off), 32) */\n      add\n        /* \"@chainlink/contracts/src/v0.8/vendor/@ensdomains/buffer/v0.1.0/Buffer.sol\":5447:5451  data */\n      dup6\n        /* \"@chainlink/contracts/src/v0.8/vendor/@ensdomains/buffer/v0.1.0/Buffer.sol\":5441:5445  dest */\n      dup2\n        /* \"@chainlink/contracts/src/v0.8/vendor/@ensdomains/buffer/v0.1.0/Buffer.sol\":5433:5452  mstore8(dest, data) */\n      mstore8\n        /* \"@chainlink/contracts/src/v0.8/vendor/@ensdomains/buffer/v0.1.0/Buffer.sol\":5543:5549  bufptr */\n      dup2\n        /* \"@chainlink/contracts/src/v0.8/vendor/@ensdomains/buffer/v0.1.0/Buffer.sol\":5537:5550  mload(bufptr) */\n      mload\n        /* \"@chainlink/contracts/src/v0.8/vendor/@ensdomains/buffer/v0.1.0/Buffer.sol\":5525:5535  offPlusOne */\n      dup4\n        /* \"@chainlink/contracts/src/v0.8/vendor/@ensdomains/buffer/v0.1.0/Buffer.sol\":5522:5551  gt(offPlusOne, mload(bufptr)) */\n      gt\n        /* \"@chainlink/contracts/src/v0.8/vendor/@ensdomains/buffer/v0.1.0/Buffer.sol\":5519:5610  if gt(offPlusOne, mload(bufptr)) {... */\n      iszero\n      tag_255\n      jumpi\n        /* \"@chainlink/contracts/src/v0.8/vendor/@ensdomains/buffer/v0.1.0/Buffer.sol\":5585:5595  offPlusOne */\n      dup3\n        /* \"@chainlink/contracts/src/v0.8/vendor/@ensdomains/buffer/v0.1.0/Buffer.sol\":5577:5583  bufptr */\n      dup3\n        /* \"@chainlink/contracts/src/v0.8/vendor/@ensdomains/buffer/v0.1.0/Buffer.sol\":5570:5596  mstore(bufptr, offPlusOne) */\n      mstore\n        /* \"@chainlink/contracts/src/v0.8/vendor/@ensdomains/buffer/v0.1.0/Buffer.sol\":5519:5610  if gt(offPlusOne, mload(bufptr)) {... */\n    tag_255:\n        /* \"@chainlink/contracts/src/v0.8/vendor/@ensdomains/buffer/v0.1.0/Buffer.sol\":5213:5620  {... */\n      pop\n      pop\n        /* \"@chainlink/contracts/src/v0.8/vendor/@ensdomains/buffer/v0.1.0/Buffer.sol\":5637:5640  buf */\n      dup5\n        /* \"@chainlink/contracts/src/v0.8/vendor/@ensdomains/buffer/v0.1.0/Buffer.sol\":5630:5640  return buf */\n      swap3\n      pop\n      pop\n      pop\n        /* \"@chainlink/contracts/src/v0.8/vendor/@ensdomains/buffer/v0.1.0/Buffer.sol\":4948:5647  function appendUint8(buffer memory buf, uint8 data) internal pure returns(buffer memory) {... */\n      swap3\n      swap2\n      pop\n      pop\n      jump\t// out\n        /* \"@chainlink/contracts/src/v0.8/vendor/solidity-cborutils/v2.0.0/CBOR.sol\":6921:7087  function writeIndefiniteLengthType(CBORBuffer memory buf, uint8 major)... */\n    tag_204:\n        /* \"@chainlink/contracts/src/v0.8/vendor/solidity-cborutils/v2.0.0/CBOR.sol\":7035:7080  buf.buf.appendUint8(uint8((major << 5) | 31)) */\n      tag_257\n        /* \"@chainlink/contracts/src/v0.8/vendor/solidity-cborutils/v2.0.0/CBOR.sol\":7076:7078  31 */\n      0x1f\n        /* \"@chainlink/contracts/src/v0.8/vendor/solidity-cborutils/v2.0.0/CBOR.sol\":7071:7072  5 */\n      0x05\n        /* \"@chainlink/contracts/src/v0.8/vendor/solidity-cborutils/v2.0.0/CBOR.sol\":7062:7067  major */\n      dup4\n        /* \"@chainlink/contracts/src/v0.8/vendor/solidity-cborutils/v2.0.0/CBOR.sol\":7062:7072  major << 5 */\n      0xff\n      and\n      swap1\n      shl\n        /* \"@chainlink/contracts/src/v0.8/vendor/solidity-cborutils/v2.0.0/CBOR.sol\":7061:7078  (major << 5) | 31 */\n      or\n        /* \"@chainlink/contracts/src/v0.8/vendor/solidity-cborutils/v2.0.0/CBOR.sol\":7035:7038  buf */\n      dup4\n        /* \"@chainlink/contracts/src/v0.8/vendor/solidity-cborutils/v2.0.0/CBOR.sol\":7035:7042  buf.buf */\n      0x00\n      add\n      mload\n        /* \"@chainlink/contracts/src/v0.8/vendor/solidity-cborutils/v2.0.0/CBOR.sol\":7035:7054  buf.buf.appendUint8 */\n      tag_198\n      swap1\n        /* \"@chainlink/contracts/src/v0.8/vendor/solidity-cborutils/v2.0.0/CBOR.sol\":7035:7080  buf.buf.appendUint8(uint8((major << 5) | 31)) */\n      swap2\n      swap1\n      0xffffffff\n      and\n      jump\t// in\n    tag_257:\n      pop\n        /* \"@chainlink/contracts/src/v0.8/vendor/solidity-cborutils/v2.0.0/CBOR.sol\":6921:7087  function writeIndefiniteLengthType(CBORBuffer memory buf, uint8 major)... */\n      pop\n      pop\n      jump\t// out\n        /* \"@chainlink/contracts/src/v0.8/vendor/@ensdomains/buffer/v0.1.0/Buffer.sol\":8083:8878  function appendInt(buffer memory buf, uint data, uint len) internal pure returns(buffer memory) {... */\n    tag_231:\n        /* \"@chainlink/contracts/src/v0.8/vendor/@ensdomains/buffer/v0.1.0/Buffer.sol\":8164:8177  buffer memory */\n      tag_258\n      tag_215\n      jump\t// in\n    tag_258:\n        /* \"@chainlink/contracts/src/v0.8/vendor/@ensdomains/buffer/v0.1.0/Buffer.sol\":8189:8197  uint off */\n      0x00\n        /* \"@chainlink/contracts/src/v0.8/vendor/@ensdomains/buffer/v0.1.0/Buffer.sol\":8200:8203  buf */\n      dup5\n        /* \"@chainlink/contracts/src/v0.8/vendor/@ensdomains/buffer/v0.1.0/Buffer.sol\":8200:8207  buf.buf */\n      0x00\n      add\n      mload\n        /* \"@chainlink/contracts/src/v0.8/vendor/@ensdomains/buffer/v0.1.0/Buffer.sol\":8200:8214  buf.buf.length */\n      mload\n        /* \"@chainlink/contracts/src/v0.8/vendor/@ensdomains/buffer/v0.1.0/Buffer.sol\":8189:8214  uint off = buf.buf.length */\n      swap1\n      pop\n        /* \"@chainlink/contracts/src/v0.8/vendor/@ensdomains/buffer/v0.1.0/Buffer.sol\":8224:8240  uint newCapacity */\n      0x00\n        /* \"@chainlink/contracts/src/v0.8/vendor/@ensdomains/buffer/v0.1.0/Buffer.sol\":8249:8252  off */\n      dup2\n        /* \"@chainlink/contracts/src/v0.8/vendor/@ensdomains/buffer/v0.1.0/Buffer.sol\":8243:8246  len */\n      dup5\n        /* \"@chainlink/contracts/src/v0.8/vendor/@ensdomains/buffer/v0.1.0/Buffer.sol\":8243:8252  len + off */\n      tag_260\n      swap2\n      swap1\n      tag_206\n      jump\t// in\n    tag_260:\n        /* \"@chainlink/contracts/src/v0.8/vendor/@ensdomains/buffer/v0.1.0/Buffer.sol\":8224:8252  uint newCapacity = len + off */\n      swap1\n      pop\n        /* \"@chainlink/contracts/src/v0.8/vendor/@ensdomains/buffer/v0.1.0/Buffer.sol\":8280:8283  buf */\n      dup6\n        /* \"@chainlink/contracts/src/v0.8/vendor/@ensdomains/buffer/v0.1.0/Buffer.sol\":8280:8292  buf.capacity */\n      0x20\n      add\n      mload\n        /* \"@chainlink/contracts/src/v0.8/vendor/@ensdomains/buffer/v0.1.0/Buffer.sol\":8266:8277  newCapacity */\n      dup2\n        /* \"@chainlink/contracts/src/v0.8/vendor/@ensdomains/buffer/v0.1.0/Buffer.sol\":8266:8292  newCapacity > buf.capacity */\n      gt\n        /* \"@chainlink/contracts/src/v0.8/vendor/@ensdomains/buffer/v0.1.0/Buffer.sol\":8262:8347  if (newCapacity > buf.capacity) {... */\n      iszero\n      tag_261\n      jumpi\n        /* \"@chainlink/contracts/src/v0.8/vendor/@ensdomains/buffer/v0.1.0/Buffer.sol\":8308:8336  resize(buf, newCapacity * 2) */\n      tag_262\n        /* \"@chainlink/contracts/src/v0.8/vendor/@ensdomains/buffer/v0.1.0/Buffer.sol\":8315:8318  buf */\n      dup7\n        /* \"@chainlink/contracts/src/v0.8/vendor/@ensdomains/buffer/v0.1.0/Buffer.sol\":8334:8335  2 */\n      0x02\n        /* \"@chainlink/contracts/src/v0.8/vendor/@ensdomains/buffer/v0.1.0/Buffer.sol\":8320:8331  newCapacity */\n      dup4\n        /* \"@chainlink/contracts/src/v0.8/vendor/@ensdomains/buffer/v0.1.0/Buffer.sol\":8320:8335  newCapacity * 2 */\n      tag_263\n      swap2\n      swap1\n      tag_253\n      jump\t// in\n    tag_263:\n        /* \"@chainlink/contracts/src/v0.8/vendor/@ensdomains/buffer/v0.1.0/Buffer.sol\":8308:8314  resize */\n      tag_254\n        /* \"@chainlink/contracts/src/v0.8/vendor/@ensdomains/buffer/v0.1.0/Buffer.sol\":8308:8336  resize(buf, newCapacity * 2) */\n      jump\t// in\n    tag_262:\n        /* \"@chainlink/contracts/src/v0.8/vendor/@ensdomains/buffer/v0.1.0/Buffer.sol\":8262:8347  if (newCapacity > buf.capacity) {... */\n    tag_261:\n        /* \"@chainlink/contracts/src/v0.8/vendor/@ensdomains/buffer/v0.1.0/Buffer.sol\":8357:8366  uint mask */\n      0x00\n        /* \"@chainlink/contracts/src/v0.8/vendor/@ensdomains/buffer/v0.1.0/Buffer.sol\":8384:8385  1 */\n      0x01\n        /* \"@chainlink/contracts/src/v0.8/vendor/@ensdomains/buffer/v0.1.0/Buffer.sol\":8377:8380  len */\n      dup6\n        /* \"@chainlink/contracts/src/v0.8/vendor/@ensdomains/buffer/v0.1.0/Buffer.sol\":8370:8373  256 */\n      0x0100\n        /* \"@chainlink/contracts/src/v0.8/vendor/@ensdomains/buffer/v0.1.0/Buffer.sol\":8370:8380  256 ** len */\n      tag_264\n      swap2\n      swap1\n      tag_265\n      jump\t// in\n    tag_264:\n        /* \"@chainlink/contracts/src/v0.8/vendor/@ensdomains/buffer/v0.1.0/Buffer.sol\":8369:8385  (256 ** len) - 1 */\n      tag_266\n      swap2\n      swap1\n      tag_210\n      jump\t// in\n    tag_266:\n        /* \"@chainlink/contracts/src/v0.8/vendor/@ensdomains/buffer/v0.1.0/Buffer.sol\":8357:8385  uint mask = (256 ** len) - 1 */\n      swap1\n      pop\n        /* \"@chainlink/contracts/src/v0.8/vendor/@ensdomains/buffer/v0.1.0/Buffer.sol\":8487:8490  buf */\n      dup7\n        /* \"@chainlink/contracts/src/v0.8/vendor/@ensdomains/buffer/v0.1.0/Buffer.sol\":8481:8491  mload(buf) */\n      mload\n        /* \"@chainlink/contracts/src/v0.8/vendor/@ensdomains/buffer/v0.1.0/Buffer.sol\":8606:8617  newCapacity */\n      dup3\n        /* \"@chainlink/contracts/src/v0.8/vendor/@ensdomains/buffer/v0.1.0/Buffer.sol\":8598:8604  bufptr */\n      dup2\n        /* \"@chainlink/contracts/src/v0.8/vendor/@ensdomains/buffer/v0.1.0/Buffer.sol\":8594:8618  add(bufptr, newCapacity) */\n      add\n        /* \"@chainlink/contracts/src/v0.8/vendor/@ensdomains/buffer/v0.1.0/Buffer.sol\":8676:8680  data */\n      dup8\n        /* \"@chainlink/contracts/src/v0.8/vendor/@ensdomains/buffer/v0.1.0/Buffer.sol\":8668:8672  mask */\n      dup4\n        /* \"@chainlink/contracts/src/v0.8/vendor/@ensdomains/buffer/v0.1.0/Buffer.sol\":8664:8673  not(mask) */\n      not\n        /* \"@chainlink/contracts/src/v0.8/vendor/@ensdomains/buffer/v0.1.0/Buffer.sol\":8657:8661  dest */\n      dup3\n        /* \"@chainlink/contracts/src/v0.8/vendor/@ensdomains/buffer/v0.1.0/Buffer.sol\":8651:8662  mload(dest) */\n      mload\n        /* \"@chainlink/contracts/src/v0.8/vendor/@ensdomains/buffer/v0.1.0/Buffer.sol\":8647:8674  and(mload(dest), not(mask)) */\n      and\n        /* \"@chainlink/contracts/src/v0.8/vendor/@ensdomains/buffer/v0.1.0/Buffer.sol\":8644:8681  or(and(mload(dest), not(mask)), data) */\n      or\n        /* \"@chainlink/contracts/src/v0.8/vendor/@ensdomains/buffer/v0.1.0/Buffer.sol\":8638:8642  dest */\n      dup2\n        /* \"@chainlink/contracts/src/v0.8/vendor/@ensdomains/buffer/v0.1.0/Buffer.sol\":8631:8682  mstore(dest, or(and(mload(dest), not(mask)), data)) */\n      mstore\n        /* \"@chainlink/contracts/src/v0.8/vendor/@ensdomains/buffer/v0.1.0/Buffer.sol\":8774:8780  bufptr */\n      dup2\n        /* \"@chainlink/contracts/src/v0.8/vendor/@ensdomains/buffer/v0.1.0/Buffer.sol\":8768:8781  mload(bufptr) */\n      mload\n        /* \"@chainlink/contracts/src/v0.8/vendor/@ensdomains/buffer/v0.1.0/Buffer.sol\":8755:8766  newCapacity */\n      dup5\n        /* \"@chainlink/contracts/src/v0.8/vendor/@ensdomains/buffer/v0.1.0/Buffer.sol\":8752:8782  gt(newCapacity, mload(bufptr)) */\n      gt\n        /* \"@chainlink/contracts/src/v0.8/vendor/@ensdomains/buffer/v0.1.0/Buffer.sol\":8749:8842  if gt(newCapacity, mload(bufptr)) {... */\n      iszero\n      tag_267\n      jumpi\n        /* \"@chainlink/contracts/src/v0.8/vendor/@ensdomains/buffer/v0.1.0/Buffer.sol\":8816:8827  newCapacity */\n      dup4\n        /* \"@chainlink/contracts/src/v0.8/vendor/@ensdomains/buffer/v0.1.0/Buffer.sol\":8808:8814  bufptr */\n      dup3\n        /* \"@chainlink/contracts/src/v0.8/vendor/@ensdomains/buffer/v0.1.0/Buffer.sol\":8801:8828  mstore(bufptr, newCapacity) */\n      mstore\n        /* \"@chainlink/contracts/src/v0.8/vendor/@ensdomains/buffer/v0.1.0/Buffer.sol\":8749:8842  if gt(newCapacity, mload(bufptr)) {... */\n    tag_267:\n        /* \"@chainlink/contracts/src/v0.8/vendor/@ensdomains/buffer/v0.1.0/Buffer.sol\":8404:8852  {... */\n      pop\n      pop\n        /* \"@chainlink/contracts/src/v0.8/vendor/@ensdomains/buffer/v0.1.0/Buffer.sol\":8868:8871  buf */\n      dup7\n        /* \"@chainlink/contracts/src/v0.8/vendor/@ensdomains/buffer/v0.1.0/Buffer.sol\":8861:8871  return buf */\n      swap4\n      pop\n      pop\n      pop\n      pop\n        /* \"@chainlink/contracts/src/v0.8/vendor/@ensdomains/buffer/v0.1.0/Buffer.sol\":8083:8878  function appendInt(buffer memory buf, uint data, uint len) internal pure returns(buffer memory) {... */\n      swap4\n      swap3\n      pop\n      pop\n      pop\n      jump\t// out\n        /* \"@chainlink/contracts/src/v0.8/vendor/@ensdomains/buffer/v0.1.0/Buffer.sol\":2844:4271  function append(buffer memory buf, bytes memory data, uint len) internal pure returns(buffer memory) {... */\n    tag_246:\n        /* \"@chainlink/contracts/src/v0.8/vendor/@ensdomains/buffer/v0.1.0/Buffer.sol\":2930:2943  buffer memory */\n      tag_268\n      tag_215\n      jump\t// in\n    tag_268:\n        /* \"@chainlink/contracts/src/v0.8/vendor/@ensdomains/buffer/v0.1.0/Buffer.sol\":2970:2974  data */\n      dup3\n        /* \"@chainlink/contracts/src/v0.8/vendor/@ensdomains/buffer/v0.1.0/Buffer.sol\":2970:2981  data.length */\n      mload\n        /* \"@chainlink/contracts/src/v0.8/vendor/@ensdomains/buffer/v0.1.0/Buffer.sol\":2963:2966  len */\n      dup3\n        /* \"@chainlink/contracts/src/v0.8/vendor/@ensdomains/buffer/v0.1.0/Buffer.sol\":2963:2981  len <= data.length */\n      gt\n      iszero\n        /* \"@chainlink/contracts/src/v0.8/vendor/@ensdomains/buffer/v0.1.0/Buffer.sol\":2955:2982  require(len <= data.length) */\n      tag_270\n      jumpi\n      revert(0x00, 0x00)\n    tag_270:\n        /* \"@chainlink/contracts/src/v0.8/vendor/@ensdomains/buffer/v0.1.0/Buffer.sol\":2993:3001  uint off */\n      0x00\n        /* \"@chainlink/contracts/src/v0.8/vendor/@ensdomains/buffer/v0.1.0/Buffer.sol\":3004:3007  buf */\n      dup5\n        /* \"@chainlink/contracts/src/v0.8/vendor/@ensdomains/buffer/v0.1.0/Buffer.sol\":3004:3011  buf.buf */\n      0x00\n      add\n      mload\n        /* \"@chainlink/contracts/src/v0.8/vendor/@ensdomains/buffer/v0.1.0/Buffer.sol\":3004:3018  buf.buf.length */\n      mload\n        /* \"@chainlink/contracts/src/v0.8/vendor/@ensdomains/buffer/v0.1.0/Buffer.sol\":2993:3018  uint off = buf.buf.length */\n      swap1\n      pop\n        /* \"@chainlink/contracts/src/v0.8/vendor/@ensdomains/buffer/v0.1.0/Buffer.sol\":3028:3044  uint newCapacity */\n      0x00\n        /* \"@chainlink/contracts/src/v0.8/vendor/@ensdomains/buffer/v0.1.0/Buffer.sol\":3053:3056  len */\n      dup4\n        /* \"@chainlink/contracts/src/v0.8/vendor/@ensdomains/buffer/v0.1.0/Buffer.sol\":3047:3050  off */\n      dup3\n        /* \"@chainlink/contracts/src/v0.8/vendor/@ensdomains/buffer/v0.1.0/Buffer.sol\":3047:3056  off + len */\n      tag_271\n      swap2\n      swap1\n      tag_206\n      jump\t// in\n    tag_271:\n        /* \"@chainlink/contracts/src/v0.8/vendor/@ensdomains/buffer/v0.1.0/Buffer.sol\":3028:3056  uint newCapacity = off + len */\n      swap1\n      pop\n        /* \"@chainlink/contracts/src/v0.8/vendor/@ensdomains/buffer/v0.1.0/Buffer.sol\":3084:3087  buf */\n      dup6\n        /* \"@chainlink/contracts/src/v0.8/vendor/@ensdomains/buffer/v0.1.0/Buffer.sol\":3084:3096  buf.capacity */\n      0x20\n      add\n      mload\n        /* \"@chainlink/contracts/src/v0.8/vendor/@ensdomains/buffer/v0.1.0/Buffer.sol\":3070:3081  newCapacity */\n      dup2\n        /* \"@chainlink/contracts/src/v0.8/vendor/@ensdomains/buffer/v0.1.0/Buffer.sol\":3070:3096  newCapacity > buf.capacity */\n      gt\n        /* \"@chainlink/contracts/src/v0.8/vendor/@ensdomains/buffer/v0.1.0/Buffer.sol\":3066:3151  if (newCapacity > buf.capacity) {... */\n      iszero\n      tag_272\n      jumpi\n        /* \"@chainlink/contracts/src/v0.8/vendor/@ensdomains/buffer/v0.1.0/Buffer.sol\":3112:3140  resize(buf, newCapacity * 2) */\n      tag_273\n        /* \"@chainlink/contracts/src/v0.8/vendor/@ensdomains/buffer/v0.1.0/Buffer.sol\":3119:3122  buf */\n      dup7\n        /* \"@chainlink/contracts/src/v0.8/vendor/@ensdomains/buffer/v0.1.0/Buffer.sol\":3138:3139  2 */\n      0x02\n        /* \"@chainlink/contracts/src/v0.8/vendor/@ensdomains/buffer/v0.1.0/Buffer.sol\":3124:3135  newCapacity */\n      dup4\n        /* \"@chainlink/contracts/src/v0.8/vendor/@ensdomains/buffer/v0.1.0/Buffer.sol\":3124:3139  newCapacity * 2 */\n      tag_274\n      swap2\n      swap1\n      tag_253\n      jump\t// in\n    tag_274:\n        /* \"@chainlink/contracts/src/v0.8/vendor/@ensdomains/buffer/v0.1.0/Buffer.sol\":3112:3118  resize */\n      tag_254\n        /* \"@chainlink/contracts/src/v0.8/vendor/@ensdomains/buffer/v0.1.0/Buffer.sol\":3112:3140  resize(buf, newCapacity * 2) */\n      jump\t// in\n    tag_273:\n        /* \"@chainlink/contracts/src/v0.8/vendor/@ensdomains/buffer/v0.1.0/Buffer.sol\":3066:3151  if (newCapacity > buf.capacity) {... */\n    tag_272:\n        /* \"@chainlink/contracts/src/v0.8/vendor/@ensdomains/buffer/v0.1.0/Buffer.sol\":3161:3170  uint dest */\n      0x00\n        /* \"@chainlink/contracts/src/v0.8/vendor/@ensdomains/buffer/v0.1.0/Buffer.sol\":3180:3188  uint src */\n      0x00\n        /* \"@chainlink/contracts/src/v0.8/vendor/@ensdomains/buffer/v0.1.0/Buffer.sol\":3290:3293  buf */\n      dup8\n        /* \"@chainlink/contracts/src/v0.8/vendor/@ensdomains/buffer/v0.1.0/Buffer.sol\":3284:3294  mload(buf) */\n      mload\n        /* \"@chainlink/contracts/src/v0.8/vendor/@ensdomains/buffer/v0.1.0/Buffer.sol\":3373:3379  bufptr */\n      dup1\n        /* \"@chainlink/contracts/src/v0.8/vendor/@ensdomains/buffer/v0.1.0/Buffer.sol\":3367:3380  mload(bufptr) */\n      mload\n        /* \"@chainlink/contracts/src/v0.8/vendor/@ensdomains/buffer/v0.1.0/Buffer.sol\":3501:3504  off */\n      dup6\n        /* \"@chainlink/contracts/src/v0.8/vendor/@ensdomains/buffer/v0.1.0/Buffer.sol\":3496:3498  32 */\n      0x20\n        /* \"@chainlink/contracts/src/v0.8/vendor/@ensdomains/buffer/v0.1.0/Buffer.sol\":3488:3494  bufptr */\n      dup4\n        /* \"@chainlink/contracts/src/v0.8/vendor/@ensdomains/buffer/v0.1.0/Buffer.sol\":3484:3499  add(bufptr, 32) */\n      add\n        /* \"@chainlink/contracts/src/v0.8/vendor/@ensdomains/buffer/v0.1.0/Buffer.sol\":3480:3505  add(add(bufptr, 32), off) */\n      add\n        /* \"@chainlink/contracts/src/v0.8/vendor/@ensdomains/buffer/v0.1.0/Buffer.sol\":3472:3505  dest := add(add(bufptr, 32), off) */\n      swap4\n      pop\n        /* \"@chainlink/contracts/src/v0.8/vendor/@ensdomains/buffer/v0.1.0/Buffer.sol\":3595:3601  buflen */\n      dup1\n        /* \"@chainlink/contracts/src/v0.8/vendor/@ensdomains/buffer/v0.1.0/Buffer.sol\":3582:3593  newCapacity */\n      dup6\n        /* \"@chainlink/contracts/src/v0.8/vendor/@ensdomains/buffer/v0.1.0/Buffer.sol\":3579:3602  gt(newCapacity, buflen) */\n      gt\n        /* \"@chainlink/contracts/src/v0.8/vendor/@ensdomains/buffer/v0.1.0/Buffer.sol\":3576:3662  if gt(newCapacity, buflen) {... */\n      iszero\n      tag_275\n      jumpi\n        /* \"@chainlink/contracts/src/v0.8/vendor/@ensdomains/buffer/v0.1.0/Buffer.sol\":3636:3647  newCapacity */\n      dup5\n        /* \"@chainlink/contracts/src/v0.8/vendor/@ensdomains/buffer/v0.1.0/Buffer.sol\":3628:3634  bufptr */\n      dup3\n        /* \"@chainlink/contracts/src/v0.8/vendor/@ensdomains/buffer/v0.1.0/Buffer.sol\":3621:3648  mstore(bufptr, newCapacity) */\n      mstore\n        /* \"@chainlink/contracts/src/v0.8/vendor/@ensdomains/buffer/v0.1.0/Buffer.sol\":3576:3662  if gt(newCapacity, buflen) {... */\n    tag_275:\n        /* \"@chainlink/contracts/src/v0.8/vendor/@ensdomains/buffer/v0.1.0/Buffer.sol\":3692:3694  32 */\n      0x20\n        /* \"@chainlink/contracts/src/v0.8/vendor/@ensdomains/buffer/v0.1.0/Buffer.sol\":3686:3690  data */\n      dup10\n        /* \"@chainlink/contracts/src/v0.8/vendor/@ensdomains/buffer/v0.1.0/Buffer.sol\":3682:3695  add(data, 32) */\n      add\n        /* \"@chainlink/contracts/src/v0.8/vendor/@ensdomains/buffer/v0.1.0/Buffer.sol\":3675:3695  src := add(data, 32) */\n      swap3\n      pop\n        /* \"@chainlink/contracts/src/v0.8/vendor/@ensdomains/buffer/v0.1.0/Buffer.sol\":3207:3705  {... */\n      pop\n      pop\n        /* \"@chainlink/contracts/src/v0.8/vendor/@ensdomains/buffer/v0.1.0/Buffer.sol\":3765:3930  for (; len >= 32; len -= 32) {... */\n    tag_276:\n        /* \"@chainlink/contracts/src/v0.8/vendor/@ensdomains/buffer/v0.1.0/Buffer.sol\":3779:3781  32 */\n      0x20\n        /* \"@chainlink/contracts/src/v0.8/vendor/@ensdomains/buffer/v0.1.0/Buffer.sol\":3772:3775  len */\n      dup7\n        /* \"@chainlink/contracts/src/v0.8/vendor/@ensdomains/buffer/v0.1.0/Buffer.sol\":3772:3781  len >= 32 */\n      lt\n        /* \"@chainlink/contracts/src/v0.8/vendor/@ensdomains/buffer/v0.1.0/Buffer.sol\":3765:3930  for (; len >= 32; len -= 32) {... */\n      tag_277\n      jumpi\n        /* \"@chainlink/contracts/src/v0.8/vendor/@ensdomains/buffer/v0.1.0/Buffer.sol\":3854:3857  src */\n      dup1\n        /* \"@chainlink/contracts/src/v0.8/vendor/@ensdomains/buffer/v0.1.0/Buffer.sol\":3848:3858  mload(src) */\n      mload\n        /* \"@chainlink/contracts/src/v0.8/vendor/@ensdomains/buffer/v0.1.0/Buffer.sol\":3842:3846  dest */\n      dup3\n        /* \"@chainlink/contracts/src/v0.8/vendor/@ensdomains/buffer/v0.1.0/Buffer.sol\":3835:3859  mstore(dest, mload(src)) */\n      mstore\n        /* \"@chainlink/contracts/src/v0.8/vendor/@ensdomains/buffer/v0.1.0/Buffer.sol\":3894:3896  32 */\n      0x20\n        /* \"@chainlink/contracts/src/v0.8/vendor/@ensdomains/buffer/v0.1.0/Buffer.sol\":3886:3896  dest += 32 */\n      dup3\n      tag_279\n      swap2\n      swap1\n      tag_206\n      jump\t// in\n    tag_279:\n      swap2\n      pop\n        /* \"@chainlink/contracts/src/v0.8/vendor/@ensdomains/buffer/v0.1.0/Buffer.sol\":3917:3919  32 */\n      0x20\n        /* \"@chainlink/contracts/src/v0.8/vendor/@ensdomains/buffer/v0.1.0/Buffer.sol\":3910:3919  src += 32 */\n      dup2\n      tag_280\n      swap2\n      swap1\n      tag_206\n      jump\t// in\n    tag_280:\n      swap1\n      pop\n        /* \"@chainlink/contracts/src/v0.8/vendor/@ensdomains/buffer/v0.1.0/Buffer.sol\":3790:3792  32 */\n      0x20\n        /* \"@chainlink/contracts/src/v0.8/vendor/@ensdomains/buffer/v0.1.0/Buffer.sol\":3783:3792  len -= 32 */\n      dup7\n      tag_281\n      swap2\n      swap1\n      tag_210\n      jump\t// in\n    tag_281:\n      swap6\n      pop\n        /* \"@chainlink/contracts/src/v0.8/vendor/@ensdomains/buffer/v0.1.0/Buffer.sol\":3765:3930  for (; len >= 32; len -= 32) {... */\n      jump(tag_276)\n    tag_277:\n        /* \"@chainlink/contracts/src/v0.8/vendor/@ensdomains/buffer/v0.1.0/Buffer.sol\":3996:4005  uint mask */\n      0x00\n        /* \"@chainlink/contracts/src/v0.8/vendor/@ensdomains/buffer/v0.1.0/Buffer.sol\":4030:4031  1 */\n      0x01\n        /* \"@chainlink/contracts/src/v0.8/vendor/@ensdomains/buffer/v0.1.0/Buffer.sol\":4022:4025  len */\n      dup8\n        /* \"@chainlink/contracts/src/v0.8/vendor/@ensdomains/buffer/v0.1.0/Buffer.sol\":4017:4019  32 */\n      0x20\n        /* \"@chainlink/contracts/src/v0.8/vendor/@ensdomains/buffer/v0.1.0/Buffer.sol\":4017:4025  32 - len */\n      sub\n        /* \"@chainlink/contracts/src/v0.8/vendor/@ensdomains/buffer/v0.1.0/Buffer.sol\":4009:4012  256 */\n      0x0100\n        /* \"@chainlink/contracts/src/v0.8/vendor/@ensdomains/buffer/v0.1.0/Buffer.sol\":4009:4026  256 ** (32 - len) */\n      exp\n        /* \"@chainlink/contracts/src/v0.8/vendor/@ensdomains/buffer/v0.1.0/Buffer.sol\":4008:4031  (256 ** (32 - len)) - 1 */\n      sub\n        /* \"@chainlink/contracts/src/v0.8/vendor/@ensdomains/buffer/v0.1.0/Buffer.sol\":3996:4031  uint mask = (256 ** (32 - len)) - 1 */\n      swap1\n      pop\n        /* \"@chainlink/contracts/src/v0.8/vendor/@ensdomains/buffer/v0.1.0/Buffer.sol\":4107:4111  mask */\n      dup1\n        /* \"@chainlink/contracts/src/v0.8/vendor/@ensdomains/buffer/v0.1.0/Buffer.sol\":4103:4112  not(mask) */\n      not\n        /* \"@chainlink/contracts/src/v0.8/vendor/@ensdomains/buffer/v0.1.0/Buffer.sol\":4097:4100  src */\n      dup3\n        /* \"@chainlink/contracts/src/v0.8/vendor/@ensdomains/buffer/v0.1.0/Buffer.sol\":4091:4101  mload(src) */\n      mload\n        /* \"@chainlink/contracts/src/v0.8/vendor/@ensdomains/buffer/v0.1.0/Buffer.sol\":4087:4113  and(mload(src), not(mask)) */\n      and\n        /* \"@chainlink/contracts/src/v0.8/vendor/@ensdomains/buffer/v0.1.0/Buffer.sol\":4163:4167  mask */\n      dup2\n        /* \"@chainlink/contracts/src/v0.8/vendor/@ensdomains/buffer/v0.1.0/Buffer.sol\":4156:4160  dest */\n      dup5\n        /* \"@chainlink/contracts/src/v0.8/vendor/@ensdomains/buffer/v0.1.0/Buffer.sol\":4150:4161  mload(dest) */\n      mload\n        /* \"@chainlink/contracts/src/v0.8/vendor/@ensdomains/buffer/v0.1.0/Buffer.sol\":4146:4168  and(mload(dest), mask) */\n      and\n        /* \"@chainlink/contracts/src/v0.8/vendor/@ensdomains/buffer/v0.1.0/Buffer.sol\":4211:4218  srcpart */\n      dup2\n        /* \"@chainlink/contracts/src/v0.8/vendor/@ensdomains/buffer/v0.1.0/Buffer.sol\":4201:4209  destpart */\n      dup2\n        /* \"@chainlink/contracts/src/v0.8/vendor/@ensdomains/buffer/v0.1.0/Buffer.sol\":4198:4219  or(destpart, srcpart) */\n      or\n        /* \"@chainlink/contracts/src/v0.8/vendor/@ensdomains/buffer/v0.1.0/Buffer.sol\":4192:4196  dest */\n      dup6\n        /* \"@chainlink/contracts/src/v0.8/vendor/@ensdomains/buffer/v0.1.0/Buffer.sol\":4185:4220  mstore(dest, or(destpart, srcpart)) */\n      mstore\n        /* \"@chainlink/contracts/src/v0.8/vendor/@ensdomains/buffer/v0.1.0/Buffer.sol\":4054:4234  {... */\n      pop\n      pop\n      pop\n        /* \"@chainlink/contracts/src/v0.8/vendor/@ensdomains/buffer/v0.1.0/Buffer.sol\":4261:4264  buf */\n      dup8\n        /* \"@chainlink/contracts/src/v0.8/vendor/@ensdomains/buffer/v0.1.0/Buffer.sol\":4254:4264  return buf */\n      swap5\n      pop\n      pop\n      pop\n      pop\n      pop\n        /* \"@chainlink/contracts/src/v0.8/vendor/@ensdomains/buffer/v0.1.0/Buffer.sol\":2844:4271  function append(buffer memory buf, bytes memory data, uint len) internal pure returns(buffer memory) {... */\n      swap4\n      swap3\n      pop\n      pop\n      pop\n      jump\t// out\n        /* \"@chainlink/contracts/src/v0.8/vendor/@ensdomains/buffer/v0.1.0/Buffer.sol\":2004:2171  function resize(buffer memory buf, uint capacity) private pure {... */\n    tag_254:\n        /* \"@chainlink/contracts/src/v0.8/vendor/@ensdomains/buffer/v0.1.0/Buffer.sol\":2077:2096  bytes memory oldbuf */\n      0x00\n        /* \"@chainlink/contracts/src/v0.8/vendor/@ensdomains/buffer/v0.1.0/Buffer.sol\":2099:2102  buf */\n      dup3\n        /* \"@chainlink/contracts/src/v0.8/vendor/@ensdomains/buffer/v0.1.0/Buffer.sol\":2099:2106  buf.buf */\n      0x00\n      add\n      mload\n        /* \"@chainlink/contracts/src/v0.8/vendor/@ensdomains/buffer/v0.1.0/Buffer.sol\":2077:2106  bytes memory oldbuf = buf.buf */\n      swap1\n      pop\n        /* \"@chainlink/contracts/src/v0.8/vendor/@ensdomains/buffer/v0.1.0/Buffer.sol\":2116:2135  init(buf, capacity) */\n      tag_283\n        /* \"@chainlink/contracts/src/v0.8/vendor/@ensdomains/buffer/v0.1.0/Buffer.sol\":2121:2124  buf */\n      dup4\n        /* \"@chainlink/contracts/src/v0.8/vendor/@ensdomains/buffer/v0.1.0/Buffer.sol\":2126:2134  capacity */\n      dup4\n        /* \"@chainlink/contracts/src/v0.8/vendor/@ensdomains/buffer/v0.1.0/Buffer.sol\":2116:2120  init */\n      tag_190\n        /* \"@chainlink/contracts/src/v0.8/vendor/@ensdomains/buffer/v0.1.0/Buffer.sol\":2116:2135  init(buf, capacity) */\n      jump\t// in\n    tag_283:\n      pop\n        /* \"@chainlink/contracts/src/v0.8/vendor/@ensdomains/buffer/v0.1.0/Buffer.sol\":2145:2164  append(buf, oldbuf) */\n      tag_284\n        /* \"@chainlink/contracts/src/v0.8/vendor/@ensdomains/buffer/v0.1.0/Buffer.sol\":2152:2155  buf */\n      dup4\n        /* \"@chainlink/contracts/src/v0.8/vendor/@ensdomains/buffer/v0.1.0/Buffer.sol\":2157:2163  oldbuf */\n      dup3\n        /* \"@chainlink/contracts/src/v0.8/vendor/@ensdomains/buffer/v0.1.0/Buffer.sol\":2145:2151  append */\n      tag_195\n        /* \"@chainlink/contracts/src/v0.8/vendor/@ensdomains/buffer/v0.1.0/Buffer.sol\":2145:2164  append(buf, oldbuf) */\n      jump\t// in\n    tag_284:\n      pop\n        /* \"@chainlink/contracts/src/v0.8/vendor/@ensdomains/buffer/v0.1.0/Buffer.sol\":2067:2171  {... */\n      pop\n        /* \"@chainlink/contracts/src/v0.8/vendor/@ensdomains/buffer/v0.1.0/Buffer.sol\":2004:2171  function resize(buffer memory buf, uint capacity) private pure {... */\n      pop\n      pop\n      jump\t// out\n    tag_77:\n      mload(0x40)\n      dup1\n      0xe0\n      add\n      0x40\n      mstore\n      dup1\n      0x00\n      0x02\n      dup2\n      gt\n      iszero\n      tag_285\n      jumpi\n      tag_286\n      tag_126\n      jump\t// in\n    tag_286:\n    tag_285:\n      dup2\n      mstore\n      0x20\n      add\n      0x00\n      0x02\n      dup2\n      gt\n      iszero\n      tag_287\n      jumpi\n      tag_288\n      tag_126\n      jump\t// in\n    tag_288:\n    tag_287:\n      dup2\n      mstore\n      0x20\n      add\n      0x00\n      0x00\n      dup2\n      gt\n      iszero\n      tag_289\n      jumpi\n      tag_290\n      tag_126\n      jump\t// in\n    tag_290:\n    tag_289:\n      dup2\n      mstore\n      0x20\n      add\n      0x60\n      dup2\n      mstore\n      0x20\n      add\n      0x60\n      dup2\n      mstore\n      0x20\n      add\n      0x60\n      dup2\n      mstore\n      0x20\n      add\n      0x60\n      dup2\n      mstore\n      pop\n      swap1\n      jump\t// out\n    tag_187:\n      mload(0x40)\n      dup1\n      0x40\n      add\n      0x40\n      mstore\n      dup1\n      tag_291\n      tag_215\n      jump\t// in\n    tag_291:\n      dup2\n      mstore\n      0x20\n      add\n      0x00\n      dup2\n      mstore\n      pop\n      swap1\n      jump\t// out\n    tag_215:\n      mload(0x40)\n      dup1\n      0x40\n      add\n      0x40\n      mstore\n      dup1\n      0x60\n      dup2\n      mstore\n      0x20\n      add\n      0x00\n      dup2\n      mstore\n      pop\n      swap1\n      jump\t// out\n        /* \"#utility.yul\":7:82   */\n    tag_292:\n        /* \"#utility.yul\":40:46   */\n      0x00\n        /* \"#utility.yul\":73:75   */\n      0x40\n        /* \"#utility.yul\":67:76   */\n      mload\n        /* \"#utility.yul\":57:76   */\n      swap1\n      pop\n        /* \"#utility.yul\":7:82   */\n      swap1\n      jump\t// out\n        /* \"#utility.yul\":88:205   */\n    tag_293:\n        /* \"#utility.yul\":197:198   */\n      0x00\n        /* \"#utility.yul\":194:195   */\n      0x00\n        /* \"#utility.yul\":187:199   */\n      revert\n        /* \"#utility.yul\":211:328   */\n    tag_294:\n        /* \"#utility.yul\":320:321   */\n      0x00\n        /* \"#utility.yul\":317:318   */\n      0x00\n        /* \"#utility.yul\":310:322   */\n      revert\n        /* \"#utility.yul\":334:411   */\n    tag_295:\n        /* \"#utility.yul\":371:378   */\n      0x00\n        /* \"#utility.yul\":400:405   */\n      dup2\n        /* \"#utility.yul\":389:405   */\n      swap1\n      pop\n        /* \"#utility.yul\":334:411   */\n      swap2\n      swap1\n      pop\n      jump\t// out\n        /* \"#utility.yul\":417:539   */\n    tag_296:\n        /* \"#utility.yul\":490:514   */\n      tag_358\n        /* \"#utility.yul\":508:513   */\n      dup2\n        /* \"#utility.yul\":490:514   */\n      tag_295\n      jump\t// in\n    tag_358:\n        /* \"#utility.yul\":483:488   */\n      dup2\n        /* \"#utility.yul\":480:515   */\n      eq\n        /* \"#utility.yul\":470:533   */\n      tag_359\n      jumpi\n        /* \"#utility.yul\":529:530   */\n      0x00\n        /* \"#utility.yul\":526:527   */\n      0x00\n        /* \"#utility.yul\":519:531   */\n      revert\n        /* \"#utility.yul\":470:533   */\n    tag_359:\n        /* \"#utility.yul\":417:539   */\n      pop\n      jump\t// out\n        /* \"#utility.yul\":545:684   */\n    tag_297:\n        /* \"#utility.yul\":591:596   */\n      0x00\n        /* \"#utility.yul\":629:635   */\n      dup2\n        /* \"#utility.yul\":616:636   */\n      calldataload\n        /* \"#utility.yul\":607:636   */\n      swap1\n      pop\n        /* \"#utility.yul\":645:678   */\n      tag_361\n        /* \"#utility.yul\":672:677   */\n      dup2\n        /* \"#utility.yul\":645:678   */\n      tag_296\n      jump\t// in\n    tag_361:\n        /* \"#utility.yul\":545:684   */\n      swap3\n      swap2\n      pop\n      pop\n      jump\t// out\n        /* \"#utility.yul\":690:807   */\n    tag_298:\n        /* \"#utility.yul\":799:800   */\n      0x00\n        /* \"#utility.yul\":796:797   */\n      0x00\n        /* \"#utility.yul\":789:801   */\n      revert\n        /* \"#utility.yul\":813:930   */\n    tag_299:\n        /* \"#utility.yul\":922:923   */\n      0x00\n        /* \"#utility.yul\":919:920   */\n      0x00\n        /* \"#utility.yul\":912:924   */\n      revert\n        /* \"#utility.yul\":936:1038   */\n    tag_300:\n        /* \"#utility.yul\":977:983   */\n      0x00\n        /* \"#utility.yul\":1028:1030   */\n      0x1f\n        /* \"#utility.yul\":1024:1031   */\n      not\n        /* \"#utility.yul\":1019:1021   */\n      0x1f\n        /* \"#utility.yul\":1012:1017   */\n      dup4\n        /* \"#utility.yul\":1008:1022   */\n      add\n        /* \"#utility.yul\":1004:1032   */\n      and\n        /* \"#utility.yul\":994:1032   */\n      swap1\n      pop\n        /* \"#utility.yul\":936:1038   */\n      swap2\n      swap1\n      pop\n      jump\t// out\n        /* \"#utility.yul\":1044:1224   */\n    tag_70:\n        /* \"#utility.yul\":1092:1169   */\n      0x4e487b7100000000000000000000000000000000000000000000000000000000\n        /* \"#utility.yul\":1089:1090   */\n      0x00\n        /* \"#utility.yul\":1082:1170   */\n      mstore\n        /* \"#utility.yul\":1189:1193   */\n      0x41\n        /* \"#utility.yul\":1186:1187   */\n      0x04\n        /* \"#utility.yul\":1179:1194   */\n      mstore\n        /* \"#utility.yul\":1213:1217   */\n      0x24\n        /* \"#utility.yul\":1210:1211   */\n      0x00\n        /* \"#utility.yul\":1203:1218   */\n      revert\n        /* \"#utility.yul\":1230:1511   */\n    tag_301:\n        /* \"#utility.yul\":1313:1340   */\n      tag_367\n        /* \"#utility.yul\":1335:1339   */\n      dup3\n        /* \"#utility.yul\":1313:1340   */\n      tag_300\n      jump\t// in\n    tag_367:\n        /* \"#utility.yul\":1305:1311   */\n      dup2\n        /* \"#utility.yul\":1301:1341   */\n      add\n        /* \"#utility.yul\":1443:1449   */\n      dup2\n        /* \"#utility.yul\":1431:1441   */\n      dup2\n        /* \"#utility.yul\":1428:1450   */\n      lt\n        /* \"#utility.yul\":1407:1425   */\n      0xffffffffffffffff\n        /* \"#utility.yul\":1395:1405   */\n      dup3\n        /* \"#utility.yul\":1392:1426   */\n      gt\n        /* \"#utility.yul\":1389:1451   */\n      or\n        /* \"#utility.yul\":1386:1474   */\n      iszero\n      tag_368\n      jumpi\n        /* \"#utility.yul\":1454:1472   */\n      tag_369\n      tag_70\n      jump\t// in\n    tag_369:\n        /* \"#utility.yul\":1386:1474   */\n    tag_368:\n        /* \"#utility.yul\":1494:1504   */\n      dup1\n        /* \"#utility.yul\":1490:1492   */\n      0x40\n        /* \"#utility.yul\":1483:1505   */\n      mstore\n        /* \"#utility.yul\":1273:1511   */\n      pop\n        /* \"#utility.yul\":1230:1511   */\n      pop\n      pop\n      jump\t// out\n        /* \"#utility.yul\":1517:1646   */\n    tag_302:\n        /* \"#utility.yul\":1551:1557   */\n      0x00\n        /* \"#utility.yul\":1578:1598   */\n      tag_371\n      tag_292\n      jump\t// in\n    tag_371:\n        /* \"#utility.yul\":1568:1598   */\n      swap1\n      pop\n        /* \"#utility.yul\":1607:1640   */\n      tag_372\n        /* \"#utility.yul\":1635:1639   */\n      dup3\n        /* \"#utility.yul\":1627:1633   */\n      dup3\n        /* \"#utility.yul\":1607:1640   */\n      tag_301\n      jump\t// in\n    tag_372:\n        /* \"#utility.yul\":1517:1646   */\n      swap2\n      swap1\n      pop\n      jump\t// out\n        /* \"#utility.yul\":1652:1959   */\n    tag_303:\n        /* \"#utility.yul\":1713:1717   */\n      0x00\n        /* \"#utility.yul\":1803:1821   */\n      0xffffffffffffffff\n        /* \"#utility.yul\":1795:1801   */\n      dup3\n        /* \"#utility.yul\":1792:1822   */\n      gt\n        /* \"#utility.yul\":1789:1845   */\n      iszero\n      tag_374\n      jumpi\n        /* \"#utility.yul\":1825:1843   */\n      tag_375\n      tag_70\n      jump\t// in\n    tag_375:\n        /* \"#utility.yul\":1789:1845   */\n    tag_374:\n        /* \"#utility.yul\":1863:1892   */\n      tag_376\n        /* \"#utility.yul\":1885:1891   */\n      dup3\n        /* \"#utility.yul\":1863:1892   */\n      tag_300\n      jump\t// in\n    tag_376:\n        /* \"#utility.yul\":1855:1892   */\n      swap1\n      pop\n        /* \"#utility.yul\":1947:1951   */\n      0x20\n        /* \"#utility.yul\":1941:1945   */\n      dup2\n        /* \"#utility.yul\":1937:1952   */\n      add\n        /* \"#utility.yul\":1929:1952   */\n      swap1\n      pop\n        /* \"#utility.yul\":1652:1959   */\n      swap2\n      swap1\n      pop\n      jump\t// out\n        /* \"#utility.yul\":1965:2113   */\n    tag_304:\n        /* \"#utility.yul\":2063:2069   */\n      dup3\n        /* \"#utility.yul\":2058:2061   */\n      dup2\n        /* \"#utility.yul\":2053:2056   */\n      dup4\n        /* \"#utility.yul\":2040:2070   */\n      calldatacopy\n        /* \"#utility.yul\":2104:2105   */\n      0x00\n        /* \"#utility.yul\":2095:2101   */\n      dup4\n        /* \"#utility.yul\":2090:2093   */\n      dup4\n        /* \"#utility.yul\":2086:2102   */\n      add\n        /* \"#utility.yul\":2079:2106   */\n      mstore\n        /* \"#utility.yul\":1965:2113   */\n      pop\n      pop\n      pop\n      jump\t// out\n        /* \"#utility.yul\":2119:2542   */\n    tag_305:\n        /* \"#utility.yul\":2196:2201   */\n      0x00\n        /* \"#utility.yul\":2221:2286   */\n      tag_379\n        /* \"#utility.yul\":2237:2285   */\n      tag_380\n        /* \"#utility.yul\":2278:2284   */\n      dup5\n        /* \"#utility.yul\":2237:2285   */\n      tag_303\n      jump\t// in\n    tag_380:\n        /* \"#utility.yul\":2221:2286   */\n      tag_302\n      jump\t// in\n    tag_379:\n        /* \"#utility.yul\":2212:2286   */\n      swap1\n      pop\n        /* \"#utility.yul\":2309:2315   */\n      dup3\n        /* \"#utility.yul\":2302:2307   */\n      dup2\n        /* \"#utility.yul\":2295:2316   */\n      mstore\n        /* \"#utility.yul\":2347:2351   */\n      0x20\n        /* \"#utility.yul\":2340:2345   */\n      dup2\n        /* \"#utility.yul\":2336:2352   */\n      add\n        /* \"#utility.yul\":2385:2388   */\n      dup5\n        /* \"#utility.yul\":2376:2382   */\n      dup5\n        /* \"#utility.yul\":2371:2374   */\n      dup5\n        /* \"#utility.yul\":2367:2383   */\n      add\n        /* \"#utility.yul\":2364:2389   */\n      gt\n        /* \"#utility.yul\":2361:2473   */\n      iszero\n      tag_381\n      jumpi\n        /* \"#utility.yul\":2392:2471   */\n      tag_382\n      tag_299\n      jump\t// in\n    tag_382:\n        /* \"#utility.yul\":2361:2473   */\n    tag_381:\n        /* \"#utility.yul\":2482:2536   */\n      tag_383\n        /* \"#utility.yul\":2529:2535   */\n      dup5\n        /* \"#utility.yul\":2524:2527   */\n      dup3\n        /* \"#utility.yul\":2519:2522   */\n      dup6\n        /* \"#utility.yul\":2482:2536   */\n      tag_304\n      jump\t// in\n    tag_383:\n        /* \"#utility.yul\":2202:2542   */\n      pop\n        /* \"#utility.yul\":2119:2542   */\n      swap4\n      swap3\n      pop\n      pop\n      pop\n      jump\t// out\n        /* \"#utility.yul\":2561:2899   */\n    tag_306:\n        /* \"#utility.yul\":2616:2621   */\n      0x00\n        /* \"#utility.yul\":2665:2668   */\n      dup3\n        /* \"#utility.yul\":2658:2662   */\n      0x1f\n        /* \"#utility.yul\":2650:2656   */\n      dup4\n        /* \"#utility.yul\":2646:2663   */\n      add\n        /* \"#utility.yul\":2642:2669   */\n      slt\n        /* \"#utility.yul\":2632:2754   */\n      tag_385\n      jumpi\n        /* \"#utility.yul\":2673:2752   */\n      tag_386\n      tag_298\n      jump\t// in\n    tag_386:\n        /* \"#utility.yul\":2632:2754   */\n    tag_385:\n        /* \"#utility.yul\":2790:2796   */\n      dup2\n        /* \"#utility.yul\":2777:2797   */\n      calldataload\n        /* \"#utility.yul\":2815:2893   */\n      tag_387\n        /* \"#utility.yul\":2889:2892   */\n      dup5\n        /* \"#utility.yul\":2881:2887   */\n      dup3\n        /* \"#utility.yul\":2874:2878   */\n      0x20\n        /* \"#utility.yul\":2866:2872   */\n      dup7\n        /* \"#utility.yul\":2862:2879   */\n      add\n        /* \"#utility.yul\":2815:2893   */\n      tag_305\n      jump\t// in\n    tag_387:\n        /* \"#utility.yul\":2806:2893   */\n      swap2\n      pop\n        /* \"#utility.yul\":2622:2899   */\n      pop\n        /* \"#utility.yul\":2561:2899   */\n      swap3\n      swap2\n      pop\n      pop\n      jump\t// out\n        /* \"#utility.yul\":2905:3880   */\n    tag_15:\n        /* \"#utility.yul\":3000:3006   */\n      0x00\n        /* \"#utility.yul\":3008:3014   */\n      0x00\n        /* \"#utility.yul\":3016:3022   */\n      0x00\n        /* \"#utility.yul\":3065:3067   */\n      0x60\n        /* \"#utility.yul\":3053:3062   */\n      dup5\n        /* \"#utility.yul\":3044:3051   */\n      dup7\n        /* \"#utility.yul\":3040:3063   */\n      sub\n        /* \"#utility.yul\":3036:3068   */\n      slt\n        /* \"#utility.yul\":3033:3152   */\n      iszero\n      tag_389\n      jumpi\n        /* \"#utility.yul\":3071:3150   */\n      tag_390\n      tag_293\n      jump\t// in\n    tag_390:\n        /* \"#utility.yul\":3033:3152   */\n    tag_389:\n        /* \"#utility.yul\":3191:3192   */\n      0x00\n        /* \"#utility.yul\":3216:3269   */\n      tag_391\n        /* \"#utility.yul\":3261:3268   */\n      dup7\n        /* \"#utility.yul\":3252:3258   */\n      dup3\n        /* \"#utility.yul\":3241:3250   */\n      dup8\n        /* \"#utility.yul\":3237:3259   */\n      add\n        /* \"#utility.yul\":3216:3269   */\n      tag_297\n      jump\t// in\n    tag_391:\n        /* \"#utility.yul\":3206:3269   */\n      swap4\n      pop\n        /* \"#utility.yul\":3162:3279   */\n      pop\n        /* \"#utility.yul\":3346:3348   */\n      0x20\n        /* \"#utility.yul\":3335:3344   */\n      dup5\n        /* \"#utility.yul\":3331:3349   */\n      add\n        /* \"#utility.yul\":3318:3350   */\n      calldataload\n        /* \"#utility.yul\":3377:3395   */\n      0xffffffffffffffff\n        /* \"#utility.yul\":3369:3375   */\n      dup2\n        /* \"#utility.yul\":3366:3396   */\n      gt\n        /* \"#utility.yul\":3363:3480   */\n      iszero\n      tag_392\n      jumpi\n        /* \"#utility.yul\":3399:3478   */\n      tag_393\n      tag_294\n      jump\t// in\n    tag_393:\n        /* \"#utility.yul\":3363:3480   */\n    tag_392:\n        /* \"#utility.yul\":3504:3566   */\n      tag_394\n        /* \"#utility.yul\":3558:3565   */\n      dup7\n        /* \"#utility.yul\":3549:3555   */\n      dup3\n        /* \"#utility.yul\":3538:3547   */\n      dup8\n        /* \"#utility.yul\":3534:3556   */\n      add\n        /* \"#utility.yul\":3504:3566   */\n      tag_306\n      jump\t// in\n    tag_394:\n        /* \"#utility.yul\":3494:3566   */\n      swap3\n      pop\n        /* \"#utility.yul\":3289:3576   */\n      pop\n        /* \"#utility.yul\":3643:3645   */\n      0x40\n        /* \"#utility.yul\":3632:3641   */\n      dup5\n        /* \"#utility.yul\":3628:3646   */\n      add\n        /* \"#utility.yul\":3615:3647   */\n      calldataload\n        /* \"#utility.yul\":3674:3692   */\n      0xffffffffffffffff\n        /* \"#utility.yul\":3666:3672   */\n      dup2\n        /* \"#utility.yul\":3663:3693   */\n      gt\n        /* \"#utility.yul\":3660:3777   */\n      iszero\n      tag_395\n      jumpi\n        /* \"#utility.yul\":3696:3775   */\n      tag_396\n      tag_294\n      jump\t// in\n    tag_396:\n        /* \"#utility.yul\":3660:3777   */\n    tag_395:\n        /* \"#utility.yul\":3801:3863   */\n      tag_397\n        /* \"#utility.yul\":3855:3862   */\n      dup7\n        /* \"#utility.yul\":3846:3852   */\n      dup3\n        /* \"#utility.yul\":3835:3844   */\n      dup8\n        /* \"#utility.yul\":3831:3853   */\n      add\n        /* \"#utility.yul\":3801:3863   */\n      tag_306\n      jump\t// in\n    tag_397:\n        /* \"#utility.yul\":3791:3863   */\n      swap2\n      pop\n        /* \"#utility.yul\":3586:3873   */\n      pop\n        /* \"#utility.yul\":2905:3880   */\n      swap3\n      pop\n      swap3\n      pop\n      swap3\n      jump\t// out\n        /* \"#utility.yul\":3886:3984   */\n    tag_307:\n        /* \"#utility.yul\":3937:3943   */\n      0x00\n        /* \"#utility.yul\":3971:3976   */\n      dup2\n        /* \"#utility.yul\":3965:3977   */\n      mload\n        /* \"#utility.yul\":3955:3977   */\n      swap1\n      pop\n        /* \"#utility.yul\":3886:3984   */\n      swap2\n      swap1\n      pop\n      jump\t// out\n        /* \"#utility.yul\":3990:4158   */\n    tag_308:\n        /* \"#utility.yul\":4073:4084   */\n      0x00\n        /* \"#utility.yul\":4107:4113   */\n      dup3\n        /* \"#utility.yul\":4102:4105   */\n      dup3\n        /* \"#utility.yul\":4095:4114   */\n      mstore\n        /* \"#utility.yul\":4147:4151   */\n      0x20\n        /* \"#utility.yul\":4142:4145   */\n      dup3\n        /* \"#utility.yul\":4138:4152   */\n      add\n        /* \"#utility.yul\":4123:4152   */\n      swap1\n      pop\n        /* \"#utility.yul\":3990:4158   */\n      swap3\n      swap2\n      pop\n      pop\n      jump\t// out\n        /* \"#utility.yul\":4164:4303   */\n    tag_309:\n        /* \"#utility.yul\":4253:4259   */\n      dup3\n        /* \"#utility.yul\":4248:4251   */\n      dup2\n        /* \"#utility.yul\":4243:4246   */\n      dup4\n        /* \"#utility.yul\":4237:4260   */\n      mcopy\n        /* \"#utility.yul\":4294:4295   */\n      0x00\n        /* \"#utility.yul\":4285:4291   */\n      dup4\n        /* \"#utility.yul\":4280:4283   */\n      dup4\n        /* \"#utility.yul\":4276:4292   */\n      add\n        /* \"#utility.yul\":4269:4296   */\n      mstore\n        /* \"#utility.yul\":4164:4303   */\n      pop\n      pop\n      pop\n      jump\t// out\n        /* \"#utility.yul\":4309:4682   */\n    tag_310:\n        /* \"#utility.yul\":4395:4398   */\n      0x00\n        /* \"#utility.yul\":4423:4461   */\n      tag_402\n        /* \"#utility.yul\":4455:4460   */\n      dup3\n        /* \"#utility.yul\":4423:4461   */\n      tag_307\n      jump\t// in\n    tag_402:\n        /* \"#utility.yul\":4477:4547   */\n      tag_403\n        /* \"#utility.yul\":4540:4546   */\n      dup2\n        /* \"#utility.yul\":4535:4538   */\n      dup6\n        /* \"#utility.yul\":4477:4547   */\n      tag_308\n      jump\t// in\n    tag_403:\n        /* \"#utility.yul\":4470:4547   */\n      swap4\n      pop\n        /* \"#utility.yul\":4556:4621   */\n      tag_404\n        /* \"#utility.yul\":4614:4620   */\n      dup2\n        /* \"#utility.yul\":4609:4612   */\n      dup6\n        /* \"#utility.yul\":4602:4606   */\n      0x20\n        /* \"#utility.yul\":4595:4600   */\n      dup7\n        /* \"#utility.yul\":4591:4607   */\n      add\n        /* \"#utility.yul\":4556:4621   */\n      tag_309\n      jump\t// in\n    tag_404:\n        /* \"#utility.yul\":4646:4675   */\n      tag_405\n        /* \"#utility.yul\":4668:4674   */\n      dup2\n        /* \"#utility.yul\":4646:4675   */\n      tag_300\n      jump\t// in\n    tag_405:\n        /* \"#utility.yul\":4641:4644   */\n      dup5\n        /* \"#utility.yul\":4637:4676   */\n      add\n        /* \"#utility.yul\":4630:4676   */\n      swap2\n      pop\n        /* \"#utility.yul\":4399:4682   */\n      pop\n        /* \"#utility.yul\":4309:4682   */\n      swap3\n      swap2\n      pop\n      pop\n      jump\t// out\n        /* \"#utility.yul\":4688:4997   */\n    tag_20:\n        /* \"#utility.yul\":4799:4803   */\n      0x00\n        /* \"#utility.yul\":4837:4839   */\n      0x20\n        /* \"#utility.yul\":4826:4835   */\n      dup3\n        /* \"#utility.yul\":4822:4840   */\n      add\n        /* \"#utility.yul\":4814:4840   */\n      swap1\n      pop\n        /* \"#utility.yul\":4886:4895   */\n      dup2\n        /* \"#utility.yul\":4880:4884   */\n      dup2\n        /* \"#utility.yul\":4876:4896   */\n      sub\n        /* \"#utility.yul\":4872:4873   */\n      0x00\n        /* \"#utility.yul\":4861:4870   */\n      dup4\n        /* \"#utility.yul\":4857:4874   */\n      add\n        /* \"#utility.yul\":4850:4897   */\n      mstore\n        /* \"#utility.yul\":4914:4990   */\n      tag_407\n        /* \"#utility.yul\":4985:4989   */\n      dup2\n        /* \"#utility.yul\":4976:4982   */\n      dup5\n        /* \"#utility.yul\":4914:4990   */\n      tag_310\n      jump\t// in\n    tag_407:\n        /* \"#utility.yul\":4906:4990   */\n      swap1\n      pop\n        /* \"#utility.yul\":4688:4997   */\n      swap3\n      swap2\n      pop\n      pop\n      jump\t// out\n        /* \"#utility.yul\":5003:5102   */\n    tag_311:\n        /* \"#utility.yul\":5055:5061   */\n      0x00\n        /* \"#utility.yul\":5089:5094   */\n      dup2\n        /* \"#utility.yul\":5083:5095   */\n      mload\n        /* \"#utility.yul\":5073:5095   */\n      swap1\n      pop\n        /* \"#utility.yul\":5003:5102   */\n      swap2\n      swap1\n      pop\n      jump\t// out\n        /* \"#utility.yul\":5108:5277   */\n    tag_312:\n        /* \"#utility.yul\":5192:5203   */\n      0x00\n        /* \"#utility.yul\":5226:5232   */\n      dup3\n        /* \"#utility.yul\":5221:5224   */\n      dup3\n        /* \"#utility.yul\":5214:5233   */\n      mstore\n        /* \"#utility.yul\":5266:5270   */\n      0x20\n        /* \"#utility.yul\":5261:5264   */\n      dup3\n        /* \"#utility.yul\":5257:5271   */\n      add\n        /* \"#utility.yul\":5242:5271   */\n      swap1\n      pop\n        /* \"#utility.yul\":5108:5277   */\n      swap3\n      swap2\n      pop\n      pop\n      jump\t// out\n        /* \"#utility.yul\":5283:5660   */\n    tag_313:\n        /* \"#utility.yul\":5371:5374   */\n      0x00\n        /* \"#utility.yul\":5399:5438   */\n      tag_411\n        /* \"#utility.yul\":5432:5437   */\n      dup3\n        /* \"#utility.yul\":5399:5438   */\n      tag_311\n      jump\t// in\n    tag_411:\n        /* \"#utility.yul\":5454:5525   */\n      tag_412\n        /* \"#utility.yul\":5518:5524   */\n      dup2\n        /* \"#utility.yul\":5513:5516   */\n      dup6\n        /* \"#utility.yul\":5454:5525   */\n      tag_312\n      jump\t// in\n    tag_412:\n        /* \"#utility.yul\":5447:5525   */\n      swap4\n      pop\n        /* \"#utility.yul\":5534:5599   */\n      tag_413\n        /* \"#utility.yul\":5592:5598   */\n      dup2\n        /* \"#utility.yul\":5587:5590   */\n      dup6\n        /* \"#utility.yul\":5580:5584   */\n      0x20\n        /* \"#utility.yul\":5573:5578   */\n      dup7\n        /* \"#utility.yul\":5569:5585   */\n      add\n        /* \"#utility.yul\":5534:5599   */\n      tag_309\n      jump\t// in\n    tag_413:\n        /* \"#utility.yul\":5624:5653   */\n      tag_414\n        /* \"#utility.yul\":5646:5652   */\n      dup2\n        /* \"#utility.yul\":5624:5653   */\n      tag_300\n      jump\t// in\n    tag_414:\n        /* \"#utility.yul\":5619:5622   */\n      dup5\n        /* \"#utility.yul\":5615:5654   */\n      add\n        /* \"#utility.yul\":5608:5654   */\n      swap2\n      pop\n        /* \"#utility.yul\":5375:5660   */\n      pop\n        /* \"#utility.yul\":5283:5660   */\n      swap3\n      swap2\n      pop\n      pop\n      jump\t// out\n        /* \"#utility.yul\":5666:5979   */\n    tag_27:\n        /* \"#utility.yul\":5779:5783   */\n      0x00\n        /* \"#utility.yul\":5817:5819   */\n      0x20\n        /* \"#utility.yul\":5806:5815   */\n      dup3\n        /* \"#utility.yul\":5802:5820   */\n      add\n        /* \"#utility.yul\":5794:5820   */\n      swap1\n      pop\n        /* \"#utility.yul\":5866:5875   */\n      dup2\n        /* \"#utility.yul\":5860:5864   */\n      dup2\n        /* \"#utility.yul\":5856:5876   */\n      sub\n        /* \"#utility.yul\":5852:5853   */\n      0x00\n        /* \"#utility.yul\":5841:5850   */\n      dup4\n        /* \"#utility.yul\":5837:5854   */\n      add\n        /* \"#utility.yul\":5830:5877   */\n      mstore\n        /* \"#utility.yul\":5894:5972   */\n      tag_416\n        /* \"#utility.yul\":5967:5971   */\n      dup2\n        /* \"#utility.yul\":5958:5964   */\n      dup5\n        /* \"#utility.yul\":5894:5972   */\n      tag_313\n      jump\t// in\n    tag_416:\n        /* \"#utility.yul\":5886:5972   */\n      swap1\n      pop\n        /* \"#utility.yul\":5666:5979   */\n      swap3\n      swap2\n      pop\n      pop\n      jump\t// out\n        /* \"#utility.yul\":5985:6086   */\n    tag_314:\n        /* \"#utility.yul\":6021:6028   */\n      0x00\n        /* \"#utility.yul\":6061:6079   */\n      0xffffffffffffffff\n        /* \"#utility.yul\":6054:6059   */\n      dup3\n        /* \"#utility.yul\":6050:6080   */\n      and\n        /* \"#utility.yul\":6039:6080   */\n      swap1\n      pop\n        /* \"#utility.yul\":5985:6086   */\n      swap2\n      swap1\n      pop\n      jump\t// out\n        /* \"#utility.yul\":6092:6207   */\n    tag_315:\n        /* \"#utility.yul\":6177:6200   */\n      tag_419\n        /* \"#utility.yul\":6194:6199   */\n      dup2\n        /* \"#utility.yul\":6177:6200   */\n      tag_314\n      jump\t// in\n    tag_419:\n        /* \"#utility.yul\":6172:6175   */\n      dup3\n        /* \"#utility.yul\":6165:6201   */\n      mstore\n        /* \"#utility.yul\":6092:6207   */\n      pop\n      pop\n      jump\t// out\n        /* \"#utility.yul\":6213:6431   */\n    tag_31:\n        /* \"#utility.yul\":6304:6308   */\n      0x00\n        /* \"#utility.yul\":6342:6344   */\n      0x20\n        /* \"#utility.yul\":6331:6340   */\n      dup3\n        /* \"#utility.yul\":6327:6345   */\n      add\n        /* \"#utility.yul\":6319:6345   */\n      swap1\n      pop\n        /* \"#utility.yul\":6355:6424   */\n      tag_421\n        /* \"#utility.yul\":6421:6422   */\n      0x00\n        /* \"#utility.yul\":6410:6419   */\n      dup4\n        /* \"#utility.yul\":6406:6423   */\n      add\n        /* \"#utility.yul\":6397:6403   */\n      dup5\n        /* \"#utility.yul\":6355:6424   */\n      tag_315\n      jump\t// in\n    tag_421:\n        /* \"#utility.yul\":6213:6431   */\n      swap3\n      swap2\n      pop\n      pop\n      jump\t// out\n        /* \"#utility.yul\":6437:6745   */\n    tag_316:\n        /* \"#utility.yul\":6499:6503   */\n      0x00\n        /* \"#utility.yul\":6589:6607   */\n      0xffffffffffffffff\n        /* \"#utility.yul\":6581:6587   */\n      dup3\n        /* \"#utility.yul\":6578:6608   */\n      gt\n        /* \"#utility.yul\":6575:6631   */\n      iszero\n      tag_423\n      jumpi\n        /* \"#utility.yul\":6611:6629   */\n      tag_424\n      tag_70\n      jump\t// in\n    tag_424:\n        /* \"#utility.yul\":6575:6631   */\n    tag_423:\n        /* \"#utility.yul\":6649:6678   */\n      tag_425\n        /* \"#utility.yul\":6671:6677   */\n      dup3\n        /* \"#utility.yul\":6649:6678   */\n      tag_300\n      jump\t// in\n    tag_425:\n        /* \"#utility.yul\":6641:6678   */\n      swap1\n      pop\n        /* \"#utility.yul\":6733:6737   */\n      0x20\n        /* \"#utility.yul\":6727:6731   */\n      dup2\n        /* \"#utility.yul\":6723:6738   */\n      add\n        /* \"#utility.yul\":6715:6738   */\n      swap1\n      pop\n        /* \"#utility.yul\":6437:6745   */\n      swap2\n      swap1\n      pop\n      jump\t// out\n        /* \"#utility.yul\":6751:7176   */\n    tag_317:\n        /* \"#utility.yul\":6829:6834   */\n      0x00\n        /* \"#utility.yul\":6854:6920   */\n      tag_427\n        /* \"#utility.yul\":6870:6919   */\n      tag_428\n        /* \"#utility.yul\":6912:6918   */\n      dup5\n        /* \"#utility.yul\":6870:6919   */\n      tag_316\n      jump\t// in\n    tag_428:\n        /* \"#utility.yul\":6854:6920   */\n      tag_302\n      jump\t// in\n    tag_427:\n        /* \"#utility.yul\":6845:6920   */\n      swap1\n      pop\n        /* \"#utility.yul\":6943:6949   */\n      dup3\n        /* \"#utility.yul\":6936:6941   */\n      dup2\n        /* \"#utility.yul\":6929:6950   */\n      mstore\n        /* \"#utility.yul\":6981:6985   */\n      0x20\n        /* \"#utility.yul\":6974:6979   */\n      dup2\n        /* \"#utility.yul\":6970:6986   */\n      add\n        /* \"#utility.yul\":7019:7022   */\n      dup5\n        /* \"#utility.yul\":7010:7016   */\n      dup5\n        /* \"#utility.yul\":7005:7008   */\n      dup5\n        /* \"#utility.yul\":7001:7017   */\n      add\n        /* \"#utility.yul\":6998:7023   */\n      gt\n        /* \"#utility.yul\":6995:7107   */\n      iszero\n      tag_429\n      jumpi\n        /* \"#utility.yul\":7026:7105   */\n      tag_430\n      tag_299\n      jump\t// in\n    tag_430:\n        /* \"#utility.yul\":6995:7107   */\n    tag_429:\n        /* \"#utility.yul\":7116:7170   */\n      tag_431\n        /* \"#utility.yul\":7163:7169   */\n      dup5\n        /* \"#utility.yul\":7158:7161   */\n      dup3\n        /* \"#utility.yul\":7153:7156   */\n      dup6\n        /* \"#utility.yul\":7116:7170   */\n      tag_304\n      jump\t// in\n    tag_431:\n        /* \"#utility.yul\":6835:7176   */\n      pop\n        /* \"#utility.yul\":6751:7176   */\n      swap4\n      swap3\n      pop\n      pop\n      pop\n      jump\t// out\n        /* \"#utility.yul\":7196:7536   */\n    tag_318:\n        /* \"#utility.yul\":7252:7257   */\n      0x00\n        /* \"#utility.yul\":7301:7304   */\n      dup3\n        /* \"#utility.yul\":7294:7298   */\n      0x1f\n        /* \"#utility.yul\":7286:7292   */\n      dup4\n        /* \"#utility.yul\":7282:7299   */\n      add\n        /* \"#utility.yul\":7278:7305   */\n      slt\n        /* \"#utility.yul\":7268:7390   */\n      tag_433\n      jumpi\n        /* \"#utility.yul\":7309:7388   */\n      tag_434\n      tag_298\n      jump\t// in\n    tag_434:\n        /* \"#utility.yul\":7268:7390   */\n    tag_433:\n        /* \"#utility.yul\":7426:7432   */\n      dup2\n        /* \"#utility.yul\":7413:7433   */\n      calldataload\n        /* \"#utility.yul\":7451:7530   */\n      tag_435\n        /* \"#utility.yul\":7526:7529   */\n      dup5\n        /* \"#utility.yul\":7518:7524   */\n      dup3\n        /* \"#utility.yul\":7511:7515   */\n      0x20\n        /* \"#utility.yul\":7503:7509   */\n      dup7\n        /* \"#utility.yul\":7499:7516   */\n      add\n        /* \"#utility.yul\":7451:7530   */\n      tag_317\n      jump\t// in\n    tag_435:\n        /* \"#utility.yul\":7442:7530   */\n      swap2\n      pop\n        /* \"#utility.yul\":7258:7536   */\n      pop\n        /* \"#utility.yul\":7196:7536   */\n      swap3\n      swap2\n      pop\n      pop\n      jump\t// out\n        /* \"#utility.yul\":7542:8051   */\n    tag_34:\n        /* \"#utility.yul\":7611:7617   */\n      0x00\n        /* \"#utility.yul\":7660:7662   */\n      0x20\n        /* \"#utility.yul\":7648:7657   */\n      dup3\n        /* \"#utility.yul\":7639:7646   */\n      dup5\n        /* \"#utility.yul\":7635:7658   */\n      sub\n        /* \"#utility.yul\":7631:7663   */\n      slt\n        /* \"#utility.yul\":7628:7747   */\n      iszero\n      tag_437\n      jumpi\n        /* \"#utility.yul\":7666:7745   */\n      tag_438\n      tag_293\n      jump\t// in\n    tag_438:\n        /* \"#utility.yul\":7628:7747   */\n    tag_437:\n        /* \"#utility.yul\":7814:7815   */\n      0x00\n        /* \"#utility.yul\":7803:7812   */\n      dup3\n        /* \"#utility.yul\":7799:7816   */\n      add\n        /* \"#utility.yul\":7786:7817   */\n      calldataload\n        /* \"#utility.yul\":7844:7862   */\n      0xffffffffffffffff\n        /* \"#utility.yul\":7836:7842   */\n      dup2\n        /* \"#utility.yul\":7833:7863   */\n      gt\n        /* \"#utility.yul\":7830:7947   */\n      iszero\n      tag_439\n      jumpi\n        /* \"#utility.yul\":7866:7945   */\n      tag_440\n      tag_294\n      jump\t// in\n    tag_440:\n        /* \"#utility.yul\":7830:7947   */\n    tag_439:\n        /* \"#utility.yul\":7971:8034   */\n      tag_441\n        /* \"#utility.yul\":8026:8033   */\n      dup5\n        /* \"#utility.yul\":8017:8023   */\n      dup3\n        /* \"#utility.yul\":8006:8015   */\n      dup6\n        /* \"#utility.yul\":8002:8024   */\n      add\n        /* \"#utility.yul\":7971:8034   */\n      tag_318\n      jump\t// in\n    tag_441:\n        /* \"#utility.yul\":7961:8034   */\n      swap2\n      pop\n        /* \"#utility.yul\":7757:8044   */\n      pop\n        /* \"#utility.yul\":7542:8051   */\n      swap3\n      swap2\n      pop\n      pop\n      jump\t// out\n        /* \"#utility.yul\":8057:8175   */\n    tag_319:\n        /* \"#utility.yul\":8144:8168   */\n      tag_443\n        /* \"#utility.yul\":8162:8167   */\n      dup2\n        /* \"#utility.yul\":8144:8168   */\n      tag_295\n      jump\t// in\n    tag_443:\n        /* \"#utility.yul\":8139:8142   */\n      dup3\n        /* \"#utility.yul\":8132:8169   */\n      mstore\n        /* \"#utility.yul\":8057:8175   */\n      pop\n      pop\n      jump\t// out\n        /* \"#utility.yul\":8181:8403   */\n    tag_37:\n        /* \"#utility.yul\":8274:8278   */\n      0x00\n        /* \"#utility.yul\":8312:8314   */\n      0x20\n        /* \"#utility.yul\":8301:8310   */\n      dup3\n        /* \"#utility.yul\":8297:8315   */\n      add\n        /* \"#utility.yul\":8289:8315   */\n      swap1\n      pop\n        /* \"#utility.yul\":8325:8396   */\n      tag_445\n        /* \"#utility.yul\":8393:8394   */\n      0x00\n        /* \"#utility.yul\":8382:8391   */\n      dup4\n        /* \"#utility.yul\":8378:8395   */\n      add\n        /* \"#utility.yul\":8369:8375   */\n      dup5\n        /* \"#utility.yul\":8325:8396   */\n      tag_319\n      jump\t// in\n    tag_445:\n        /* \"#utility.yul\":8181:8403   */\n      swap3\n      swap2\n      pop\n      pop\n      jump\t// out\n        /* \"#utility.yul\":8409:8589   */\n    tag_320:\n        /* \"#utility.yul\":8457:8534   */\n      0x4e487b7100000000000000000000000000000000000000000000000000000000\n        /* \"#utility.yul\":8454:8455   */\n      0x00\n        /* \"#utility.yul\":8447:8535   */\n      mstore\n        /* \"#utility.yul\":8554:8558   */\n      0x22\n        /* \"#utility.yul\":8551:8552   */\n      0x04\n        /* \"#utility.yul\":8544:8559   */\n      mstore\n        /* \"#utility.yul\":8578:8582   */\n      0x24\n        /* \"#utility.yul\":8575:8576   */\n      0x00\n        /* \"#utility.yul\":8568:8583   */\n      revert\n        /* \"#utility.yul\":8595:8915   */\n    tag_52:\n        /* \"#utility.yul\":8639:8645   */\n      0x00\n        /* \"#utility.yul\":8676:8677   */\n      0x02\n        /* \"#utility.yul\":8670:8674   */\n      dup3\n        /* \"#utility.yul\":8666:8678   */\n      div\n        /* \"#utility.yul\":8656:8678   */\n      swap1\n      pop\n        /* \"#utility.yul\":8723:8724   */\n      0x01\n        /* \"#utility.yul\":8717:8721   */\n      dup3\n        /* \"#utility.yul\":8713:8725   */\n      and\n        /* \"#utility.yul\":8744:8762   */\n      dup1\n        /* \"#utility.yul\":8734:8815   */\n      tag_448\n      jumpi\n        /* \"#utility.yul\":8800:8804   */\n      0x7f\n        /* \"#utility.yul\":8792:8798   */\n      dup3\n        /* \"#utility.yul\":8788:8805   */\n      and\n        /* \"#utility.yul\":8778:8805   */\n      swap2\n      pop\n        /* \"#utility.yul\":8734:8815   */\n    tag_448:\n        /* \"#utility.yul\":8862:8864   */\n      0x20\n        /* \"#utility.yul\":8854:8860   */\n      dup3\n        /* \"#utility.yul\":8851:8865   */\n      lt\n        /* \"#utility.yul\":8831:8849   */\n      dup2\n        /* \"#utility.yul\":8828:8866   */\n      sub\n        /* \"#utility.yul\":8825:8909   */\n      tag_449\n      jumpi\n        /* \"#utility.yul\":8881:8899   */\n      tag_450\n      tag_320\n      jump\t// in\n    tag_450:\n        /* \"#utility.yul\":8825:8909   */\n    tag_449:\n        /* \"#utility.yul\":8646:8915   */\n      pop\n        /* \"#utility.yul\":8595:8915   */\n      swap2\n      swap1\n      pop\n      jump\t// out\n        /* \"#utility.yul\":8921:9101   */\n    tag_75:\n        /* \"#utility.yul\":8969:9046   */\n      0x4e487b7100000000000000000000000000000000000000000000000000000000\n        /* \"#utility.yul\":8966:8967   */\n      0x00\n        /* \"#utility.yul\":8959:9047   */\n      mstore\n        /* \"#utility.yul\":9066:9070   */\n      0x32\n        /* \"#utility.yul\":9063:9064   */\n      0x04\n        /* \"#utility.yul\":9056:9071   */\n      mstore\n        /* \"#utility.yul\":9090:9094   */\n      0x24\n        /* \"#utility.yul\":9087:9088   */\n      0x00\n        /* \"#utility.yul\":9080:9095   */\n      revert\n        /* \"#utility.yul\":9107:9248   */\n    tag_321:\n        /* \"#utility.yul\":9156:9160   */\n      0x00\n        /* \"#utility.yul\":9179:9182   */\n      dup2\n        /* \"#utility.yul\":9171:9182   */\n      swap1\n      pop\n        /* \"#utility.yul\":9202:9205   */\n      dup2\n        /* \"#utility.yul\":9199:9200   */\n      0x00\n        /* \"#utility.yul\":9192:9206   */\n      mstore\n        /* \"#utility.yul\":9236:9240   */\n      0x20\n        /* \"#utility.yul\":9233:9234   */\n      0x00\n        /* \"#utility.yul\":9223:9241   */\n      keccak256\n        /* \"#utility.yul\":9215:9241   */\n      swap1\n      pop\n        /* \"#utility.yul\":9107:9248   */\n      swap2\n      swap1\n      pop\n      jump\t// out\n        /* \"#utility.yul\":9254:9347   */\n    tag_322:\n        /* \"#utility.yul\":9291:9297   */\n      0x00\n        /* \"#utility.yul\":9338:9340   */\n      0x20\n        /* \"#utility.yul\":9333:9335   */\n      0x1f\n        /* \"#utility.yul\":9326:9331   */\n      dup4\n        /* \"#utility.yul\":9322:9336   */\n      add\n        /* \"#utility.yul\":9318:9341   */\n      div\n        /* \"#utility.yul\":9308:9341   */\n      swap1\n      pop\n        /* \"#utility.yul\":9254:9347   */\n      swap2\n      swap1\n      pop\n      jump\t// out\n        /* \"#utility.yul\":9353:9460   */\n    tag_323:\n        /* \"#utility.yul\":9397:9405   */\n      0x00\n        /* \"#utility.yul\":9447:9452   */\n      dup3\n        /* \"#utility.yul\":9441:9445   */\n      dup3\n        /* \"#utility.yul\":9437:9453   */\n      shl\n        /* \"#utility.yul\":9416:9453   */\n      swap1\n      pop\n        /* \"#utility.yul\":9353:9460   */\n      swap3\n      swap2\n      pop\n      pop\n      jump\t// out\n        /* \"#utility.yul\":9466:9859   */\n    tag_324:\n        /* \"#utility.yul\":9535:9541   */\n      0x00\n        /* \"#utility.yul\":9585:9586   */\n      0x08\n        /* \"#utility.yul\":9573:9583   */\n      dup4\n        /* \"#utility.yul\":9569:9587   */\n      mul\n        /* \"#utility.yul\":9608:9705   */\n      tag_456\n        /* \"#utility.yul\":9638:9704   */\n      0xffffffffffffffffffffffffffffffffffffffffffffffffffffffffffffffff\n        /* \"#utility.yul\":9627:9636   */\n      dup3\n        /* \"#utility.yul\":9608:9705   */\n      tag_323\n      jump\t// in\n    tag_456:\n        /* \"#utility.yul\":9726:9765   */\n      tag_457\n        /* \"#utility.yul\":9756:9764   */\n      dup7\n        /* \"#utility.yul\":9745:9754   */\n      dup4\n        /* \"#utility.yul\":9726:9765   */\n      tag_323\n      jump\t// in\n    tag_457:\n        /* \"#utility.yul\":9714:9765   */\n      swap6\n      pop\n        /* \"#utility.yul\":9798:9802   */\n      dup1\n        /* \"#utility.yul\":9794:9803   */\n      not\n        /* \"#utility.yul\":9787:9792   */\n      dup5\n        /* \"#utility.yul\":9783:9804   */\n      and\n        /* \"#utility.yul\":9774:9804   */\n      swap4\n      pop\n        /* \"#utility.yul\":9847:9851   */\n      dup1\n        /* \"#utility.yul\":9837:9845   */\n      dup7\n        /* \"#utility.yul\":9833:9852   */\n      and\n        /* \"#utility.yul\":9826:9831   */\n      dup5\n        /* \"#utility.yul\":9823:9853   */\n      or\n        /* \"#utility.yul\":9813:9853   */\n      swap3\n      pop\n        /* \"#utility.yul\":9542:9859   */\n      pop\n      pop\n        /* \"#utility.yul\":9466:9859   */\n      swap4\n      swap3\n      pop\n      pop\n      pop\n      jump\t// out\n        /* \"#utility.yul\":9865:9942   */\n    tag_325:\n        /* \"#utility.yul\":9902:9909   */\n      0x00\n        /* \"#utility.yul\":9931:9936   */\n      dup2\n        /* \"#utility.yul\":9920:9936   */\n      swap1\n      pop\n        /* \"#utility.yul\":9865:9942   */\n      swap2\n      swap1\n      pop\n      jump\t// out\n        /* \"#utility.yul\":9948:10008   */\n    tag_326:\n        /* \"#utility.yul\":9976:9979   */\n      0x00\n        /* \"#utility.yul\":9997:10002   */\n      dup2\n        /* \"#utility.yul\":9990:10002   */\n      swap1\n      pop\n        /* \"#utility.yul\":9948:10008   */\n      swap2\n      swap1\n      pop\n      jump\t// out\n        /* \"#utility.yul\":10014:10156   */\n    tag_327:\n        /* \"#utility.yul\":10064:10073   */\n      0x00\n        /* \"#utility.yul\":10097:10150   */\n      tag_461\n        /* \"#utility.yul\":10115:10149   */\n      tag_462\n        /* \"#utility.yul\":10124:10148   */\n      tag_463\n        /* \"#utility.yul\":10142:10147   */\n      dup5\n        /* \"#utility.yul\":10124:10148   */\n      tag_325\n      jump\t// in\n    tag_463:\n        /* \"#utility.yul\":10115:10149   */\n      tag_326\n      jump\t// in\n    tag_462:\n        /* \"#utility.yul\":10097:10150   */\n      tag_325\n      jump\t// in\n    tag_461:\n        /* \"#utility.yul\":10084:10150   */\n      swap1\n      pop\n        /* \"#utility.yul\":10014:10156   */\n      swap2\n      swap1\n      pop\n      jump\t// out\n        /* \"#utility.yul\":10162:10237   */\n    tag_328:\n        /* \"#utility.yul\":10205:10208   */\n      0x00\n        /* \"#utility.yul\":10226:10231   */\n      dup2\n        /* \"#utility.yul\":10219:10231   */\n      swap1\n      pop\n        /* \"#utility.yul\":10162:10237   */\n      swap2\n      swap1\n      pop\n      jump\t// out\n        /* \"#utility.yul\":10243:10512   */\n    tag_329:\n        /* \"#utility.yul\":10353:10392   */\n      tag_466\n        /* \"#utility.yul\":10384:10391   */\n      dup4\n        /* \"#utility.yul\":10353:10392   */\n      tag_327\n      jump\t// in\n    tag_466:\n        /* \"#utility.yul\":10414:10505   */\n      tag_467\n        /* \"#utility.yul\":10463:10504   */\n      tag_468\n        /* \"#utility.yul\":10487:10503   */\n      dup3\n        /* \"#utility.yul\":10463:10504   */\n      tag_328\n      jump\t// in\n    tag_468:\n        /* \"#utility.yul\":10455:10461   */\n      dup5\n        /* \"#utility.yul\":10448:10452   */\n      dup5\n        /* \"#utility.yul\":10442:10453   */\n      sload\n        /* \"#utility.yul\":10414:10505   */\n      tag_324\n      jump\t// in\n    tag_467:\n        /* \"#utility.yul\":10408:10412   */\n      dup3\n        /* \"#utility.yul\":10401:10506   */\n      sstore\n        /* \"#utility.yul\":10319:10512   */\n      pop\n        /* \"#utility.yul\":10243:10512   */\n      pop\n      pop\n      pop\n      jump\t// out\n        /* \"#utility.yul\":10518:10591   */\n    tag_330:\n        /* \"#utility.yul\":10563:10566   */\n      0x00\n        /* \"#utility.yul\":10584:10585   */\n      0x00\n        /* \"#utility.yul\":10577:10585   */\n      swap1\n      pop\n        /* \"#utility.yul\":10518:10591   */\n      swap1\n      jump\t// out\n        /* \"#utility.yul\":10597:10786   */\n    tag_331:\n        /* \"#utility.yul\":10674:10706   */\n      tag_471\n      tag_330\n      jump\t// in\n    tag_471:\n        /* \"#utility.yul\":10715:10780   */\n      tag_472\n        /* \"#utility.yul\":10773:10779   */\n      dup2\n        /* \"#utility.yul\":10765:10771   */\n      dup5\n        /* \"#utility.yul\":10759:10763   */\n      dup5\n        /* \"#utility.yul\":10715:10780   */\n      tag_329\n      jump\t// in\n    tag_472:\n        /* \"#utility.yul\":10650:10786   */\n      pop\n        /* \"#utility.yul\":10597:10786   */\n      pop\n      pop\n      jump\t// out\n        /* \"#utility.yul\":10792:10978   */\n    tag_332:\n        /* \"#utility.yul\":10852:10972   */\n    tag_474:\n        /* \"#utility.yul\":10869:10872   */\n      dup2\n        /* \"#utility.yul\":10862:10867   */\n      dup2\n        /* \"#utility.yul\":10859:10873   */\n      lt\n        /* \"#utility.yul\":10852:10972   */\n      iszero\n      tag_476\n      jumpi\n        /* \"#utility.yul\":10923:10962   */\n      tag_477\n        /* \"#utility.yul\":10960:10961   */\n      0x00\n        /* \"#utility.yul\":10953:10958   */\n      dup3\n        /* \"#utility.yul\":10923:10962   */\n      tag_331\n      jump\t// in\n    tag_477:\n        /* \"#utility.yul\":10896:10897   */\n      0x01\n        /* \"#utility.yul\":10889:10894   */\n      dup2\n        /* \"#utility.yul\":10885:10898   */\n      add\n        /* \"#utility.yul\":10876:10898   */\n      swap1\n      pop\n        /* \"#utility.yul\":10852:10972   */\n      jump(tag_474)\n    tag_476:\n        /* \"#utility.yul\":10792:10978   */\n      pop\n      pop\n      jump\t// out\n        /* \"#utility.yul\":10984:11527   */\n    tag_333:\n        /* \"#utility.yul\":11085:11087   */\n      0x1f\n        /* \"#utility.yul\":11080:11083   */\n      dup3\n        /* \"#utility.yul\":11077:11088   */\n      gt\n        /* \"#utility.yul\":11074:11520   */\n      iszero\n      tag_479\n      jumpi\n        /* \"#utility.yul\":11119:11157   */\n      tag_480\n        /* \"#utility.yul\":11151:11156   */\n      dup2\n        /* \"#utility.yul\":11119:11157   */\n      tag_321\n      jump\t// in\n    tag_480:\n        /* \"#utility.yul\":11203:11232   */\n      tag_481\n        /* \"#utility.yul\":11221:11231   */\n      dup5\n        /* \"#utility.yul\":11203:11232   */\n      tag_322\n      jump\t// in\n    tag_481:\n        /* \"#utility.yul\":11193:11201   */\n      dup2\n        /* \"#utility.yul\":11189:11233   */\n      add\n        /* \"#utility.yul\":11386:11388   */\n      0x20\n        /* \"#utility.yul\":11374:11384   */\n      dup6\n        /* \"#utility.yul\":11371:11389   */\n      lt\n        /* \"#utility.yul\":11368:11417   */\n      iszero\n      tag_482\n      jumpi\n        /* \"#utility.yul\":11407:11415   */\n      dup2\n        /* \"#utility.yul\":11392:11415   */\n      swap1\n      pop\n        /* \"#utility.yul\":11368:11417   */\n    tag_482:\n        /* \"#utility.yul\":11430:11510   */\n      tag_483\n        /* \"#utility.yul\":11486:11508   */\n      tag_484\n        /* \"#utility.yul\":11504:11507   */\n      dup6\n        /* \"#utility.yul\":11486:11508   */\n      tag_322\n      jump\t// in\n    tag_484:\n        /* \"#utility.yul\":11476:11484   */\n      dup4\n        /* \"#utility.yul\":11472:11509   */\n      add\n        /* \"#utility.yul\":11459:11470   */\n      dup3\n        /* \"#utility.yul\":11430:11510   */\n      tag_332\n      jump\t// in\n    tag_483:\n        /* \"#utility.yul\":11089:11520   */\n      pop\n      pop\n        /* \"#utility.yul\":11074:11520   */\n    tag_479:\n        /* \"#utility.yul\":10984:11527   */\n      pop\n      pop\n      pop\n      jump\t// out\n        /* \"#utility.yul\":11533:11650   */\n    tag_334:\n        /* \"#utility.yul\":11587:11595   */\n      0x00\n        /* \"#utility.yul\":11637:11642   */\n      dup3\n        /* \"#utility.yul\":11631:11635   */\n      dup3\n        /* \"#utility.yul\":11627:11643   */\n      shr\n        /* \"#utility.yul\":11606:11643   */\n      swap1\n      pop\n        /* \"#utility.yul\":11533:11650   */\n      swap3\n      swap2\n      pop\n      pop\n      jump\t// out\n        /* \"#utility.yul\":11656:11825   */\n    tag_335:\n        /* \"#utility.yul\":11700:11706   */\n      0x00\n        /* \"#utility.yul\":11733:11784   */\n      tag_487\n        /* \"#utility.yul\":11781:11782   */\n      0x00\n        /* \"#utility.yul\":11777:11783   */\n      not\n        /* \"#utility.yul\":11769:11774   */\n      dup5\n        /* \"#utility.yul\":11766:11767   */\n      0x08\n        /* \"#utility.yul\":11762:11775   */\n      mul\n        /* \"#utility.yul\":11733:11784   */\n      tag_334\n      jump\t// in\n    tag_487:\n        /* \"#utility.yul\":11729:11785   */\n      not\n        /* \"#utility.yul\":11814:11818   */\n      dup1\n        /* \"#utility.yul\":11808:11812   */\n      dup4\n        /* \"#utility.yul\":11804:11819   */\n      and\n        /* \"#utility.yul\":11794:11819   */\n      swap2\n      pop\n        /* \"#utility.yul\":11707:11825   */\n      pop\n        /* \"#utility.yul\":11656:11825   */\n      swap3\n      swap2\n      pop\n      pop\n      jump\t// out\n        /* \"#utility.yul\":11830:12125   */\n    tag_336:\n        /* \"#utility.yul\":11906:11910   */\n      0x00\n        /* \"#utility.yul\":12052:12081   */\n      tag_489\n        /* \"#utility.yul\":12077:12080   */\n      dup4\n        /* \"#utility.yul\":12071:12075   */\n      dup4\n        /* \"#utility.yul\":12052:12081   */\n      tag_335\n      jump\t// in\n    tag_489:\n        /* \"#utility.yul\":12044:12081   */\n      swap2\n      pop\n        /* \"#utility.yul\":12114:12117   */\n      dup3\n        /* \"#utility.yul\":12111:12112   */\n      0x02\n        /* \"#utility.yul\":12107:12118   */\n      mul\n        /* \"#utility.yul\":12101:12105   */\n      dup3\n        /* \"#utility.yul\":12098:12119   */\n      or\n        /* \"#utility.yul\":12090:12119   */\n      swap1\n      pop\n        /* \"#utility.yul\":11830:12125   */\n      swap3\n      swap2\n      pop\n      pop\n      jump\t// out\n        /* \"#utility.yul\":12130:13525   */\n    tag_93:\n        /* \"#utility.yul\":12247:12284   */\n      tag_491\n        /* \"#utility.yul\":12280:12283   */\n      dup3\n        /* \"#utility.yul\":12247:12284   */\n      tag_311\n      jump\t// in\n    tag_491:\n        /* \"#utility.yul\":12349:12367   */\n      0xffffffffffffffff\n        /* \"#utility.yul\":12341:12347   */\n      dup2\n        /* \"#utility.yul\":12338:12368   */\n      gt\n        /* \"#utility.yul\":12335:12391   */\n      iszero\n      tag_492\n      jumpi\n        /* \"#utility.yul\":12371:12389   */\n      tag_493\n      tag_70\n      jump\t// in\n    tag_493:\n        /* \"#utility.yul\":12335:12391   */\n    tag_492:\n        /* \"#utility.yul\":12415:12453   */\n      tag_494\n        /* \"#utility.yul\":12447:12451   */\n      dup3\n        /* \"#utility.yul\":12441:12452   */\n      sload\n        /* \"#utility.yul\":12415:12453   */\n      tag_52\n      jump\t// in\n    tag_494:\n        /* \"#utility.yul\":12500:12567   */\n      tag_495\n        /* \"#utility.yul\":12560:12566   */\n      dup3\n        /* \"#utility.yul\":12552:12558   */\n      dup3\n        /* \"#utility.yul\":12546:12550   */\n      dup6\n        /* \"#utility.yul\":12500:12567   */\n      tag_333\n      jump\t// in\n    tag_495:\n        /* \"#utility.yul\":12594:12595   */\n      0x00\n        /* \"#utility.yul\":12618:12622   */\n      0x20\n        /* \"#utility.yul\":12605:12622   */\n      swap1\n      pop\n        /* \"#utility.yul\":12650:12652   */\n      0x1f\n        /* \"#utility.yul\":12642:12648   */\n      dup4\n        /* \"#utility.yul\":12639:12653   */\n      gt\n        /* \"#utility.yul\":12667:12668   */\n      0x01\n        /* \"#utility.yul\":12662:13280   */\n      dup2\n      eq\n      tag_497\n      jumpi\n        /* \"#utility.yul\":13324:13325   */\n      0x00\n        /* \"#utility.yul\":13341:13347   */\n      dup5\n        /* \"#utility.yul\":13338:13415   */\n      iszero\n      tag_498\n      jumpi\n        /* \"#utility.yul\":13390:13399   */\n      dup3\n        /* \"#utility.yul\":13385:13388   */\n      dup8\n        /* \"#utility.yul\":13381:13400   */\n      add\n        /* \"#utility.yul\":13375:13401   */\n      mload\n        /* \"#utility.yul\":13366:13401   */\n      swap1\n      pop\n        /* \"#utility.yul\":13338:13415   */\n    tag_498:\n        /* \"#utility.yul\":13441:13508   */\n      tag_499\n        /* \"#utility.yul\":13501:13507   */\n      dup6\n        /* \"#utility.yul\":13494:13499   */\n      dup3\n        /* \"#utility.yul\":13441:13508   */\n      tag_336\n      jump\t// in\n    tag_499:\n        /* \"#utility.yul\":13435:13439   */\n      dup7\n        /* \"#utility.yul\":13428:13509   */\n      sstore\n        /* \"#utility.yul\":13297:13519   */\n      pop\n        /* \"#utility.yul\":12632:13519   */\n      jump(tag_496)\n        /* \"#utility.yul\":12662:13280   */\n    tag_497:\n        /* \"#utility.yul\":12714:12718   */\n      0x1f\n        /* \"#utility.yul\":12710:12719   */\n      not\n        /* \"#utility.yul\":12702:12708   */\n      dup5\n        /* \"#utility.yul\":12698:12720   */\n      and\n        /* \"#utility.yul\":12748:12785   */\n      tag_500\n        /* \"#utility.yul\":12780:12784   */\n      dup7\n        /* \"#utility.yul\":12748:12785   */\n      tag_321\n      jump\t// in\n    tag_500:\n        /* \"#utility.yul\":12807:12808   */\n      0x00\n        /* \"#utility.yul\":12821:13029   */\n    tag_501:\n        /* \"#utility.yul\":12835:12842   */\n      dup3\n        /* \"#utility.yul\":12832:12833   */\n      dup2\n        /* \"#utility.yul\":12829:12843   */\n      lt\n        /* \"#utility.yul\":12821:13029   */\n      iszero\n      tag_503\n      jumpi\n        /* \"#utility.yul\":12914:12923   */\n      dup5\n        /* \"#utility.yul\":12909:12912   */\n      dup10\n        /* \"#utility.yul\":12905:12924   */\n      add\n        /* \"#utility.yul\":12899:12925   */\n      mload\n        /* \"#utility.yul\":12891:12897   */\n      dup3\n        /* \"#utility.yul\":12884:12926   */\n      sstore\n        /* \"#utility.yul\":12965:12966   */\n      0x01\n        /* \"#utility.yul\":12957:12963   */\n      dup3\n        /* \"#utility.yul\":12953:12967   */\n      add\n        /* \"#utility.yul\":12943:12967   */\n      swap2\n      pop\n        /* \"#utility.yul\":13012:13014   */\n      0x20\n        /* \"#utility.yul\":13001:13010   */\n      dup6\n        /* \"#utility.yul\":12997:13015   */\n      add\n        /* \"#utility.yul\":12984:13015   */\n      swap5\n      pop\n        /* \"#utility.yul\":12858:12862   */\n      0x20\n        /* \"#utility.yul\":12855:12856   */\n      dup2\n        /* \"#utility.yul\":12851:12863   */\n      add\n        /* \"#utility.yul\":12846:12863   */\n      swap1\n      pop\n        /* \"#utility.yul\":12821:13029   */\n      jump(tag_501)\n    tag_503:\n        /* \"#utility.yul\":13057:13063   */\n      dup7\n        /* \"#utility.yul\":13048:13055   */\n      dup4\n        /* \"#utility.yul\":13045:13064   */\n      lt\n        /* \"#utility.yul\":13042:13221   */\n      iszero\n      tag_504\n      jumpi\n        /* \"#utility.yul\":13115:13124   */\n      dup5\n        /* \"#utility.yul\":13110:13113   */\n      dup10\n        /* \"#utility.yul\":13106:13125   */\n      add\n        /* \"#utility.yul\":13100:13126   */\n      mload\n        /* \"#utility.yul\":13158:13206   */\n      tag_505\n        /* \"#utility.yul\":13200:13204   */\n      0x1f\n        /* \"#utility.yul\":13192:13198   */\n      dup10\n        /* \"#utility.yul\":13188:13205   */\n      and\n        /* \"#utility.yul\":13177:13186   */\n      dup3\n        /* \"#utility.yul\":13158:13206   */\n      tag_335\n      jump\t// in\n    tag_505:\n        /* \"#utility.yul\":13150:13156   */\n      dup4\n        /* \"#utility.yul\":13143:13207   */\n      sstore\n        /* \"#utility.yul\":13065:13221   */\n      pop\n        /* \"#utility.yul\":13042:13221   */\n    tag_504:\n        /* \"#utility.yul\":13267:13268   */\n      0x01\n        /* \"#utility.yul\":13263:13264   */\n      0x02\n        /* \"#utility.yul\":13255:13261   */\n      dup9\n        /* \"#utility.yul\":13251:13265   */\n      mul\n        /* \"#utility.yul\":13247:13269   */\n      add\n        /* \"#utility.yul\":13241:13245   */\n      dup9\n        /* \"#utility.yul\":13234:13270   */\n      sstore\n        /* \"#utility.yul\":12669:13280   */\n      pop\n      pop\n      pop\n        /* \"#utility.yul\":12632:13519   */\n    tag_496:\n      pop\n        /* \"#utility.yul\":12222:13525   */\n      pop\n      pop\n      pop\n        /* \"#utility.yul\":12130:13525   */\n      pop\n      pop\n      jump\t// out\n        /* \"#utility.yul\":13531:13671   */\n    tag_337:\n        /* \"#utility.yul\":13579:13583   */\n      0x00\n        /* \"#utility.yul\":13602:13605   */\n      dup2\n        /* \"#utility.yul\":13594:13605   */\n      swap1\n      pop\n        /* \"#utility.yul\":13625:13628   */\n      dup2\n        /* \"#utility.yul\":13622:13623   */\n      0x00\n        /* \"#utility.yul\":13615:13629   */\n      mstore\n        /* \"#utility.yul\":13659:13663   */\n      0x20\n        /* \"#utility.yul\":13656:13657   */\n      0x00\n        /* \"#utility.yul\":13646:13664   */\n      keccak256\n        /* \"#utility.yul\":13638:13664   */\n      swap1\n      pop\n        /* \"#utility.yul\":13531:13671   */\n      swap2\n      swap1\n      pop\n      jump\t// out\n        /* \"#utility.yul\":13677:14218   */\n    tag_338:\n        /* \"#utility.yul\":13777:13779   */\n      0x1f\n        /* \"#utility.yul\":13772:13775   */\n      dup3\n        /* \"#utility.yul\":13769:13780   */\n      gt\n        /* \"#utility.yul\":13766:14211   */\n      iszero\n      tag_508\n      jumpi\n        /* \"#utility.yul\":13811:13848   */\n      tag_509\n        /* \"#utility.yul\":13842:13847   */\n      dup2\n        /* \"#utility.yul\":13811:13848   */\n      tag_337\n      jump\t// in\n    tag_509:\n        /* \"#utility.yul\":13894:13923   */\n      tag_510\n        /* \"#utility.yul\":13912:13922   */\n      dup5\n        /* \"#utility.yul\":13894:13923   */\n      tag_322\n      jump\t// in\n    tag_510:\n        /* \"#utility.yul\":13884:13892   */\n      dup2\n        /* \"#utility.yul\":13880:13924   */\n      add\n        /* \"#utility.yul\":14077:14079   */\n      0x20\n        /* \"#utility.yul\":14065:14075   */\n      dup6\n        /* \"#utility.yul\":14062:14080   */\n      lt\n        /* \"#utility.yul\":14059:14108   */\n      iszero\n      tag_511\n      jumpi\n        /* \"#utility.yul\":14098:14106   */\n      dup2\n        /* \"#utility.yul\":14083:14106   */\n      swap1\n      pop\n        /* \"#utility.yul\":14059:14108   */\n    tag_511:\n        /* \"#utility.yul\":14121:14201   */\n      tag_512\n        /* \"#utility.yul\":14177:14199   */\n      tag_513\n        /* \"#utility.yul\":14195:14198   */\n      dup6\n        /* \"#utility.yul\":14177:14199   */\n      tag_322\n      jump\t// in\n    tag_513:\n        /* \"#utility.yul\":14167:14175   */\n      dup4\n        /* \"#utility.yul\":14163:14200   */\n      add\n        /* \"#utility.yul\":14150:14161   */\n      dup3\n        /* \"#utility.yul\":14121:14201   */\n      tag_332\n      jump\t// in\n    tag_512:\n        /* \"#utility.yul\":13781:14211   */\n      pop\n      pop\n        /* \"#utility.yul\":13766:14211   */\n    tag_508:\n        /* \"#utility.yul\":13677:14218   */\n      pop\n      pop\n      pop\n      jump\t// out\n        /* \"#utility.yul\":14224:15614   */\n    tag_108:\n        /* \"#utility.yul\":14339:14375   */\n      tag_515\n        /* \"#utility.yul\":14371:14374   */\n      dup3\n        /* \"#utility.yul\":14339:14375   */\n      tag_307\n      jump\t// in\n    tag_515:\n        /* \"#utility.yul\":14440:14458   */\n      0xffffffffffffffff\n        /* \"#utility.yul\":14432:14438   */\n      dup2\n        /* \"#utility.yul\":14429:14459   */\n      gt\n        /* \"#utility.yul\":14426:14482   */\n      iszero\n      tag_516\n      jumpi\n        /* \"#utility.yul\":14462:14480   */\n      tag_517\n      tag_70\n      jump\t// in\n    tag_517:\n        /* \"#utility.yul\":14426:14482   */\n    tag_516:\n        /* \"#utility.yul\":14506:14544   */\n      tag_518\n        /* \"#utility.yul\":14538:14542   */\n      dup3\n        /* \"#utility.yul\":14532:14543   */\n      sload\n        /* \"#utility.yul\":14506:14544   */\n      tag_52\n      jump\t// in\n    tag_518:\n        /* \"#utility.yul\":14591:14657   */\n      tag_519\n        /* \"#utility.yul\":14650:14656   */\n      dup3\n        /* \"#utility.yul\":14642:14648   */\n      dup3\n        /* \"#utility.yul\":14636:14640   */\n      dup6\n        /* \"#utility.yul\":14591:14657   */\n      tag_338\n      jump\t// in\n    tag_519:\n        /* \"#utility.yul\":14684:14685   */\n      0x00\n        /* \"#utility.yul\":14708:14712   */\n      0x20\n        /* \"#utility.yul\":14695:14712   */\n      swap1\n      pop\n        /* \"#utility.yul\":14740:14742   */\n      0x1f\n        /* \"#utility.yul\":14732:14738   */\n      dup4\n        /* \"#utility.yul\":14729:14743   */\n      gt\n        /* \"#utility.yul\":14757:14758   */\n      0x01\n        /* \"#utility.yul\":14752:15369   */\n      dup2\n      eq\n      tag_521\n      jumpi\n        /* \"#utility.yul\":15413:15414   */\n      0x00\n        /* \"#utility.yul\":15430:15436   */\n      dup5\n        /* \"#utility.yul\":15427:15504   */\n      iszero\n      tag_522\n      jumpi\n        /* \"#utility.yul\":15479:15488   */\n      dup3\n        /* \"#utility.yul\":15474:15477   */\n      dup8\n        /* \"#utility.yul\":15470:15489   */\n      add\n        /* \"#utility.yul\":15464:15490   */\n      mload\n        /* \"#utility.yul\":15455:15490   */\n      swap1\n      pop\n        /* \"#utility.yul\":15427:15504   */\n    tag_522:\n        /* \"#utility.yul\":15530:15597   */\n      tag_523\n        /* \"#utility.yul\":15590:15596   */\n      dup6\n        /* \"#utility.yul\":15583:15588   */\n      dup3\n        /* \"#utility.yul\":15530:15597   */\n      tag_336\n      jump\t// in\n    tag_523:\n        /* \"#utility.yul\":15524:15528   */\n      dup7\n        /* \"#utility.yul\":15517:15598   */\n      sstore\n        /* \"#utility.yul\":15386:15608   */\n      pop\n        /* \"#utility.yul\":14722:15608   */\n      jump(tag_520)\n        /* \"#utility.yul\":14752:15369   */\n    tag_521:\n        /* \"#utility.yul\":14804:14808   */\n      0x1f\n        /* \"#utility.yul\":14800:14809   */\n      not\n        /* \"#utility.yul\":14792:14798   */\n      dup5\n        /* \"#utility.yul\":14788:14810   */\n      and\n        /* \"#utility.yul\":14838:14874   */\n      tag_524\n        /* \"#utility.yul\":14869:14873   */\n      dup7\n        /* \"#utility.yul\":14838:14874   */\n      tag_337\n      jump\t// in\n    tag_524:\n        /* \"#utility.yul\":14896:14897   */\n      0x00\n        /* \"#utility.yul\":14910:15118   */\n    tag_525:\n        /* \"#utility.yul\":14924:14931   */\n      dup3\n        /* \"#utility.yul\":14921:14922   */\n      dup2\n        /* \"#utility.yul\":14918:14932   */\n      lt\n        /* \"#utility.yul\":14910:15118   */\n      iszero\n      tag_527\n      jumpi\n        /* \"#utility.yul\":15003:15012   */\n      dup5\n        /* \"#utility.yul\":14998:15001   */\n      dup10\n        /* \"#utility.yul\":14994:15013   */\n      add\n        /* \"#utility.yul\":14988:15014   */\n      mload\n        /* \"#utility.yul\":14980:14986   */\n      dup3\n        /* \"#utility.yul\":14973:15015   */\n      sstore\n        /* \"#utility.yul\":15054:15055   */\n      0x01\n        /* \"#utility.yul\":15046:15052   */\n      dup3\n        /* \"#utility.yul\":15042:15056   */\n      add\n        /* \"#utility.yul\":15032:15056   */\n      swap2\n      pop\n        /* \"#utility.yul\":15101:15103   */\n      0x20\n        /* \"#utility.yul\":15090:15099   */\n      dup6\n        /* \"#utility.yul\":15086:15104   */\n      add\n        /* \"#utility.yul\":15073:15104   */\n      swap5\n      pop\n        /* \"#utility.yul\":14947:14951   */\n      0x20\n        /* \"#utility.yul\":14944:14945   */\n      dup2\n        /* \"#utility.yul\":14940:14952   */\n      add\n        /* \"#utility.yul\":14935:14952   */\n      swap1\n      pop\n        /* \"#utility.yul\":14910:15118   */\n      jump(tag_525)\n    tag_527:\n        /* \"#utility.yul\":15146:15152   */\n      dup7\n        /* \"#utility.yul\":15137:15144   */\n      dup4\n        /* \"#utility.yul\":15134:15153   */\n      lt\n        /* \"#utility.yul\":15131:15310   */\n      iszero\n      tag_528\n      jumpi\n        /* \"#utility.yul\":15204:15213   */\n      dup5\n        /* \"#utility.yul\":15199:15202   */\n      dup10\n        /* \"#utility.yul\":15195:15214   */\n      add\n        /* \"#utility.yul\":15189:15215   */\n      mload\n        /* \"#utility.yul\":15247:15295   */\n      tag_529\n        /* \"#utility.yul\":15289:15293   */\n      0x1f\n        /* \"#utility.yul\":15281:15287   */\n      dup10\n        /* \"#utility.yul\":15277:15294   */\n      and\n        /* \"#utility.yul\":15266:15275   */\n      dup3\n        /* \"#utility.yul\":15247:15295   */\n      tag_335\n      jump\t// in\n    tag_529:\n        /* \"#utility.yul\":15239:15245   */\n      dup4\n        /* \"#utility.yul\":15232:15296   */\n      sstore\n        /* \"#utility.yul\":15154:15310   */\n      pop\n        /* \"#utility.yul\":15131:15310   */\n    tag_528:\n        /* \"#utility.yul\":15356:15357   */\n      0x01\n        /* \"#utility.yul\":15352:15353   */\n      0x02\n        /* \"#utility.yul\":15344:15350   */\n      dup9\n        /* \"#utility.yul\":15340:15354   */\n      mul\n        /* \"#utility.yul\":15336:15358   */\n      add\n        /* \"#utility.yul\":15330:15334   */\n      dup9\n        /* \"#utility.yul\":15323:15359   */\n      sstore\n        /* \"#utility.yul\":14759:15369   */\n      pop\n      pop\n      pop\n        /* \"#utility.yul\":14722:15608   */\n    tag_520:\n      pop\n        /* \"#utility.yul\":14314:15614   */\n      pop\n      pop\n      pop\n        /* \"#utility.yul\":14224:15614   */\n      pop\n      pop\n      jump\t// out\n        /* \"#utility.yul\":15644:16475   */\n    tag_339:\n        /* \"#utility.yul\":15729:15732   */\n      0x00\n        /* \"#utility.yul\":15766:15771   */\n      dup2\n        /* \"#utility.yul\":15760:15772   */\n      sload\n        /* \"#utility.yul\":15795:15831   */\n      tag_531\n        /* \"#utility.yul\":15821:15830   */\n      dup2\n        /* \"#utility.yul\":15795:15831   */\n      tag_52\n      jump\t// in\n    tag_531:\n        /* \"#utility.yul\":15847:15918   */\n      tag_532\n        /* \"#utility.yul\":15911:15917   */\n      dup2\n        /* \"#utility.yul\":15906:15909   */\n      dup7\n        /* \"#utility.yul\":15847:15918   */\n      tag_312\n      jump\t// in\n    tag_532:\n        /* \"#utility.yul\":15840:15918   */\n      swap5\n      pop\n        /* \"#utility.yul\":15949:15950   */\n      0x01\n        /* \"#utility.yul\":15938:15947   */\n      dup3\n        /* \"#utility.yul\":15934:15951   */\n      and\n        /* \"#utility.yul\":15965:15966   */\n      0x00\n        /* \"#utility.yul\":15960:16124   */\n      dup2\n      eq\n      tag_534\n      jumpi\n        /* \"#utility.yul\":16138:16139   */\n      0x01\n        /* \"#utility.yul\":16133:16469   */\n      dup2\n      eq\n      tag_535\n      jumpi\n        /* \"#utility.yul\":15927:16469   */\n      jump(tag_533)\n        /* \"#utility.yul\":15960:16124   */\n    tag_534:\n        /* \"#utility.yul\":16044:16048   */\n      0xff\n        /* \"#utility.yul\":16040:16049   */\n      not\n        /* \"#utility.yul\":16029:16038   */\n      dup4\n        /* \"#utility.yul\":16025:16050   */\n      and\n        /* \"#utility.yul\":16020:16023   */\n      dup7\n        /* \"#utility.yul\":16013:16051   */\n      mstore\n        /* \"#utility.yul\":16104:16110   */\n      dup2\n        /* \"#utility.yul\":16097:16111   */\n      iszero\n        /* \"#utility.yul\":16090:16112   */\n      iszero\n        /* \"#utility.yul\":16084:16088   */\n      0x20\n        /* \"#utility.yul\":16080:16113   */\n      mul\n        /* \"#utility.yul\":16075:16078   */\n      dup7\n        /* \"#utility.yul\":16071:16114   */\n      add\n        /* \"#utility.yul\":16064:16114   */\n      swap4\n      pop\n        /* \"#utility.yul\":15960:16124   */\n      jump(tag_533)\n        /* \"#utility.yul\":16133:16469   */\n    tag_535:\n        /* \"#utility.yul\":16200:16238   */\n      tag_536\n        /* \"#utility.yul\":16232:16237   */\n      dup6\n        /* \"#utility.yul\":16200:16238   */\n      tag_321\n      jump\t// in\n    tag_536:\n        /* \"#utility.yul\":16260:16261   */\n      0x00\n        /* \"#utility.yul\":16274:16428   */\n    tag_537:\n        /* \"#utility.yul\":16288:16294   */\n      dup4\n        /* \"#utility.yul\":16285:16286   */\n      dup2\n        /* \"#utility.yul\":16282:16295   */\n      lt\n        /* \"#utility.yul\":16274:16428   */\n      iszero\n      tag_539\n      jumpi\n        /* \"#utility.yul\":16362:16369   */\n      dup2\n        /* \"#utility.yul\":16356:16370   */\n      sload\n        /* \"#utility.yul\":16352:16353   */\n      dup2\n        /* \"#utility.yul\":16347:16350   */\n      dup10\n        /* \"#utility.yul\":16343:16354   */\n      add\n        /* \"#utility.yul\":16336:16371   */\n      mstore\n        /* \"#utility.yul\":16412:16413   */\n      0x01\n        /* \"#utility.yul\":16403:16410   */\n      dup3\n        /* \"#utility.yul\":16399:16414   */\n      add\n        /* \"#utility.yul\":16388:16414   */\n      swap2\n      pop\n        /* \"#utility.yul\":16310:16314   */\n      0x20\n        /* \"#utility.yul\":16307:16308   */\n      dup2\n        /* \"#utility.yul\":16303:16315   */\n      add\n        /* \"#utility.yul\":16298:16315   */\n      swap1\n      pop\n        /* \"#utility.yul\":16274:16428   */\n      jump(tag_537)\n    tag_539:\n        /* \"#utility.yul\":16457:16458   */\n      dup1\n        /* \"#utility.yul\":16452:16455   */\n      dup9\n        /* \"#utility.yul\":16448:16459   */\n      add\n        /* \"#utility.yul\":16441:16459   */\n      swap6\n      pop\n        /* \"#utility.yul\":16140:16469   */\n      pop\n      pop\n        /* \"#utility.yul\":15927:16469   */\n    tag_533:\n      pop\n        /* \"#utility.yul\":15733:16475   */\n      pop\n      pop\n        /* \"#utility.yul\":15644:16475   */\n      swap3\n      swap2\n      pop\n      pop\n      jump\t// out\n        /* \"#utility.yul\":16503:17330   */\n    tag_340:\n        /* \"#utility.yul\":16586:16589   */\n      0x00\n        /* \"#utility.yul\":16623:16628   */\n      dup2\n        /* \"#utility.yul\":16617:16629   */\n      sload\n        /* \"#utility.yul\":16652:16688   */\n      tag_541\n        /* \"#utility.yul\":16678:16687   */\n      dup2\n        /* \"#utility.yul\":16652:16688   */\n      tag_52\n      jump\t// in\n    tag_541:\n        /* \"#utility.yul\":16704:16774   */\n      tag_542\n        /* \"#utility.yul\":16767:16773   */\n      dup2\n        /* \"#utility.yul\":16762:16765   */\n      dup7\n        /* \"#utility.yul\":16704:16774   */\n      tag_308\n      jump\t// in\n    tag_542:\n        /* \"#utility.yul\":16697:16774   */\n      swap5\n      pop\n        /* \"#utility.yul\":16805:16806   */\n      0x01\n        /* \"#utility.yul\":16794:16803   */\n      dup3\n        /* \"#utility.yul\":16790:16807   */\n      and\n        /* \"#utility.yul\":16821:16822   */\n      0x00\n        /* \"#utility.yul\":16816:16980   */\n      dup2\n      eq\n      tag_544\n      jumpi\n        /* \"#utility.yul\":16994:16995   */\n      0x01\n        /* \"#utility.yul\":16989:17324   */\n      dup2\n      eq\n      tag_545\n      jumpi\n        /* \"#utility.yul\":16783:17324   */\n      jump(tag_543)\n        /* \"#utility.yul\":16816:16980   */\n    tag_544:\n        /* \"#utility.yul\":16900:16904   */\n      0xff\n        /* \"#utility.yul\":16896:16905   */\n      not\n        /* \"#utility.yul\":16885:16894   */\n      dup4\n        /* \"#utility.yul\":16881:16906   */\n      and\n        /* \"#utility.yul\":16876:16879   */\n      dup7\n        /* \"#utility.yul\":16869:16907   */\n      mstore\n        /* \"#utility.yul\":16960:16966   */\n      dup2\n        /* \"#utility.yul\":16953:16967   */\n      iszero\n        /* \"#utility.yul\":16946:16968   */\n      iszero\n        /* \"#utility.yul\":16940:16944   */\n      0x20\n        /* \"#utility.yul\":16936:16969   */\n      mul\n        /* \"#utility.yul\":16931:16934   */\n      dup7\n        /* \"#utility.yul\":16927:16970   */\n      add\n        /* \"#utility.yul\":16920:16970   */\n      swap4\n      pop\n        /* \"#utility.yul\":16816:16980   */\n      jump(tag_543)\n        /* \"#utility.yul\":16989:17324   */\n    tag_545:\n        /* \"#utility.yul\":17056:17093   */\n      tag_546\n        /* \"#utility.yul\":17087:17092   */\n      dup6\n        /* \"#utility.yul\":17056:17093   */\n      tag_337\n      jump\t// in\n    tag_546:\n        /* \"#utility.yul\":17115:17116   */\n      0x00\n        /* \"#utility.yul\":17129:17283   */\n    tag_547:\n        /* \"#utility.yul\":17143:17149   */\n      dup4\n        /* \"#utility.yul\":17140:17141   */\n      dup2\n        /* \"#utility.yul\":17137:17150   */\n      lt\n        /* \"#utility.yul\":17129:17283   */\n      iszero\n      tag_549\n      jumpi\n        /* \"#utility.yul\":17217:17224   */\n      dup2\n        /* \"#utility.yul\":17211:17225   */\n      sload\n        /* \"#utility.yul\":17207:17208   */\n      dup2\n        /* \"#utility.yul\":17202:17205   */\n      dup10\n        /* \"#utility.yul\":17198:17209   */\n      add\n        /* \"#utility.yul\":17191:17226   */\n      mstore\n        /* \"#utility.yul\":17267:17268   */\n      0x01\n        /* \"#utility.yul\":17258:17265   */\n      dup3\n        /* \"#utility.yul\":17254:17269   */\n      add\n        /* \"#utility.yul\":17243:17269   */\n      swap2\n      pop\n        /* \"#utility.yul\":17165:17169   */\n      0x20\n        /* \"#utility.yul\":17162:17163   */\n      dup2\n        /* \"#utility.yul\":17158:17170   */\n      add\n        /* \"#utility.yul\":17153:17170   */\n      swap1\n      pop\n        /* \"#utility.yul\":17129:17283   */\n      jump(tag_547)\n    tag_549:\n        /* \"#utility.yul\":17312:17313   */\n      dup1\n        /* \"#utility.yul\":17307:17310   */\n      dup9\n        /* \"#utility.yul\":17303:17314   */\n      add\n        /* \"#utility.yul\":17296:17314   */\n      swap6\n      pop\n        /* \"#utility.yul\":16996:17324   */\n      pop\n      pop\n        /* \"#utility.yul\":16783:17324   */\n    tag_543:\n      pop\n        /* \"#utility.yul\":16590:17330   */\n      pop\n      pop\n        /* \"#utility.yul\":16503:17330   */\n      swap3\n      swap2\n      pop\n      pop\n      jump\t// out\n        /* \"#utility.yul\":17336:18025   */\n    tag_112:\n        /* \"#utility.yul\":17532:17536   */\n      0x00\n        /* \"#utility.yul\":17570:17572   */\n      0x60\n        /* \"#utility.yul\":17559:17568   */\n      dup3\n        /* \"#utility.yul\":17555:17573   */\n      add\n        /* \"#utility.yul\":17547:17573   */\n      swap1\n      pop\n        /* \"#utility.yul\":17619:17628   */\n      dup2\n        /* \"#utility.yul\":17613:17617   */\n      dup2\n        /* \"#utility.yul\":17609:17629   */\n      sub\n        /* \"#utility.yul\":17605:17606   */\n      0x00\n        /* \"#utility.yul\":17594:17603   */\n      dup4\n        /* \"#utility.yul\":17590:17607   */\n      add\n        /* \"#utility.yul\":17583:17630   */\n      mstore\n        /* \"#utility.yul\":17647:17722   */\n      tag_551\n        /* \"#utility.yul\":17717:17721   */\n      dup2\n        /* \"#utility.yul\":17708:17714   */\n      dup7\n        /* \"#utility.yul\":17647:17722   */\n      tag_339\n      jump\t// in\n    tag_551:\n        /* \"#utility.yul\":17639:17722   */\n      swap1\n      pop\n        /* \"#utility.yul\":17769:17778   */\n      dup2\n        /* \"#utility.yul\":17763:17767   */\n      dup2\n        /* \"#utility.yul\":17759:17779   */\n      sub\n        /* \"#utility.yul\":17754:17756   */\n      0x20\n        /* \"#utility.yul\":17743:17752   */\n      dup4\n        /* \"#utility.yul\":17739:17757   */\n      add\n        /* \"#utility.yul\":17732:17780   */\n      mstore\n        /* \"#utility.yul\":17797:17870   */\n      tag_552\n        /* \"#utility.yul\":17865:17869   */\n      dup2\n        /* \"#utility.yul\":17856:17862   */\n      dup6\n        /* \"#utility.yul\":17797:17870   */\n      tag_340\n      jump\t// in\n    tag_552:\n        /* \"#utility.yul\":17789:17870   */\n      swap1\n      pop\n        /* \"#utility.yul\":17917:17926   */\n      dup2\n        /* \"#utility.yul\":17911:17915   */\n      dup2\n        /* \"#utility.yul\":17907:17927   */\n      sub\n        /* \"#utility.yul\":17902:17904   */\n      0x40\n        /* \"#utility.yul\":17891:17900   */\n      dup4\n        /* \"#utility.yul\":17887:17905   */\n      add\n        /* \"#utility.yul\":17880:17928   */\n      mstore\n        /* \"#utility.yul\":17945:18018   */\n      tag_553\n        /* \"#utility.yul\":18013:18017   */\n      dup2\n        /* \"#utility.yul\":18004:18010   */\n      dup5\n        /* \"#utility.yul\":17945:18018   */\n      tag_340\n      jump\t// in\n    tag_553:\n        /* \"#utility.yul\":17937:18018   */\n      swap1\n      pop\n        /* \"#utility.yul\":17336:18025   */\n      swap5\n      swap4\n      pop\n      pop\n      pop\n      pop\n      jump\t// out\n        /* \"#utility.yul\":18031:18211   */\n    tag_126:\n        /* \"#utility.yul\":18079:18156   */\n      0x4e487b7100000000000000000000000000000000000000000000000000000000\n        /* \"#utility.yul\":18076:18077   */\n      0x00\n        /* \"#utility.yul\":18069:18157   */\n      mstore\n        /* \"#utility.yul\":18176:18180   */\n      0x21\n        /* \"#utility.yul\":18173:18174   */\n      0x04\n        /* \"#utility.yul\":18166:18181   */\n      mstore\n        /* \"#utility.yul\":18200:18204   */\n      0x24\n        /* \"#utility.yul\":18197:18198   */\n      0x00\n        /* \"#utility.yul\":18190:18205   */\n      revert\n        /* \"#utility.yul\":18217:18306   */\n    tag_341:\n        /* \"#utility.yul\":18253:18260   */\n      0x00\n        /* \"#utility.yul\":18293:18299   */\n      0xffff\n        /* \"#utility.yul\":18286:18291   */\n      dup3\n        /* \"#utility.yul\":18282:18300   */\n      and\n        /* \"#utility.yul\":18271:18300   */\n      swap1\n      pop\n        /* \"#utility.yul\":18217:18306   */\n      swap2\n      swap1\n      pop\n      jump\t// out\n        /* \"#utility.yul\":18312:18427   */\n    tag_342:\n        /* \"#utility.yul\":18397:18420   */\n      tag_557\n        /* \"#utility.yul\":18414:18419   */\n      dup2\n        /* \"#utility.yul\":18397:18420   */\n      tag_341\n      jump\t// in\n    tag_557:\n        /* \"#utility.yul\":18392:18395   */\n      dup3\n        /* \"#utility.yul\":18385:18421   */\n      mstore\n        /* \"#utility.yul\":18312:18427   */\n      pop\n      pop\n      jump\t// out\n        /* \"#utility.yul\":18433:18526   */\n    tag_343:\n        /* \"#utility.yul\":18469:18476   */\n      0x00\n        /* \"#utility.yul\":18509:18519   */\n      0xffffffff\n        /* \"#utility.yul\":18502:18507   */\n      dup3\n        /* \"#utility.yul\":18498:18520   */\n      and\n        /* \"#utility.yul\":18487:18520   */\n      swap1\n      pop\n        /* \"#utility.yul\":18433:18526   */\n      swap2\n      swap1\n      pop\n      jump\t// out\n        /* \"#utility.yul\":18532:18647   */\n    tag_344:\n        /* \"#utility.yul\":18617:18640   */\n      tag_560\n        /* \"#utility.yul\":18634:18639   */\n      dup2\n        /* \"#utility.yul\":18617:18640   */\n      tag_343\n      jump\t// in\n    tag_560:\n        /* \"#utility.yul\":18612:18615   */\n      dup3\n        /* \"#utility.yul\":18605:18641   */\n      mstore\n        /* \"#utility.yul\":18532:18647   */\n      pop\n      pop\n      jump\t// out\n        /* \"#utility.yul\":18653:19392   */\n    tag_171:\n        /* \"#utility.yul\":18870:18874   */\n      0x00\n        /* \"#utility.yul\":18908:18911   */\n      0xa0\n        /* \"#utility.yul\":18897:18906   */\n      dup3\n        /* \"#utility.yul\":18893:18912   */\n      add\n        /* \"#utility.yul\":18885:18912   */\n      swap1\n      pop\n        /* \"#utility.yul\":18922:18991   */\n      tag_562\n        /* \"#utility.yul\":18988:18989   */\n      0x00\n        /* \"#utility.yul\":18977:18986   */\n      dup4\n        /* \"#utility.yul\":18973:18990   */\n      add\n        /* \"#utility.yul\":18964:18970   */\n      dup9\n        /* \"#utility.yul\":18922:18991   */\n      tag_315\n      jump\t// in\n    tag_562:\n        /* \"#utility.yul\":19038:19047   */\n      dup2\n        /* \"#utility.yul\":19032:19036   */\n      dup2\n        /* \"#utility.yul\":19028:19048   */\n      sub\n        /* \"#utility.yul\":19023:19025   */\n      0x20\n        /* \"#utility.yul\":19012:19021   */\n      dup4\n        /* \"#utility.yul\":19008:19026   */\n      add\n        /* \"#utility.yul\":19001:19049   */\n      mstore\n        /* \"#utility.yul\":19066:19142   */\n      tag_563\n        /* \"#utility.yul\":19137:19141   */\n      dup2\n        /* \"#utility.yul\":19128:19134   */\n      dup8\n        /* \"#utility.yul\":19066:19142   */\n      tag_310\n      jump\t// in\n    tag_563:\n        /* \"#utility.yul\":19058:19142   */\n      swap1\n      pop\n        /* \"#utility.yul\":19152:19222   */\n      tag_564\n        /* \"#utility.yul\":19218:19220   */\n      0x40\n        /* \"#utility.yul\":19207:19216   */\n      dup4\n        /* \"#utility.yul\":19203:19221   */\n      add\n        /* \"#utility.yul\":19194:19200   */\n      dup7\n        /* \"#utility.yul\":19152:19222   */\n      tag_342\n      jump\t// in\n    tag_564:\n        /* \"#utility.yul\":19232:19302   */\n      tag_565\n        /* \"#utility.yul\":19298:19300   */\n      0x60\n        /* \"#utility.yul\":19287:19296   */\n      dup4\n        /* \"#utility.yul\":19283:19301   */\n      add\n        /* \"#utility.yul\":19274:19280   */\n      dup6\n        /* \"#utility.yul\":19232:19302   */\n      tag_344\n      jump\t// in\n    tag_565:\n        /* \"#utility.yul\":19312:19385   */\n      tag_566\n        /* \"#utility.yul\":19380:19383   */\n      0x80\n        /* \"#utility.yul\":19369:19378   */\n      dup4\n        /* \"#utility.yul\":19365:19384   */\n      add\n        /* \"#utility.yul\":19356:19362   */\n      dup5\n        /* \"#utility.yul\":19312:19385   */\n      tag_319\n      jump\t// in\n    tag_566:\n        /* \"#utility.yul\":18653:19392   */\n      swap7\n      swap6\n      pop\n      pop\n      pop\n      pop\n      pop\n      pop\n      jump\t// out\n        /* \"#utility.yul\":19398:19541   */\n    tag_345:\n        /* \"#utility.yul\":19455:19460   */\n      0x00\n        /* \"#utility.yul\":19486:19492   */\n      dup2\n        /* \"#utility.yul\":19480:19493   */\n      mload\n        /* \"#utility.yul\":19471:19493   */\n      swap1\n      pop\n        /* \"#utility.yul\":19502:19535   */\n      tag_568\n        /* \"#utility.yul\":19529:19534   */\n      dup2\n        /* \"#utility.yul\":19502:19535   */\n      tag_296\n      jump\t// in\n    tag_568:\n        /* \"#utility.yul\":19398:19541   */\n      swap3\n      swap2\n      pop\n      pop\n      jump\t// out\n        /* \"#utility.yul\":19547:19898   */\n    tag_175:\n        /* \"#utility.yul\":19617:19623   */\n      0x00\n        /* \"#utility.yul\":19666:19668   */\n      0x20\n        /* \"#utility.yul\":19654:19663   */\n      dup3\n        /* \"#utility.yul\":19645:19652   */\n      dup5\n        /* \"#utility.yul\":19641:19664   */\n      sub\n        /* \"#utility.yul\":19637:19669   */\n      slt\n        /* \"#utility.yul\":19634:19753   */\n      iszero\n      tag_570\n      jumpi\n        /* \"#utility.yul\":19672:19751   */\n      tag_571\n      tag_293\n      jump\t// in\n    tag_571:\n        /* \"#utility.yul\":19634:19753   */\n    tag_570:\n        /* \"#utility.yul\":19792:19793   */\n      0x00\n        /* \"#utility.yul\":19817:19881   */\n      tag_572\n        /* \"#utility.yul\":19873:19880   */\n      dup5\n        /* \"#utility.yul\":19864:19870   */\n      dup3\n        /* \"#utility.yul\":19853:19862   */\n      dup6\n        /* \"#utility.yul\":19849:19871   */\n      add\n        /* \"#utility.yul\":19817:19881   */\n      tag_345\n      jump\t// in\n    tag_572:\n        /* \"#utility.yul\":19807:19881   */\n      swap2\n      pop\n        /* \"#utility.yul\":19763:19891   */\n      pop\n        /* \"#utility.yul\":19547:19898   */\n      swap3\n      swap2\n      pop\n      pop\n      jump\t// out\n        /* \"#utility.yul\":19904:20022   */\n    tag_346:\n        /* \"#utility.yul\":19991:20015   */\n      tag_574\n        /* \"#utility.yul\":20009:20014   */\n      dup2\n        /* \"#utility.yul\":19991:20015   */\n      tag_325\n      jump\t// in\n    tag_574:\n        /* \"#utility.yul\":19986:19989   */\n      dup3\n        /* \"#utility.yul\":19979:20016   */\n      mstore\n        /* \"#utility.yul\":19904:20022   */\n      pop\n      pop\n      jump\t// out\n        /* \"#utility.yul\":20028:20250   */\n    tag_201:\n        /* \"#utility.yul\":20121:20125   */\n      0x00\n        /* \"#utility.yul\":20159:20161   */\n      0x20\n        /* \"#utility.yul\":20148:20157   */\n      dup3\n        /* \"#utility.yul\":20144:20162   */\n      add\n        /* \"#utility.yul\":20136:20162   */\n      swap1\n      pop\n        /* \"#utility.yul\":20172:20243   */\n      tag_576\n        /* \"#utility.yul\":20240:20241   */\n      0x00\n        /* \"#utility.yul\":20229:20238   */\n      dup4\n        /* \"#utility.yul\":20225:20242   */\n      add\n        /* \"#utility.yul\":20216:20222   */\n      dup5\n        /* \"#utility.yul\":20172:20243   */\n      tag_346\n      jump\t// in\n    tag_576:\n        /* \"#utility.yul\":20028:20250   */\n      swap3\n      swap2\n      pop\n      pop\n      jump\t// out\n        /* \"#utility.yul\":20256:20436   */\n    tag_347:\n        /* \"#utility.yul\":20304:20381   */\n      0x4e487b7100000000000000000000000000000000000000000000000000000000\n        /* \"#utility.yul\":20301:20302   */\n      0x00\n        /* \"#utility.yul\":20294:20382   */\n      mstore\n        /* \"#utility.yul\":20401:20405   */\n      0x11\n        /* \"#utility.yul\":20398:20399   */\n      0x04\n        /* \"#utility.yul\":20391:20406   */\n      mstore\n        /* \"#utility.yul\":20425:20429   */\n      0x24\n        /* \"#utility.yul\":20422:20423   */\n      0x00\n        /* \"#utility.yul\":20415:20430   */\n      revert\n        /* \"#utility.yul\":20442:20633   */\n    tag_206:\n        /* \"#utility.yul\":20482:20485   */\n      0x00\n        /* \"#utility.yul\":20501:20521   */\n      tag_579\n        /* \"#utility.yul\":20519:20520   */\n      dup3\n        /* \"#utility.yul\":20501:20521   */\n      tag_325\n      jump\t// in\n    tag_579:\n        /* \"#utility.yul\":20496:20521   */\n      swap2\n      pop\n        /* \"#utility.yul\":20535:20555   */\n      tag_580\n        /* \"#utility.yul\":20553:20554   */\n      dup4\n        /* \"#utility.yul\":20535:20555   */\n      tag_325\n      jump\t// in\n    tag_580:\n        /* \"#utility.yul\":20530:20555   */\n      swap3\n      pop\n        /* \"#utility.yul\":20578:20579   */\n      dup3\n        /* \"#utility.yul\":20575:20576   */\n      dup3\n        /* \"#utility.yul\":20571:20580   */\n      add\n        /* \"#utility.yul\":20564:20580   */\n      swap1\n      pop\n        /* \"#utility.yul\":20599:20602   */\n      dup1\n        /* \"#utility.yul\":20596:20597   */\n      dup3\n        /* \"#utility.yul\":20593:20603   */\n      gt\n        /* \"#utility.yul\":20590:20626   */\n      iszero\n      tag_581\n      jumpi\n        /* \"#utility.yul\":20606:20624   */\n      tag_582\n      tag_347\n      jump\t// in\n    tag_582:\n        /* \"#utility.yul\":20590:20626   */\n    tag_581:\n        /* \"#utility.yul\":20442:20633   */\n      swap3\n      swap2\n      pop\n      pop\n      jump\t// out\n        /* \"#utility.yul\":20639:20833   */\n    tag_210:\n        /* \"#utility.yul\":20679:20683   */\n      0x00\n        /* \"#utility.yul\":20699:20719   */\n      tag_584\n        /* \"#utility.yul\":20717:20718   */\n      dup3\n        /* \"#utility.yul\":20699:20719   */\n      tag_325\n      jump\t// in\n    tag_584:\n        /* \"#utility.yul\":20694:20719   */\n      swap2\n      pop\n        /* \"#utility.yul\":20733:20753   */\n      tag_585\n        /* \"#utility.yul\":20751:20752   */\n      dup4\n        /* \"#utility.yul\":20733:20753   */\n      tag_325\n      jump\t// in\n    tag_585:\n        /* \"#utility.yul\":20728:20753   */\n      swap3\n      pop\n        /* \"#utility.yul\":20777:20778   */\n      dup3\n        /* \"#utility.yul\":20774:20775   */\n      dup3\n        /* \"#utility.yul\":20770:20779   */\n      sub\n        /* \"#utility.yul\":20762:20779   */\n      swap1\n      pop\n        /* \"#utility.yul\":20801:20802   */\n      dup2\n        /* \"#utility.yul\":20795:20799   */\n      dup2\n        /* \"#utility.yul\":20792:20803   */\n      gt\n        /* \"#utility.yul\":20789:20826   */\n      iszero\n      tag_586\n      jumpi\n        /* \"#utility.yul\":20806:20824   */\n      tag_587\n      tag_347\n      jump\t// in\n    tag_587:\n        /* \"#utility.yul\":20789:20826   */\n    tag_586:\n        /* \"#utility.yul\":20639:20833   */\n      swap3\n      swap2\n      pop\n      pop\n      jump\t// out\n        /* \"#utility.yul\":20839:21019   */\n    tag_348:\n        /* \"#utility.yul\":20887:20964   */\n      0x4e487b7100000000000000000000000000000000000000000000000000000000\n        /* \"#utility.yul\":20884:20885   */\n      0x00\n        /* \"#utility.yul\":20877:20965   */\n      mstore\n        /* \"#utility.yul\":20984:20988   */\n      0x12\n        /* \"#utility.yul\":20981:20982   */\n      0x04\n        /* \"#utility.yul\":20974:20989   */\n      mstore\n        /* \"#utility.yul\":21008:21012   */\n      0x24\n        /* \"#utility.yul\":21005:21006   */\n      0x00\n        /* \"#utility.yul\":20998:21013   */\n      revert\n        /* \"#utility.yul\":21025:21201   */\n    tag_218:\n        /* \"#utility.yul\":21057:21058   */\n      0x00\n        /* \"#utility.yul\":21074:21094   */\n      tag_590\n        /* \"#utility.yul\":21092:21093   */\n      dup3\n        /* \"#utility.yul\":21074:21094   */\n      tag_325\n      jump\t// in\n    tag_590:\n        /* \"#utility.yul\":21069:21094   */\n      swap2\n      pop\n        /* \"#utility.yul\":21108:21128   */\n      tag_591\n        /* \"#utility.yul\":21126:21127   */\n      dup4\n        /* \"#utility.yul\":21108:21128   */\n      tag_325\n      jump\t// in\n    tag_591:\n        /* \"#utility.yul\":21103:21128   */\n      swap3\n      pop\n        /* \"#utility.yul\":21147:21148   */\n      dup3\n        /* \"#utility.yul\":21137:21172   */\n      tag_592\n      jumpi\n        /* \"#utility.yul\":21152:21170   */\n      tag_593\n      tag_348\n      jump\t// in\n    tag_593:\n        /* \"#utility.yul\":21137:21172   */\n    tag_592:\n        /* \"#utility.yul\":21193:21194   */\n      dup3\n        /* \"#utility.yul\":21190:21191   */\n      dup3\n        /* \"#utility.yul\":21186:21195   */\n      mod\n        /* \"#utility.yul\":21181:21195   */\n      swap1\n      pop\n        /* \"#utility.yul\":21025:21201   */\n      swap3\n      swap2\n      pop\n      pop\n      jump\t// out\n        /* \"#utility.yul\":21207:21617   */\n    tag_253:\n        /* \"#utility.yul\":21247:21254   */\n      0x00\n        /* \"#utility.yul\":21270:21290   */\n      tag_595\n        /* \"#utility.yul\":21288:21289   */\n      dup3\n        /* \"#utility.yul\":21270:21290   */\n      tag_325\n      jump\t// in\n    tag_595:\n        /* \"#utility.yul\":21265:21290   */\n      swap2\n      pop\n        /* \"#utility.yul\":21304:21324   */\n      tag_596\n        /* \"#utility.yul\":21322:21323   */\n      dup4\n        /* \"#utility.yul\":21304:21324   */\n      tag_325\n      jump\t// in\n    tag_596:\n        /* \"#utility.yul\":21299:21324   */\n      swap3\n      pop\n        /* \"#utility.yul\":21359:21360   */\n      dup3\n        /* \"#utility.yul\":21356:21357   */\n      dup3\n        /* \"#utility.yul\":21352:21361   */\n      mul\n        /* \"#utility.yul\":21381:21411   */\n      tag_597\n        /* \"#utility.yul\":21399:21410   */\n      dup2\n        /* \"#utility.yul\":21381:21411   */\n      tag_325\n      jump\t// in\n    tag_597:\n        /* \"#utility.yul\":21370:21411   */\n      swap2\n      pop\n        /* \"#utility.yul\":21560:21561   */\n      dup3\n        /* \"#utility.yul\":21551:21558   */\n      dup3\n        /* \"#utility.yul\":21547:21562   */\n      div\n        /* \"#utility.yul\":21544:21545   */\n      dup5\n        /* \"#utility.yul\":21541:21563   */\n      eq\n        /* \"#utility.yul\":21521:21522   */\n      dup4\n        /* \"#utility.yul\":21514:21523   */\n      iszero\n        /* \"#utility.yul\":21494:21577   */\n      or\n        /* \"#utility.yul\":21471:21610   */\n      tag_598\n      jumpi\n        /* \"#utility.yul\":21590:21608   */\n      tag_599\n      tag_347\n      jump\t// in\n    tag_599:\n        /* \"#utility.yul\":21471:21610   */\n    tag_598:\n        /* \"#utility.yul\":21255:21617   */\n      pop\n        /* \"#utility.yul\":21207:21617   */\n      swap3\n      swap2\n      pop\n      pop\n      jump\t// out\n        /* \"#utility.yul\":21623:21725   */\n    tag_349:\n        /* \"#utility.yul\":21665:21673   */\n      0x00\n        /* \"#utility.yul\":21712:21717   */\n      dup2\n        /* \"#utility.yul\":21709:21710   */\n      0x01\n        /* \"#utility.yul\":21705:21718   */\n      shr\n        /* \"#utility.yul\":21684:21718   */\n      swap1\n      pop\n        /* \"#utility.yul\":21623:21725   */\n      swap2\n      swap1\n      pop\n      jump\t// out\n        /* \"#utility.yul\":21731:22579   */\n    tag_350:\n        /* \"#utility.yul\":21792:21797   */\n      0x00\n        /* \"#utility.yul\":21799:21803   */\n      0x00\n        /* \"#utility.yul\":21823:21829   */\n      dup3\n        /* \"#utility.yul\":21814:21829   */\n      swap2\n      pop\n        /* \"#utility.yul\":21847:21852   */\n      dup4\n        /* \"#utility.yul\":21838:21852   */\n      swap1\n      pop\n        /* \"#utility.yul\":21861:22573   */\n    tag_602:\n        /* \"#utility.yul\":21882:21883   */\n      0x01\n        /* \"#utility.yul\":21872:21880   */\n      dup6\n        /* \"#utility.yul\":21869:21884   */\n      gt\n        /* \"#utility.yul\":21861:22573   */\n      iszero\n      tag_604\n      jumpi\n        /* \"#utility.yul\":21977:21981   */\n      dup1\n        /* \"#utility.yul\":21972:21975   */\n      dup7\n        /* \"#utility.yul\":21968:21982   */\n      div\n        /* \"#utility.yul\":21962:21966   */\n      dup2\n        /* \"#utility.yul\":21959:21983   */\n      gt\n        /* \"#utility.yul\":21956:22006   */\n      iszero\n      tag_605\n      jumpi\n        /* \"#utility.yul\":21986:22004   */\n      tag_606\n      tag_347\n      jump\t// in\n    tag_606:\n        /* \"#utility.yul\":21956:22006   */\n    tag_605:\n        /* \"#utility.yul\":22036:22037   */\n      0x01\n        /* \"#utility.yul\":22026:22034   */\n      dup6\n        /* \"#utility.yul\":22022:22038   */\n      and\n        /* \"#utility.yul\":22019:22470   */\n      iszero\n      tag_607\n      jumpi\n        /* \"#utility.yul\":22451:22455   */\n      dup1\n        /* \"#utility.yul\":22444:22449   */\n      dup3\n        /* \"#utility.yul\":22440:22456   */\n      mul\n        /* \"#utility.yul\":22431:22456   */\n      swap2\n      pop\n        /* \"#utility.yul\":22019:22470   */\n    tag_607:\n        /* \"#utility.yul\":22501:22505   */\n      dup1\n        /* \"#utility.yul\":22495:22499   */\n      dup2\n        /* \"#utility.yul\":22491:22506   */\n      mul\n        /* \"#utility.yul\":22483:22506   */\n      swap1\n      pop\n        /* \"#utility.yul\":22531:22563   */\n      tag_608\n        /* \"#utility.yul\":22554:22562   */\n      dup6\n        /* \"#utility.yul\":22531:22563   */\n      tag_349\n      jump\t// in\n    tag_608:\n        /* \"#utility.yul\":22519:22563   */\n      swap5\n      pop\n        /* \"#utility.yul\":21861:22573   */\n      jump(tag_602)\n    tag_604:\n        /* \"#utility.yul\":21731:22579   */\n      swap5\n      pop\n      swap5\n      swap3\n      pop\n      pop\n      pop\n      jump\t// out\n        /* \"#utility.yul\":22585:23658   */\n    tag_351:\n        /* \"#utility.yul\":22639:22644   */\n      0x00\n        /* \"#utility.yul\":22830:22838   */\n      dup3\n        /* \"#utility.yul\":22820:22860   */\n      tag_610\n      jumpi\n        /* \"#utility.yul\":22851:22852   */\n      0x01\n        /* \"#utility.yul\":22842:22852   */\n      swap1\n      pop\n        /* \"#utility.yul\":22853:22858   */\n      jump(tag_609)\n        /* \"#utility.yul\":22820:22860   */\n    tag_610:\n        /* \"#utility.yul\":22879:22883   */\n      dup2\n        /* \"#utility.yul\":22869:22905   */\n      tag_611\n      jumpi\n        /* \"#utility.yul\":22896:22897   */\n      0x00\n        /* \"#utility.yul\":22887:22897   */\n      swap1\n      pop\n        /* \"#utility.yul\":22898:22903   */\n      jump(tag_609)\n        /* \"#utility.yul\":22869:22905   */\n    tag_611:\n        /* \"#utility.yul\":22965:22969   */\n      dup2\n        /* \"#utility.yul\":23013:23014   */\n      0x01\n        /* \"#utility.yul\":23008:23035   */\n      dup2\n      eq\n      tag_613\n      jumpi\n        /* \"#utility.yul\":23049:23050   */\n      0x02\n        /* \"#utility.yul\":23044:23235   */\n      dup2\n      eq\n      tag_614\n      jumpi\n        /* \"#utility.yul\":22958:23235   */\n      jump(tag_612)\n        /* \"#utility.yul\":23008:23035   */\n    tag_613:\n        /* \"#utility.yul\":23026:23027   */\n      0x01\n        /* \"#utility.yul\":23017:23027   */\n      swap2\n      pop\n        /* \"#utility.yul\":23028:23033   */\n      pop\n      jump(tag_609)\n        /* \"#utility.yul\":23044:23235   */\n    tag_614:\n        /* \"#utility.yul\":23089:23092   */\n      0xff\n        /* \"#utility.yul\":23079:23087   */\n      dup5\n        /* \"#utility.yul\":23076:23093   */\n      gt\n        /* \"#utility.yul\":23073:23116   */\n      iszero\n      tag_615\n      jumpi\n        /* \"#utility.yul\":23096:23114   */\n      tag_616\n      tag_347\n      jump\t// in\n    tag_616:\n        /* \"#utility.yul\":23073:23116   */\n    tag_615:\n        /* \"#utility.yul\":23145:23153   */\n      dup4\n        /* \"#utility.yul\":23142:23143   */\n      0x02\n        /* \"#utility.yul\":23138:23154   */\n      exp\n        /* \"#utility.yul\":23129:23154   */\n      swap2\n      pop\n        /* \"#utility.yul\":23180:23183   */\n      dup5\n        /* \"#utility.yul\":23173:23178   */\n      dup3\n        /* \"#utility.yul\":23170:23184   */\n      gt\n        /* \"#utility.yul\":23167:23207   */\n      iszero\n      tag_617\n      jumpi\n        /* \"#utility.yul\":23187:23205   */\n      tag_618\n      tag_347\n      jump\t// in\n    tag_618:\n        /* \"#utility.yul\":23167:23207   */\n    tag_617:\n        /* \"#utility.yul\":23220:23225   */\n      pop\n      jump(tag_609)\n        /* \"#utility.yul\":22958:23235   */\n    tag_612:\n      pop\n        /* \"#utility.yul\":23344:23346   */\n      0x20\n        /* \"#utility.yul\":23334:23342   */\n      dup4\n        /* \"#utility.yul\":23331:23347   */\n      lt\n        /* \"#utility.yul\":23325:23328   */\n      0x0133\n        /* \"#utility.yul\":23319:23323   */\n      dup4\n        /* \"#utility.yul\":23316:23329   */\n      lt\n        /* \"#utility.yul\":23312:23348   */\n      and\n        /* \"#utility.yul\":23294:23296   */\n      0x4e\n        /* \"#utility.yul\":23284:23292   */\n      dup5\n        /* \"#utility.yul\":23281:23297   */\n      lt\n        /* \"#utility.yul\":23276:23278   */\n      0x0b\n        /* \"#utility.yul\":23270:23274   */\n      dup5\n        /* \"#utility.yul\":23267:23279   */\n      lt\n        /* \"#utility.yul\":23263:23298   */\n      and\n        /* \"#utility.yul\":23247:23358   */\n      or\n        /* \"#utility.yul\":23244:23490   */\n      iszero\n      tag_619\n      jumpi\n        /* \"#utility.yul\":23400:23408   */\n      dup3\n        /* \"#utility.yul\":23394:23398   */\n      dup3\n        /* \"#utility.yul\":23390:23409   */\n      exp\n        /* \"#utility.yul\":23381:23409   */\n      swap1\n      pop\n        /* \"#utility.yul\":23435:23438   */\n      dup4\n        /* \"#utility.yul\":23428:23433   */\n      dup2\n        /* \"#utility.yul\":23425:23439   */\n      gt\n        /* \"#utility.yul\":23422:23462   */\n      iszero\n      tag_620\n      jumpi\n        /* \"#utility.yul\":23442:23460   */\n      tag_621\n      tag_347\n      jump\t// in\n    tag_621:\n        /* \"#utility.yul\":23422:23462   */\n    tag_620:\n        /* \"#utility.yul\":23475:23480   */\n      jump(tag_609)\n        /* \"#utility.yul\":23244:23490   */\n    tag_619:\n        /* \"#utility.yul\":23515:23557   */\n      tag_622\n        /* \"#utility.yul\":23553:23556   */\n      dup5\n        /* \"#utility.yul\":23543:23551   */\n      dup5\n        /* \"#utility.yul\":23537:23541   */\n      dup5\n        /* \"#utility.yul\":23534:23535   */\n      0x01\n        /* \"#utility.yul\":23515:23557   */\n      tag_350\n      jump\t// in\n    tag_622:\n        /* \"#utility.yul\":23500:23557   */\n      swap3\n      pop\n      swap1\n      pop\n        /* \"#utility.yul\":23589:23593   */\n      dup2\n        /* \"#utility.yul\":23584:23587   */\n      dup5\n        /* \"#utility.yul\":23580:23594   */\n      div\n        /* \"#utility.yul\":23573:23578   */\n      dup2\n        /* \"#utility.yul\":23570:23595   */\n      gt\n        /* \"#utility.yul\":23567:23618   */\n      iszero\n      tag_623\n      jumpi\n        /* \"#utility.yul\":23598:23616   */\n      tag_624\n      tag_347\n      jump\t// in\n    tag_624:\n        /* \"#utility.yul\":23567:23618   */\n    tag_623:\n        /* \"#utility.yul\":23647:23651   */\n      dup2\n        /* \"#utility.yul\":23640:23645   */\n      dup2\n        /* \"#utility.yul\":23636:23652   */\n      mul\n        /* \"#utility.yul\":23627:23652   */\n      swap1\n      pop\n        /* \"#utility.yul\":22585:23658   */\n    tag_609:\n      swap4\n      swap3\n      pop\n      pop\n      pop\n      jump\t// out\n        /* \"#utility.yul\":23664:23949   */\n    tag_265:\n        /* \"#utility.yul\":23724:23729   */\n      0x00\n        /* \"#utility.yul\":23748:23771   */\n      tag_626\n        /* \"#utility.yul\":23766:23770   */\n      dup3\n        /* \"#utility.yul\":23748:23771   */\n      tag_325\n      jump\t// in\n    tag_626:\n        /* \"#utility.yul\":23740:23771   */\n      swap2\n      pop\n        /* \"#utility.yul\":23792:23819   */\n      tag_627\n        /* \"#utility.yul\":23810:23818   */\n      dup4\n        /* \"#utility.yul\":23792:23819   */\n      tag_325\n      jump\t// in\n    tag_627:\n        /* \"#utility.yul\":23780:23819   */\n      swap3\n      pop\n        /* \"#utility.yul\":23838:23942   */\n      tag_628\n        /* \"#utility.yul\":23875:23941   */\n      0xffffffffffffffffffffffffffffffffffffffffffffffffffffffffffffffff\n        /* \"#utility.yul\":23865:23873   */\n      dup5\n        /* \"#utility.yul\":23859:23863   */\n      dup5\n        /* \"#utility.yul\":23838:23942   */\n      tag_351\n      jump\t// in\n    tag_628:\n        /* \"#utility.yul\":23829:23942   */\n      swap1\n      pop\n        /* \"#utility.yul\":23664:23949   */\n      swap3\n      swap2\n      pop\n      pop\n      jump\t// out\n\n    auxdata: 0xa2646970667358221220d34e52d2b2180eb8b74e8dea3c305e4a2dd68e08e5d001ada40ad59749035f1564736f6c634300081b0033\n}\n",
				"bytecode": {
					"linkReferences": {},
					"object": "60a06040527f66756e2d6176616c616e6368652d66756a692d310000000000000000000000005f1b600355620493e060045f6101000a81548163ffffffff021916908363ffffffff16021790555060405180610140016040528061010181526020016125ed610101913960059081610077919061035a565b50348015610083575f5ffd5b506040516126ee3803806126ee83398181016040528101906100a5919061046a565b73a9d587a00a31a52ed70d6026794a8fc5e2f5dcb08073ffffffffffffffffffffffffffffffffffffffff1660808173ffffffffffffffffffffffffffffffffffffffff168152505050806004806101000a81548167ffffffffffffffff021916908367ffffffffffffffff16021790555050610495565b5f81519050919050565b7f4e487b71000000000000000000000000000000000000000000000000000000005f52604160045260245ffd5b7f4e487b71000000000000000000000000000000000000000000000000000000005f52602260045260245ffd5b5f600282049050600182168061019857607f821691505b6020821081036101ab576101aa610154565b5b50919050565b5f819050815f5260205f209050919050565b5f6020601f8301049050919050565b5f82821b905092915050565b5f6008830261020d7fffffffffffffffffffffffffffffffffffffffffffffffffffffffffffffffff826101d2565b61021786836101d2565b95508019841693508086168417925050509392505050565b5f819050919050565b5f819050919050565b5f61025b6102566102518461022f565b610238565b61022f565b9050919050565b5f819050919050565b61027483610241565b61028861028082610262565b8484546101de565b825550505050565b5f5f905090565b61029f610290565b6102aa81848461026b565b505050565b5b818110156102cd576102c25f82610297565b6001810190506102b0565b5050565b601f821115610312576102e3816101b1565b6102ec846101c3565b810160208510156102fb578190505b61030f610307856101c3565b8301826102af565b50505b505050565b5f82821c905092915050565b5f6103325f1984600802610317565b1980831691505092915050565b5f61034a8383610323565b9150826002028217905092915050565b6103638261011d565b67ffffffffffffffff81111561037c5761037b610127565b5b6103868254610181565b6103918282856102d1565b5f60209050601f8311600181146103c2575f84156103b0578287015190505b6103ba858261033f565b865550610421565b601f1984166103d0866101b1565b5f5b828110156103f7578489015182556001820191506020850194506020810190506103d2565b868310156104145784890151610410601f891682610323565b8355505b6001600288020188555050505b505050505050565b5f5ffd5b5f67ffffffffffffffff82169050919050565b6104498161042d565b8114610453575f5ffd5b50565b5f8151905061046481610440565b92915050565b5f6020828403121561047f5761047e610429565b5b5f61048c84828501610456565b91505092915050565b6080516121396104b45f395f81816101b50152610bfa01526121395ff3fe608060405234801561000f575f5ffd5b5060043610610091575f3560e01c80638ac00021116100645780638ac000211461010b57806394d02941146101295780639fb5177114610159578063b1e2174914610177578063cd2b8d111461019557610091565b80630ca76175146100955780633944ea3a146100b15780634b0795a8146100cf57806367e828bf146100ed575b5f5ffd5b6100af60048036038101906100aa91906114fc565b6101b3565b005b6100b9610275565b6040516100c691906115e4565b60405180910390f35b6100d7610301565b6040516100e491906115e4565b60405180910390f35b6100f561038d565b6040516101029190611656565b60405180910390f35b610113610419565b6040516101209190611698565b60405180910390f35b610143600480360381019061013e919061174f565b610431565b60405161015091906117a5565b60405180910390f35b6101616105be565b60405161016e9190611656565b60405180910390f35b61017f61064a565b60405161018c91906117a5565b60405180910390f35b61019d61064f565b6040516101aa9190611656565b60405180910390f35b7f000000000000000000000000000000000000000000000000000000000000000073ffffffffffffffffffffffffffffffffffffffff163373ffffffffffffffffffffffffffffffffffffffff1614610238576040517fc6829f8300000000000000000000000000000000000000000000000000000000815260040160405180910390fd5b6102438383836106db565b827f85e1543bf2f84fe80c6badbce3648c8539ad1df4d2b3d822938ca0538be727e660405160405180910390a2505050565b60018054610282906117eb565b80601f01602080910402602001604051908101604052809291908181526020018280546102ae906117eb565b80156102f95780601f106102d0576101008083540402835291602001916102f9565b820191905f5260205f20905b8154815290600101906020018083116102dc57829003601f168201915b505050505081565b6002805461030e906117eb565b80601f016020809104026020016040519081016040528092919081815260200182805461033a906117eb565b80156103855780601f1061035c57610100808354040283529160200191610385565b820191905f5260205f20905b81548152906001019060200180831161036857829003601f168201915b505050505081565b6005805461039a906117eb565b80601f01602080910402602001604051908101604052809291908181526020018280546103c6906117eb565b80156104115780601f106103e857610100808354040283529160200191610411565b820191905f5260205f20905b8154815290600101906020018083116103f457829003601f168201915b505050505081565b60048054906101000a900467ffffffffffffffff1681565b5f5f600167ffffffffffffffff81111561044e5761044d6113d8565b5b60405190808252806020026020018201604052801561048157816020015b606081526020019060019003908161046c5790505b50905082815f815181106104985761049761181b565b5b60200260200101819052506104ab6112d5565b610546600580546104bb906117eb565b80601f01602080910402602001604051908101604052809291908181526020018280546104e7906117eb565b80156105325780601f1061050957610100808354040283529160200191610532565b820191905f5260205f20905b81548152906001019060200180831161051557829003601f168201915b50505050508261079490919063ffffffff16565b5f825111156105635761056282826107a490919063ffffffff16565b5b61059e61056f826107eb565b60048054906101000a900467ffffffffffffffff1660045f9054906101000a900463ffffffff16600354610bf6565b5f8190555083600690816105b291906119f1565b505f5492505050919050565b600780546105cb906117eb565b80601f01602080910402602001604051908101604052809291908181526020018280546105f7906117eb565b80156106425780601f1061061957610100808354040283529160200191610642565b820191905f5260205f20905b81548152906001019060200180831161062557829003601f168201915b505050505081565b5f5481565b6006805461065c906117eb565b80601f0160208091040260200160405190810160405280929190818152602001828054610688906117eb565b80156106d35780601f106106aa576101008083540402835291602001916106d3565b820191905f5260205f20905b8154815290600101906020018083116106b657829003601f168201915b505050505081565b825f541461072057826040517fd068bf5b00000000000000000000000000000000000000000000000000000000815260040161071791906117a5565b60405180910390fd5b806002908161072f9190611b18565b50816001908161073f9190611b18565b50816007908161074f91906119f1565b50827f160ed0aaffbef6885155188b91459cb5a97d5daadccf7561d8c46deea6641b5060076001600260405161078793929190611ce9565b60405180910390a2505050565b6107a0825f5f84610cd5565b5050565b5f8151036107de576040517ffe936cb700000000000000000000000000000000000000000000000000000000815260040160405180910390fd5b808260a001819052505050565b60605f6107f9610100610d7b565b90506108436040518060400160405280600c81526020017f636f64654c6f636174696f6e000000000000000000000000000000000000000081525082610da090919063ffffffff16565b61086b835f0151600281111561085c5761085b611d33565b5b82610dc890919063ffffffff16565b6108b36040518060400160405280600881526020017f6c616e677561676500000000000000000000000000000000000000000000000081525082610da090919063ffffffff16565b6108db83604001515f8111156108cc576108cb611d33565b5b82610dc890919063ffffffff16565b6109236040518060400160405280600681526020017f736f75726365000000000000000000000000000000000000000000000000000081525082610da090919063ffffffff16565b61093a836060015182610da090919063ffffffff16565b5f8360a001515111156109f15761098f6040518060400160405280600481526020017f617267730000000000000000000000000000000000000000000000000000000081525082610da090919063ffffffff16565b61099881610e17565b5f5f90505b8360a00151518110156109e6576109db8460a0015182815181106109c4576109c361181b565b5b602002602001015183610da090919063ffffffff16565b80600101905061099d565b506109f081610e3f565b5b5f8360800151511115610b30575f6002811115610a1157610a10611d33565b5b83602001516002811115610a2857610a27611d33565b5b03610a5f576040517fa80d31f700000000000000000000000000000000000000000000000000000000815260040160405180910390fd5b610aa76040518060400160405280600f81526020017f736563726574734c6f636174696f6e000000000000000000000000000000000081525082610da090919063ffffffff16565b610ad083602001516002811115610ac157610ac0611d33565b5b82610dc890919063ffffffff16565b610b186040518060400160405280600781526020017f736563726574730000000000000000000000000000000000000000000000000081525082610da090919063ffffffff16565b610b2f836080015182610e6790919063ffffffff16565b5b5f8360c00151511115610be757610b856040518060400160405280600981526020017f627974657341726773000000000000000000000000000000000000000000000081525082610da090919063ffffffff16565b610b8e81610e17565b5f5f90505b8360c0015151811015610bdc57610bd18460c001518281518110610bba57610bb961181b565b5b602002602001015183610e6790919063ffffffff16565b806001019050610b93565b50610be681610e3f565b5b805f01515f0151915050919050565b5f5f7f000000000000000000000000000000000000000000000000000000000000000073ffffffffffffffffffffffffffffffffffffffff1663461d27628688600188886040518663ffffffff1660e01b8152600401610c5a959493929190611d9a565b6020604051808303815f875af1158015610c76573d5f5f3e3d5ffd5b505050506040513d601f19601f82011682018060405250810190610c9a9190611e06565b9050807f1131472297a800fee664d1d89cfa8f7676ff07189ecc53f80bbb5f4969099db860405160405180910390a280915050949350505050565b5f815103610d0f576040517f22ce3edd00000000000000000000000000000000000000000000000000000000815260040160405180910390fd5b82845f01906002811115610d2657610d25611d33565b5b90816002811115610d3a57610d39611d33565b5b815250508184604001905f811115610d5557610d54611d33565b5b90815f811115610d6857610d67611d33565b5b8152505080846060018190525050505050565b610d83611344565b610d90815f015183610e8f565b505f816020018181525050919050565b610dad8260038351610f05565b610dc381835f01516110a590919063ffffffff16565b505050565b610de960026005600660ff16901b17835f01516110c190919063ffffffff16565b50610e138282604051602001610dff9190611e40565b604051602081830303815290604052610e67565b5050565b610e22816004611128565b600181602001818151610e359190611e86565b9150818152505050565b610e4a816007611128565b600181602001818151610e5d9190611eb9565b9150818152505050565b610e748260028351610f05565b610e8a81835f01516110a590919063ffffffff16565b505050565b610e97611363565b5f602083610ea59190611f19565b14610ed157602082610eb79190611f19565b6020610ec39190611eb9565b82610ece9190611e86565b91505b818360200181815250506040518084525f815282810160200181811015610ef6575f5ffd5b80604052505082905092915050565b60178167ffffffffffffffff1611610f3f57610f398160058460ff16901b60ff1617845f01516110c190919063ffffffff16565b506110a0565b60ff8167ffffffffffffffff1611610f9b57610f71601860058460ff16901b17845f01516110c190919063ffffffff16565b50610f958167ffffffffffffffff166001855f015161114d9092919063ffffffff16565b5061109f565b61ffff8167ffffffffffffffff1611610ff857610fce601960058460ff16901b17845f01516110c190919063ffffffff16565b50610ff28167ffffffffffffffff166002855f015161114d9092919063ffffffff16565b5061109e565b63ffffffff8167ffffffffffffffff16116110575761102d601a60058460ff16901b17845f01516110c190919063ffffffff16565b506110518167ffffffffffffffff166004855f015161114d9092919063ffffffff16565b5061109d565b611077601b60058460ff16901b17845f01516110c190919063ffffffff16565b5061109b8167ffffffffffffffff166008855f015161114d9092919063ffffffff16565b505b5b5b5b505050565b6110ad611363565b6110b9838384516111d6565b905092915050565b6110c9611363565b5f835f01515190505f6001826110df9190611e86565b90508460200151821061110357611102856002836110fd9190611f49565b6112b3565b5b8451602083820101858153815183111561111b578282525b5050849250505092915050565b611148601f60058360ff16901b17835f01516110c190919063ffffffff16565b505050565b611155611363565b5f845f01515190505f818461116a9190611e86565b9050856020015181111561118f5761118e866002836111899190611f49565b6112b3565b5b5f6001856101006111a091906120b9565b6111aa9190611eb9565b9050865182810187831982511617815281518411156111c7578382525b50508693505050509392505050565b6111de611363565b82518211156111eb575f5ffd5b5f845f01515190505f83826112009190611e86565b90508560200151811115611225576112248660028361121f9190611f49565b6112b3565b5b5f5f8751805185602083010193508085111561123f578482525b60208901925050505b6020861061128657805182526020826112619190611e86565b91506020816112709190611e86565b905060208661127f9190611eb9565b9550611248565b5f6001876020036101000a0390508019825116818451168181178552505050879450505050509392505050565b5f825f015190506112c48383610e8f565b506112cf83826110a5565b50505050565b6040518060e001604052805f60028111156112f3576112f2611d33565b5b81526020015f600281111561130b5761130a611d33565b5b81526020015f5f81111561132257611321611d33565b5b8152602001606081526020016060815260200160608152602001606081525090565b6040518060400160405280611357611363565b81526020015f81525090565b6040518060400160405280606081526020015f81525090565b5f604051905090565b5f5ffd5b5f5ffd5b5f819050919050565b61139f8161138d565b81146113a9575f5ffd5b50565b5f813590506113ba81611396565b92915050565b5f5ffd5b5f5ffd5b5f601f19601f8301169050919050565b7f4e487b71000000000000000000000000000000000000000000000000000000005f52604160045260245ffd5b61140e826113c8565b810181811067ffffffffffffffff8211171561142d5761142c6113d8565b5b80604052505050565b5f61143f61137c565b905061144b8282611405565b919050565b5f67ffffffffffffffff82111561146a576114696113d8565b5b611473826113c8565b9050602081019050919050565b828183375f83830152505050565b5f6114a061149b84611450565b611436565b9050828152602081018484840111156114bc576114bb6113c4565b5b6114c7848285611480565b509392505050565b5f82601f8301126114e3576114e26113c0565b5b81356114f384826020860161148e565b91505092915050565b5f5f5f6060848603121561151357611512611385565b5b5f611520868287016113ac565b935050602084013567ffffffffffffffff81111561154157611540611389565b5b61154d868287016114cf565b925050604084013567ffffffffffffffff81111561156e5761156d611389565b5b61157a868287016114cf565b9150509250925092565b5f81519050919050565b5f82825260208201905092915050565b8281835e5f83830152505050565b5f6115b682611584565b6115c0818561158e565b93506115d081856020860161159e565b6115d9816113c8565b840191505092915050565b5f6020820190508181035f8301526115fc81846115ac565b905092915050565b5f81519050919050565b5f82825260208201905092915050565b5f61162882611604565b611632818561160e565b935061164281856020860161159e565b61164b816113c8565b840191505092915050565b5f6020820190508181035f83015261166e818461161e565b905092915050565b5f67ffffffffffffffff82169050919050565b61169281611676565b82525050565b5f6020820190506116ab5f830184611689565b92915050565b5f67ffffffffffffffff8211156116cb576116ca6113d8565b5b6116d4826113c8565b9050602081019050919050565b5f6116f36116ee846116b1565b611436565b90508281526020810184848401111561170f5761170e6113c4565b5b61171a848285611480565b509392505050565b5f82601f830112611736576117356113c0565b5b81356117468482602086016116e1565b91505092915050565b5f6020828403121561176457611763611385565b5b5f82013567ffffffffffffffff81111561178157611780611389565b5b61178d84828501611722565b91505092915050565b61179f8161138d565b82525050565b5f6020820190506117b85f830184611796565b92915050565b7f4e487b71000000000000000000000000000000000000000000000000000000005f52602260045260245ffd5b5f600282049050600182168061180257607f821691505b602082108103611815576118146117be565b5b50919050565b7f4e487b71000000000000000000000000000000000000000000000000000000005f52603260045260245ffd5b5f819050815f5260205f209050919050565b5f6020601f8301049050919050565b5f82821b905092915050565b5f600883026118a47fffffffffffffffffffffffffffffffffffffffffffffffffffffffffffffffff82611869565b6118ae8683611869565b95508019841693508086168417925050509392505050565b5f819050919050565b5f819050919050565b5f6118f26118ed6118e8846118c6565b6118cf565b6118c6565b9050919050565b5f819050919050565b61190b836118d8565b61191f611917826118f9565b848454611875565b825550505050565b5f5f905090565b611936611927565b611941818484611902565b505050565b5b81811015611964576119595f8261192e565b600181019050611947565b5050565b601f8211156119a95761197a81611848565b6119838461185a565b81016020851015611992578190505b6119a661199e8561185a565b830182611946565b50505b505050565b5f82821c905092915050565b5f6119c95f19846008026119ae565b1980831691505092915050565b5f6119e183836119ba565b9150826002028217905092915050565b6119fa82611604565b67ffffffffffffffff811115611a1357611a126113d8565b5b611a1d82546117eb565b611a28828285611968565b5f60209050601f831160018114611a59575f8415611a47578287015190505b611a5185826119d6565b865550611ab8565b601f198416611a6786611848565b5f5b82811015611a8e57848901518255600182019150602085019450602081019050611a69565b86831015611aab5784890151611aa7601f8916826119ba565b8355505b6001600288020188555050505b505050505050565b5f819050815f5260205f209050919050565b601f821115611b1357611ae481611ac0565b611aed8461185a565b81016020851015611afc578190505b611b10611b088561185a565b830182611946565b50505b505050565b611b2182611584565b67ffffffffffffffff811115611b3a57611b396113d8565b5b611b4482546117eb565b611b4f828285611ad2565b5f60209050601f831160018114611b80575f8415611b6e578287015190505b611b7885826119d6565b865550611bdf565b601f198416611b8e86611ac0565b5f5b82811015611bb557848901518255600182019150602085019450602081019050611b90565b86831015611bd25784890151611bce601f8916826119ba565b8355505b6001600288020188555050505b505050505050565b5f8154611bf3816117eb565b611bfd818661160e565b9450600182165f8114611c175760018114611c2d57611c5f565b60ff198316865281151560200286019350611c5f565b611c3685611848565b5f5b83811015611c5757815481890152600182019150602081019050611c38565b808801955050505b50505092915050565b5f8154611c74816117eb565b611c7e818661158e565b9450600182165f8114611c985760018114611cae57611ce0565b60ff198316865281151560200286019350611ce0565b611cb785611ac0565b5f5b83811015611cd857815481890152600182019150602081019050611cb9565b808801955050505b50505092915050565b5f6060820190508181035f830152611d018186611be7565b90508181036020830152611d158185611c68565b90508181036040830152611d298184611c68565b9050949350505050565b7f4e487b71000000000000000000000000000000000000000000000000000000005f52602160045260245ffd5b5f61ffff82169050919050565b611d7681611d60565b82525050565b5f63ffffffff82169050919050565b611d9481611d7c565b82525050565b5f60a082019050611dad5f830188611689565b8181036020830152611dbf81876115ac565b9050611dce6040830186611d6d565b611ddb6060830185611d8b565b611de86080830184611796565b9695505050505050565b5f81519050611e0081611396565b92915050565b5f60208284031215611e1b57611e1a611385565b5b5f611e2884828501611df2565b91505092915050565b611e3a816118c6565b82525050565b5f602082019050611e535f830184611e31565b92915050565b7f4e487b71000000000000000000000000000000000000000000000000000000005f52601160045260245ffd5b5f611e90826118c6565b9150611e9b836118c6565b9250828201905080821115611eb357611eb2611e59565b5b92915050565b5f611ec3826118c6565b9150611ece836118c6565b9250828203905081811115611ee657611ee5611e59565b5b92915050565b7f4e487b71000000000000000000000000000000000000000000000000000000005f52601260045260245ffd5b5f611f23826118c6565b9150611f2e836118c6565b925082611f3e57611f3d611eec565b5b828206905092915050565b5f611f53826118c6565b9150611f5e836118c6565b9250828202611f6c816118c6565b91508282048414831517611f8357611f82611e59565b5b5092915050565b5f8160011c9050919050565b5f5f8291508390505b6001851115611fdf57808604811115611fbb57611fba611e59565b5b6001851615611fca5780820291505b8081029050611fd885611f8a565b9450611f9f565b94509492505050565b5f82611ff757600190506120b2565b81612004575f90506120b2565b816001811461201a576002811461202457612053565b60019150506120b2565b60ff84111561203657612035611e59565b5b8360020a91508482111561204d5761204c611e59565b5b506120b2565b5060208310610133831016604e8410600b84101617156120885782820a90508381111561208357612082611e59565b5b6120b2565b6120958484846001611f96565b925090508184048111156120ac576120ab611e59565b5b81810290505b9392505050565b5f6120c3826118c6565b91506120ce836118c6565b92506120fb7fffffffffffffffffffffffffffffffffffffffffffffffffffffffffffffffff8484611fe8565b90509291505056fea2646970667358221220d34e52d2b2180eb8b74e8dea3c305e4a2dd68e08e5d001ada40ad59749035f1564736f6c634300081b0033636f6e73742063697479203d20617267735b305d3b636f6e737420617069526573706f6e7365203d2061776169742046756e6374696f6e732e6d616b654874747052657175657374287b75726c3a206068747470733a2f2f777474722e696e2f247b636974797d3f666f726d61743d33602c726573706f6e7365547970653a202774657874277d293b69662028617069526573706f6e73652e6572726f7229207b7468726f77204572726f72282752657175657374206661696c656427293b7d636f6e7374207b2064617461207d203d20617069526573706f6e73653b72657475726e2046756e6374696f6e732e656e636f6465537472696e672864617461293b",
					"opcodes": "PUSH1 0xA0 PUSH1 0x40 MSTORE PUSH32 0x66756E2D6176616C616E6368652D66756A692D31000000000000000000000000 PUSH0 SHL PUSH1 0x3 SSTORE PUSH3 0x493E0 PUSH1 0x4 PUSH0 PUSH2 0x100 EXP DUP2 SLOAD DUP2 PUSH4 0xFFFFFFFF MUL NOT AND SWAP1 DUP4 PUSH4 0xFFFFFFFF AND MUL OR SWAP1 SSTORE POP PUSH1 0x40 MLOAD DUP1 PUSH2 0x140 ADD PUSH1 0x40 MSTORE DUP1 PUSH2 0x101 DUP2 MSTORE PUSH1 0x20 ADD PUSH2 0x25ED PUSH2 0x101 SWAP2 CODECOPY PUSH1 0x5 SWAP1 DUP2 PUSH2 0x77 SWAP2 SWAP1 PUSH2 0x35A JUMP JUMPDEST POP CALLVALUE DUP1 ISZERO PUSH2 0x83 JUMPI PUSH0 PUSH0 REVERT JUMPDEST POP PUSH1 0x40 MLOAD PUSH2 0x26EE CODESIZE SUB DUP1 PUSH2 0x26EE DUP4 CODECOPY DUP2 DUP2 ADD PUSH1 0x40 MSTORE DUP2 ADD SWAP1 PUSH2 0xA5 SWAP2 SWAP1 PUSH2 0x46A JUMP JUMPDEST PUSH20 0xA9D587A00A31A52ED70D6026794A8FC5E2F5DCB0 DUP1 PUSH20 0xFFFFFFFFFFFFFFFFFFFFFFFFFFFFFFFFFFFFFFFF AND PUSH1 0x80 DUP2 PUSH20 0xFFFFFFFFFFFFFFFFFFFFFFFFFFFFFFFFFFFFFFFF AND DUP2 MSTORE POP POP POP DUP1 PUSH1 0x4 DUP1 PUSH2 0x100 EXP DUP2 SLOAD DUP2 PUSH8 0xFFFFFFFFFFFFFFFF MUL NOT AND SWAP1 DUP4 PUSH8 0xFFFFFFFFFFFFFFFF AND MUL OR SWAP1 SSTORE POP POP PUSH2 0x495 JUMP JUMPDEST PUSH0 DUP2 MLOAD SWAP1 POP SWAP2 SWAP1 POP JUMP JUMPDEST PUSH32 0x4E487B7100000000000000000000000000000000000000000000000000000000 PUSH0 MSTORE PUSH1 0x41 PUSH1 0x4 MSTORE PUSH1 0x24 PUSH0 REVERT JUMPDEST PUSH32 0x4E487B7100000000000000000000000000000000000000000000000000000000 PUSH0 MSTORE PUSH1 0x22 PUSH1 0x4 MSTORE PUSH1 0x24 PUSH0 REVERT JUMPDEST PUSH0 PUSH1 0x2 DUP3 DIV SWAP1 POP PUSH1 0x1 DUP3 AND DUP1 PUSH2 0x198 JUMPI PUSH1 0x7F DUP3 AND SWAP2 POP JUMPDEST PUSH1 0x20 DUP3 LT DUP2 SUB PUSH2 0x1AB JUMPI PUSH2 0x1AA PUSH2 0x154 JUMP JUMPDEST JUMPDEST POP SWAP2 SWAP1 POP JUMP JUMPDEST PUSH0 DUP2 SWAP1 POP DUP2 PUSH0 MSTORE PUSH1 0x20 PUSH0 KECCAK256 SWAP1 POP SWAP2 SWAP1 POP JUMP JUMPDEST PUSH0 PUSH1 0x20 PUSH1 0x1F DUP4 ADD DIV SWAP1 POP SWAP2 SWAP1 POP JUMP JUMPDEST PUSH0 DUP3 DUP3 SHL SWAP1 POP SWAP3 SWAP2 POP POP JUMP JUMPDEST PUSH0 PUSH1 0x8 DUP4 MUL PUSH2 0x20D PUSH32 0xFFFFFFFFFFFFFFFFFFFFFFFFFFFFFFFFFFFFFFFFFFFFFFFFFFFFFFFFFFFFFFFF DUP3 PUSH2 0x1D2 JUMP JUMPDEST PUSH2 0x217 DUP7 DUP4 PUSH2 0x1D2 JUMP JUMPDEST SWAP6 POP DUP1 NOT DUP5 AND SWAP4 POP DUP1 DUP7 AND DUP5 OR SWAP3 POP POP POP SWAP4 SWAP3 POP POP POP JUMP JUMPDEST PUSH0 DUP2 SWAP1 POP SWAP2 SWAP1 POP JUMP JUMPDEST PUSH0 DUP2 SWAP1 POP SWAP2 SWAP1 POP JUMP JUMPDEST PUSH0 PUSH2 0x25B PUSH2 0x256 PUSH2 0x251 DUP5 PUSH2 0x22F JUMP JUMPDEST PUSH2 0x238 JUMP JUMPDEST PUSH2 0x22F JUMP JUMPDEST SWAP1 POP SWAP2 SWAP1 POP JUMP JUMPDEST PUSH0 DUP2 SWAP1 POP SWAP2 SWAP1 POP JUMP JUMPDEST PUSH2 0x274 DUP4 PUSH2 0x241 JUMP JUMPDEST PUSH2 0x288 PUSH2 0x280 DUP3 PUSH2 0x262 JUMP JUMPDEST DUP5 DUP5 SLOAD PUSH2 0x1DE JUMP JUMPDEST DUP3 SSTORE POP POP POP POP JUMP JUMPDEST PUSH0 PUSH0 SWAP1 POP SWAP1 JUMP JUMPDEST PUSH2 0x29F PUSH2 0x290 JUMP JUMPDEST PUSH2 0x2AA DUP2 DUP5 DUP5 PUSH2 0x26B JUMP JUMPDEST POP POP POP JUMP JUMPDEST JUMPDEST DUP2 DUP2 LT ISZERO PUSH2 0x2CD JUMPI PUSH2 0x2C2 PUSH0 DUP3 PUSH2 0x297 JUMP JUMPDEST PUSH1 0x1 DUP2 ADD SWAP1 POP PUSH2 0x2B0 JUMP JUMPDEST POP POP JUMP JUMPDEST PUSH1 0x1F DUP3 GT ISZERO PUSH2 0x312 JUMPI PUSH2 0x2E3 DUP2 PUSH2 0x1B1 JUMP JUMPDEST PUSH2 0x2EC DUP5 PUSH2 0x1C3 JUMP JUMPDEST DUP2 ADD PUSH1 0x20 DUP6 LT ISZERO PUSH2 0x2FB JUMPI DUP2 SWAP1 POP JUMPDEST PUSH2 0x30F PUSH2 0x307 DUP6 PUSH2 0x1C3 JUMP JUMPDEST DUP4 ADD DUP3 PUSH2 0x2AF JUMP JUMPDEST POP POP JUMPDEST POP POP POP JUMP JUMPDEST PUSH0 DUP3 DUP3 SHR SWAP1 POP SWAP3 SWAP2 POP POP JUMP JUMPDEST PUSH0 PUSH2 0x332 PUSH0 NOT DUP5 PUSH1 0x8 MUL PUSH2 0x317 JUMP JUMPDEST NOT DUP1 DUP4 AND SWAP2 POP POP SWAP3 SWAP2 POP POP JUMP JUMPDEST PUSH0 PUSH2 0x34A DUP4 DUP4 PUSH2 0x323 JUMP JUMPDEST SWAP2 POP DUP3 PUSH1 0x2 MUL DUP3 OR SWAP1 POP SWAP3 SWAP2 POP POP JUMP JUMPDEST PUSH2 0x363 DUP3 PUSH2 0x11D JUMP JUMPDEST PUSH8 0xFFFFFFFFFFFFFFFF DUP2 GT ISZERO PUSH2 0x37C JUMPI PUSH2 0x37B PUSH2 0x127 JUMP JUMPDEST JUMPDEST PUSH2 0x386 DUP3 SLOAD PUSH2 0x181 JUMP JUMPDEST PUSH2 0x391 DUP3 DUP3 DUP6 PUSH2 0x2D1 JUMP JUMPDEST PUSH0 PUSH1 0x20 SWAP1 POP PUSH1 0x1F DUP4 GT PUSH1 0x1 DUP2 EQ PUSH2 0x3C2 JUMPI PUSH0 DUP5 ISZERO PUSH2 0x3B0 JUMPI DUP3 DUP8 ADD MLOAD SWAP1 POP JUMPDEST PUSH2 0x3BA DUP6 DUP3 PUSH2 0x33F JUMP JUMPDEST DUP7 SSTORE POP PUSH2 0x421 JUMP JUMPDEST PUSH1 0x1F NOT DUP5 AND PUSH2 0x3D0 DUP7 PUSH2 0x1B1 JUMP JUMPDEST PUSH0 JUMPDEST DUP3 DUP2 LT ISZERO PUSH2 0x3F7 JUMPI DUP5 DUP10 ADD MLOAD DUP3 SSTORE PUSH1 0x1 DUP3 ADD SWAP2 POP PUSH1 0x20 DUP6 ADD SWAP5 POP PUSH1 0x20 DUP2 ADD SWAP1 POP PUSH2 0x3D2 JUMP JUMPDEST DUP7 DUP4 LT ISZERO PUSH2 0x414 JUMPI DUP5 DUP10 ADD MLOAD PUSH2 0x410 PUSH1 0x1F DUP10 AND DUP3 PUSH2 0x323 JUMP JUMPDEST DUP4 SSTORE POP JUMPDEST PUSH1 0x1 PUSH1 0x2 DUP9 MUL ADD DUP9 SSTORE POP POP POP JUMPDEST POP POP POP POP POP POP JUMP JUMPDEST PUSH0 PUSH0 REVERT JUMPDEST PUSH0 PUSH8 0xFFFFFFFFFFFFFFFF DUP3 AND SWAP1 POP SWAP2 SWAP1 POP JUMP JUMPDEST PUSH2 0x449 DUP2 PUSH2 0x42D JUMP JUMPDEST DUP2 EQ PUSH2 0x453 JUMPI PUSH0 PUSH0 REVERT JUMPDEST POP JUMP JUMPDEST PUSH0 DUP2 MLOAD SWAP1 POP PUSH2 0x464 DUP2 PUSH2 0x440 JUMP JUMPDEST SWAP3 SWAP2 POP POP JUMP JUMPDEST PUSH0 PUSH1 0x20 DUP3 DUP5 SUB SLT ISZERO PUSH2 0x47F JUMPI PUSH2 0x47E PUSH2 0x429 JUMP JUMPDEST JUMPDEST PUSH0 PUSH2 0x48C DUP5 DUP3 DUP6 ADD PUSH2 0x456 JUMP JUMPDEST SWAP2 POP POP SWAP3 SWAP2 POP POP JUMP JUMPDEST PUSH1 0x80 MLOAD PUSH2 0x2139 PUSH2 0x4B4 PUSH0 CODECOPY PUSH0 DUP2 DUP2 PUSH2 0x1B5 ADD MSTORE PUSH2 0xBFA ADD MSTORE PUSH2 0x2139 PUSH0 RETURN INVALID PUSH1 0x80 PUSH1 0x40 MSTORE CALLVALUE DUP1 ISZERO PUSH2 0xF JUMPI PUSH0 PUSH0 REVERT JUMPDEST POP PUSH1 0x4 CALLDATASIZE LT PUSH2 0x91 JUMPI PUSH0 CALLDATALOAD PUSH1 0xE0 SHR DUP1 PUSH4 0x8AC00021 GT PUSH2 0x64 JUMPI DUP1 PUSH4 0x8AC00021 EQ PUSH2 0x10B JUMPI DUP1 PUSH4 0x94D02941 EQ PUSH2 0x129 JUMPI DUP1 PUSH4 0x9FB51771 EQ PUSH2 0x159 JUMPI DUP1 PUSH4 0xB1E21749 EQ PUSH2 0x177 JUMPI DUP1 PUSH4 0xCD2B8D11 EQ PUSH2 0x195 JUMPI PUSH2 0x91 JUMP JUMPDEST DUP1 PUSH4 0xCA76175 EQ PUSH2 0x95 JUMPI DUP1 PUSH4 0x3944EA3A EQ PUSH2 0xB1 JUMPI DUP1 PUSH4 0x4B0795A8 EQ PUSH2 0xCF JUMPI DUP1 PUSH4 0x67E828BF EQ PUSH2 0xED JUMPI JUMPDEST PUSH0 PUSH0 REVERT JUMPDEST PUSH2 0xAF PUSH1 0x4 DUP1 CALLDATASIZE SUB DUP2 ADD SWAP1 PUSH2 0xAA SWAP2 SWAP1 PUSH2 0x14FC JUMP JUMPDEST PUSH2 0x1B3 JUMP JUMPDEST STOP JUMPDEST PUSH2 0xB9 PUSH2 0x275 JUMP JUMPDEST PUSH1 0x40 MLOAD PUSH2 0xC6 SWAP2 SWAP1 PUSH2 0x15E4 JUMP JUMPDEST PUSH1 0x40 MLOAD DUP1 SWAP2 SUB SWAP1 RETURN JUMPDEST PUSH2 0xD7 PUSH2 0x301 JUMP JUMPDEST PUSH1 0x40 MLOAD PUSH2 0xE4 SWAP2 SWAP1 PUSH2 0x15E4 JUMP JUMPDEST PUSH1 0x40 MLOAD DUP1 SWAP2 SUB SWAP1 RETURN JUMPDEST PUSH2 0xF5 PUSH2 0x38D JUMP JUMPDEST PUSH1 0x40 MLOAD PUSH2 0x102 SWAP2 SWAP1 PUSH2 0x1656 JUMP JUMPDEST PUSH1 0x40 MLOAD DUP1 SWAP2 SUB SWAP1 RETURN JUMPDEST PUSH2 0x113 PUSH2 0x419 JUMP JUMPDEST PUSH1 0x40 MLOAD PUSH2 0x120 SWAP2 SWAP1 PUSH2 0x1698 JUMP JUMPDEST PUSH1 0x40 MLOAD DUP1 SWAP2 SUB SWAP1 RETURN JUMPDEST PUSH2 0x143 PUSH1 0x4 DUP1 CALLDATASIZE SUB DUP2 ADD SWAP1 PUSH2 0x13E SWAP2 SWAP1 PUSH2 0x174F JUMP JUMPDEST PUSH2 0x431 JUMP JUMPDEST PUSH1 0x40 MLOAD PUSH2 0x150 SWAP2 SWAP1 PUSH2 0x17A5 JUMP JUMPDEST PUSH1 0x40 MLOAD DUP1 SWAP2 SUB SWAP1 RETURN JUMPDEST PUSH2 0x161 PUSH2 0x5BE JUMP JUMPDEST PUSH1 0x40 MLOAD PUSH2 0x16E SWAP2 SWAP1 PUSH2 0x1656 JUMP JUMPDEST PUSH1 0x40 MLOAD DUP1 SWAP2 SUB SWAP1 RETURN JUMPDEST PUSH2 0x17F PUSH2 0x64A JUMP JUMPDEST PUSH1 0x40 MLOAD PUSH2 0x18C SWAP2 SWAP1 PUSH2 0x17A5 JUMP JUMPDEST PUSH1 0x40 MLOAD DUP1 SWAP2 SUB SWAP1 RETURN JUMPDEST PUSH2 0x19D PUSH2 0x64F JUMP JUMPDEST PUSH1 0x40 MLOAD PUSH2 0x1AA SWAP2 SWAP1 PUSH2 0x1656 JUMP JUMPDEST PUSH1 0x40 MLOAD DUP1 SWAP2 SUB SWAP1 RETURN JUMPDEST PUSH32 0x0 PUSH20 0xFFFFFFFFFFFFFFFFFFFFFFFFFFFFFFFFFFFFFFFF AND CALLER PUSH20 0xFFFFFFFFFFFFFFFFFFFFFFFFFFFFFFFFFFFFFFFF AND EQ PUSH2 0x238 JUMPI PUSH1 0x40 MLOAD PUSH32 0xC6829F8300000000000000000000000000000000000000000000000000000000 DUP2 MSTORE PUSH1 0x4 ADD PUSH1 0x40 MLOAD DUP1 SWAP2 SUB SWAP1 REVERT JUMPDEST PUSH2 0x243 DUP4 DUP4 DUP4 PUSH2 0x6DB JUMP JUMPDEST DUP3 PUSH32 0x85E1543BF2F84FE80C6BADBCE3648C8539AD1DF4D2B3D822938CA0538BE727E6 PUSH1 0x40 MLOAD PUSH1 0x40 MLOAD DUP1 SWAP2 SUB SWAP1 LOG2 POP POP POP JUMP JUMPDEST PUSH1 0x1 DUP1 SLOAD PUSH2 0x282 SWAP1 PUSH2 0x17EB JUMP JUMPDEST DUP1 PUSH1 0x1F ADD PUSH1 0x20 DUP1 SWAP2 DIV MUL PUSH1 0x20 ADD PUSH1 0x40 MLOAD SWAP1 DUP2 ADD PUSH1 0x40 MSTORE DUP1 SWAP3 SWAP2 SWAP1 DUP2 DUP2 MSTORE PUSH1 0x20 ADD DUP3 DUP1 SLOAD PUSH2 0x2AE SWAP1 PUSH2 0x17EB JUMP JUMPDEST DUP1 ISZERO PUSH2 0x2F9 JUMPI DUP1 PUSH1 0x1F LT PUSH2 0x2D0 JUMPI PUSH2 0x100 DUP1 DUP4 SLOAD DIV MUL DUP4 MSTORE SWAP2 PUSH1 0x20 ADD SWAP2 PUSH2 0x2F9 JUMP JUMPDEST DUP3 ADD SWAP2 SWAP1 PUSH0 MSTORE PUSH1 0x20 PUSH0 KECCAK256 SWAP1 JUMPDEST DUP2 SLOAD DUP2 MSTORE SWAP1 PUSH1 0x1 ADD SWAP1 PUSH1 0x20 ADD DUP1 DUP4 GT PUSH2 0x2DC JUMPI DUP3 SWAP1 SUB PUSH1 0x1F AND DUP3 ADD SWAP2 JUMPDEST POP POP POP POP POP DUP2 JUMP JUMPDEST PUSH1 0x2 DUP1 SLOAD PUSH2 0x30E SWAP1 PUSH2 0x17EB JUMP JUMPDEST DUP1 PUSH1 0x1F ADD PUSH1 0x20 DUP1 SWAP2 DIV MUL PUSH1 0x20 ADD PUSH1 0x40 MLOAD SWAP1 DUP2 ADD PUSH1 0x40 MSTORE DUP1 SWAP3 SWAP2 SWAP1 DUP2 DUP2 MSTORE PUSH1 0x20 ADD DUP3 DUP1 SLOAD PUSH2 0x33A SWAP1 PUSH2 0x17EB JUMP JUMPDEST DUP1 ISZERO PUSH2 0x385 JUMPI DUP1 PUSH1 0x1F LT PUSH2 0x35C JUMPI PUSH2 0x100 DUP1 DUP4 SLOAD DIV MUL DUP4 MSTORE SWAP2 PUSH1 0x20 ADD SWAP2 PUSH2 0x385 JUMP JUMPDEST DUP3 ADD SWAP2 SWAP1 PUSH0 MSTORE PUSH1 0x20 PUSH0 KECCAK256 SWAP1 JUMPDEST DUP2 SLOAD DUP2 MSTORE SWAP1 PUSH1 0x1 ADD SWAP1 PUSH1 0x20 ADD DUP1 DUP4 GT PUSH2 0x368 JUMPI DUP3 SWAP1 SUB PUSH1 0x1F AND DUP3 ADD SWAP2 JUMPDEST POP POP POP POP POP DUP2 JUMP JUMPDEST PUSH1 0x5 DUP1 SLOAD PUSH2 0x39A SWAP1 PUSH2 0x17EB JUMP JUMPDEST DUP1 PUSH1 0x1F ADD PUSH1 0x20 DUP1 SWAP2 DIV MUL PUSH1 0x20 ADD PUSH1 0x40 MLOAD SWAP1 DUP2 ADD PUSH1 0x40 MSTORE DUP1 SWAP3 SWAP2 SWAP1 DUP2 DUP2 MSTORE PUSH1 0x20 ADD DUP3 DUP1 SLOAD PUSH2 0x3C6 SWAP1 PUSH2 0x17EB JUMP JUMPDEST DUP1 ISZERO PUSH2 0x411 JUMPI DUP1 PUSH1 0x1F LT PUSH2 0x3E8 JUMPI PUSH2 0x100 DUP1 DUP4 SLOAD DIV MUL DUP4 MSTORE SWAP2 PUSH1 0x20 ADD SWAP2 PUSH2 0x411 JUMP JUMPDEST DUP3 ADD SWAP2 SWAP1 PUSH0 MSTORE PUSH1 0x20 PUSH0 KECCAK256 SWAP1 JUMPDEST DUP2 SLOAD DUP2 MSTORE SWAP1 PUSH1 0x1 ADD SWAP1 PUSH1 0x20 ADD DUP1 DUP4 GT PUSH2 0x3F4 JUMPI DUP3 SWAP1 SUB PUSH1 0x1F AND DUP3 ADD SWAP2 JUMPDEST POP POP POP POP POP DUP2 JUMP JUMPDEST PUSH1 0x4 DUP1 SLOAD SWAP1 PUSH2 0x100 EXP SWAP1 DIV PUSH8 0xFFFFFFFFFFFFFFFF AND DUP2 JUMP JUMPDEST PUSH0 PUSH0 PUSH1 0x1 PUSH8 0xFFFFFFFFFFFFFFFF DUP2 GT ISZERO PUSH2 0x44E JUMPI PUSH2 0x44D PUSH2 0x13D8 JUMP JUMPDEST JUMPDEST PUSH1 0x40 MLOAD SWAP1 DUP1 DUP3 MSTORE DUP1 PUSH1 0x20 MUL PUSH1 0x20 ADD DUP3 ADD PUSH1 0x40 MSTORE DUP1 ISZERO PUSH2 0x481 JUMPI DUP2 PUSH1 0x20 ADD JUMPDEST PUSH1 0x60 DUP2 MSTORE PUSH1 0x20 ADD SWAP1 PUSH1 0x1 SWAP1 SUB SWAP1 DUP2 PUSH2 0x46C JUMPI SWAP1 POP JUMPDEST POP SWAP1 POP DUP3 DUP2 PUSH0 DUP2 MLOAD DUP2 LT PUSH2 0x498 JUMPI PUSH2 0x497 PUSH2 0x181B JUMP JUMPDEST JUMPDEST PUSH1 0x20 MUL PUSH1 0x20 ADD ADD DUP2 SWAP1 MSTORE POP PUSH2 0x4AB PUSH2 0x12D5 JUMP JUMPDEST PUSH2 0x546 PUSH1 0x5 DUP1 SLOAD PUSH2 0x4BB SWAP1 PUSH2 0x17EB JUMP JUMPDEST DUP1 PUSH1 0x1F ADD PUSH1 0x20 DUP1 SWAP2 DIV MUL PUSH1 0x20 ADD PUSH1 0x40 MLOAD SWAP1 DUP2 ADD PUSH1 0x40 MSTORE DUP1 SWAP3 SWAP2 SWAP1 DUP2 DUP2 MSTORE PUSH1 0x20 ADD DUP3 DUP1 SLOAD PUSH2 0x4E7 SWAP1 PUSH2 0x17EB JUMP JUMPDEST DUP1 ISZERO PUSH2 0x532 JUMPI DUP1 PUSH1 0x1F LT PUSH2 0x509 JUMPI PUSH2 0x100 DUP1 DUP4 SLOAD DIV MUL DUP4 MSTORE SWAP2 PUSH1 0x20 ADD SWAP2 PUSH2 0x532 JUMP JUMPDEST DUP3 ADD SWAP2 SWAP1 PUSH0 MSTORE PUSH1 0x20 PUSH0 KECCAK256 SWAP1 JUMPDEST DUP2 SLOAD DUP2 MSTORE SWAP1 PUSH1 0x1 ADD SWAP1 PUSH1 0x20 ADD DUP1 DUP4 GT PUSH2 0x515 JUMPI DUP3 SWAP1 SUB PUSH1 0x1F AND DUP3 ADD SWAP2 JUMPDEST POP POP POP POP POP DUP3 PUSH2 0x794 SWAP1 SWAP2 SWAP1 PUSH4 0xFFFFFFFF AND JUMP JUMPDEST PUSH0 DUP3 MLOAD GT ISZERO PUSH2 0x563 JUMPI PUSH2 0x562 DUP3 DUP3 PUSH2 0x7A4 SWAP1 SWAP2 SWAP1 PUSH4 0xFFFFFFFF AND JUMP JUMPDEST JUMPDEST PUSH2 0x59E PUSH2 0x56F DUP3 PUSH2 0x7EB JUMP JUMPDEST PUSH1 0x4 DUP1 SLOAD SWAP1 PUSH2 0x100 EXP SWAP1 DIV PUSH8 0xFFFFFFFFFFFFFFFF AND PUSH1 0x4 PUSH0 SWAP1 SLOAD SWAP1 PUSH2 0x100 EXP SWAP1 DIV PUSH4 0xFFFFFFFF AND PUSH1 0x3 SLOAD PUSH2 0xBF6 JUMP JUMPDEST PUSH0 DUP2 SWAP1 SSTORE POP DUP4 PUSH1 0x6 SWAP1 DUP2 PUSH2 0x5B2 SWAP2 SWAP1 PUSH2 0x19F1 JUMP JUMPDEST POP PUSH0 SLOAD SWAP3 POP POP POP SWAP2 SWAP1 POP JUMP JUMPDEST PUSH1 0x7 DUP1 SLOAD PUSH2 0x5CB SWAP1 PUSH2 0x17EB JUMP JUMPDEST DUP1 PUSH1 0x1F ADD PUSH1 0x20 DUP1 SWAP2 DIV MUL PUSH1 0x20 ADD PUSH1 0x40 MLOAD SWAP1 DUP2 ADD PUSH1 0x40 MSTORE DUP1 SWAP3 SWAP2 SWAP1 DUP2 DUP2 MSTORE PUSH1 0x20 ADD DUP3 DUP1 SLOAD PUSH2 0x5F7 SWAP1 PUSH2 0x17EB JUMP JUMPDEST DUP1 ISZERO PUSH2 0x642 JUMPI DUP1 PUSH1 0x1F LT PUSH2 0x619 JUMPI PUSH2 0x100 DUP1 DUP4 SLOAD DIV MUL DUP4 MSTORE SWAP2 PUSH1 0x20 ADD SWAP2 PUSH2 0x642 JUMP JUMPDEST DUP3 ADD SWAP2 SWAP1 PUSH0 MSTORE PUSH1 0x20 PUSH0 KECCAK256 SWAP1 JUMPDEST DUP2 SLOAD DUP2 MSTORE SWAP1 PUSH1 0x1 ADD SWAP1 PUSH1 0x20 ADD DUP1 DUP4 GT PUSH2 0x625 JUMPI DUP3 SWAP1 SUB PUSH1 0x1F AND DUP3 ADD SWAP2 JUMPDEST POP POP POP POP POP DUP2 JUMP JUMPDEST PUSH0 SLOAD DUP2 JUMP JUMPDEST PUSH1 0x6 DUP1 SLOAD PUSH2 0x65C SWAP1 PUSH2 0x17EB JUMP JUMPDEST DUP1 PUSH1 0x1F ADD PUSH1 0x20 DUP1 SWAP2 DIV MUL PUSH1 0x20 ADD PUSH1 0x40 MLOAD SWAP1 DUP2 ADD PUSH1 0x40 MSTORE DUP1 SWAP3 SWAP2 SWAP1 DUP2 DUP2 MSTORE PUSH1 0x20 ADD DUP3 DUP1 SLOAD PUSH2 0x688 SWAP1 PUSH2 0x17EB JUMP JUMPDEST DUP1 ISZERO PUSH2 0x6D3 JUMPI DUP1 PUSH1 0x1F LT PUSH2 0x6AA JUMPI PUSH2 0x100 DUP1 DUP4 SLOAD DIV MUL DUP4 MSTORE SWAP2 PUSH1 0x20 ADD SWAP2 PUSH2 0x6D3 JUMP JUMPDEST DUP3 ADD SWAP2 SWAP1 PUSH0 MSTORE PUSH1 0x20 PUSH0 KECCAK256 SWAP1 JUMPDEST DUP2 SLOAD DUP2 MSTORE SWAP1 PUSH1 0x1 ADD SWAP1 PUSH1 0x20 ADD DUP1 DUP4 GT PUSH2 0x6B6 JUMPI DUP3 SWAP1 SUB PUSH1 0x1F AND DUP3 ADD SWAP2 JUMPDEST POP POP POP POP POP DUP2 JUMP JUMPDEST DUP3 PUSH0 SLOAD EQ PUSH2 0x720 JUMPI DUP3 PUSH1 0x40 MLOAD PUSH32 0xD068BF5B00000000000000000000000000000000000000000000000000000000 DUP2 MSTORE PUSH1 0x4 ADD PUSH2 0x717 SWAP2 SWAP1 PUSH2 0x17A5 JUMP JUMPDEST PUSH1 0x40 MLOAD DUP1 SWAP2 SUB SWAP1 REVERT JUMPDEST DUP1 PUSH1 0x2 SWAP1 DUP2 PUSH2 0x72F SWAP2 SWAP1 PUSH2 0x1B18 JUMP JUMPDEST POP DUP2 PUSH1 0x1 SWAP1 DUP2 PUSH2 0x73F SWAP2 SWAP1 PUSH2 0x1B18 JUMP JUMPDEST POP DUP2 PUSH1 0x7 SWAP1 DUP2 PUSH2 0x74F SWAP2 SWAP1 PUSH2 0x19F1 JUMP JUMPDEST POP DUP3 PUSH32 0x160ED0AAFFBEF6885155188B91459CB5A97D5DAADCCF7561D8C46DEEA6641B50 PUSH1 0x7 PUSH1 0x1 PUSH1 0x2 PUSH1 0x40 MLOAD PUSH2 0x787 SWAP4 SWAP3 SWAP2 SWAP1 PUSH2 0x1CE9 JUMP JUMPDEST PUSH1 0x40 MLOAD DUP1 SWAP2 SUB SWAP1 LOG2 POP POP POP JUMP JUMPDEST PUSH2 0x7A0 DUP3 PUSH0 PUSH0 DUP5 PUSH2 0xCD5 JUMP JUMPDEST POP POP JUMP JUMPDEST PUSH0 DUP2 MLOAD SUB PUSH2 0x7DE JUMPI PUSH1 0x40 MLOAD PUSH32 0xFE936CB700000000000000000000000000000000000000000000000000000000 DUP2 MSTORE PUSH1 0x4 ADD PUSH1 0x40 MLOAD DUP1 SWAP2 SUB SWAP1 REVERT JUMPDEST DUP1 DUP3 PUSH1 0xA0 ADD DUP2 SWAP1 MSTORE POP POP POP JUMP JUMPDEST PUSH1 0x60 PUSH0 PUSH2 0x7F9 PUSH2 0x100 PUSH2 0xD7B JUMP JUMPDEST SWAP1 POP PUSH2 0x843 PUSH1 0x40 MLOAD DUP1 PUSH1 0x40 ADD PUSH1 0x40 MSTORE DUP1 PUSH1 0xC DUP2 MSTORE PUSH1 0x20 ADD PUSH32 0x636F64654C6F636174696F6E0000000000000000000000000000000000000000 DUP2 MSTORE POP DUP3 PUSH2 0xDA0 SWAP1 SWAP2 SWAP1 PUSH4 0xFFFFFFFF AND JUMP JUMPDEST PUSH2 0x86B DUP4 PUSH0 ADD MLOAD PUSH1 0x2 DUP2 GT ISZERO PUSH2 0x85C JUMPI PUSH2 0x85B PUSH2 0x1D33 JUMP JUMPDEST JUMPDEST DUP3 PUSH2 0xDC8 SWAP1 SWAP2 SWAP1 PUSH4 0xFFFFFFFF AND JUMP JUMPDEST PUSH2 0x8B3 PUSH1 0x40 MLOAD DUP1 PUSH1 0x40 ADD PUSH1 0x40 MSTORE DUP1 PUSH1 0x8 DUP2 MSTORE PUSH1 0x20 ADD PUSH32 0x6C616E6775616765000000000000000000000000000000000000000000000000 DUP2 MSTORE POP DUP3 PUSH2 0xDA0 SWAP1 SWAP2 SWAP1 PUSH4 0xFFFFFFFF AND JUMP JUMPDEST PUSH2 0x8DB DUP4 PUSH1 0x40 ADD MLOAD PUSH0 DUP2 GT ISZERO PUSH2 0x8CC JUMPI PUSH2 0x8CB PUSH2 0x1D33 JUMP JUMPDEST JUMPDEST DUP3 PUSH2 0xDC8 SWAP1 SWAP2 SWAP1 PUSH4 0xFFFFFFFF AND JUMP JUMPDEST PUSH2 0x923 PUSH1 0x40 MLOAD DUP1 PUSH1 0x40 ADD PUSH1 0x40 MSTORE DUP1 PUSH1 0x6 DUP2 MSTORE PUSH1 0x20 ADD PUSH32 0x736F757263650000000000000000000000000000000000000000000000000000 DUP2 MSTORE POP DUP3 PUSH2 0xDA0 SWAP1 SWAP2 SWAP1 PUSH4 0xFFFFFFFF AND JUMP JUMPDEST PUSH2 0x93A DUP4 PUSH1 0x60 ADD MLOAD DUP3 PUSH2 0xDA0 SWAP1 SWAP2 SWAP1 PUSH4 0xFFFFFFFF AND JUMP JUMPDEST PUSH0 DUP4 PUSH1 0xA0 ADD MLOAD MLOAD GT ISZERO PUSH2 0x9F1 JUMPI PUSH2 0x98F PUSH1 0x40 MLOAD DUP1 PUSH1 0x40 ADD PUSH1 0x40 MSTORE DUP1 PUSH1 0x4 DUP2 MSTORE PUSH1 0x20 ADD PUSH32 0x6172677300000000000000000000000000000000000000000000000000000000 DUP2 MSTORE POP DUP3 PUSH2 0xDA0 SWAP1 SWAP2 SWAP1 PUSH4 0xFFFFFFFF AND JUMP JUMPDEST PUSH2 0x998 DUP2 PUSH2 0xE17 JUMP JUMPDEST PUSH0 PUSH0 SWAP1 POP JUMPDEST DUP4 PUSH1 0xA0 ADD MLOAD MLOAD DUP2 LT ISZERO PUSH2 0x9E6 JUMPI PUSH2 0x9DB DUP5 PUSH1 0xA0 ADD MLOAD DUP3 DUP2 MLOAD DUP2 LT PUSH2 0x9C4 JUMPI PUSH2 0x9C3 PUSH2 0x181B JUMP JUMPDEST JUMPDEST PUSH1 0x20 MUL PUSH1 0x20 ADD ADD MLOAD DUP4 PUSH2 0xDA0 SWAP1 SWAP2 SWAP1 PUSH4 0xFFFFFFFF AND JUMP JUMPDEST DUP1 PUSH1 0x1 ADD SWAP1 POP PUSH2 0x99D JUMP JUMPDEST POP PUSH2 0x9F0 DUP2 PUSH2 0xE3F JUMP JUMPDEST JUMPDEST PUSH0 DUP4 PUSH1 0x80 ADD MLOAD MLOAD GT ISZERO PUSH2 0xB30 JUMPI PUSH0 PUSH1 0x2 DUP2 GT ISZERO PUSH2 0xA11 JUMPI PUSH2 0xA10 PUSH2 0x1D33 JUMP JUMPDEST JUMPDEST DUP4 PUSH1 0x20 ADD MLOAD PUSH1 0x2 DUP2 GT ISZERO PUSH2 0xA28 JUMPI PUSH2 0xA27 PUSH2 0x1D33 JUMP JUMPDEST JUMPDEST SUB PUSH2 0xA5F JUMPI PUSH1 0x40 MLOAD PUSH32 0xA80D31F700000000000000000000000000000000000000000000000000000000 DUP2 MSTORE PUSH1 0x4 ADD PUSH1 0x40 MLOAD DUP1 SWAP2 SUB SWAP1 REVERT JUMPDEST PUSH2 0xAA7 PUSH1 0x40 MLOAD DUP1 PUSH1 0x40 ADD PUSH1 0x40 MSTORE DUP1 PUSH1 0xF DUP2 MSTORE PUSH1 0x20 ADD PUSH32 0x736563726574734C6F636174696F6E0000000000000000000000000000000000 DUP2 MSTORE POP DUP3 PUSH2 0xDA0 SWAP1 SWAP2 SWAP1 PUSH4 0xFFFFFFFF AND JUMP JUMPDEST PUSH2 0xAD0 DUP4 PUSH1 0x20 ADD MLOAD PUSH1 0x2 DUP2 GT ISZERO PUSH2 0xAC1 JUMPI PUSH2 0xAC0 PUSH2 0x1D33 JUMP JUMPDEST JUMPDEST DUP3 PUSH2 0xDC8 SWAP1 SWAP2 SWAP1 PUSH4 0xFFFFFFFF AND JUMP JUMPDEST PUSH2 0xB18 PUSH1 0x40 MLOAD DUP1 PUSH1 0x40 ADD PUSH1 0x40 MSTORE DUP1 PUSH1 0x7 DUP2 MSTORE PUSH1 0x20 ADD PUSH32 0x7365637265747300000000000000000000000000000000000000000000000000 DUP2 MSTORE POP DUP3 PUSH2 0xDA0 SWAP1 SWAP2 SWAP1 PUSH4 0xFFFFFFFF AND JUMP JUMPDEST PUSH2 0xB2F DUP4 PUSH1 0x80 ADD MLOAD DUP3 PUSH2 0xE67 SWAP1 SWAP2 SWAP1 PUSH4 0xFFFFFFFF AND JUMP JUMPDEST JUMPDEST PUSH0 DUP4 PUSH1 0xC0 ADD MLOAD MLOAD GT ISZERO PUSH2 0xBE7 JUMPI PUSH2 0xB85 PUSH1 0x40 MLOAD DUP1 PUSH1 0x40 ADD PUSH1 0x40 MSTORE DUP1 PUSH1 0x9 DUP2 MSTORE PUSH1 0x20 ADD PUSH32 0x6279746573417267730000000000000000000000000000000000000000000000 DUP2 MSTORE POP DUP3 PUSH2 0xDA0 SWAP1 SWAP2 SWAP1 PUSH4 0xFFFFFFFF AND JUMP JUMPDEST PUSH2 0xB8E DUP2 PUSH2 0xE17 JUMP JUMPDEST PUSH0 PUSH0 SWAP1 POP JUMPDEST DUP4 PUSH1 0xC0 ADD MLOAD MLOAD DUP2 LT ISZERO PUSH2 0xBDC JUMPI PUSH2 0xBD1 DUP5 PUSH1 0xC0 ADD MLOAD DUP3 DUP2 MLOAD DUP2 LT PUSH2 0xBBA JUMPI PUSH2 0xBB9 PUSH2 0x181B JUMP JUMPDEST JUMPDEST PUSH1 0x20 MUL PUSH1 0x20 ADD ADD MLOAD DUP4 PUSH2 0xE67 SWAP1 SWAP2 SWAP1 PUSH4 0xFFFFFFFF AND JUMP JUMPDEST DUP1 PUSH1 0x1 ADD SWAP1 POP PUSH2 0xB93 JUMP JUMPDEST POP PUSH2 0xBE6 DUP2 PUSH2 0xE3F JUMP JUMPDEST JUMPDEST DUP1 PUSH0 ADD MLOAD PUSH0 ADD MLOAD SWAP2 POP POP SWAP2 SWAP1 POP JUMP JUMPDEST PUSH0 PUSH0 PUSH32 0x0 PUSH20 0xFFFFFFFFFFFFFFFFFFFFFFFFFFFFFFFFFFFFFFFF AND PUSH4 0x461D2762 DUP7 DUP9 PUSH1 0x1 DUP9 DUP9 PUSH1 0x40 MLOAD DUP7 PUSH4 0xFFFFFFFF AND PUSH1 0xE0 SHL DUP2 MSTORE PUSH1 0x4 ADD PUSH2 0xC5A SWAP6 SWAP5 SWAP4 SWAP3 SWAP2 SWAP1 PUSH2 0x1D9A JUMP JUMPDEST PUSH1 0x20 PUSH1 0x40 MLOAD DUP1 DUP4 SUB DUP2 PUSH0 DUP8 GAS CALL ISZERO DUP1 ISZERO PUSH2 0xC76 JUMPI RETURNDATASIZE PUSH0 PUSH0 RETURNDATACOPY RETURNDATASIZE PUSH0 REVERT JUMPDEST POP POP POP POP PUSH1 0x40 MLOAD RETURNDATASIZE PUSH1 0x1F NOT PUSH1 0x1F DUP3 ADD AND DUP3 ADD DUP1 PUSH1 0x40 MSTORE POP DUP2 ADD SWAP1 PUSH2 0xC9A SWAP2 SWAP1 PUSH2 0x1E06 JUMP JUMPDEST SWAP1 POP DUP1 PUSH32 0x1131472297A800FEE664D1D89CFA8F7676FF07189ECC53F80BBB5F4969099DB8 PUSH1 0x40 MLOAD PUSH1 0x40 MLOAD DUP1 SWAP2 SUB SWAP1 LOG2 DUP1 SWAP2 POP POP SWAP5 SWAP4 POP POP POP POP JUMP JUMPDEST PUSH0 DUP2 MLOAD SUB PUSH2 0xD0F JUMPI PUSH1 0x40 MLOAD PUSH32 0x22CE3EDD00000000000000000000000000000000000000000000000000000000 DUP2 MSTORE PUSH1 0x4 ADD PUSH1 0x40 MLOAD DUP1 SWAP2 SUB SWAP1 REVERT JUMPDEST DUP3 DUP5 PUSH0 ADD SWAP1 PUSH1 0x2 DUP2 GT ISZERO PUSH2 0xD26 JUMPI PUSH2 0xD25 PUSH2 0x1D33 JUMP JUMPDEST JUMPDEST SWAP1 DUP2 PUSH1 0x2 DUP2 GT ISZERO PUSH2 0xD3A JUMPI PUSH2 0xD39 PUSH2 0x1D33 JUMP JUMPDEST JUMPDEST DUP2 MSTORE POP POP DUP2 DUP5 PUSH1 0x40 ADD SWAP1 PUSH0 DUP2 GT ISZERO PUSH2 0xD55 JUMPI PUSH2 0xD54 PUSH2 0x1D33 JUMP JUMPDEST JUMPDEST SWAP1 DUP2 PUSH0 DUP2 GT ISZERO PUSH2 0xD68 JUMPI PUSH2 0xD67 PUSH2 0x1D33 JUMP JUMPDEST JUMPDEST DUP2 MSTORE POP POP DUP1 DUP5 PUSH1 0x60 ADD DUP2 SWAP1 MSTORE POP POP POP POP POP JUMP JUMPDEST PUSH2 0xD83 PUSH2 0x1344 JUMP JUMPDEST PUSH2 0xD90 DUP2 PUSH0 ADD MLOAD DUP4 PUSH2 0xE8F JUMP JUMPDEST POP PUSH0 DUP2 PUSH1 0x20 ADD DUP2 DUP2 MSTORE POP POP SWAP2 SWAP1 POP JUMP JUMPDEST PUSH2 0xDAD DUP3 PUSH1 0x3 DUP4 MLOAD PUSH2 0xF05 JUMP JUMPDEST PUSH2 0xDC3 DUP2 DUP4 PUSH0 ADD MLOAD PUSH2 0x10A5 SWAP1 SWAP2 SWAP1 PUSH4 0xFFFFFFFF AND JUMP JUMPDEST POP POP POP JUMP JUMPDEST PUSH2 0xDE9 PUSH1 0x2 PUSH1 0x5 PUSH1 0x6 PUSH1 0xFF AND SWAP1 SHL OR DUP4 PUSH0 ADD MLOAD PUSH2 0x10C1 SWAP1 SWAP2 SWAP1 PUSH4 0xFFFFFFFF AND JUMP JUMPDEST POP PUSH2 0xE13 DUP3 DUP3 PUSH1 0x40 MLOAD PUSH1 0x20 ADD PUSH2 0xDFF SWAP2 SWAP1 PUSH2 0x1E40 JUMP JUMPDEST PUSH1 0x40 MLOAD PUSH1 0x20 DUP2 DUP4 SUB SUB DUP2 MSTORE SWAP1 PUSH1 0x40 MSTORE PUSH2 0xE67 JUMP JUMPDEST POP POP JUMP JUMPDEST PUSH2 0xE22 DUP2 PUSH1 0x4 PUSH2 0x1128 JUMP JUMPDEST PUSH1 0x1 DUP2 PUSH1 0x20 ADD DUP2 DUP2 MLOAD PUSH2 0xE35 SWAP2 SWAP1 PUSH2 0x1E86 JUMP JUMPDEST SWAP2 POP DUP2 DUP2 MSTORE POP POP POP JUMP JUMPDEST PUSH2 0xE4A DUP2 PUSH1 0x7 PUSH2 0x1128 JUMP JUMPDEST PUSH1 0x1 DUP2 PUSH1 0x20 ADD DUP2 DUP2 MLOAD PUSH2 0xE5D SWAP2 SWAP1 PUSH2 0x1EB9 JUMP JUMPDEST SWAP2 POP DUP2 DUP2 MSTORE POP POP POP JUMP JUMPDEST PUSH2 0xE74 DUP3 PUSH1 0x2 DUP4 MLOAD PUSH2 0xF05 JUMP JUMPDEST PUSH2 0xE8A DUP2 DUP4 PUSH0 ADD MLOAD PUSH2 0x10A5 SWAP1 SWAP2 SWAP1 PUSH4 0xFFFFFFFF AND JUMP JUMPDEST POP POP POP JUMP JUMPDEST PUSH2 0xE97 PUSH2 0x1363 JUMP JUMPDEST PUSH0 PUSH1 0x20 DUP4 PUSH2 0xEA5 SWAP2 SWAP1 PUSH2 0x1F19 JUMP JUMPDEST EQ PUSH2 0xED1 JUMPI PUSH1 0x20 DUP3 PUSH2 0xEB7 SWAP2 SWAP1 PUSH2 0x1F19 JUMP JUMPDEST PUSH1 0x20 PUSH2 0xEC3 SWAP2 SWAP1 PUSH2 0x1EB9 JUMP JUMPDEST DUP3 PUSH2 0xECE SWAP2 SWAP1 PUSH2 0x1E86 JUMP JUMPDEST SWAP2 POP JUMPDEST DUP2 DUP4 PUSH1 0x20 ADD DUP2 DUP2 MSTORE POP POP PUSH1 0x40 MLOAD DUP1 DUP5 MSTORE PUSH0 DUP2 MSTORE DUP3 DUP2 ADD PUSH1 0x20 ADD DUP2 DUP2 LT ISZERO PUSH2 0xEF6 JUMPI PUSH0 PUSH0 REVERT JUMPDEST DUP1 PUSH1 0x40 MSTORE POP POP DUP3 SWAP1 POP SWAP3 SWAP2 POP POP JUMP JUMPDEST PUSH1 0x17 DUP2 PUSH8 0xFFFFFFFFFFFFFFFF AND GT PUSH2 0xF3F JUMPI PUSH2 0xF39 DUP2 PUSH1 0x5 DUP5 PUSH1 0xFF AND SWAP1 SHL PUSH1 0xFF AND OR DUP5 PUSH0 ADD MLOAD PUSH2 0x10C1 SWAP1 SWAP2 SWAP1 PUSH4 0xFFFFFFFF AND JUMP JUMPDEST POP PUSH2 0x10A0 JUMP JUMPDEST PUSH1 0xFF DUP2 PUSH8 0xFFFFFFFFFFFFFFFF AND GT PUSH2 0xF9B JUMPI PUSH2 0xF71 PUSH1 0x18 PUSH1 0x5 DUP5 PUSH1 0xFF AND SWAP1 SHL OR DUP5 PUSH0 ADD MLOAD PUSH2 0x10C1 SWAP1 SWAP2 SWAP1 PUSH4 0xFFFFFFFF AND JUMP JUMPDEST POP PUSH2 0xF95 DUP2 PUSH8 0xFFFFFFFFFFFFFFFF AND PUSH1 0x1 DUP6 PUSH0 ADD MLOAD PUSH2 0x114D SWAP1 SWAP3 SWAP2 SWAP1 PUSH4 0xFFFFFFFF AND JUMP JUMPDEST POP PUSH2 0x109F JUMP JUMPDEST PUSH2 0xFFFF DUP2 PUSH8 0xFFFFFFFFFFFFFFFF AND GT PUSH2 0xFF8 JUMPI PUSH2 0xFCE PUSH1 0x19 PUSH1 0x5 DUP5 PUSH1 0xFF AND SWAP1 SHL OR DUP5 PUSH0 ADD MLOAD PUSH2 0x10C1 SWAP1 SWAP2 SWAP1 PUSH4 0xFFFFFFFF AND JUMP JUMPDEST POP PUSH2 0xFF2 DUP2 PUSH8 0xFFFFFFFFFFFFFFFF AND PUSH1 0x2 DUP6 PUSH0 ADD MLOAD PUSH2 0x114D SWAP1 SWAP3 SWAP2 SWAP1 PUSH4 0xFFFFFFFF AND JUMP JUMPDEST POP PUSH2 0x109E JUMP JUMPDEST PUSH4 0xFFFFFFFF DUP2 PUSH8 0xFFFFFFFFFFFFFFFF AND GT PUSH2 0x1057 JUMPI PUSH2 0x102D PUSH1 0x1A PUSH1 0x5 DUP5 PUSH1 0xFF AND SWAP1 SHL OR DUP5 PUSH0 ADD MLOAD PUSH2 0x10C1 SWAP1 SWAP2 SWAP1 PUSH4 0xFFFFFFFF AND JUMP JUMPDEST POP PUSH2 0x1051 DUP2 PUSH8 0xFFFFFFFFFFFFFFFF AND PUSH1 0x4 DUP6 PUSH0 ADD MLOAD PUSH2 0x114D SWAP1 SWAP3 SWAP2 SWAP1 PUSH4 0xFFFFFFFF AND JUMP JUMPDEST POP PUSH2 0x109D JUMP JUMPDEST PUSH2 0x1077 PUSH1 0x1B PUSH1 0x5 DUP5 PUSH1 0xFF AND SWAP1 SHL OR DUP5 PUSH0 ADD MLOAD PUSH2 0x10C1 SWAP1 SWAP2 SWAP1 PUSH4 0xFFFFFFFF AND JUMP JUMPDEST POP PUSH2 0x109B DUP2 PUSH8 0xFFFFFFFFFFFFFFFF AND PUSH1 0x8 DUP6 PUSH0 ADD MLOAD PUSH2 0x114D SWAP1 SWAP3 SWAP2 SWAP1 PUSH4 0xFFFFFFFF AND JUMP JUMPDEST POP JUMPDEST JUMPDEST JUMPDEST JUMPDEST POP POP POP JUMP JUMPDEST PUSH2 0x10AD PUSH2 0x1363 JUMP JUMPDEST PUSH2 0x10B9 DUP4 DUP4 DUP5 MLOAD PUSH2 0x11D6 JUMP JUMPDEST SWAP1 POP SWAP3 SWAP2 POP POP JUMP JUMPDEST PUSH2 0x10C9 PUSH2 0x1363 JUMP JUMPDEST PUSH0 DUP4 PUSH0 ADD MLOAD MLOAD SWAP1 POP PUSH0 PUSH1 0x1 DUP3 PUSH2 0x10DF SWAP2 SWAP1 PUSH2 0x1E86 JUMP JUMPDEST SWAP1 POP DUP5 PUSH1 0x20 ADD MLOAD DUP3 LT PUSH2 0x1103 JUMPI PUSH2 0x1102 DUP6 PUSH1 0x2 DUP4 PUSH2 0x10FD SWAP2 SWAP1 PUSH2 0x1F49 JUMP JUMPDEST PUSH2 0x12B3 JUMP JUMPDEST JUMPDEST DUP5 MLOAD PUSH1 0x20 DUP4 DUP3 ADD ADD DUP6 DUP2 MSTORE8 DUP2 MLOAD DUP4 GT ISZERO PUSH2 0x111B JUMPI DUP3 DUP3 MSTORE JUMPDEST POP POP DUP5 SWAP3 POP POP POP SWAP3 SWAP2 POP POP JUMP JUMPDEST PUSH2 0x1148 PUSH1 0x1F PUSH1 0x5 DUP4 PUSH1 0xFF AND SWAP1 SHL OR DUP4 PUSH0 ADD MLOAD PUSH2 0x10C1 SWAP1 SWAP2 SWAP1 PUSH4 0xFFFFFFFF AND JUMP JUMPDEST POP POP POP JUMP JUMPDEST PUSH2 0x1155 PUSH2 0x1363 JUMP JUMPDEST PUSH0 DUP5 PUSH0 ADD MLOAD MLOAD SWAP1 POP PUSH0 DUP2 DUP5 PUSH2 0x116A SWAP2 SWAP1 PUSH2 0x1E86 JUMP JUMPDEST SWAP1 POP DUP6 PUSH1 0x20 ADD MLOAD DUP2 GT ISZERO PUSH2 0x118F JUMPI PUSH2 0x118E DUP7 PUSH1 0x2 DUP4 PUSH2 0x1189 SWAP2 SWAP1 PUSH2 0x1F49 JUMP JUMPDEST PUSH2 0x12B3 JUMP JUMPDEST JUMPDEST PUSH0 PUSH1 0x1 DUP6 PUSH2 0x100 PUSH2 0x11A0 SWAP2 SWAP1 PUSH2 0x20B9 JUMP JUMPDEST PUSH2 0x11AA SWAP2 SWAP1 PUSH2 0x1EB9 JUMP JUMPDEST SWAP1 POP DUP7 MLOAD DUP3 DUP2 ADD DUP8 DUP4 NOT DUP3 MLOAD AND OR DUP2 MSTORE DUP2 MLOAD DUP5 GT ISZERO PUSH2 0x11C7 JUMPI DUP4 DUP3 MSTORE JUMPDEST POP POP DUP7 SWAP4 POP POP POP POP SWAP4 SWAP3 POP POP POP JUMP JUMPDEST PUSH2 0x11DE PUSH2 0x1363 JUMP JUMPDEST DUP3 MLOAD DUP3 GT ISZERO PUSH2 0x11EB JUMPI PUSH0 PUSH0 REVERT JUMPDEST PUSH0 DUP5 PUSH0 ADD MLOAD MLOAD SWAP1 POP PUSH0 DUP4 DUP3 PUSH2 0x1200 SWAP2 SWAP1 PUSH2 0x1E86 JUMP JUMPDEST SWAP1 POP DUP6 PUSH1 0x20 ADD MLOAD DUP2 GT ISZERO PUSH2 0x1225 JUMPI PUSH2 0x1224 DUP7 PUSH1 0x2 DUP4 PUSH2 0x121F SWAP2 SWAP1 PUSH2 0x1F49 JUMP JUMPDEST PUSH2 0x12B3 JUMP JUMPDEST JUMPDEST PUSH0 PUSH0 DUP8 MLOAD DUP1 MLOAD DUP6 PUSH1 0x20 DUP4 ADD ADD SWAP4 POP DUP1 DUP6 GT ISZERO PUSH2 0x123F JUMPI DUP5 DUP3 MSTORE JUMPDEST PUSH1 0x20 DUP10 ADD SWAP3 POP POP POP JUMPDEST PUSH1 0x20 DUP7 LT PUSH2 0x1286 JUMPI DUP1 MLOAD DUP3 MSTORE PUSH1 0x20 DUP3 PUSH2 0x1261 SWAP2 SWAP1 PUSH2 0x1E86 JUMP JUMPDEST SWAP2 POP PUSH1 0x20 DUP2 PUSH2 0x1270 SWAP2 SWAP1 PUSH2 0x1E86 JUMP JUMPDEST SWAP1 POP PUSH1 0x20 DUP7 PUSH2 0x127F SWAP2 SWAP1 PUSH2 0x1EB9 JUMP JUMPDEST SWAP6 POP PUSH2 0x1248 JUMP JUMPDEST PUSH0 PUSH1 0x1 DUP8 PUSH1 0x20 SUB PUSH2 0x100 EXP SUB SWAP1 POP DUP1 NOT DUP3 MLOAD AND DUP2 DUP5 MLOAD AND DUP2 DUP2 OR DUP6 MSTORE POP POP POP DUP8 SWAP5 POP POP POP POP POP SWAP4 SWAP3 POP POP POP JUMP JUMPDEST PUSH0 DUP3 PUSH0 ADD MLOAD SWAP1 POP PUSH2 0x12C4 DUP4 DUP4 PUSH2 0xE8F JUMP JUMPDEST POP PUSH2 0x12CF DUP4 DUP3 PUSH2 0x10A5 JUMP JUMPDEST POP POP POP POP JUMP JUMPDEST PUSH1 0x40 MLOAD DUP1 PUSH1 0xE0 ADD PUSH1 0x40 MSTORE DUP1 PUSH0 PUSH1 0x2 DUP2 GT ISZERO PUSH2 0x12F3 JUMPI PUSH2 0x12F2 PUSH2 0x1D33 JUMP JUMPDEST JUMPDEST DUP2 MSTORE PUSH1 0x20 ADD PUSH0 PUSH1 0x2 DUP2 GT ISZERO PUSH2 0x130B JUMPI PUSH2 0x130A PUSH2 0x1D33 JUMP JUMPDEST JUMPDEST DUP2 MSTORE PUSH1 0x20 ADD PUSH0 PUSH0 DUP2 GT ISZERO PUSH2 0x1322 JUMPI PUSH2 0x1321 PUSH2 0x1D33 JUMP JUMPDEST JUMPDEST DUP2 MSTORE PUSH1 0x20 ADD PUSH1 0x60 DUP2 MSTORE PUSH1 0x20 ADD PUSH1 0x60 DUP2 MSTORE PUSH1 0x20 ADD PUSH1 0x60 DUP2 MSTORE PUSH1 0x20 ADD PUSH1 0x60 DUP2 MSTORE POP SWAP1 JUMP JUMPDEST PUSH1 0x40 MLOAD DUP1 PUSH1 0x40 ADD PUSH1 0x40 MSTORE DUP1 PUSH2 0x1357 PUSH2 0x1363 JUMP JUMPDEST DUP2 MSTORE PUSH1 0x20 ADD PUSH0 DUP2 MSTORE POP SWAP1 JUMP JUMPDEST PUSH1 0x40 MLOAD DUP1 PUSH1 0x40 ADD PUSH1 0x40 MSTORE DUP1 PUSH1 0x60 DUP2 MSTORE PUSH1 0x20 ADD PUSH0 DUP2 MSTORE POP SWAP1 JUMP JUMPDEST PUSH0 PUSH1 0x40 MLOAD SWAP1 POP SWAP1 JUMP JUMPDEST PUSH0 PUSH0 REVERT JUMPDEST PUSH0 PUSH0 REVERT JUMPDEST PUSH0 DUP2 SWAP1 POP SWAP2 SWAP1 POP JUMP JUMPDEST PUSH2 0x139F DUP2 PUSH2 0x138D JUMP JUMPDEST DUP2 EQ PUSH2 0x13A9 JUMPI PUSH0 PUSH0 REVERT JUMPDEST POP JUMP JUMPDEST PUSH0 DUP2 CALLDATALOAD SWAP1 POP PUSH2 0x13BA DUP2 PUSH2 0x1396 JUMP JUMPDEST SWAP3 SWAP2 POP POP JUMP JUMPDEST PUSH0 PUSH0 REVERT JUMPDEST PUSH0 PUSH0 REVERT JUMPDEST PUSH0 PUSH1 0x1F NOT PUSH1 0x1F DUP4 ADD AND SWAP1 POP SWAP2 SWAP1 POP JUMP JUMPDEST PUSH32 0x4E487B7100000000000000000000000000000000000000000000000000000000 PUSH0 MSTORE PUSH1 0x41 PUSH1 0x4 MSTORE PUSH1 0x24 PUSH0 REVERT JUMPDEST PUSH2 0x140E DUP3 PUSH2 0x13C8 JUMP JUMPDEST DUP2 ADD DUP2 DUP2 LT PUSH8 0xFFFFFFFFFFFFFFFF DUP3 GT OR ISZERO PUSH2 0x142D JUMPI PUSH2 0x142C PUSH2 0x13D8 JUMP JUMPDEST JUMPDEST DUP1 PUSH1 0x40 MSTORE POP POP POP JUMP JUMPDEST PUSH0 PUSH2 0x143F PUSH2 0x137C JUMP JUMPDEST SWAP1 POP PUSH2 0x144B DUP3 DUP3 PUSH2 0x1405 JUMP JUMPDEST SWAP2 SWAP1 POP JUMP JUMPDEST PUSH0 PUSH8 0xFFFFFFFFFFFFFFFF DUP3 GT ISZERO PUSH2 0x146A JUMPI PUSH2 0x1469 PUSH2 0x13D8 JUMP JUMPDEST JUMPDEST PUSH2 0x1473 DUP3 PUSH2 0x13C8 JUMP JUMPDEST SWAP1 POP PUSH1 0x20 DUP2 ADD SWAP1 POP SWAP2 SWAP1 POP JUMP JUMPDEST DUP3 DUP2 DUP4 CALLDATACOPY PUSH0 DUP4 DUP4 ADD MSTORE POP POP POP JUMP JUMPDEST PUSH0 PUSH2 0x14A0 PUSH2 0x149B DUP5 PUSH2 0x1450 JUMP JUMPDEST PUSH2 0x1436 JUMP JUMPDEST SWAP1 POP DUP3 DUP2 MSTORE PUSH1 0x20 DUP2 ADD DUP5 DUP5 DUP5 ADD GT ISZERO PUSH2 0x14BC JUMPI PUSH2 0x14BB PUSH2 0x13C4 JUMP JUMPDEST JUMPDEST PUSH2 0x14C7 DUP5 DUP3 DUP6 PUSH2 0x1480 JUMP JUMPDEST POP SWAP4 SWAP3 POP POP POP JUMP JUMPDEST PUSH0 DUP3 PUSH1 0x1F DUP4 ADD SLT PUSH2 0x14E3 JUMPI PUSH2 0x14E2 PUSH2 0x13C0 JUMP JUMPDEST JUMPDEST DUP2 CALLDATALOAD PUSH2 0x14F3 DUP5 DUP3 PUSH1 0x20 DUP7 ADD PUSH2 0x148E JUMP JUMPDEST SWAP2 POP POP SWAP3 SWAP2 POP POP JUMP JUMPDEST PUSH0 PUSH0 PUSH0 PUSH1 0x60 DUP5 DUP7 SUB SLT ISZERO PUSH2 0x1513 JUMPI PUSH2 0x1512 PUSH2 0x1385 JUMP JUMPDEST JUMPDEST PUSH0 PUSH2 0x1520 DUP7 DUP3 DUP8 ADD PUSH2 0x13AC JUMP JUMPDEST SWAP4 POP POP PUSH1 0x20 DUP5 ADD CALLDATALOAD PUSH8 0xFFFFFFFFFFFFFFFF DUP2 GT ISZERO PUSH2 0x1541 JUMPI PUSH2 0x1540 PUSH2 0x1389 JUMP JUMPDEST JUMPDEST PUSH2 0x154D DUP7 DUP3 DUP8 ADD PUSH2 0x14CF JUMP JUMPDEST SWAP3 POP POP PUSH1 0x40 DUP5 ADD CALLDATALOAD PUSH8 0xFFFFFFFFFFFFFFFF DUP2 GT ISZERO PUSH2 0x156E JUMPI PUSH2 0x156D PUSH2 0x1389 JUMP JUMPDEST JUMPDEST PUSH2 0x157A DUP7 DUP3 DUP8 ADD PUSH2 0x14CF JUMP JUMPDEST SWAP2 POP POP SWAP3 POP SWAP3 POP SWAP3 JUMP JUMPDEST PUSH0 DUP2 MLOAD SWAP1 POP SWAP2 SWAP1 POP JUMP JUMPDEST PUSH0 DUP3 DUP3 MSTORE PUSH1 0x20 DUP3 ADD SWAP1 POP SWAP3 SWAP2 POP POP JUMP JUMPDEST DUP3 DUP2 DUP4 MCOPY PUSH0 DUP4 DUP4 ADD MSTORE POP POP POP JUMP JUMPDEST PUSH0 PUSH2 0x15B6 DUP3 PUSH2 0x1584 JUMP JUMPDEST PUSH2 0x15C0 DUP2 DUP6 PUSH2 0x158E JUMP JUMPDEST SWAP4 POP PUSH2 0x15D0 DUP2 DUP6 PUSH1 0x20 DUP7 ADD PUSH2 0x159E JUMP JUMPDEST PUSH2 0x15D9 DUP2 PUSH2 0x13C8 JUMP JUMPDEST DUP5 ADD SWAP2 POP POP SWAP3 SWAP2 POP POP JUMP JUMPDEST PUSH0 PUSH1 0x20 DUP3 ADD SWAP1 POP DUP2 DUP2 SUB PUSH0 DUP4 ADD MSTORE PUSH2 0x15FC DUP2 DUP5 PUSH2 0x15AC JUMP JUMPDEST SWAP1 POP SWAP3 SWAP2 POP POP JUMP JUMPDEST PUSH0 DUP2 MLOAD SWAP1 POP SWAP2 SWAP1 POP JUMP JUMPDEST PUSH0 DUP3 DUP3 MSTORE PUSH1 0x20 DUP3 ADD SWAP1 POP SWAP3 SWAP2 POP POP JUMP JUMPDEST PUSH0 PUSH2 0x1628 DUP3 PUSH2 0x1604 JUMP JUMPDEST PUSH2 0x1632 DUP2 DUP6 PUSH2 0x160E JUMP JUMPDEST SWAP4 POP PUSH2 0x1642 DUP2 DUP6 PUSH1 0x20 DUP7 ADD PUSH2 0x159E JUMP JUMPDEST PUSH2 0x164B DUP2 PUSH2 0x13C8 JUMP JUMPDEST DUP5 ADD SWAP2 POP POP SWAP3 SWAP2 POP POP JUMP JUMPDEST PUSH0 PUSH1 0x20 DUP3 ADD SWAP1 POP DUP2 DUP2 SUB PUSH0 DUP4 ADD MSTORE PUSH2 0x166E DUP2 DUP5 PUSH2 0x161E JUMP JUMPDEST SWAP1 POP SWAP3 SWAP2 POP POP JUMP JUMPDEST PUSH0 PUSH8 0xFFFFFFFFFFFFFFFF DUP3 AND SWAP1 POP SWAP2 SWAP1 POP JUMP JUMPDEST PUSH2 0x1692 DUP2 PUSH2 0x1676 JUMP JUMPDEST DUP3 MSTORE POP POP JUMP JUMPDEST PUSH0 PUSH1 0x20 DUP3 ADD SWAP1 POP PUSH2 0x16AB PUSH0 DUP4 ADD DUP5 PUSH2 0x1689 JUMP JUMPDEST SWAP3 SWAP2 POP POP JUMP JUMPDEST PUSH0 PUSH8 0xFFFFFFFFFFFFFFFF DUP3 GT ISZERO PUSH2 0x16CB JUMPI PUSH2 0x16CA PUSH2 0x13D8 JUMP JUMPDEST JUMPDEST PUSH2 0x16D4 DUP3 PUSH2 0x13C8 JUMP JUMPDEST SWAP1 POP PUSH1 0x20 DUP2 ADD SWAP1 POP SWAP2 SWAP1 POP JUMP JUMPDEST PUSH0 PUSH2 0x16F3 PUSH2 0x16EE DUP5 PUSH2 0x16B1 JUMP JUMPDEST PUSH2 0x1436 JUMP JUMPDEST SWAP1 POP DUP3 DUP2 MSTORE PUSH1 0x20 DUP2 ADD DUP5 DUP5 DUP5 ADD GT ISZERO PUSH2 0x170F JUMPI PUSH2 0x170E PUSH2 0x13C4 JUMP JUMPDEST JUMPDEST PUSH2 0x171A DUP5 DUP3 DUP6 PUSH2 0x1480 JUMP JUMPDEST POP SWAP4 SWAP3 POP POP POP JUMP JUMPDEST PUSH0 DUP3 PUSH1 0x1F DUP4 ADD SLT PUSH2 0x1736 JUMPI PUSH2 0x1735 PUSH2 0x13C0 JUMP JUMPDEST JUMPDEST DUP2 CALLDATALOAD PUSH2 0x1746 DUP5 DUP3 PUSH1 0x20 DUP7 ADD PUSH2 0x16E1 JUMP JUMPDEST SWAP2 POP POP SWAP3 SWAP2 POP POP JUMP JUMPDEST PUSH0 PUSH1 0x20 DUP3 DUP5 SUB SLT ISZERO PUSH2 0x1764 JUMPI PUSH2 0x1763 PUSH2 0x1385 JUMP JUMPDEST JUMPDEST PUSH0 DUP3 ADD CALLDATALOAD PUSH8 0xFFFFFFFFFFFFFFFF DUP2 GT ISZERO PUSH2 0x1781 JUMPI PUSH2 0x1780 PUSH2 0x1389 JUMP JUMPDEST JUMPDEST PUSH2 0x178D DUP5 DUP3 DUP6 ADD PUSH2 0x1722 JUMP JUMPDEST SWAP2 POP POP SWAP3 SWAP2 POP POP JUMP JUMPDEST PUSH2 0x179F DUP2 PUSH2 0x138D JUMP JUMPDEST DUP3 MSTORE POP POP JUMP JUMPDEST PUSH0 PUSH1 0x20 DUP3 ADD SWAP1 POP PUSH2 0x17B8 PUSH0 DUP4 ADD DUP5 PUSH2 0x1796 JUMP JUMPDEST SWAP3 SWAP2 POP POP JUMP JUMPDEST PUSH32 0x4E487B7100000000000000000000000000000000000000000000000000000000 PUSH0 MSTORE PUSH1 0x22 PUSH1 0x4 MSTORE PUSH1 0x24 PUSH0 REVERT JUMPDEST PUSH0 PUSH1 0x2 DUP3 DIV SWAP1 POP PUSH1 0x1 DUP3 AND DUP1 PUSH2 0x1802 JUMPI PUSH1 0x7F DUP3 AND SWAP2 POP JUMPDEST PUSH1 0x20 DUP3 LT DUP2 SUB PUSH2 0x1815 JUMPI PUSH2 0x1814 PUSH2 0x17BE JUMP JUMPDEST JUMPDEST POP SWAP2 SWAP1 POP JUMP JUMPDEST PUSH32 0x4E487B7100000000000000000000000000000000000000000000000000000000 PUSH0 MSTORE PUSH1 0x32 PUSH1 0x4 MSTORE PUSH1 0x24 PUSH0 REVERT JUMPDEST PUSH0 DUP2 SWAP1 POP DUP2 PUSH0 MSTORE PUSH1 0x20 PUSH0 KECCAK256 SWAP1 POP SWAP2 SWAP1 POP JUMP JUMPDEST PUSH0 PUSH1 0x20 PUSH1 0x1F DUP4 ADD DIV SWAP1 POP SWAP2 SWAP1 POP JUMP JUMPDEST PUSH0 DUP3 DUP3 SHL SWAP1 POP SWAP3 SWAP2 POP POP JUMP JUMPDEST PUSH0 PUSH1 0x8 DUP4 MUL PUSH2 0x18A4 PUSH32 0xFFFFFFFFFFFFFFFFFFFFFFFFFFFFFFFFFFFFFFFFFFFFFFFFFFFFFFFFFFFFFFFF DUP3 PUSH2 0x1869 JUMP JUMPDEST PUSH2 0x18AE DUP7 DUP4 PUSH2 0x1869 JUMP JUMPDEST SWAP6 POP DUP1 NOT DUP5 AND SWAP4 POP DUP1 DUP7 AND DUP5 OR SWAP3 POP POP POP SWAP4 SWAP3 POP POP POP JUMP JUMPDEST PUSH0 DUP2 SWAP1 POP SWAP2 SWAP1 POP JUMP JUMPDEST PUSH0 DUP2 SWAP1 POP SWAP2 SWAP1 POP JUMP JUMPDEST PUSH0 PUSH2 0x18F2 PUSH2 0x18ED PUSH2 0x18E8 DUP5 PUSH2 0x18C6 JUMP JUMPDEST PUSH2 0x18CF JUMP JUMPDEST PUSH2 0x18C6 JUMP JUMPDEST SWAP1 POP SWAP2 SWAP1 POP JUMP JUMPDEST PUSH0 DUP2 SWAP1 POP SWAP2 SWAP1 POP JUMP JUMPDEST PUSH2 0x190B DUP4 PUSH2 0x18D8 JUMP JUMPDEST PUSH2 0x191F PUSH2 0x1917 DUP3 PUSH2 0x18F9 JUMP JUMPDEST DUP5 DUP5 SLOAD PUSH2 0x1875 JUMP JUMPDEST DUP3 SSTORE POP POP POP POP JUMP JUMPDEST PUSH0 PUSH0 SWAP1 POP SWAP1 JUMP JUMPDEST PUSH2 0x1936 PUSH2 0x1927 JUMP JUMPDEST PUSH2 0x1941 DUP2 DUP5 DUP5 PUSH2 0x1902 JUMP JUMPDEST POP POP POP JUMP JUMPDEST JUMPDEST DUP2 DUP2 LT ISZERO PUSH2 0x1964 JUMPI PUSH2 0x1959 PUSH0 DUP3 PUSH2 0x192E JUMP JUMPDEST PUSH1 0x1 DUP2 ADD SWAP1 POP PUSH2 0x1947 JUMP JUMPDEST POP POP JUMP JUMPDEST PUSH1 0x1F DUP3 GT ISZERO PUSH2 0x19A9 JUMPI PUSH2 0x197A DUP2 PUSH2 0x1848 JUMP JUMPDEST PUSH2 0x1983 DUP5 PUSH2 0x185A JUMP JUMPDEST DUP2 ADD PUSH1 0x20 DUP6 LT ISZERO PUSH2 0x1992 JUMPI DUP2 SWAP1 POP JUMPDEST PUSH2 0x19A6 PUSH2 0x199E DUP6 PUSH2 0x185A JUMP JUMPDEST DUP4 ADD DUP3 PUSH2 0x1946 JUMP JUMPDEST POP POP JUMPDEST POP POP POP JUMP JUMPDEST PUSH0 DUP3 DUP3 SHR SWAP1 POP SWAP3 SWAP2 POP POP JUMP JUMPDEST PUSH0 PUSH2 0x19C9 PUSH0 NOT DUP5 PUSH1 0x8 MUL PUSH2 0x19AE JUMP JUMPDEST NOT DUP1 DUP4 AND SWAP2 POP POP SWAP3 SWAP2 POP POP JUMP JUMPDEST PUSH0 PUSH2 0x19E1 DUP4 DUP4 PUSH2 0x19BA JUMP JUMPDEST SWAP2 POP DUP3 PUSH1 0x2 MUL DUP3 OR SWAP1 POP SWAP3 SWAP2 POP POP JUMP JUMPDEST PUSH2 0x19FA DUP3 PUSH2 0x1604 JUMP JUMPDEST PUSH8 0xFFFFFFFFFFFFFFFF DUP2 GT ISZERO PUSH2 0x1A13 JUMPI PUSH2 0x1A12 PUSH2 0x13D8 JUMP JUMPDEST JUMPDEST PUSH2 0x1A1D DUP3 SLOAD PUSH2 0x17EB JUMP JUMPDEST PUSH2 0x1A28 DUP3 DUP3 DUP6 PUSH2 0x1968 JUMP JUMPDEST PUSH0 PUSH1 0x20 SWAP1 POP PUSH1 0x1F DUP4 GT PUSH1 0x1 DUP2 EQ PUSH2 0x1A59 JUMPI PUSH0 DUP5 ISZERO PUSH2 0x1A47 JUMPI DUP3 DUP8 ADD MLOAD SWAP1 POP JUMPDEST PUSH2 0x1A51 DUP6 DUP3 PUSH2 0x19D6 JUMP JUMPDEST DUP7 SSTORE POP PUSH2 0x1AB8 JUMP JUMPDEST PUSH1 0x1F NOT DUP5 AND PUSH2 0x1A67 DUP7 PUSH2 0x1848 JUMP JUMPDEST PUSH0 JUMPDEST DUP3 DUP2 LT ISZERO PUSH2 0x1A8E JUMPI DUP5 DUP10 ADD MLOAD DUP3 SSTORE PUSH1 0x1 DUP3 ADD SWAP2 POP PUSH1 0x20 DUP6 ADD SWAP5 POP PUSH1 0x20 DUP2 ADD SWAP1 POP PUSH2 0x1A69 JUMP JUMPDEST DUP7 DUP4 LT ISZERO PUSH2 0x1AAB JUMPI DUP5 DUP10 ADD MLOAD PUSH2 0x1AA7 PUSH1 0x1F DUP10 AND DUP3 PUSH2 0x19BA JUMP JUMPDEST DUP4 SSTORE POP JUMPDEST PUSH1 0x1 PUSH1 0x2 DUP9 MUL ADD DUP9 SSTORE POP POP POP JUMPDEST POP POP POP POP POP POP JUMP JUMPDEST PUSH0 DUP2 SWAP1 POP DUP2 PUSH0 MSTORE PUSH1 0x20 PUSH0 KECCAK256 SWAP1 POP SWAP2 SWAP1 POP JUMP JUMPDEST PUSH1 0x1F DUP3 GT ISZERO PUSH2 0x1B13 JUMPI PUSH2 0x1AE4 DUP2 PUSH2 0x1AC0 JUMP JUMPDEST PUSH2 0x1AED DUP5 PUSH2 0x185A JUMP JUMPDEST DUP2 ADD PUSH1 0x20 DUP6 LT ISZERO PUSH2 0x1AFC JUMPI DUP2 SWAP1 POP JUMPDEST PUSH2 0x1B10 PUSH2 0x1B08 DUP6 PUSH2 0x185A JUMP JUMPDEST DUP4 ADD DUP3 PUSH2 0x1946 JUMP JUMPDEST POP POP JUMPDEST POP POP POP JUMP JUMPDEST PUSH2 0x1B21 DUP3 PUSH2 0x1584 JUMP JUMPDEST PUSH8 0xFFFFFFFFFFFFFFFF DUP2 GT ISZERO PUSH2 0x1B3A JUMPI PUSH2 0x1B39 PUSH2 0x13D8 JUMP JUMPDEST JUMPDEST PUSH2 0x1B44 DUP3 SLOAD PUSH2 0x17EB JUMP JUMPDEST PUSH2 0x1B4F DUP3 DUP3 DUP6 PUSH2 0x1AD2 JUMP JUMPDEST PUSH0 PUSH1 0x20 SWAP1 POP PUSH1 0x1F DUP4 GT PUSH1 0x1 DUP2 EQ PUSH2 0x1B80 JUMPI PUSH0 DUP5 ISZERO PUSH2 0x1B6E JUMPI DUP3 DUP8 ADD MLOAD SWAP1 POP JUMPDEST PUSH2 0x1B78 DUP6 DUP3 PUSH2 0x19D6 JUMP JUMPDEST DUP7 SSTORE POP PUSH2 0x1BDF JUMP JUMPDEST PUSH1 0x1F NOT DUP5 AND PUSH2 0x1B8E DUP7 PUSH2 0x1AC0 JUMP JUMPDEST PUSH0 JUMPDEST DUP3 DUP2 LT ISZERO PUSH2 0x1BB5 JUMPI DUP5 DUP10 ADD MLOAD DUP3 SSTORE PUSH1 0x1 DUP3 ADD SWAP2 POP PUSH1 0x20 DUP6 ADD SWAP5 POP PUSH1 0x20 DUP2 ADD SWAP1 POP PUSH2 0x1B90 JUMP JUMPDEST DUP7 DUP4 LT ISZERO PUSH2 0x1BD2 JUMPI DUP5 DUP10 ADD MLOAD PUSH2 0x1BCE PUSH1 0x1F DUP10 AND DUP3 PUSH2 0x19BA JUMP JUMPDEST DUP4 SSTORE POP JUMPDEST PUSH1 0x1 PUSH1 0x2 DUP9 MUL ADD DUP9 SSTORE POP POP POP JUMPDEST POP POP POP POP POP POP JUMP JUMPDEST PUSH0 DUP2 SLOAD PUSH2 0x1BF3 DUP2 PUSH2 0x17EB JUMP JUMPDEST PUSH2 0x1BFD DUP2 DUP7 PUSH2 0x160E JUMP JUMPDEST SWAP5 POP PUSH1 0x1 DUP3 AND PUSH0 DUP2 EQ PUSH2 0x1C17 JUMPI PUSH1 0x1 DUP2 EQ PUSH2 0x1C2D JUMPI PUSH2 0x1C5F JUMP JUMPDEST PUSH1 0xFF NOT DUP4 AND DUP7 MSTORE DUP2 ISZERO ISZERO PUSH1 0x20 MUL DUP7 ADD SWAP4 POP PUSH2 0x1C5F JUMP JUMPDEST PUSH2 0x1C36 DUP6 PUSH2 0x1848 JUMP JUMPDEST PUSH0 JUMPDEST DUP4 DUP2 LT ISZERO PUSH2 0x1C57 JUMPI DUP2 SLOAD DUP2 DUP10 ADD MSTORE PUSH1 0x1 DUP3 ADD SWAP2 POP PUSH1 0x20 DUP2 ADD SWAP1 POP PUSH2 0x1C38 JUMP JUMPDEST DUP1 DUP9 ADD SWAP6 POP POP POP JUMPDEST POP POP POP SWAP3 SWAP2 POP POP JUMP JUMPDEST PUSH0 DUP2 SLOAD PUSH2 0x1C74 DUP2 PUSH2 0x17EB JUMP JUMPDEST PUSH2 0x1C7E DUP2 DUP7 PUSH2 0x158E JUMP JUMPDEST SWAP5 POP PUSH1 0x1 DUP3 AND PUSH0 DUP2 EQ PUSH2 0x1C98 JUMPI PUSH1 0x1 DUP2 EQ PUSH2 0x1CAE JUMPI PUSH2 0x1CE0 JUMP JUMPDEST PUSH1 0xFF NOT DUP4 AND DUP7 MSTORE DUP2 ISZERO ISZERO PUSH1 0x20 MUL DUP7 ADD SWAP4 POP PUSH2 0x1CE0 JUMP JUMPDEST PUSH2 0x1CB7 DUP6 PUSH2 0x1AC0 JUMP JUMPDEST PUSH0 JUMPDEST DUP4 DUP2 LT ISZERO PUSH2 0x1CD8 JUMPI DUP2 SLOAD DUP2 DUP10 ADD MSTORE PUSH1 0x1 DUP3 ADD SWAP2 POP PUSH1 0x20 DUP2 ADD SWAP1 POP PUSH2 0x1CB9 JUMP JUMPDEST DUP1 DUP9 ADD SWAP6 POP POP POP JUMPDEST POP POP POP SWAP3 SWAP2 POP POP JUMP JUMPDEST PUSH0 PUSH1 0x60 DUP3 ADD SWAP1 POP DUP2 DUP2 SUB PUSH0 DUP4 ADD MSTORE PUSH2 0x1D01 DUP2 DUP7 PUSH2 0x1BE7 JUMP JUMPDEST SWAP1 POP DUP2 DUP2 SUB PUSH1 0x20 DUP4 ADD MSTORE PUSH2 0x1D15 DUP2 DUP6 PUSH2 0x1C68 JUMP JUMPDEST SWAP1 POP DUP2 DUP2 SUB PUSH1 0x40 DUP4 ADD MSTORE PUSH2 0x1D29 DUP2 DUP5 PUSH2 0x1C68 JUMP JUMPDEST SWAP1 POP SWAP5 SWAP4 POP POP POP POP JUMP JUMPDEST PUSH32 0x4E487B7100000000000000000000000000000000000000000000000000000000 PUSH0 MSTORE PUSH1 0x21 PUSH1 0x4 MSTORE PUSH1 0x24 PUSH0 REVERT JUMPDEST PUSH0 PUSH2 0xFFFF DUP3 AND SWAP1 POP SWAP2 SWAP1 POP JUMP JUMPDEST PUSH2 0x1D76 DUP2 PUSH2 0x1D60 JUMP JUMPDEST DUP3 MSTORE POP POP JUMP JUMPDEST PUSH0 PUSH4 0xFFFFFFFF DUP3 AND SWAP1 POP SWAP2 SWAP1 POP JUMP JUMPDEST PUSH2 0x1D94 DUP2 PUSH2 0x1D7C JUMP JUMPDEST DUP3 MSTORE POP POP JUMP JUMPDEST PUSH0 PUSH1 0xA0 DUP3 ADD SWAP1 POP PUSH2 0x1DAD PUSH0 DUP4 ADD DUP9 PUSH2 0x1689 JUMP JUMPDEST DUP2 DUP2 SUB PUSH1 0x20 DUP4 ADD MSTORE PUSH2 0x1DBF DUP2 DUP8 PUSH2 0x15AC JUMP JUMPDEST SWAP1 POP PUSH2 0x1DCE PUSH1 0x40 DUP4 ADD DUP7 PUSH2 0x1D6D JUMP JUMPDEST PUSH2 0x1DDB PUSH1 0x60 DUP4 ADD DUP6 PUSH2 0x1D8B JUMP JUMPDEST PUSH2 0x1DE8 PUSH1 0x80 DUP4 ADD DUP5 PUSH2 0x1796 JUMP JUMPDEST SWAP7 SWAP6 POP POP POP POP POP POP JUMP JUMPDEST PUSH0 DUP2 MLOAD SWAP1 POP PUSH2 0x1E00 DUP2 PUSH2 0x1396 JUMP JUMPDEST SWAP3 SWAP2 POP POP JUMP JUMPDEST PUSH0 PUSH1 0x20 DUP3 DUP5 SUB SLT ISZERO PUSH2 0x1E1B JUMPI PUSH2 0x1E1A PUSH2 0x1385 JUMP JUMPDEST JUMPDEST PUSH0 PUSH2 0x1E28 DUP5 DUP3 DUP6 ADD PUSH2 0x1DF2 JUMP JUMPDEST SWAP2 POP POP SWAP3 SWAP2 POP POP JUMP JUMPDEST PUSH2 0x1E3A DUP2 PUSH2 0x18C6 JUMP JUMPDEST DUP3 MSTORE POP POP JUMP JUMPDEST PUSH0 PUSH1 0x20 DUP3 ADD SWAP1 POP PUSH2 0x1E53 PUSH0 DUP4 ADD DUP5 PUSH2 0x1E31 JUMP JUMPDEST SWAP3 SWAP2 POP POP JUMP JUMPDEST PUSH32 0x4E487B7100000000000000000000000000000000000000000000000000000000 PUSH0 MSTORE PUSH1 0x11 PUSH1 0x4 MSTORE PUSH1 0x24 PUSH0 REVERT JUMPDEST PUSH0 PUSH2 0x1E90 DUP3 PUSH2 0x18C6 JUMP JUMPDEST SWAP2 POP PUSH2 0x1E9B DUP4 PUSH2 0x18C6 JUMP JUMPDEST SWAP3 POP DUP3 DUP3 ADD SWAP1 POP DUP1 DUP3 GT ISZERO PUSH2 0x1EB3 JUMPI PUSH2 0x1EB2 PUSH2 0x1E59 JUMP JUMPDEST JUMPDEST SWAP3 SWAP2 POP POP JUMP JUMPDEST PUSH0 PUSH2 0x1EC3 DUP3 PUSH2 0x18C6 JUMP JUMPDEST SWAP2 POP PUSH2 0x1ECE DUP4 PUSH2 0x18C6 JUMP JUMPDEST SWAP3 POP DUP3 DUP3 SUB SWAP1 POP DUP2 DUP2 GT ISZERO PUSH2 0x1EE6 JUMPI PUSH2 0x1EE5 PUSH2 0x1E59 JUMP JUMPDEST JUMPDEST SWAP3 SWAP2 POP POP JUMP JUMPDEST PUSH32 0x4E487B7100000000000000000000000000000000000000000000000000000000 PUSH0 MSTORE PUSH1 0x12 PUSH1 0x4 MSTORE PUSH1 0x24 PUSH0 REVERT JUMPDEST PUSH0 PUSH2 0x1F23 DUP3 PUSH2 0x18C6 JUMP JUMPDEST SWAP2 POP PUSH2 0x1F2E DUP4 PUSH2 0x18C6 JUMP JUMPDEST SWAP3 POP DUP3 PUSH2 0x1F3E JUMPI PUSH2 0x1F3D PUSH2 0x1EEC JUMP JUMPDEST JUMPDEST DUP3 DUP3 MOD SWAP1 POP SWAP3 SWAP2 POP POP JUMP JUMPDEST PUSH0 PUSH2 0x1F53 DUP3 PUSH2 0x18C6 JUMP JUMPDEST SWAP2 POP PUSH2 0x1F5E DUP4 PUSH2 0x18C6 JUMP JUMPDEST SWAP3 POP DUP3 DUP3 MUL PUSH2 0x1F6C DUP2 PUSH2 0x18C6 JUMP JUMPDEST SWAP2 POP DUP3 DUP3 DIV DUP5 EQ DUP4 ISZERO OR PUSH2 0x1F83 JUMPI PUSH2 0x1F82 PUSH2 0x1E59 JUMP JUMPDEST JUMPDEST POP SWAP3 SWAP2 POP POP JUMP JUMPDEST PUSH0 DUP2 PUSH1 0x1 SHR SWAP1 POP SWAP2 SWAP1 POP JUMP JUMPDEST PUSH0 PUSH0 DUP3 SWAP2 POP DUP4 SWAP1 POP JUMPDEST PUSH1 0x1 DUP6 GT ISZERO PUSH2 0x1FDF JUMPI DUP1 DUP7 DIV DUP2 GT ISZERO PUSH2 0x1FBB JUMPI PUSH2 0x1FBA PUSH2 0x1E59 JUMP JUMPDEST JUMPDEST PUSH1 0x1 DUP6 AND ISZERO PUSH2 0x1FCA JUMPI DUP1 DUP3 MUL SWAP2 POP JUMPDEST DUP1 DUP2 MUL SWAP1 POP PUSH2 0x1FD8 DUP6 PUSH2 0x1F8A JUMP JUMPDEST SWAP5 POP PUSH2 0x1F9F JUMP JUMPDEST SWAP5 POP SWAP5 SWAP3 POP POP POP JUMP JUMPDEST PUSH0 DUP3 PUSH2 0x1FF7 JUMPI PUSH1 0x1 SWAP1 POP PUSH2 0x20B2 JUMP JUMPDEST DUP2 PUSH2 0x2004 JUMPI PUSH0 SWAP1 POP PUSH2 0x20B2 JUMP JUMPDEST DUP2 PUSH1 0x1 DUP2 EQ PUSH2 0x201A JUMPI PUSH1 0x2 DUP2 EQ PUSH2 0x2024 JUMPI PUSH2 0x2053 JUMP JUMPDEST PUSH1 0x1 SWAP2 POP POP PUSH2 0x20B2 JUMP JUMPDEST PUSH1 0xFF DUP5 GT ISZERO PUSH2 0x2036 JUMPI PUSH2 0x2035 PUSH2 0x1E59 JUMP JUMPDEST JUMPDEST DUP4 PUSH1 0x2 EXP SWAP2 POP DUP5 DUP3 GT ISZERO PUSH2 0x204D JUMPI PUSH2 0x204C PUSH2 0x1E59 JUMP JUMPDEST JUMPDEST POP PUSH2 0x20B2 JUMP JUMPDEST POP PUSH1 0x20 DUP4 LT PUSH2 0x133 DUP4 LT AND PUSH1 0x4E DUP5 LT PUSH1 0xB DUP5 LT AND OR ISZERO PUSH2 0x2088 JUMPI DUP3 DUP3 EXP SWAP1 POP DUP4 DUP2 GT ISZERO PUSH2 0x2083 JUMPI PUSH2 0x2082 PUSH2 0x1E59 JUMP JUMPDEST JUMPDEST PUSH2 0x20B2 JUMP JUMPDEST PUSH2 0x2095 DUP5 DUP5 DUP5 PUSH1 0x1 PUSH2 0x1F96 JUMP JUMPDEST SWAP3 POP SWAP1 POP DUP2 DUP5 DIV DUP2 GT ISZERO PUSH2 0x20AC JUMPI PUSH2 0x20AB PUSH2 0x1E59 JUMP JUMPDEST JUMPDEST DUP2 DUP2 MUL SWAP1 POP JUMPDEST SWAP4 SWAP3 POP POP POP JUMP JUMPDEST PUSH0 PUSH2 0x20C3 DUP3 PUSH2 0x18C6 JUMP JUMPDEST SWAP2 POP PUSH2 0x20CE DUP4 PUSH2 0x18C6 JUMP JUMPDEST SWAP3 POP PUSH2 0x20FB PUSH32 0xFFFFFFFFFFFFFFFFFFFFFFFFFFFFFFFFFFFFFFFFFFFFFFFFFFFFFFFFFFFFFFFF DUP5 DUP5 PUSH2 0x1FE8 JUMP JUMPDEST SWAP1 POP SWAP3 SWAP2 POP POP JUMP INVALID LOG2 PUSH5 0x6970667358 0x22 SLT KECCAK256 0xD3 0x4E MSTORE 0xD2 0xB2 XOR 0xE 0xB8 0xB7 0x4E DUP14 0xEA EXTCODECOPY ADDRESS MCOPY BLOBBASEFEE 0x2D 0xD6 DUP15 ADDMOD 0xE5 0xD0 ADD 0xAD LOG4 EXP 0xD5 SWAP8 BLOBHASH SUB PUSH0 ISZERO PUSH5 0x736F6C6343 STOP ADDMOD SHL STOP CALLER PUSH4 0x6F6E7374 KECCAK256 PUSH4 0x69747920 RETURNDATASIZE KECCAK256 PUSH2 0x7267 PUSH20 0x5B305D3B636F6E737420617069526573706F6E73 PUSH6 0x203D20617761 PUSH10 0x742046756E6374696F6E PUSH20 0x2E6D616B654874747052657175657374287B7572 PUSH13 0x3A206068747470733A2F2F7774 PUSH21 0x722E696E2F247B636974797D3F666F726D61743D33 PUSH1 0x2C PUSH19 0x6573706F6E7365547970653A20277465787427 PUSH30 0x293B69662028617069526573706F6E73652E6572726F7229207B7468726F PUSH24 0x204572726F72282752657175657374206661696C65642729 EXTCODESIZE PUSH30 0x636F6E7374207B2064617461207D203D20617069526573706F6E73653B72 PUSH6 0x7475726E2046 PUSH22 0x6E6374696F6E732E656E636F6465537472696E672864 PUSH2 0x7461 0x29 EXTCODESIZE "
				},
				"gasEstimates": {
					"creation": {
						"codeDepositCost": "1701000",
						"executionCost": "infinite",
						"totalCost": "infinite"
					},
					"external": {
						"getTemperature(string)": "infinite",
						"handleOracleFulfillment(bytes32,bytes,bytes)": "infinite",
						"lastCity()": "infinite",
						"lastTemperature()": "infinite",
						"s_lastError()": "infinite",
						"s_lastRequestId()": "2490",
						"s_lastResponse()": "infinite",
						"s_subscriptionId()": "2514",
						"source()": "infinite"
					},
					"internal": {
						"fulfillRequest(bytes32,bytes memory,bytes memory)": "infinite"
					}
				},
				"methodIdentifiers": {
					"getTemperature(string)": "94d02941",
					"handleOracleFulfillment(bytes32,bytes,bytes)": "0ca76175",
					"lastCity()": "cd2b8d11",
					"lastTemperature()": "9fb51771",
					"s_lastError()": "4b0795a8",
					"s_lastRequestId()": "b1e21749",
					"s_lastResponse()": "3944ea3a",
					"s_subscriptionId()": "8ac00021",
					"source()": "67e828bf"
				}
			},
			"storageLayout": {
				"storage": [
					{
						"astId": 2258,
						"contract": "TemperatureFunctions.sol:TemperatureFunctions",
						"label": "s_lastRequestId",
						"offset": 0,
						"slot": "0",
						"type": "t_bytes32"
					},
					{
						"astId": 2260,
						"contract": "TemperatureFunctions.sol:TemperatureFunctions",
						"label": "s_lastResponse",
						"offset": 0,
						"slot": "1",
						"type": "t_bytes_storage"
					},
					{
						"astId": 2262,
						"contract": "TemperatureFunctions.sol:TemperatureFunctions",
						"label": "s_lastError",
						"offset": 0,
						"slot": "2",
						"type": "t_bytes_storage"
					},
					{
						"astId": 2282,
						"contract": "TemperatureFunctions.sol:TemperatureFunctions",
						"label": "DONID",
						"offset": 0,
						"slot": "3",
						"type": "t_bytes32"
					},
					{
						"astId": 2285,
						"contract": "TemperatureFunctions.sol:TemperatureFunctions",
						"label": "GAS",
						"offset": 0,
						"slot": "4",
						"type": "t_uint32"
					},
					{
						"astId": 2287,
						"contract": "TemperatureFunctions.sol:TemperatureFunctions",
						"label": "s_subscriptionId",
						"offset": 4,
						"slot": "4",
						"type": "t_uint64"
					},
					{
						"astId": 2290,
						"contract": "TemperatureFunctions.sol:TemperatureFunctions",
						"label": "source",
						"offset": 0,
						"slot": "5",
						"type": "t_string_storage"
					},
					{
						"astId": 2292,
						"contract": "TemperatureFunctions.sol:TemperatureFunctions",
						"label": "lastCity",
						"offset": 0,
						"slot": "6",
						"type": "t_string_storage"
					},
					{
						"astId": 2294,
						"contract": "TemperatureFunctions.sol:TemperatureFunctions",
						"label": "lastTemperature",
						"offset": 0,
						"slot": "7",
						"type": "t_string_storage"
					}
				],
				"types": {
					"t_bytes32": {
						"encoding": "inplace",
						"label": "bytes32",
						"numberOfBytes": "32"
					},
					"t_bytes_storage": {
						"encoding": "bytes",
						"label": "bytes",
						"numberOfBytes": "32"
					},
					"t_string_storage": {
						"encoding": "bytes",
						"label": "string",
						"numberOfBytes": "32"
					},
					"t_uint32": {
						"encoding": "inplace",
						"label": "uint32",
						"numberOfBytes": "4"
					},
					"t_uint64": {
						"encoding": "inplace",
						"label": "uint64",
						"numberOfBytes": "8"
					}
				}
			},
			"userdoc": {
				"kind": "user",
				"methods": {
					"handleOracleFulfillment(bytes32,bytes,bytes)": {
						"notice": "Chainlink Functions response handler called by the Functions Router during fullilment from the designated transmitter node in an OCR round."
					}
				},
				"version": 1
			}
		}
	}
}