{
	"@chainlink/contracts/src/v0.8/functions/dev/v1_0_0/libraries/FunctionsRequest.sol": {
		"FunctionsRequest": {
			"abi": [
				{
					"inputs": [],
					"name": "EmptyArgs",
					"type": "error"
				},
				{
					"inputs": [],
					"name": "EmptySecrets",
					"type": "error"
				},
				{
					"inputs": [],
					"name": "EmptySource",
					"type": "error"
				},
				{
					"inputs": [],
					"name": "NoInlineSecrets",
					"type": "error"
				},
				{
					"inputs": [],
					"name": "REQUEST_DATA_VERSION",
					"outputs": [
						{
							"internalType": "uint16",
							"name": "",
							"type": "uint16"
						}
					],
					"stateMutability": "view",
					"type": "function"
				}
			],
			"devdoc": {
				"kind": "dev",
				"methods": {},
				"title": "Library for encoding the input data of a Functions request into CBOR",
				"version": 1
			},
			"evm": {
				"assembly": "    /* \"@chainlink/contracts/src/v0.8/functions/dev/v1_0_0/libraries/FunctionsRequest.sol\":215:6301  library FunctionsRequest {... */\n  dataSize(sub_0)\n  dataOffset(sub_0)\n  0x0b\n  dup3\n  dup3\n  dup3\n  codecopy\n  dup1\n  mload\n  0x00\n  byte\n  0x73\n  eq\n  tag_1\n  jumpi\n  mstore(0x00, 0x4e487b7100000000000000000000000000000000000000000000000000000000)\n  mstore(0x04, 0x00)\n  revert(0x00, 0x24)\ntag_1:\n  mstore(0x00, address)\n  0x73\n  dup2\n  mstore8\n  dup3\n  dup2\n  return\nstop\n\nsub_0: assembly {\n        /* \"@chainlink/contracts/src/v0.8/functions/dev/v1_0_0/libraries/FunctionsRequest.sol\":215:6301  library FunctionsRequest {... */\n      eq(address, deployTimeAddress())\n      mstore(0x40, 0x80)\n      jumpi(tag_1, lt(calldatasize, 0x04))\n      shr(0xe0, calldataload(0x00))\n      dup1\n      0x5d641dfc\n      eq\n      tag_2\n      jumpi\n    tag_1:\n      revert(0x00, 0x00)\n        /* \"@chainlink/contracts/src/v0.8/functions/dev/v1_0_0/libraries/FunctionsRequest.sol\":279:326  uint16 public constant REQUEST_DATA_VERSION = 1 */\n    tag_2:\n      tag_3\n      tag_4\n      jump\t// in\n    tag_3:\n      mload(0x40)\n      tag_5\n      swap2\n      swap1\n      tag_6\n      jump\t// in\n    tag_5:\n      mload(0x40)\n      dup1\n      swap2\n      sub\n      swap1\n      return\n    tag_4:\n        /* \"@chainlink/contracts/src/v0.8/functions/dev/v1_0_0/libraries/FunctionsRequest.sol\":325:326  1 */\n      0x01\n        /* \"@chainlink/contracts/src/v0.8/functions/dev/v1_0_0/libraries/FunctionsRequest.sol\":279:326  uint16 public constant REQUEST_DATA_VERSION = 1 */\n      dup2\n      jump\t// out\n        /* \"#utility.yul\":7:96   */\n    tag_7:\n        /* \"#utility.yul\":43:50   */\n      0x00\n        /* \"#utility.yul\":83:89   */\n      0xffff\n        /* \"#utility.yul\":76:81   */\n      dup3\n        /* \"#utility.yul\":72:90   */\n      and\n        /* \"#utility.yul\":61:90   */\n      swap1\n      pop\n        /* \"#utility.yul\":7:96   */\n      swap2\n      swap1\n      pop\n      jump\t// out\n        /* \"#utility.yul\":102:225   */\n    tag_8:\n        /* \"#utility.yul\":195:218   */\n      tag_12\n        /* \"#utility.yul\":212:217   */\n      dup2\n        /* \"#utility.yul\":195:218   */\n      tag_7\n      jump\t// in\n    tag_12:\n        /* \"#utility.yul\":190:193   */\n      dup3\n        /* \"#utility.yul\":183:219   */\n      mstore\n        /* \"#utility.yul\":102:225   */\n      pop\n      pop\n      jump\t// out\n        /* \"#utility.yul\":231:465   */\n    tag_6:\n        /* \"#utility.yul\":330:334   */\n      0x00\n        /* \"#utility.yul\":368:370   */\n      0x20\n        /* \"#utility.yul\":357:366   */\n      dup3\n        /* \"#utility.yul\":353:371   */\n      add\n        /* \"#utility.yul\":345:371   */\n      swap1\n      pop\n        /* \"#utility.yul\":381:458   */\n      tag_14\n        /* \"#utility.yul\":455:456   */\n      0x00\n        /* \"#utility.yul\":444:453   */\n      dup4\n        /* \"#utility.yul\":440:457   */\n      add\n        /* \"#utility.yul\":431:437   */\n      dup5\n        /* \"#utility.yul\":381:458   */\n      tag_8\n      jump\t// in\n    tag_14:\n        /* \"#utility.yul\":231:465   */\n      swap3\n      swap2\n      pop\n      pop\n      jump\t// out\n\n    auxdata: 0xa2646970667358221220e0bb28dfc3e9d10bd87dfa5eff72d1b51469cbd290f000be61c5bd32fbada33c64736f6c634300081b0033\n}\n",
				"bytecode": {
					"linkReferences": {},
					"object": "60bc61004c600b8282823980515f1a6073146040577f4e487b71000000000000000000000000000000000000000000000000000000005f525f60045260245ffd5b305f52607381538281f3fe73000000000000000000000000000000000000000030146080604052600436106032575f3560e01c80635d641dfc146036575b5f5ffd5b603c6050565b60405160479190606f565b60405180910390f35b600181565b5f61ffff82169050919050565b6069816055565b82525050565b5f60208201905060805f8301846062565b9291505056fea2646970667358221220e0bb28dfc3e9d10bd87dfa5eff72d1b51469cbd290f000be61c5bd32fbada33c64736f6c634300081b0033",
					"opcodes": "PUSH1 0xBC PUSH2 0x4C PUSH1 0xB DUP3 DUP3 DUP3 CODECOPY DUP1 MLOAD PUSH0 BYTE PUSH1 0x73 EQ PUSH1 0x40 JUMPI PUSH32 0x4E487B7100000000000000000000000000000000000000000000000000000000 PUSH0 MSTORE PUSH0 PUSH1 0x4 MSTORE PUSH1 0x24 PUSH0 REVERT JUMPDEST ADDRESS PUSH0 MSTORE PUSH1 0x73 DUP2 MSTORE8 DUP3 DUP2 RETURN INVALID PUSH20 0x0 ADDRESS EQ PUSH1 0x80 PUSH1 0x40 MSTORE PUSH1 0x4 CALLDATASIZE LT PUSH1 0x32 JUMPI PUSH0 CALLDATALOAD PUSH1 0xE0 SHR DUP1 PUSH4 0x5D641DFC EQ PUSH1 0x36 JUMPI JUMPDEST PUSH0 PUSH0 REVERT JUMPDEST PUSH1 0x3C PUSH1 0x50 JUMP JUMPDEST PUSH1 0x40 MLOAD PUSH1 0x47 SWAP2 SWAP1 PUSH1 0x6F JUMP JUMPDEST PUSH1 0x40 MLOAD DUP1 SWAP2 SUB SWAP1 RETURN JUMPDEST PUSH1 0x1 DUP2 JUMP JUMPDEST PUSH0 PUSH2 0xFFFF DUP3 AND SWAP1 POP SWAP2 SWAP1 POP JUMP JUMPDEST PUSH1 0x69 DUP2 PUSH1 0x55 JUMP JUMPDEST DUP3 MSTORE POP POP JUMP JUMPDEST PUSH0 PUSH1 0x20 DUP3 ADD SWAP1 POP PUSH1 0x80 PUSH0 DUP4 ADD DUP5 PUSH1 0x62 JUMP JUMPDEST SWAP3 SWAP2 POP POP JUMP INVALID LOG2 PUSH5 0x6970667358 0x22 SLT KECCAK256 0xE0 0xBB 0x28 0xDF 0xC3 0xE9 0xD1 SIGNEXTEND 0xD8 PUSH30 0xFA5EFF72D1B51469CBD290F000BE61C5BD32FBADA33C64736F6C63430008 SHL STOP CALLER "
				},
				"gasEstimates": {
					"creation": {
						"codeDepositCost": "37600",
						"executionCost": "113",
						"totalCost": "37713"
					},
					"external": {
						"REQUEST_DATA_VERSION()": "293"
					},
					"internal": {
						"addDONHostedSecrets(struct FunctionsRequest.Request memory,uint8,uint64)": "infinite",
						"addSecretsReference(struct FunctionsRequest.Request memory,bytes memory)": "infinite",
						"encodeCBOR(struct FunctionsRequest.Request memory)": "infinite",
						"initializeRequest(struct FunctionsRequest.Request memory,enum FunctionsRequest.Location,enum FunctionsRequest.CodeLanguage,string memory)": "infinite",
						"initializeRequestForInlineJavaScript(struct FunctionsRequest.Request memory,string memory)": "infinite",
						"setArgs(struct FunctionsRequest.Request memory,string memory[] memory)": "infinite",
						"setBytesArgs(struct FunctionsRequest.Request memory,bytes memory[] memory)": "infinite"
					}
				},
				"methodIdentifiers": {
					"REQUEST_DATA_VERSION()": "5d641dfc"
				}
			},
			"storageLayout": {
				"storage": [],
				"types": null
			},
			"userdoc": {
				"kind": "user",
				"methods": {},
				"version": 1
			}
		}
	}
}