{
	"WeatherFunctions.sol": {
		"WeatherFunctions": {
			"abi": [
				{
					"inputs": [
						{
							"internalType": "uint64",
							"name": "_subscriptionId",
							"type": "uint64"
						}
					],
					"stateMutability": "nonpayable",
					"type": "constructor"
				},
				{
					"inputs": [],
					"name": "EmptyArgs",
					"type": "error"
				},
				{
					"inputs": [],
					"name": "EmptySource",
					"type": "error"
				},
				{
					"inputs": [],
					"name": "NoInlineSecrets",
					"type": "error"
				},
				{
					"inputs": [],
					"name": "OnlyRouterCanFulfill",
					"type": "error"
				},
				{
					"anonymous": false,
					"inputs": [
						{
							"indexed": true,
							"internalType": "bytes32",
							"name": "id",
							"type": "bytes32"
						}
					],
					"name": "RequestFulfilled",
					"type": "event"
				},
				{
					"anonymous": false,
					"inputs": [
						{
							"indexed": true,
							"internalType": "bytes32",
							"name": "id",
							"type": "bytes32"
						}
					],
					"name": "RequestSent",
					"type": "event"
				},
				{
					"anonymous": false,
					"inputs": [
						{
							"indexed": true,
							"internalType": "bytes32",
							"name": "requestId",
							"type": "bytes32"
						},
						{
							"indexed": false,
							"internalType": "string",
							"name": "temperature",
							"type": "string"
						},
						{
							"indexed": false,
							"internalType": "bytes",
							"name": "response",
							"type": "bytes"
						},
						{
							"indexed": false,
							"internalType": "bytes",
							"name": "err",
							"type": "bytes"
						}
					],
					"name": "Response",
					"type": "event"
				},
				{
					"inputs": [
						{
							"internalType": "address",
							"name": "",
							"type": "address"
						}
					],
					"name": "cities",
					"outputs": [
						{
							"internalType": "string",
							"name": "city",
							"type": "string"
						},
						{
							"internalType": "string",
							"name": "Temperature",
							"type": "string"
						},
						{
							"internalType": "uint256",
							"name": "timeStamp",
							"type": "uint256"
						}
					],
					"stateMutability": "view",
					"type": "function"
				},
				{
					"inputs": [
						{
							"internalType": "bytes32",
							"name": "",
							"type": "bytes32"
						}
					],
					"name": "getAdd",
					"outputs": [
						{
							"internalType": "address",
							"name": "",
							"type": "address"
						}
					],
					"stateMutability": "view",
					"type": "function"
				},
				{
					"inputs": [
						{
							"internalType": "bytes32",
							"name": "requestId",
							"type": "bytes32"
						},
						{
							"internalType": "bytes",
							"name": "response",
							"type": "bytes"
						},
						{
							"internalType": "bytes",
							"name": "err",
							"type": "bytes"
						}
					],
					"name": "handleOracleFulfillment",
					"outputs": [],
					"stateMutability": "nonpayable",
					"type": "function"
				},
				{
					"inputs": [],
					"name": "lastCity",
					"outputs": [
						{
							"internalType": "string",
							"name": "",
							"type": "string"
						}
					],
					"stateMutability": "view",
					"type": "function"
				},
				{
					"inputs": [],
					"name": "lastError",
					"outputs": [
						{
							"internalType": "bytes",
							"name": "",
							"type": "bytes"
						}
					],
					"stateMutability": "view",
					"type": "function"
				},
				{
					"inputs": [],
					"name": "lastRequestId",
					"outputs": [
						{
							"internalType": "bytes32",
							"name": "",
							"type": "bytes32"
						}
					],
					"stateMutability": "view",
					"type": "function"
				},
				{
					"inputs": [],
					"name": "lastResponse",
					"outputs": [
						{
							"internalType": "bytes",
							"name": "",
							"type": "bytes"
						}
					],
					"stateMutability": "view",
					"type": "function"
				},
				{
					"inputs": [],
					"name": "lastSender",
					"outputs": [
						{
							"internalType": "address",
							"name": "",
							"type": "address"
						}
					],
					"stateMutability": "view",
					"type": "function"
				},
				{
					"inputs": [],
					"name": "lastTemperature",
					"outputs": [
						{
							"internalType": "string",
							"name": "",
							"type": "string"
						}
					],
					"stateMutability": "view",
					"type": "function"
				},
				{
					"inputs": [
						{
							"internalType": "uint256",
							"name": "",
							"type": "uint256"
						}
					],
					"name": "requestIds",
					"outputs": [
						{
							"internalType": "bytes32",
							"name": "",
							"type": "bytes32"
						}
					],
					"stateMutability": "view",
					"type": "function"
				},
				{
					"inputs": [
						{
							"internalType": "bytes32",
							"name": "",
							"type": "bytes32"
						}
					],
					"name": "requests",
					"outputs": [
						{
							"internalType": "bool",
							"name": "fulfilled",
							"type": "bool"
						},
						{
							"internalType": "bool",
							"name": "exists",
							"type": "bool"
						},
						{
							"internalType": "bytes",
							"name": "response",
							"type": "bytes"
						},
						{
							"internalType": "bytes",
							"name": "err",
							"type": "bytes"
						}
					],
					"stateMutability": "view",
					"type": "function"
				},
				{
					"inputs": [
						{
							"internalType": "string",
							"name": "_city",
							"type": "string"
						}
					],
					"name": "sendreq",
					"outputs": [
						{
							"internalType": "bytes32",
							"name": "requestId",
							"type": "bytes32"
						}
					],
					"stateMutability": "nonpayable",
					"type": "function"
				},
				{
					"inputs": [],
					"name": "source",
					"outputs": [
						{
							"internalType": "string",
							"name": "",
							"type": "string"
						}
					],
					"stateMutability": "view",
					"type": "function"
				},
				{
					"inputs": [],
					"name": "subscriptionId",
					"outputs": [
						{
							"internalType": "uint64",
							"name": "",
							"type": "uint64"
						}
					],
					"stateMutability": "view",
					"type": "function"
				}
			],
			"devdoc": {
				"kind": "dev",
				"methods": {
					"handleOracleFulfillment(bytes32,bytes,bytes)": {
						"details": "Either response or error parameter will be set, but never both.",
						"params": {
							"err": "Aggregated error either from the request's source code or from the execution pipeline.",
							"requestId": "The requestId returned by FunctionsClient.sendRequest().",
							"response": "Aggregated response from the request's source code."
						}
					}
				},
				"version": 1
			},
			"evm": {
				"assembly": "    /* \"WeatherFunctions.sol\":305:4094  contract WeatherFunctions is FunctionsClient {... */\n  mstore(0x40, 0xa0)\n    /* \"WeatherFunctions.sol\":1168:1210  0xA9d587a00A31A52Ed70D6026794a8FC5E2F5dCb0 */\n  0xa9d587a00a31a52ed70d6026794a8fc5e2f5dcb0\n    /* \"WeatherFunctions.sol\":1151:1210  address router = 0xA9d587a00A31A52Ed70D6026794a8FC5E2F5dCb0 */\n  0x05\n  exp(0x0100, 0x00)\n  dup2\n  sload\n  dup2\n  0xffffffffffffffffffffffffffffffffffffffff\n  mul\n  not\n  and\n  swap1\n  dup4\n  0xffffffffffffffffffffffffffffffffffffffff\n  and\n  mul\n  or\n  swap1\n  sstore\n  pop\n    /* \"WeatherFunctions.sol\":1242:1308  0x66756e2d6176616c616e6368652d66756a692d31000000000000000000000000 */\n  0x66756e2d6176616c616e6368652d66756a692d31000000000000000000000000\n    /* \"WeatherFunctions.sol\":1217:1308  bytes32 donID =... */\n  0x00\n  shl\n  0x06\n  sstore\n    /* \"WeatherFunctions.sol\":1361:1367  300000 */\n  0x0493e0\n    /* \"WeatherFunctions.sol\":1343:1367  uint32 gasLimit = 300000 */\n  0x07\n  exp(0x0100, 0x00)\n  dup2\n  sload\n  dup2\n  0xffffffff\n  mul\n  not\n  and\n  swap1\n  dup4\n  0xffffffff\n  and\n  mul\n  or\n  swap1\n  sstore\n  pop\n    /* \"WeatherFunctions.sol\":1474:1875  string public source =... */\n  mload(0x40)\n  dup1\n  0x0140\n  add\n  0x40\n  mstore\n  dup1\n  0x0103\n  dup2\n  mstore\n  0x20\n  add\n  data_6ed21e9c87a8dfef6fdf85f2f7bdf69a9b42c764c66081ff64c14457b3f6fcc6\n  0x0103\n  swap2\n  codecopy\n  0x08\n  swap1\n  dup2\n  tag_1\n  swap2\n  swap1\n  tag_2\n  jump\t// in\ntag_1:\n  pop\n    /* \"WeatherFunctions.sol\":2203:2310  constructor(uint64 _subscriptionId)FunctionsClient(router){... */\n  callvalue\n  dup1\n  iszero\n  tag_3\n  jumpi\n  revert(0x00, 0x00)\ntag_3:\n  pop\n  mload(0x40)\n  sub(codesize, bytecodeSize)\n  dup1\n  bytecodeSize\n  dup4\n  codecopy\n  dup2\n  dup2\n  add\n  0x40\n  mstore\n  dup2\n  add\n  swap1\n  tag_4\n  swap2\n  swap1\n  tag_5\n  jump\t// in\ntag_4:\n    /* \"WeatherFunctions.sol\":2254:2260  router */\n  0x05\n  0x00\n  swap1\n  sload\n  swap1\n  0x0100\n  exp\n  swap1\n  div\n  0xffffffffffffffffffffffffffffffffffffffff\n  and\n    /* \"@chainlink/contracts/src/v0.8/functions/dev/v1_0_0/FunctionsClient.sol\":764:770  router */\n  dup1\n    /* \"@chainlink/contracts/src/v0.8/functions/dev/v1_0_0/FunctionsClient.sol\":736:771  i_router = IFunctionsRouter(router) */\n  0xffffffffffffffffffffffffffffffffffffffff\n  and\n  0x80\n  dup2\n  0xffffffffffffffffffffffffffffffffffffffff\n  and\n  dup2\n  mstore\n  pop\n  pop\n    /* \"@chainlink/contracts/src/v0.8/functions/dev/v1_0_0/FunctionsClient.sol\":702:776  constructor(address router) {... */\n  pop\n    /* \"WeatherFunctions.sol\":2287:2302  _subscriptionId */\n  dup1\n    /* \"WeatherFunctions.sol\":2272:2286  subscriptionId */\n  0x07\n  0x04\n    /* \"WeatherFunctions.sol\":2272:2302  subscriptionId=_subscriptionId */\n  0x0100\n  exp\n  dup2\n  sload\n  dup2\n  0xffffffffffffffff\n  mul\n  not\n  and\n  swap1\n  dup4\n  0xffffffffffffffff\n  and\n  mul\n  or\n  swap1\n  sstore\n  pop\n    /* \"WeatherFunctions.sol\":2203:2310  constructor(uint64 _subscriptionId)FunctionsClient(router){... */\n  pop\n    /* \"WeatherFunctions.sol\":305:4094  contract WeatherFunctions is FunctionsClient {... */\n  jump(tag_10)\n    /* \"#utility.yul\":7:106   */\ntag_11:\n    /* \"#utility.yul\":59:65   */\n  0x00\n    /* \"#utility.yul\":93:98   */\n  dup2\n    /* \"#utility.yul\":87:99   */\n  mload\n    /* \"#utility.yul\":77:99   */\n  swap1\n  pop\n    /* \"#utility.yul\":7:106   */\n  swap2\n  swap1\n  pop\n  jump\t// out\n    /* \"#utility.yul\":112:292   */\ntag_12:\n    /* \"#utility.yul\":160:237   */\n  0x4e487b7100000000000000000000000000000000000000000000000000000000\n    /* \"#utility.yul\":157:158   */\n  0x00\n    /* \"#utility.yul\":150:238   */\n  mstore\n    /* \"#utility.yul\":257:261   */\n  0x41\n    /* \"#utility.yul\":254:255   */\n  0x04\n    /* \"#utility.yul\":247:262   */\n  mstore\n    /* \"#utility.yul\":281:285   */\n  0x24\n    /* \"#utility.yul\":278:279   */\n  0x00\n    /* \"#utility.yul\":271:286   */\n  revert\n    /* \"#utility.yul\":298:478   */\ntag_13:\n    /* \"#utility.yul\":346:423   */\n  0x4e487b7100000000000000000000000000000000000000000000000000000000\n    /* \"#utility.yul\":343:344   */\n  0x00\n    /* \"#utility.yul\":336:424   */\n  mstore\n    /* \"#utility.yul\":443:447   */\n  0x22\n    /* \"#utility.yul\":440:441   */\n  0x04\n    /* \"#utility.yul\":433:448   */\n  mstore\n    /* \"#utility.yul\":467:471   */\n  0x24\n    /* \"#utility.yul\":464:465   */\n  0x00\n    /* \"#utility.yul\":457:472   */\n  revert\n    /* \"#utility.yul\":484:804   */\ntag_14:\n    /* \"#utility.yul\":528:534   */\n  0x00\n    /* \"#utility.yul\":565:566   */\n  0x02\n    /* \"#utility.yul\":559:563   */\n  dup3\n    /* \"#utility.yul\":555:567   */\n  div\n    /* \"#utility.yul\":545:567   */\n  swap1\n  pop\n    /* \"#utility.yul\":612:613   */\n  0x01\n    /* \"#utility.yul\":606:610   */\n  dup3\n    /* \"#utility.yul\":602:614   */\n  and\n    /* \"#utility.yul\":633:651   */\n  dup1\n    /* \"#utility.yul\":623:704   */\n  tag_42\n  jumpi\n    /* \"#utility.yul\":689:693   */\n  0x7f\n    /* \"#utility.yul\":681:687   */\n  dup3\n    /* \"#utility.yul\":677:694   */\n  and\n    /* \"#utility.yul\":667:694   */\n  swap2\n  pop\n    /* \"#utility.yul\":623:704   */\ntag_42:\n    /* \"#utility.yul\":751:753   */\n  0x20\n    /* \"#utility.yul\":743:749   */\n  dup3\n    /* \"#utility.yul\":740:754   */\n  lt\n    /* \"#utility.yul\":720:738   */\n  dup2\n    /* \"#utility.yul\":717:755   */\n  sub\n    /* \"#utility.yul\":714:798   */\n  tag_43\n  jumpi\n    /* \"#utility.yul\":770:788   */\n  tag_44\n  tag_13\n  jump\t// in\ntag_44:\n    /* \"#utility.yul\":714:798   */\ntag_43:\n    /* \"#utility.yul\":535:804   */\n  pop\n    /* \"#utility.yul\":484:804   */\n  swap2\n  swap1\n  pop\n  jump\t// out\n    /* \"#utility.yul\":810:951   */\ntag_15:\n    /* \"#utility.yul\":859:863   */\n  0x00\n    /* \"#utility.yul\":882:885   */\n  dup2\n    /* \"#utility.yul\":874:885   */\n  swap1\n  pop\n    /* \"#utility.yul\":905:908   */\n  dup2\n    /* \"#utility.yul\":902:903   */\n  0x00\n    /* \"#utility.yul\":895:909   */\n  mstore\n    /* \"#utility.yul\":939:943   */\n  0x20\n    /* \"#utility.yul\":936:937   */\n  0x00\n    /* \"#utility.yul\":926:944   */\n  keccak256\n    /* \"#utility.yul\":918:944   */\n  swap1\n  pop\n    /* \"#utility.yul\":810:951   */\n  swap2\n  swap1\n  pop\n  jump\t// out\n    /* \"#utility.yul\":957:1050   */\ntag_16:\n    /* \"#utility.yul\":994:1000   */\n  0x00\n    /* \"#utility.yul\":1041:1043   */\n  0x20\n    /* \"#utility.yul\":1036:1038   */\n  0x1f\n    /* \"#utility.yul\":1029:1034   */\n  dup4\n    /* \"#utility.yul\":1025:1039   */\n  add\n    /* \"#utility.yul\":1021:1044   */\n  div\n    /* \"#utility.yul\":1011:1044   */\n  swap1\n  pop\n    /* \"#utility.yul\":957:1050   */\n  swap2\n  swap1\n  pop\n  jump\t// out\n    /* \"#utility.yul\":1056:1163   */\ntag_17:\n    /* \"#utility.yul\":1100:1108   */\n  0x00\n    /* \"#utility.yul\":1150:1155   */\n  dup3\n    /* \"#utility.yul\":1144:1148   */\n  dup3\n    /* \"#utility.yul\":1140:1156   */\n  shl\n    /* \"#utility.yul\":1119:1156   */\n  swap1\n  pop\n    /* \"#utility.yul\":1056:1163   */\n  swap3\n  swap2\n  pop\n  pop\n  jump\t// out\n    /* \"#utility.yul\":1169:1562   */\ntag_18:\n    /* \"#utility.yul\":1238:1244   */\n  0x00\n    /* \"#utility.yul\":1288:1289   */\n  0x08\n    /* \"#utility.yul\":1276:1286   */\n  dup4\n    /* \"#utility.yul\":1272:1290   */\n  mul\n    /* \"#utility.yul\":1311:1408   */\n  tag_49\n    /* \"#utility.yul\":1341:1407   */\n  0xffffffffffffffffffffffffffffffffffffffffffffffffffffffffffffffff\n    /* \"#utility.yul\":1330:1339   */\n  dup3\n    /* \"#utility.yul\":1311:1408   */\n  tag_17\n  jump\t// in\ntag_49:\n    /* \"#utility.yul\":1429:1468   */\n  tag_50\n    /* \"#utility.yul\":1459:1467   */\n  dup7\n    /* \"#utility.yul\":1448:1457   */\n  dup4\n    /* \"#utility.yul\":1429:1468   */\n  tag_17\n  jump\t// in\ntag_50:\n    /* \"#utility.yul\":1417:1468   */\n  swap6\n  pop\n    /* \"#utility.yul\":1501:1505   */\n  dup1\n    /* \"#utility.yul\":1497:1506   */\n  not\n    /* \"#utility.yul\":1490:1495   */\n  dup5\n    /* \"#utility.yul\":1486:1507   */\n  and\n    /* \"#utility.yul\":1477:1507   */\n  swap4\n  pop\n    /* \"#utility.yul\":1550:1554   */\n  dup1\n    /* \"#utility.yul\":1540:1548   */\n  dup7\n    /* \"#utility.yul\":1536:1555   */\n  and\n    /* \"#utility.yul\":1529:1534   */\n  dup5\n    /* \"#utility.yul\":1526:1556   */\n  or\n    /* \"#utility.yul\":1516:1556   */\n  swap3\n  pop\n    /* \"#utility.yul\":1245:1562   */\n  pop\n  pop\n    /* \"#utility.yul\":1169:1562   */\n  swap4\n  swap3\n  pop\n  pop\n  pop\n  jump\t// out\n    /* \"#utility.yul\":1568:1645   */\ntag_19:\n    /* \"#utility.yul\":1605:1612   */\n  0x00\n    /* \"#utility.yul\":1634:1639   */\n  dup2\n    /* \"#utility.yul\":1623:1639   */\n  swap1\n  pop\n    /* \"#utility.yul\":1568:1645   */\n  swap2\n  swap1\n  pop\n  jump\t// out\n    /* \"#utility.yul\":1651:1711   */\ntag_20:\n    /* \"#utility.yul\":1679:1682   */\n  0x00\n    /* \"#utility.yul\":1700:1705   */\n  dup2\n    /* \"#utility.yul\":1693:1705   */\n  swap1\n  pop\n    /* \"#utility.yul\":1651:1711   */\n  swap2\n  swap1\n  pop\n  jump\t// out\n    /* \"#utility.yul\":1717:1859   */\ntag_21:\n    /* \"#utility.yul\":1767:1776   */\n  0x00\n    /* \"#utility.yul\":1800:1853   */\n  tag_54\n    /* \"#utility.yul\":1818:1852   */\n  tag_55\n    /* \"#utility.yul\":1827:1851   */\n  tag_56\n    /* \"#utility.yul\":1845:1850   */\n  dup5\n    /* \"#utility.yul\":1827:1851   */\n  tag_19\n  jump\t// in\ntag_56:\n    /* \"#utility.yul\":1818:1852   */\n  tag_20\n  jump\t// in\ntag_55:\n    /* \"#utility.yul\":1800:1853   */\n  tag_19\n  jump\t// in\ntag_54:\n    /* \"#utility.yul\":1787:1853   */\n  swap1\n  pop\n    /* \"#utility.yul\":1717:1859   */\n  swap2\n  swap1\n  pop\n  jump\t// out\n    /* \"#utility.yul\":1865:1940   */\ntag_22:\n    /* \"#utility.yul\":1908:1911   */\n  0x00\n    /* \"#utility.yul\":1929:1934   */\n  dup2\n    /* \"#utility.yul\":1922:1934   */\n  swap1\n  pop\n    /* \"#utility.yul\":1865:1940   */\n  swap2\n  swap1\n  pop\n  jump\t// out\n    /* \"#utility.yul\":1946:2215   */\ntag_23:\n    /* \"#utility.yul\":2056:2095   */\n  tag_59\n    /* \"#utility.yul\":2087:2094   */\n  dup4\n    /* \"#utility.yul\":2056:2095   */\n  tag_21\n  jump\t// in\ntag_59:\n    /* \"#utility.yul\":2117:2208   */\n  tag_60\n    /* \"#utility.yul\":2166:2207   */\n  tag_61\n    /* \"#utility.yul\":2190:2206   */\n  dup3\n    /* \"#utility.yul\":2166:2207   */\n  tag_22\n  jump\t// in\ntag_61:\n    /* \"#utility.yul\":2158:2164   */\n  dup5\n    /* \"#utility.yul\":2151:2155   */\n  dup5\n    /* \"#utility.yul\":2145:2156   */\n  sload\n    /* \"#utility.yul\":2117:2208   */\n  tag_18\n  jump\t// in\ntag_60:\n    /* \"#utility.yul\":2111:2115   */\n  dup3\n    /* \"#utility.yul\":2104:2209   */\n  sstore\n    /* \"#utility.yul\":2022:2215   */\n  pop\n    /* \"#utility.yul\":1946:2215   */\n  pop\n  pop\n  pop\n  jump\t// out\n    /* \"#utility.yul\":2221:2294   */\ntag_24:\n    /* \"#utility.yul\":2266:2269   */\n  0x00\n    /* \"#utility.yul\":2287:2288   */\n  0x00\n    /* \"#utility.yul\":2280:2288   */\n  swap1\n  pop\n    /* \"#utility.yul\":2221:2294   */\n  swap1\n  jump\t// out\n    /* \"#utility.yul\":2300:2489   */\ntag_25:\n    /* \"#utility.yul\":2377:2409   */\n  tag_64\n  tag_24\n  jump\t// in\ntag_64:\n    /* \"#utility.yul\":2418:2483   */\n  tag_65\n    /* \"#utility.yul\":2476:2482   */\n  dup2\n    /* \"#utility.yul\":2468:2474   */\n  dup5\n    /* \"#utility.yul\":2462:2466   */\n  dup5\n    /* \"#utility.yul\":2418:2483   */\n  tag_23\n  jump\t// in\ntag_65:\n    /* \"#utility.yul\":2353:2489   */\n  pop\n    /* \"#utility.yul\":2300:2489   */\n  pop\n  pop\n  jump\t// out\n    /* \"#utility.yul\":2495:2681   */\ntag_26:\n    /* \"#utility.yul\":2555:2675   */\ntag_67:\n    /* \"#utility.yul\":2572:2575   */\n  dup2\n    /* \"#utility.yul\":2565:2570   */\n  dup2\n    /* \"#utility.yul\":2562:2576   */\n  lt\n    /* \"#utility.yul\":2555:2675   */\n  iszero\n  tag_69\n  jumpi\n    /* \"#utility.yul\":2626:2665   */\n  tag_70\n    /* \"#utility.yul\":2663:2664   */\n  0x00\n    /* \"#utility.yul\":2656:2661   */\n  dup3\n    /* \"#utility.yul\":2626:2665   */\n  tag_25\n  jump\t// in\ntag_70:\n    /* \"#utility.yul\":2599:2600   */\n  0x01\n    /* \"#utility.yul\":2592:2597   */\n  dup2\n    /* \"#utility.yul\":2588:2601   */\n  add\n    /* \"#utility.yul\":2579:2601   */\n  swap1\n  pop\n    /* \"#utility.yul\":2555:2675   */\n  jump(tag_67)\ntag_69:\n    /* \"#utility.yul\":2495:2681   */\n  pop\n  pop\n  jump\t// out\n    /* \"#utility.yul\":2687:3230   */\ntag_27:\n    /* \"#utility.yul\":2788:2790   */\n  0x1f\n    /* \"#utility.yul\":2783:2786   */\n  dup3\n    /* \"#utility.yul\":2780:2791   */\n  gt\n    /* \"#utility.yul\":2777:3223   */\n  iszero\n  tag_72\n  jumpi\n    /* \"#utility.yul\":2822:2860   */\n  tag_73\n    /* \"#utility.yul\":2854:2859   */\n  dup2\n    /* \"#utility.yul\":2822:2860   */\n  tag_15\n  jump\t// in\ntag_73:\n    /* \"#utility.yul\":2906:2935   */\n  tag_74\n    /* \"#utility.yul\":2924:2934   */\n  dup5\n    /* \"#utility.yul\":2906:2935   */\n  tag_16\n  jump\t// in\ntag_74:\n    /* \"#utility.yul\":2896:2904   */\n  dup2\n    /* \"#utility.yul\":2892:2936   */\n  add\n    /* \"#utility.yul\":3089:3091   */\n  0x20\n    /* \"#utility.yul\":3077:3087   */\n  dup6\n    /* \"#utility.yul\":3074:3092   */\n  lt\n    /* \"#utility.yul\":3071:3120   */\n  iszero\n  tag_75\n  jumpi\n    /* \"#utility.yul\":3110:3118   */\n  dup2\n    /* \"#utility.yul\":3095:3118   */\n  swap1\n  pop\n    /* \"#utility.yul\":3071:3120   */\ntag_75:\n    /* \"#utility.yul\":3133:3213   */\n  tag_76\n    /* \"#utility.yul\":3189:3211   */\n  tag_77\n    /* \"#utility.yul\":3207:3210   */\n  dup6\n    /* \"#utility.yul\":3189:3211   */\n  tag_16\n  jump\t// in\ntag_77:\n    /* \"#utility.yul\":3179:3187   */\n  dup4\n    /* \"#utility.yul\":3175:3212   */\n  add\n    /* \"#utility.yul\":3162:3173   */\n  dup3\n    /* \"#utility.yul\":3133:3213   */\n  tag_26\n  jump\t// in\ntag_76:\n    /* \"#utility.yul\":2792:3223   */\n  pop\n  pop\n    /* \"#utility.yul\":2777:3223   */\ntag_72:\n    /* \"#utility.yul\":2687:3230   */\n  pop\n  pop\n  pop\n  jump\t// out\n    /* \"#utility.yul\":3236:3353   */\ntag_28:\n    /* \"#utility.yul\":3290:3298   */\n  0x00\n    /* \"#utility.yul\":3340:3345   */\n  dup3\n    /* \"#utility.yul\":3334:3338   */\n  dup3\n    /* \"#utility.yul\":3330:3346   */\n  shr\n    /* \"#utility.yul\":3309:3346   */\n  swap1\n  pop\n    /* \"#utility.yul\":3236:3353   */\n  swap3\n  swap2\n  pop\n  pop\n  jump\t// out\n    /* \"#utility.yul\":3359:3528   */\ntag_29:\n    /* \"#utility.yul\":3403:3409   */\n  0x00\n    /* \"#utility.yul\":3436:3487   */\n  tag_80\n    /* \"#utility.yul\":3484:3485   */\n  0x00\n    /* \"#utility.yul\":3480:3486   */\n  not\n    /* \"#utility.yul\":3472:3477   */\n  dup5\n    /* \"#utility.yul\":3469:3470   */\n  0x08\n    /* \"#utility.yul\":3465:3478   */\n  mul\n    /* \"#utility.yul\":3436:3487   */\n  tag_28\n  jump\t// in\ntag_80:\n    /* \"#utility.yul\":3432:3488   */\n  not\n    /* \"#utility.yul\":3517:3521   */\n  dup1\n    /* \"#utility.yul\":3511:3515   */\n  dup4\n    /* \"#utility.yul\":3507:3522   */\n  and\n    /* \"#utility.yul\":3497:3522   */\n  swap2\n  pop\n    /* \"#utility.yul\":3410:3528   */\n  pop\n    /* \"#utility.yul\":3359:3528   */\n  swap3\n  swap2\n  pop\n  pop\n  jump\t// out\n    /* \"#utility.yul\":3533:3828   */\ntag_30:\n    /* \"#utility.yul\":3609:3613   */\n  0x00\n    /* \"#utility.yul\":3755:3784   */\n  tag_82\n    /* \"#utility.yul\":3780:3783   */\n  dup4\n    /* \"#utility.yul\":3774:3778   */\n  dup4\n    /* \"#utility.yul\":3755:3784   */\n  tag_29\n  jump\t// in\ntag_82:\n    /* \"#utility.yul\":3747:3784   */\n  swap2\n  pop\n    /* \"#utility.yul\":3817:3820   */\n  dup3\n    /* \"#utility.yul\":3814:3815   */\n  0x02\n    /* \"#utility.yul\":3810:3821   */\n  mul\n    /* \"#utility.yul\":3804:3808   */\n  dup3\n    /* \"#utility.yul\":3801:3822   */\n  or\n    /* \"#utility.yul\":3793:3822   */\n  swap1\n  pop\n    /* \"#utility.yul\":3533:3828   */\n  swap3\n  swap2\n  pop\n  pop\n  jump\t// out\n    /* \"#utility.yul\":3833:5228   */\ntag_2:\n    /* \"#utility.yul\":3950:3987   */\n  tag_84\n    /* \"#utility.yul\":3983:3986   */\n  dup3\n    /* \"#utility.yul\":3950:3987   */\n  tag_11\n  jump\t// in\ntag_84:\n    /* \"#utility.yul\":4052:4070   */\n  0xffffffffffffffff\n    /* \"#utility.yul\":4044:4050   */\n  dup2\n    /* \"#utility.yul\":4041:4071   */\n  gt\n    /* \"#utility.yul\":4038:4094   */\n  iszero\n  tag_85\n  jumpi\n    /* \"#utility.yul\":4074:4092   */\n  tag_86\n  tag_12\n  jump\t// in\ntag_86:\n    /* \"#utility.yul\":4038:4094   */\ntag_85:\n    /* \"#utility.yul\":4118:4156   */\n  tag_87\n    /* \"#utility.yul\":4150:4154   */\n  dup3\n    /* \"#utility.yul\":4144:4155   */\n  sload\n    /* \"#utility.yul\":4118:4156   */\n  tag_14\n  jump\t// in\ntag_87:\n    /* \"#utility.yul\":4203:4270   */\n  tag_88\n    /* \"#utility.yul\":4263:4269   */\n  dup3\n    /* \"#utility.yul\":4255:4261   */\n  dup3\n    /* \"#utility.yul\":4249:4253   */\n  dup6\n    /* \"#utility.yul\":4203:4270   */\n  tag_27\n  jump\t// in\ntag_88:\n    /* \"#utility.yul\":4297:4298   */\n  0x00\n    /* \"#utility.yul\":4321:4325   */\n  0x20\n    /* \"#utility.yul\":4308:4325   */\n  swap1\n  pop\n    /* \"#utility.yul\":4353:4355   */\n  0x1f\n    /* \"#utility.yul\":4345:4351   */\n  dup4\n    /* \"#utility.yul\":4342:4356   */\n  gt\n    /* \"#utility.yul\":4370:4371   */\n  0x01\n    /* \"#utility.yul\":4365:4983   */\n  dup2\n  eq\n  tag_90\n  jumpi\n    /* \"#utility.yul\":5027:5028   */\n  0x00\n    /* \"#utility.yul\":5044:5050   */\n  dup5\n    /* \"#utility.yul\":5041:5118   */\n  iszero\n  tag_91\n  jumpi\n    /* \"#utility.yul\":5093:5102   */\n  dup3\n    /* \"#utility.yul\":5088:5091   */\n  dup8\n    /* \"#utility.yul\":5084:5103   */\n  add\n    /* \"#utility.yul\":5078:5104   */\n  mload\n    /* \"#utility.yul\":5069:5104   */\n  swap1\n  pop\n    /* \"#utility.yul\":5041:5118   */\ntag_91:\n    /* \"#utility.yul\":5144:5211   */\n  tag_92\n    /* \"#utility.yul\":5204:5210   */\n  dup6\n    /* \"#utility.yul\":5197:5202   */\n  dup3\n    /* \"#utility.yul\":5144:5211   */\n  tag_30\n  jump\t// in\ntag_92:\n    /* \"#utility.yul\":5138:5142   */\n  dup7\n    /* \"#utility.yul\":5131:5212   */\n  sstore\n    /* \"#utility.yul\":5000:5222   */\n  pop\n    /* \"#utility.yul\":4335:5222   */\n  jump(tag_89)\n    /* \"#utility.yul\":4365:4983   */\ntag_90:\n    /* \"#utility.yul\":4417:4421   */\n  0x1f\n    /* \"#utility.yul\":4413:4422   */\n  not\n    /* \"#utility.yul\":4405:4411   */\n  dup5\n    /* \"#utility.yul\":4401:4423   */\n  and\n    /* \"#utility.yul\":4451:4488   */\n  tag_93\n    /* \"#utility.yul\":4483:4487   */\n  dup7\n    /* \"#utility.yul\":4451:4488   */\n  tag_15\n  jump\t// in\ntag_93:\n    /* \"#utility.yul\":4510:4511   */\n  0x00\n    /* \"#utility.yul\":4524:4732   */\ntag_94:\n    /* \"#utility.yul\":4538:4545   */\n  dup3\n    /* \"#utility.yul\":4535:4536   */\n  dup2\n    /* \"#utility.yul\":4532:4546   */\n  lt\n    /* \"#utility.yul\":4524:4732   */\n  iszero\n  tag_96\n  jumpi\n    /* \"#utility.yul\":4617:4626   */\n  dup5\n    /* \"#utility.yul\":4612:4615   */\n  dup10\n    /* \"#utility.yul\":4608:4627   */\n  add\n    /* \"#utility.yul\":4602:4628   */\n  mload\n    /* \"#utility.yul\":4594:4600   */\n  dup3\n    /* \"#utility.yul\":4587:4629   */\n  sstore\n    /* \"#utility.yul\":4668:4669   */\n  0x01\n    /* \"#utility.yul\":4660:4666   */\n  dup3\n    /* \"#utility.yul\":4656:4670   */\n  add\n    /* \"#utility.yul\":4646:4670   */\n  swap2\n  pop\n    /* \"#utility.yul\":4715:4717   */\n  0x20\n    /* \"#utility.yul\":4704:4713   */\n  dup6\n    /* \"#utility.yul\":4700:4718   */\n  add\n    /* \"#utility.yul\":4687:4718   */\n  swap5\n  pop\n    /* \"#utility.yul\":4561:4565   */\n  0x20\n    /* \"#utility.yul\":4558:4559   */\n  dup2\n    /* \"#utility.yul\":4554:4566   */\n  add\n    /* \"#utility.yul\":4549:4566   */\n  swap1\n  pop\n    /* \"#utility.yul\":4524:4732   */\n  jump(tag_94)\ntag_96:\n    /* \"#utility.yul\":4760:4766   */\n  dup7\n    /* \"#utility.yul\":4751:4758   */\n  dup4\n    /* \"#utility.yul\":4748:4767   */\n  lt\n    /* \"#utility.yul\":4745:4924   */\n  iszero\n  tag_97\n  jumpi\n    /* \"#utility.yul\":4818:4827   */\n  dup5\n    /* \"#utility.yul\":4813:4816   */\n  dup10\n    /* \"#utility.yul\":4809:4828   */\n  add\n    /* \"#utility.yul\":4803:4829   */\n  mload\n    /* \"#utility.yul\":4861:4909   */\n  tag_98\n    /* \"#utility.yul\":4903:4907   */\n  0x1f\n    /* \"#utility.yul\":4895:4901   */\n  dup10\n    /* \"#utility.yul\":4891:4908   */\n  and\n    /* \"#utility.yul\":4880:4889   */\n  dup3\n    /* \"#utility.yul\":4861:4909   */\n  tag_29\n  jump\t// in\ntag_98:\n    /* \"#utility.yul\":4853:4859   */\n  dup4\n    /* \"#utility.yul\":4846:4910   */\n  sstore\n    /* \"#utility.yul\":4768:4924   */\n  pop\n    /* \"#utility.yul\":4745:4924   */\ntag_97:\n    /* \"#utility.yul\":4970:4971   */\n  0x01\n    /* \"#utility.yul\":4966:4967   */\n  0x02\n    /* \"#utility.yul\":4958:4964   */\n  dup9\n    /* \"#utility.yul\":4954:4968   */\n  mul\n    /* \"#utility.yul\":4950:4972   */\n  add\n    /* \"#utility.yul\":4944:4948   */\n  dup9\n    /* \"#utility.yul\":4937:4973   */\n  sstore\n    /* \"#utility.yul\":4372:4983   */\n  pop\n  pop\n  pop\n    /* \"#utility.yul\":4335:5222   */\ntag_89:\n  pop\n    /* \"#utility.yul\":3925:5228   */\n  pop\n  pop\n  pop\n    /* \"#utility.yul\":3833:5228   */\n  pop\n  pop\n  jump\t// out\n    /* \"#utility.yul\":5315:5432   */\ntag_32:\n    /* \"#utility.yul\":5424:5425   */\n  0x00\n    /* \"#utility.yul\":5421:5422   */\n  0x00\n    /* \"#utility.yul\":5414:5426   */\n  revert\n    /* \"#utility.yul\":5561:5662   */\ntag_34:\n    /* \"#utility.yul\":5597:5604   */\n  0x00\n    /* \"#utility.yul\":5637:5655   */\n  0xffffffffffffffff\n    /* \"#utility.yul\":5630:5635   */\n  dup3\n    /* \"#utility.yul\":5626:5656   */\n  and\n    /* \"#utility.yul\":5615:5656   */\n  swap1\n  pop\n    /* \"#utility.yul\":5561:5662   */\n  swap2\n  swap1\n  pop\n  jump\t// out\n    /* \"#utility.yul\":5668:5788   */\ntag_35:\n    /* \"#utility.yul\":5740:5763   */\n  tag_104\n    /* \"#utility.yul\":5757:5762   */\n  dup2\n    /* \"#utility.yul\":5740:5763   */\n  tag_34\n  jump\t// in\ntag_104:\n    /* \"#utility.yul\":5733:5738   */\n  dup2\n    /* \"#utility.yul\":5730:5764   */\n  eq\n    /* \"#utility.yul\":5720:5782   */\n  tag_105\n  jumpi\n    /* \"#utility.yul\":5778:5779   */\n  0x00\n    /* \"#utility.yul\":5775:5776   */\n  0x00\n    /* \"#utility.yul\":5768:5780   */\n  revert\n    /* \"#utility.yul\":5720:5782   */\ntag_105:\n    /* \"#utility.yul\":5668:5788   */\n  pop\n  jump\t// out\n    /* \"#utility.yul\":5794:5935   */\ntag_36:\n    /* \"#utility.yul\":5850:5855   */\n  0x00\n    /* \"#utility.yul\":5881:5887   */\n  dup2\n    /* \"#utility.yul\":5875:5888   */\n  mload\n    /* \"#utility.yul\":5866:5888   */\n  swap1\n  pop\n    /* \"#utility.yul\":5897:5929   */\n  tag_107\n    /* \"#utility.yul\":5923:5928   */\n  dup2\n    /* \"#utility.yul\":5897:5929   */\n  tag_35\n  jump\t// in\ntag_107:\n    /* \"#utility.yul\":5794:5935   */\n  swap3\n  swap2\n  pop\n  pop\n  jump\t// out\n    /* \"#utility.yul\":5941:6290   */\ntag_5:\n    /* \"#utility.yul\":6010:6016   */\n  0x00\n    /* \"#utility.yul\":6059:6061   */\n  0x20\n    /* \"#utility.yul\":6047:6056   */\n  dup3\n    /* \"#utility.yul\":6038:6045   */\n  dup5\n    /* \"#utility.yul\":6034:6057   */\n  sub\n    /* \"#utility.yul\":6030:6062   */\n  slt\n    /* \"#utility.yul\":6027:6146   */\n  iszero\n  tag_109\n  jumpi\n    /* \"#utility.yul\":6065:6144   */\n  tag_110\n  tag_32\n  jump\t// in\ntag_110:\n    /* \"#utility.yul\":6027:6146   */\ntag_109:\n    /* \"#utility.yul\":6185:6186   */\n  0x00\n    /* \"#utility.yul\":6210:6273   */\n  tag_111\n    /* \"#utility.yul\":6265:6272   */\n  dup5\n    /* \"#utility.yul\":6256:6262   */\n  dup3\n    /* \"#utility.yul\":6245:6254   */\n  dup6\n    /* \"#utility.yul\":6241:6263   */\n  add\n    /* \"#utility.yul\":6210:6273   */\n  tag_36\n  jump\t// in\ntag_111:\n    /* \"#utility.yul\":6200:6273   */\n  swap2\n  pop\n    /* \"#utility.yul\":6156:6283   */\n  pop\n    /* \"#utility.yul\":5941:6290   */\n  swap3\n  swap2\n  pop\n  pop\n  jump\t// out\n    /* \"WeatherFunctions.sol\":305:4094  contract WeatherFunctions is FunctionsClient {... */\ntag_10:\n  mload(0x80)\n  codecopy(0x00, dataOffset(sub_0), dataSize(sub_0))\n  0x00\n  assignImmutable(\"0x8e8fab5f003314da8d1873ea7720e8d9f47650136d916064d1edb8a11d682624\")\n  return(0x00, dataSize(sub_0))\nstop\ndata_6ed21e9c87a8dfef6fdf85f2f7bdf69a9b42c764c66081ff64c14457b3f6fcc6 636f6e73742063697479203d20617267735b305d3b636f6e737420617069526573706f6e7365203d2061776169742046756e6374696f6e732e6d616b654874747052657175657374287b75726c3a206068747470733a2f2f777474722e696e2f247b636974797d3f666f726d61743d33266d602c726573706f6e7365547970653a202774657874277d293b69662028617069526573706f6e73652e6572726f7229207b7468726f77204572726f72282752657175657374206661696c656427293b7d636f6e7374207b2064617461207d203d20617069526573706f6e73653b72657475726e2046756e6374696f6e732e656e636f6465537472696e672864617461293b\n\nsub_0: assembly {\n        /* \"WeatherFunctions.sol\":305:4094  contract WeatherFunctions is FunctionsClient {... */\n      mstore(0x40, 0x80)\n      callvalue\n      dup1\n      iszero\n      tag_1\n      jumpi\n      revert(0x00, 0x00)\n    tag_1:\n      pop\n      jumpi(tag_2, lt(calldatasize, 0x04))\n      shr(0xe0, calldataload(0x00))\n      dup1\n      0x784b9aeb\n      gt\n      tag_17\n      jumpi\n      dup1\n      0x9fb51771\n      gt\n      tag_18\n      jumpi\n      dup1\n      0x9fb51771\n      eq\n      tag_13\n      jumpi\n      dup1\n      0xa02e98df\n      eq\n      tag_14\n      jumpi\n      dup1\n      0xcd2b8d11\n      eq\n      tag_15\n      jumpi\n      dup1\n      0xfc2a88c3\n      eq\n      tag_16\n      jumpi\n      jump(tag_2)\n    tag_18:\n      dup1\n      0x784b9aeb\n      eq\n      tag_10\n      jumpi\n      dup1\n      0x8796ba8c\n      eq\n      tag_11\n      jumpi\n      dup1\n      0x9d866985\n      eq\n      tag_12\n      jumpi\n      jump(tag_2)\n    tag_17:\n      dup1\n      0x29f0de3f\n      gt\n      tag_19\n      jumpi\n      dup1\n      0x29f0de3f\n      eq\n      tag_6\n      jumpi\n      dup1\n      0x2a916a62\n      eq\n      tag_7\n      jumpi\n      dup1\n      0x62747e42\n      eq\n      tag_8\n      jumpi\n      dup1\n      0x67e828bf\n      eq\n      tag_9\n      jumpi\n      jump(tag_2)\n    tag_19:\n      dup1\n      0x09c1ba2e\n      eq\n      tag_3\n      jumpi\n      dup1\n      0x0ca76175\n      eq\n      tag_4\n      jumpi\n      dup1\n      0x256fec88\n      eq\n      tag_5\n      jumpi\n    tag_2:\n      revert(0x00, 0x00)\n        /* \"WeatherFunctions.sol\":1406:1434  uint64 public subscriptionId */\n    tag_3:\n      tag_20\n      tag_21\n      jump\t// in\n    tag_20:\n      mload(0x40)\n      tag_22\n      swap2\n      swap1\n      tag_23\n      jump\t// in\n    tag_22:\n      mload(0x40)\n      dup1\n      swap2\n      sub\n      swap1\n      return\n        /* \"@chainlink/contracts/src/v0.8/functions/dev/v1_0_0/FunctionsClient.sol\":2078:2364  function handleOracleFulfillment(bytes32 requestId, bytes memory response, bytes memory err) external override {... */\n    tag_4:\n      tag_24\n      0x04\n      dup1\n      calldatasize\n      sub\n      dup2\n      add\n      swap1\n      tag_25\n      swap2\n      swap1\n      tag_26\n      jump\t// in\n    tag_25:\n      tag_27\n      jump\t// in\n    tag_24:\n      stop\n        /* \"WeatherFunctions.sol\":1953:1978  address public lastSender */\n    tag_5:\n      tag_28\n      tag_29\n      jump\t// in\n    tag_28:\n      mload(0x40)\n      tag_30\n      swap2\n      swap1\n      tag_31\n      jump\t// in\n    tag_30:\n      mload(0x40)\n      dup1\n      swap2\n      sub\n      swap1\n      return\n        /* \"WeatherFunctions.sol\":484:506  bytes public lastError */\n    tag_6:\n      tag_32\n      tag_33\n      jump\t// in\n    tag_32:\n      mload(0x40)\n      tag_34\n      swap2\n      swap1\n      tag_35\n      jump\t// in\n    tag_34:\n      mload(0x40)\n      dup1\n      swap2\n      sub\n      swap1\n      return\n        /* \"WeatherFunctions.sol\":2102:2146  mapping(address => CityStruct) public cities */\n    tag_7:\n      tag_36\n      0x04\n      dup1\n      calldatasize\n      sub\n      dup2\n      add\n      swap1\n      tag_37\n      swap2\n      swap1\n      tag_38\n      jump\t// in\n    tag_37:\n      tag_39\n      jump\t// in\n    tag_36:\n      mload(0x40)\n      tag_40\n      swap4\n      swap3\n      swap2\n      swap1\n      tag_41\n      jump\t// in\n    tag_40:\n      mload(0x40)\n      dup1\n      swap2\n      sub\n      swap1\n      return\n        /* \"WeatherFunctions.sol\":452:477  bytes public lastResponse */\n    tag_8:\n      tag_42\n      tag_43\n      jump\t// in\n    tag_42:\n      mload(0x40)\n      tag_44\n      swap2\n      swap1\n      tag_35\n      jump\t// in\n    tag_44:\n      mload(0x40)\n      dup1\n      swap2\n      sub\n      swap1\n      return\n        /* \"WeatherFunctions.sol\":1474:1875  string public source =... */\n    tag_9:\n      tag_45\n      tag_46\n      jump\t// in\n    tag_45:\n      mload(0x40)\n      tag_47\n      swap2\n      swap1\n      tag_48\n      jump\t// in\n    tag_47:\n      mload(0x40)\n      dup1\n      swap2\n      sub\n      swap1\n      return\n        /* \"WeatherFunctions.sol\":2316:3394  function sendreq(string memory _city) external returns(bytes32 requestId){... */\n    tag_10:\n      tag_49\n      0x04\n      dup1\n      calldatasize\n      sub\n      dup2\n      add\n      swap1\n      tag_50\n      swap2\n      swap1\n      tag_51\n      jump\t// in\n    tag_50:\n      tag_52\n      jump\t// in\n    tag_49:\n      mload(0x40)\n      tag_53\n      swap2\n      swap1\n      tag_54\n      jump\t// in\n    tag_53:\n      mload(0x40)\n      dup1\n      swap2\n      sub\n      swap1\n      return\n        /* \"WeatherFunctions.sol\":827:854  bytes32[] public requestIds */\n    tag_11:\n      tag_55\n      0x04\n      dup1\n      calldatasize\n      sub\n      dup2\n      add\n      swap1\n      tag_56\n      swap2\n      swap1\n      tag_57\n      jump\t// in\n    tag_56:\n      tag_58\n      jump\t// in\n    tag_55:\n      mload(0x40)\n      tag_59\n      swap2\n      swap1\n      tag_54\n      jump\t// in\n    tag_59:\n      mload(0x40)\n      dup1\n      swap2\n      sub\n      swap1\n      return\n        /* \"WeatherFunctions.sol\":727:776  mapping(bytes32 => RequestStatus) public requests */\n    tag_12:\n      tag_60\n      0x04\n      dup1\n      calldatasize\n      sub\n      dup2\n      add\n      swap1\n      tag_61\n      swap2\n      swap1\n      tag_62\n      jump\t// in\n    tag_61:\n      tag_63\n      jump\t// in\n    tag_60:\n      mload(0x40)\n      tag_64\n      swap5\n      swap4\n      swap3\n      swap2\n      swap1\n      tag_65\n      jump\t// in\n    tag_64:\n      mload(0x40)\n      dup1\n      swap2\n      sub\n      swap1\n      return\n        /* \"WeatherFunctions.sol\":1917:1946  string public lastTemperature */\n    tag_13:\n      tag_66\n      tag_67\n      jump\t// in\n    tag_66:\n      mload(0x40)\n      tag_68\n      swap2\n      swap1\n      tag_48\n      jump\t// in\n    tag_68:\n      mload(0x40)\n      dup1\n      swap2\n      sub\n      swap1\n      return\n        /* \"WeatherFunctions.sol\":2153:2194  mapping(bytes32 => address) public getAdd */\n    tag_14:\n      tag_69\n      0x04\n      dup1\n      calldatasize\n      sub\n      dup2\n      add\n      swap1\n      tag_70\n      swap2\n      swap1\n      tag_62\n      jump\t// in\n    tag_70:\n      tag_71\n      jump\t// in\n    tag_69:\n      mload(0x40)\n      tag_72\n      swap2\n      swap1\n      tag_31\n      jump\t// in\n    tag_72:\n      mload(0x40)\n      dup1\n      swap2\n      sub\n      swap1\n      return\n        /* \"WeatherFunctions.sol\":1884:1906  string public lastCity */\n    tag_15:\n      tag_73\n      tag_74\n      jump\t// in\n    tag_73:\n      mload(0x40)\n      tag_75\n      swap2\n      swap1\n      tag_48\n      jump\t// in\n    tag_75:\n      mload(0x40)\n      dup1\n      swap2\n      sub\n      swap1\n      return\n        /* \"WeatherFunctions.sol\":417:445  bytes32 public lastRequestId */\n    tag_16:\n      tag_76\n      tag_77\n      jump\t// in\n    tag_76:\n      mload(0x40)\n      tag_78\n      swap2\n      swap1\n      tag_54\n      jump\t// in\n    tag_78:\n      mload(0x40)\n      dup1\n      swap2\n      sub\n      swap1\n      return\n        /* \"WeatherFunctions.sol\":1406:1434  uint64 public subscriptionId */\n    tag_21:\n      0x07\n      0x04\n      swap1\n      sload\n      swap1\n      0x0100\n      exp\n      swap1\n      div\n      0xffffffffffffffff\n      and\n      dup2\n      jump\t// out\n        /* \"@chainlink/contracts/src/v0.8/functions/dev/v1_0_0/FunctionsClient.sol\":2078:2364  function handleOracleFulfillment(bytes32 requestId, bytes memory response, bytes memory err) external override {... */\n    tag_27:\n        /* \"@chainlink/contracts/src/v0.8/functions/dev/v1_0_0/FunctionsClient.sol\":2221:2229  i_router */\n      immutable(\"0x8e8fab5f003314da8d1873ea7720e8d9f47650136d916064d1edb8a11d682624\")\n        /* \"@chainlink/contracts/src/v0.8/functions/dev/v1_0_0/FunctionsClient.sol\":2199:2230  msg.sender != address(i_router) */\n      0xffffffffffffffffffffffffffffffffffffffff\n      and\n        /* \"@chainlink/contracts/src/v0.8/functions/dev/v1_0_0/FunctionsClient.sol\":2199:2209  msg.sender */\n      caller\n        /* \"@chainlink/contracts/src/v0.8/functions/dev/v1_0_0/FunctionsClient.sol\":2199:2230  msg.sender != address(i_router) */\n      0xffffffffffffffffffffffffffffffffffffffff\n      and\n      eq\n        /* \"@chainlink/contracts/src/v0.8/functions/dev/v1_0_0/FunctionsClient.sol\":2195:2276  if (msg.sender != address(i_router)) {... */\n      tag_80\n      jumpi\n        /* \"@chainlink/contracts/src/v0.8/functions/dev/v1_0_0/FunctionsClient.sol\":2247:2269  OnlyRouterCanFulfill() */\n      mload(0x40)\n      0xc6829f8300000000000000000000000000000000000000000000000000000000\n      dup2\n      mstore\n      0x04\n      add\n      mload(0x40)\n      dup1\n      swap2\n      sub\n      swap1\n      revert\n        /* \"@chainlink/contracts/src/v0.8/functions/dev/v1_0_0/FunctionsClient.sol\":2195:2276  if (msg.sender != address(i_router)) {... */\n    tag_80:\n        /* \"@chainlink/contracts/src/v0.8/functions/dev/v1_0_0/FunctionsClient.sol\":2281:2321  fulfillRequest(requestId, response, err) */\n      tag_81\n        /* \"@chainlink/contracts/src/v0.8/functions/dev/v1_0_0/FunctionsClient.sol\":2296:2305  requestId */\n      dup4\n        /* \"@chainlink/contracts/src/v0.8/functions/dev/v1_0_0/FunctionsClient.sol\":2307:2315  response */\n      dup4\n        /* \"@chainlink/contracts/src/v0.8/functions/dev/v1_0_0/FunctionsClient.sol\":2317:2320  err */\n      dup4\n        /* \"@chainlink/contracts/src/v0.8/functions/dev/v1_0_0/FunctionsClient.sol\":2281:2295  fulfillRequest */\n      tag_82\n        /* \"@chainlink/contracts/src/v0.8/functions/dev/v1_0_0/FunctionsClient.sol\":2281:2321  fulfillRequest(requestId, response, err) */\n      jump\t// in\n    tag_81:\n        /* \"@chainlink/contracts/src/v0.8/functions/dev/v1_0_0/FunctionsClient.sol\":2349:2358  requestId */\n      dup3\n        /* \"@chainlink/contracts/src/v0.8/functions/dev/v1_0_0/FunctionsClient.sol\":2332:2359  RequestFulfilled(requestId) */\n      0x85e1543bf2f84fe80c6badbce3648c8539ad1df4d2b3d822938ca0538be727e6\n      mload(0x40)\n      mload(0x40)\n      dup1\n      swap2\n      sub\n      swap1\n      log2\n        /* \"@chainlink/contracts/src/v0.8/functions/dev/v1_0_0/FunctionsClient.sol\":2078:2364  function handleOracleFulfillment(bytes32 requestId, bytes memory response, bytes memory err) external override {... */\n      pop\n      pop\n      pop\n      jump\t// out\n        /* \"WeatherFunctions.sol\":1953:1978  address public lastSender */\n    tag_29:\n      0x0b\n      0x00\n      swap1\n      sload\n      swap1\n      0x0100\n      exp\n      swap1\n      div\n      0xffffffffffffffffffffffffffffffffffffffff\n      and\n      dup2\n      jump\t// out\n        /* \"WeatherFunctions.sol\":484:506  bytes public lastError */\n    tag_33:\n      0x02\n      dup1\n      sload\n      tag_83\n      swap1\n      tag_84\n      jump\t// in\n    tag_83:\n      dup1\n      0x1f\n      add\n      0x20\n      dup1\n      swap2\n      div\n      mul\n      0x20\n      add\n      mload(0x40)\n      swap1\n      dup2\n      add\n      0x40\n      mstore\n      dup1\n      swap3\n      swap2\n      swap1\n      dup2\n      dup2\n      mstore\n      0x20\n      add\n      dup3\n      dup1\n      sload\n      tag_85\n      swap1\n      tag_84\n      jump\t// in\n    tag_85:\n      dup1\n      iszero\n      tag_86\n      jumpi\n      dup1\n      0x1f\n      lt\n      tag_87\n      jumpi\n      0x0100\n      dup1\n      dup4\n      sload\n      div\n      mul\n      dup4\n      mstore\n      swap2\n      0x20\n      add\n      swap2\n      jump(tag_86)\n    tag_87:\n      dup3\n      add\n      swap2\n      swap1\n      0x00\n      mstore\n      keccak256(0x00, 0x20)\n      swap1\n    tag_88:\n      dup2\n      sload\n      dup2\n      mstore\n      swap1\n      0x01\n      add\n      swap1\n      0x20\n      add\n      dup1\n      dup4\n      gt\n      tag_88\n      jumpi\n      dup3\n      swap1\n      sub\n      0x1f\n      and\n      dup3\n      add\n      swap2\n    tag_86:\n      pop\n      pop\n      pop\n      pop\n      pop\n      dup2\n      jump\t// out\n        /* \"WeatherFunctions.sol\":2102:2146  mapping(address => CityStruct) public cities */\n    tag_39:\n      mstore(0x20, 0x0c)\n      dup1\n      0x00\n      mstore\n      keccak256(0x00, 0x40)\n      0x00\n      swap2\n      pop\n      swap1\n      pop\n      dup1\n      0x00\n      add\n      dup1\n      sload\n      tag_89\n      swap1\n      tag_84\n      jump\t// in\n    tag_89:\n      dup1\n      0x1f\n      add\n      0x20\n      dup1\n      swap2\n      div\n      mul\n      0x20\n      add\n      mload(0x40)\n      swap1\n      dup2\n      add\n      0x40\n      mstore\n      dup1\n      swap3\n      swap2\n      swap1\n      dup2\n      dup2\n      mstore\n      0x20\n      add\n      dup3\n      dup1\n      sload\n      tag_90\n      swap1\n      tag_84\n      jump\t// in\n    tag_90:\n      dup1\n      iszero\n      tag_91\n      jumpi\n      dup1\n      0x1f\n      lt\n      tag_92\n      jumpi\n      0x0100\n      dup1\n      dup4\n      sload\n      div\n      mul\n      dup4\n      mstore\n      swap2\n      0x20\n      add\n      swap2\n      jump(tag_91)\n    tag_92:\n      dup3\n      add\n      swap2\n      swap1\n      0x00\n      mstore\n      keccak256(0x00, 0x20)\n      swap1\n    tag_93:\n      dup2\n      sload\n      dup2\n      mstore\n      swap1\n      0x01\n      add\n      swap1\n      0x20\n      add\n      dup1\n      dup4\n      gt\n      tag_93\n      jumpi\n      dup3\n      swap1\n      sub\n      0x1f\n      and\n      dup3\n      add\n      swap2\n    tag_91:\n      pop\n      pop\n      pop\n      pop\n      pop\n      swap1\n      dup1\n      0x01\n      add\n      dup1\n      sload\n      tag_94\n      swap1\n      tag_84\n      jump\t// in\n    tag_94:\n      dup1\n      0x1f\n      add\n      0x20\n      dup1\n      swap2\n      div\n      mul\n      0x20\n      add\n      mload(0x40)\n      swap1\n      dup2\n      add\n      0x40\n      mstore\n      dup1\n      swap3\n      swap2\n      swap1\n      dup2\n      dup2\n      mstore\n      0x20\n      add\n      dup3\n      dup1\n      sload\n      tag_95\n      swap1\n      tag_84\n      jump\t// in\n    tag_95:\n      dup1\n      iszero\n      tag_96\n      jumpi\n      dup1\n      0x1f\n      lt\n      tag_97\n      jumpi\n      0x0100\n      dup1\n      dup4\n      sload\n      div\n      mul\n      dup4\n      mstore\n      swap2\n      0x20\n      add\n      swap2\n      jump(tag_96)\n    tag_97:\n      dup3\n      add\n      swap2\n      swap1\n      0x00\n      mstore\n      keccak256(0x00, 0x20)\n      swap1\n    tag_98:\n      dup2\n      sload\n      dup2\n      mstore\n      swap1\n      0x01\n      add\n      swap1\n      0x20\n      add\n      dup1\n      dup4\n      gt\n      tag_98\n      jumpi\n      dup3\n      swap1\n      sub\n      0x1f\n      and\n      dup3\n      add\n      swap2\n    tag_96:\n      pop\n      pop\n      pop\n      pop\n      pop\n      swap1\n      dup1\n      0x02\n      add\n      sload\n      swap1\n      pop\n      dup4\n      jump\t// out\n        /* \"WeatherFunctions.sol\":452:477  bytes public lastResponse */\n    tag_43:\n      0x01\n      dup1\n      sload\n      tag_99\n      swap1\n      tag_84\n      jump\t// in\n    tag_99:\n      dup1\n      0x1f\n      add\n      0x20\n      dup1\n      swap2\n      div\n      mul\n      0x20\n      add\n      mload(0x40)\n      swap1\n      dup2\n      add\n      0x40\n      mstore\n      dup1\n      swap3\n      swap2\n      swap1\n      dup2\n      dup2\n      mstore\n      0x20\n      add\n      dup3\n      dup1\n      sload\n      tag_100\n      swap1\n      tag_84\n      jump\t// in\n    tag_100:\n      dup1\n      iszero\n      tag_101\n      jumpi\n      dup1\n      0x1f\n      lt\n      tag_102\n      jumpi\n      0x0100\n      dup1\n      dup4\n      sload\n      div\n      mul\n      dup4\n      mstore\n      swap2\n      0x20\n      add\n      swap2\n      jump(tag_101)\n    tag_102:\n      dup3\n      add\n      swap2\n      swap1\n      0x00\n      mstore\n      keccak256(0x00, 0x20)\n      swap1\n    tag_103:\n      dup2\n      sload\n      dup2\n      mstore\n      swap1\n      0x01\n      add\n      swap1\n      0x20\n      add\n      dup1\n      dup4\n      gt\n      tag_103\n      jumpi\n      dup3\n      swap1\n      sub\n      0x1f\n      and\n      dup3\n      add\n      swap2\n    tag_101:\n      pop\n      pop\n      pop\n      pop\n      pop\n      dup2\n      jump\t// out\n        /* \"WeatherFunctions.sol\":1474:1875  string public source =... */\n    tag_46:\n      0x08\n      dup1\n      sload\n      tag_104\n      swap1\n      tag_84\n      jump\t// in\n    tag_104:\n      dup1\n      0x1f\n      add\n      0x20\n      dup1\n      swap2\n      div\n      mul\n      0x20\n      add\n      mload(0x40)\n      swap1\n      dup2\n      add\n      0x40\n      mstore\n      dup1\n      swap3\n      swap2\n      swap1\n      dup2\n      dup2\n      mstore\n      0x20\n      add\n      dup3\n      dup1\n      sload\n      tag_105\n      swap1\n      tag_84\n      jump\t// in\n    tag_105:\n      dup1\n      iszero\n      tag_106\n      jumpi\n      dup1\n      0x1f\n      lt\n      tag_107\n      jumpi\n      0x0100\n      dup1\n      dup4\n      sload\n      div\n      mul\n      dup4\n      mstore\n      swap2\n      0x20\n      add\n      swap2\n      jump(tag_106)\n    tag_107:\n      dup3\n      add\n      swap2\n      swap1\n      0x00\n      mstore\n      keccak256(0x00, 0x20)\n      swap1\n    tag_108:\n      dup2\n      sload\n      dup2\n      mstore\n      swap1\n      0x01\n      add\n      swap1\n      0x20\n      add\n      dup1\n      dup4\n      gt\n      tag_108\n      jumpi\n      dup3\n      swap1\n      sub\n      0x1f\n      and\n      dup3\n      add\n      swap2\n    tag_106:\n      pop\n      pop\n      pop\n      pop\n      pop\n      dup2\n      jump\t// out\n        /* \"WeatherFunctions.sol\":2316:3394  function sendreq(string memory _city) external returns(bytes32 requestId){... */\n    tag_52:\n        /* \"WeatherFunctions.sol\":2371:2388  bytes32 requestId */\n      0x00\n        /* \"WeatherFunctions.sol\":2400:2420  string[] memory args */\n      0x00\n        /* \"WeatherFunctions.sol\":2434:2435  1 */\n      0x01\n        /* \"WeatherFunctions.sol\":2421:2436  new string[](1) */\n      0xffffffffffffffff\n      dup2\n      gt\n      iszero\n      tag_110\n      jumpi\n      tag_111\n      tag_112\n      jump\t// in\n    tag_111:\n    tag_110:\n      mload(0x40)\n      swap1\n      dup1\n      dup3\n      mstore\n      dup1\n      0x20\n      mul\n      0x20\n      add\n      dup3\n      add\n      0x40\n      mstore\n      dup1\n      iszero\n      tag_113\n      jumpi\n      dup2\n      0x20\n      add\n    tag_114:\n      0x60\n      dup2\n      mstore\n      0x20\n      add\n      swap1\n      0x01\n      swap1\n      sub\n      swap1\n      dup2\n      tag_114\n      jumpi\n      swap1\n      pop\n    tag_113:\n      pop\n        /* \"WeatherFunctions.sol\":2400:2436  string[] memory args=new string[](1) */\n      swap1\n      pop\n        /* \"WeatherFunctions.sol\":2455:2460  _city */\n      dup3\n        /* \"WeatherFunctions.sol\":2447:2451  args */\n      dup2\n        /* \"WeatherFunctions.sol\":2452:2453  0 */\n      0x00\n        /* \"WeatherFunctions.sol\":2447:2454  args[0] */\n      dup2\n      mload\n      dup2\n      lt\n      tag_115\n      jumpi\n      tag_116\n      tag_117\n      jump\t// in\n    tag_116:\n    tag_115:\n      0x20\n      mul\n      0x20\n      add\n      add\n        /* \"WeatherFunctions.sol\":2447:2460  args[0]=_city */\n      dup2\n      swap1\n      mstore\n      pop\n        /* \"WeatherFunctions.sol\":2473:2508  FunctionsRequest.Request memory req */\n      tag_118\n      tag_119\n      jump\t// in\n    tag_118:\n        /* \"WeatherFunctions.sol\":2519:2567  req.initializeRequestForInlineJavaScript(source) */\n      tag_120\n        /* \"WeatherFunctions.sol\":2560:2566  source */\n      0x08\n        /* \"WeatherFunctions.sol\":2519:2567  req.initializeRequestForInlineJavaScript(source) */\n      dup1\n      sload\n      tag_121\n      swap1\n      tag_84\n      jump\t// in\n    tag_121:\n      dup1\n      0x1f\n      add\n      0x20\n      dup1\n      swap2\n      div\n      mul\n      0x20\n      add\n      mload(0x40)\n      swap1\n      dup2\n      add\n      0x40\n      mstore\n      dup1\n      swap3\n      swap2\n      swap1\n      dup2\n      dup2\n      mstore\n      0x20\n      add\n      dup3\n      dup1\n      sload\n      tag_122\n      swap1\n      tag_84\n      jump\t// in\n    tag_122:\n      dup1\n      iszero\n      tag_123\n      jumpi\n      dup1\n      0x1f\n      lt\n      tag_124\n      jumpi\n      0x0100\n      dup1\n      dup4\n      sload\n      div\n      mul\n      dup4\n      mstore\n      swap2\n      0x20\n      add\n      swap2\n      jump(tag_123)\n    tag_124:\n      dup3\n      add\n      swap2\n      swap1\n      0x00\n      mstore\n      keccak256(0x00, 0x20)\n      swap1\n    tag_125:\n      dup2\n      sload\n      dup2\n      mstore\n      swap1\n      0x01\n      add\n      swap1\n      0x20\n      add\n      dup1\n      dup4\n      gt\n      tag_125\n      jumpi\n      dup3\n      swap1\n      sub\n      0x1f\n      and\n      dup3\n      add\n      swap2\n    tag_123:\n      pop\n      pop\n      pop\n      pop\n      pop\n        /* \"WeatherFunctions.sol\":2519:2522  req */\n      dup3\n        /* \"WeatherFunctions.sol\":2519:2559  req.initializeRequestForInlineJavaScript */\n      tag_126\n      swap1\n        /* \"WeatherFunctions.sol\":2519:2567  req.initializeRequestForInlineJavaScript(source) */\n      swap2\n      swap1\n      0xffffffff\n      and\n      jump\t// in\n    tag_120:\n        /* \"WeatherFunctions.sol\":2635:2636  0 */\n      0x00\n        /* \"WeatherFunctions.sol\":2621:2625  args */\n      dup3\n        /* \"WeatherFunctions.sol\":2621:2632  args.length */\n      mload\n        /* \"WeatherFunctions.sol\":2621:2636  args.length > 0 */\n      gt\n        /* \"WeatherFunctions.sol\":2617:2655  if (args.length > 0) req.setArgs(args) */\n      iszero\n      tag_127\n      jumpi\n        /* \"WeatherFunctions.sol\":2638:2655  req.setArgs(args) */\n      tag_128\n        /* \"WeatherFunctions.sol\":2650:2654  args */\n      dup3\n        /* \"WeatherFunctions.sol\":2638:2641  req */\n      dup3\n        /* \"WeatherFunctions.sol\":2638:2649  req.setArgs */\n      tag_129\n      swap1\n        /* \"WeatherFunctions.sol\":2638:2655  req.setArgs(args) */\n      swap2\n      swap1\n      0xffffffff\n      and\n      jump\t// in\n    tag_128:\n        /* \"WeatherFunctions.sol\":2617:2655  if (args.length > 0) req.setArgs(args) */\n    tag_127:\n        /* \"WeatherFunctions.sol\":2775:2901  _sendRequest(... */\n      tag_130\n        /* \"WeatherFunctions.sol\":2802:2818  req.encodeCBOR() */\n      tag_131\n        /* \"WeatherFunctions.sol\":2802:2805  req */\n      dup3\n        /* \"WeatherFunctions.sol\":2802:2816  req.encodeCBOR */\n      tag_132\n        /* \"WeatherFunctions.sol\":2802:2818  req.encodeCBOR() */\n      jump\t// in\n    tag_131:\n        /* \"WeatherFunctions.sol\":2833:2847  subscriptionId */\n      0x07\n      0x04\n      swap1\n      sload\n      swap1\n      0x0100\n      exp\n      swap1\n      div\n      0xffffffffffffffff\n      and\n        /* \"WeatherFunctions.sol\":2862:2870  gasLimit */\n      0x07\n      0x00\n      swap1\n      sload\n      swap1\n      0x0100\n      exp\n      swap1\n      div\n      0xffffffff\n      and\n        /* \"WeatherFunctions.sol\":2885:2890  donID */\n      sload(0x06)\n        /* \"WeatherFunctions.sol\":2775:2787  _sendRequest */\n      tag_133\n        /* \"WeatherFunctions.sol\":2775:2901  _sendRequest(... */\n      jump\t// in\n    tag_130:\n        /* \"WeatherFunctions.sol\":2759:2772  lastRequestId */\n      0x00\n        /* \"WeatherFunctions.sol\":2759:2901  lastRequestId = _sendRequest(... */\n      dup2\n      swap1\n      sstore\n      pop\n        /* \"WeatherFunctions.sol\":2921:2926  _city */\n      dup4\n        /* \"WeatherFunctions.sol\":2912:2920  lastCity */\n      0x09\n        /* \"WeatherFunctions.sol\":2912:2926  lastCity=_city */\n      swap1\n      dup2\n      tag_134\n      swap2\n      swap1\n      tag_135\n      jump\t// in\n    tag_134:\n      pop\n        /* \"WeatherFunctions.sol\":2965:3098  RequestStatus({... */\n      mload(0x40)\n      dup1\n      0x80\n      add\n      0x40\n      mstore\n      dup1\n        /* \"WeatherFunctions.sol\":3006:3011  false */\n      0x00\n        /* \"WeatherFunctions.sol\":2965:3098  RequestStatus({... */\n      iszero\n      iszero\n      dup2\n      mstore\n      0x20\n      add\n        /* \"WeatherFunctions.sol\":3035:3039  true */\n      0x01\n        /* \"WeatherFunctions.sol\":2965:3098  RequestStatus({... */\n      iszero\n      iszero\n      dup2\n      mstore\n      0x20\n      add\n      mload(0x40)\n      dup1\n      0x20\n      add\n      0x40\n      mstore\n      dup1\n      0x00\n      dup2\n      mstore\n      pop\n      dup2\n      mstore\n      0x20\n      add\n      mload(0x40)\n      dup1\n      0x20\n      add\n      0x40\n      mstore\n      dup1\n      0x00\n      dup2\n      mstore\n      pop\n      dup2\n      mstore\n      pop\n        /* \"WeatherFunctions.sol\":2939:2947  requests */\n      0x03\n        /* \"WeatherFunctions.sol\":2939:2962  requests[lastRequestId] */\n      0x00\n        /* \"WeatherFunctions.sol\":2948:2961  lastRequestId */\n      sload(0x00)\n        /* \"WeatherFunctions.sol\":2939:2962  requests[lastRequestId] */\n      dup2\n      mstore\n      0x20\n      add\n      swap1\n      dup2\n      mstore\n      0x20\n      add\n      0x00\n      keccak256\n        /* \"WeatherFunctions.sol\":2939:3098  requests[lastRequestId] = RequestStatus({... */\n      0x00\n      dup3\n      add\n      mload\n      dup2\n      0x00\n      add\n      exp(0x0100, 0x00)\n      dup2\n      sload\n      dup2\n      0xff\n      mul\n      not\n      and\n      swap1\n      dup4\n      iszero\n      iszero\n      mul\n      or\n      swap1\n      sstore\n      pop\n      0x20\n      dup3\n      add\n      mload\n      dup2\n      0x00\n      add\n      exp(0x0100, 0x01)\n      dup2\n      sload\n      dup2\n      0xff\n      mul\n      not\n      and\n      swap1\n      dup4\n      iszero\n      iszero\n      mul\n      or\n      swap1\n      sstore\n      pop\n      0x40\n      dup3\n      add\n      mload\n      dup2\n      0x01\n      add\n      swap1\n      dup2\n      tag_136\n      swap2\n      swap1\n      tag_137\n      jump\t// in\n    tag_136:\n      pop\n      0x60\n      dup3\n      add\n      mload\n      dup2\n      0x02\n      add\n      swap1\n      dup2\n      tag_138\n      swap2\n      swap1\n      tag_137\n      jump\t// in\n    tag_138:\n      pop\n      swap1\n      pop\n      pop\n        /* \"WeatherFunctions.sol\":3130:3233  CityStruct({... */\n      mload(0x40)\n      dup1\n      0x60\n      add\n      0x40\n      mstore\n      dup1\n        /* \"WeatherFunctions.sol\":3161:3166  _city */\n      dup6\n        /* \"WeatherFunctions.sol\":3130:3233  CityStruct({... */\n      dup2\n      mstore\n      0x20\n      add\n      mload(0x40)\n      dup1\n      0x20\n      add\n      0x40\n      mstore\n      dup1\n      0x00\n      dup2\n      mstore\n      pop\n      dup2\n      mstore\n      0x20\n      add\n        /* \"WeatherFunctions.sol\":3220:3221  0 */\n      0x00\n        /* \"WeatherFunctions.sol\":3130:3233  CityStruct({... */\n      dup2\n      mstore\n      pop\n        /* \"WeatherFunctions.sol\":3111:3117  cities */\n      0x0c\n        /* \"WeatherFunctions.sol\":3111:3129  cities[msg.sender] */\n      0x00\n        /* \"WeatherFunctions.sol\":3118:3128  msg.sender */\n      caller\n        /* \"WeatherFunctions.sol\":3111:3129  cities[msg.sender] */\n      0xffffffffffffffffffffffffffffffffffffffff\n      and\n      0xffffffffffffffffffffffffffffffffffffffff\n      and\n      dup2\n      mstore\n      0x20\n      add\n      swap1\n      dup2\n      mstore\n      0x20\n      add\n      0x00\n      keccak256\n        /* \"WeatherFunctions.sol\":3111:3233  cities[msg.sender]=CityStruct({... */\n      0x00\n      dup3\n      add\n      mload\n      dup2\n      0x00\n      add\n      swap1\n      dup2\n      tag_139\n      swap2\n      swap1\n      tag_135\n      jump\t// in\n    tag_139:\n      pop\n      0x20\n      dup3\n      add\n      mload\n      dup2\n      0x01\n      add\n      swap1\n      dup2\n      tag_140\n      swap2\n      swap1\n      tag_135\n      jump\t// in\n    tag_140:\n      pop\n      0x40\n      dup3\n      add\n      mload\n      dup2\n      0x02\n      add\n      sstore\n      swap1\n      pop\n      pop\n        /* \"WeatherFunctions.sol\":3268:3278  msg.sender */\n      caller\n        /* \"WeatherFunctions.sol\":3246:3252  getAdd */\n      0x0d\n        /* \"WeatherFunctions.sol\":3246:3267  getAdd[lastRequestId] */\n      0x00\n        /* \"WeatherFunctions.sol\":3253:3266  lastRequestId */\n      sload(0x00)\n        /* \"WeatherFunctions.sol\":3246:3267  getAdd[lastRequestId] */\n      dup2\n      mstore\n      0x20\n      add\n      swap1\n      dup2\n      mstore\n      0x20\n      add\n      0x00\n      keccak256\n      0x00\n        /* \"WeatherFunctions.sol\":3246:3278  getAdd[lastRequestId]=msg.sender */\n      0x0100\n      exp\n      dup2\n      sload\n      dup2\n      0xffffffffffffffffffffffffffffffffffffffff\n      mul\n      not\n      and\n      swap1\n      dup4\n      0xffffffffffffffffffffffffffffffffffffffff\n      and\n      mul\n      or\n      swap1\n      sstore\n      pop\n        /* \"WeatherFunctions.sol\":3302:3312  msg.sender */\n      caller\n        /* \"WeatherFunctions.sol\":3291:3301  lastSender */\n      0x0b\n      0x00\n        /* \"WeatherFunctions.sol\":3291:3312  lastSender=msg.sender */\n      0x0100\n      exp\n      dup2\n      sload\n      dup2\n      0xffffffffffffffffffffffffffffffffffffffff\n      mul\n      not\n      and\n      swap1\n      dup4\n      0xffffffffffffffffffffffffffffffffffffffff\n      and\n      mul\n      or\n      swap1\n      sstore\n      pop\n        /* \"WeatherFunctions.sol\":3325:3335  requestIds */\n      0x04\n        /* \"WeatherFunctions.sol\":3341:3354  lastRequestId */\n      sload(0x00)\n        /* \"WeatherFunctions.sol\":3325:3355  requestIds.push(lastRequestId) */\n      swap1\n      dup1\n      0x01\n      dup2\n      sload\n      add\n      dup1\n      dup3\n      sstore\n      dup1\n      swap2\n      pop\n      pop\n      0x01\n      swap1\n      sub\n      swap1\n      0x00\n      mstore\n      keccak256(0x00, 0x20)\n      add\n      0x00\n      swap1\n      swap2\n      swap1\n      swap2\n      swap1\n      swap2\n      pop\n      sstore\n        /* \"WeatherFunctions.sol\":3373:3386  lastRequestId */\n      sload(0x00)\n        /* \"WeatherFunctions.sol\":3366:3386  return lastRequestId */\n      swap3\n      pop\n      pop\n      pop\n        /* \"WeatherFunctions.sol\":2316:3394  function sendreq(string memory _city) external returns(bytes32 requestId){... */\n      swap2\n      swap1\n      pop\n      jump\t// out\n        /* \"WeatherFunctions.sol\":827:854  bytes32[] public requestIds */\n    tag_58:\n      0x04\n      dup2\n      dup2\n      sload\n      dup2\n      lt\n      tag_142\n      jumpi\n      0x00\n      dup1\n      revert\n    tag_142:\n      swap1\n      0x00\n      mstore\n      keccak256(0x00, 0x20)\n      add\n      0x00\n      swap2\n      pop\n      swap1\n      pop\n      sload\n      dup2\n      jump\t// out\n        /* \"WeatherFunctions.sol\":727:776  mapping(bytes32 => RequestStatus) public requests */\n    tag_63:\n      mstore(0x20, 0x03)\n      dup1\n      0x00\n      mstore\n      keccak256(0x00, 0x40)\n      0x00\n      swap2\n      pop\n      swap1\n      pop\n      dup1\n      0x00\n      add\n      0x00\n      swap1\n      sload\n      swap1\n      0x0100\n      exp\n      swap1\n      div\n      0xff\n      and\n      swap1\n      dup1\n      0x00\n      add\n      0x01\n      swap1\n      sload\n      swap1\n      0x0100\n      exp\n      swap1\n      div\n      0xff\n      and\n      swap1\n      dup1\n      0x01\n      add\n      dup1\n      sload\n      tag_144\n      swap1\n      tag_84\n      jump\t// in\n    tag_144:\n      dup1\n      0x1f\n      add\n      0x20\n      dup1\n      swap2\n      div\n      mul\n      0x20\n      add\n      mload(0x40)\n      swap1\n      dup2\n      add\n      0x40\n      mstore\n      dup1\n      swap3\n      swap2\n      swap1\n      dup2\n      dup2\n      mstore\n      0x20\n      add\n      dup3\n      dup1\n      sload\n      tag_145\n      swap1\n      tag_84\n      jump\t// in\n    tag_145:\n      dup1\n      iszero\n      tag_146\n      jumpi\n      dup1\n      0x1f\n      lt\n      tag_147\n      jumpi\n      0x0100\n      dup1\n      dup4\n      sload\n      div\n      mul\n      dup4\n      mstore\n      swap2\n      0x20\n      add\n      swap2\n      jump(tag_146)\n    tag_147:\n      dup3\n      add\n      swap2\n      swap1\n      0x00\n      mstore\n      keccak256(0x00, 0x20)\n      swap1\n    tag_148:\n      dup2\n      sload\n      dup2\n      mstore\n      swap1\n      0x01\n      add\n      swap1\n      0x20\n      add\n      dup1\n      dup4\n      gt\n      tag_148\n      jumpi\n      dup3\n      swap1\n      sub\n      0x1f\n      and\n      dup3\n      add\n      swap2\n    tag_146:\n      pop\n      pop\n      pop\n      pop\n      pop\n      swap1\n      dup1\n      0x02\n      add\n      dup1\n      sload\n      tag_149\n      swap1\n      tag_84\n      jump\t// in\n    tag_149:\n      dup1\n      0x1f\n      add\n      0x20\n      dup1\n      swap2\n      div\n      mul\n      0x20\n      add\n      mload(0x40)\n      swap1\n      dup2\n      add\n      0x40\n      mstore\n      dup1\n      swap3\n      swap2\n      swap1\n      dup2\n      dup2\n      mstore\n      0x20\n      add\n      dup3\n      dup1\n      sload\n      tag_150\n      swap1\n      tag_84\n      jump\t// in\n    tag_150:\n      dup1\n      iszero\n      tag_151\n      jumpi\n      dup1\n      0x1f\n      lt\n      tag_152\n      jumpi\n      0x0100\n      dup1\n      dup4\n      sload\n      div\n      mul\n      dup4\n      mstore\n      swap2\n      0x20\n      add\n      swap2\n      jump(tag_151)\n    tag_152:\n      dup3\n      add\n      swap2\n      swap1\n      0x00\n      mstore\n      keccak256(0x00, 0x20)\n      swap1\n    tag_153:\n      dup2\n      sload\n      dup2\n      mstore\n      swap1\n      0x01\n      add\n      swap1\n      0x20\n      add\n      dup1\n      dup4\n      gt\n      tag_153\n      jumpi\n      dup3\n      swap1\n      sub\n      0x1f\n      and\n      dup3\n      add\n      swap2\n    tag_151:\n      pop\n      pop\n      pop\n      pop\n      pop\n      swap1\n      pop\n      dup5\n      jump\t// out\n        /* \"WeatherFunctions.sol\":1917:1946  string public lastTemperature */\n    tag_67:\n      0x0a\n      dup1\n      sload\n      tag_154\n      swap1\n      tag_84\n      jump\t// in\n    tag_154:\n      dup1\n      0x1f\n      add\n      0x20\n      dup1\n      swap2\n      div\n      mul\n      0x20\n      add\n      mload(0x40)\n      swap1\n      dup2\n      add\n      0x40\n      mstore\n      dup1\n      swap3\n      swap2\n      swap1\n      dup2\n      dup2\n      mstore\n      0x20\n      add\n      dup3\n      dup1\n      sload\n      tag_155\n      swap1\n      tag_84\n      jump\t// in\n    tag_155:\n      dup1\n      iszero\n      tag_156\n      jumpi\n      dup1\n      0x1f\n      lt\n      tag_157\n      jumpi\n      0x0100\n      dup1\n      dup4\n      sload\n      div\n      mul\n      dup4\n      mstore\n      swap2\n      0x20\n      add\n      swap2\n      jump(tag_156)\n    tag_157:\n      dup3\n      add\n      swap2\n      swap1\n      0x00\n      mstore\n      keccak256(0x00, 0x20)\n      swap1\n    tag_158:\n      dup2\n      sload\n      dup2\n      mstore\n      swap1\n      0x01\n      add\n      swap1\n      0x20\n      add\n      dup1\n      dup4\n      gt\n      tag_158\n      jumpi\n      dup3\n      swap1\n      sub\n      0x1f\n      and\n      dup3\n      add\n      swap2\n    tag_156:\n      pop\n      pop\n      pop\n      pop\n      pop\n      dup2\n      jump\t// out\n        /* \"WeatherFunctions.sol\":2153:2194  mapping(bytes32 => address) public getAdd */\n    tag_71:\n      mstore(0x20, 0x0d)\n      dup1\n      0x00\n      mstore\n      keccak256(0x00, 0x40)\n      0x00\n      swap2\n      pop\n      sload\n      swap1\n      0x0100\n      exp\n      swap1\n      div\n      0xffffffffffffffffffffffffffffffffffffffff\n      and\n      dup2\n      jump\t// out\n        /* \"WeatherFunctions.sol\":1884:1906  string public lastCity */\n    tag_74:\n      0x09\n      dup1\n      sload\n      tag_159\n      swap1\n      tag_84\n      jump\t// in\n    tag_159:\n      dup1\n      0x1f\n      add\n      0x20\n      dup1\n      swap2\n      div\n      mul\n      0x20\n      add\n      mload(0x40)\n      swap1\n      dup2\n      add\n      0x40\n      mstore\n      dup1\n      swap3\n      swap2\n      swap1\n      dup2\n      dup2\n      mstore\n      0x20\n      add\n      dup3\n      dup1\n      sload\n      tag_160\n      swap1\n      tag_84\n      jump\t// in\n    tag_160:\n      dup1\n      iszero\n      tag_161\n      jumpi\n      dup1\n      0x1f\n      lt\n      tag_162\n      jumpi\n      0x0100\n      dup1\n      dup4\n      sload\n      div\n      mul\n      dup4\n      mstore\n      swap2\n      0x20\n      add\n      swap2\n      jump(tag_161)\n    tag_162:\n      dup3\n      add\n      swap2\n      swap1\n      0x00\n      mstore\n      keccak256(0x00, 0x20)\n      swap1\n    tag_163:\n      dup2\n      sload\n      dup2\n      mstore\n      swap1\n      0x01\n      add\n      swap1\n      0x20\n      add\n      dup1\n      dup4\n      gt\n      tag_163\n      jumpi\n      dup3\n      swap1\n      sub\n      0x1f\n      and\n      dup3\n      add\n      swap2\n    tag_161:\n      pop\n      pop\n      pop\n      pop\n      pop\n      dup2\n      jump\t// out\n        /* \"WeatherFunctions.sol\":417:445  bytes32 public lastRequestId */\n    tag_77:\n      sload(0x00)\n      dup2\n      jump\t// out\n        /* \"WeatherFunctions.sol\":3402:4081  function fulfillRequest(... */\n    tag_82:\n        /* \"WeatherFunctions.sol\":3557:3565  requests */\n      0x03\n        /* \"WeatherFunctions.sol\":3557:3576  requests[requestId] */\n      0x00\n        /* \"WeatherFunctions.sol\":3566:3575  requestId */\n      dup5\n        /* \"WeatherFunctions.sol\":3557:3576  requests[requestId] */\n      dup2\n      mstore\n      0x20\n      add\n      swap1\n      dup2\n      mstore\n      0x20\n      add\n      0x00\n      keccak256\n        /* \"WeatherFunctions.sol\":3557:3583  requests[requestId].exists */\n      0x00\n      add\n      0x01\n      swap1\n      sload\n      swap1\n      0x0100\n      exp\n      swap1\n      div\n      0xff\n      and\n        /* \"WeatherFunctions.sol\":3549:3605  require(requests[requestId].exists, \"request not found\") */\n      tag_165\n      jumpi\n      mload(0x40)\n      0x08c379a000000000000000000000000000000000000000000000000000000000\n      dup2\n      mstore\n      0x04\n      add\n      tag_166\n      swap1\n      tag_167\n      jump\t// in\n    tag_166:\n      mload(0x40)\n      dup1\n      swap2\n      sub\n      swap1\n      revert\n    tag_165:\n        /* \"WeatherFunctions.sol\":3630:3633  err */\n      dup1\n        /* \"WeatherFunctions.sol\":3618:3627  lastError */\n      0x02\n        /* \"WeatherFunctions.sol\":3618:3633  lastError = err */\n      swap1\n      dup2\n      tag_168\n      swap2\n      swap1\n      tag_137\n      jump\t// in\n    tag_168:\n      pop\n        /* \"WeatherFunctions.sol\":3659:3667  response */\n      dup2\n        /* \"WeatherFunctions.sol\":3644:3656  lastResponse */\n      0x01\n        /* \"WeatherFunctions.sol\":3644:3667  lastResponse = response */\n      swap1\n      dup2\n      tag_169\n      swap2\n      swap1\n      tag_137\n      jump\t// in\n    tag_169:\n      pop\n        /* \"WeatherFunctions.sol\":3701:3709  response */\n      dup2\n        /* \"WeatherFunctions.sol\":3678:3693  lastTemperature */\n      0x0a\n        /* \"WeatherFunctions.sol\":3678:3710  lastTemperature=string(response) */\n      swap1\n      dup2\n      tag_170\n      swap2\n      swap1\n      tag_135\n      jump\t// in\n    tag_170:\n      pop\n        /* \"WeatherFunctions.sol\":3755:3759  true */\n      0x01\n        /* \"WeatherFunctions.sol\":3723:3731  requests */\n      0x03\n        /* \"WeatherFunctions.sol\":3723:3742  requests[requestId] */\n      0x00\n        /* \"WeatherFunctions.sol\":3732:3741  requestId */\n      dup6\n        /* \"WeatherFunctions.sol\":3723:3742  requests[requestId] */\n      dup2\n      mstore\n      0x20\n      add\n      swap1\n      dup2\n      mstore\n      0x20\n      add\n      0x00\n      keccak256\n        /* \"WeatherFunctions.sol\":3723:3752  requests[requestId].fulfilled */\n      0x00\n      add\n      0x00\n        /* \"WeatherFunctions.sol\":3723:3759  requests[requestId].fulfilled = true */\n      0x0100\n      exp\n      dup2\n      sload\n      dup2\n      0xff\n      mul\n      not\n      and\n      swap1\n      dup4\n      iszero\n      iszero\n      mul\n      or\n      swap1\n      sstore\n      pop\n        /* \"WeatherFunctions.sol\":3796:3799  err */\n      dup1\n        /* \"WeatherFunctions.sol\":3770:3778  requests */\n      0x03\n        /* \"WeatherFunctions.sol\":3770:3789  requests[requestId] */\n      0x00\n        /* \"WeatherFunctions.sol\":3779:3788  requestId */\n      dup6\n        /* \"WeatherFunctions.sol\":3770:3789  requests[requestId] */\n      dup2\n      mstore\n      0x20\n      add\n      swap1\n      dup2\n      mstore\n      0x20\n      add\n      0x00\n      keccak256\n        /* \"WeatherFunctions.sol\":3770:3793  requests[requestId].err */\n      0x02\n      add\n        /* \"WeatherFunctions.sol\":3770:3799  requests[requestId].err = err */\n      swap1\n      dup2\n      tag_171\n      swap2\n      swap1\n      tag_137\n      jump\t// in\n    tag_171:\n      pop\n        /* \"WeatherFunctions.sol\":3839:3847  response */\n      dup2\n        /* \"WeatherFunctions.sol\":3810:3818  requests */\n      0x03\n        /* \"WeatherFunctions.sol\":3810:3829  requests[requestId] */\n      0x00\n        /* \"WeatherFunctions.sol\":3819:3828  requestId */\n      dup6\n        /* \"WeatherFunctions.sol\":3810:3829  requests[requestId] */\n      dup2\n      mstore\n      0x20\n      add\n      swap1\n      dup2\n      mstore\n      0x20\n      add\n      0x00\n      keccak256\n        /* \"WeatherFunctions.sol\":3810:3838  requests[requestId].response */\n      0x01\n      add\n        /* \"WeatherFunctions.sol\":3810:3847  requests[requestId].response=response */\n      swap1\n      dup2\n      tag_172\n      swap2\n      swap1\n      tag_137\n      jump\t// in\n    tag_172:\n      pop\n        /* \"WeatherFunctions.sol\":3860:3874  address sender */\n      0x00\n        /* \"WeatherFunctions.sol\":3877:3883  getAdd */\n      0x0d\n        /* \"WeatherFunctions.sol\":3877:3894  getAdd[requestId] */\n      0x00\n        /* \"WeatherFunctions.sol\":3884:3893  requestId */\n      dup6\n        /* \"WeatherFunctions.sol\":3877:3894  getAdd[requestId] */\n      dup2\n      mstore\n      0x20\n      add\n      swap1\n      dup2\n      mstore\n      0x20\n      add\n      0x00\n      keccak256\n      0x00\n      swap1\n      sload\n      swap1\n      0x0100\n      exp\n      swap1\n      div\n      0xffffffffffffffffffffffffffffffffffffffff\n      and\n        /* \"WeatherFunctions.sol\":3860:3894  address sender = getAdd[requestId] */\n      swap1\n      pop\n        /* \"WeatherFunctions.sol\":3934:3949  lastTemperature */\n      0x0a\n        /* \"WeatherFunctions.sol\":3907:3913  cities */\n      0x0c\n        /* \"WeatherFunctions.sol\":3907:3921  cities[sender] */\n      0x00\n        /* \"WeatherFunctions.sol\":3914:3920  sender */\n      dup4\n        /* \"WeatherFunctions.sol\":3907:3921  cities[sender] */\n      0xffffffffffffffffffffffffffffffffffffffff\n      and\n      0xffffffffffffffffffffffffffffffffffffffff\n      and\n      dup2\n      mstore\n      0x20\n      add\n      swap1\n      dup2\n      mstore\n      0x20\n      add\n      0x00\n      keccak256\n        /* \"WeatherFunctions.sol\":3907:3933  cities[sender].Temperature */\n      0x01\n      add\n        /* \"WeatherFunctions.sol\":3907:3949  cities[sender].Temperature=lastTemperature */\n      swap1\n      dup2\n      tag_173\n      swap2\n      swap1\n      tag_174\n      jump\t// in\n    tag_173:\n      pop\n        /* \"WeatherFunctions.sol\":3987:4002  block.timestamp */\n      timestamp\n        /* \"WeatherFunctions.sol\":3960:3966  cities */\n      0x0c\n        /* \"WeatherFunctions.sol\":3960:3974  cities[sender] */\n      0x00\n        /* \"WeatherFunctions.sol\":3967:3973  sender */\n      dup4\n        /* \"WeatherFunctions.sol\":3960:3974  cities[sender] */\n      0xffffffffffffffffffffffffffffffffffffffff\n      and\n      0xffffffffffffffffffffffffffffffffffffffff\n      and\n      dup2\n      mstore\n      0x20\n      add\n      swap1\n      dup2\n      mstore\n      0x20\n      add\n      0x00\n      keccak256\n        /* \"WeatherFunctions.sol\":3960:3984  cities[sender].timeStamp */\n      0x02\n      add\n        /* \"WeatherFunctions.sol\":3960:4002  cities[sender].timeStamp = block.timestamp */\n      dup2\n      swap1\n      sstore\n      pop\n        /* \"WeatherFunctions.sol\":4029:4038  requestId */\n      dup4\n        /* \"WeatherFunctions.sol\":4020:4071  Response(requestId, lastTemperature, response, err) */\n      0x160ed0aaffbef6885155188b91459cb5a97d5daadccf7561d8c46deea6641b50\n        /* \"WeatherFunctions.sol\":4040:4055  lastTemperature */\n      0x0a\n        /* \"WeatherFunctions.sol\":4057:4065  response */\n      dup6\n        /* \"WeatherFunctions.sol\":4067:4070  err */\n      dup6\n        /* \"WeatherFunctions.sol\":4020:4071  Response(requestId, lastTemperature, response, err) */\n      mload(0x40)\n      tag_175\n      swap4\n      swap3\n      swap2\n      swap1\n      tag_176\n      jump\t// in\n    tag_175:\n      mload(0x40)\n      dup1\n      swap2\n      sub\n      swap1\n      log2\n        /* \"WeatherFunctions.sol\":3538:4081  {... */\n      pop\n        /* \"WeatherFunctions.sol\":3402:4081  function fulfillRequest(... */\n      pop\n      pop\n      pop\n      jump\t// out\n        /* \"@chainlink/contracts/src/v0.8/functions/dev/v1_0_0/libraries/FunctionsRequest.sol\":4326:4533  function initializeRequestForInlineJavaScript(Request memory self, string memory javaScriptSource) internal pure {... */\n    tag_126:\n        /* \"@chainlink/contracts/src/v0.8/functions/dev/v1_0_0/libraries/FunctionsRequest.sol\":4445:4528  initializeRequest(self, Location.Inline, CodeLanguage.JavaScript, javaScriptSource) */\n      tag_178\n        /* \"@chainlink/contracts/src/v0.8/functions/dev/v1_0_0/libraries/FunctionsRequest.sol\":4463:4467  self */\n      dup3\n        /* \"@chainlink/contracts/src/v0.8/functions/dev/v1_0_0/libraries/FunctionsRequest.sol\":4469:4484  Location.Inline */\n      0x00\n        /* \"@chainlink/contracts/src/v0.8/functions/dev/v1_0_0/libraries/FunctionsRequest.sol\":4486:4509  CodeLanguage.JavaScript */\n      0x00\n        /* \"@chainlink/contracts/src/v0.8/functions/dev/v1_0_0/libraries/FunctionsRequest.sol\":4511:4527  javaScriptSource */\n      dup5\n        /* \"@chainlink/contracts/src/v0.8/functions/dev/v1_0_0/libraries/FunctionsRequest.sol\":4445:4462  initializeRequest */\n      tag_179\n        /* \"@chainlink/contracts/src/v0.8/functions/dev/v1_0_0/libraries/FunctionsRequest.sol\":4445:4528  initializeRequest(self, Location.Inline, CodeLanguage.JavaScript, javaScriptSource) */\n      jump\t// in\n    tag_178:\n        /* \"@chainlink/contracts/src/v0.8/functions/dev/v1_0_0/libraries/FunctionsRequest.sol\":4326:4533  function initializeRequestForInlineJavaScript(Request memory self, string memory javaScriptSource) internal pure {... */\n      pop\n      pop\n      jump\t// out\n        /* \"@chainlink/contracts/src/v0.8/functions/dev/v1_0_0/libraries/FunctionsRequest.sol\":5830:5978  function setArgs(Request memory self, string[] memory args) internal pure {... */\n    tag_129:\n        /* \"@chainlink/contracts/src/v0.8/functions/dev/v1_0_0/libraries/FunctionsRequest.sol\":5929:5930  0 */\n      0x00\n        /* \"@chainlink/contracts/src/v0.8/functions/dev/v1_0_0/libraries/FunctionsRequest.sol\":5914:5918  args */\n      dup2\n        /* \"@chainlink/contracts/src/v0.8/functions/dev/v1_0_0/libraries/FunctionsRequest.sol\":5914:5925  args.length */\n      mload\n        /* \"@chainlink/contracts/src/v0.8/functions/dev/v1_0_0/libraries/FunctionsRequest.sol\":5914:5930  args.length == 0 */\n      sub\n        /* \"@chainlink/contracts/src/v0.8/functions/dev/v1_0_0/libraries/FunctionsRequest.sol\":5910:5950  if (args.length == 0) revert EmptyArgs() */\n      tag_181\n      jumpi\n        /* \"@chainlink/contracts/src/v0.8/functions/dev/v1_0_0/libraries/FunctionsRequest.sol\":5939:5950  EmptyArgs() */\n      mload(0x40)\n      0xfe936cb700000000000000000000000000000000000000000000000000000000\n      dup2\n      mstore\n      0x04\n      add\n      mload(0x40)\n      dup1\n      swap2\n      sub\n      swap1\n      revert\n        /* \"@chainlink/contracts/src/v0.8/functions/dev/v1_0_0/libraries/FunctionsRequest.sol\":5910:5950  if (args.length == 0) revert EmptyArgs() */\n    tag_181:\n        /* \"@chainlink/contracts/src/v0.8/functions/dev/v1_0_0/libraries/FunctionsRequest.sol\":5969:5973  args */\n      dup1\n        /* \"@chainlink/contracts/src/v0.8/functions/dev/v1_0_0/libraries/FunctionsRequest.sol\":5957:5961  self */\n      dup3\n        /* \"@chainlink/contracts/src/v0.8/functions/dev/v1_0_0/libraries/FunctionsRequest.sol\":5957:5966  self.args */\n      0xa0\n      add\n        /* \"@chainlink/contracts/src/v0.8/functions/dev/v1_0_0/libraries/FunctionsRequest.sol\":5957:5973  self.args = args */\n      dup2\n      swap1\n      mstore\n      pop\n        /* \"@chainlink/contracts/src/v0.8/functions/dev/v1_0_0/libraries/FunctionsRequest.sol\":5830:5978  function setArgs(Request memory self, string[] memory args) internal pure {... */\n      pop\n      pop\n      jump\t// out\n        /* \"@chainlink/contracts/src/v0.8/functions/dev/v1_0_0/libraries/FunctionsRequest.sol\":2161:3431  function encodeCBOR(Request memory self) internal pure returns (bytes memory) {... */\n    tag_132:\n        /* \"@chainlink/contracts/src/v0.8/functions/dev/v1_0_0/libraries/FunctionsRequest.sol\":2225:2237  bytes memory */\n      0x60\n        /* \"@chainlink/contracts/src/v0.8/functions/dev/v1_0_0/libraries/FunctionsRequest.sol\":2245:2274  CBOR.CBORBuffer memory buffer */\n      0x00\n        /* \"@chainlink/contracts/src/v0.8/functions/dev/v1_0_0/libraries/FunctionsRequest.sol\":2277:2309  CBOR.create(DEFAULT_BUFFER_SIZE) */\n      tag_183\n        /* \"@chainlink/contracts/src/v0.8/functions/dev/v1_0_0/libraries/FunctionsRequest.sol\":378:381  256 */\n      0x0100\n        /* \"@chainlink/contracts/src/v0.8/functions/dev/v1_0_0/libraries/FunctionsRequest.sol\":2277:2288  CBOR.create */\n      tag_184\n        /* \"@chainlink/contracts/src/v0.8/functions/dev/v1_0_0/libraries/FunctionsRequest.sol\":2277:2309  CBOR.create(DEFAULT_BUFFER_SIZE) */\n      jump\t// in\n    tag_183:\n        /* \"@chainlink/contracts/src/v0.8/functions/dev/v1_0_0/libraries/FunctionsRequest.sol\":2245:2309  CBOR.CBORBuffer memory buffer = CBOR.create(DEFAULT_BUFFER_SIZE) */\n      swap1\n      pop\n        /* \"@chainlink/contracts/src/v0.8/functions/dev/v1_0_0/libraries/FunctionsRequest.sol\":2316:2350  buffer.writeString(\"codeLocation\") */\n      tag_185\n      mload(0x40)\n      dup1\n      0x40\n      add\n      0x40\n      mstore\n      dup1\n      0x0c\n      dup2\n      mstore\n      0x20\n      add\n      0x636f64654c6f636174696f6e0000000000000000000000000000000000000000\n      dup2\n      mstore\n      pop\n        /* \"@chainlink/contracts/src/v0.8/functions/dev/v1_0_0/libraries/FunctionsRequest.sol\":2316:2322  buffer */\n      dup3\n        /* \"@chainlink/contracts/src/v0.8/functions/dev/v1_0_0/libraries/FunctionsRequest.sol\":2316:2334  buffer.writeString */\n      tag_186\n      swap1\n        /* \"@chainlink/contracts/src/v0.8/functions/dev/v1_0_0/libraries/FunctionsRequest.sol\":2316:2350  buffer.writeString(\"codeLocation\") */\n      swap2\n      swap1\n      0xffffffff\n      and\n      jump\t// in\n    tag_185:\n        /* \"@chainlink/contracts/src/v0.8/functions/dev/v1_0_0/libraries/FunctionsRequest.sol\":2356:2403  buffer.writeUInt256(uint256(self.codeLocation)) */\n      tag_187\n        /* \"@chainlink/contracts/src/v0.8/functions/dev/v1_0_0/libraries/FunctionsRequest.sol\":2384:2388  self */\n      dup4\n        /* \"@chainlink/contracts/src/v0.8/functions/dev/v1_0_0/libraries/FunctionsRequest.sol\":2384:2401  self.codeLocation */\n      0x00\n      add\n      mload\n        /* \"@chainlink/contracts/src/v0.8/functions/dev/v1_0_0/libraries/FunctionsRequest.sol\":2376:2402  uint256(self.codeLocation) */\n      0x02\n      dup2\n      gt\n      iszero\n      tag_188\n      jumpi\n      tag_189\n      tag_190\n      jump\t// in\n    tag_189:\n    tag_188:\n        /* \"@chainlink/contracts/src/v0.8/functions/dev/v1_0_0/libraries/FunctionsRequest.sol\":2356:2362  buffer */\n      dup3\n        /* \"@chainlink/contracts/src/v0.8/functions/dev/v1_0_0/libraries/FunctionsRequest.sol\":2356:2375  buffer.writeUInt256 */\n      tag_191\n      swap1\n        /* \"@chainlink/contracts/src/v0.8/functions/dev/v1_0_0/libraries/FunctionsRequest.sol\":2356:2403  buffer.writeUInt256(uint256(self.codeLocation)) */\n      swap2\n      swap1\n      0xffffffff\n      and\n      jump\t// in\n    tag_187:\n        /* \"@chainlink/contracts/src/v0.8/functions/dev/v1_0_0/libraries/FunctionsRequest.sol\":2410:2440  buffer.writeString(\"language\") */\n      tag_192\n      mload(0x40)\n      dup1\n      0x40\n      add\n      0x40\n      mstore\n      dup1\n      0x08\n      dup2\n      mstore\n      0x20\n      add\n      0x6c616e6775616765000000000000000000000000000000000000000000000000\n      dup2\n      mstore\n      pop\n        /* \"@chainlink/contracts/src/v0.8/functions/dev/v1_0_0/libraries/FunctionsRequest.sol\":2410:2416  buffer */\n      dup3\n        /* \"@chainlink/contracts/src/v0.8/functions/dev/v1_0_0/libraries/FunctionsRequest.sol\":2410:2428  buffer.writeString */\n      tag_186\n      swap1\n        /* \"@chainlink/contracts/src/v0.8/functions/dev/v1_0_0/libraries/FunctionsRequest.sol\":2410:2440  buffer.writeString(\"language\") */\n      swap2\n      swap1\n      0xffffffff\n      and\n      jump\t// in\n    tag_192:\n        /* \"@chainlink/contracts/src/v0.8/functions/dev/v1_0_0/libraries/FunctionsRequest.sol\":2446:2489  buffer.writeUInt256(uint256(self.language)) */\n      tag_193\n        /* \"@chainlink/contracts/src/v0.8/functions/dev/v1_0_0/libraries/FunctionsRequest.sol\":2474:2478  self */\n      dup4\n        /* \"@chainlink/contracts/src/v0.8/functions/dev/v1_0_0/libraries/FunctionsRequest.sol\":2474:2487  self.language */\n      0x40\n      add\n      mload\n        /* \"@chainlink/contracts/src/v0.8/functions/dev/v1_0_0/libraries/FunctionsRequest.sol\":2466:2488  uint256(self.language) */\n      0x00\n      dup2\n      gt\n      iszero\n      tag_194\n      jumpi\n      tag_195\n      tag_190\n      jump\t// in\n    tag_195:\n    tag_194:\n        /* \"@chainlink/contracts/src/v0.8/functions/dev/v1_0_0/libraries/FunctionsRequest.sol\":2446:2452  buffer */\n      dup3\n        /* \"@chainlink/contracts/src/v0.8/functions/dev/v1_0_0/libraries/FunctionsRequest.sol\":2446:2465  buffer.writeUInt256 */\n      tag_191\n      swap1\n        /* \"@chainlink/contracts/src/v0.8/functions/dev/v1_0_0/libraries/FunctionsRequest.sol\":2446:2489  buffer.writeUInt256(uint256(self.language)) */\n      swap2\n      swap1\n      0xffffffff\n      and\n      jump\t// in\n    tag_193:\n        /* \"@chainlink/contracts/src/v0.8/functions/dev/v1_0_0/libraries/FunctionsRequest.sol\":2496:2524  buffer.writeString(\"source\") */\n      tag_196\n      mload(0x40)\n      dup1\n      0x40\n      add\n      0x40\n      mstore\n      dup1\n      0x06\n      dup2\n      mstore\n      0x20\n      add\n      0x736f757263650000000000000000000000000000000000000000000000000000\n      dup2\n      mstore\n      pop\n        /* \"@chainlink/contracts/src/v0.8/functions/dev/v1_0_0/libraries/FunctionsRequest.sol\":2496:2502  buffer */\n      dup3\n        /* \"@chainlink/contracts/src/v0.8/functions/dev/v1_0_0/libraries/FunctionsRequest.sol\":2496:2514  buffer.writeString */\n      tag_186\n      swap1\n        /* \"@chainlink/contracts/src/v0.8/functions/dev/v1_0_0/libraries/FunctionsRequest.sol\":2496:2524  buffer.writeString(\"source\") */\n      swap2\n      swap1\n      0xffffffff\n      and\n      jump\t// in\n    tag_196:\n        /* \"@chainlink/contracts/src/v0.8/functions/dev/v1_0_0/libraries/FunctionsRequest.sol\":2530:2561  buffer.writeString(self.source) */\n      tag_197\n        /* \"@chainlink/contracts/src/v0.8/functions/dev/v1_0_0/libraries/FunctionsRequest.sol\":2549:2553  self */\n      dup4\n        /* \"@chainlink/contracts/src/v0.8/functions/dev/v1_0_0/libraries/FunctionsRequest.sol\":2549:2560  self.source */\n      0x60\n      add\n      mload\n        /* \"@chainlink/contracts/src/v0.8/functions/dev/v1_0_0/libraries/FunctionsRequest.sol\":2530:2536  buffer */\n      dup3\n        /* \"@chainlink/contracts/src/v0.8/functions/dev/v1_0_0/libraries/FunctionsRequest.sol\":2530:2548  buffer.writeString */\n      tag_186\n      swap1\n        /* \"@chainlink/contracts/src/v0.8/functions/dev/v1_0_0/libraries/FunctionsRequest.sol\":2530:2561  buffer.writeString(self.source) */\n      swap2\n      swap1\n      0xffffffff\n      and\n      jump\t// in\n    tag_197:\n        /* \"@chainlink/contracts/src/v0.8/functions/dev/v1_0_0/libraries/FunctionsRequest.sol\":2591:2592  0 */\n      0x00\n        /* \"@chainlink/contracts/src/v0.8/functions/dev/v1_0_0/libraries/FunctionsRequest.sol\":2572:2576  self */\n      dup4\n        /* \"@chainlink/contracts/src/v0.8/functions/dev/v1_0_0/libraries/FunctionsRequest.sol\":2572:2581  self.args */\n      0xa0\n      add\n      mload\n        /* \"@chainlink/contracts/src/v0.8/functions/dev/v1_0_0/libraries/FunctionsRequest.sol\":2572:2588  self.args.length */\n      mload\n        /* \"@chainlink/contracts/src/v0.8/functions/dev/v1_0_0/libraries/FunctionsRequest.sol\":2572:2592  self.args.length > 0 */\n      gt\n        /* \"@chainlink/contracts/src/v0.8/functions/dev/v1_0_0/libraries/FunctionsRequest.sol\":2568:2795  if (self.args.length > 0) {... */\n      iszero\n      tag_198\n      jumpi\n        /* \"@chainlink/contracts/src/v0.8/functions/dev/v1_0_0/libraries/FunctionsRequest.sol\":2602:2628  buffer.writeString(\"args\") */\n      tag_199\n      mload(0x40)\n      dup1\n      0x40\n      add\n      0x40\n      mstore\n      dup1\n      0x04\n      dup2\n      mstore\n      0x20\n      add\n      0x6172677300000000000000000000000000000000000000000000000000000000\n      dup2\n      mstore\n      pop\n        /* \"@chainlink/contracts/src/v0.8/functions/dev/v1_0_0/libraries/FunctionsRequest.sol\":2602:2608  buffer */\n      dup3\n        /* \"@chainlink/contracts/src/v0.8/functions/dev/v1_0_0/libraries/FunctionsRequest.sol\":2602:2620  buffer.writeString */\n      tag_186\n      swap1\n        /* \"@chainlink/contracts/src/v0.8/functions/dev/v1_0_0/libraries/FunctionsRequest.sol\":2602:2628  buffer.writeString(\"args\") */\n      swap2\n      swap1\n      0xffffffff\n      and\n      jump\t// in\n    tag_199:\n        /* \"@chainlink/contracts/src/v0.8/functions/dev/v1_0_0/libraries/FunctionsRequest.sol\":2636:2655  buffer.startArray() */\n      tag_200\n        /* \"@chainlink/contracts/src/v0.8/functions/dev/v1_0_0/libraries/FunctionsRequest.sol\":2636:2642  buffer */\n      dup2\n        /* \"@chainlink/contracts/src/v0.8/functions/dev/v1_0_0/libraries/FunctionsRequest.sol\":2636:2653  buffer.startArray */\n      tag_201\n        /* \"@chainlink/contracts/src/v0.8/functions/dev/v1_0_0/libraries/FunctionsRequest.sol\":2636:2655  buffer.startArray() */\n      jump\t// in\n    tag_200:\n        /* \"@chainlink/contracts/src/v0.8/functions/dev/v1_0_0/libraries/FunctionsRequest.sol\":2668:2677  uint256 i */\n      0x00\n        /* \"@chainlink/contracts/src/v0.8/functions/dev/v1_0_0/libraries/FunctionsRequest.sol\":2680:2681  0 */\n      0x00\n        /* \"@chainlink/contracts/src/v0.8/functions/dev/v1_0_0/libraries/FunctionsRequest.sol\":2668:2681  uint256 i = 0 */\n      swap1\n      pop\n        /* \"@chainlink/contracts/src/v0.8/functions/dev/v1_0_0/libraries/FunctionsRequest.sol\":2663:2761  for (uint256 i = 0; i < self.args.length; ++i) {... */\n    tag_202:\n        /* \"@chainlink/contracts/src/v0.8/functions/dev/v1_0_0/libraries/FunctionsRequest.sol\":2687:2691  self */\n      dup4\n        /* \"@chainlink/contracts/src/v0.8/functions/dev/v1_0_0/libraries/FunctionsRequest.sol\":2687:2696  self.args */\n      0xa0\n      add\n      mload\n        /* \"@chainlink/contracts/src/v0.8/functions/dev/v1_0_0/libraries/FunctionsRequest.sol\":2687:2703  self.args.length */\n      mload\n        /* \"@chainlink/contracts/src/v0.8/functions/dev/v1_0_0/libraries/FunctionsRequest.sol\":2683:2684  i */\n      dup2\n        /* \"@chainlink/contracts/src/v0.8/functions/dev/v1_0_0/libraries/FunctionsRequest.sol\":2683:2703  i < self.args.length */\n      lt\n        /* \"@chainlink/contracts/src/v0.8/functions/dev/v1_0_0/libraries/FunctionsRequest.sol\":2663:2761  for (uint256 i = 0; i < self.args.length; ++i) {... */\n      iszero\n      tag_203\n      jumpi\n        /* \"@chainlink/contracts/src/v0.8/functions/dev/v1_0_0/libraries/FunctionsRequest.sol\":2720:2752  buffer.writeString(self.args[i]) */\n      tag_205\n        /* \"@chainlink/contracts/src/v0.8/functions/dev/v1_0_0/libraries/FunctionsRequest.sol\":2739:2743  self */\n      dup5\n        /* \"@chainlink/contracts/src/v0.8/functions/dev/v1_0_0/libraries/FunctionsRequest.sol\":2739:2748  self.args */\n      0xa0\n      add\n      mload\n        /* \"@chainlink/contracts/src/v0.8/functions/dev/v1_0_0/libraries/FunctionsRequest.sol\":2749:2750  i */\n      dup3\n        /* \"@chainlink/contracts/src/v0.8/functions/dev/v1_0_0/libraries/FunctionsRequest.sol\":2739:2751  self.args[i] */\n      dup2\n      mload\n      dup2\n      lt\n      tag_206\n      jumpi\n      tag_207\n      tag_117\n      jump\t// in\n    tag_207:\n    tag_206:\n      0x20\n      mul\n      0x20\n      add\n      add\n      mload\n        /* \"@chainlink/contracts/src/v0.8/functions/dev/v1_0_0/libraries/FunctionsRequest.sol\":2720:2726  buffer */\n      dup4\n        /* \"@chainlink/contracts/src/v0.8/functions/dev/v1_0_0/libraries/FunctionsRequest.sol\":2720:2738  buffer.writeString */\n      tag_186\n      swap1\n        /* \"@chainlink/contracts/src/v0.8/functions/dev/v1_0_0/libraries/FunctionsRequest.sol\":2720:2752  buffer.writeString(self.args[i]) */\n      swap2\n      swap1\n      0xffffffff\n      and\n      jump\t// in\n    tag_205:\n        /* \"@chainlink/contracts/src/v0.8/functions/dev/v1_0_0/libraries/FunctionsRequest.sol\":2705:2708  ++i */\n      dup1\n      0x01\n      add\n      swap1\n      pop\n        /* \"@chainlink/contracts/src/v0.8/functions/dev/v1_0_0/libraries/FunctionsRequest.sol\":2663:2761  for (uint256 i = 0; i < self.args.length; ++i) {... */\n      jump(tag_202)\n    tag_203:\n      pop\n        /* \"@chainlink/contracts/src/v0.8/functions/dev/v1_0_0/libraries/FunctionsRequest.sol\":2768:2788  buffer.endSequence() */\n      tag_208\n        /* \"@chainlink/contracts/src/v0.8/functions/dev/v1_0_0/libraries/FunctionsRequest.sol\":2768:2774  buffer */\n      dup2\n        /* \"@chainlink/contracts/src/v0.8/functions/dev/v1_0_0/libraries/FunctionsRequest.sol\":2768:2786  buffer.endSequence */\n      tag_209\n        /* \"@chainlink/contracts/src/v0.8/functions/dev/v1_0_0/libraries/FunctionsRequest.sol\":2768:2788  buffer.endSequence() */\n      jump\t// in\n    tag_208:\n        /* \"@chainlink/contracts/src/v0.8/functions/dev/v1_0_0/libraries/FunctionsRequest.sol\":2568:2795  if (self.args.length > 0) {... */\n    tag_198:\n        /* \"@chainlink/contracts/src/v0.8/functions/dev/v1_0_0/libraries/FunctionsRequest.sol\":2845:2846  0 */\n      0x00\n        /* \"@chainlink/contracts/src/v0.8/functions/dev/v1_0_0/libraries/FunctionsRequest.sol\":2805:2809  self */\n      dup4\n        /* \"@chainlink/contracts/src/v0.8/functions/dev/v1_0_0/libraries/FunctionsRequest.sol\":2805:2835  self.encryptedSecretsReference */\n      0x80\n      add\n      mload\n        /* \"@chainlink/contracts/src/v0.8/functions/dev/v1_0_0/libraries/FunctionsRequest.sol\":2805:2842  self.encryptedSecretsReference.length */\n      mload\n        /* \"@chainlink/contracts/src/v0.8/functions/dev/v1_0_0/libraries/FunctionsRequest.sol\":2805:2846  self.encryptedSecretsReference.length > 0 */\n      gt\n        /* \"@chainlink/contracts/src/v0.8/functions/dev/v1_0_0/libraries/FunctionsRequest.sol\":2801:3147  if (self.encryptedSecretsReference.length > 0) {... */\n      iszero\n      tag_210\n      jumpi\n        /* \"@chainlink/contracts/src/v0.8/functions/dev/v1_0_0/libraries/FunctionsRequest.sol\":2884:2899  Location.Inline */\n      0x00\n        /* \"@chainlink/contracts/src/v0.8/functions/dev/v1_0_0/libraries/FunctionsRequest.sol\":2860:2899  self.secretsLocation == Location.Inline */\n      0x02\n      dup2\n      gt\n      iszero\n      tag_211\n      jumpi\n      tag_212\n      tag_190\n      jump\t// in\n    tag_212:\n    tag_211:\n        /* \"@chainlink/contracts/src/v0.8/functions/dev/v1_0_0/libraries/FunctionsRequest.sol\":2860:2864  self */\n      dup4\n        /* \"@chainlink/contracts/src/v0.8/functions/dev/v1_0_0/libraries/FunctionsRequest.sol\":2860:2880  self.secretsLocation */\n      0x20\n      add\n      mload\n        /* \"@chainlink/contracts/src/v0.8/functions/dev/v1_0_0/libraries/FunctionsRequest.sol\":2860:2899  self.secretsLocation == Location.Inline */\n      0x02\n      dup2\n      gt\n      iszero\n      tag_213\n      jumpi\n      tag_214\n      tag_190\n      jump\t// in\n    tag_214:\n    tag_213:\n      sub\n        /* \"@chainlink/contracts/src/v0.8/functions/dev/v1_0_0/libraries/FunctionsRequest.sol\":2856:2944  if (self.secretsLocation == Location.Inline) {... */\n      tag_215\n      jumpi\n        /* \"@chainlink/contracts/src/v0.8/functions/dev/v1_0_0/libraries/FunctionsRequest.sol\":2918:2935  NoInlineSecrets() */\n      mload(0x40)\n      0xa80d31f700000000000000000000000000000000000000000000000000000000\n      dup2\n      mstore\n      0x04\n      add\n      mload(0x40)\n      dup1\n      swap2\n      sub\n      swap1\n      revert\n        /* \"@chainlink/contracts/src/v0.8/functions/dev/v1_0_0/libraries/FunctionsRequest.sol\":2856:2944  if (self.secretsLocation == Location.Inline) {... */\n    tag_215:\n        /* \"@chainlink/contracts/src/v0.8/functions/dev/v1_0_0/libraries/FunctionsRequest.sol\":2951:2988  buffer.writeString(\"secretsLocation\") */\n      tag_216\n      mload(0x40)\n      dup1\n      0x40\n      add\n      0x40\n      mstore\n      dup1\n      0x0f\n      dup2\n      mstore\n      0x20\n      add\n      0x736563726574734c6f636174696f6e0000000000000000000000000000000000\n      dup2\n      mstore\n      pop\n        /* \"@chainlink/contracts/src/v0.8/functions/dev/v1_0_0/libraries/FunctionsRequest.sol\":2951:2957  buffer */\n      dup3\n        /* \"@chainlink/contracts/src/v0.8/functions/dev/v1_0_0/libraries/FunctionsRequest.sol\":2951:2969  buffer.writeString */\n      tag_186\n      swap1\n        /* \"@chainlink/contracts/src/v0.8/functions/dev/v1_0_0/libraries/FunctionsRequest.sol\":2951:2988  buffer.writeString(\"secretsLocation\") */\n      swap2\n      swap1\n      0xffffffff\n      and\n      jump\t// in\n    tag_216:\n        /* \"@chainlink/contracts/src/v0.8/functions/dev/v1_0_0/libraries/FunctionsRequest.sol\":2996:3046  buffer.writeUInt256(uint256(self.secretsLocation)) */\n      tag_217\n        /* \"@chainlink/contracts/src/v0.8/functions/dev/v1_0_0/libraries/FunctionsRequest.sol\":3024:3028  self */\n      dup4\n        /* \"@chainlink/contracts/src/v0.8/functions/dev/v1_0_0/libraries/FunctionsRequest.sol\":3024:3044  self.secretsLocation */\n      0x20\n      add\n      mload\n        /* \"@chainlink/contracts/src/v0.8/functions/dev/v1_0_0/libraries/FunctionsRequest.sol\":3016:3045  uint256(self.secretsLocation) */\n      0x02\n      dup2\n      gt\n      iszero\n      tag_218\n      jumpi\n      tag_219\n      tag_190\n      jump\t// in\n    tag_219:\n    tag_218:\n        /* \"@chainlink/contracts/src/v0.8/functions/dev/v1_0_0/libraries/FunctionsRequest.sol\":2996:3002  buffer */\n      dup3\n        /* \"@chainlink/contracts/src/v0.8/functions/dev/v1_0_0/libraries/FunctionsRequest.sol\":2996:3015  buffer.writeUInt256 */\n      tag_191\n      swap1\n        /* \"@chainlink/contracts/src/v0.8/functions/dev/v1_0_0/libraries/FunctionsRequest.sol\":2996:3046  buffer.writeUInt256(uint256(self.secretsLocation)) */\n      swap2\n      swap1\n      0xffffffff\n      and\n      jump\t// in\n    tag_217:\n        /* \"@chainlink/contracts/src/v0.8/functions/dev/v1_0_0/libraries/FunctionsRequest.sol\":3054:3083  buffer.writeString(\"secrets\") */\n      tag_220\n      mload(0x40)\n      dup1\n      0x40\n      add\n      0x40\n      mstore\n      dup1\n      0x07\n      dup2\n      mstore\n      0x20\n      add\n      0x7365637265747300000000000000000000000000000000000000000000000000\n      dup2\n      mstore\n      pop\n        /* \"@chainlink/contracts/src/v0.8/functions/dev/v1_0_0/libraries/FunctionsRequest.sol\":3054:3060  buffer */\n      dup3\n        /* \"@chainlink/contracts/src/v0.8/functions/dev/v1_0_0/libraries/FunctionsRequest.sol\":3054:3072  buffer.writeString */\n      tag_186\n      swap1\n        /* \"@chainlink/contracts/src/v0.8/functions/dev/v1_0_0/libraries/FunctionsRequest.sol\":3054:3083  buffer.writeString(\"secrets\") */\n      swap2\n      swap1\n      0xffffffff\n      and\n      jump\t// in\n    tag_220:\n        /* \"@chainlink/contracts/src/v0.8/functions/dev/v1_0_0/libraries/FunctionsRequest.sol\":3091:3140  buffer.writeBytes(self.encryptedSecretsReference) */\n      tag_221\n        /* \"@chainlink/contracts/src/v0.8/functions/dev/v1_0_0/libraries/FunctionsRequest.sol\":3109:3113  self */\n      dup4\n        /* \"@chainlink/contracts/src/v0.8/functions/dev/v1_0_0/libraries/FunctionsRequest.sol\":3109:3139  self.encryptedSecretsReference */\n      0x80\n      add\n      mload\n        /* \"@chainlink/contracts/src/v0.8/functions/dev/v1_0_0/libraries/FunctionsRequest.sol\":3091:3097  buffer */\n      dup3\n        /* \"@chainlink/contracts/src/v0.8/functions/dev/v1_0_0/libraries/FunctionsRequest.sol\":3091:3108  buffer.writeBytes */\n      tag_222\n      swap1\n        /* \"@chainlink/contracts/src/v0.8/functions/dev/v1_0_0/libraries/FunctionsRequest.sol\":3091:3140  buffer.writeBytes(self.encryptedSecretsReference) */\n      swap2\n      swap1\n      0xffffffff\n      and\n      jump\t// in\n    tag_221:\n        /* \"@chainlink/contracts/src/v0.8/functions/dev/v1_0_0/libraries/FunctionsRequest.sol\":2801:3147  if (self.encryptedSecretsReference.length > 0) {... */\n    tag_210:\n        /* \"@chainlink/contracts/src/v0.8/functions/dev/v1_0_0/libraries/FunctionsRequest.sol\":3181:3182  0 */\n      0x00\n        /* \"@chainlink/contracts/src/v0.8/functions/dev/v1_0_0/libraries/FunctionsRequest.sol\":3157:3161  self */\n      dup4\n        /* \"@chainlink/contracts/src/v0.8/functions/dev/v1_0_0/libraries/FunctionsRequest.sol\":3157:3171  self.bytesArgs */\n      0xc0\n      add\n      mload\n        /* \"@chainlink/contracts/src/v0.8/functions/dev/v1_0_0/libraries/FunctionsRequest.sol\":3157:3178  self.bytesArgs.length */\n      mload\n        /* \"@chainlink/contracts/src/v0.8/functions/dev/v1_0_0/libraries/FunctionsRequest.sol\":3157:3182  self.bytesArgs.length > 0 */\n      gt\n        /* \"@chainlink/contracts/src/v0.8/functions/dev/v1_0_0/libraries/FunctionsRequest.sol\":3153:3399  if (self.bytesArgs.length > 0) {... */\n      iszero\n      tag_223\n      jumpi\n        /* \"@chainlink/contracts/src/v0.8/functions/dev/v1_0_0/libraries/FunctionsRequest.sol\":3192:3223  buffer.writeString(\"bytesArgs\") */\n      tag_224\n      mload(0x40)\n      dup1\n      0x40\n      add\n      0x40\n      mstore\n      dup1\n      0x09\n      dup2\n      mstore\n      0x20\n      add\n      0x6279746573417267730000000000000000000000000000000000000000000000\n      dup2\n      mstore\n      pop\n        /* \"@chainlink/contracts/src/v0.8/functions/dev/v1_0_0/libraries/FunctionsRequest.sol\":3192:3198  buffer */\n      dup3\n        /* \"@chainlink/contracts/src/v0.8/functions/dev/v1_0_0/libraries/FunctionsRequest.sol\":3192:3210  buffer.writeString */\n      tag_186\n      swap1\n        /* \"@chainlink/contracts/src/v0.8/functions/dev/v1_0_0/libraries/FunctionsRequest.sol\":3192:3223  buffer.writeString(\"bytesArgs\") */\n      swap2\n      swap1\n      0xffffffff\n      and\n      jump\t// in\n    tag_224:\n        /* \"@chainlink/contracts/src/v0.8/functions/dev/v1_0_0/libraries/FunctionsRequest.sol\":3231:3250  buffer.startArray() */\n      tag_225\n        /* \"@chainlink/contracts/src/v0.8/functions/dev/v1_0_0/libraries/FunctionsRequest.sol\":3231:3237  buffer */\n      dup2\n        /* \"@chainlink/contracts/src/v0.8/functions/dev/v1_0_0/libraries/FunctionsRequest.sol\":3231:3248  buffer.startArray */\n      tag_201\n        /* \"@chainlink/contracts/src/v0.8/functions/dev/v1_0_0/libraries/FunctionsRequest.sol\":3231:3250  buffer.startArray() */\n      jump\t// in\n    tag_225:\n        /* \"@chainlink/contracts/src/v0.8/functions/dev/v1_0_0/libraries/FunctionsRequest.sol\":3263:3272  uint256 i */\n      0x00\n        /* \"@chainlink/contracts/src/v0.8/functions/dev/v1_0_0/libraries/FunctionsRequest.sol\":3275:3276  0 */\n      0x00\n        /* \"@chainlink/contracts/src/v0.8/functions/dev/v1_0_0/libraries/FunctionsRequest.sol\":3263:3276  uint256 i = 0 */\n      swap1\n      pop\n        /* \"@chainlink/contracts/src/v0.8/functions/dev/v1_0_0/libraries/FunctionsRequest.sol\":3258:3365  for (uint256 i = 0; i < self.bytesArgs.length; ++i) {... */\n    tag_226:\n        /* \"@chainlink/contracts/src/v0.8/functions/dev/v1_0_0/libraries/FunctionsRequest.sol\":3282:3286  self */\n      dup4\n        /* \"@chainlink/contracts/src/v0.8/functions/dev/v1_0_0/libraries/FunctionsRequest.sol\":3282:3296  self.bytesArgs */\n      0xc0\n      add\n      mload\n        /* \"@chainlink/contracts/src/v0.8/functions/dev/v1_0_0/libraries/FunctionsRequest.sol\":3282:3303  self.bytesArgs.length */\n      mload\n        /* \"@chainlink/contracts/src/v0.8/functions/dev/v1_0_0/libraries/FunctionsRequest.sol\":3278:3279  i */\n      dup2\n        /* \"@chainlink/contracts/src/v0.8/functions/dev/v1_0_0/libraries/FunctionsRequest.sol\":3278:3303  i < self.bytesArgs.length */\n      lt\n        /* \"@chainlink/contracts/src/v0.8/functions/dev/v1_0_0/libraries/FunctionsRequest.sol\":3258:3365  for (uint256 i = 0; i < self.bytesArgs.length; ++i) {... */\n      iszero\n      tag_227\n      jumpi\n        /* \"@chainlink/contracts/src/v0.8/functions/dev/v1_0_0/libraries/FunctionsRequest.sol\":3320:3356  buffer.writeBytes(self.bytesArgs[i]) */\n      tag_229\n        /* \"@chainlink/contracts/src/v0.8/functions/dev/v1_0_0/libraries/FunctionsRequest.sol\":3338:3342  self */\n      dup5\n        /* \"@chainlink/contracts/src/v0.8/functions/dev/v1_0_0/libraries/FunctionsRequest.sol\":3338:3352  self.bytesArgs */\n      0xc0\n      add\n      mload\n        /* \"@chainlink/contracts/src/v0.8/functions/dev/v1_0_0/libraries/FunctionsRequest.sol\":3353:3354  i */\n      dup3\n        /* \"@chainlink/contracts/src/v0.8/functions/dev/v1_0_0/libraries/FunctionsRequest.sol\":3338:3355  self.bytesArgs[i] */\n      dup2\n      mload\n      dup2\n      lt\n      tag_230\n      jumpi\n      tag_231\n      tag_117\n      jump\t// in\n    tag_231:\n    tag_230:\n      0x20\n      mul\n      0x20\n      add\n      add\n      mload\n        /* \"@chainlink/contracts/src/v0.8/functions/dev/v1_0_0/libraries/FunctionsRequest.sol\":3320:3326  buffer */\n      dup4\n        /* \"@chainlink/contracts/src/v0.8/functions/dev/v1_0_0/libraries/FunctionsRequest.sol\":3320:3337  buffer.writeBytes */\n      tag_222\n      swap1\n        /* \"@chainlink/contracts/src/v0.8/functions/dev/v1_0_0/libraries/FunctionsRequest.sol\":3320:3356  buffer.writeBytes(self.bytesArgs[i]) */\n      swap2\n      swap1\n      0xffffffff\n      and\n      jump\t// in\n    tag_229:\n        /* \"@chainlink/contracts/src/v0.8/functions/dev/v1_0_0/libraries/FunctionsRequest.sol\":3305:3308  ++i */\n      dup1\n      0x01\n      add\n      swap1\n      pop\n        /* \"@chainlink/contracts/src/v0.8/functions/dev/v1_0_0/libraries/FunctionsRequest.sol\":3258:3365  for (uint256 i = 0; i < self.bytesArgs.length; ++i) {... */\n      jump(tag_226)\n    tag_227:\n      pop\n        /* \"@chainlink/contracts/src/v0.8/functions/dev/v1_0_0/libraries/FunctionsRequest.sol\":3372:3392  buffer.endSequence() */\n      tag_232\n        /* \"@chainlink/contracts/src/v0.8/functions/dev/v1_0_0/libraries/FunctionsRequest.sol\":3372:3378  buffer */\n      dup2\n        /* \"@chainlink/contracts/src/v0.8/functions/dev/v1_0_0/libraries/FunctionsRequest.sol\":3372:3390  buffer.endSequence */\n      tag_209\n        /* \"@chainlink/contracts/src/v0.8/functions/dev/v1_0_0/libraries/FunctionsRequest.sol\":3372:3392  buffer.endSequence() */\n      jump\t// in\n    tag_232:\n        /* \"@chainlink/contracts/src/v0.8/functions/dev/v1_0_0/libraries/FunctionsRequest.sol\":3153:3399  if (self.bytesArgs.length > 0) {... */\n    tag_223:\n        /* \"@chainlink/contracts/src/v0.8/functions/dev/v1_0_0/libraries/FunctionsRequest.sol\":3412:3418  buffer */\n      dup1\n        /* \"@chainlink/contracts/src/v0.8/functions/dev/v1_0_0/libraries/FunctionsRequest.sol\":3412:3422  buffer.buf */\n      0x00\n      add\n      mload\n        /* \"@chainlink/contracts/src/v0.8/functions/dev/v1_0_0/libraries/FunctionsRequest.sol\":3412:3426  buffer.buf.buf */\n      0x00\n      add\n      mload\n        /* \"@chainlink/contracts/src/v0.8/functions/dev/v1_0_0/libraries/FunctionsRequest.sol\":3405:3426  return buffer.buf.buf */\n      swap2\n      pop\n      pop\n        /* \"@chainlink/contracts/src/v0.8/functions/dev/v1_0_0/libraries/FunctionsRequest.sol\":2161:3431  function encodeCBOR(Request memory self) internal pure returns (bytes memory) {... */\n      swap2\n      swap1\n      pop\n      jump\t// out\n        /* \"@chainlink/contracts/src/v0.8/functions/dev/v1_0_0/FunctionsClient.sol\":1158:1537  function _sendRequest(... */\n    tag_133:\n        /* \"@chainlink/contracts/src/v0.8/functions/dev/v1_0_0/FunctionsClient.sol\":1300:1307  bytes32 */\n      0x00\n        /* \"@chainlink/contracts/src/v0.8/functions/dev/v1_0_0/FunctionsClient.sol\":1315:1332  bytes32 requestId */\n      0x00\n        /* \"@chainlink/contracts/src/v0.8/functions/dev/v1_0_0/FunctionsClient.sol\":1335:1343  i_router */\n      immutable(\"0x8e8fab5f003314da8d1873ea7720e8d9f47650136d916064d1edb8a11d682624\")\n        /* \"@chainlink/contracts/src/v0.8/functions/dev/v1_0_0/FunctionsClient.sol\":1335:1355  i_router.sendRequest */\n      0xffffffffffffffffffffffffffffffffffffffff\n      and\n      0x461d2762\n        /* \"@chainlink/contracts/src/v0.8/functions/dev/v1_0_0/FunctionsClient.sol\":1363:1377  subscriptionId */\n      dup7\n        /* \"@chainlink/contracts/src/v0.8/functions/dev/v1_0_0/FunctionsClient.sol\":1385:1389  data */\n      dup9\n        /* \"@chainlink/contracts/src/v0.8/functions/dev/v1_0_0/libraries/FunctionsRequest.sol\":325:326  1 */\n      0x01\n        /* \"@chainlink/contracts/src/v0.8/functions/dev/v1_0_0/FunctionsClient.sol\":1442:1458  callbackGasLimit */\n      dup9\n        /* \"@chainlink/contracts/src/v0.8/functions/dev/v1_0_0/FunctionsClient.sol\":1466:1471  donId */\n      dup9\n        /* \"@chainlink/contracts/src/v0.8/functions/dev/v1_0_0/FunctionsClient.sol\":1335:1477  i_router.sendRequest(... */\n      mload(0x40)\n      dup7\n      0xffffffff\n      and\n      0xe0\n      shl\n      dup2\n      mstore\n      0x04\n      add\n      tag_234\n      swap6\n      swap5\n      swap4\n      swap3\n      swap2\n      swap1\n      tag_235\n      jump\t// in\n    tag_234:\n      0x20\n      mload(0x40)\n      dup1\n      dup4\n      sub\n      dup2\n      0x00\n      dup8\n      gas\n      call\n      iszero\n      dup1\n      iszero\n      tag_237\n      jumpi\n      returndatacopy(0x00, 0x00, returndatasize)\n      revert(0x00, returndatasize)\n    tag_237:\n      pop\n      pop\n      pop\n      pop\n      mload(0x40)\n      returndatasize\n      not(0x1f)\n      0x1f\n      dup3\n      add\n      and\n      dup3\n      add\n      dup1\n      0x40\n      mstore\n      pop\n      dup2\n      add\n      swap1\n      tag_238\n      swap2\n      swap1\n      tag_239\n      jump\t// in\n    tag_238:\n        /* \"@chainlink/contracts/src/v0.8/functions/dev/v1_0_0/FunctionsClient.sol\":1315:1477  bytes32 requestId = i_router.sendRequest(... */\n      swap1\n      pop\n        /* \"@chainlink/contracts/src/v0.8/functions/dev/v1_0_0/FunctionsClient.sol\":1500:1509  requestId */\n      dup1\n        /* \"@chainlink/contracts/src/v0.8/functions/dev/v1_0_0/FunctionsClient.sol\":1488:1510  RequestSent(requestId) */\n      0x1131472297a800fee664d1d89cfa8f7676ff07189ecc53f80bbb5f4969099db8\n      mload(0x40)\n      mload(0x40)\n      dup1\n      swap2\n      sub\n      swap1\n      log2\n        /* \"@chainlink/contracts/src/v0.8/functions/dev/v1_0_0/FunctionsClient.sol\":1523:1532  requestId */\n      dup1\n        /* \"@chainlink/contracts/src/v0.8/functions/dev/v1_0_0/FunctionsClient.sol\":1516:1532  return requestId */\n      swap2\n      pop\n      pop\n        /* \"@chainlink/contracts/src/v0.8/functions/dev/v1_0_0/FunctionsClient.sol\":1158:1537  function _sendRequest(... */\n      swap5\n      swap4\n      pop\n      pop\n      pop\n      pop\n      jump\t// out\n        /* \"@chainlink/contracts/src/v0.8/functions/dev/v1_0_0/libraries/FunctionsRequest.sol\":3780:4087  function initializeRequest(... */\n    tag_179:\n        /* \"@chainlink/contracts/src/v0.8/functions/dev/v1_0_0/libraries/FunctionsRequest.sol\":3964:3965  0 */\n      0x00\n        /* \"@chainlink/contracts/src/v0.8/functions/dev/v1_0_0/libraries/FunctionsRequest.sol\":3946:3952  source */\n      dup2\n        /* \"@chainlink/contracts/src/v0.8/functions/dev/v1_0_0/libraries/FunctionsRequest.sol\":3940:3960  bytes(source).length */\n      mload\n        /* \"@chainlink/contracts/src/v0.8/functions/dev/v1_0_0/libraries/FunctionsRequest.sol\":3940:3965  bytes(source).length == 0 */\n      sub\n        /* \"@chainlink/contracts/src/v0.8/functions/dev/v1_0_0/libraries/FunctionsRequest.sol\":3936:3987  if (bytes(source).length == 0) revert EmptySource() */\n      tag_241\n      jumpi\n        /* \"@chainlink/contracts/src/v0.8/functions/dev/v1_0_0/libraries/FunctionsRequest.sol\":3974:3987  EmptySource() */\n      mload(0x40)\n      0x22ce3edd00000000000000000000000000000000000000000000000000000000\n      dup2\n      mstore\n      0x04\n      add\n      mload(0x40)\n      dup1\n      swap2\n      sub\n      swap1\n      revert\n        /* \"@chainlink/contracts/src/v0.8/functions/dev/v1_0_0/libraries/FunctionsRequest.sol\":3936:3987  if (bytes(source).length == 0) revert EmptySource() */\n    tag_241:\n        /* \"@chainlink/contracts/src/v0.8/functions/dev/v1_0_0/libraries/FunctionsRequest.sol\":4014:4026  codeLocation */\n      dup3\n        /* \"@chainlink/contracts/src/v0.8/functions/dev/v1_0_0/libraries/FunctionsRequest.sol\":3994:3998  self */\n      dup5\n        /* \"@chainlink/contracts/src/v0.8/functions/dev/v1_0_0/libraries/FunctionsRequest.sol\":3994:4011  self.codeLocation */\n      0x00\n      add\n        /* \"@chainlink/contracts/src/v0.8/functions/dev/v1_0_0/libraries/FunctionsRequest.sol\":3994:4026  self.codeLocation = codeLocation */\n      swap1\n      0x02\n      dup2\n      gt\n      iszero\n      tag_242\n      jumpi\n      tag_243\n      tag_190\n      jump\t// in\n    tag_243:\n    tag_242:\n      swap1\n      dup2\n      0x02\n      dup2\n      gt\n      iszero\n      tag_244\n      jumpi\n      tag_245\n      tag_190\n      jump\t// in\n    tag_245:\n    tag_244:\n      dup2\n      mstore\n      pop\n      pop\n        /* \"@chainlink/contracts/src/v0.8/functions/dev/v1_0_0/libraries/FunctionsRequest.sol\":4048:4056  language */\n      dup2\n        /* \"@chainlink/contracts/src/v0.8/functions/dev/v1_0_0/libraries/FunctionsRequest.sol\":4032:4036  self */\n      dup5\n        /* \"@chainlink/contracts/src/v0.8/functions/dev/v1_0_0/libraries/FunctionsRequest.sol\":4032:4045  self.language */\n      0x40\n      add\n        /* \"@chainlink/contracts/src/v0.8/functions/dev/v1_0_0/libraries/FunctionsRequest.sol\":4032:4056  self.language = language */\n      swap1\n      0x00\n      dup2\n      gt\n      iszero\n      tag_246\n      jumpi\n      tag_247\n      tag_190\n      jump\t// in\n    tag_247:\n    tag_246:\n      swap1\n      dup2\n      0x00\n      dup2\n      gt\n      iszero\n      tag_248\n      jumpi\n      tag_249\n      tag_190\n      jump\t// in\n    tag_249:\n    tag_248:\n      dup2\n      mstore\n      pop\n      pop\n        /* \"@chainlink/contracts/src/v0.8/functions/dev/v1_0_0/libraries/FunctionsRequest.sol\":4076:4082  source */\n      dup1\n        /* \"@chainlink/contracts/src/v0.8/functions/dev/v1_0_0/libraries/FunctionsRequest.sol\":4062:4066  self */\n      dup5\n        /* \"@chainlink/contracts/src/v0.8/functions/dev/v1_0_0/libraries/FunctionsRequest.sol\":4062:4073  self.source */\n      0x60\n      add\n        /* \"@chainlink/contracts/src/v0.8/functions/dev/v1_0_0/libraries/FunctionsRequest.sol\":4062:4082  self.source = source */\n      dup2\n      swap1\n      mstore\n      pop\n        /* \"@chainlink/contracts/src/v0.8/functions/dev/v1_0_0/libraries/FunctionsRequest.sol\":3780:4087  function initializeRequest(... */\n      pop\n      pop\n      pop\n      pop\n      jump\t// out\n        /* \"@chainlink/contracts/src/v0.8/vendor/solidity-cborutils/v2.0.0/CBOR.sol\":1490:1663  function create(uint256 capacity) internal pure returns(CBORBuffer memory cbor) {... */\n    tag_184:\n        /* \"@chainlink/contracts/src/v0.8/vendor/solidity-cborutils/v2.0.0/CBOR.sol\":1546:1568  CBORBuffer memory cbor */\n      tag_250\n      tag_251\n      jump\t// in\n    tag_250:\n        /* \"@chainlink/contracts/src/v0.8/vendor/solidity-cborutils/v2.0.0/CBOR.sol\":1580:1611  Buffer.init(cbor.buf, capacity) */\n      tag_253\n        /* \"@chainlink/contracts/src/v0.8/vendor/solidity-cborutils/v2.0.0/CBOR.sol\":1592:1596  cbor */\n      dup2\n        /* \"@chainlink/contracts/src/v0.8/vendor/solidity-cborutils/v2.0.0/CBOR.sol\":1592:1600  cbor.buf */\n      0x00\n      add\n      mload\n        /* \"@chainlink/contracts/src/v0.8/vendor/solidity-cborutils/v2.0.0/CBOR.sol\":1602:1610  capacity */\n      dup4\n        /* \"@chainlink/contracts/src/v0.8/vendor/solidity-cborutils/v2.0.0/CBOR.sol\":1580:1591  Buffer.init */\n      tag_254\n        /* \"@chainlink/contracts/src/v0.8/vendor/solidity-cborutils/v2.0.0/CBOR.sol\":1580:1611  Buffer.init(cbor.buf, capacity) */\n      jump\t// in\n    tag_253:\n      pop\n        /* \"@chainlink/contracts/src/v0.8/vendor/solidity-cborutils/v2.0.0/CBOR.sol\":1634:1635  0 */\n      0x00\n        /* \"@chainlink/contracts/src/v0.8/vendor/solidity-cborutils/v2.0.0/CBOR.sol\":1621:1625  cbor */\n      dup2\n        /* \"@chainlink/contracts/src/v0.8/vendor/solidity-cborutils/v2.0.0/CBOR.sol\":1621:1631  cbor.depth */\n      0x20\n      add\n        /* \"@chainlink/contracts/src/v0.8/vendor/solidity-cborutils/v2.0.0/CBOR.sol\":1621:1635  cbor.depth = 0 */\n      dup2\n      dup2\n      mstore\n      pop\n      pop\n        /* \"@chainlink/contracts/src/v0.8/vendor/solidity-cborutils/v2.0.0/CBOR.sol\":1490:1663  function create(uint256 capacity) internal pure returns(CBORBuffer memory cbor) {... */\n      swap2\n      swap1\n      pop\n      jump\t// out\n        /* \"@chainlink/contracts/src/v0.8/vendor/solidity-cborutils/v2.0.0/CBOR.sol\":3021:3225  function writeString(CBORBuffer memory buf, string memory value) internal pure {... */\n    tag_186:\n        /* \"@chainlink/contracts/src/v0.8/vendor/solidity-cborutils/v2.0.0/CBOR.sol\":3110:3180  writeFixedNumeric(buf, MAJOR_TYPE_STRING, uint64(bytes(value).length)) */\n      tag_256\n        /* \"@chainlink/contracts/src/v0.8/vendor/solidity-cborutils/v2.0.0/CBOR.sol\":3128:3131  buf */\n      dup3\n        /* \"@chainlink/contracts/src/v0.8/vendor/solidity-cborutils/v2.0.0/CBOR.sol\":998:999  3 */\n      0x03\n        /* \"@chainlink/contracts/src/v0.8/vendor/solidity-cborutils/v2.0.0/CBOR.sol\":3165:3170  value */\n      dup4\n        /* \"@chainlink/contracts/src/v0.8/vendor/solidity-cborutils/v2.0.0/CBOR.sol\":3159:3178  bytes(value).length */\n      mload\n        /* \"@chainlink/contracts/src/v0.8/vendor/solidity-cborutils/v2.0.0/CBOR.sol\":3110:3127  writeFixedNumeric */\n      tag_257\n        /* \"@chainlink/contracts/src/v0.8/vendor/solidity-cborutils/v2.0.0/CBOR.sol\":3110:3180  writeFixedNumeric(buf, MAJOR_TYPE_STRING, uint64(bytes(value).length)) */\n      jump\t// in\n    tag_256:\n        /* \"@chainlink/contracts/src/v0.8/vendor/solidity-cborutils/v2.0.0/CBOR.sol\":3190:3218  buf.buf.append(bytes(value)) */\n      tag_258\n        /* \"@chainlink/contracts/src/v0.8/vendor/solidity-cborutils/v2.0.0/CBOR.sol\":3211:3216  value */\n      dup2\n        /* \"@chainlink/contracts/src/v0.8/vendor/solidity-cborutils/v2.0.0/CBOR.sol\":3190:3193  buf */\n      dup4\n        /* \"@chainlink/contracts/src/v0.8/vendor/solidity-cborutils/v2.0.0/CBOR.sol\":3190:3197  buf.buf */\n      0x00\n      add\n      mload\n        /* \"@chainlink/contracts/src/v0.8/vendor/solidity-cborutils/v2.0.0/CBOR.sol\":3190:3204  buf.buf.append */\n      tag_259\n      swap1\n        /* \"@chainlink/contracts/src/v0.8/vendor/solidity-cborutils/v2.0.0/CBOR.sol\":3190:3218  buf.buf.append(bytes(value)) */\n      swap2\n      swap1\n      0xffffffff\n      and\n      jump\t// in\n    tag_258:\n      pop\n        /* \"@chainlink/contracts/src/v0.8/vendor/solidity-cborutils/v2.0.0/CBOR.sol\":3021:3225  function writeString(CBORBuffer memory buf, string memory value) internal pure {... */\n      pop\n      pop\n      jump\t// out\n        /* \"@chainlink/contracts/src/v0.8/vendor/solidity-cborutils/v2.0.0/CBOR.sol\":1832:2034  function writeUInt256(CBORBuffer memory buf, uint256 value) internal pure {... */\n    tag_191:\n        /* \"@chainlink/contracts/src/v0.8/vendor/solidity-cborutils/v2.0.0/CBOR.sol\":1916:1983  buf.buf.appendUint8(uint8((MAJOR_TYPE_TAG << 5) | TAG_TYPE_BIGNUM)) */\n      tag_261\n        /* \"@chainlink/contracts/src/v0.8/vendor/solidity-cborutils/v2.0.0/CBOR.sol\":1246:1247  2 */\n      0x02\n        /* \"@chainlink/contracts/src/v0.8/vendor/solidity-cborutils/v2.0.0/CBOR.sol\":1961:1962  5 */\n      0x05\n        /* \"@chainlink/contracts/src/v0.8/vendor/solidity-cborutils/v2.0.0/CBOR.sol\":1141:1142  6 */\n      0x06\n        /* \"@chainlink/contracts/src/v0.8/vendor/solidity-cborutils/v2.0.0/CBOR.sol\":1943:1962  MAJOR_TYPE_TAG << 5 */\n      0xff\n      and\n      swap1\n      shl\n        /* \"@chainlink/contracts/src/v0.8/vendor/solidity-cborutils/v2.0.0/CBOR.sol\":1942:1981  (MAJOR_TYPE_TAG << 5) | TAG_TYPE_BIGNUM */\n      or\n        /* \"@chainlink/contracts/src/v0.8/vendor/solidity-cborutils/v2.0.0/CBOR.sol\":1916:1919  buf */\n      dup4\n        /* \"@chainlink/contracts/src/v0.8/vendor/solidity-cborutils/v2.0.0/CBOR.sol\":1916:1923  buf.buf */\n      0x00\n      add\n      mload\n        /* \"@chainlink/contracts/src/v0.8/vendor/solidity-cborutils/v2.0.0/CBOR.sol\":1916:1935  buf.buf.appendUint8 */\n      tag_262\n      swap1\n        /* \"@chainlink/contracts/src/v0.8/vendor/solidity-cborutils/v2.0.0/CBOR.sol\":1916:1983  buf.buf.appendUint8(uint8((MAJOR_TYPE_TAG << 5) | TAG_TYPE_BIGNUM)) */\n      swap2\n      swap1\n      0xffffffff\n      and\n      jump\t// in\n    tag_261:\n      pop\n        /* \"@chainlink/contracts/src/v0.8/vendor/solidity-cborutils/v2.0.0/CBOR.sol\":1993:2027  writeBytes(buf, abi.encode(value)) */\n      tag_263\n        /* \"@chainlink/contracts/src/v0.8/vendor/solidity-cborutils/v2.0.0/CBOR.sol\":2004:2007  buf */\n      dup3\n        /* \"@chainlink/contracts/src/v0.8/vendor/solidity-cborutils/v2.0.0/CBOR.sol\":2020:2025  value */\n      dup3\n        /* \"@chainlink/contracts/src/v0.8/vendor/solidity-cborutils/v2.0.0/CBOR.sol\":2009:2026  abi.encode(value) */\n      add(0x20, mload(0x40))\n      tag_264\n      swap2\n      swap1\n      tag_265\n      jump\t// in\n    tag_264:\n      mload(0x40)\n      0x20\n      dup2\n      dup4\n      sub\n      sub\n      dup2\n      mstore\n      swap1\n      0x40\n      mstore\n        /* \"@chainlink/contracts/src/v0.8/vendor/solidity-cborutils/v2.0.0/CBOR.sol\":1993:2003  writeBytes */\n      tag_222\n        /* \"@chainlink/contracts/src/v0.8/vendor/solidity-cborutils/v2.0.0/CBOR.sol\":1993:2027  writeBytes(buf, abi.encode(value)) */\n      jump\t// in\n    tag_263:\n        /* \"@chainlink/contracts/src/v0.8/vendor/solidity-cborutils/v2.0.0/CBOR.sol\":1832:2034  function writeUInt256(CBORBuffer memory buf, uint256 value) internal pure {... */\n      pop\n      pop\n      jump\t// out\n        /* \"@chainlink/contracts/src/v0.8/vendor/solidity-cborutils/v2.0.0/CBOR.sol\":3607:3753  function startArray(CBORBuffer memory buf) internal pure {... */\n    tag_201:\n        /* \"@chainlink/contracts/src/v0.8/vendor/solidity-cborutils/v2.0.0/CBOR.sol\":3674:3722  writeIndefiniteLengthType(buf, MAJOR_TYPE_ARRAY) */\n      tag_267\n        /* \"@chainlink/contracts/src/v0.8/vendor/solidity-cborutils/v2.0.0/CBOR.sol\":3700:3703  buf */\n      dup2\n        /* \"@chainlink/contracts/src/v0.8/vendor/solidity-cborutils/v2.0.0/CBOR.sol\":1047:1048  4 */\n      0x04\n        /* \"@chainlink/contracts/src/v0.8/vendor/solidity-cborutils/v2.0.0/CBOR.sol\":3674:3699  writeIndefiniteLengthType */\n      tag_268\n        /* \"@chainlink/contracts/src/v0.8/vendor/solidity-cborutils/v2.0.0/CBOR.sol\":3674:3722  writeIndefiniteLengthType(buf, MAJOR_TYPE_ARRAY) */\n      jump\t// in\n    tag_267:\n        /* \"@chainlink/contracts/src/v0.8/vendor/solidity-cborutils/v2.0.0/CBOR.sol\":3745:3746  1 */\n      0x01\n        /* \"@chainlink/contracts/src/v0.8/vendor/solidity-cborutils/v2.0.0/CBOR.sol\":3732:3735  buf */\n      dup2\n        /* \"@chainlink/contracts/src/v0.8/vendor/solidity-cborutils/v2.0.0/CBOR.sol\":3732:3741  buf.depth */\n      0x20\n      add\n        /* \"@chainlink/contracts/src/v0.8/vendor/solidity-cborutils/v2.0.0/CBOR.sol\":3732:3746  buf.depth += 1 */\n      dup2\n      dup2\n      mload\n      tag_269\n      swap2\n      swap1\n      tag_270\n      jump\t// in\n    tag_269:\n      swap2\n      pop\n      dup2\n      dup2\n      mstore\n      pop\n      pop\n        /* \"@chainlink/contracts/src/v0.8/vendor/solidity-cborutils/v2.0.0/CBOR.sol\":3607:3753  function startArray(CBORBuffer memory buf) internal pure {... */\n      pop\n      jump\t// out\n        /* \"@chainlink/contracts/src/v0.8/vendor/solidity-cborutils/v2.0.0/CBOR.sol\":4211:4365  function endSequence(CBORBuffer memory buf) internal pure {... */\n    tag_209:\n        /* \"@chainlink/contracts/src/v0.8/vendor/solidity-cborutils/v2.0.0/CBOR.sol\":4279:4334  writeIndefiniteLengthType(buf, MAJOR_TYPE_CONTENT_FREE) */\n      tag_272\n        /* \"@chainlink/contracts/src/v0.8/vendor/solidity-cborutils/v2.0.0/CBOR.sol\":4305:4308  buf */\n      dup2\n        /* \"@chainlink/contracts/src/v0.8/vendor/solidity-cborutils/v2.0.0/CBOR.sol\":1197:1198  7 */\n      0x07\n        /* \"@chainlink/contracts/src/v0.8/vendor/solidity-cborutils/v2.0.0/CBOR.sol\":4279:4304  writeIndefiniteLengthType */\n      tag_268\n        /* \"@chainlink/contracts/src/v0.8/vendor/solidity-cborutils/v2.0.0/CBOR.sol\":4279:4334  writeIndefiniteLengthType(buf, MAJOR_TYPE_CONTENT_FREE) */\n      jump\t// in\n    tag_272:\n        /* \"@chainlink/contracts/src/v0.8/vendor/solidity-cborutils/v2.0.0/CBOR.sol\":4357:4358  1 */\n      0x01\n        /* \"@chainlink/contracts/src/v0.8/vendor/solidity-cborutils/v2.0.0/CBOR.sol\":4344:4347  buf */\n      dup2\n        /* \"@chainlink/contracts/src/v0.8/vendor/solidity-cborutils/v2.0.0/CBOR.sol\":4344:4353  buf.depth */\n      0x20\n      add\n        /* \"@chainlink/contracts/src/v0.8/vendor/solidity-cborutils/v2.0.0/CBOR.sol\":4344:4358  buf.depth -= 1 */\n      dup2\n      dup2\n      mload\n      tag_273\n      swap2\n      swap1\n      tag_274\n      jump\t// in\n    tag_273:\n      swap2\n      pop\n      dup2\n      dup2\n      mstore\n      pop\n      pop\n        /* \"@chainlink/contracts/src/v0.8/vendor/solidity-cborutils/v2.0.0/CBOR.sol\":4211:4365  function endSequence(CBORBuffer memory buf) internal pure {... */\n      pop\n      jump\t// out\n        /* \"@chainlink/contracts/src/v0.8/vendor/solidity-cborutils/v2.0.0/CBOR.sol\":2828:3015  function writeBytes(CBORBuffer memory buf, bytes memory value) internal pure {... */\n    tag_222:\n        /* \"@chainlink/contracts/src/v0.8/vendor/solidity-cborutils/v2.0.0/CBOR.sol\":2915:2977  writeFixedNumeric(buf, MAJOR_TYPE_BYTES, uint64(value.length)) */\n      tag_276\n        /* \"@chainlink/contracts/src/v0.8/vendor/solidity-cborutils/v2.0.0/CBOR.sol\":2933:2936  buf */\n      dup3\n        /* \"@chainlink/contracts/src/v0.8/vendor/solidity-cborutils/v2.0.0/CBOR.sol\":948:949  2 */\n      0x02\n        /* \"@chainlink/contracts/src/v0.8/vendor/solidity-cborutils/v2.0.0/CBOR.sol\":2963:2968  value */\n      dup4\n        /* \"@chainlink/contracts/src/v0.8/vendor/solidity-cborutils/v2.0.0/CBOR.sol\":2963:2975  value.length */\n      mload\n        /* \"@chainlink/contracts/src/v0.8/vendor/solidity-cborutils/v2.0.0/CBOR.sol\":2915:2932  writeFixedNumeric */\n      tag_257\n        /* \"@chainlink/contracts/src/v0.8/vendor/solidity-cborutils/v2.0.0/CBOR.sol\":2915:2977  writeFixedNumeric(buf, MAJOR_TYPE_BYTES, uint64(value.length)) */\n      jump\t// in\n    tag_276:\n        /* \"@chainlink/contracts/src/v0.8/vendor/solidity-cborutils/v2.0.0/CBOR.sol\":2987:3008  buf.buf.append(value) */\n      tag_277\n        /* \"@chainlink/contracts/src/v0.8/vendor/solidity-cborutils/v2.0.0/CBOR.sol\":3002:3007  value */\n      dup2\n        /* \"@chainlink/contracts/src/v0.8/vendor/solidity-cborutils/v2.0.0/CBOR.sol\":2987:2990  buf */\n      dup4\n        /* \"@chainlink/contracts/src/v0.8/vendor/solidity-cborutils/v2.0.0/CBOR.sol\":2987:2994  buf.buf */\n      0x00\n      add\n      mload\n        /* \"@chainlink/contracts/src/v0.8/vendor/solidity-cborutils/v2.0.0/CBOR.sol\":2987:3001  buf.buf.append */\n      tag_259\n      swap1\n        /* \"@chainlink/contracts/src/v0.8/vendor/solidity-cborutils/v2.0.0/CBOR.sol\":2987:3008  buf.buf.append(value) */\n      swap2\n      swap1\n      0xffffffff\n      and\n      jump\t// in\n    tag_277:\n      pop\n        /* \"@chainlink/contracts/src/v0.8/vendor/solidity-cborutils/v2.0.0/CBOR.sol\":2828:3015  function writeBytes(CBORBuffer memory buf, bytes memory value) internal pure {... */\n      pop\n      pop\n      jump\t// out\n        /* \"@chainlink/contracts/src/v0.8/vendor/@ensdomains/buffer/v0.1.0/Buffer.sol\":1020:1575  function init(buffer memory buf, uint capacity) internal pure returns(buffer memory) {... */\n    tag_254:\n        /* \"@chainlink/contracts/src/v0.8/vendor/@ensdomains/buffer/v0.1.0/Buffer.sol\":1090:1103  buffer memory */\n      tag_278\n      tag_279\n      jump\t// in\n    tag_278:\n        /* \"@chainlink/contracts/src/v0.8/vendor/@ensdomains/buffer/v0.1.0/Buffer.sol\":1136:1137  0 */\n      0x00\n        /* \"@chainlink/contracts/src/v0.8/vendor/@ensdomains/buffer/v0.1.0/Buffer.sol\":1130:1132  32 */\n      0x20\n        /* \"@chainlink/contracts/src/v0.8/vendor/@ensdomains/buffer/v0.1.0/Buffer.sol\":1119:1127  capacity */\n      dup4\n        /* \"@chainlink/contracts/src/v0.8/vendor/@ensdomains/buffer/v0.1.0/Buffer.sol\":1119:1132  capacity % 32 */\n      tag_281\n      swap2\n      swap1\n      tag_282\n      jump\t// in\n    tag_281:\n        /* \"@chainlink/contracts/src/v0.8/vendor/@ensdomains/buffer/v0.1.0/Buffer.sol\":1119:1137  capacity % 32 != 0 */\n      eq\n        /* \"@chainlink/contracts/src/v0.8/vendor/@ensdomains/buffer/v0.1.0/Buffer.sol\":1115:1196  if (capacity % 32 != 0) {... */\n      tag_283\n      jumpi\n        /* \"@chainlink/contracts/src/v0.8/vendor/@ensdomains/buffer/v0.1.0/Buffer.sol\":1182:1184  32 */\n      0x20\n        /* \"@chainlink/contracts/src/v0.8/vendor/@ensdomains/buffer/v0.1.0/Buffer.sol\":1171:1179  capacity */\n      dup3\n        /* \"@chainlink/contracts/src/v0.8/vendor/@ensdomains/buffer/v0.1.0/Buffer.sol\":1171:1184  capacity % 32 */\n      tag_284\n      swap2\n      swap1\n      tag_282\n      jump\t// in\n    tag_284:\n        /* \"@chainlink/contracts/src/v0.8/vendor/@ensdomains/buffer/v0.1.0/Buffer.sol\":1165:1167  32 */\n      0x20\n        /* \"@chainlink/contracts/src/v0.8/vendor/@ensdomains/buffer/v0.1.0/Buffer.sol\":1165:1185  32 - (capacity % 32) */\n      tag_285\n      swap2\n      swap1\n      tag_274\n      jump\t// in\n    tag_285:\n        /* \"@chainlink/contracts/src/v0.8/vendor/@ensdomains/buffer/v0.1.0/Buffer.sol\":1153:1185  capacity += 32 - (capacity % 32) */\n      dup3\n      tag_286\n      swap2\n      swap1\n      tag_270\n      jump\t// in\n    tag_286:\n      swap2\n      pop\n        /* \"@chainlink/contracts/src/v0.8/vendor/@ensdomains/buffer/v0.1.0/Buffer.sol\":1115:1196  if (capacity % 32 != 0) {... */\n    tag_283:\n        /* \"@chainlink/contracts/src/v0.8/vendor/@ensdomains/buffer/v0.1.0/Buffer.sol\":1266:1274  capacity */\n      dup2\n        /* \"@chainlink/contracts/src/v0.8/vendor/@ensdomains/buffer/v0.1.0/Buffer.sol\":1251:1254  buf */\n      dup4\n        /* \"@chainlink/contracts/src/v0.8/vendor/@ensdomains/buffer/v0.1.0/Buffer.sol\":1251:1263  buf.capacity */\n      0x20\n      add\n        /* \"@chainlink/contracts/src/v0.8/vendor/@ensdomains/buffer/v0.1.0/Buffer.sol\":1251:1274  buf.capacity = capacity */\n      dup2\n      dup2\n      mstore\n      pop\n      pop\n        /* \"@chainlink/contracts/src/v0.8/vendor/@ensdomains/buffer/v0.1.0/Buffer.sol\":1324:1328  0x40 */\n      0x40\n        /* \"@chainlink/contracts/src/v0.8/vendor/@ensdomains/buffer/v0.1.0/Buffer.sol\":1318:1329  mload(0x40) */\n      mload\n        /* \"@chainlink/contracts/src/v0.8/vendor/@ensdomains/buffer/v0.1.0/Buffer.sol\":1354:1357  ptr */\n      dup1\n        /* \"@chainlink/contracts/src/v0.8/vendor/@ensdomains/buffer/v0.1.0/Buffer.sol\":1349:1352  buf */\n      dup5\n        /* \"@chainlink/contracts/src/v0.8/vendor/@ensdomains/buffer/v0.1.0/Buffer.sol\":1342:1358  mstore(buf, ptr) */\n      mstore\n        /* \"@chainlink/contracts/src/v0.8/vendor/@ensdomains/buffer/v0.1.0/Buffer.sol\":1383:1384  0 */\n      0x00\n        /* \"@chainlink/contracts/src/v0.8/vendor/@ensdomains/buffer/v0.1.0/Buffer.sol\":1378:1381  ptr */\n      dup2\n        /* \"@chainlink/contracts/src/v0.8/vendor/@ensdomains/buffer/v0.1.0/Buffer.sol\":1371:1385  mstore(ptr, 0) */\n      mstore\n        /* \"@chainlink/contracts/src/v0.8/vendor/@ensdomains/buffer/v0.1.0/Buffer.sol\":1426:1434  capacity */\n      dup3\n        /* \"@chainlink/contracts/src/v0.8/vendor/@ensdomains/buffer/v0.1.0/Buffer.sol\":1421:1424  ptr */\n      dup2\n        /* \"@chainlink/contracts/src/v0.8/vendor/@ensdomains/buffer/v0.1.0/Buffer.sol\":1417:1435  add(ptr, capacity) */\n      add\n        /* \"@chainlink/contracts/src/v0.8/vendor/@ensdomains/buffer/v0.1.0/Buffer.sol\":1413:1415  32 */\n      0x20\n        /* \"@chainlink/contracts/src/v0.8/vendor/@ensdomains/buffer/v0.1.0/Buffer.sol\":1409:1436  add(32, add(ptr, capacity)) */\n      add\n        /* \"@chainlink/contracts/src/v0.8/vendor/@ensdomains/buffer/v0.1.0/Buffer.sol\":1460:1463  ptr */\n      dup2\n        /* \"@chainlink/contracts/src/v0.8/vendor/@ensdomains/buffer/v0.1.0/Buffer.sol\":1455:1458  fpm */\n      dup2\n        /* \"@chainlink/contracts/src/v0.8/vendor/@ensdomains/buffer/v0.1.0/Buffer.sol\":1452:1464  lt(fpm, ptr) */\n      lt\n        /* \"@chainlink/contracts/src/v0.8/vendor/@ensdomains/buffer/v0.1.0/Buffer.sol\":1449:1509  if lt(fpm, ptr) {... */\n      iszero\n      tag_287\n      jumpi\n        /* \"@chainlink/contracts/src/v0.8/vendor/@ensdomains/buffer/v0.1.0/Buffer.sol\":1493:1494  0 */\n      0x00\n        /* \"@chainlink/contracts/src/v0.8/vendor/@ensdomains/buffer/v0.1.0/Buffer.sol\":1490:1491  0 */\n      0x00\n        /* \"@chainlink/contracts/src/v0.8/vendor/@ensdomains/buffer/v0.1.0/Buffer.sol\":1483:1495  revert(0, 0) */\n      revert\n        /* \"@chainlink/contracts/src/v0.8/vendor/@ensdomains/buffer/v0.1.0/Buffer.sol\":1449:1509  if lt(fpm, ptr) {... */\n    tag_287:\n        /* \"@chainlink/contracts/src/v0.8/vendor/@ensdomains/buffer/v0.1.0/Buffer.sol\":1535:1538  fpm */\n      dup1\n        /* \"@chainlink/contracts/src/v0.8/vendor/@ensdomains/buffer/v0.1.0/Buffer.sol\":1529:1533  0x40 */\n      0x40\n        /* \"@chainlink/contracts/src/v0.8/vendor/@ensdomains/buffer/v0.1.0/Buffer.sol\":1522:1539  mstore(0x40, fpm) */\n      mstore\n        /* \"@chainlink/contracts/src/v0.8/vendor/@ensdomains/buffer/v0.1.0/Buffer.sol\":1293:1549  {... */\n      pop\n      pop\n        /* \"@chainlink/contracts/src/v0.8/vendor/@ensdomains/buffer/v0.1.0/Buffer.sol\":1565:1568  buf */\n      dup3\n        /* \"@chainlink/contracts/src/v0.8/vendor/@ensdomains/buffer/v0.1.0/Buffer.sol\":1558:1568  return buf */\n      swap1\n      pop\n        /* \"@chainlink/contracts/src/v0.8/vendor/@ensdomains/buffer/v0.1.0/Buffer.sol\":1020:1575  function init(buffer memory buf, uint capacity) internal pure returns(buffer memory) {... */\n      swap3\n      swap2\n      pop\n      pop\n      jump\t// out\n        /* \"@chainlink/contracts/src/v0.8/vendor/solidity-cborutils/v2.0.0/CBOR.sol\":6156:6915  function writeFixedNumeric(... */\n    tag_257:\n        /* \"@chainlink/contracts/src/v0.8/vendor/solidity-cborutils/v2.0.0/CBOR.sol\":6299:6301  23 */\n      0x17\n        /* \"@chainlink/contracts/src/v0.8/vendor/solidity-cborutils/v2.0.0/CBOR.sol\":6290:6295  value */\n      dup2\n        /* \"@chainlink/contracts/src/v0.8/vendor/solidity-cborutils/v2.0.0/CBOR.sol\":6290:6301  value <= 23 */\n      0xffffffffffffffff\n      and\n      gt\n        /* \"@chainlink/contracts/src/v0.8/vendor/solidity-cborutils/v2.0.0/CBOR.sol\":6286:6909  if (value <= 23) {... */\n      tag_289\n      jumpi\n        /* \"@chainlink/contracts/src/v0.8/vendor/solidity-cborutils/v2.0.0/CBOR.sol\":6317:6365  buf.buf.appendUint8(uint8((major << 5) | value)) */\n      tag_290\n        /* \"@chainlink/contracts/src/v0.8/vendor/solidity-cborutils/v2.0.0/CBOR.sol\":6358:6363  value */\n      dup2\n        /* \"@chainlink/contracts/src/v0.8/vendor/solidity-cborutils/v2.0.0/CBOR.sol\":6353:6354  5 */\n      0x05\n        /* \"@chainlink/contracts/src/v0.8/vendor/solidity-cborutils/v2.0.0/CBOR.sol\":6344:6349  major */\n      dup5\n        /* \"@chainlink/contracts/src/v0.8/vendor/solidity-cborutils/v2.0.0/CBOR.sol\":6344:6354  major << 5 */\n      0xff\n      and\n      swap1\n      shl\n        /* \"@chainlink/contracts/src/v0.8/vendor/solidity-cborutils/v2.0.0/CBOR.sol\":6343:6363  (major << 5) | value */\n      0xff\n      and\n      or\n        /* \"@chainlink/contracts/src/v0.8/vendor/solidity-cborutils/v2.0.0/CBOR.sol\":6317:6320  buf */\n      dup5\n        /* \"@chainlink/contracts/src/v0.8/vendor/solidity-cborutils/v2.0.0/CBOR.sol\":6317:6324  buf.buf */\n      0x00\n      add\n      mload\n        /* \"@chainlink/contracts/src/v0.8/vendor/solidity-cborutils/v2.0.0/CBOR.sol\":6317:6336  buf.buf.appendUint8 */\n      tag_262\n      swap1\n        /* \"@chainlink/contracts/src/v0.8/vendor/solidity-cborutils/v2.0.0/CBOR.sol\":6317:6365  buf.buf.appendUint8(uint8((major << 5) | value)) */\n      swap2\n      swap1\n      0xffffffff\n      and\n      jump\t// in\n    tag_290:\n      pop\n        /* \"@chainlink/contracts/src/v0.8/vendor/solidity-cborutils/v2.0.0/CBOR.sol\":6286:6909  if (value <= 23) {... */\n      jump(tag_291)\n    tag_289:\n        /* \"@chainlink/contracts/src/v0.8/vendor/solidity-cborutils/v2.0.0/CBOR.sol\":6395:6399  0xFF */\n      0xff\n        /* \"@chainlink/contracts/src/v0.8/vendor/solidity-cborutils/v2.0.0/CBOR.sol\":6386:6391  value */\n      dup2\n        /* \"@chainlink/contracts/src/v0.8/vendor/solidity-cborutils/v2.0.0/CBOR.sol\":6386:6399  value <= 0xFF */\n      0xffffffffffffffff\n      and\n      gt\n        /* \"@chainlink/contracts/src/v0.8/vendor/solidity-cborutils/v2.0.0/CBOR.sol\":6382:6909  if (value <= 0xFF) {... */\n      tag_292\n      jumpi\n        /* \"@chainlink/contracts/src/v0.8/vendor/solidity-cborutils/v2.0.0/CBOR.sol\":6415:6460  buf.buf.appendUint8(uint8((major << 5) | 24)) */\n      tag_293\n        /* \"@chainlink/contracts/src/v0.8/vendor/solidity-cborutils/v2.0.0/CBOR.sol\":6456:6458  24 */\n      0x18\n        /* \"@chainlink/contracts/src/v0.8/vendor/solidity-cborutils/v2.0.0/CBOR.sol\":6451:6452  5 */\n      0x05\n        /* \"@chainlink/contracts/src/v0.8/vendor/solidity-cborutils/v2.0.0/CBOR.sol\":6442:6447  major */\n      dup5\n        /* \"@chainlink/contracts/src/v0.8/vendor/solidity-cborutils/v2.0.0/CBOR.sol\":6442:6452  major << 5 */\n      0xff\n      and\n      swap1\n      shl\n        /* \"@chainlink/contracts/src/v0.8/vendor/solidity-cborutils/v2.0.0/CBOR.sol\":6441:6458  (major << 5) | 24 */\n      or\n        /* \"@chainlink/contracts/src/v0.8/vendor/solidity-cborutils/v2.0.0/CBOR.sol\":6415:6418  buf */\n      dup5\n        /* \"@chainlink/contracts/src/v0.8/vendor/solidity-cborutils/v2.0.0/CBOR.sol\":6415:6422  buf.buf */\n      0x00\n      add\n      mload\n        /* \"@chainlink/contracts/src/v0.8/vendor/solidity-cborutils/v2.0.0/CBOR.sol\":6415:6434  buf.buf.appendUint8 */\n      tag_262\n      swap1\n        /* \"@chainlink/contracts/src/v0.8/vendor/solidity-cborutils/v2.0.0/CBOR.sol\":6415:6460  buf.buf.appendUint8(uint8((major << 5) | 24)) */\n      swap2\n      swap1\n      0xffffffff\n      and\n      jump\t// in\n    tag_293:\n      pop\n        /* \"@chainlink/contracts/src/v0.8/vendor/solidity-cborutils/v2.0.0/CBOR.sol\":6474:6501  buf.buf.appendInt(value, 1) */\n      tag_294\n        /* \"@chainlink/contracts/src/v0.8/vendor/solidity-cborutils/v2.0.0/CBOR.sol\":6492:6497  value */\n      dup2\n        /* \"@chainlink/contracts/src/v0.8/vendor/solidity-cborutils/v2.0.0/CBOR.sol\":6474:6501  buf.buf.appendInt(value, 1) */\n      0xffffffffffffffff\n      and\n        /* \"@chainlink/contracts/src/v0.8/vendor/solidity-cborutils/v2.0.0/CBOR.sol\":6499:6500  1 */\n      0x01\n        /* \"@chainlink/contracts/src/v0.8/vendor/solidity-cborutils/v2.0.0/CBOR.sol\":6474:6477  buf */\n      dup6\n        /* \"@chainlink/contracts/src/v0.8/vendor/solidity-cborutils/v2.0.0/CBOR.sol\":6474:6481  buf.buf */\n      0x00\n      add\n      mload\n        /* \"@chainlink/contracts/src/v0.8/vendor/solidity-cborutils/v2.0.0/CBOR.sol\":6474:6491  buf.buf.appendInt */\n      tag_295\n      swap1\n        /* \"@chainlink/contracts/src/v0.8/vendor/solidity-cborutils/v2.0.0/CBOR.sol\":6474:6501  buf.buf.appendInt(value, 1) */\n      swap3\n      swap2\n      swap1\n      0xffffffff\n      and\n      jump\t// in\n    tag_294:\n      pop\n        /* \"@chainlink/contracts/src/v0.8/vendor/solidity-cborutils/v2.0.0/CBOR.sol\":6382:6909  if (value <= 0xFF) {... */\n      jump(tag_296)\n    tag_292:\n        /* \"@chainlink/contracts/src/v0.8/vendor/solidity-cborutils/v2.0.0/CBOR.sol\":6531:6537  0xFFFF */\n      0xffff\n        /* \"@chainlink/contracts/src/v0.8/vendor/solidity-cborutils/v2.0.0/CBOR.sol\":6522:6527  value */\n      dup2\n        /* \"@chainlink/contracts/src/v0.8/vendor/solidity-cborutils/v2.0.0/CBOR.sol\":6522:6537  value <= 0xFFFF */\n      0xffffffffffffffff\n      and\n      gt\n        /* \"@chainlink/contracts/src/v0.8/vendor/solidity-cborutils/v2.0.0/CBOR.sol\":6518:6909  if (value <= 0xFFFF) {... */\n      tag_297\n      jumpi\n        /* \"@chainlink/contracts/src/v0.8/vendor/solidity-cborutils/v2.0.0/CBOR.sol\":6553:6598  buf.buf.appendUint8(uint8((major << 5) | 25)) */\n      tag_298\n        /* \"@chainlink/contracts/src/v0.8/vendor/solidity-cborutils/v2.0.0/CBOR.sol\":6594:6596  25 */\n      0x19\n        /* \"@chainlink/contracts/src/v0.8/vendor/solidity-cborutils/v2.0.0/CBOR.sol\":6589:6590  5 */\n      0x05\n        /* \"@chainlink/contracts/src/v0.8/vendor/solidity-cborutils/v2.0.0/CBOR.sol\":6580:6585  major */\n      dup5\n        /* \"@chainlink/contracts/src/v0.8/vendor/solidity-cborutils/v2.0.0/CBOR.sol\":6580:6590  major << 5 */\n      0xff\n      and\n      swap1\n      shl\n        /* \"@chainlink/contracts/src/v0.8/vendor/solidity-cborutils/v2.0.0/CBOR.sol\":6579:6596  (major << 5) | 25 */\n      or\n        /* \"@chainlink/contracts/src/v0.8/vendor/solidity-cborutils/v2.0.0/CBOR.sol\":6553:6556  buf */\n      dup5\n        /* \"@chainlink/contracts/src/v0.8/vendor/solidity-cborutils/v2.0.0/CBOR.sol\":6553:6560  buf.buf */\n      0x00\n      add\n      mload\n        /* \"@chainlink/contracts/src/v0.8/vendor/solidity-cborutils/v2.0.0/CBOR.sol\":6553:6572  buf.buf.appendUint8 */\n      tag_262\n      swap1\n        /* \"@chainlink/contracts/src/v0.8/vendor/solidity-cborutils/v2.0.0/CBOR.sol\":6553:6598  buf.buf.appendUint8(uint8((major << 5) | 25)) */\n      swap2\n      swap1\n      0xffffffff\n      and\n      jump\t// in\n    tag_298:\n      pop\n        /* \"@chainlink/contracts/src/v0.8/vendor/solidity-cborutils/v2.0.0/CBOR.sol\":6612:6639  buf.buf.appendInt(value, 2) */\n      tag_299\n        /* \"@chainlink/contracts/src/v0.8/vendor/solidity-cborutils/v2.0.0/CBOR.sol\":6630:6635  value */\n      dup2\n        /* \"@chainlink/contracts/src/v0.8/vendor/solidity-cborutils/v2.0.0/CBOR.sol\":6612:6639  buf.buf.appendInt(value, 2) */\n      0xffffffffffffffff\n      and\n        /* \"@chainlink/contracts/src/v0.8/vendor/solidity-cborutils/v2.0.0/CBOR.sol\":6637:6638  2 */\n      0x02\n        /* \"@chainlink/contracts/src/v0.8/vendor/solidity-cborutils/v2.0.0/CBOR.sol\":6612:6615  buf */\n      dup6\n        /* \"@chainlink/contracts/src/v0.8/vendor/solidity-cborutils/v2.0.0/CBOR.sol\":6612:6619  buf.buf */\n      0x00\n      add\n      mload\n        /* \"@chainlink/contracts/src/v0.8/vendor/solidity-cborutils/v2.0.0/CBOR.sol\":6612:6629  buf.buf.appendInt */\n      tag_295\n      swap1\n        /* \"@chainlink/contracts/src/v0.8/vendor/solidity-cborutils/v2.0.0/CBOR.sol\":6612:6639  buf.buf.appendInt(value, 2) */\n      swap3\n      swap2\n      swap1\n      0xffffffff\n      and\n      jump\t// in\n    tag_299:\n      pop\n        /* \"@chainlink/contracts/src/v0.8/vendor/solidity-cborutils/v2.0.0/CBOR.sol\":6518:6909  if (value <= 0xFFFF) {... */\n      jump(tag_300)\n    tag_297:\n        /* \"@chainlink/contracts/src/v0.8/vendor/solidity-cborutils/v2.0.0/CBOR.sol\":6669:6679  0xFFFFFFFF */\n      0xffffffff\n        /* \"@chainlink/contracts/src/v0.8/vendor/solidity-cborutils/v2.0.0/CBOR.sol\":6660:6665  value */\n      dup2\n        /* \"@chainlink/contracts/src/v0.8/vendor/solidity-cborutils/v2.0.0/CBOR.sol\":6660:6679  value <= 0xFFFFFFFF */\n      0xffffffffffffffff\n      and\n      gt\n        /* \"@chainlink/contracts/src/v0.8/vendor/solidity-cborutils/v2.0.0/CBOR.sol\":6656:6909  if (value <= 0xFFFFFFFF) {... */\n      tag_301\n      jumpi\n        /* \"@chainlink/contracts/src/v0.8/vendor/solidity-cborutils/v2.0.0/CBOR.sol\":6695:6740  buf.buf.appendUint8(uint8((major << 5) | 26)) */\n      tag_302\n        /* \"@chainlink/contracts/src/v0.8/vendor/solidity-cborutils/v2.0.0/CBOR.sol\":6736:6738  26 */\n      0x1a\n        /* \"@chainlink/contracts/src/v0.8/vendor/solidity-cborutils/v2.0.0/CBOR.sol\":6731:6732  5 */\n      0x05\n        /* \"@chainlink/contracts/src/v0.8/vendor/solidity-cborutils/v2.0.0/CBOR.sol\":6722:6727  major */\n      dup5\n        /* \"@chainlink/contracts/src/v0.8/vendor/solidity-cborutils/v2.0.0/CBOR.sol\":6722:6732  major << 5 */\n      0xff\n      and\n      swap1\n      shl\n        /* \"@chainlink/contracts/src/v0.8/vendor/solidity-cborutils/v2.0.0/CBOR.sol\":6721:6738  (major << 5) | 26 */\n      or\n        /* \"@chainlink/contracts/src/v0.8/vendor/solidity-cborutils/v2.0.0/CBOR.sol\":6695:6698  buf */\n      dup5\n        /* \"@chainlink/contracts/src/v0.8/vendor/solidity-cborutils/v2.0.0/CBOR.sol\":6695:6702  buf.buf */\n      0x00\n      add\n      mload\n        /* \"@chainlink/contracts/src/v0.8/vendor/solidity-cborutils/v2.0.0/CBOR.sol\":6695:6714  buf.buf.appendUint8 */\n      tag_262\n      swap1\n        /* \"@chainlink/contracts/src/v0.8/vendor/solidity-cborutils/v2.0.0/CBOR.sol\":6695:6740  buf.buf.appendUint8(uint8((major << 5) | 26)) */\n      swap2\n      swap1\n      0xffffffff\n      and\n      jump\t// in\n    tag_302:\n      pop\n        /* \"@chainlink/contracts/src/v0.8/vendor/solidity-cborutils/v2.0.0/CBOR.sol\":6754:6781  buf.buf.appendInt(value, 4) */\n      tag_303\n        /* \"@chainlink/contracts/src/v0.8/vendor/solidity-cborutils/v2.0.0/CBOR.sol\":6772:6777  value */\n      dup2\n        /* \"@chainlink/contracts/src/v0.8/vendor/solidity-cborutils/v2.0.0/CBOR.sol\":6754:6781  buf.buf.appendInt(value, 4) */\n      0xffffffffffffffff\n      and\n        /* \"@chainlink/contracts/src/v0.8/vendor/solidity-cborutils/v2.0.0/CBOR.sol\":6779:6780  4 */\n      0x04\n        /* \"@chainlink/contracts/src/v0.8/vendor/solidity-cborutils/v2.0.0/CBOR.sol\":6754:6757  buf */\n      dup6\n        /* \"@chainlink/contracts/src/v0.8/vendor/solidity-cborutils/v2.0.0/CBOR.sol\":6754:6761  buf.buf */\n      0x00\n      add\n      mload\n        /* \"@chainlink/contracts/src/v0.8/vendor/solidity-cborutils/v2.0.0/CBOR.sol\":6754:6771  buf.buf.appendInt */\n      tag_295\n      swap1\n        /* \"@chainlink/contracts/src/v0.8/vendor/solidity-cborutils/v2.0.0/CBOR.sol\":6754:6781  buf.buf.appendInt(value, 4) */\n      swap3\n      swap2\n      swap1\n      0xffffffff\n      and\n      jump\t// in\n    tag_303:\n      pop\n        /* \"@chainlink/contracts/src/v0.8/vendor/solidity-cborutils/v2.0.0/CBOR.sol\":6656:6909  if (value <= 0xFFFFFFFF) {... */\n      jump(tag_304)\n    tag_301:\n        /* \"@chainlink/contracts/src/v0.8/vendor/solidity-cborutils/v2.0.0/CBOR.sol\":6812:6857  buf.buf.appendUint8(uint8((major << 5) | 27)) */\n      tag_305\n        /* \"@chainlink/contracts/src/v0.8/vendor/solidity-cborutils/v2.0.0/CBOR.sol\":6853:6855  27 */\n      0x1b\n        /* \"@chainlink/contracts/src/v0.8/vendor/solidity-cborutils/v2.0.0/CBOR.sol\":6848:6849  5 */\n      0x05\n        /* \"@chainlink/contracts/src/v0.8/vendor/solidity-cborutils/v2.0.0/CBOR.sol\":6839:6844  major */\n      dup5\n        /* \"@chainlink/contracts/src/v0.8/vendor/solidity-cborutils/v2.0.0/CBOR.sol\":6839:6849  major << 5 */\n      0xff\n      and\n      swap1\n      shl\n        /* \"@chainlink/contracts/src/v0.8/vendor/solidity-cborutils/v2.0.0/CBOR.sol\":6838:6855  (major << 5) | 27 */\n      or\n        /* \"@chainlink/contracts/src/v0.8/vendor/solidity-cborutils/v2.0.0/CBOR.sol\":6812:6815  buf */\n      dup5\n        /* \"@chainlink/contracts/src/v0.8/vendor/solidity-cborutils/v2.0.0/CBOR.sol\":6812:6819  buf.buf */\n      0x00\n      add\n      mload\n        /* \"@chainlink/contracts/src/v0.8/vendor/solidity-cborutils/v2.0.0/CBOR.sol\":6812:6831  buf.buf.appendUint8 */\n      tag_262\n      swap1\n        /* \"@chainlink/contracts/src/v0.8/vendor/solidity-cborutils/v2.0.0/CBOR.sol\":6812:6857  buf.buf.appendUint8(uint8((major << 5) | 27)) */\n      swap2\n      swap1\n      0xffffffff\n      and\n      jump\t// in\n    tag_305:\n      pop\n        /* \"@chainlink/contracts/src/v0.8/vendor/solidity-cborutils/v2.0.0/CBOR.sol\":6871:6898  buf.buf.appendInt(value, 8) */\n      tag_306\n        /* \"@chainlink/contracts/src/v0.8/vendor/solidity-cborutils/v2.0.0/CBOR.sol\":6889:6894  value */\n      dup2\n        /* \"@chainlink/contracts/src/v0.8/vendor/solidity-cborutils/v2.0.0/CBOR.sol\":6871:6898  buf.buf.appendInt(value, 8) */\n      0xffffffffffffffff\n      and\n        /* \"@chainlink/contracts/src/v0.8/vendor/solidity-cborutils/v2.0.0/CBOR.sol\":6896:6897  8 */\n      0x08\n        /* \"@chainlink/contracts/src/v0.8/vendor/solidity-cborutils/v2.0.0/CBOR.sol\":6871:6874  buf */\n      dup6\n        /* \"@chainlink/contracts/src/v0.8/vendor/solidity-cborutils/v2.0.0/CBOR.sol\":6871:6878  buf.buf */\n      0x00\n      add\n      mload\n        /* \"@chainlink/contracts/src/v0.8/vendor/solidity-cborutils/v2.0.0/CBOR.sol\":6871:6888  buf.buf.appendInt */\n      tag_295\n      swap1\n        /* \"@chainlink/contracts/src/v0.8/vendor/solidity-cborutils/v2.0.0/CBOR.sol\":6871:6898  buf.buf.appendInt(value, 8) */\n      swap3\n      swap2\n      swap1\n      0xffffffff\n      and\n      jump\t// in\n    tag_306:\n      pop\n        /* \"@chainlink/contracts/src/v0.8/vendor/solidity-cborutils/v2.0.0/CBOR.sol\":6656:6909  if (value <= 0xFFFFFFFF) {... */\n    tag_304:\n        /* \"@chainlink/contracts/src/v0.8/vendor/solidity-cborutils/v2.0.0/CBOR.sol\":6518:6909  if (value <= 0xFFFF) {... */\n    tag_300:\n        /* \"@chainlink/contracts/src/v0.8/vendor/solidity-cborutils/v2.0.0/CBOR.sol\":6382:6909  if (value <= 0xFF) {... */\n    tag_296:\n        /* \"@chainlink/contracts/src/v0.8/vendor/solidity-cborutils/v2.0.0/CBOR.sol\":6286:6909  if (value <= 23) {... */\n    tag_291:\n        /* \"@chainlink/contracts/src/v0.8/vendor/solidity-cborutils/v2.0.0/CBOR.sol\":6156:6915  function writeFixedNumeric(... */\n      pop\n      pop\n      pop\n      jump\t// out\n        /* \"@chainlink/contracts/src/v0.8/vendor/@ensdomains/buffer/v0.1.0/Buffer.sol\":4539:4685  function append(buffer memory buf, bytes memory data) internal pure returns (buffer memory) {... */\n    tag_259:\n        /* \"@chainlink/contracts/src/v0.8/vendor/@ensdomains/buffer/v0.1.0/Buffer.sol\":4616:4629  buffer memory */\n      tag_307\n      tag_279\n      jump\t// in\n    tag_307:\n        /* \"@chainlink/contracts/src/v0.8/vendor/@ensdomains/buffer/v0.1.0/Buffer.sol\":4648:4678  append(buf, data, data.length) */\n      tag_309\n        /* \"@chainlink/contracts/src/v0.8/vendor/@ensdomains/buffer/v0.1.0/Buffer.sol\":4655:4658  buf */\n      dup4\n        /* \"@chainlink/contracts/src/v0.8/vendor/@ensdomains/buffer/v0.1.0/Buffer.sol\":4660:4664  data */\n      dup4\n        /* \"@chainlink/contracts/src/v0.8/vendor/@ensdomains/buffer/v0.1.0/Buffer.sol\":4666:4670  data */\n      dup5\n        /* \"@chainlink/contracts/src/v0.8/vendor/@ensdomains/buffer/v0.1.0/Buffer.sol\":4666:4677  data.length */\n      mload\n        /* \"@chainlink/contracts/src/v0.8/vendor/@ensdomains/buffer/v0.1.0/Buffer.sol\":4648:4654  append */\n      tag_310\n        /* \"@chainlink/contracts/src/v0.8/vendor/@ensdomains/buffer/v0.1.0/Buffer.sol\":4648:4678  append(buf, data, data.length) */\n      jump\t// in\n    tag_309:\n        /* \"@chainlink/contracts/src/v0.8/vendor/@ensdomains/buffer/v0.1.0/Buffer.sol\":4641:4678  return append(buf, data, data.length) */\n      swap1\n      pop\n        /* \"@chainlink/contracts/src/v0.8/vendor/@ensdomains/buffer/v0.1.0/Buffer.sol\":4539:4685  function append(buffer memory buf, bytes memory data) internal pure returns (buffer memory) {... */\n      swap3\n      swap2\n      pop\n      pop\n      jump\t// out\n        /* \"@chainlink/contracts/src/v0.8/vendor/@ensdomains/buffer/v0.1.0/Buffer.sol\":4948:5647  function appendUint8(buffer memory buf, uint8 data) internal pure returns(buffer memory) {... */\n    tag_262:\n        /* \"@chainlink/contracts/src/v0.8/vendor/@ensdomains/buffer/v0.1.0/Buffer.sol\":5022:5035  buffer memory */\n      tag_311\n      tag_279\n      jump\t// in\n    tag_311:\n        /* \"@chainlink/contracts/src/v0.8/vendor/@ensdomains/buffer/v0.1.0/Buffer.sol\":5047:5055  uint off */\n      0x00\n        /* \"@chainlink/contracts/src/v0.8/vendor/@ensdomains/buffer/v0.1.0/Buffer.sol\":5058:5061  buf */\n      dup4\n        /* \"@chainlink/contracts/src/v0.8/vendor/@ensdomains/buffer/v0.1.0/Buffer.sol\":5058:5065  buf.buf */\n      0x00\n      add\n      mload\n        /* \"@chainlink/contracts/src/v0.8/vendor/@ensdomains/buffer/v0.1.0/Buffer.sol\":5058:5072  buf.buf.length */\n      mload\n        /* \"@chainlink/contracts/src/v0.8/vendor/@ensdomains/buffer/v0.1.0/Buffer.sol\":5047:5072  uint off = buf.buf.length */\n      swap1\n      pop\n        /* \"@chainlink/contracts/src/v0.8/vendor/@ensdomains/buffer/v0.1.0/Buffer.sol\":5082:5097  uint offPlusOne */\n      0x00\n        /* \"@chainlink/contracts/src/v0.8/vendor/@ensdomains/buffer/v0.1.0/Buffer.sol\":5106:5107  1 */\n      0x01\n        /* \"@chainlink/contracts/src/v0.8/vendor/@ensdomains/buffer/v0.1.0/Buffer.sol\":5100:5103  off */\n      dup3\n        /* \"@chainlink/contracts/src/v0.8/vendor/@ensdomains/buffer/v0.1.0/Buffer.sol\":5100:5107  off + 1 */\n      tag_313\n      swap2\n      swap1\n      tag_270\n      jump\t// in\n    tag_313:\n        /* \"@chainlink/contracts/src/v0.8/vendor/@ensdomains/buffer/v0.1.0/Buffer.sol\":5082:5107  uint offPlusOne = off + 1 */\n      swap1\n      pop\n        /* \"@chainlink/contracts/src/v0.8/vendor/@ensdomains/buffer/v0.1.0/Buffer.sol\":5128:5131  buf */\n      dup5\n        /* \"@chainlink/contracts/src/v0.8/vendor/@ensdomains/buffer/v0.1.0/Buffer.sol\":5128:5140  buf.capacity */\n      0x20\n      add\n      mload\n        /* \"@chainlink/contracts/src/v0.8/vendor/@ensdomains/buffer/v0.1.0/Buffer.sol\":5121:5124  off */\n      dup3\n        /* \"@chainlink/contracts/src/v0.8/vendor/@ensdomains/buffer/v0.1.0/Buffer.sol\":5121:5140  off >= buf.capacity */\n      lt\n        /* \"@chainlink/contracts/src/v0.8/vendor/@ensdomains/buffer/v0.1.0/Buffer.sol\":5117:5194  if (off >= buf.capacity) {... */\n      tag_314\n      jumpi\n        /* \"@chainlink/contracts/src/v0.8/vendor/@ensdomains/buffer/v0.1.0/Buffer.sol\":5156:5183  resize(buf, offPlusOne * 2) */\n      tag_315\n        /* \"@chainlink/contracts/src/v0.8/vendor/@ensdomains/buffer/v0.1.0/Buffer.sol\":5163:5166  buf */\n      dup6\n        /* \"@chainlink/contracts/src/v0.8/vendor/@ensdomains/buffer/v0.1.0/Buffer.sol\":5181:5182  2 */\n      0x02\n        /* \"@chainlink/contracts/src/v0.8/vendor/@ensdomains/buffer/v0.1.0/Buffer.sol\":5168:5178  offPlusOne */\n      dup4\n        /* \"@chainlink/contracts/src/v0.8/vendor/@ensdomains/buffer/v0.1.0/Buffer.sol\":5168:5182  offPlusOne * 2 */\n      tag_316\n      swap2\n      swap1\n      tag_317\n      jump\t// in\n    tag_316:\n        /* \"@chainlink/contracts/src/v0.8/vendor/@ensdomains/buffer/v0.1.0/Buffer.sol\":5156:5162  resize */\n      tag_318\n        /* \"@chainlink/contracts/src/v0.8/vendor/@ensdomains/buffer/v0.1.0/Buffer.sol\":5156:5183  resize(buf, offPlusOne * 2) */\n      jump\t// in\n    tag_315:\n        /* \"@chainlink/contracts/src/v0.8/vendor/@ensdomains/buffer/v0.1.0/Buffer.sol\":5117:5194  if (off >= buf.capacity) {... */\n    tag_314:\n        /* \"@chainlink/contracts/src/v0.8/vendor/@ensdomains/buffer/v0.1.0/Buffer.sol\":5296:5299  buf */\n      dup5\n        /* \"@chainlink/contracts/src/v0.8/vendor/@ensdomains/buffer/v0.1.0/Buffer.sol\":5290:5300  mload(buf) */\n      mload\n        /* \"@chainlink/contracts/src/v0.8/vendor/@ensdomains/buffer/v0.1.0/Buffer.sol\":5417:5419  32 */\n      0x20\n        /* \"@chainlink/contracts/src/v0.8/vendor/@ensdomains/buffer/v0.1.0/Buffer.sol\":5411:5414  off */\n      dup4\n        /* \"@chainlink/contracts/src/v0.8/vendor/@ensdomains/buffer/v0.1.0/Buffer.sol\":5403:5409  bufptr */\n      dup3\n        /* \"@chainlink/contracts/src/v0.8/vendor/@ensdomains/buffer/v0.1.0/Buffer.sol\":5399:5415  add(bufptr, off) */\n      add\n        /* \"@chainlink/contracts/src/v0.8/vendor/@ensdomains/buffer/v0.1.0/Buffer.sol\":5395:5420  add(add(bufptr, off), 32) */\n      add\n        /* \"@chainlink/contracts/src/v0.8/vendor/@ensdomains/buffer/v0.1.0/Buffer.sol\":5447:5451  data */\n      dup6\n        /* \"@chainlink/contracts/src/v0.8/vendor/@ensdomains/buffer/v0.1.0/Buffer.sol\":5441:5445  dest */\n      dup2\n        /* \"@chainlink/contracts/src/v0.8/vendor/@ensdomains/buffer/v0.1.0/Buffer.sol\":5433:5452  mstore8(dest, data) */\n      mstore8\n        /* \"@chainlink/contracts/src/v0.8/vendor/@ensdomains/buffer/v0.1.0/Buffer.sol\":5543:5549  bufptr */\n      dup2\n        /* \"@chainlink/contracts/src/v0.8/vendor/@ensdomains/buffer/v0.1.0/Buffer.sol\":5537:5550  mload(bufptr) */\n      mload\n        /* \"@chainlink/contracts/src/v0.8/vendor/@ensdomains/buffer/v0.1.0/Buffer.sol\":5525:5535  offPlusOne */\n      dup4\n        /* \"@chainlink/contracts/src/v0.8/vendor/@ensdomains/buffer/v0.1.0/Buffer.sol\":5522:5551  gt(offPlusOne, mload(bufptr)) */\n      gt\n        /* \"@chainlink/contracts/src/v0.8/vendor/@ensdomains/buffer/v0.1.0/Buffer.sol\":5519:5610  if gt(offPlusOne, mload(bufptr)) {... */\n      iszero\n      tag_319\n      jumpi\n        /* \"@chainlink/contracts/src/v0.8/vendor/@ensdomains/buffer/v0.1.0/Buffer.sol\":5585:5595  offPlusOne */\n      dup3\n        /* \"@chainlink/contracts/src/v0.8/vendor/@ensdomains/buffer/v0.1.0/Buffer.sol\":5577:5583  bufptr */\n      dup3\n        /* \"@chainlink/contracts/src/v0.8/vendor/@ensdomains/buffer/v0.1.0/Buffer.sol\":5570:5596  mstore(bufptr, offPlusOne) */\n      mstore\n        /* \"@chainlink/contracts/src/v0.8/vendor/@ensdomains/buffer/v0.1.0/Buffer.sol\":5519:5610  if gt(offPlusOne, mload(bufptr)) {... */\n    tag_319:\n        /* \"@chainlink/contracts/src/v0.8/vendor/@ensdomains/buffer/v0.1.0/Buffer.sol\":5213:5620  {... */\n      pop\n      pop\n        /* \"@chainlink/contracts/src/v0.8/vendor/@ensdomains/buffer/v0.1.0/Buffer.sol\":5637:5640  buf */\n      dup5\n        /* \"@chainlink/contracts/src/v0.8/vendor/@ensdomains/buffer/v0.1.0/Buffer.sol\":5630:5640  return buf */\n      swap3\n      pop\n      pop\n      pop\n        /* \"@chainlink/contracts/src/v0.8/vendor/@ensdomains/buffer/v0.1.0/Buffer.sol\":4948:5647  function appendUint8(buffer memory buf, uint8 data) internal pure returns(buffer memory) {... */\n      swap3\n      swap2\n      pop\n      pop\n      jump\t// out\n        /* \"@chainlink/contracts/src/v0.8/vendor/solidity-cborutils/v2.0.0/CBOR.sol\":6921:7087  function writeIndefiniteLengthType(CBORBuffer memory buf, uint8 major)... */\n    tag_268:\n        /* \"@chainlink/contracts/src/v0.8/vendor/solidity-cborutils/v2.0.0/CBOR.sol\":7035:7080  buf.buf.appendUint8(uint8((major << 5) | 31)) */\n      tag_321\n        /* \"@chainlink/contracts/src/v0.8/vendor/solidity-cborutils/v2.0.0/CBOR.sol\":7076:7078  31 */\n      0x1f\n        /* \"@chainlink/contracts/src/v0.8/vendor/solidity-cborutils/v2.0.0/CBOR.sol\":7071:7072  5 */\n      0x05\n        /* \"@chainlink/contracts/src/v0.8/vendor/solidity-cborutils/v2.0.0/CBOR.sol\":7062:7067  major */\n      dup4\n        /* \"@chainlink/contracts/src/v0.8/vendor/solidity-cborutils/v2.0.0/CBOR.sol\":7062:7072  major << 5 */\n      0xff\n      and\n      swap1\n      shl\n        /* \"@chainlink/contracts/src/v0.8/vendor/solidity-cborutils/v2.0.0/CBOR.sol\":7061:7078  (major << 5) | 31 */\n      or\n        /* \"@chainlink/contracts/src/v0.8/vendor/solidity-cborutils/v2.0.0/CBOR.sol\":7035:7038  buf */\n      dup4\n        /* \"@chainlink/contracts/src/v0.8/vendor/solidity-cborutils/v2.0.0/CBOR.sol\":7035:7042  buf.buf */\n      0x00\n      add\n      mload\n        /* \"@chainlink/contracts/src/v0.8/vendor/solidity-cborutils/v2.0.0/CBOR.sol\":7035:7054  buf.buf.appendUint8 */\n      tag_262\n      swap1\n        /* \"@chainlink/contracts/src/v0.8/vendor/solidity-cborutils/v2.0.0/CBOR.sol\":7035:7080  buf.buf.appendUint8(uint8((major << 5) | 31)) */\n      swap2\n      swap1\n      0xffffffff\n      and\n      jump\t// in\n    tag_321:\n      pop\n        /* \"@chainlink/contracts/src/v0.8/vendor/solidity-cborutils/v2.0.0/CBOR.sol\":6921:7087  function writeIndefiniteLengthType(CBORBuffer memory buf, uint8 major)... */\n      pop\n      pop\n      jump\t// out\n        /* \"@chainlink/contracts/src/v0.8/vendor/@ensdomains/buffer/v0.1.0/Buffer.sol\":8083:8878  function appendInt(buffer memory buf, uint data, uint len) internal pure returns(buffer memory) {... */\n    tag_295:\n        /* \"@chainlink/contracts/src/v0.8/vendor/@ensdomains/buffer/v0.1.0/Buffer.sol\":8164:8177  buffer memory */\n      tag_322\n      tag_279\n      jump\t// in\n    tag_322:\n        /* \"@chainlink/contracts/src/v0.8/vendor/@ensdomains/buffer/v0.1.0/Buffer.sol\":8189:8197  uint off */\n      0x00\n        /* \"@chainlink/contracts/src/v0.8/vendor/@ensdomains/buffer/v0.1.0/Buffer.sol\":8200:8203  buf */\n      dup5\n        /* \"@chainlink/contracts/src/v0.8/vendor/@ensdomains/buffer/v0.1.0/Buffer.sol\":8200:8207  buf.buf */\n      0x00\n      add\n      mload\n        /* \"@chainlink/contracts/src/v0.8/vendor/@ensdomains/buffer/v0.1.0/Buffer.sol\":8200:8214  buf.buf.length */\n      mload\n        /* \"@chainlink/contracts/src/v0.8/vendor/@ensdomains/buffer/v0.1.0/Buffer.sol\":8189:8214  uint off = buf.buf.length */\n      swap1\n      pop\n        /* \"@chainlink/contracts/src/v0.8/vendor/@ensdomains/buffer/v0.1.0/Buffer.sol\":8224:8240  uint newCapacity */\n      0x00\n        /* \"@chainlink/contracts/src/v0.8/vendor/@ensdomains/buffer/v0.1.0/Buffer.sol\":8249:8252  off */\n      dup2\n        /* \"@chainlink/contracts/src/v0.8/vendor/@ensdomains/buffer/v0.1.0/Buffer.sol\":8243:8246  len */\n      dup5\n        /* \"@chainlink/contracts/src/v0.8/vendor/@ensdomains/buffer/v0.1.0/Buffer.sol\":8243:8252  len + off */\n      tag_324\n      swap2\n      swap1\n      tag_270\n      jump\t// in\n    tag_324:\n        /* \"@chainlink/contracts/src/v0.8/vendor/@ensdomains/buffer/v0.1.0/Buffer.sol\":8224:8252  uint newCapacity = len + off */\n      swap1\n      pop\n        /* \"@chainlink/contracts/src/v0.8/vendor/@ensdomains/buffer/v0.1.0/Buffer.sol\":8280:8283  buf */\n      dup6\n        /* \"@chainlink/contracts/src/v0.8/vendor/@ensdomains/buffer/v0.1.0/Buffer.sol\":8280:8292  buf.capacity */\n      0x20\n      add\n      mload\n        /* \"@chainlink/contracts/src/v0.8/vendor/@ensdomains/buffer/v0.1.0/Buffer.sol\":8266:8277  newCapacity */\n      dup2\n        /* \"@chainlink/contracts/src/v0.8/vendor/@ensdomains/buffer/v0.1.0/Buffer.sol\":8266:8292  newCapacity > buf.capacity */\n      gt\n        /* \"@chainlink/contracts/src/v0.8/vendor/@ensdomains/buffer/v0.1.0/Buffer.sol\":8262:8347  if (newCapacity > buf.capacity) {... */\n      iszero\n      tag_325\n      jumpi\n        /* \"@chainlink/contracts/src/v0.8/vendor/@ensdomains/buffer/v0.1.0/Buffer.sol\":8308:8336  resize(buf, newCapacity * 2) */\n      tag_326\n        /* \"@chainlink/contracts/src/v0.8/vendor/@ensdomains/buffer/v0.1.0/Buffer.sol\":8315:8318  buf */\n      dup7\n        /* \"@chainlink/contracts/src/v0.8/vendor/@ensdomains/buffer/v0.1.0/Buffer.sol\":8334:8335  2 */\n      0x02\n        /* \"@chainlink/contracts/src/v0.8/vendor/@ensdomains/buffer/v0.1.0/Buffer.sol\":8320:8331  newCapacity */\n      dup4\n        /* \"@chainlink/contracts/src/v0.8/vendor/@ensdomains/buffer/v0.1.0/Buffer.sol\":8320:8335  newCapacity * 2 */\n      tag_327\n      swap2\n      swap1\n      tag_317\n      jump\t// in\n    tag_327:\n        /* \"@chainlink/contracts/src/v0.8/vendor/@ensdomains/buffer/v0.1.0/Buffer.sol\":8308:8314  resize */\n      tag_318\n        /* \"@chainlink/contracts/src/v0.8/vendor/@ensdomains/buffer/v0.1.0/Buffer.sol\":8308:8336  resize(buf, newCapacity * 2) */\n      jump\t// in\n    tag_326:\n        /* \"@chainlink/contracts/src/v0.8/vendor/@ensdomains/buffer/v0.1.0/Buffer.sol\":8262:8347  if (newCapacity > buf.capacity) {... */\n    tag_325:\n        /* \"@chainlink/contracts/src/v0.8/vendor/@ensdomains/buffer/v0.1.0/Buffer.sol\":8357:8366  uint mask */\n      0x00\n        /* \"@chainlink/contracts/src/v0.8/vendor/@ensdomains/buffer/v0.1.0/Buffer.sol\":8384:8385  1 */\n      0x01\n        /* \"@chainlink/contracts/src/v0.8/vendor/@ensdomains/buffer/v0.1.0/Buffer.sol\":8377:8380  len */\n      dup6\n        /* \"@chainlink/contracts/src/v0.8/vendor/@ensdomains/buffer/v0.1.0/Buffer.sol\":8370:8373  256 */\n      0x0100\n        /* \"@chainlink/contracts/src/v0.8/vendor/@ensdomains/buffer/v0.1.0/Buffer.sol\":8370:8380  256 ** len */\n      tag_328\n      swap2\n      swap1\n      tag_329\n      jump\t// in\n    tag_328:\n        /* \"@chainlink/contracts/src/v0.8/vendor/@ensdomains/buffer/v0.1.0/Buffer.sol\":8369:8385  (256 ** len) - 1 */\n      tag_330\n      swap2\n      swap1\n      tag_274\n      jump\t// in\n    tag_330:\n        /* \"@chainlink/contracts/src/v0.8/vendor/@ensdomains/buffer/v0.1.0/Buffer.sol\":8357:8385  uint mask = (256 ** len) - 1 */\n      swap1\n      pop\n        /* \"@chainlink/contracts/src/v0.8/vendor/@ensdomains/buffer/v0.1.0/Buffer.sol\":8487:8490  buf */\n      dup7\n        /* \"@chainlink/contracts/src/v0.8/vendor/@ensdomains/buffer/v0.1.0/Buffer.sol\":8481:8491  mload(buf) */\n      mload\n        /* \"@chainlink/contracts/src/v0.8/vendor/@ensdomains/buffer/v0.1.0/Buffer.sol\":8606:8617  newCapacity */\n      dup3\n        /* \"@chainlink/contracts/src/v0.8/vendor/@ensdomains/buffer/v0.1.0/Buffer.sol\":8598:8604  bufptr */\n      dup2\n        /* \"@chainlink/contracts/src/v0.8/vendor/@ensdomains/buffer/v0.1.0/Buffer.sol\":8594:8618  add(bufptr, newCapacity) */\n      add\n        /* \"@chainlink/contracts/src/v0.8/vendor/@ensdomains/buffer/v0.1.0/Buffer.sol\":8676:8680  data */\n      dup8\n        /* \"@chainlink/contracts/src/v0.8/vendor/@ensdomains/buffer/v0.1.0/Buffer.sol\":8668:8672  mask */\n      dup4\n        /* \"@chainlink/contracts/src/v0.8/vendor/@ensdomains/buffer/v0.1.0/Buffer.sol\":8664:8673  not(mask) */\n      not\n        /* \"@chainlink/contracts/src/v0.8/vendor/@ensdomains/buffer/v0.1.0/Buffer.sol\":8657:8661  dest */\n      dup3\n        /* \"@chainlink/contracts/src/v0.8/vendor/@ensdomains/buffer/v0.1.0/Buffer.sol\":8651:8662  mload(dest) */\n      mload\n        /* \"@chainlink/contracts/src/v0.8/vendor/@ensdomains/buffer/v0.1.0/Buffer.sol\":8647:8674  and(mload(dest), not(mask)) */\n      and\n        /* \"@chainlink/contracts/src/v0.8/vendor/@ensdomains/buffer/v0.1.0/Buffer.sol\":8644:8681  or(and(mload(dest), not(mask)), data) */\n      or\n        /* \"@chainlink/contracts/src/v0.8/vendor/@ensdomains/buffer/v0.1.0/Buffer.sol\":8638:8642  dest */\n      dup2\n        /* \"@chainlink/contracts/src/v0.8/vendor/@ensdomains/buffer/v0.1.0/Buffer.sol\":8631:8682  mstore(dest, or(and(mload(dest), not(mask)), data)) */\n      mstore\n        /* \"@chainlink/contracts/src/v0.8/vendor/@ensdomains/buffer/v0.1.0/Buffer.sol\":8774:8780  bufptr */\n      dup2\n        /* \"@chainlink/contracts/src/v0.8/vendor/@ensdomains/buffer/v0.1.0/Buffer.sol\":8768:8781  mload(bufptr) */\n      mload\n        /* \"@chainlink/contracts/src/v0.8/vendor/@ensdomains/buffer/v0.1.0/Buffer.sol\":8755:8766  newCapacity */\n      dup5\n        /* \"@chainlink/contracts/src/v0.8/vendor/@ensdomains/buffer/v0.1.0/Buffer.sol\":8752:8782  gt(newCapacity, mload(bufptr)) */\n      gt\n        /* \"@chainlink/contracts/src/v0.8/vendor/@ensdomains/buffer/v0.1.0/Buffer.sol\":8749:8842  if gt(newCapacity, mload(bufptr)) {... */\n      iszero\n      tag_331\n      jumpi\n        /* \"@chainlink/contracts/src/v0.8/vendor/@ensdomains/buffer/v0.1.0/Buffer.sol\":8816:8827  newCapacity */\n      dup4\n        /* \"@chainlink/contracts/src/v0.8/vendor/@ensdomains/buffer/v0.1.0/Buffer.sol\":8808:8814  bufptr */\n      dup3\n        /* \"@chainlink/contracts/src/v0.8/vendor/@ensdomains/buffer/v0.1.0/Buffer.sol\":8801:8828  mstore(bufptr, newCapacity) */\n      mstore\n        /* \"@chainlink/contracts/src/v0.8/vendor/@ensdomains/buffer/v0.1.0/Buffer.sol\":8749:8842  if gt(newCapacity, mload(bufptr)) {... */\n    tag_331:\n        /* \"@chainlink/contracts/src/v0.8/vendor/@ensdomains/buffer/v0.1.0/Buffer.sol\":8404:8852  {... */\n      pop\n      pop\n        /* \"@chainlink/contracts/src/v0.8/vendor/@ensdomains/buffer/v0.1.0/Buffer.sol\":8868:8871  buf */\n      dup7\n        /* \"@chainlink/contracts/src/v0.8/vendor/@ensdomains/buffer/v0.1.0/Buffer.sol\":8861:8871  return buf */\n      swap4\n      pop\n      pop\n      pop\n      pop\n        /* \"@chainlink/contracts/src/v0.8/vendor/@ensdomains/buffer/v0.1.0/Buffer.sol\":8083:8878  function appendInt(buffer memory buf, uint data, uint len) internal pure returns(buffer memory) {... */\n      swap4\n      swap3\n      pop\n      pop\n      pop\n      jump\t// out\n        /* \"@chainlink/contracts/src/v0.8/vendor/@ensdomains/buffer/v0.1.0/Buffer.sol\":2844:4271  function append(buffer memory buf, bytes memory data, uint len) internal pure returns(buffer memory) {... */\n    tag_310:\n        /* \"@chainlink/contracts/src/v0.8/vendor/@ensdomains/buffer/v0.1.0/Buffer.sol\":2930:2943  buffer memory */\n      tag_332\n      tag_279\n      jump\t// in\n    tag_332:\n        /* \"@chainlink/contracts/src/v0.8/vendor/@ensdomains/buffer/v0.1.0/Buffer.sol\":2970:2974  data */\n      dup3\n        /* \"@chainlink/contracts/src/v0.8/vendor/@ensdomains/buffer/v0.1.0/Buffer.sol\":2970:2981  data.length */\n      mload\n        /* \"@chainlink/contracts/src/v0.8/vendor/@ensdomains/buffer/v0.1.0/Buffer.sol\":2963:2966  len */\n      dup3\n        /* \"@chainlink/contracts/src/v0.8/vendor/@ensdomains/buffer/v0.1.0/Buffer.sol\":2963:2981  len <= data.length */\n      gt\n      iszero\n        /* \"@chainlink/contracts/src/v0.8/vendor/@ensdomains/buffer/v0.1.0/Buffer.sol\":2955:2982  require(len <= data.length) */\n      tag_334\n      jumpi\n      revert(0x00, 0x00)\n    tag_334:\n        /* \"@chainlink/contracts/src/v0.8/vendor/@ensdomains/buffer/v0.1.0/Buffer.sol\":2993:3001  uint off */\n      0x00\n        /* \"@chainlink/contracts/src/v0.8/vendor/@ensdomains/buffer/v0.1.0/Buffer.sol\":3004:3007  buf */\n      dup5\n        /* \"@chainlink/contracts/src/v0.8/vendor/@ensdomains/buffer/v0.1.0/Buffer.sol\":3004:3011  buf.buf */\n      0x00\n      add\n      mload\n        /* \"@chainlink/contracts/src/v0.8/vendor/@ensdomains/buffer/v0.1.0/Buffer.sol\":3004:3018  buf.buf.length */\n      mload\n        /* \"@chainlink/contracts/src/v0.8/vendor/@ensdomains/buffer/v0.1.0/Buffer.sol\":2993:3018  uint off = buf.buf.length */\n      swap1\n      pop\n        /* \"@chainlink/contracts/src/v0.8/vendor/@ensdomains/buffer/v0.1.0/Buffer.sol\":3028:3044  uint newCapacity */\n      0x00\n        /* \"@chainlink/contracts/src/v0.8/vendor/@ensdomains/buffer/v0.1.0/Buffer.sol\":3053:3056  len */\n      dup4\n        /* \"@chainlink/contracts/src/v0.8/vendor/@ensdomains/buffer/v0.1.0/Buffer.sol\":3047:3050  off */\n      dup3\n        /* \"@chainlink/contracts/src/v0.8/vendor/@ensdomains/buffer/v0.1.0/Buffer.sol\":3047:3056  off + len */\n      tag_335\n      swap2\n      swap1\n      tag_270\n      jump\t// in\n    tag_335:\n        /* \"@chainlink/contracts/src/v0.8/vendor/@ensdomains/buffer/v0.1.0/Buffer.sol\":3028:3056  uint newCapacity = off + len */\n      swap1\n      pop\n        /* \"@chainlink/contracts/src/v0.8/vendor/@ensdomains/buffer/v0.1.0/Buffer.sol\":3084:3087  buf */\n      dup6\n        /* \"@chainlink/contracts/src/v0.8/vendor/@ensdomains/buffer/v0.1.0/Buffer.sol\":3084:3096  buf.capacity */\n      0x20\n      add\n      mload\n        /* \"@chainlink/contracts/src/v0.8/vendor/@ensdomains/buffer/v0.1.0/Buffer.sol\":3070:3081  newCapacity */\n      dup2\n        /* \"@chainlink/contracts/src/v0.8/vendor/@ensdomains/buffer/v0.1.0/Buffer.sol\":3070:3096  newCapacity > buf.capacity */\n      gt\n        /* \"@chainlink/contracts/src/v0.8/vendor/@ensdomains/buffer/v0.1.0/Buffer.sol\":3066:3151  if (newCapacity > buf.capacity) {... */\n      iszero\n      tag_336\n      jumpi\n        /* \"@chainlink/contracts/src/v0.8/vendor/@ensdomains/buffer/v0.1.0/Buffer.sol\":3112:3140  resize(buf, newCapacity * 2) */\n      tag_337\n        /* \"@chainlink/contracts/src/v0.8/vendor/@ensdomains/buffer/v0.1.0/Buffer.sol\":3119:3122  buf */\n      dup7\n        /* \"@chainlink/contracts/src/v0.8/vendor/@ensdomains/buffer/v0.1.0/Buffer.sol\":3138:3139  2 */\n      0x02\n        /* \"@chainlink/contracts/src/v0.8/vendor/@ensdomains/buffer/v0.1.0/Buffer.sol\":3124:3135  newCapacity */\n      dup4\n        /* \"@chainlink/contracts/src/v0.8/vendor/@ensdomains/buffer/v0.1.0/Buffer.sol\":3124:3139  newCapacity * 2 */\n      tag_338\n      swap2\n      swap1\n      tag_317\n      jump\t// in\n    tag_338:\n        /* \"@chainlink/contracts/src/v0.8/vendor/@ensdomains/buffer/v0.1.0/Buffer.sol\":3112:3118  resize */\n      tag_318\n        /* \"@chainlink/contracts/src/v0.8/vendor/@ensdomains/buffer/v0.1.0/Buffer.sol\":3112:3140  resize(buf, newCapacity * 2) */\n      jump\t// in\n    tag_337:\n        /* \"@chainlink/contracts/src/v0.8/vendor/@ensdomains/buffer/v0.1.0/Buffer.sol\":3066:3151  if (newCapacity > buf.capacity) {... */\n    tag_336:\n        /* \"@chainlink/contracts/src/v0.8/vendor/@ensdomains/buffer/v0.1.0/Buffer.sol\":3161:3170  uint dest */\n      0x00\n        /* \"@chainlink/contracts/src/v0.8/vendor/@ensdomains/buffer/v0.1.0/Buffer.sol\":3180:3188  uint src */\n      0x00\n        /* \"@chainlink/contracts/src/v0.8/vendor/@ensdomains/buffer/v0.1.0/Buffer.sol\":3290:3293  buf */\n      dup8\n        /* \"@chainlink/contracts/src/v0.8/vendor/@ensdomains/buffer/v0.1.0/Buffer.sol\":3284:3294  mload(buf) */\n      mload\n        /* \"@chainlink/contracts/src/v0.8/vendor/@ensdomains/buffer/v0.1.0/Buffer.sol\":3373:3379  bufptr */\n      dup1\n        /* \"@chainlink/contracts/src/v0.8/vendor/@ensdomains/buffer/v0.1.0/Buffer.sol\":3367:3380  mload(bufptr) */\n      mload\n        /* \"@chainlink/contracts/src/v0.8/vendor/@ensdomains/buffer/v0.1.0/Buffer.sol\":3501:3504  off */\n      dup6\n        /* \"@chainlink/contracts/src/v0.8/vendor/@ensdomains/buffer/v0.1.0/Buffer.sol\":3496:3498  32 */\n      0x20\n        /* \"@chainlink/contracts/src/v0.8/vendor/@ensdomains/buffer/v0.1.0/Buffer.sol\":3488:3494  bufptr */\n      dup4\n        /* \"@chainlink/contracts/src/v0.8/vendor/@ensdomains/buffer/v0.1.0/Buffer.sol\":3484:3499  add(bufptr, 32) */\n      add\n        /* \"@chainlink/contracts/src/v0.8/vendor/@ensdomains/buffer/v0.1.0/Buffer.sol\":3480:3505  add(add(bufptr, 32), off) */\n      add\n        /* \"@chainlink/contracts/src/v0.8/vendor/@ensdomains/buffer/v0.1.0/Buffer.sol\":3472:3505  dest := add(add(bufptr, 32), off) */\n      swap4\n      pop\n        /* \"@chainlink/contracts/src/v0.8/vendor/@ensdomains/buffer/v0.1.0/Buffer.sol\":3595:3601  buflen */\n      dup1\n        /* \"@chainlink/contracts/src/v0.8/vendor/@ensdomains/buffer/v0.1.0/Buffer.sol\":3582:3593  newCapacity */\n      dup6\n        /* \"@chainlink/contracts/src/v0.8/vendor/@ensdomains/buffer/v0.1.0/Buffer.sol\":3579:3602  gt(newCapacity, buflen) */\n      gt\n        /* \"@chainlink/contracts/src/v0.8/vendor/@ensdomains/buffer/v0.1.0/Buffer.sol\":3576:3662  if gt(newCapacity, buflen) {... */\n      iszero\n      tag_339\n      jumpi\n        /* \"@chainlink/contracts/src/v0.8/vendor/@ensdomains/buffer/v0.1.0/Buffer.sol\":3636:3647  newCapacity */\n      dup5\n        /* \"@chainlink/contracts/src/v0.8/vendor/@ensdomains/buffer/v0.1.0/Buffer.sol\":3628:3634  bufptr */\n      dup3\n        /* \"@chainlink/contracts/src/v0.8/vendor/@ensdomains/buffer/v0.1.0/Buffer.sol\":3621:3648  mstore(bufptr, newCapacity) */\n      mstore\n        /* \"@chainlink/contracts/src/v0.8/vendor/@ensdomains/buffer/v0.1.0/Buffer.sol\":3576:3662  if gt(newCapacity, buflen) {... */\n    tag_339:\n        /* \"@chainlink/contracts/src/v0.8/vendor/@ensdomains/buffer/v0.1.0/Buffer.sol\":3692:3694  32 */\n      0x20\n        /* \"@chainlink/contracts/src/v0.8/vendor/@ensdomains/buffer/v0.1.0/Buffer.sol\":3686:3690  data */\n      dup10\n        /* \"@chainlink/contracts/src/v0.8/vendor/@ensdomains/buffer/v0.1.0/Buffer.sol\":3682:3695  add(data, 32) */\n      add\n        /* \"@chainlink/contracts/src/v0.8/vendor/@ensdomains/buffer/v0.1.0/Buffer.sol\":3675:3695  src := add(data, 32) */\n      swap3\n      pop\n        /* \"@chainlink/contracts/src/v0.8/vendor/@ensdomains/buffer/v0.1.0/Buffer.sol\":3207:3705  {... */\n      pop\n      pop\n        /* \"@chainlink/contracts/src/v0.8/vendor/@ensdomains/buffer/v0.1.0/Buffer.sol\":3765:3930  for (; len >= 32; len -= 32) {... */\n    tag_340:\n        /* \"@chainlink/contracts/src/v0.8/vendor/@ensdomains/buffer/v0.1.0/Buffer.sol\":3779:3781  32 */\n      0x20\n        /* \"@chainlink/contracts/src/v0.8/vendor/@ensdomains/buffer/v0.1.0/Buffer.sol\":3772:3775  len */\n      dup7\n        /* \"@chainlink/contracts/src/v0.8/vendor/@ensdomains/buffer/v0.1.0/Buffer.sol\":3772:3781  len >= 32 */\n      lt\n        /* \"@chainlink/contracts/src/v0.8/vendor/@ensdomains/buffer/v0.1.0/Buffer.sol\":3765:3930  for (; len >= 32; len -= 32) {... */\n      tag_341\n      jumpi\n        /* \"@chainlink/contracts/src/v0.8/vendor/@ensdomains/buffer/v0.1.0/Buffer.sol\":3854:3857  src */\n      dup1\n        /* \"@chainlink/contracts/src/v0.8/vendor/@ensdomains/buffer/v0.1.0/Buffer.sol\":3848:3858  mload(src) */\n      mload\n        /* \"@chainlink/contracts/src/v0.8/vendor/@ensdomains/buffer/v0.1.0/Buffer.sol\":3842:3846  dest */\n      dup3\n        /* \"@chainlink/contracts/src/v0.8/vendor/@ensdomains/buffer/v0.1.0/Buffer.sol\":3835:3859  mstore(dest, mload(src)) */\n      mstore\n        /* \"@chainlink/contracts/src/v0.8/vendor/@ensdomains/buffer/v0.1.0/Buffer.sol\":3894:3896  32 */\n      0x20\n        /* \"@chainlink/contracts/src/v0.8/vendor/@ensdomains/buffer/v0.1.0/Buffer.sol\":3886:3896  dest += 32 */\n      dup3\n      tag_343\n      swap2\n      swap1\n      tag_270\n      jump\t// in\n    tag_343:\n      swap2\n      pop\n        /* \"@chainlink/contracts/src/v0.8/vendor/@ensdomains/buffer/v0.1.0/Buffer.sol\":3917:3919  32 */\n      0x20\n        /* \"@chainlink/contracts/src/v0.8/vendor/@ensdomains/buffer/v0.1.0/Buffer.sol\":3910:3919  src += 32 */\n      dup2\n      tag_344\n      swap2\n      swap1\n      tag_270\n      jump\t// in\n    tag_344:\n      swap1\n      pop\n        /* \"@chainlink/contracts/src/v0.8/vendor/@ensdomains/buffer/v0.1.0/Buffer.sol\":3790:3792  32 */\n      0x20\n        /* \"@chainlink/contracts/src/v0.8/vendor/@ensdomains/buffer/v0.1.0/Buffer.sol\":3783:3792  len -= 32 */\n      dup7\n      tag_345\n      swap2\n      swap1\n      tag_274\n      jump\t// in\n    tag_345:\n      swap6\n      pop\n        /* \"@chainlink/contracts/src/v0.8/vendor/@ensdomains/buffer/v0.1.0/Buffer.sol\":3765:3930  for (; len >= 32; len -= 32) {... */\n      jump(tag_340)\n    tag_341:\n        /* \"@chainlink/contracts/src/v0.8/vendor/@ensdomains/buffer/v0.1.0/Buffer.sol\":3996:4005  uint mask */\n      0x00\n        /* \"@chainlink/contracts/src/v0.8/vendor/@ensdomains/buffer/v0.1.0/Buffer.sol\":4030:4031  1 */\n      0x01\n        /* \"@chainlink/contracts/src/v0.8/vendor/@ensdomains/buffer/v0.1.0/Buffer.sol\":4022:4025  len */\n      dup8\n        /* \"@chainlink/contracts/src/v0.8/vendor/@ensdomains/buffer/v0.1.0/Buffer.sol\":4017:4019  32 */\n      0x20\n        /* \"@chainlink/contracts/src/v0.8/vendor/@ensdomains/buffer/v0.1.0/Buffer.sol\":4017:4025  32 - len */\n      sub\n        /* \"@chainlink/contracts/src/v0.8/vendor/@ensdomains/buffer/v0.1.0/Buffer.sol\":4009:4012  256 */\n      0x0100\n        /* \"@chainlink/contracts/src/v0.8/vendor/@ensdomains/buffer/v0.1.0/Buffer.sol\":4009:4026  256 ** (32 - len) */\n      exp\n        /* \"@chainlink/contracts/src/v0.8/vendor/@ensdomains/buffer/v0.1.0/Buffer.sol\":4008:4031  (256 ** (32 - len)) - 1 */\n      sub\n        /* \"@chainlink/contracts/src/v0.8/vendor/@ensdomains/buffer/v0.1.0/Buffer.sol\":3996:4031  uint mask = (256 ** (32 - len)) - 1 */\n      swap1\n      pop\n        /* \"@chainlink/contracts/src/v0.8/vendor/@ensdomains/buffer/v0.1.0/Buffer.sol\":4107:4111  mask */\n      dup1\n        /* \"@chainlink/contracts/src/v0.8/vendor/@ensdomains/buffer/v0.1.0/Buffer.sol\":4103:4112  not(mask) */\n      not\n        /* \"@chainlink/contracts/src/v0.8/vendor/@ensdomains/buffer/v0.1.0/Buffer.sol\":4097:4100  src */\n      dup3\n        /* \"@chainlink/contracts/src/v0.8/vendor/@ensdomains/buffer/v0.1.0/Buffer.sol\":4091:4101  mload(src) */\n      mload\n        /* \"@chainlink/contracts/src/v0.8/vendor/@ensdomains/buffer/v0.1.0/Buffer.sol\":4087:4113  and(mload(src), not(mask)) */\n      and\n        /* \"@chainlink/contracts/src/v0.8/vendor/@ensdomains/buffer/v0.1.0/Buffer.sol\":4163:4167  mask */\n      dup2\n        /* \"@chainlink/contracts/src/v0.8/vendor/@ensdomains/buffer/v0.1.0/Buffer.sol\":4156:4160  dest */\n      dup5\n        /* \"@chainlink/contracts/src/v0.8/vendor/@ensdomains/buffer/v0.1.0/Buffer.sol\":4150:4161  mload(dest) */\n      mload\n        /* \"@chainlink/contracts/src/v0.8/vendor/@ensdomains/buffer/v0.1.0/Buffer.sol\":4146:4168  and(mload(dest), mask) */\n      and\n        /* \"@chainlink/contracts/src/v0.8/vendor/@ensdomains/buffer/v0.1.0/Buffer.sol\":4211:4218  srcpart */\n      dup2\n        /* \"@chainlink/contracts/src/v0.8/vendor/@ensdomains/buffer/v0.1.0/Buffer.sol\":4201:4209  destpart */\n      dup2\n        /* \"@chainlink/contracts/src/v0.8/vendor/@ensdomains/buffer/v0.1.0/Buffer.sol\":4198:4219  or(destpart, srcpart) */\n      or\n        /* \"@chainlink/contracts/src/v0.8/vendor/@ensdomains/buffer/v0.1.0/Buffer.sol\":4192:4196  dest */\n      dup6\n        /* \"@chainlink/contracts/src/v0.8/vendor/@ensdomains/buffer/v0.1.0/Buffer.sol\":4185:4220  mstore(dest, or(destpart, srcpart)) */\n      mstore\n        /* \"@chainlink/contracts/src/v0.8/vendor/@ensdomains/buffer/v0.1.0/Buffer.sol\":4054:4234  {... */\n      pop\n      pop\n      pop\n        /* \"@chainlink/contracts/src/v0.8/vendor/@ensdomains/buffer/v0.1.0/Buffer.sol\":4261:4264  buf */\n      dup8\n        /* \"@chainlink/contracts/src/v0.8/vendor/@ensdomains/buffer/v0.1.0/Buffer.sol\":4254:4264  return buf */\n      swap5\n      pop\n      pop\n      pop\n      pop\n      pop\n        /* \"@chainlink/contracts/src/v0.8/vendor/@ensdomains/buffer/v0.1.0/Buffer.sol\":2844:4271  function append(buffer memory buf, bytes memory data, uint len) internal pure returns(buffer memory) {... */\n      swap4\n      swap3\n      pop\n      pop\n      pop\n      jump\t// out\n        /* \"@chainlink/contracts/src/v0.8/vendor/@ensdomains/buffer/v0.1.0/Buffer.sol\":2004:2171  function resize(buffer memory buf, uint capacity) private pure {... */\n    tag_318:\n        /* \"@chainlink/contracts/src/v0.8/vendor/@ensdomains/buffer/v0.1.0/Buffer.sol\":2077:2096  bytes memory oldbuf */\n      0x00\n        /* \"@chainlink/contracts/src/v0.8/vendor/@ensdomains/buffer/v0.1.0/Buffer.sol\":2099:2102  buf */\n      dup3\n        /* \"@chainlink/contracts/src/v0.8/vendor/@ensdomains/buffer/v0.1.0/Buffer.sol\":2099:2106  buf.buf */\n      0x00\n      add\n      mload\n        /* \"@chainlink/contracts/src/v0.8/vendor/@ensdomains/buffer/v0.1.0/Buffer.sol\":2077:2106  bytes memory oldbuf = buf.buf */\n      swap1\n      pop\n        /* \"@chainlink/contracts/src/v0.8/vendor/@ensdomains/buffer/v0.1.0/Buffer.sol\":2116:2135  init(buf, capacity) */\n      tag_347\n        /* \"@chainlink/contracts/src/v0.8/vendor/@ensdomains/buffer/v0.1.0/Buffer.sol\":2121:2124  buf */\n      dup4\n        /* \"@chainlink/contracts/src/v0.8/vendor/@ensdomains/buffer/v0.1.0/Buffer.sol\":2126:2134  capacity */\n      dup4\n        /* \"@chainlink/contracts/src/v0.8/vendor/@ensdomains/buffer/v0.1.0/Buffer.sol\":2116:2120  init */\n      tag_254\n        /* \"@chainlink/contracts/src/v0.8/vendor/@ensdomains/buffer/v0.1.0/Buffer.sol\":2116:2135  init(buf, capacity) */\n      jump\t// in\n    tag_347:\n      pop\n        /* \"@chainlink/contracts/src/v0.8/vendor/@ensdomains/buffer/v0.1.0/Buffer.sol\":2145:2164  append(buf, oldbuf) */\n      tag_348\n        /* \"@chainlink/contracts/src/v0.8/vendor/@ensdomains/buffer/v0.1.0/Buffer.sol\":2152:2155  buf */\n      dup4\n        /* \"@chainlink/contracts/src/v0.8/vendor/@ensdomains/buffer/v0.1.0/Buffer.sol\":2157:2163  oldbuf */\n      dup3\n        /* \"@chainlink/contracts/src/v0.8/vendor/@ensdomains/buffer/v0.1.0/Buffer.sol\":2145:2151  append */\n      tag_259\n        /* \"@chainlink/contracts/src/v0.8/vendor/@ensdomains/buffer/v0.1.0/Buffer.sol\":2145:2164  append(buf, oldbuf) */\n      jump\t// in\n    tag_348:\n      pop\n        /* \"@chainlink/contracts/src/v0.8/vendor/@ensdomains/buffer/v0.1.0/Buffer.sol\":2067:2171  {... */\n      pop\n        /* \"@chainlink/contracts/src/v0.8/vendor/@ensdomains/buffer/v0.1.0/Buffer.sol\":2004:2171  function resize(buffer memory buf, uint capacity) private pure {... */\n      pop\n      pop\n      jump\t// out\n    tag_119:\n      mload(0x40)\n      dup1\n      0xe0\n      add\n      0x40\n      mstore\n      dup1\n      0x00\n      0x02\n      dup2\n      gt\n      iszero\n      tag_349\n      jumpi\n      tag_350\n      tag_190\n      jump\t// in\n    tag_350:\n    tag_349:\n      dup2\n      mstore\n      0x20\n      add\n      0x00\n      0x02\n      dup2\n      gt\n      iszero\n      tag_351\n      jumpi\n      tag_352\n      tag_190\n      jump\t// in\n    tag_352:\n    tag_351:\n      dup2\n      mstore\n      0x20\n      add\n      0x00\n      0x00\n      dup2\n      gt\n      iszero\n      tag_353\n      jumpi\n      tag_354\n      tag_190\n      jump\t// in\n    tag_354:\n    tag_353:\n      dup2\n      mstore\n      0x20\n      add\n      0x60\n      dup2\n      mstore\n      0x20\n      add\n      0x60\n      dup2\n      mstore\n      0x20\n      add\n      0x60\n      dup2\n      mstore\n      0x20\n      add\n      0x60\n      dup2\n      mstore\n      pop\n      swap1\n      jump\t// out\n    tag_251:\n      mload(0x40)\n      dup1\n      0x40\n      add\n      0x40\n      mstore\n      dup1\n      tag_355\n      tag_279\n      jump\t// in\n    tag_355:\n      dup2\n      mstore\n      0x20\n      add\n      0x00\n      dup2\n      mstore\n      pop\n      swap1\n      jump\t// out\n    tag_279:\n      mload(0x40)\n      dup1\n      0x40\n      add\n      0x40\n      mstore\n      dup1\n      0x60\n      dup2\n      mstore\n      0x20\n      add\n      0x00\n      dup2\n      mstore\n      pop\n      swap1\n      jump\t// out\n        /* \"#utility.yul\":7:108   */\n    tag_356:\n        /* \"#utility.yul\":43:50   */\n      0x00\n        /* \"#utility.yul\":83:101   */\n      0xffffffffffffffff\n        /* \"#utility.yul\":76:81   */\n      dup3\n        /* \"#utility.yul\":72:102   */\n      and\n        /* \"#utility.yul\":61:102   */\n      swap1\n      pop\n        /* \"#utility.yul\":7:108   */\n      swap2\n      swap1\n      pop\n      jump\t// out\n        /* \"#utility.yul\":114:229   */\n    tag_357:\n        /* \"#utility.yul\":199:222   */\n      tag_431\n        /* \"#utility.yul\":216:221   */\n      dup2\n        /* \"#utility.yul\":199:222   */\n      tag_356\n      jump\t// in\n    tag_431:\n        /* \"#utility.yul\":194:197   */\n      dup3\n        /* \"#utility.yul\":187:223   */\n      mstore\n        /* \"#utility.yul\":114:229   */\n      pop\n      pop\n      jump\t// out\n        /* \"#utility.yul\":235:453   */\n    tag_23:\n        /* \"#utility.yul\":326:330   */\n      0x00\n        /* \"#utility.yul\":364:366   */\n      0x20\n        /* \"#utility.yul\":353:362   */\n      dup3\n        /* \"#utility.yul\":349:367   */\n      add\n        /* \"#utility.yul\":341:367   */\n      swap1\n      pop\n        /* \"#utility.yul\":377:446   */\n      tag_433\n        /* \"#utility.yul\":443:444   */\n      0x00\n        /* \"#utility.yul\":432:441   */\n      dup4\n        /* \"#utility.yul\":428:445   */\n      add\n        /* \"#utility.yul\":419:425   */\n      dup5\n        /* \"#utility.yul\":377:446   */\n      tag_357\n      jump\t// in\n    tag_433:\n        /* \"#utility.yul\":235:453   */\n      swap3\n      swap2\n      pop\n      pop\n      jump\t// out\n        /* \"#utility.yul\":459:534   */\n    tag_358:\n        /* \"#utility.yul\":492:498   */\n      0x00\n        /* \"#utility.yul\":525:527   */\n      0x40\n        /* \"#utility.yul\":519:528   */\n      mload\n        /* \"#utility.yul\":509:528   */\n      swap1\n      pop\n        /* \"#utility.yul\":459:534   */\n      swap1\n      jump\t// out\n        /* \"#utility.yul\":540:657   */\n    tag_359:\n        /* \"#utility.yul\":649:650   */\n      0x00\n        /* \"#utility.yul\":646:647   */\n      0x00\n        /* \"#utility.yul\":639:651   */\n      revert\n        /* \"#utility.yul\":663:780   */\n    tag_360:\n        /* \"#utility.yul\":772:773   */\n      0x00\n        /* \"#utility.yul\":769:770   */\n      0x00\n        /* \"#utility.yul\":762:774   */\n      revert\n        /* \"#utility.yul\":786:863   */\n    tag_361:\n        /* \"#utility.yul\":823:830   */\n      0x00\n        /* \"#utility.yul\":852:857   */\n      dup2\n        /* \"#utility.yul\":841:857   */\n      swap1\n      pop\n        /* \"#utility.yul\":786:863   */\n      swap2\n      swap1\n      pop\n      jump\t// out\n        /* \"#utility.yul\":869:991   */\n    tag_362:\n        /* \"#utility.yul\":942:966   */\n      tag_439\n        /* \"#utility.yul\":960:965   */\n      dup2\n        /* \"#utility.yul\":942:966   */\n      tag_361\n      jump\t// in\n    tag_439:\n        /* \"#utility.yul\":935:940   */\n      dup2\n        /* \"#utility.yul\":932:967   */\n      eq\n        /* \"#utility.yul\":922:985   */\n      tag_440\n      jumpi\n        /* \"#utility.yul\":981:982   */\n      0x00\n        /* \"#utility.yul\":978:979   */\n      0x00\n        /* \"#utility.yul\":971:983   */\n      revert\n        /* \"#utility.yul\":922:985   */\n    tag_440:\n        /* \"#utility.yul\":869:991   */\n      pop\n      jump\t// out\n        /* \"#utility.yul\":997:1136   */\n    tag_363:\n        /* \"#utility.yul\":1043:1048   */\n      0x00\n        /* \"#utility.yul\":1081:1087   */\n      dup2\n        /* \"#utility.yul\":1068:1088   */\n      calldataload\n        /* \"#utility.yul\":1059:1088   */\n      swap1\n      pop\n        /* \"#utility.yul\":1097:1130   */\n      tag_442\n        /* \"#utility.yul\":1124:1129   */\n      dup2\n        /* \"#utility.yul\":1097:1130   */\n      tag_362\n      jump\t// in\n    tag_442:\n        /* \"#utility.yul\":997:1136   */\n      swap3\n      swap2\n      pop\n      pop\n      jump\t// out\n        /* \"#utility.yul\":1142:1259   */\n    tag_364:\n        /* \"#utility.yul\":1251:1252   */\n      0x00\n        /* \"#utility.yul\":1248:1249   */\n      0x00\n        /* \"#utility.yul\":1241:1253   */\n      revert\n        /* \"#utility.yul\":1265:1382   */\n    tag_365:\n        /* \"#utility.yul\":1374:1375   */\n      0x00\n        /* \"#utility.yul\":1371:1372   */\n      0x00\n        /* \"#utility.yul\":1364:1376   */\n      revert\n        /* \"#utility.yul\":1388:1490   */\n    tag_366:\n        /* \"#utility.yul\":1429:1435   */\n      0x00\n        /* \"#utility.yul\":1480:1482   */\n      0x1f\n        /* \"#utility.yul\":1476:1483   */\n      not\n        /* \"#utility.yul\":1471:1473   */\n      0x1f\n        /* \"#utility.yul\":1464:1469   */\n      dup4\n        /* \"#utility.yul\":1460:1474   */\n      add\n        /* \"#utility.yul\":1456:1484   */\n      and\n        /* \"#utility.yul\":1446:1484   */\n      swap1\n      pop\n        /* \"#utility.yul\":1388:1490   */\n      swap2\n      swap1\n      pop\n      jump\t// out\n        /* \"#utility.yul\":1496:1676   */\n    tag_112:\n        /* \"#utility.yul\":1544:1621   */\n      0x4e487b7100000000000000000000000000000000000000000000000000000000\n        /* \"#utility.yul\":1541:1542   */\n      0x00\n        /* \"#utility.yul\":1534:1622   */\n      mstore\n        /* \"#utility.yul\":1641:1645   */\n      0x41\n        /* \"#utility.yul\":1638:1639   */\n      0x04\n        /* \"#utility.yul\":1631:1646   */\n      mstore\n        /* \"#utility.yul\":1665:1669   */\n      0x24\n        /* \"#utility.yul\":1662:1663   */\n      0x00\n        /* \"#utility.yul\":1655:1670   */\n      revert\n        /* \"#utility.yul\":1682:1963   */\n    tag_367:\n        /* \"#utility.yul\":1765:1792   */\n      tag_448\n        /* \"#utility.yul\":1787:1791   */\n      dup3\n        /* \"#utility.yul\":1765:1792   */\n      tag_366\n      jump\t// in\n    tag_448:\n        /* \"#utility.yul\":1757:1763   */\n      dup2\n        /* \"#utility.yul\":1753:1793   */\n      add\n        /* \"#utility.yul\":1895:1901   */\n      dup2\n        /* \"#utility.yul\":1883:1893   */\n      dup2\n        /* \"#utility.yul\":1880:1902   */\n      lt\n        /* \"#utility.yul\":1859:1877   */\n      0xffffffffffffffff\n        /* \"#utility.yul\":1847:1857   */\n      dup3\n        /* \"#utility.yul\":1844:1878   */\n      gt\n        /* \"#utility.yul\":1841:1903   */\n      or\n        /* \"#utility.yul\":1838:1926   */\n      iszero\n      tag_449\n      jumpi\n        /* \"#utility.yul\":1906:1924   */\n      tag_450\n      tag_112\n      jump\t// in\n    tag_450:\n        /* \"#utility.yul\":1838:1926   */\n    tag_449:\n        /* \"#utility.yul\":1946:1956   */\n      dup1\n        /* \"#utility.yul\":1942:1944   */\n      0x40\n        /* \"#utility.yul\":1935:1957   */\n      mstore\n        /* \"#utility.yul\":1725:1963   */\n      pop\n        /* \"#utility.yul\":1682:1963   */\n      pop\n      pop\n      jump\t// out\n        /* \"#utility.yul\":1969:2098   */\n    tag_368:\n        /* \"#utility.yul\":2003:2009   */\n      0x00\n        /* \"#utility.yul\":2030:2050   */\n      tag_452\n      tag_358\n      jump\t// in\n    tag_452:\n        /* \"#utility.yul\":2020:2050   */\n      swap1\n      pop\n        /* \"#utility.yul\":2059:2092   */\n      tag_453\n        /* \"#utility.yul\":2087:2091   */\n      dup3\n        /* \"#utility.yul\":2079:2085   */\n      dup3\n        /* \"#utility.yul\":2059:2092   */\n      tag_367\n      jump\t// in\n    tag_453:\n        /* \"#utility.yul\":1969:2098   */\n      swap2\n      swap1\n      pop\n      jump\t// out\n        /* \"#utility.yul\":2104:2411   */\n    tag_369:\n        /* \"#utility.yul\":2165:2169   */\n      0x00\n        /* \"#utility.yul\":2255:2273   */\n      0xffffffffffffffff\n        /* \"#utility.yul\":2247:2253   */\n      dup3\n        /* \"#utility.yul\":2244:2274   */\n      gt\n        /* \"#utility.yul\":2241:2297   */\n      iszero\n      tag_455\n      jumpi\n        /* \"#utility.yul\":2277:2295   */\n      tag_456\n      tag_112\n      jump\t// in\n    tag_456:\n        /* \"#utility.yul\":2241:2297   */\n    tag_455:\n        /* \"#utility.yul\":2315:2344   */\n      tag_457\n        /* \"#utility.yul\":2337:2343   */\n      dup3\n        /* \"#utility.yul\":2315:2344   */\n      tag_366\n      jump\t// in\n    tag_457:\n        /* \"#utility.yul\":2307:2344   */\n      swap1\n      pop\n        /* \"#utility.yul\":2399:2403   */\n      0x20\n        /* \"#utility.yul\":2393:2397   */\n      dup2\n        /* \"#utility.yul\":2389:2404   */\n      add\n        /* \"#utility.yul\":2381:2404   */\n      swap1\n      pop\n        /* \"#utility.yul\":2104:2411   */\n      swap2\n      swap1\n      pop\n      jump\t// out\n        /* \"#utility.yul\":2417:2565   */\n    tag_370:\n        /* \"#utility.yul\":2515:2521   */\n      dup3\n        /* \"#utility.yul\":2510:2513   */\n      dup2\n        /* \"#utility.yul\":2505:2508   */\n      dup4\n        /* \"#utility.yul\":2492:2522   */\n      calldatacopy\n        /* \"#utility.yul\":2556:2557   */\n      0x00\n        /* \"#utility.yul\":2547:2553   */\n      dup4\n        /* \"#utility.yul\":2542:2545   */\n      dup4\n        /* \"#utility.yul\":2538:2554   */\n      add\n        /* \"#utility.yul\":2531:2558   */\n      mstore\n        /* \"#utility.yul\":2417:2565   */\n      pop\n      pop\n      pop\n      jump\t// out\n        /* \"#utility.yul\":2571:2994   */\n    tag_371:\n        /* \"#utility.yul\":2648:2653   */\n      0x00\n        /* \"#utility.yul\":2673:2738   */\n      tag_460\n        /* \"#utility.yul\":2689:2737   */\n      tag_461\n        /* \"#utility.yul\":2730:2736   */\n      dup5\n        /* \"#utility.yul\":2689:2737   */\n      tag_369\n      jump\t// in\n    tag_461:\n        /* \"#utility.yul\":2673:2738   */\n      tag_368\n      jump\t// in\n    tag_460:\n        /* \"#utility.yul\":2664:2738   */\n      swap1\n      pop\n        /* \"#utility.yul\":2761:2767   */\n      dup3\n        /* \"#utility.yul\":2754:2759   */\n      dup2\n        /* \"#utility.yul\":2747:2768   */\n      mstore\n        /* \"#utility.yul\":2799:2803   */\n      0x20\n        /* \"#utility.yul\":2792:2797   */\n      dup2\n        /* \"#utility.yul\":2788:2804   */\n      add\n        /* \"#utility.yul\":2837:2840   */\n      dup5\n        /* \"#utility.yul\":2828:2834   */\n      dup5\n        /* \"#utility.yul\":2823:2826   */\n      dup5\n        /* \"#utility.yul\":2819:2835   */\n      add\n        /* \"#utility.yul\":2816:2841   */\n      gt\n        /* \"#utility.yul\":2813:2925   */\n      iszero\n      tag_462\n      jumpi\n        /* \"#utility.yul\":2844:2923   */\n      tag_463\n      tag_365\n      jump\t// in\n    tag_463:\n        /* \"#utility.yul\":2813:2925   */\n    tag_462:\n        /* \"#utility.yul\":2934:2988   */\n      tag_464\n        /* \"#utility.yul\":2981:2987   */\n      dup5\n        /* \"#utility.yul\":2976:2979   */\n      dup3\n        /* \"#utility.yul\":2971:2974   */\n      dup6\n        /* \"#utility.yul\":2934:2988   */\n      tag_370\n      jump\t// in\n    tag_464:\n        /* \"#utility.yul\":2654:2994   */\n      pop\n        /* \"#utility.yul\":2571:2994   */\n      swap4\n      swap3\n      pop\n      pop\n      pop\n      jump\t// out\n        /* \"#utility.yul\":3013:3351   */\n    tag_372:\n        /* \"#utility.yul\":3068:3073   */\n      0x00\n        /* \"#utility.yul\":3117:3120   */\n      dup3\n        /* \"#utility.yul\":3110:3114   */\n      0x1f\n        /* \"#utility.yul\":3102:3108   */\n      dup4\n        /* \"#utility.yul\":3098:3115   */\n      add\n        /* \"#utility.yul\":3094:3121   */\n      slt\n        /* \"#utility.yul\":3084:3206   */\n      tag_466\n      jumpi\n        /* \"#utility.yul\":3125:3204   */\n      tag_467\n      tag_364\n      jump\t// in\n    tag_467:\n        /* \"#utility.yul\":3084:3206   */\n    tag_466:\n        /* \"#utility.yul\":3242:3248   */\n      dup2\n        /* \"#utility.yul\":3229:3249   */\n      calldataload\n        /* \"#utility.yul\":3267:3345   */\n      tag_468\n        /* \"#utility.yul\":3341:3344   */\n      dup5\n        /* \"#utility.yul\":3333:3339   */\n      dup3\n        /* \"#utility.yul\":3326:3330   */\n      0x20\n        /* \"#utility.yul\":3318:3324   */\n      dup7\n        /* \"#utility.yul\":3314:3331   */\n      add\n        /* \"#utility.yul\":3267:3345   */\n      tag_371\n      jump\t// in\n    tag_468:\n        /* \"#utility.yul\":3258:3345   */\n      swap2\n      pop\n        /* \"#utility.yul\":3074:3351   */\n      pop\n        /* \"#utility.yul\":3013:3351   */\n      swap3\n      swap2\n      pop\n      pop\n      jump\t// out\n        /* \"#utility.yul\":3357:4332   */\n    tag_26:\n        /* \"#utility.yul\":3452:3458   */\n      0x00\n        /* \"#utility.yul\":3460:3466   */\n      0x00\n        /* \"#utility.yul\":3468:3474   */\n      0x00\n        /* \"#utility.yul\":3517:3519   */\n      0x60\n        /* \"#utility.yul\":3505:3514   */\n      dup5\n        /* \"#utility.yul\":3496:3503   */\n      dup7\n        /* \"#utility.yul\":3492:3515   */\n      sub\n        /* \"#utility.yul\":3488:3520   */\n      slt\n        /* \"#utility.yul\":3485:3604   */\n      iszero\n      tag_470\n      jumpi\n        /* \"#utility.yul\":3523:3602   */\n      tag_471\n      tag_359\n      jump\t// in\n    tag_471:\n        /* \"#utility.yul\":3485:3604   */\n    tag_470:\n        /* \"#utility.yul\":3643:3644   */\n      0x00\n        /* \"#utility.yul\":3668:3721   */\n      tag_472\n        /* \"#utility.yul\":3713:3720   */\n      dup7\n        /* \"#utility.yul\":3704:3710   */\n      dup3\n        /* \"#utility.yul\":3693:3702   */\n      dup8\n        /* \"#utility.yul\":3689:3711   */\n      add\n        /* \"#utility.yul\":3668:3721   */\n      tag_363\n      jump\t// in\n    tag_472:\n        /* \"#utility.yul\":3658:3721   */\n      swap4\n      pop\n        /* \"#utility.yul\":3614:3731   */\n      pop\n        /* \"#utility.yul\":3798:3800   */\n      0x20\n        /* \"#utility.yul\":3787:3796   */\n      dup5\n        /* \"#utility.yul\":3783:3801   */\n      add\n        /* \"#utility.yul\":3770:3802   */\n      calldataload\n        /* \"#utility.yul\":3829:3847   */\n      0xffffffffffffffff\n        /* \"#utility.yul\":3821:3827   */\n      dup2\n        /* \"#utility.yul\":3818:3848   */\n      gt\n        /* \"#utility.yul\":3815:3932   */\n      iszero\n      tag_473\n      jumpi\n        /* \"#utility.yul\":3851:3930   */\n      tag_474\n      tag_360\n      jump\t// in\n    tag_474:\n        /* \"#utility.yul\":3815:3932   */\n    tag_473:\n        /* \"#utility.yul\":3956:4018   */\n      tag_475\n        /* \"#utility.yul\":4010:4017   */\n      dup7\n        /* \"#utility.yul\":4001:4007   */\n      dup3\n        /* \"#utility.yul\":3990:3999   */\n      dup8\n        /* \"#utility.yul\":3986:4008   */\n      add\n        /* \"#utility.yul\":3956:4018   */\n      tag_372\n      jump\t// in\n    tag_475:\n        /* \"#utility.yul\":3946:4018   */\n      swap3\n      pop\n        /* \"#utility.yul\":3741:4028   */\n      pop\n        /* \"#utility.yul\":4095:4097   */\n      0x40\n        /* \"#utility.yul\":4084:4093   */\n      dup5\n        /* \"#utility.yul\":4080:4098   */\n      add\n        /* \"#utility.yul\":4067:4099   */\n      calldataload\n        /* \"#utility.yul\":4126:4144   */\n      0xffffffffffffffff\n        /* \"#utility.yul\":4118:4124   */\n      dup2\n        /* \"#utility.yul\":4115:4145   */\n      gt\n        /* \"#utility.yul\":4112:4229   */\n      iszero\n      tag_476\n      jumpi\n        /* \"#utility.yul\":4148:4227   */\n      tag_477\n      tag_360\n      jump\t// in\n    tag_477:\n        /* \"#utility.yul\":4112:4229   */\n    tag_476:\n        /* \"#utility.yul\":4253:4315   */\n      tag_478\n        /* \"#utility.yul\":4307:4314   */\n      dup7\n        /* \"#utility.yul\":4298:4304   */\n      dup3\n        /* \"#utility.yul\":4287:4296   */\n      dup8\n        /* \"#utility.yul\":4283:4305   */\n      add\n        /* \"#utility.yul\":4253:4315   */\n      tag_372\n      jump\t// in\n    tag_478:\n        /* \"#utility.yul\":4243:4315   */\n      swap2\n      pop\n        /* \"#utility.yul\":4038:4325   */\n      pop\n        /* \"#utility.yul\":3357:4332   */\n      swap3\n      pop\n      swap3\n      pop\n      swap3\n      jump\t// out\n        /* \"#utility.yul\":4338:4464   */\n    tag_373:\n        /* \"#utility.yul\":4375:4382   */\n      0x00\n        /* \"#utility.yul\":4415:4457   */\n      0xffffffffffffffffffffffffffffffffffffffff\n        /* \"#utility.yul\":4408:4413   */\n      dup3\n        /* \"#utility.yul\":4404:4458   */\n      and\n        /* \"#utility.yul\":4393:4458   */\n      swap1\n      pop\n        /* \"#utility.yul\":4338:4464   */\n      swap2\n      swap1\n      pop\n      jump\t// out\n        /* \"#utility.yul\":4470:4566   */\n    tag_374:\n        /* \"#utility.yul\":4507:4514   */\n      0x00\n        /* \"#utility.yul\":4536:4560   */\n      tag_481\n        /* \"#utility.yul\":4554:4559   */\n      dup3\n        /* \"#utility.yul\":4536:4560   */\n      tag_373\n      jump\t// in\n    tag_481:\n        /* \"#utility.yul\":4525:4560   */\n      swap1\n      pop\n        /* \"#utility.yul\":4470:4566   */\n      swap2\n      swap1\n      pop\n      jump\t// out\n        /* \"#utility.yul\":4572:4690   */\n    tag_375:\n        /* \"#utility.yul\":4659:4683   */\n      tag_483\n        /* \"#utility.yul\":4677:4682   */\n      dup2\n        /* \"#utility.yul\":4659:4683   */\n      tag_374\n      jump\t// in\n    tag_483:\n        /* \"#utility.yul\":4654:4657   */\n      dup3\n        /* \"#utility.yul\":4647:4684   */\n      mstore\n        /* \"#utility.yul\":4572:4690   */\n      pop\n      pop\n      jump\t// out\n        /* \"#utility.yul\":4696:4918   */\n    tag_31:\n        /* \"#utility.yul\":4789:4793   */\n      0x00\n        /* \"#utility.yul\":4827:4829   */\n      0x20\n        /* \"#utility.yul\":4816:4825   */\n      dup3\n        /* \"#utility.yul\":4812:4830   */\n      add\n        /* \"#utility.yul\":4804:4830   */\n      swap1\n      pop\n        /* \"#utility.yul\":4840:4911   */\n      tag_485\n        /* \"#utility.yul\":4908:4909   */\n      0x00\n        /* \"#utility.yul\":4897:4906   */\n      dup4\n        /* \"#utility.yul\":4893:4910   */\n      add\n        /* \"#utility.yul\":4884:4890   */\n      dup5\n        /* \"#utility.yul\":4840:4911   */\n      tag_375\n      jump\t// in\n    tag_485:\n        /* \"#utility.yul\":4696:4918   */\n      swap3\n      swap2\n      pop\n      pop\n      jump\t// out\n        /* \"#utility.yul\":4924:5022   */\n    tag_376:\n        /* \"#utility.yul\":4975:4981   */\n      0x00\n        /* \"#utility.yul\":5009:5014   */\n      dup2\n        /* \"#utility.yul\":5003:5015   */\n      mload\n        /* \"#utility.yul\":4993:5015   */\n      swap1\n      pop\n        /* \"#utility.yul\":4924:5022   */\n      swap2\n      swap1\n      pop\n      jump\t// out\n        /* \"#utility.yul\":5028:5196   */\n    tag_377:\n        /* \"#utility.yul\":5111:5122   */\n      0x00\n        /* \"#utility.yul\":5145:5151   */\n      dup3\n        /* \"#utility.yul\":5140:5143   */\n      dup3\n        /* \"#utility.yul\":5133:5152   */\n      mstore\n        /* \"#utility.yul\":5185:5189   */\n      0x20\n        /* \"#utility.yul\":5180:5183   */\n      dup3\n        /* \"#utility.yul\":5176:5190   */\n      add\n        /* \"#utility.yul\":5161:5190   */\n      swap1\n      pop\n        /* \"#utility.yul\":5028:5196   */\n      swap3\n      swap2\n      pop\n      pop\n      jump\t// out\n        /* \"#utility.yul\":5202:5341   */\n    tag_378:\n        /* \"#utility.yul\":5291:5297   */\n      dup3\n        /* \"#utility.yul\":5286:5289   */\n      dup2\n        /* \"#utility.yul\":5281:5284   */\n      dup4\n        /* \"#utility.yul\":5275:5298   */\n      mcopy\n        /* \"#utility.yul\":5332:5333   */\n      0x00\n        /* \"#utility.yul\":5323:5329   */\n      dup4\n        /* \"#utility.yul\":5318:5321   */\n      dup4\n        /* \"#utility.yul\":5314:5330   */\n      add\n        /* \"#utility.yul\":5307:5334   */\n      mstore\n        /* \"#utility.yul\":5202:5341   */\n      pop\n      pop\n      pop\n      jump\t// out\n        /* \"#utility.yul\":5347:5720   */\n    tag_379:\n        /* \"#utility.yul\":5433:5436   */\n      0x00\n        /* \"#utility.yul\":5461:5499   */\n      tag_490\n        /* \"#utility.yul\":5493:5498   */\n      dup3\n        /* \"#utility.yul\":5461:5499   */\n      tag_376\n      jump\t// in\n    tag_490:\n        /* \"#utility.yul\":5515:5585   */\n      tag_491\n        /* \"#utility.yul\":5578:5584   */\n      dup2\n        /* \"#utility.yul\":5573:5576   */\n      dup6\n        /* \"#utility.yul\":5515:5585   */\n      tag_377\n      jump\t// in\n    tag_491:\n        /* \"#utility.yul\":5508:5585   */\n      swap4\n      pop\n        /* \"#utility.yul\":5594:5659   */\n      tag_492\n        /* \"#utility.yul\":5652:5658   */\n      dup2\n        /* \"#utility.yul\":5647:5650   */\n      dup6\n        /* \"#utility.yul\":5640:5644   */\n      0x20\n        /* \"#utility.yul\":5633:5638   */\n      dup7\n        /* \"#utility.yul\":5629:5645   */\n      add\n        /* \"#utility.yul\":5594:5659   */\n      tag_378\n      jump\t// in\n    tag_492:\n        /* \"#utility.yul\":5684:5713   */\n      tag_493\n        /* \"#utility.yul\":5706:5712   */\n      dup2\n        /* \"#utility.yul\":5684:5713   */\n      tag_366\n      jump\t// in\n    tag_493:\n        /* \"#utility.yul\":5679:5682   */\n      dup5\n        /* \"#utility.yul\":5675:5714   */\n      add\n        /* \"#utility.yul\":5668:5714   */\n      swap2\n      pop\n        /* \"#utility.yul\":5437:5720   */\n      pop\n        /* \"#utility.yul\":5347:5720   */\n      swap3\n      swap2\n      pop\n      pop\n      jump\t// out\n        /* \"#utility.yul\":5726:6035   */\n    tag_35:\n        /* \"#utility.yul\":5837:5841   */\n      0x00\n        /* \"#utility.yul\":5875:5877   */\n      0x20\n        /* \"#utility.yul\":5864:5873   */\n      dup3\n        /* \"#utility.yul\":5860:5878   */\n      add\n        /* \"#utility.yul\":5852:5878   */\n      swap1\n      pop\n        /* \"#utility.yul\":5924:5933   */\n      dup2\n        /* \"#utility.yul\":5918:5922   */\n      dup2\n        /* \"#utility.yul\":5914:5934   */\n      sub\n        /* \"#utility.yul\":5910:5911   */\n      0x00\n        /* \"#utility.yul\":5899:5908   */\n      dup4\n        /* \"#utility.yul\":5895:5912   */\n      add\n        /* \"#utility.yul\":5888:5935   */\n      mstore\n        /* \"#utility.yul\":5952:6028   */\n      tag_495\n        /* \"#utility.yul\":6023:6027   */\n      dup2\n        /* \"#utility.yul\":6014:6020   */\n      dup5\n        /* \"#utility.yul\":5952:6028   */\n      tag_379\n      jump\t// in\n    tag_495:\n        /* \"#utility.yul\":5944:6028   */\n      swap1\n      pop\n        /* \"#utility.yul\":5726:6035   */\n      swap3\n      swap2\n      pop\n      pop\n      jump\t// out\n        /* \"#utility.yul\":6041:6163   */\n    tag_380:\n        /* \"#utility.yul\":6114:6138   */\n      tag_497\n        /* \"#utility.yul\":6132:6137   */\n      dup2\n        /* \"#utility.yul\":6114:6138   */\n      tag_374\n      jump\t// in\n    tag_497:\n        /* \"#utility.yul\":6107:6112   */\n      dup2\n        /* \"#utility.yul\":6104:6139   */\n      eq\n        /* \"#utility.yul\":6094:6157   */\n      tag_498\n      jumpi\n        /* \"#utility.yul\":6153:6154   */\n      0x00\n        /* \"#utility.yul\":6150:6151   */\n      0x00\n        /* \"#utility.yul\":6143:6155   */\n      revert\n        /* \"#utility.yul\":6094:6157   */\n    tag_498:\n        /* \"#utility.yul\":6041:6163   */\n      pop\n      jump\t// out\n        /* \"#utility.yul\":6169:6308   */\n    tag_381:\n        /* \"#utility.yul\":6215:6220   */\n      0x00\n        /* \"#utility.yul\":6253:6259   */\n      dup2\n        /* \"#utility.yul\":6240:6260   */\n      calldataload\n        /* \"#utility.yul\":6231:6260   */\n      swap1\n      pop\n        /* \"#utility.yul\":6269:6302   */\n      tag_500\n        /* \"#utility.yul\":6296:6301   */\n      dup2\n        /* \"#utility.yul\":6269:6302   */\n      tag_380\n      jump\t// in\n    tag_500:\n        /* \"#utility.yul\":6169:6308   */\n      swap3\n      swap2\n      pop\n      pop\n      jump\t// out\n        /* \"#utility.yul\":6314:6643   */\n    tag_38:\n        /* \"#utility.yul\":6373:6379   */\n      0x00\n        /* \"#utility.yul\":6422:6424   */\n      0x20\n        /* \"#utility.yul\":6410:6419   */\n      dup3\n        /* \"#utility.yul\":6401:6408   */\n      dup5\n        /* \"#utility.yul\":6397:6420   */\n      sub\n        /* \"#utility.yul\":6393:6425   */\n      slt\n        /* \"#utility.yul\":6390:6509   */\n      iszero\n      tag_502\n      jumpi\n        /* \"#utility.yul\":6428:6507   */\n      tag_503\n      tag_359\n      jump\t// in\n    tag_503:\n        /* \"#utility.yul\":6390:6509   */\n    tag_502:\n        /* \"#utility.yul\":6548:6549   */\n      0x00\n        /* \"#utility.yul\":6573:6626   */\n      tag_504\n        /* \"#utility.yul\":6618:6625   */\n      dup5\n        /* \"#utility.yul\":6609:6615   */\n      dup3\n        /* \"#utility.yul\":6598:6607   */\n      dup6\n        /* \"#utility.yul\":6594:6616   */\n      add\n        /* \"#utility.yul\":6573:6626   */\n      tag_381\n      jump\t// in\n    tag_504:\n        /* \"#utility.yul\":6563:6626   */\n      swap2\n      pop\n        /* \"#utility.yul\":6519:6636   */\n      pop\n        /* \"#utility.yul\":6314:6643   */\n      swap3\n      swap2\n      pop\n      pop\n      jump\t// out\n        /* \"#utility.yul\":6649:6748   */\n    tag_382:\n        /* \"#utility.yul\":6701:6707   */\n      0x00\n        /* \"#utility.yul\":6735:6740   */\n      dup2\n        /* \"#utility.yul\":6729:6741   */\n      mload\n        /* \"#utility.yul\":6719:6741   */\n      swap1\n      pop\n        /* \"#utility.yul\":6649:6748   */\n      swap2\n      swap1\n      pop\n      jump\t// out\n        /* \"#utility.yul\":6754:6923   */\n    tag_383:\n        /* \"#utility.yul\":6838:6849   */\n      0x00\n        /* \"#utility.yul\":6872:6878   */\n      dup3\n        /* \"#utility.yul\":6867:6870   */\n      dup3\n        /* \"#utility.yul\":6860:6879   */\n      mstore\n        /* \"#utility.yul\":6912:6916   */\n      0x20\n        /* \"#utility.yul\":6907:6910   */\n      dup3\n        /* \"#utility.yul\":6903:6917   */\n      add\n        /* \"#utility.yul\":6888:6917   */\n      swap1\n      pop\n        /* \"#utility.yul\":6754:6923   */\n      swap3\n      swap2\n      pop\n      pop\n      jump\t// out\n        /* \"#utility.yul\":6929:7306   */\n    tag_384:\n        /* \"#utility.yul\":7017:7020   */\n      0x00\n        /* \"#utility.yul\":7045:7084   */\n      tag_508\n        /* \"#utility.yul\":7078:7083   */\n      dup3\n        /* \"#utility.yul\":7045:7084   */\n      tag_382\n      jump\t// in\n    tag_508:\n        /* \"#utility.yul\":7100:7171   */\n      tag_509\n        /* \"#utility.yul\":7164:7170   */\n      dup2\n        /* \"#utility.yul\":7159:7162   */\n      dup6\n        /* \"#utility.yul\":7100:7171   */\n      tag_383\n      jump\t// in\n    tag_509:\n        /* \"#utility.yul\":7093:7171   */\n      swap4\n      pop\n        /* \"#utility.yul\":7180:7245   */\n      tag_510\n        /* \"#utility.yul\":7238:7244   */\n      dup2\n        /* \"#utility.yul\":7233:7236   */\n      dup6\n        /* \"#utility.yul\":7226:7230   */\n      0x20\n        /* \"#utility.yul\":7219:7224   */\n      dup7\n        /* \"#utility.yul\":7215:7231   */\n      add\n        /* \"#utility.yul\":7180:7245   */\n      tag_378\n      jump\t// in\n    tag_510:\n        /* \"#utility.yul\":7270:7299   */\n      tag_511\n        /* \"#utility.yul\":7292:7298   */\n      dup2\n        /* \"#utility.yul\":7270:7299   */\n      tag_366\n      jump\t// in\n    tag_511:\n        /* \"#utility.yul\":7265:7268   */\n      dup5\n        /* \"#utility.yul\":7261:7300   */\n      add\n        /* \"#utility.yul\":7254:7300   */\n      swap2\n      pop\n        /* \"#utility.yul\":7021:7306   */\n      pop\n        /* \"#utility.yul\":6929:7306   */\n      swap3\n      swap2\n      pop\n      pop\n      jump\t// out\n        /* \"#utility.yul\":7312:7389   */\n    tag_385:\n        /* \"#utility.yul\":7349:7356   */\n      0x00\n        /* \"#utility.yul\":7378:7383   */\n      dup2\n        /* \"#utility.yul\":7367:7383   */\n      swap1\n      pop\n        /* \"#utility.yul\":7312:7389   */\n      swap2\n      swap1\n      pop\n      jump\t// out\n        /* \"#utility.yul\":7395:7513   */\n    tag_386:\n        /* \"#utility.yul\":7482:7506   */\n      tag_514\n        /* \"#utility.yul\":7500:7505   */\n      dup2\n        /* \"#utility.yul\":7482:7506   */\n      tag_385\n      jump\t// in\n    tag_514:\n        /* \"#utility.yul\":7477:7480   */\n      dup3\n        /* \"#utility.yul\":7470:7507   */\n      mstore\n        /* \"#utility.yul\":7395:7513   */\n      pop\n      pop\n      jump\t// out\n        /* \"#utility.yul\":7519:8143   */\n    tag_41:\n        /* \"#utility.yul\":7708:7712   */\n      0x00\n        /* \"#utility.yul\":7746:7748   */\n      0x60\n        /* \"#utility.yul\":7735:7744   */\n      dup3\n        /* \"#utility.yul\":7731:7749   */\n      add\n        /* \"#utility.yul\":7723:7749   */\n      swap1\n      pop\n        /* \"#utility.yul\":7795:7804   */\n      dup2\n        /* \"#utility.yul\":7789:7793   */\n      dup2\n        /* \"#utility.yul\":7785:7805   */\n      sub\n        /* \"#utility.yul\":7781:7782   */\n      0x00\n        /* \"#utility.yul\":7770:7779   */\n      dup4\n        /* \"#utility.yul\":7766:7783   */\n      add\n        /* \"#utility.yul\":7759:7806   */\n      mstore\n        /* \"#utility.yul\":7823:7901   */\n      tag_516\n        /* \"#utility.yul\":7896:7900   */\n      dup2\n        /* \"#utility.yul\":7887:7893   */\n      dup7\n        /* \"#utility.yul\":7823:7901   */\n      tag_384\n      jump\t// in\n    tag_516:\n        /* \"#utility.yul\":7815:7901   */\n      swap1\n      pop\n        /* \"#utility.yul\":7948:7957   */\n      dup2\n        /* \"#utility.yul\":7942:7946   */\n      dup2\n        /* \"#utility.yul\":7938:7958   */\n      sub\n        /* \"#utility.yul\":7933:7935   */\n      0x20\n        /* \"#utility.yul\":7922:7931   */\n      dup4\n        /* \"#utility.yul\":7918:7936   */\n      add\n        /* \"#utility.yul\":7911:7959   */\n      mstore\n        /* \"#utility.yul\":7976:8054   */\n      tag_517\n        /* \"#utility.yul\":8049:8053   */\n      dup2\n        /* \"#utility.yul\":8040:8046   */\n      dup6\n        /* \"#utility.yul\":7976:8054   */\n      tag_384\n      jump\t// in\n    tag_517:\n        /* \"#utility.yul\":7968:8054   */\n      swap1\n      pop\n        /* \"#utility.yul\":8064:8136   */\n      tag_518\n        /* \"#utility.yul\":8132:8134   */\n      0x40\n        /* \"#utility.yul\":8121:8130   */\n      dup4\n        /* \"#utility.yul\":8117:8135   */\n      add\n        /* \"#utility.yul\":8108:8114   */\n      dup5\n        /* \"#utility.yul\":8064:8136   */\n      tag_386\n      jump\t// in\n    tag_518:\n        /* \"#utility.yul\":7519:8143   */\n      swap5\n      swap4\n      pop\n      pop\n      pop\n      pop\n      jump\t// out\n        /* \"#utility.yul\":8149:8462   */\n    tag_48:\n        /* \"#utility.yul\":8262:8266   */\n      0x00\n        /* \"#utility.yul\":8300:8302   */\n      0x20\n        /* \"#utility.yul\":8289:8298   */\n      dup3\n        /* \"#utility.yul\":8285:8303   */\n      add\n        /* \"#utility.yul\":8277:8303   */\n      swap1\n      pop\n        /* \"#utility.yul\":8349:8358   */\n      dup2\n        /* \"#utility.yul\":8343:8347   */\n      dup2\n        /* \"#utility.yul\":8339:8359   */\n      sub\n        /* \"#utility.yul\":8335:8336   */\n      0x00\n        /* \"#utility.yul\":8324:8333   */\n      dup4\n        /* \"#utility.yul\":8320:8337   */\n      add\n        /* \"#utility.yul\":8313:8360   */\n      mstore\n        /* \"#utility.yul\":8377:8455   */\n      tag_520\n        /* \"#utility.yul\":8450:8454   */\n      dup2\n        /* \"#utility.yul\":8441:8447   */\n      dup5\n        /* \"#utility.yul\":8377:8455   */\n      tag_384\n      jump\t// in\n    tag_520:\n        /* \"#utility.yul\":8369:8455   */\n      swap1\n      pop\n        /* \"#utility.yul\":8149:8462   */\n      swap3\n      swap2\n      pop\n      pop\n      jump\t// out\n        /* \"#utility.yul\":8468:8776   */\n    tag_387:\n        /* \"#utility.yul\":8530:8534   */\n      0x00\n        /* \"#utility.yul\":8620:8638   */\n      0xffffffffffffffff\n        /* \"#utility.yul\":8612:8618   */\n      dup3\n        /* \"#utility.yul\":8609:8639   */\n      gt\n        /* \"#utility.yul\":8606:8662   */\n      iszero\n      tag_522\n      jumpi\n        /* \"#utility.yul\":8642:8660   */\n      tag_523\n      tag_112\n      jump\t// in\n    tag_523:\n        /* \"#utility.yul\":8606:8662   */\n    tag_522:\n        /* \"#utility.yul\":8680:8709   */\n      tag_524\n        /* \"#utility.yul\":8702:8708   */\n      dup3\n        /* \"#utility.yul\":8680:8709   */\n      tag_366\n      jump\t// in\n    tag_524:\n        /* \"#utility.yul\":8672:8709   */\n      swap1\n      pop\n        /* \"#utility.yul\":8764:8768   */\n      0x20\n        /* \"#utility.yul\":8758:8762   */\n      dup2\n        /* \"#utility.yul\":8754:8769   */\n      add\n        /* \"#utility.yul\":8746:8769   */\n      swap1\n      pop\n        /* \"#utility.yul\":8468:8776   */\n      swap2\n      swap1\n      pop\n      jump\t// out\n        /* \"#utility.yul\":8782:9207   */\n    tag_388:\n        /* \"#utility.yul\":8860:8865   */\n      0x00\n        /* \"#utility.yul\":8885:8951   */\n      tag_526\n        /* \"#utility.yul\":8901:8950   */\n      tag_527\n        /* \"#utility.yul\":8943:8949   */\n      dup5\n        /* \"#utility.yul\":8901:8950   */\n      tag_387\n      jump\t// in\n    tag_527:\n        /* \"#utility.yul\":8885:8951   */\n      tag_368\n      jump\t// in\n    tag_526:\n        /* \"#utility.yul\":8876:8951   */\n      swap1\n      pop\n        /* \"#utility.yul\":8974:8980   */\n      dup3\n        /* \"#utility.yul\":8967:8972   */\n      dup2\n        /* \"#utility.yul\":8960:8981   */\n      mstore\n        /* \"#utility.yul\":9012:9016   */\n      0x20\n        /* \"#utility.yul\":9005:9010   */\n      dup2\n        /* \"#utility.yul\":9001:9017   */\n      add\n        /* \"#utility.yul\":9050:9053   */\n      dup5\n        /* \"#utility.yul\":9041:9047   */\n      dup5\n        /* \"#utility.yul\":9036:9039   */\n      dup5\n        /* \"#utility.yul\":9032:9048   */\n      add\n        /* \"#utility.yul\":9029:9054   */\n      gt\n        /* \"#utility.yul\":9026:9138   */\n      iszero\n      tag_528\n      jumpi\n        /* \"#utility.yul\":9057:9136   */\n      tag_529\n      tag_365\n      jump\t// in\n    tag_529:\n        /* \"#utility.yul\":9026:9138   */\n    tag_528:\n        /* \"#utility.yul\":9147:9201   */\n      tag_530\n        /* \"#utility.yul\":9194:9200   */\n      dup5\n        /* \"#utility.yul\":9189:9192   */\n      dup3\n        /* \"#utility.yul\":9184:9187   */\n      dup6\n        /* \"#utility.yul\":9147:9201   */\n      tag_370\n      jump\t// in\n    tag_530:\n        /* \"#utility.yul\":8866:9207   */\n      pop\n        /* \"#utility.yul\":8782:9207   */\n      swap4\n      swap3\n      pop\n      pop\n      pop\n      jump\t// out\n        /* \"#utility.yul\":9227:9567   */\n    tag_389:\n        /* \"#utility.yul\":9283:9288   */\n      0x00\n        /* \"#utility.yul\":9332:9335   */\n      dup3\n        /* \"#utility.yul\":9325:9329   */\n      0x1f\n        /* \"#utility.yul\":9317:9323   */\n      dup4\n        /* \"#utility.yul\":9313:9330   */\n      add\n        /* \"#utility.yul\":9309:9336   */\n      slt\n        /* \"#utility.yul\":9299:9421   */\n      tag_532\n      jumpi\n        /* \"#utility.yul\":9340:9419   */\n      tag_533\n      tag_364\n      jump\t// in\n    tag_533:\n        /* \"#utility.yul\":9299:9421   */\n    tag_532:\n        /* \"#utility.yul\":9457:9463   */\n      dup2\n        /* \"#utility.yul\":9444:9464   */\n      calldataload\n        /* \"#utility.yul\":9482:9561   */\n      tag_534\n        /* \"#utility.yul\":9557:9560   */\n      dup5\n        /* \"#utility.yul\":9549:9555   */\n      dup3\n        /* \"#utility.yul\":9542:9546   */\n      0x20\n        /* \"#utility.yul\":9534:9540   */\n      dup7\n        /* \"#utility.yul\":9530:9547   */\n      add\n        /* \"#utility.yul\":9482:9561   */\n      tag_388\n      jump\t// in\n    tag_534:\n        /* \"#utility.yul\":9473:9561   */\n      swap2\n      pop\n        /* \"#utility.yul\":9289:9567   */\n      pop\n        /* \"#utility.yul\":9227:9567   */\n      swap3\n      swap2\n      pop\n      pop\n      jump\t// out\n        /* \"#utility.yul\":9573:10082   */\n    tag_51:\n        /* \"#utility.yul\":9642:9648   */\n      0x00\n        /* \"#utility.yul\":9691:9693   */\n      0x20\n        /* \"#utility.yul\":9679:9688   */\n      dup3\n        /* \"#utility.yul\":9670:9677   */\n      dup5\n        /* \"#utility.yul\":9666:9689   */\n      sub\n        /* \"#utility.yul\":9662:9694   */\n      slt\n        /* \"#utility.yul\":9659:9778   */\n      iszero\n      tag_536\n      jumpi\n        /* \"#utility.yul\":9697:9776   */\n      tag_537\n      tag_359\n      jump\t// in\n    tag_537:\n        /* \"#utility.yul\":9659:9778   */\n    tag_536:\n        /* \"#utility.yul\":9845:9846   */\n      0x00\n        /* \"#utility.yul\":9834:9843   */\n      dup3\n        /* \"#utility.yul\":9830:9847   */\n      add\n        /* \"#utility.yul\":9817:9848   */\n      calldataload\n        /* \"#utility.yul\":9875:9893   */\n      0xffffffffffffffff\n        /* \"#utility.yul\":9867:9873   */\n      dup2\n        /* \"#utility.yul\":9864:9894   */\n      gt\n        /* \"#utility.yul\":9861:9978   */\n      iszero\n      tag_538\n      jumpi\n        /* \"#utility.yul\":9897:9976   */\n      tag_539\n      tag_360\n      jump\t// in\n    tag_539:\n        /* \"#utility.yul\":9861:9978   */\n    tag_538:\n        /* \"#utility.yul\":10002:10065   */\n      tag_540\n        /* \"#utility.yul\":10057:10064   */\n      dup5\n        /* \"#utility.yul\":10048:10054   */\n      dup3\n        /* \"#utility.yul\":10037:10046   */\n      dup6\n        /* \"#utility.yul\":10033:10055   */\n      add\n        /* \"#utility.yul\":10002:10065   */\n      tag_389\n      jump\t// in\n    tag_540:\n        /* \"#utility.yul\":9992:10065   */\n      swap2\n      pop\n        /* \"#utility.yul\":9788:10075   */\n      pop\n        /* \"#utility.yul\":9573:10082   */\n      swap3\n      swap2\n      pop\n      pop\n      jump\t// out\n        /* \"#utility.yul\":10088:10206   */\n    tag_390:\n        /* \"#utility.yul\":10175:10199   */\n      tag_542\n        /* \"#utility.yul\":10193:10198   */\n      dup2\n        /* \"#utility.yul\":10175:10199   */\n      tag_361\n      jump\t// in\n    tag_542:\n        /* \"#utility.yul\":10170:10173   */\n      dup3\n        /* \"#utility.yul\":10163:10200   */\n      mstore\n        /* \"#utility.yul\":10088:10206   */\n      pop\n      pop\n      jump\t// out\n        /* \"#utility.yul\":10212:10434   */\n    tag_54:\n        /* \"#utility.yul\":10305:10309   */\n      0x00\n        /* \"#utility.yul\":10343:10345   */\n      0x20\n        /* \"#utility.yul\":10332:10341   */\n      dup3\n        /* \"#utility.yul\":10328:10346   */\n      add\n        /* \"#utility.yul\":10320:10346   */\n      swap1\n      pop\n        /* \"#utility.yul\":10356:10427   */\n      tag_544\n        /* \"#utility.yul\":10424:10425   */\n      0x00\n        /* \"#utility.yul\":10413:10422   */\n      dup4\n        /* \"#utility.yul\":10409:10426   */\n      add\n        /* \"#utility.yul\":10400:10406   */\n      dup5\n        /* \"#utility.yul\":10356:10427   */\n      tag_390\n      jump\t// in\n    tag_544:\n        /* \"#utility.yul\":10212:10434   */\n      swap3\n      swap2\n      pop\n      pop\n      jump\t// out\n        /* \"#utility.yul\":10440:10562   */\n    tag_391:\n        /* \"#utility.yul\":10513:10537   */\n      tag_546\n        /* \"#utility.yul\":10531:10536   */\n      dup2\n        /* \"#utility.yul\":10513:10537   */\n      tag_385\n      jump\t// in\n    tag_546:\n        /* \"#utility.yul\":10506:10511   */\n      dup2\n        /* \"#utility.yul\":10503:10538   */\n      eq\n        /* \"#utility.yul\":10493:10556   */\n      tag_547\n      jumpi\n        /* \"#utility.yul\":10552:10553   */\n      0x00\n        /* \"#utility.yul\":10549:10550   */\n      0x00\n        /* \"#utility.yul\":10542:10554   */\n      revert\n        /* \"#utility.yul\":10493:10556   */\n    tag_547:\n        /* \"#utility.yul\":10440:10562   */\n      pop\n      jump\t// out\n        /* \"#utility.yul\":10568:10707   */\n    tag_392:\n        /* \"#utility.yul\":10614:10619   */\n      0x00\n        /* \"#utility.yul\":10652:10658   */\n      dup2\n        /* \"#utility.yul\":10639:10659   */\n      calldataload\n        /* \"#utility.yul\":10630:10659   */\n      swap1\n      pop\n        /* \"#utility.yul\":10668:10701   */\n      tag_549\n        /* \"#utility.yul\":10695:10700   */\n      dup2\n        /* \"#utility.yul\":10668:10701   */\n      tag_391\n      jump\t// in\n    tag_549:\n        /* \"#utility.yul\":10568:10707   */\n      swap3\n      swap2\n      pop\n      pop\n      jump\t// out\n        /* \"#utility.yul\":10713:11042   */\n    tag_57:\n        /* \"#utility.yul\":10772:10778   */\n      0x00\n        /* \"#utility.yul\":10821:10823   */\n      0x20\n        /* \"#utility.yul\":10809:10818   */\n      dup3\n        /* \"#utility.yul\":10800:10807   */\n      dup5\n        /* \"#utility.yul\":10796:10819   */\n      sub\n        /* \"#utility.yul\":10792:10824   */\n      slt\n        /* \"#utility.yul\":10789:10908   */\n      iszero\n      tag_551\n      jumpi\n        /* \"#utility.yul\":10827:10906   */\n      tag_552\n      tag_359\n      jump\t// in\n    tag_552:\n        /* \"#utility.yul\":10789:10908   */\n    tag_551:\n        /* \"#utility.yul\":10947:10948   */\n      0x00\n        /* \"#utility.yul\":10972:11025   */\n      tag_553\n        /* \"#utility.yul\":11017:11024   */\n      dup5\n        /* \"#utility.yul\":11008:11014   */\n      dup3\n        /* \"#utility.yul\":10997:11006   */\n      dup6\n        /* \"#utility.yul\":10993:11015   */\n      add\n        /* \"#utility.yul\":10972:11025   */\n      tag_392\n      jump\t// in\n    tag_553:\n        /* \"#utility.yul\":10962:11025   */\n      swap2\n      pop\n        /* \"#utility.yul\":10918:11035   */\n      pop\n        /* \"#utility.yul\":10713:11042   */\n      swap3\n      swap2\n      pop\n      pop\n      jump\t// out\n        /* \"#utility.yul\":11048:11377   */\n    tag_62:\n        /* \"#utility.yul\":11107:11113   */\n      0x00\n        /* \"#utility.yul\":11156:11158   */\n      0x20\n        /* \"#utility.yul\":11144:11153   */\n      dup3\n        /* \"#utility.yul\":11135:11142   */\n      dup5\n        /* \"#utility.yul\":11131:11154   */\n      sub\n        /* \"#utility.yul\":11127:11159   */\n      slt\n        /* \"#utility.yul\":11124:11243   */\n      iszero\n      tag_555\n      jumpi\n        /* \"#utility.yul\":11162:11241   */\n      tag_556\n      tag_359\n      jump\t// in\n    tag_556:\n        /* \"#utility.yul\":11124:11243   */\n    tag_555:\n        /* \"#utility.yul\":11282:11283   */\n      0x00\n        /* \"#utility.yul\":11307:11360   */\n      tag_557\n        /* \"#utility.yul\":11352:11359   */\n      dup5\n        /* \"#utility.yul\":11343:11349   */\n      dup3\n        /* \"#utility.yul\":11332:11341   */\n      dup6\n        /* \"#utility.yul\":11328:11350   */\n      add\n        /* \"#utility.yul\":11307:11360   */\n      tag_363\n      jump\t// in\n    tag_557:\n        /* \"#utility.yul\":11297:11360   */\n      swap2\n      pop\n        /* \"#utility.yul\":11253:11370   */\n      pop\n        /* \"#utility.yul\":11048:11377   */\n      swap3\n      swap2\n      pop\n      pop\n      jump\t// out\n        /* \"#utility.yul\":11383:11473   */\n    tag_393:\n        /* \"#utility.yul\":11417:11424   */\n      0x00\n        /* \"#utility.yul\":11460:11465   */\n      dup2\n        /* \"#utility.yul\":11453:11466   */\n      iszero\n        /* \"#utility.yul\":11446:11467   */\n      iszero\n        /* \"#utility.yul\":11435:11467   */\n      swap1\n      pop\n        /* \"#utility.yul\":11383:11473   */\n      swap2\n      swap1\n      pop\n      jump\t// out\n        /* \"#utility.yul\":11479:11588   */\n    tag_394:\n        /* \"#utility.yul\":11560:11581   */\n      tag_560\n        /* \"#utility.yul\":11575:11580   */\n      dup2\n        /* \"#utility.yul\":11560:11581   */\n      tag_393\n      jump\t// in\n    tag_560:\n        /* \"#utility.yul\":11555:11558   */\n      dup3\n        /* \"#utility.yul\":11548:11582   */\n      mstore\n        /* \"#utility.yul\":11479:11588   */\n      pop\n      pop\n      jump\t// out\n        /* \"#utility.yul\":11594:12297   */\n    tag_65:\n        /* \"#utility.yul\":11795:11799   */\n      0x00\n        /* \"#utility.yul\":11833:11836   */\n      0x80\n        /* \"#utility.yul\":11822:11831   */\n      dup3\n        /* \"#utility.yul\":11818:11837   */\n      add\n        /* \"#utility.yul\":11810:11837   */\n      swap1\n      pop\n        /* \"#utility.yul\":11847:11912   */\n      tag_562\n        /* \"#utility.yul\":11909:11910   */\n      0x00\n        /* \"#utility.yul\":11898:11907   */\n      dup4\n        /* \"#utility.yul\":11894:11911   */\n      add\n        /* \"#utility.yul\":11885:11891   */\n      dup8\n        /* \"#utility.yul\":11847:11912   */\n      tag_394\n      jump\t// in\n    tag_562:\n        /* \"#utility.yul\":11922:11988   */\n      tag_563\n        /* \"#utility.yul\":11984:11986   */\n      0x20\n        /* \"#utility.yul\":11973:11982   */\n      dup4\n        /* \"#utility.yul\":11969:11987   */\n      add\n        /* \"#utility.yul\":11960:11966   */\n      dup7\n        /* \"#utility.yul\":11922:11988   */\n      tag_394\n      jump\t// in\n    tag_563:\n        /* \"#utility.yul\":12035:12044   */\n      dup2\n        /* \"#utility.yul\":12029:12033   */\n      dup2\n        /* \"#utility.yul\":12025:12045   */\n      sub\n        /* \"#utility.yul\":12020:12022   */\n      0x40\n        /* \"#utility.yul\":12009:12018   */\n      dup4\n        /* \"#utility.yul\":12005:12023   */\n      add\n        /* \"#utility.yul\":11998:12046   */\n      mstore\n        /* \"#utility.yul\":12063:12139   */\n      tag_564\n        /* \"#utility.yul\":12134:12138   */\n      dup2\n        /* \"#utility.yul\":12125:12131   */\n      dup6\n        /* \"#utility.yul\":12063:12139   */\n      tag_379\n      jump\t// in\n    tag_564:\n        /* \"#utility.yul\":12055:12139   */\n      swap1\n      pop\n        /* \"#utility.yul\":12186:12195   */\n      dup2\n        /* \"#utility.yul\":12180:12184   */\n      dup2\n        /* \"#utility.yul\":12176:12196   */\n      sub\n        /* \"#utility.yul\":12171:12173   */\n      0x60\n        /* \"#utility.yul\":12160:12169   */\n      dup4\n        /* \"#utility.yul\":12156:12174   */\n      add\n        /* \"#utility.yul\":12149:12197   */\n      mstore\n        /* \"#utility.yul\":12214:12290   */\n      tag_565\n        /* \"#utility.yul\":12285:12289   */\n      dup2\n        /* \"#utility.yul\":12276:12282   */\n      dup5\n        /* \"#utility.yul\":12214:12290   */\n      tag_379\n      jump\t// in\n    tag_565:\n        /* \"#utility.yul\":12206:12290   */\n      swap1\n      pop\n        /* \"#utility.yul\":11594:12297   */\n      swap6\n      swap5\n      pop\n      pop\n      pop\n      pop\n      pop\n      jump\t// out\n        /* \"#utility.yul\":12303:12483   */\n    tag_395:\n        /* \"#utility.yul\":12351:12428   */\n      0x4e487b7100000000000000000000000000000000000000000000000000000000\n        /* \"#utility.yul\":12348:12349   */\n      0x00\n        /* \"#utility.yul\":12341:12429   */\n      mstore\n        /* \"#utility.yul\":12448:12452   */\n      0x22\n        /* \"#utility.yul\":12445:12446   */\n      0x04\n        /* \"#utility.yul\":12438:12453   */\n      mstore\n        /* \"#utility.yul\":12472:12476   */\n      0x24\n        /* \"#utility.yul\":12469:12470   */\n      0x00\n        /* \"#utility.yul\":12462:12477   */\n      revert\n        /* \"#utility.yul\":12489:12809   */\n    tag_84:\n        /* \"#utility.yul\":12533:12539   */\n      0x00\n        /* \"#utility.yul\":12570:12571   */\n      0x02\n        /* \"#utility.yul\":12564:12568   */\n      dup3\n        /* \"#utility.yul\":12560:12572   */\n      div\n        /* \"#utility.yul\":12550:12572   */\n      swap1\n      pop\n        /* \"#utility.yul\":12617:12618   */\n      0x01\n        /* \"#utility.yul\":12611:12615   */\n      dup3\n        /* \"#utility.yul\":12607:12619   */\n      and\n        /* \"#utility.yul\":12638:12656   */\n      dup1\n        /* \"#utility.yul\":12628:12709   */\n      tag_568\n      jumpi\n        /* \"#utility.yul\":12694:12698   */\n      0x7f\n        /* \"#utility.yul\":12686:12692   */\n      dup3\n        /* \"#utility.yul\":12682:12699   */\n      and\n        /* \"#utility.yul\":12672:12699   */\n      swap2\n      pop\n        /* \"#utility.yul\":12628:12709   */\n    tag_568:\n        /* \"#utility.yul\":12756:12758   */\n      0x20\n        /* \"#utility.yul\":12748:12754   */\n      dup3\n        /* \"#utility.yul\":12745:12759   */\n      lt\n        /* \"#utility.yul\":12725:12743   */\n      dup2\n        /* \"#utility.yul\":12722:12760   */\n      sub\n        /* \"#utility.yul\":12719:12803   */\n      tag_569\n      jumpi\n        /* \"#utility.yul\":12775:12793   */\n      tag_570\n      tag_395\n      jump\t// in\n    tag_570:\n        /* \"#utility.yul\":12719:12803   */\n    tag_569:\n        /* \"#utility.yul\":12540:12809   */\n      pop\n        /* \"#utility.yul\":12489:12809   */\n      swap2\n      swap1\n      pop\n      jump\t// out\n        /* \"#utility.yul\":12815:12995   */\n    tag_117:\n        /* \"#utility.yul\":12863:12940   */\n      0x4e487b7100000000000000000000000000000000000000000000000000000000\n        /* \"#utility.yul\":12860:12861   */\n      0x00\n        /* \"#utility.yul\":12853:12941   */\n      mstore\n        /* \"#utility.yul\":12960:12964   */\n      0x32\n        /* \"#utility.yul\":12957:12958   */\n      0x04\n        /* \"#utility.yul\":12950:12965   */\n      mstore\n        /* \"#utility.yul\":12984:12988   */\n      0x24\n        /* \"#utility.yul\":12981:12982   */\n      0x00\n        /* \"#utility.yul\":12974:12989   */\n      revert\n        /* \"#utility.yul\":13001:13142   */\n    tag_396:\n        /* \"#utility.yul\":13050:13054   */\n      0x00\n        /* \"#utility.yul\":13073:13076   */\n      dup2\n        /* \"#utility.yul\":13065:13076   */\n      swap1\n      pop\n        /* \"#utility.yul\":13096:13099   */\n      dup2\n        /* \"#utility.yul\":13093:13094   */\n      0x00\n        /* \"#utility.yul\":13086:13100   */\n      mstore\n        /* \"#utility.yul\":13130:13134   */\n      0x20\n        /* \"#utility.yul\":13127:13128   */\n      0x00\n        /* \"#utility.yul\":13117:13135   */\n      keccak256\n        /* \"#utility.yul\":13109:13135   */\n      swap1\n      pop\n        /* \"#utility.yul\":13001:13142   */\n      swap2\n      swap1\n      pop\n      jump\t// out\n        /* \"#utility.yul\":13148:13241   */\n    tag_397:\n        /* \"#utility.yul\":13185:13191   */\n      0x00\n        /* \"#utility.yul\":13232:13234   */\n      0x20\n        /* \"#utility.yul\":13227:13229   */\n      0x1f\n        /* \"#utility.yul\":13220:13225   */\n      dup4\n        /* \"#utility.yul\":13216:13230   */\n      add\n        /* \"#utility.yul\":13212:13235   */\n      div\n        /* \"#utility.yul\":13202:13235   */\n      swap1\n      pop\n        /* \"#utility.yul\":13148:13241   */\n      swap2\n      swap1\n      pop\n      jump\t// out\n        /* \"#utility.yul\":13247:13354   */\n    tag_398:\n        /* \"#utility.yul\":13291:13299   */\n      0x00\n        /* \"#utility.yul\":13341:13346   */\n      dup3\n        /* \"#utility.yul\":13335:13339   */\n      dup3\n        /* \"#utility.yul\":13331:13347   */\n      shl\n        /* \"#utility.yul\":13310:13347   */\n      swap1\n      pop\n        /* \"#utility.yul\":13247:13354   */\n      swap3\n      swap2\n      pop\n      pop\n      jump\t// out\n        /* \"#utility.yul\":13360:13753   */\n    tag_399:\n        /* \"#utility.yul\":13429:13435   */\n      0x00\n        /* \"#utility.yul\":13479:13480   */\n      0x08\n        /* \"#utility.yul\":13467:13477   */\n      dup4\n        /* \"#utility.yul\":13463:13481   */\n      mul\n        /* \"#utility.yul\":13502:13599   */\n      tag_576\n        /* \"#utility.yul\":13532:13598   */\n      0xffffffffffffffffffffffffffffffffffffffffffffffffffffffffffffffff\n        /* \"#utility.yul\":13521:13530   */\n      dup3\n        /* \"#utility.yul\":13502:13599   */\n      tag_398\n      jump\t// in\n    tag_576:\n        /* \"#utility.yul\":13620:13659   */\n      tag_577\n        /* \"#utility.yul\":13650:13658   */\n      dup7\n        /* \"#utility.yul\":13639:13648   */\n      dup4\n        /* \"#utility.yul\":13620:13659   */\n      tag_398\n      jump\t// in\n    tag_577:\n        /* \"#utility.yul\":13608:13659   */\n      swap6\n      pop\n        /* \"#utility.yul\":13692:13696   */\n      dup1\n        /* \"#utility.yul\":13688:13697   */\n      not\n        /* \"#utility.yul\":13681:13686   */\n      dup5\n        /* \"#utility.yul\":13677:13698   */\n      and\n        /* \"#utility.yul\":13668:13698   */\n      swap4\n      pop\n        /* \"#utility.yul\":13741:13745   */\n      dup1\n        /* \"#utility.yul\":13731:13739   */\n      dup7\n        /* \"#utility.yul\":13727:13746   */\n      and\n        /* \"#utility.yul\":13720:13725   */\n      dup5\n        /* \"#utility.yul\":13717:13747   */\n      or\n        /* \"#utility.yul\":13707:13747   */\n      swap3\n      pop\n        /* \"#utility.yul\":13436:13753   */\n      pop\n      pop\n        /* \"#utility.yul\":13360:13753   */\n      swap4\n      swap3\n      pop\n      pop\n      pop\n      jump\t// out\n        /* \"#utility.yul\":13759:13819   */\n    tag_400:\n        /* \"#utility.yul\":13787:13790   */\n      0x00\n        /* \"#utility.yul\":13808:13813   */\n      dup2\n        /* \"#utility.yul\":13801:13813   */\n      swap1\n      pop\n        /* \"#utility.yul\":13759:13819   */\n      swap2\n      swap1\n      pop\n      jump\t// out\n        /* \"#utility.yul\":13825:13967   */\n    tag_401:\n        /* \"#utility.yul\":13875:13884   */\n      0x00\n        /* \"#utility.yul\":13908:13961   */\n      tag_580\n        /* \"#utility.yul\":13926:13960   */\n      tag_581\n        /* \"#utility.yul\":13935:13959   */\n      tag_582\n        /* \"#utility.yul\":13953:13958   */\n      dup5\n        /* \"#utility.yul\":13935:13959   */\n      tag_385\n      jump\t// in\n    tag_582:\n        /* \"#utility.yul\":13926:13960   */\n      tag_400\n      jump\t// in\n    tag_581:\n        /* \"#utility.yul\":13908:13961   */\n      tag_385\n      jump\t// in\n    tag_580:\n        /* \"#utility.yul\":13895:13961   */\n      swap1\n      pop\n        /* \"#utility.yul\":13825:13967   */\n      swap2\n      swap1\n      pop\n      jump\t// out\n        /* \"#utility.yul\":13973:14048   */\n    tag_402:\n        /* \"#utility.yul\":14016:14019   */\n      0x00\n        /* \"#utility.yul\":14037:14042   */\n      dup2\n        /* \"#utility.yul\":14030:14042   */\n      swap1\n      pop\n        /* \"#utility.yul\":13973:14048   */\n      swap2\n      swap1\n      pop\n      jump\t// out\n        /* \"#utility.yul\":14054:14323   */\n    tag_403:\n        /* \"#utility.yul\":14164:14203   */\n      tag_585\n        /* \"#utility.yul\":14195:14202   */\n      dup4\n        /* \"#utility.yul\":14164:14203   */\n      tag_401\n      jump\t// in\n    tag_585:\n        /* \"#utility.yul\":14225:14316   */\n      tag_586\n        /* \"#utility.yul\":14274:14315   */\n      tag_587\n        /* \"#utility.yul\":14298:14314   */\n      dup3\n        /* \"#utility.yul\":14274:14315   */\n      tag_402\n      jump\t// in\n    tag_587:\n        /* \"#utility.yul\":14266:14272   */\n      dup5\n        /* \"#utility.yul\":14259:14263   */\n      dup5\n        /* \"#utility.yul\":14253:14264   */\n      sload\n        /* \"#utility.yul\":14225:14316   */\n      tag_399\n      jump\t// in\n    tag_586:\n        /* \"#utility.yul\":14219:14223   */\n      dup3\n        /* \"#utility.yul\":14212:14317   */\n      sstore\n        /* \"#utility.yul\":14130:14323   */\n      pop\n        /* \"#utility.yul\":14054:14323   */\n      pop\n      pop\n      pop\n      jump\t// out\n        /* \"#utility.yul\":14329:14402   */\n    tag_404:\n        /* \"#utility.yul\":14374:14377   */\n      0x00\n        /* \"#utility.yul\":14395:14396   */\n      0x00\n        /* \"#utility.yul\":14388:14396   */\n      swap1\n      pop\n        /* \"#utility.yul\":14329:14402   */\n      swap1\n      jump\t// out\n        /* \"#utility.yul\":14408:14597   */\n    tag_405:\n        /* \"#utility.yul\":14485:14517   */\n      tag_590\n      tag_404\n      jump\t// in\n    tag_590:\n        /* \"#utility.yul\":14526:14591   */\n      tag_591\n        /* \"#utility.yul\":14584:14590   */\n      dup2\n        /* \"#utility.yul\":14576:14582   */\n      dup5\n        /* \"#utility.yul\":14570:14574   */\n      dup5\n        /* \"#utility.yul\":14526:14591   */\n      tag_403\n      jump\t// in\n    tag_591:\n        /* \"#utility.yul\":14461:14597   */\n      pop\n        /* \"#utility.yul\":14408:14597   */\n      pop\n      pop\n      jump\t// out\n        /* \"#utility.yul\":14603:14789   */\n    tag_406:\n        /* \"#utility.yul\":14663:14783   */\n    tag_593:\n        /* \"#utility.yul\":14680:14683   */\n      dup2\n        /* \"#utility.yul\":14673:14678   */\n      dup2\n        /* \"#utility.yul\":14670:14684   */\n      lt\n        /* \"#utility.yul\":14663:14783   */\n      iszero\n      tag_595\n      jumpi\n        /* \"#utility.yul\":14734:14773   */\n      tag_596\n        /* \"#utility.yul\":14771:14772   */\n      0x00\n        /* \"#utility.yul\":14764:14769   */\n      dup3\n        /* \"#utility.yul\":14734:14773   */\n      tag_405\n      jump\t// in\n    tag_596:\n        /* \"#utility.yul\":14707:14708   */\n      0x01\n        /* \"#utility.yul\":14700:14705   */\n      dup2\n        /* \"#utility.yul\":14696:14709   */\n      add\n        /* \"#utility.yul\":14687:14709   */\n      swap1\n      pop\n        /* \"#utility.yul\":14663:14783   */\n      jump(tag_593)\n    tag_595:\n        /* \"#utility.yul\":14603:14789   */\n      pop\n      pop\n      jump\t// out\n        /* \"#utility.yul\":14795:15338   */\n    tag_407:\n        /* \"#utility.yul\":14896:14898   */\n      0x1f\n        /* \"#utility.yul\":14891:14894   */\n      dup3\n        /* \"#utility.yul\":14888:14899   */\n      gt\n        /* \"#utility.yul\":14885:15331   */\n      iszero\n      tag_598\n      jumpi\n        /* \"#utility.yul\":14930:14968   */\n      tag_599\n        /* \"#utility.yul\":14962:14967   */\n      dup2\n        /* \"#utility.yul\":14930:14968   */\n      tag_396\n      jump\t// in\n    tag_599:\n        /* \"#utility.yul\":15014:15043   */\n      tag_600\n        /* \"#utility.yul\":15032:15042   */\n      dup5\n        /* \"#utility.yul\":15014:15043   */\n      tag_397\n      jump\t// in\n    tag_600:\n        /* \"#utility.yul\":15004:15012   */\n      dup2\n        /* \"#utility.yul\":15000:15044   */\n      add\n        /* \"#utility.yul\":15197:15199   */\n      0x20\n        /* \"#utility.yul\":15185:15195   */\n      dup6\n        /* \"#utility.yul\":15182:15200   */\n      lt\n        /* \"#utility.yul\":15179:15228   */\n      iszero\n      tag_601\n      jumpi\n        /* \"#utility.yul\":15218:15226   */\n      dup2\n        /* \"#utility.yul\":15203:15226   */\n      swap1\n      pop\n        /* \"#utility.yul\":15179:15228   */\n    tag_601:\n        /* \"#utility.yul\":15241:15321   */\n      tag_602\n        /* \"#utility.yul\":15297:15319   */\n      tag_603\n        /* \"#utility.yul\":15315:15318   */\n      dup6\n        /* \"#utility.yul\":15297:15319   */\n      tag_397\n      jump\t// in\n    tag_603:\n        /* \"#utility.yul\":15287:15295   */\n      dup4\n        /* \"#utility.yul\":15283:15320   */\n      add\n        /* \"#utility.yul\":15270:15281   */\n      dup3\n        /* \"#utility.yul\":15241:15321   */\n      tag_406\n      jump\t// in\n    tag_602:\n        /* \"#utility.yul\":14900:15331   */\n      pop\n      pop\n        /* \"#utility.yul\":14885:15331   */\n    tag_598:\n        /* \"#utility.yul\":14795:15338   */\n      pop\n      pop\n      pop\n      jump\t// out\n        /* \"#utility.yul\":15344:15461   */\n    tag_408:\n        /* \"#utility.yul\":15398:15406   */\n      0x00\n        /* \"#utility.yul\":15448:15453   */\n      dup3\n        /* \"#utility.yul\":15442:15446   */\n      dup3\n        /* \"#utility.yul\":15438:15454   */\n      shr\n        /* \"#utility.yul\":15417:15454   */\n      swap1\n      pop\n        /* \"#utility.yul\":15344:15461   */\n      swap3\n      swap2\n      pop\n      pop\n      jump\t// out\n        /* \"#utility.yul\":15467:15636   */\n    tag_409:\n        /* \"#utility.yul\":15511:15517   */\n      0x00\n        /* \"#utility.yul\":15544:15595   */\n      tag_606\n        /* \"#utility.yul\":15592:15593   */\n      0x00\n        /* \"#utility.yul\":15588:15594   */\n      not\n        /* \"#utility.yul\":15580:15585   */\n      dup5\n        /* \"#utility.yul\":15577:15578   */\n      0x08\n        /* \"#utility.yul\":15573:15586   */\n      mul\n        /* \"#utility.yul\":15544:15595   */\n      tag_408\n      jump\t// in\n    tag_606:\n        /* \"#utility.yul\":15540:15596   */\n      not\n        /* \"#utility.yul\":15625:15629   */\n      dup1\n        /* \"#utility.yul\":15619:15623   */\n      dup4\n        /* \"#utility.yul\":15615:15630   */\n      and\n        /* \"#utility.yul\":15605:15630   */\n      swap2\n      pop\n        /* \"#utility.yul\":15518:15636   */\n      pop\n        /* \"#utility.yul\":15467:15636   */\n      swap3\n      swap2\n      pop\n      pop\n      jump\t// out\n        /* \"#utility.yul\":15641:15936   */\n    tag_410:\n        /* \"#utility.yul\":15717:15721   */\n      0x00\n        /* \"#utility.yul\":15863:15892   */\n      tag_608\n        /* \"#utility.yul\":15888:15891   */\n      dup4\n        /* \"#utility.yul\":15882:15886   */\n      dup4\n        /* \"#utility.yul\":15863:15892   */\n      tag_409\n      jump\t// in\n    tag_608:\n        /* \"#utility.yul\":15855:15892   */\n      swap2\n      pop\n        /* \"#utility.yul\":15925:15928   */\n      dup3\n        /* \"#utility.yul\":15922:15923   */\n      0x02\n        /* \"#utility.yul\":15918:15929   */\n      mul\n        /* \"#utility.yul\":15912:15916   */\n      dup3\n        /* \"#utility.yul\":15909:15930   */\n      or\n        /* \"#utility.yul\":15901:15930   */\n      swap1\n      pop\n        /* \"#utility.yul\":15641:15936   */\n      swap3\n      swap2\n      pop\n      pop\n      jump\t// out\n        /* \"#utility.yul\":15941:17336   */\n    tag_135:\n        /* \"#utility.yul\":16058:16095   */\n      tag_610\n        /* \"#utility.yul\":16091:16094   */\n      dup3\n        /* \"#utility.yul\":16058:16095   */\n      tag_382\n      jump\t// in\n    tag_610:\n        /* \"#utility.yul\":16160:16178   */\n      0xffffffffffffffff\n        /* \"#utility.yul\":16152:16158   */\n      dup2\n        /* \"#utility.yul\":16149:16179   */\n      gt\n        /* \"#utility.yul\":16146:16202   */\n      iszero\n      tag_611\n      jumpi\n        /* \"#utility.yul\":16182:16200   */\n      tag_612\n      tag_112\n      jump\t// in\n    tag_612:\n        /* \"#utility.yul\":16146:16202   */\n    tag_611:\n        /* \"#utility.yul\":16226:16264   */\n      tag_613\n        /* \"#utility.yul\":16258:16262   */\n      dup3\n        /* \"#utility.yul\":16252:16263   */\n      sload\n        /* \"#utility.yul\":16226:16264   */\n      tag_84\n      jump\t// in\n    tag_613:\n        /* \"#utility.yul\":16311:16378   */\n      tag_614\n        /* \"#utility.yul\":16371:16377   */\n      dup3\n        /* \"#utility.yul\":16363:16369   */\n      dup3\n        /* \"#utility.yul\":16357:16361   */\n      dup6\n        /* \"#utility.yul\":16311:16378   */\n      tag_407\n      jump\t// in\n    tag_614:\n        /* \"#utility.yul\":16405:16406   */\n      0x00\n        /* \"#utility.yul\":16429:16433   */\n      0x20\n        /* \"#utility.yul\":16416:16433   */\n      swap1\n      pop\n        /* \"#utility.yul\":16461:16463   */\n      0x1f\n        /* \"#utility.yul\":16453:16459   */\n      dup4\n        /* \"#utility.yul\":16450:16464   */\n      gt\n        /* \"#utility.yul\":16478:16479   */\n      0x01\n        /* \"#utility.yul\":16473:17091   */\n      dup2\n      eq\n      tag_616\n      jumpi\n        /* \"#utility.yul\":17135:17136   */\n      0x00\n        /* \"#utility.yul\":17152:17158   */\n      dup5\n        /* \"#utility.yul\":17149:17226   */\n      iszero\n      tag_617\n      jumpi\n        /* \"#utility.yul\":17201:17210   */\n      dup3\n        /* \"#utility.yul\":17196:17199   */\n      dup8\n        /* \"#utility.yul\":17192:17211   */\n      add\n        /* \"#utility.yul\":17186:17212   */\n      mload\n        /* \"#utility.yul\":17177:17212   */\n      swap1\n      pop\n        /* \"#utility.yul\":17149:17226   */\n    tag_617:\n        /* \"#utility.yul\":17252:17319   */\n      tag_618\n        /* \"#utility.yul\":17312:17318   */\n      dup6\n        /* \"#utility.yul\":17305:17310   */\n      dup3\n        /* \"#utility.yul\":17252:17319   */\n      tag_410\n      jump\t// in\n    tag_618:\n        /* \"#utility.yul\":17246:17250   */\n      dup7\n        /* \"#utility.yul\":17239:17320   */\n      sstore\n        /* \"#utility.yul\":17108:17330   */\n      pop\n        /* \"#utility.yul\":16443:17330   */\n      jump(tag_615)\n        /* \"#utility.yul\":16473:17091   */\n    tag_616:\n        /* \"#utility.yul\":16525:16529   */\n      0x1f\n        /* \"#utility.yul\":16521:16530   */\n      not\n        /* \"#utility.yul\":16513:16519   */\n      dup5\n        /* \"#utility.yul\":16509:16531   */\n      and\n        /* \"#utility.yul\":16559:16596   */\n      tag_619\n        /* \"#utility.yul\":16591:16595   */\n      dup7\n        /* \"#utility.yul\":16559:16596   */\n      tag_396\n      jump\t// in\n    tag_619:\n        /* \"#utility.yul\":16618:16619   */\n      0x00\n        /* \"#utility.yul\":16632:16840   */\n    tag_620:\n        /* \"#utility.yul\":16646:16653   */\n      dup3\n        /* \"#utility.yul\":16643:16644   */\n      dup2\n        /* \"#utility.yul\":16640:16654   */\n      lt\n        /* \"#utility.yul\":16632:16840   */\n      iszero\n      tag_622\n      jumpi\n        /* \"#utility.yul\":16725:16734   */\n      dup5\n        /* \"#utility.yul\":16720:16723   */\n      dup10\n        /* \"#utility.yul\":16716:16735   */\n      add\n        /* \"#utility.yul\":16710:16736   */\n      mload\n        /* \"#utility.yul\":16702:16708   */\n      dup3\n        /* \"#utility.yul\":16695:16737   */\n      sstore\n        /* \"#utility.yul\":16776:16777   */\n      0x01\n        /* \"#utility.yul\":16768:16774   */\n      dup3\n        /* \"#utility.yul\":16764:16778   */\n      add\n        /* \"#utility.yul\":16754:16778   */\n      swap2\n      pop\n        /* \"#utility.yul\":16823:16825   */\n      0x20\n        /* \"#utility.yul\":16812:16821   */\n      dup6\n        /* \"#utility.yul\":16808:16826   */\n      add\n        /* \"#utility.yul\":16795:16826   */\n      swap5\n      pop\n        /* \"#utility.yul\":16669:16673   */\n      0x20\n        /* \"#utility.yul\":16666:16667   */\n      dup2\n        /* \"#utility.yul\":16662:16674   */\n      add\n        /* \"#utility.yul\":16657:16674   */\n      swap1\n      pop\n        /* \"#utility.yul\":16632:16840   */\n      jump(tag_620)\n    tag_622:\n        /* \"#utility.yul\":16868:16874   */\n      dup7\n        /* \"#utility.yul\":16859:16866   */\n      dup4\n        /* \"#utility.yul\":16856:16875   */\n      lt\n        /* \"#utility.yul\":16853:17032   */\n      iszero\n      tag_623\n      jumpi\n        /* \"#utility.yul\":16926:16935   */\n      dup5\n        /* \"#utility.yul\":16921:16924   */\n      dup10\n        /* \"#utility.yul\":16917:16936   */\n      add\n        /* \"#utility.yul\":16911:16937   */\n      mload\n        /* \"#utility.yul\":16969:17017   */\n      tag_624\n        /* \"#utility.yul\":17011:17015   */\n      0x1f\n        /* \"#utility.yul\":17003:17009   */\n      dup10\n        /* \"#utility.yul\":16999:17016   */\n      and\n        /* \"#utility.yul\":16988:16997   */\n      dup3\n        /* \"#utility.yul\":16969:17017   */\n      tag_409\n      jump\t// in\n    tag_624:\n        /* \"#utility.yul\":16961:16967   */\n      dup4\n        /* \"#utility.yul\":16954:17018   */\n      sstore\n        /* \"#utility.yul\":16876:17032   */\n      pop\n        /* \"#utility.yul\":16853:17032   */\n    tag_623:\n        /* \"#utility.yul\":17078:17079   */\n      0x01\n        /* \"#utility.yul\":17074:17075   */\n      0x02\n        /* \"#utility.yul\":17066:17072   */\n      dup9\n        /* \"#utility.yul\":17062:17076   */\n      mul\n        /* \"#utility.yul\":17058:17080   */\n      add\n        /* \"#utility.yul\":17052:17056   */\n      dup9\n        /* \"#utility.yul\":17045:17081   */\n      sstore\n        /* \"#utility.yul\":16480:17091   */\n      pop\n      pop\n      pop\n        /* \"#utility.yul\":16443:17330   */\n    tag_615:\n      pop\n        /* \"#utility.yul\":16033:17336   */\n      pop\n      pop\n      pop\n        /* \"#utility.yul\":15941:17336   */\n      pop\n      pop\n      jump\t// out\n        /* \"#utility.yul\":17342:17482   */\n    tag_411:\n        /* \"#utility.yul\":17390:17394   */\n      0x00\n        /* \"#utility.yul\":17413:17416   */\n      dup2\n        /* \"#utility.yul\":17405:17416   */\n      swap1\n      pop\n        /* \"#utility.yul\":17436:17439   */\n      dup2\n        /* \"#utility.yul\":17433:17434   */\n      0x00\n        /* \"#utility.yul\":17426:17440   */\n      mstore\n        /* \"#utility.yul\":17470:17474   */\n      0x20\n        /* \"#utility.yul\":17467:17468   */\n      0x00\n        /* \"#utility.yul\":17457:17475   */\n      keccak256\n        /* \"#utility.yul\":17449:17475   */\n      swap1\n      pop\n        /* \"#utility.yul\":17342:17482   */\n      swap2\n      swap1\n      pop\n      jump\t// out\n        /* \"#utility.yul\":17488:18029   */\n    tag_412:\n        /* \"#utility.yul\":17588:17590   */\n      0x1f\n        /* \"#utility.yul\":17583:17586   */\n      dup3\n        /* \"#utility.yul\":17580:17591   */\n      gt\n        /* \"#utility.yul\":17577:18022   */\n      iszero\n      tag_627\n      jumpi\n        /* \"#utility.yul\":17622:17659   */\n      tag_628\n        /* \"#utility.yul\":17653:17658   */\n      dup2\n        /* \"#utility.yul\":17622:17659   */\n      tag_411\n      jump\t// in\n    tag_628:\n        /* \"#utility.yul\":17705:17734   */\n      tag_629\n        /* \"#utility.yul\":17723:17733   */\n      dup5\n        /* \"#utility.yul\":17705:17734   */\n      tag_397\n      jump\t// in\n    tag_629:\n        /* \"#utility.yul\":17695:17703   */\n      dup2\n        /* \"#utility.yul\":17691:17735   */\n      add\n        /* \"#utility.yul\":17888:17890   */\n      0x20\n        /* \"#utility.yul\":17876:17886   */\n      dup6\n        /* \"#utility.yul\":17873:17891   */\n      lt\n        /* \"#utility.yul\":17870:17919   */\n      iszero\n      tag_630\n      jumpi\n        /* \"#utility.yul\":17909:17917   */\n      dup2\n        /* \"#utility.yul\":17894:17917   */\n      swap1\n      pop\n        /* \"#utility.yul\":17870:17919   */\n    tag_630:\n        /* \"#utility.yul\":17932:18012   */\n      tag_631\n        /* \"#utility.yul\":17988:18010   */\n      tag_632\n        /* \"#utility.yul\":18006:18009   */\n      dup6\n        /* \"#utility.yul\":17988:18010   */\n      tag_397\n      jump\t// in\n    tag_632:\n        /* \"#utility.yul\":17978:17986   */\n      dup4\n        /* \"#utility.yul\":17974:18011   */\n      add\n        /* \"#utility.yul\":17961:17972   */\n      dup3\n        /* \"#utility.yul\":17932:18012   */\n      tag_406\n      jump\t// in\n    tag_631:\n        /* \"#utility.yul\":17592:18022   */\n      pop\n      pop\n        /* \"#utility.yul\":17577:18022   */\n    tag_627:\n        /* \"#utility.yul\":17488:18029   */\n      pop\n      pop\n      pop\n      jump\t// out\n        /* \"#utility.yul\":18035:19425   */\n    tag_137:\n        /* \"#utility.yul\":18150:18186   */\n      tag_634\n        /* \"#utility.yul\":18182:18185   */\n      dup3\n        /* \"#utility.yul\":18150:18186   */\n      tag_376\n      jump\t// in\n    tag_634:\n        /* \"#utility.yul\":18251:18269   */\n      0xffffffffffffffff\n        /* \"#utility.yul\":18243:18249   */\n      dup2\n        /* \"#utility.yul\":18240:18270   */\n      gt\n        /* \"#utility.yul\":18237:18293   */\n      iszero\n      tag_635\n      jumpi\n        /* \"#utility.yul\":18273:18291   */\n      tag_636\n      tag_112\n      jump\t// in\n    tag_636:\n        /* \"#utility.yul\":18237:18293   */\n    tag_635:\n        /* \"#utility.yul\":18317:18355   */\n      tag_637\n        /* \"#utility.yul\":18349:18353   */\n      dup3\n        /* \"#utility.yul\":18343:18354   */\n      sload\n        /* \"#utility.yul\":18317:18355   */\n      tag_84\n      jump\t// in\n    tag_637:\n        /* \"#utility.yul\":18402:18468   */\n      tag_638\n        /* \"#utility.yul\":18461:18467   */\n      dup3\n        /* \"#utility.yul\":18453:18459   */\n      dup3\n        /* \"#utility.yul\":18447:18451   */\n      dup6\n        /* \"#utility.yul\":18402:18468   */\n      tag_412\n      jump\t// in\n    tag_638:\n        /* \"#utility.yul\":18495:18496   */\n      0x00\n        /* \"#utility.yul\":18519:18523   */\n      0x20\n        /* \"#utility.yul\":18506:18523   */\n      swap1\n      pop\n        /* \"#utility.yul\":18551:18553   */\n      0x1f\n        /* \"#utility.yul\":18543:18549   */\n      dup4\n        /* \"#utility.yul\":18540:18554   */\n      gt\n        /* \"#utility.yul\":18568:18569   */\n      0x01\n        /* \"#utility.yul\":18563:19180   */\n      dup2\n      eq\n      tag_640\n      jumpi\n        /* \"#utility.yul\":19224:19225   */\n      0x00\n        /* \"#utility.yul\":19241:19247   */\n      dup5\n        /* \"#utility.yul\":19238:19315   */\n      iszero\n      tag_641\n      jumpi\n        /* \"#utility.yul\":19290:19299   */\n      dup3\n        /* \"#utility.yul\":19285:19288   */\n      dup8\n        /* \"#utility.yul\":19281:19300   */\n      add\n        /* \"#utility.yul\":19275:19301   */\n      mload\n        /* \"#utility.yul\":19266:19301   */\n      swap1\n      pop\n        /* \"#utility.yul\":19238:19315   */\n    tag_641:\n        /* \"#utility.yul\":19341:19408   */\n      tag_642\n        /* \"#utility.yul\":19401:19407   */\n      dup6\n        /* \"#utility.yul\":19394:19399   */\n      dup3\n        /* \"#utility.yul\":19341:19408   */\n      tag_410\n      jump\t// in\n    tag_642:\n        /* \"#utility.yul\":19335:19339   */\n      dup7\n        /* \"#utility.yul\":19328:19409   */\n      sstore\n        /* \"#utility.yul\":19197:19419   */\n      pop\n        /* \"#utility.yul\":18533:19419   */\n      jump(tag_639)\n        /* \"#utility.yul\":18563:19180   */\n    tag_640:\n        /* \"#utility.yul\":18615:18619   */\n      0x1f\n        /* \"#utility.yul\":18611:18620   */\n      not\n        /* \"#utility.yul\":18603:18609   */\n      dup5\n        /* \"#utility.yul\":18599:18621   */\n      and\n        /* \"#utility.yul\":18649:18685   */\n      tag_643\n        /* \"#utility.yul\":18680:18684   */\n      dup7\n        /* \"#utility.yul\":18649:18685   */\n      tag_411\n      jump\t// in\n    tag_643:\n        /* \"#utility.yul\":18707:18708   */\n      0x00\n        /* \"#utility.yul\":18721:18929   */\n    tag_644:\n        /* \"#utility.yul\":18735:18742   */\n      dup3\n        /* \"#utility.yul\":18732:18733   */\n      dup2\n        /* \"#utility.yul\":18729:18743   */\n      lt\n        /* \"#utility.yul\":18721:18929   */\n      iszero\n      tag_646\n      jumpi\n        /* \"#utility.yul\":18814:18823   */\n      dup5\n        /* \"#utility.yul\":18809:18812   */\n      dup10\n        /* \"#utility.yul\":18805:18824   */\n      add\n        /* \"#utility.yul\":18799:18825   */\n      mload\n        /* \"#utility.yul\":18791:18797   */\n      dup3\n        /* \"#utility.yul\":18784:18826   */\n      sstore\n        /* \"#utility.yul\":18865:18866   */\n      0x01\n        /* \"#utility.yul\":18857:18863   */\n      dup3\n        /* \"#utility.yul\":18853:18867   */\n      add\n        /* \"#utility.yul\":18843:18867   */\n      swap2\n      pop\n        /* \"#utility.yul\":18912:18914   */\n      0x20\n        /* \"#utility.yul\":18901:18910   */\n      dup6\n        /* \"#utility.yul\":18897:18915   */\n      add\n        /* \"#utility.yul\":18884:18915   */\n      swap5\n      pop\n        /* \"#utility.yul\":18758:18762   */\n      0x20\n        /* \"#utility.yul\":18755:18756   */\n      dup2\n        /* \"#utility.yul\":18751:18763   */\n      add\n        /* \"#utility.yul\":18746:18763   */\n      swap1\n      pop\n        /* \"#utility.yul\":18721:18929   */\n      jump(tag_644)\n    tag_646:\n        /* \"#utility.yul\":18957:18963   */\n      dup7\n        /* \"#utility.yul\":18948:18955   */\n      dup4\n        /* \"#utility.yul\":18945:18964   */\n      lt\n        /* \"#utility.yul\":18942:19121   */\n      iszero\n      tag_647\n      jumpi\n        /* \"#utility.yul\":19015:19024   */\n      dup5\n        /* \"#utility.yul\":19010:19013   */\n      dup10\n        /* \"#utility.yul\":19006:19025   */\n      add\n        /* \"#utility.yul\":19000:19026   */\n      mload\n        /* \"#utility.yul\":19058:19106   */\n      tag_648\n        /* \"#utility.yul\":19100:19104   */\n      0x1f\n        /* \"#utility.yul\":19092:19098   */\n      dup10\n        /* \"#utility.yul\":19088:19105   */\n      and\n        /* \"#utility.yul\":19077:19086   */\n      dup3\n        /* \"#utility.yul\":19058:19106   */\n      tag_409\n      jump\t// in\n    tag_648:\n        /* \"#utility.yul\":19050:19056   */\n      dup4\n        /* \"#utility.yul\":19043:19107   */\n      sstore\n        /* \"#utility.yul\":18965:19121   */\n      pop\n        /* \"#utility.yul\":18942:19121   */\n    tag_647:\n        /* \"#utility.yul\":19167:19168   */\n      0x01\n        /* \"#utility.yul\":19163:19164   */\n      0x02\n        /* \"#utility.yul\":19155:19161   */\n      dup9\n        /* \"#utility.yul\":19151:19165   */\n      mul\n        /* \"#utility.yul\":19147:19169   */\n      add\n        /* \"#utility.yul\":19141:19145   */\n      dup9\n        /* \"#utility.yul\":19134:19170   */\n      sstore\n        /* \"#utility.yul\":18570:19180   */\n      pop\n      pop\n      pop\n        /* \"#utility.yul\":18533:19419   */\n    tag_639:\n      pop\n        /* \"#utility.yul\":18125:19425   */\n      pop\n      pop\n      pop\n        /* \"#utility.yul\":18035:19425   */\n      pop\n      pop\n      jump\t// out\n        /* \"#utility.yul\":19431:19598   */\n    tag_413:\n        /* \"#utility.yul\":19571:19590   */\n      0x72657175657374206e6f7420666f756e64000000000000000000000000000000\n        /* \"#utility.yul\":19567:19568   */\n      0x00\n        /* \"#utility.yul\":19559:19565   */\n      dup3\n        /* \"#utility.yul\":19555:19569   */\n      add\n        /* \"#utility.yul\":19548:19591   */\n      mstore\n        /* \"#utility.yul\":19431:19598   */\n      pop\n      jump\t// out\n        /* \"#utility.yul\":19604:19970   */\n    tag_414:\n        /* \"#utility.yul\":19746:19749   */\n      0x00\n        /* \"#utility.yul\":19767:19834   */\n      tag_651\n        /* \"#utility.yul\":19831:19833   */\n      0x11\n        /* \"#utility.yul\":19826:19829   */\n      dup4\n        /* \"#utility.yul\":19767:19834   */\n      tag_383\n      jump\t// in\n    tag_651:\n        /* \"#utility.yul\":19760:19834   */\n      swap2\n      pop\n        /* \"#utility.yul\":19843:19936   */\n      tag_652\n        /* \"#utility.yul\":19932:19935   */\n      dup3\n        /* \"#utility.yul\":19843:19936   */\n      tag_413\n      jump\t// in\n    tag_652:\n        /* \"#utility.yul\":19961:19963   */\n      0x20\n        /* \"#utility.yul\":19956:19959   */\n      dup3\n        /* \"#utility.yul\":19952:19964   */\n      add\n        /* \"#utility.yul\":19945:19964   */\n      swap1\n      pop\n        /* \"#utility.yul\":19604:19970   */\n      swap2\n      swap1\n      pop\n      jump\t// out\n        /* \"#utility.yul\":19976:20395   */\n    tag_167:\n        /* \"#utility.yul\":20142:20146   */\n      0x00\n        /* \"#utility.yul\":20180:20182   */\n      0x20\n        /* \"#utility.yul\":20169:20178   */\n      dup3\n        /* \"#utility.yul\":20165:20183   */\n      add\n        /* \"#utility.yul\":20157:20183   */\n      swap1\n      pop\n        /* \"#utility.yul\":20229:20238   */\n      dup2\n        /* \"#utility.yul\":20223:20227   */\n      dup2\n        /* \"#utility.yul\":20219:20239   */\n      sub\n        /* \"#utility.yul\":20215:20216   */\n      0x00\n        /* \"#utility.yul\":20204:20213   */\n      dup4\n        /* \"#utility.yul\":20200:20217   */\n      add\n        /* \"#utility.yul\":20193:20240   */\n      mstore\n        /* \"#utility.yul\":20257:20388   */\n      tag_654\n        /* \"#utility.yul\":20383:20387   */\n      dup2\n        /* \"#utility.yul\":20257:20388   */\n      tag_414\n      jump\t// in\n    tag_654:\n        /* \"#utility.yul\":20249:20388   */\n      swap1\n      pop\n        /* \"#utility.yul\":19976:20395   */\n      swap2\n      swap1\n      pop\n      jump\t// out\n        /* \"#utility.yul\":20401:20554   */\n    tag_415:\n        /* \"#utility.yul\":20454:20460   */\n      0x00\n        /* \"#utility.yul\":20488:20493   */\n      dup2\n        /* \"#utility.yul\":20482:20494   */\n      sload\n        /* \"#utility.yul\":20472:20494   */\n      swap1\n      pop\n        /* \"#utility.yul\":20514:20547   */\n      tag_656\n        /* \"#utility.yul\":20540:20546   */\n      dup2\n        /* \"#utility.yul\":20514:20547   */\n      tag_84\n      jump\t// in\n    tag_656:\n        /* \"#utility.yul\":20504:20547   */\n      swap1\n      pop\n        /* \"#utility.yul\":20401:20554   */\n      swap2\n      swap1\n      pop\n      jump\t// out\n        /* \"#utility.yul\":20560:20705   */\n    tag_416:\n        /* \"#utility.yul\":20613:20617   */\n      0x00\n        /* \"#utility.yul\":20636:20639   */\n      dup2\n        /* \"#utility.yul\":20628:20639   */\n      swap1\n      pop\n        /* \"#utility.yul\":20659:20662   */\n      dup2\n        /* \"#utility.yul\":20656:20657   */\n      0x00\n        /* \"#utility.yul\":20649:20663   */\n      mstore\n        /* \"#utility.yul\":20693:20697   */\n      0x20\n        /* \"#utility.yul\":20690:20691   */\n      0x00\n        /* \"#utility.yul\":20680:20698   */\n      keccak256\n        /* \"#utility.yul\":20672:20698   */\n      swap1\n      pop\n        /* \"#utility.yul\":20560:20705   */\n      swap2\n      swap1\n      pop\n      jump\t// out\n        /* \"#utility.yul\":20711:22174   */\n    tag_174:\n        /* \"#utility.yul\":20826:20829   */\n      dup2\n        /* \"#utility.yul\":20820:20824   */\n      dup2\n        /* \"#utility.yul\":20817:20830   */\n      sub\n        /* \"#utility.yul\":20814:20840   */\n      tag_659\n      jumpi\n        /* \"#utility.yul\":20833:20838   */\n      pop\n      pop\n      jump(tag_658)\n        /* \"#utility.yul\":20814:20840   */\n    tag_659:\n        /* \"#utility.yul\":20864:20902   */\n      tag_660\n        /* \"#utility.yul\":20898:20901   */\n      dup3\n        /* \"#utility.yul\":20864:20902   */\n      tag_415\n      jump\t// in\n    tag_660:\n        /* \"#utility.yul\":20967:20985   */\n      0xffffffffffffffff\n        /* \"#utility.yul\":20959:20965   */\n      dup2\n        /* \"#utility.yul\":20956:20986   */\n      gt\n        /* \"#utility.yul\":20953:21009   */\n      iszero\n      tag_661\n      jumpi\n        /* \"#utility.yul\":20989:21007   */\n      tag_662\n      tag_112\n      jump\t// in\n    tag_662:\n        /* \"#utility.yul\":20953:21009   */\n    tag_661:\n        /* \"#utility.yul\":21033:21071   */\n      tag_663\n        /* \"#utility.yul\":21065:21069   */\n      dup3\n        /* \"#utility.yul\":21059:21070   */\n      sload\n        /* \"#utility.yul\":21033:21071   */\n      tag_84\n      jump\t// in\n    tag_663:\n        /* \"#utility.yul\":21118:21185   */\n      tag_664\n        /* \"#utility.yul\":21178:21184   */\n      dup3\n        /* \"#utility.yul\":21170:21176   */\n      dup3\n        /* \"#utility.yul\":21164:21168   */\n      dup6\n        /* \"#utility.yul\":21118:21185   */\n      tag_407\n      jump\t// in\n    tag_664:\n        /* \"#utility.yul\":21212:21213   */\n      0x00\n        /* \"#utility.yul\":21241:21243   */\n      0x1f\n        /* \"#utility.yul\":21233:21239   */\n      dup4\n        /* \"#utility.yul\":21230:21244   */\n      gt\n        /* \"#utility.yul\":21258:21259   */\n      0x01\n        /* \"#utility.yul\":21253:21929   */\n      dup2\n      eq\n      tag_666\n      jumpi\n        /* \"#utility.yul\":21973:21974   */\n      0x00\n        /* \"#utility.yul\":21990:21996   */\n      dup5\n        /* \"#utility.yul\":21987:22064   */\n      iszero\n      tag_667\n      jumpi\n        /* \"#utility.yul\":22039:22048   */\n      dup3\n        /* \"#utility.yul\":22034:22037   */\n      dup8\n        /* \"#utility.yul\":22030:22049   */\n      add\n        /* \"#utility.yul\":22024:22050   */\n      sload\n        /* \"#utility.yul\":22015:22050   */\n      swap1\n      pop\n        /* \"#utility.yul\":21987:22064   */\n    tag_667:\n        /* \"#utility.yul\":22090:22157   */\n      tag_668\n        /* \"#utility.yul\":22150:22156   */\n      dup6\n        /* \"#utility.yul\":22143:22148   */\n      dup3\n        /* \"#utility.yul\":22090:22157   */\n      tag_410\n      jump\t// in\n    tag_668:\n        /* \"#utility.yul\":22084:22088   */\n      dup7\n        /* \"#utility.yul\":22077:22158   */\n      sstore\n        /* \"#utility.yul\":21946:22168   */\n      pop\n        /* \"#utility.yul\":21223:22168   */\n      jump(tag_665)\n        /* \"#utility.yul\":21253:21929   */\n    tag_666:\n        /* \"#utility.yul\":21305:21309   */\n      0x1f\n        /* \"#utility.yul\":21301:21310   */\n      not\n        /* \"#utility.yul\":21293:21299   */\n      dup5\n        /* \"#utility.yul\":21289:21311   */\n      and\n        /* \"#utility.yul\":21331:21371   */\n      tag_669\n        /* \"#utility.yul\":21367:21370   */\n      dup8\n        /* \"#utility.yul\":21331:21371   */\n      tag_416\n      jump\t// in\n    tag_669:\n        /* \"#utility.yul\":21324:21371   */\n      swap7\n      pop\n        /* \"#utility.yul\":21398:21435   */\n      tag_670\n        /* \"#utility.yul\":21430:21434   */\n      dup7\n        /* \"#utility.yul\":21398:21435   */\n      tag_396\n      jump\t// in\n    tag_670:\n        /* \"#utility.yul\":21457:21458   */\n      0x00\n        /* \"#utility.yul\":21471:21678   */\n    tag_671:\n        /* \"#utility.yul\":21485:21492   */\n      dup3\n        /* \"#utility.yul\":21482:21483   */\n      dup2\n        /* \"#utility.yul\":21479:21493   */\n      lt\n        /* \"#utility.yul\":21471:21678   */\n      iszero\n      tag_673\n      jumpi\n        /* \"#utility.yul\":21564:21573   */\n      dup5\n        /* \"#utility.yul\":21559:21562   */\n      dup10\n        /* \"#utility.yul\":21555:21574   */\n      add\n        /* \"#utility.yul\":21549:21575   */\n      sload\n        /* \"#utility.yul\":21541:21547   */\n      dup3\n        /* \"#utility.yul\":21534:21576   */\n      sstore\n        /* \"#utility.yul\":21615:21616   */\n      0x01\n        /* \"#utility.yul\":21607:21613   */\n      dup3\n        /* \"#utility.yul\":21603:21617   */\n      add\n        /* \"#utility.yul\":21593:21617   */\n      swap2\n      pop\n        /* \"#utility.yul\":21662:21663   */\n      0x01\n        /* \"#utility.yul\":21651:21660   */\n      dup6\n        /* \"#utility.yul\":21647:21664   */\n      add\n        /* \"#utility.yul\":21634:21664   */\n      swap5\n      pop\n        /* \"#utility.yul\":21508:21512   */\n      0x20\n        /* \"#utility.yul\":21505:21506   */\n      dup2\n        /* \"#utility.yul\":21501:21513   */\n      add\n        /* \"#utility.yul\":21496:21513   */\n      swap1\n      pop\n        /* \"#utility.yul\":21471:21678   */\n      jump(tag_671)\n    tag_673:\n        /* \"#utility.yul\":21706:21712   */\n      dup7\n        /* \"#utility.yul\":21697:21704   */\n      dup4\n        /* \"#utility.yul\":21694:21713   */\n      lt\n        /* \"#utility.yul\":21691:21870   */\n      iszero\n      tag_674\n      jumpi\n        /* \"#utility.yul\":21764:21773   */\n      dup5\n        /* \"#utility.yul\":21759:21762   */\n      dup10\n        /* \"#utility.yul\":21755:21774   */\n      add\n        /* \"#utility.yul\":21749:21775   */\n      sload\n        /* \"#utility.yul\":21807:21855   */\n      tag_675\n        /* \"#utility.yul\":21849:21853   */\n      0x1f\n        /* \"#utility.yul\":21841:21847   */\n      dup10\n        /* \"#utility.yul\":21837:21854   */\n      and\n        /* \"#utility.yul\":21826:21835   */\n      dup3\n        /* \"#utility.yul\":21807:21855   */\n      tag_409\n      jump\t// in\n    tag_675:\n        /* \"#utility.yul\":21799:21805   */\n      dup4\n        /* \"#utility.yul\":21792:21856   */\n      sstore\n        /* \"#utility.yul\":21714:21870   */\n      pop\n        /* \"#utility.yul\":21691:21870   */\n    tag_674:\n        /* \"#utility.yul\":21916:21917   */\n      0x01\n        /* \"#utility.yul\":21912:21913   */\n      0x02\n        /* \"#utility.yul\":21904:21910   */\n      dup9\n        /* \"#utility.yul\":21900:21914   */\n      mul\n        /* \"#utility.yul\":21896:21918   */\n      add\n        /* \"#utility.yul\":21890:21894   */\n      dup9\n        /* \"#utility.yul\":21883:21919   */\n      sstore\n        /* \"#utility.yul\":21260:21929   */\n      pop\n      pop\n      pop\n        /* \"#utility.yul\":21223:22168   */\n    tag_665:\n      pop\n        /* \"#utility.yul\":20804:22174   */\n      pop\n      pop\n      pop\n        /* \"#utility.yul\":20711:22174   */\n      pop\n      pop\n    tag_658:\n      jump\t// out\n        /* \"#utility.yul\":22204:23035   */\n    tag_417:\n        /* \"#utility.yul\":22289:22292   */\n      0x00\n        /* \"#utility.yul\":22326:22331   */\n      dup2\n        /* \"#utility.yul\":22320:22332   */\n      sload\n        /* \"#utility.yul\":22355:22391   */\n      tag_677\n        /* \"#utility.yul\":22381:22390   */\n      dup2\n        /* \"#utility.yul\":22355:22391   */\n      tag_84\n      jump\t// in\n    tag_677:\n        /* \"#utility.yul\":22407:22478   */\n      tag_678\n        /* \"#utility.yul\":22471:22477   */\n      dup2\n        /* \"#utility.yul\":22466:22469   */\n      dup7\n        /* \"#utility.yul\":22407:22478   */\n      tag_383\n      jump\t// in\n    tag_678:\n        /* \"#utility.yul\":22400:22478   */\n      swap5\n      pop\n        /* \"#utility.yul\":22509:22510   */\n      0x01\n        /* \"#utility.yul\":22498:22507   */\n      dup3\n        /* \"#utility.yul\":22494:22511   */\n      and\n        /* \"#utility.yul\":22525:22526   */\n      0x00\n        /* \"#utility.yul\":22520:22684   */\n      dup2\n      eq\n      tag_680\n      jumpi\n        /* \"#utility.yul\":22698:22699   */\n      0x01\n        /* \"#utility.yul\":22693:23029   */\n      dup2\n      eq\n      tag_681\n      jumpi\n        /* \"#utility.yul\":22487:23029   */\n      jump(tag_679)\n        /* \"#utility.yul\":22520:22684   */\n    tag_680:\n        /* \"#utility.yul\":22604:22608   */\n      0xff\n        /* \"#utility.yul\":22600:22609   */\n      not\n        /* \"#utility.yul\":22589:22598   */\n      dup4\n        /* \"#utility.yul\":22585:22610   */\n      and\n        /* \"#utility.yul\":22580:22583   */\n      dup7\n        /* \"#utility.yul\":22573:22611   */\n      mstore\n        /* \"#utility.yul\":22664:22670   */\n      dup2\n        /* \"#utility.yul\":22657:22671   */\n      iszero\n        /* \"#utility.yul\":22650:22672   */\n      iszero\n        /* \"#utility.yul\":22644:22648   */\n      0x20\n        /* \"#utility.yul\":22640:22673   */\n      mul\n        /* \"#utility.yul\":22635:22638   */\n      dup7\n        /* \"#utility.yul\":22631:22674   */\n      add\n        /* \"#utility.yul\":22624:22674   */\n      swap4\n      pop\n        /* \"#utility.yul\":22520:22684   */\n      jump(tag_679)\n        /* \"#utility.yul\":22693:23029   */\n    tag_681:\n        /* \"#utility.yul\":22760:22798   */\n      tag_682\n        /* \"#utility.yul\":22792:22797   */\n      dup6\n        /* \"#utility.yul\":22760:22798   */\n      tag_396\n      jump\t// in\n    tag_682:\n        /* \"#utility.yul\":22820:22821   */\n      0x00\n        /* \"#utility.yul\":22834:22988   */\n    tag_683:\n        /* \"#utility.yul\":22848:22854   */\n      dup4\n        /* \"#utility.yul\":22845:22846   */\n      dup2\n        /* \"#utility.yul\":22842:22855   */\n      lt\n        /* \"#utility.yul\":22834:22988   */\n      iszero\n      tag_685\n      jumpi\n        /* \"#utility.yul\":22922:22929   */\n      dup2\n        /* \"#utility.yul\":22916:22930   */\n      sload\n        /* \"#utility.yul\":22912:22913   */\n      dup2\n        /* \"#utility.yul\":22907:22910   */\n      dup10\n        /* \"#utility.yul\":22903:22914   */\n      add\n        /* \"#utility.yul\":22896:22931   */\n      mstore\n        /* \"#utility.yul\":22972:22973   */\n      0x01\n        /* \"#utility.yul\":22963:22970   */\n      dup3\n        /* \"#utility.yul\":22959:22974   */\n      add\n        /* \"#utility.yul\":22948:22974   */\n      swap2\n      pop\n        /* \"#utility.yul\":22870:22874   */\n      0x20\n        /* \"#utility.yul\":22867:22868   */\n      dup2\n        /* \"#utility.yul\":22863:22875   */\n      add\n        /* \"#utility.yul\":22858:22875   */\n      swap1\n      pop\n        /* \"#utility.yul\":22834:22988   */\n      jump(tag_683)\n    tag_685:\n        /* \"#utility.yul\":23017:23018   */\n      dup1\n        /* \"#utility.yul\":23012:23015   */\n      dup9\n        /* \"#utility.yul\":23008:23019   */\n      add\n        /* \"#utility.yul\":23001:23019   */\n      swap6\n      pop\n        /* \"#utility.yul\":22700:23029   */\n      pop\n      pop\n        /* \"#utility.yul\":22487:23029   */\n    tag_679:\n      pop\n        /* \"#utility.yul\":22293:23035   */\n      pop\n      pop\n        /* \"#utility.yul\":22204:23035   */\n      swap3\n      swap2\n      pop\n      pop\n      jump\t// out\n        /* \"#utility.yul\":23041:23742   */\n    tag_176:\n        /* \"#utility.yul\":23243:23247   */\n      0x00\n        /* \"#utility.yul\":23281:23283   */\n      0x60\n        /* \"#utility.yul\":23270:23279   */\n      dup3\n        /* \"#utility.yul\":23266:23284   */\n      add\n        /* \"#utility.yul\":23258:23284   */\n      swap1\n      pop\n        /* \"#utility.yul\":23330:23339   */\n      dup2\n        /* \"#utility.yul\":23324:23328   */\n      dup2\n        /* \"#utility.yul\":23320:23340   */\n      sub\n        /* \"#utility.yul\":23316:23317   */\n      0x00\n        /* \"#utility.yul\":23305:23314   */\n      dup4\n        /* \"#utility.yul\":23301:23318   */\n      add\n        /* \"#utility.yul\":23294:23341   */\n      mstore\n        /* \"#utility.yul\":23358:23433   */\n      tag_687\n        /* \"#utility.yul\":23428:23432   */\n      dup2\n        /* \"#utility.yul\":23419:23425   */\n      dup7\n        /* \"#utility.yul\":23358:23433   */\n      tag_417\n      jump\t// in\n    tag_687:\n        /* \"#utility.yul\":23350:23433   */\n      swap1\n      pop\n        /* \"#utility.yul\":23480:23489   */\n      dup2\n        /* \"#utility.yul\":23474:23478   */\n      dup2\n        /* \"#utility.yul\":23470:23490   */\n      sub\n        /* \"#utility.yul\":23465:23467   */\n      0x20\n        /* \"#utility.yul\":23454:23463   */\n      dup4\n        /* \"#utility.yul\":23450:23468   */\n      add\n        /* \"#utility.yul\":23443:23491   */\n      mstore\n        /* \"#utility.yul\":23508:23584   */\n      tag_688\n        /* \"#utility.yul\":23579:23583   */\n      dup2\n        /* \"#utility.yul\":23570:23576   */\n      dup6\n        /* \"#utility.yul\":23508:23584   */\n      tag_379\n      jump\t// in\n    tag_688:\n        /* \"#utility.yul\":23500:23584   */\n      swap1\n      pop\n        /* \"#utility.yul\":23631:23640   */\n      dup2\n        /* \"#utility.yul\":23625:23629   */\n      dup2\n        /* \"#utility.yul\":23621:23641   */\n      sub\n        /* \"#utility.yul\":23616:23618   */\n      0x40\n        /* \"#utility.yul\":23605:23614   */\n      dup4\n        /* \"#utility.yul\":23601:23619   */\n      add\n        /* \"#utility.yul\":23594:23642   */\n      mstore\n        /* \"#utility.yul\":23659:23735   */\n      tag_689\n        /* \"#utility.yul\":23730:23734   */\n      dup2\n        /* \"#utility.yul\":23721:23727   */\n      dup5\n        /* \"#utility.yul\":23659:23735   */\n      tag_379\n      jump\t// in\n    tag_689:\n        /* \"#utility.yul\":23651:23735   */\n      swap1\n      pop\n        /* \"#utility.yul\":23041:23742   */\n      swap5\n      swap4\n      pop\n      pop\n      pop\n      pop\n      jump\t// out\n        /* \"#utility.yul\":23748:23928   */\n    tag_190:\n        /* \"#utility.yul\":23796:23873   */\n      0x4e487b7100000000000000000000000000000000000000000000000000000000\n        /* \"#utility.yul\":23793:23794   */\n      0x00\n        /* \"#utility.yul\":23786:23874   */\n      mstore\n        /* \"#utility.yul\":23893:23897   */\n      0x21\n        /* \"#utility.yul\":23890:23891   */\n      0x04\n        /* \"#utility.yul\":23883:23898   */\n      mstore\n        /* \"#utility.yul\":23917:23921   */\n      0x24\n        /* \"#utility.yul\":23914:23915   */\n      0x00\n        /* \"#utility.yul\":23907:23922   */\n      revert\n        /* \"#utility.yul\":23934:24023   */\n    tag_418:\n        /* \"#utility.yul\":23970:23977   */\n      0x00\n        /* \"#utility.yul\":24010:24016   */\n      0xffff\n        /* \"#utility.yul\":24003:24008   */\n      dup3\n        /* \"#utility.yul\":23999:24017   */\n      and\n        /* \"#utility.yul\":23988:24017   */\n      swap1\n      pop\n        /* \"#utility.yul\":23934:24023   */\n      swap2\n      swap1\n      pop\n      jump\t// out\n        /* \"#utility.yul\":24029:24144   */\n    tag_419:\n        /* \"#utility.yul\":24114:24137   */\n      tag_693\n        /* \"#utility.yul\":24131:24136   */\n      dup2\n        /* \"#utility.yul\":24114:24137   */\n      tag_418\n      jump\t// in\n    tag_693:\n        /* \"#utility.yul\":24109:24112   */\n      dup3\n        /* \"#utility.yul\":24102:24138   */\n      mstore\n        /* \"#utility.yul\":24029:24144   */\n      pop\n      pop\n      jump\t// out\n        /* \"#utility.yul\":24150:24243   */\n    tag_420:\n        /* \"#utility.yul\":24186:24193   */\n      0x00\n        /* \"#utility.yul\":24226:24236   */\n      0xffffffff\n        /* \"#utility.yul\":24219:24224   */\n      dup3\n        /* \"#utility.yul\":24215:24237   */\n      and\n        /* \"#utility.yul\":24204:24237   */\n      swap1\n      pop\n        /* \"#utility.yul\":24150:24243   */\n      swap2\n      swap1\n      pop\n      jump\t// out\n        /* \"#utility.yul\":24249:24364   */\n    tag_421:\n        /* \"#utility.yul\":24334:24357   */\n      tag_696\n        /* \"#utility.yul\":24351:24356   */\n      dup2\n        /* \"#utility.yul\":24334:24357   */\n      tag_420\n      jump\t// in\n    tag_696:\n        /* \"#utility.yul\":24329:24332   */\n      dup3\n        /* \"#utility.yul\":24322:24358   */\n      mstore\n        /* \"#utility.yul\":24249:24364   */\n      pop\n      pop\n      jump\t// out\n        /* \"#utility.yul\":24370:25109   */\n    tag_235:\n        /* \"#utility.yul\":24587:24591   */\n      0x00\n        /* \"#utility.yul\":24625:24628   */\n      0xa0\n        /* \"#utility.yul\":24614:24623   */\n      dup3\n        /* \"#utility.yul\":24610:24629   */\n      add\n        /* \"#utility.yul\":24602:24629   */\n      swap1\n      pop\n        /* \"#utility.yul\":24639:24708   */\n      tag_698\n        /* \"#utility.yul\":24705:24706   */\n      0x00\n        /* \"#utility.yul\":24694:24703   */\n      dup4\n        /* \"#utility.yul\":24690:24707   */\n      add\n        /* \"#utility.yul\":24681:24687   */\n      dup9\n        /* \"#utility.yul\":24639:24708   */\n      tag_357\n      jump\t// in\n    tag_698:\n        /* \"#utility.yul\":24755:24764   */\n      dup2\n        /* \"#utility.yul\":24749:24753   */\n      dup2\n        /* \"#utility.yul\":24745:24765   */\n      sub\n        /* \"#utility.yul\":24740:24742   */\n      0x20\n        /* \"#utility.yul\":24729:24738   */\n      dup4\n        /* \"#utility.yul\":24725:24743   */\n      add\n        /* \"#utility.yul\":24718:24766   */\n      mstore\n        /* \"#utility.yul\":24783:24859   */\n      tag_699\n        /* \"#utility.yul\":24854:24858   */\n      dup2\n        /* \"#utility.yul\":24845:24851   */\n      dup8\n        /* \"#utility.yul\":24783:24859   */\n      tag_379\n      jump\t// in\n    tag_699:\n        /* \"#utility.yul\":24775:24859   */\n      swap1\n      pop\n        /* \"#utility.yul\":24869:24939   */\n      tag_700\n        /* \"#utility.yul\":24935:24937   */\n      0x40\n        /* \"#utility.yul\":24924:24933   */\n      dup4\n        /* \"#utility.yul\":24920:24938   */\n      add\n        /* \"#utility.yul\":24911:24917   */\n      dup7\n        /* \"#utility.yul\":24869:24939   */\n      tag_419\n      jump\t// in\n    tag_700:\n        /* \"#utility.yul\":24949:25019   */\n      tag_701\n        /* \"#utility.yul\":25015:25017   */\n      0x60\n        /* \"#utility.yul\":25004:25013   */\n      dup4\n        /* \"#utility.yul\":25000:25018   */\n      add\n        /* \"#utility.yul\":24991:24997   */\n      dup6\n        /* \"#utility.yul\":24949:25019   */\n      tag_421\n      jump\t// in\n    tag_701:\n        /* \"#utility.yul\":25029:25102   */\n      tag_702\n        /* \"#utility.yul\":25097:25100   */\n      0x80\n        /* \"#utility.yul\":25086:25095   */\n      dup4\n        /* \"#utility.yul\":25082:25101   */\n      add\n        /* \"#utility.yul\":25073:25079   */\n      dup5\n        /* \"#utility.yul\":25029:25102   */\n      tag_390\n      jump\t// in\n    tag_702:\n        /* \"#utility.yul\":24370:25109   */\n      swap7\n      swap6\n      pop\n      pop\n      pop\n      pop\n      pop\n      pop\n      jump\t// out\n        /* \"#utility.yul\":25115:25258   */\n    tag_422:\n        /* \"#utility.yul\":25172:25177   */\n      0x00\n        /* \"#utility.yul\":25203:25209   */\n      dup2\n        /* \"#utility.yul\":25197:25210   */\n      mload\n        /* \"#utility.yul\":25188:25210   */\n      swap1\n      pop\n        /* \"#utility.yul\":25219:25252   */\n      tag_704\n        /* \"#utility.yul\":25246:25251   */\n      dup2\n        /* \"#utility.yul\":25219:25252   */\n      tag_362\n      jump\t// in\n    tag_704:\n        /* \"#utility.yul\":25115:25258   */\n      swap3\n      swap2\n      pop\n      pop\n      jump\t// out\n        /* \"#utility.yul\":25264:25615   */\n    tag_239:\n        /* \"#utility.yul\":25334:25340   */\n      0x00\n        /* \"#utility.yul\":25383:25385   */\n      0x20\n        /* \"#utility.yul\":25371:25380   */\n      dup3\n        /* \"#utility.yul\":25362:25369   */\n      dup5\n        /* \"#utility.yul\":25358:25381   */\n      sub\n        /* \"#utility.yul\":25354:25386   */\n      slt\n        /* \"#utility.yul\":25351:25470   */\n      iszero\n      tag_706\n      jumpi\n        /* \"#utility.yul\":25389:25468   */\n      tag_707\n      tag_359\n      jump\t// in\n    tag_707:\n        /* \"#utility.yul\":25351:25470   */\n    tag_706:\n        /* \"#utility.yul\":25509:25510   */\n      0x00\n        /* \"#utility.yul\":25534:25598   */\n      tag_708\n        /* \"#utility.yul\":25590:25597   */\n      dup5\n        /* \"#utility.yul\":25581:25587   */\n      dup3\n        /* \"#utility.yul\":25570:25579   */\n      dup6\n        /* \"#utility.yul\":25566:25588   */\n      add\n        /* \"#utility.yul\":25534:25598   */\n      tag_422\n      jump\t// in\n    tag_708:\n        /* \"#utility.yul\":25524:25598   */\n      swap2\n      pop\n        /* \"#utility.yul\":25480:25608   */\n      pop\n        /* \"#utility.yul\":25264:25615   */\n      swap3\n      swap2\n      pop\n      pop\n      jump\t// out\n        /* \"#utility.yul\":25621:25843   */\n    tag_265:\n        /* \"#utility.yul\":25714:25718   */\n      0x00\n        /* \"#utility.yul\":25752:25754   */\n      0x20\n        /* \"#utility.yul\":25741:25750   */\n      dup3\n        /* \"#utility.yul\":25737:25755   */\n      add\n        /* \"#utility.yul\":25729:25755   */\n      swap1\n      pop\n        /* \"#utility.yul\":25765:25836   */\n      tag_710\n        /* \"#utility.yul\":25833:25834   */\n      0x00\n        /* \"#utility.yul\":25822:25831   */\n      dup4\n        /* \"#utility.yul\":25818:25835   */\n      add\n        /* \"#utility.yul\":25809:25815   */\n      dup5\n        /* \"#utility.yul\":25765:25836   */\n      tag_386\n      jump\t// in\n    tag_710:\n        /* \"#utility.yul\":25621:25843   */\n      swap3\n      swap2\n      pop\n      pop\n      jump\t// out\n        /* \"#utility.yul\":25849:26029   */\n    tag_423:\n        /* \"#utility.yul\":25897:25974   */\n      0x4e487b7100000000000000000000000000000000000000000000000000000000\n        /* \"#utility.yul\":25894:25895   */\n      0x00\n        /* \"#utility.yul\":25887:25975   */\n      mstore\n        /* \"#utility.yul\":25994:25998   */\n      0x11\n        /* \"#utility.yul\":25991:25992   */\n      0x04\n        /* \"#utility.yul\":25984:25999   */\n      mstore\n        /* \"#utility.yul\":26018:26022   */\n      0x24\n        /* \"#utility.yul\":26015:26016   */\n      0x00\n        /* \"#utility.yul\":26008:26023   */\n      revert\n        /* \"#utility.yul\":26035:26226   */\n    tag_270:\n        /* \"#utility.yul\":26075:26078   */\n      0x00\n        /* \"#utility.yul\":26094:26114   */\n      tag_713\n        /* \"#utility.yul\":26112:26113   */\n      dup3\n        /* \"#utility.yul\":26094:26114   */\n      tag_385\n      jump\t// in\n    tag_713:\n        /* \"#utility.yul\":26089:26114   */\n      swap2\n      pop\n        /* \"#utility.yul\":26128:26148   */\n      tag_714\n        /* \"#utility.yul\":26146:26147   */\n      dup4\n        /* \"#utility.yul\":26128:26148   */\n      tag_385\n      jump\t// in\n    tag_714:\n        /* \"#utility.yul\":26123:26148   */\n      swap3\n      pop\n        /* \"#utility.yul\":26171:26172   */\n      dup3\n        /* \"#utility.yul\":26168:26169   */\n      dup3\n        /* \"#utility.yul\":26164:26173   */\n      add\n        /* \"#utility.yul\":26157:26173   */\n      swap1\n      pop\n        /* \"#utility.yul\":26192:26195   */\n      dup1\n        /* \"#utility.yul\":26189:26190   */\n      dup3\n        /* \"#utility.yul\":26186:26196   */\n      gt\n        /* \"#utility.yul\":26183:26219   */\n      iszero\n      tag_715\n      jumpi\n        /* \"#utility.yul\":26199:26217   */\n      tag_716\n      tag_423\n      jump\t// in\n    tag_716:\n        /* \"#utility.yul\":26183:26219   */\n    tag_715:\n        /* \"#utility.yul\":26035:26226   */\n      swap3\n      swap2\n      pop\n      pop\n      jump\t// out\n        /* \"#utility.yul\":26232:26426   */\n    tag_274:\n        /* \"#utility.yul\":26272:26276   */\n      0x00\n        /* \"#utility.yul\":26292:26312   */\n      tag_718\n        /* \"#utility.yul\":26310:26311   */\n      dup3\n        /* \"#utility.yul\":26292:26312   */\n      tag_385\n      jump\t// in\n    tag_718:\n        /* \"#utility.yul\":26287:26312   */\n      swap2\n      pop\n        /* \"#utility.yul\":26326:26346   */\n      tag_719\n        /* \"#utility.yul\":26344:26345   */\n      dup4\n        /* \"#utility.yul\":26326:26346   */\n      tag_385\n      jump\t// in\n    tag_719:\n        /* \"#utility.yul\":26321:26346   */\n      swap3\n      pop\n        /* \"#utility.yul\":26370:26371   */\n      dup3\n        /* \"#utility.yul\":26367:26368   */\n      dup3\n        /* \"#utility.yul\":26363:26372   */\n      sub\n        /* \"#utility.yul\":26355:26372   */\n      swap1\n      pop\n        /* \"#utility.yul\":26394:26395   */\n      dup2\n        /* \"#utility.yul\":26388:26392   */\n      dup2\n        /* \"#utility.yul\":26385:26396   */\n      gt\n        /* \"#utility.yul\":26382:26419   */\n      iszero\n      tag_720\n      jumpi\n        /* \"#utility.yul\":26399:26417   */\n      tag_721\n      tag_423\n      jump\t// in\n    tag_721:\n        /* \"#utility.yul\":26382:26419   */\n    tag_720:\n        /* \"#utility.yul\":26232:26426   */\n      swap3\n      swap2\n      pop\n      pop\n      jump\t// out\n        /* \"#utility.yul\":26432:26612   */\n    tag_424:\n        /* \"#utility.yul\":26480:26557   */\n      0x4e487b7100000000000000000000000000000000000000000000000000000000\n        /* \"#utility.yul\":26477:26478   */\n      0x00\n        /* \"#utility.yul\":26470:26558   */\n      mstore\n        /* \"#utility.yul\":26577:26581   */\n      0x12\n        /* \"#utility.yul\":26574:26575   */\n      0x04\n        /* \"#utility.yul\":26567:26582   */\n      mstore\n        /* \"#utility.yul\":26601:26605   */\n      0x24\n        /* \"#utility.yul\":26598:26599   */\n      0x00\n        /* \"#utility.yul\":26591:26606   */\n      revert\n        /* \"#utility.yul\":26618:26794   */\n    tag_282:\n        /* \"#utility.yul\":26650:26651   */\n      0x00\n        /* \"#utility.yul\":26667:26687   */\n      tag_724\n        /* \"#utility.yul\":26685:26686   */\n      dup3\n        /* \"#utility.yul\":26667:26687   */\n      tag_385\n      jump\t// in\n    tag_724:\n        /* \"#utility.yul\":26662:26687   */\n      swap2\n      pop\n        /* \"#utility.yul\":26701:26721   */\n      tag_725\n        /* \"#utility.yul\":26719:26720   */\n      dup4\n        /* \"#utility.yul\":26701:26721   */\n      tag_385\n      jump\t// in\n    tag_725:\n        /* \"#utility.yul\":26696:26721   */\n      swap3\n      pop\n        /* \"#utility.yul\":26740:26741   */\n      dup3\n        /* \"#utility.yul\":26730:26765   */\n      tag_726\n      jumpi\n        /* \"#utility.yul\":26745:26763   */\n      tag_727\n      tag_424\n      jump\t// in\n    tag_727:\n        /* \"#utility.yul\":26730:26765   */\n    tag_726:\n        /* \"#utility.yul\":26786:26787   */\n      dup3\n        /* \"#utility.yul\":26783:26784   */\n      dup3\n        /* \"#utility.yul\":26779:26788   */\n      mod\n        /* \"#utility.yul\":26774:26788   */\n      swap1\n      pop\n        /* \"#utility.yul\":26618:26794   */\n      swap3\n      swap2\n      pop\n      pop\n      jump\t// out\n        /* \"#utility.yul\":26800:27210   */\n    tag_317:\n        /* \"#utility.yul\":26840:26847   */\n      0x00\n        /* \"#utility.yul\":26863:26883   */\n      tag_729\n        /* \"#utility.yul\":26881:26882   */\n      dup3\n        /* \"#utility.yul\":26863:26883   */\n      tag_385\n      jump\t// in\n    tag_729:\n        /* \"#utility.yul\":26858:26883   */\n      swap2\n      pop\n        /* \"#utility.yul\":26897:26917   */\n      tag_730\n        /* \"#utility.yul\":26915:26916   */\n      dup4\n        /* \"#utility.yul\":26897:26917   */\n      tag_385\n      jump\t// in\n    tag_730:\n        /* \"#utility.yul\":26892:26917   */\n      swap3\n      pop\n        /* \"#utility.yul\":26952:26953   */\n      dup3\n        /* \"#utility.yul\":26949:26950   */\n      dup3\n        /* \"#utility.yul\":26945:26954   */\n      mul\n        /* \"#utility.yul\":26974:27004   */\n      tag_731\n        /* \"#utility.yul\":26992:27003   */\n      dup2\n        /* \"#utility.yul\":26974:27004   */\n      tag_385\n      jump\t// in\n    tag_731:\n        /* \"#utility.yul\":26963:27004   */\n      swap2\n      pop\n        /* \"#utility.yul\":27153:27154   */\n      dup3\n        /* \"#utility.yul\":27144:27151   */\n      dup3\n        /* \"#utility.yul\":27140:27155   */\n      div\n        /* \"#utility.yul\":27137:27138   */\n      dup5\n        /* \"#utility.yul\":27134:27156   */\n      eq\n        /* \"#utility.yul\":27114:27115   */\n      dup4\n        /* \"#utility.yul\":27107:27116   */\n      iszero\n        /* \"#utility.yul\":27087:27170   */\n      or\n        /* \"#utility.yul\":27064:27203   */\n      tag_732\n      jumpi\n        /* \"#utility.yul\":27183:27201   */\n      tag_733\n      tag_423\n      jump\t// in\n    tag_733:\n        /* \"#utility.yul\":27064:27203   */\n    tag_732:\n        /* \"#utility.yul\":26848:27210   */\n      pop\n        /* \"#utility.yul\":26800:27210   */\n      swap3\n      swap2\n      pop\n      pop\n      jump\t// out\n        /* \"#utility.yul\":27216:27318   */\n    tag_425:\n        /* \"#utility.yul\":27258:27266   */\n      0x00\n        /* \"#utility.yul\":27305:27310   */\n      dup2\n        /* \"#utility.yul\":27302:27303   */\n      0x01\n        /* \"#utility.yul\":27298:27311   */\n      shr\n        /* \"#utility.yul\":27277:27311   */\n      swap1\n      pop\n        /* \"#utility.yul\":27216:27318   */\n      swap2\n      swap1\n      pop\n      jump\t// out\n        /* \"#utility.yul\":27324:28172   */\n    tag_426:\n        /* \"#utility.yul\":27385:27390   */\n      0x00\n        /* \"#utility.yul\":27392:27396   */\n      0x00\n        /* \"#utility.yul\":27416:27422   */\n      dup3\n        /* \"#utility.yul\":27407:27422   */\n      swap2\n      pop\n        /* \"#utility.yul\":27440:27445   */\n      dup4\n        /* \"#utility.yul\":27431:27445   */\n      swap1\n      pop\n        /* \"#utility.yul\":27454:28166   */\n    tag_736:\n        /* \"#utility.yul\":27475:27476   */\n      0x01\n        /* \"#utility.yul\":27465:27473   */\n      dup6\n        /* \"#utility.yul\":27462:27477   */\n      gt\n        /* \"#utility.yul\":27454:28166   */\n      iszero\n      tag_738\n      jumpi\n        /* \"#utility.yul\":27570:27574   */\n      dup1\n        /* \"#utility.yul\":27565:27568   */\n      dup7\n        /* \"#utility.yul\":27561:27575   */\n      div\n        /* \"#utility.yul\":27555:27559   */\n      dup2\n        /* \"#utility.yul\":27552:27576   */\n      gt\n        /* \"#utility.yul\":27549:27599   */\n      iszero\n      tag_739\n      jumpi\n        /* \"#utility.yul\":27579:27597   */\n      tag_740\n      tag_423\n      jump\t// in\n    tag_740:\n        /* \"#utility.yul\":27549:27599   */\n    tag_739:\n        /* \"#utility.yul\":27629:27630   */\n      0x01\n        /* \"#utility.yul\":27619:27627   */\n      dup6\n        /* \"#utility.yul\":27615:27631   */\n      and\n        /* \"#utility.yul\":27612:28063   */\n      iszero\n      tag_741\n      jumpi\n        /* \"#utility.yul\":28044:28048   */\n      dup1\n        /* \"#utility.yul\":28037:28042   */\n      dup3\n        /* \"#utility.yul\":28033:28049   */\n      mul\n        /* \"#utility.yul\":28024:28049   */\n      swap2\n      pop\n        /* \"#utility.yul\":27612:28063   */\n    tag_741:\n        /* \"#utility.yul\":28094:28098   */\n      dup1\n        /* \"#utility.yul\":28088:28092   */\n      dup2\n        /* \"#utility.yul\":28084:28099   */\n      mul\n        /* \"#utility.yul\":28076:28099   */\n      swap1\n      pop\n        /* \"#utility.yul\":28124:28156   */\n      tag_742\n        /* \"#utility.yul\":28147:28155   */\n      dup6\n        /* \"#utility.yul\":28124:28156   */\n      tag_425\n      jump\t// in\n    tag_742:\n        /* \"#utility.yul\":28112:28156   */\n      swap5\n      pop\n        /* \"#utility.yul\":27454:28166   */\n      jump(tag_736)\n    tag_738:\n        /* \"#utility.yul\":27324:28172   */\n      swap5\n      pop\n      swap5\n      swap3\n      pop\n      pop\n      pop\n      jump\t// out\n        /* \"#utility.yul\":28178:29251   */\n    tag_427:\n        /* \"#utility.yul\":28232:28237   */\n      0x00\n        /* \"#utility.yul\":28423:28431   */\n      dup3\n        /* \"#utility.yul\":28413:28453   */\n      tag_744\n      jumpi\n        /* \"#utility.yul\":28444:28445   */\n      0x01\n        /* \"#utility.yul\":28435:28445   */\n      swap1\n      pop\n        /* \"#utility.yul\":28446:28451   */\n      jump(tag_743)\n        /* \"#utility.yul\":28413:28453   */\n    tag_744:\n        /* \"#utility.yul\":28472:28476   */\n      dup2\n        /* \"#utility.yul\":28462:28498   */\n      tag_745\n      jumpi\n        /* \"#utility.yul\":28489:28490   */\n      0x00\n        /* \"#utility.yul\":28480:28490   */\n      swap1\n      pop\n        /* \"#utility.yul\":28491:28496   */\n      jump(tag_743)\n        /* \"#utility.yul\":28462:28498   */\n    tag_745:\n        /* \"#utility.yul\":28558:28562   */\n      dup2\n        /* \"#utility.yul\":28606:28607   */\n      0x01\n        /* \"#utility.yul\":28601:28628   */\n      dup2\n      eq\n      tag_747\n      jumpi\n        /* \"#utility.yul\":28642:28643   */\n      0x02\n        /* \"#utility.yul\":28637:28828   */\n      dup2\n      eq\n      tag_748\n      jumpi\n        /* \"#utility.yul\":28551:28828   */\n      jump(tag_746)\n        /* \"#utility.yul\":28601:28628   */\n    tag_747:\n        /* \"#utility.yul\":28619:28620   */\n      0x01\n        /* \"#utility.yul\":28610:28620   */\n      swap2\n      pop\n        /* \"#utility.yul\":28621:28626   */\n      pop\n      jump(tag_743)\n        /* \"#utility.yul\":28637:28828   */\n    tag_748:\n        /* \"#utility.yul\":28682:28685   */\n      0xff\n        /* \"#utility.yul\":28672:28680   */\n      dup5\n        /* \"#utility.yul\":28669:28686   */\n      gt\n        /* \"#utility.yul\":28666:28709   */\n      iszero\n      tag_749\n      jumpi\n        /* \"#utility.yul\":28689:28707   */\n      tag_750\n      tag_423\n      jump\t// in\n    tag_750:\n        /* \"#utility.yul\":28666:28709   */\n    tag_749:\n        /* \"#utility.yul\":28738:28746   */\n      dup4\n        /* \"#utility.yul\":28735:28736   */\n      0x02\n        /* \"#utility.yul\":28731:28747   */\n      exp\n        /* \"#utility.yul\":28722:28747   */\n      swap2\n      pop\n        /* \"#utility.yul\":28773:28776   */\n      dup5\n        /* \"#utility.yul\":28766:28771   */\n      dup3\n        /* \"#utility.yul\":28763:28777   */\n      gt\n        /* \"#utility.yul\":28760:28800   */\n      iszero\n      tag_751\n      jumpi\n        /* \"#utility.yul\":28780:28798   */\n      tag_752\n      tag_423\n      jump\t// in\n    tag_752:\n        /* \"#utility.yul\":28760:28800   */\n    tag_751:\n        /* \"#utility.yul\":28813:28818   */\n      pop\n      jump(tag_743)\n        /* \"#utility.yul\":28551:28828   */\n    tag_746:\n      pop\n        /* \"#utility.yul\":28937:28939   */\n      0x20\n        /* \"#utility.yul\":28927:28935   */\n      dup4\n        /* \"#utility.yul\":28924:28940   */\n      lt\n        /* \"#utility.yul\":28918:28921   */\n      0x0133\n        /* \"#utility.yul\":28912:28916   */\n      dup4\n        /* \"#utility.yul\":28909:28922   */\n      lt\n        /* \"#utility.yul\":28905:28941   */\n      and\n        /* \"#utility.yul\":28887:28889   */\n      0x4e\n        /* \"#utility.yul\":28877:28885   */\n      dup5\n        /* \"#utility.yul\":28874:28890   */\n      lt\n        /* \"#utility.yul\":28869:28871   */\n      0x0b\n        /* \"#utility.yul\":28863:28867   */\n      dup5\n        /* \"#utility.yul\":28860:28872   */\n      lt\n        /* \"#utility.yul\":28856:28891   */\n      and\n        /* \"#utility.yul\":28840:28951   */\n      or\n        /* \"#utility.yul\":28837:29083   */\n      iszero\n      tag_753\n      jumpi\n        /* \"#utility.yul\":28993:29001   */\n      dup3\n        /* \"#utility.yul\":28987:28991   */\n      dup3\n        /* \"#utility.yul\":28983:29002   */\n      exp\n        /* \"#utility.yul\":28974:29002   */\n      swap1\n      pop\n        /* \"#utility.yul\":29028:29031   */\n      dup4\n        /* \"#utility.yul\":29021:29026   */\n      dup2\n        /* \"#utility.yul\":29018:29032   */\n      gt\n        /* \"#utility.yul\":29015:29055   */\n      iszero\n      tag_754\n      jumpi\n        /* \"#utility.yul\":29035:29053   */\n      tag_755\n      tag_423\n      jump\t// in\n    tag_755:\n        /* \"#utility.yul\":29015:29055   */\n    tag_754:\n        /* \"#utility.yul\":29068:29073   */\n      jump(tag_743)\n        /* \"#utility.yul\":28837:29083   */\n    tag_753:\n        /* \"#utility.yul\":29108:29150   */\n      tag_756\n        /* \"#utility.yul\":29146:29149   */\n      dup5\n        /* \"#utility.yul\":29136:29144   */\n      dup5\n        /* \"#utility.yul\":29130:29134   */\n      dup5\n        /* \"#utility.yul\":29127:29128   */\n      0x01\n        /* \"#utility.yul\":29108:29150   */\n      tag_426\n      jump\t// in\n    tag_756:\n        /* \"#utility.yul\":29093:29150   */\n      swap3\n      pop\n      swap1\n      pop\n        /* \"#utility.yul\":29182:29186   */\n      dup2\n        /* \"#utility.yul\":29177:29180   */\n      dup5\n        /* \"#utility.yul\":29173:29187   */\n      div\n        /* \"#utility.yul\":29166:29171   */\n      dup2\n        /* \"#utility.yul\":29163:29188   */\n      gt\n        /* \"#utility.yul\":29160:29211   */\n      iszero\n      tag_757\n      jumpi\n        /* \"#utility.yul\":29191:29209   */\n      tag_758\n      tag_423\n      jump\t// in\n    tag_758:\n        /* \"#utility.yul\":29160:29211   */\n    tag_757:\n        /* \"#utility.yul\":29240:29244   */\n      dup2\n        /* \"#utility.yul\":29233:29238   */\n      dup2\n        /* \"#utility.yul\":29229:29245   */\n      mul\n        /* \"#utility.yul\":29220:29245   */\n      swap1\n      pop\n        /* \"#utility.yul\":28178:29251   */\n    tag_743:\n      swap4\n      swap3\n      pop\n      pop\n      pop\n      jump\t// out\n        /* \"#utility.yul\":29257:29542   */\n    tag_329:\n        /* \"#utility.yul\":29317:29322   */\n      0x00\n        /* \"#utility.yul\":29341:29364   */\n      tag_760\n        /* \"#utility.yul\":29359:29363   */\n      dup3\n        /* \"#utility.yul\":29341:29364   */\n      tag_385\n      jump\t// in\n    tag_760:\n        /* \"#utility.yul\":29333:29364   */\n      swap2\n      pop\n        /* \"#utility.yul\":29385:29412   */\n      tag_761\n        /* \"#utility.yul\":29403:29411   */\n      dup4\n        /* \"#utility.yul\":29385:29412   */\n      tag_385\n      jump\t// in\n    tag_761:\n        /* \"#utility.yul\":29373:29412   */\n      swap3\n      pop\n        /* \"#utility.yul\":29431:29535   */\n      tag_762\n        /* \"#utility.yul\":29468:29534   */\n      0xffffffffffffffffffffffffffffffffffffffffffffffffffffffffffffffff\n        /* \"#utility.yul\":29458:29466   */\n      dup5\n        /* \"#utility.yul\":29452:29456   */\n      dup5\n        /* \"#utility.yul\":29431:29535   */\n      tag_427\n      jump\t// in\n    tag_762:\n        /* \"#utility.yul\":29422:29535   */\n      swap1\n      pop\n        /* \"#utility.yul\":29257:29542   */\n      swap3\n      swap2\n      pop\n      pop\n      jump\t// out\n\n    auxdata: 0xa26469706673582212204bce6e387e6c4ab3b058b6170ac2a2a69497f9ff12578ff1370d2fee89012b9564736f6c634300081b0033\n}\n",
				"bytecode": {
					"linkReferences": {},
					"object": "60a060405273a9d587a00a31a52ed70d6026794a8fc5e2f5dcb060055f6101000a81548173ffffffffffffffffffffffffffffffffffffffff021916908373ffffffffffffffffffffffffffffffffffffffff1602179055507f66756e2d6176616c616e6368652d66756a692d310000000000000000000000005f1b600655620493e060075f6101000a81548163ffffffff021916908363ffffffff16021790555060405180610140016040528061010381526020016130b66101039139600890816100cb91906103bc565b503480156100d7575f5ffd5b506040516131b93803806131b983398181016040528101906100f991906104cc565b60055f9054906101000a900473ffffffffffffffffffffffffffffffffffffffff168073ffffffffffffffffffffffffffffffffffffffff1660808173ffffffffffffffffffffffffffffffffffffffff16815250505080600760046101000a81548167ffffffffffffffff021916908367ffffffffffffffff160217905550506104f7565b5f81519050919050565b7f4e487b71000000000000000000000000000000000000000000000000000000005f52604160045260245ffd5b7f4e487b71000000000000000000000000000000000000000000000000000000005f52602260045260245ffd5b5f60028204905060018216806101fa57607f821691505b60208210810361020d5761020c6101b6565b5b50919050565b5f819050815f5260205f209050919050565b5f6020601f8301049050919050565b5f82821b905092915050565b5f6008830261026f7fffffffffffffffffffffffffffffffffffffffffffffffffffffffffffffffff82610234565b6102798683610234565b95508019841693508086168417925050509392505050565b5f819050919050565b5f819050919050565b5f6102bd6102b86102b384610291565b61029a565b610291565b9050919050565b5f819050919050565b6102d6836102a3565b6102ea6102e2826102c4565b848454610240565b825550505050565b5f5f905090565b6103016102f2565b61030c8184846102cd565b505050565b5b8181101561032f576103245f826102f9565b600181019050610312565b5050565b601f8211156103745761034581610213565b61034e84610225565b8101602085101561035d578190505b61037161036985610225565b830182610311565b50505b505050565b5f82821c905092915050565b5f6103945f1984600802610379565b1980831691505092915050565b5f6103ac8383610385565b9150826002028217905092915050565b6103c58261017f565b67ffffffffffffffff8111156103de576103dd610189565b5b6103e882546101e3565b6103f3828285610333565b5f60209050601f831160018114610424575f8415610412578287015190505b61041c85826103a1565b865550610483565b601f19841661043286610213565b5f5b8281101561045957848901518255600182019150602085019450602081019050610434565b868310156104765784890151610472601f891682610385565b8355505b6001600288020188555050505b505050505050565b5f5ffd5b5f67ffffffffffffffff82169050919050565b6104ab8161048f565b81146104b5575f5ffd5b50565b5f815190506104c6816104a2565b92915050565b5f602082840312156104e1576104e061048b565b5b5f6104ee848285016104b8565b91505092915050565b608051612ba06105165f395f818161030901526113930152612ba05ff3fe608060405234801561000f575f5ffd5b50600436106100e8575f3560e01c8063784b9aeb1161008a5780639fb51771116100645780639fb5177114610263578063a02e98df14610281578063cd2b8d11146102b1578063fc2a88c3146102cf576100e8565b8063784b9aeb146101d05780638796ba8c146102005780639d86698514610230576100e8565b806329f0de3f116100c657806329f0de3f146101445780632a916a621461016257806362747e421461019457806367e828bf146101b2576100e8565b806309c1ba2e146100ec5780630ca761751461010a578063256fec8814610126575b5f5ffd5b6100f46102ed565b6040516101019190611b37565b60405180910390f35b610124600480360381019061011f9190611cd0565b610307565b005b61012e6103c9565b60405161013b9190611d97565b60405180910390f35b61014c6103ee565b6040516101599190611e10565b60405180910390f35b61017c60048036038101906101779190611e5a565b61047a565b60405161018b93929190611eef565b60405180910390f35b61019c6105ac565b6040516101a99190611e10565b60405180910390f35b6101ba610638565b6040516101c79190611f32565b60405180910390f35b6101ea60048036038101906101e59190611ff0565b6106c4565b6040516101f79190612046565b60405180910390f35b61021a60048036038101906102159190612089565b610a66565b6040516102279190612046565b60405180910390f35b61024a600480360381019061024591906120b4565b610a86565b60405161025a94939291906120f9565b60405180910390f35b61026b610bd6565b6040516102789190611f32565b60405180910390f35b61029b600480360381019061029691906120b4565b610c62565b6040516102a89190611d97565b60405180910390f35b6102b9610c92565b6040516102c69190611f32565b60405180910390f35b6102d7610d1e565b6040516102e49190612046565b60405180910390f35b600760049054906101000a900467ffffffffffffffff1681565b7f000000000000000000000000000000000000000000000000000000000000000073ffffffffffffffffffffffffffffffffffffffff163373ffffffffffffffffffffffffffffffffffffffff161461038c576040517fc6829f8300000000000000000000000000000000000000000000000000000000815260040160405180910390fd5b610397838383610d23565b827f85e1543bf2f84fe80c6badbce3648c8539ad1df4d2b3d822938ca0538be727e660405160405180910390a2505050565b600b5f9054906101000a900473ffffffffffffffffffffffffffffffffffffffff1681565b600280546103fb90612177565b80601f016020809104026020016040519081016040528092919081815260200182805461042790612177565b80156104725780601f1061044957610100808354040283529160200191610472565b820191905f5260205f20905b81548152906001019060200180831161045557829003601f168201915b505050505081565b600c602052805f5260405f205f91509050805f01805461049990612177565b80601f01602080910402602001604051908101604052809291908181526020018280546104c590612177565b80156105105780601f106104e757610100808354040283529160200191610510565b820191905f5260205f20905b8154815290600101906020018083116104f357829003601f168201915b50505050509080600101805461052590612177565b80601f016020809104026020016040519081016040528092919081815260200182805461055190612177565b801561059c5780601f106105735761010080835404028352916020019161059c565b820191905f5260205f20905b81548152906001019060200180831161057f57829003601f168201915b5050505050908060020154905083565b600180546105b990612177565b80601f01602080910402602001604051908101604052809291908181526020018280546105e590612177565b80156106305780601f1061060757610100808354040283529160200191610630565b820191905f5260205f20905b81548152906001019060200180831161061357829003601f168201915b505050505081565b6008805461064590612177565b80601f016020809104026020016040519081016040528092919081815260200182805461067190612177565b80156106bc5780601f10610693576101008083540402835291602001916106bc565b820191905f5260205f20905b81548152906001019060200180831161069f57829003601f168201915b505050505081565b5f5f600167ffffffffffffffff8111156106e1576106e0611bac565b5b60405190808252806020026020018201604052801561071457816020015b60608152602001906001900390816106ff5790505b50905082815f8151811061072b5761072a6121a7565b5b602002602001018190525061073e611a6e565b6107d96008805461074e90612177565b80601f016020809104026020016040519081016040528092919081815260200182805461077a90612177565b80156107c55780601f1061079c576101008083540402835291602001916107c5565b820191905f5260205f20905b8154815290600101906020018083116107a857829003601f168201915b505050505082610f2d90919063ffffffff16565b5f825111156107f6576107f58282610f3d90919063ffffffff16565b5b61083361080282610f84565b600760049054906101000a900467ffffffffffffffff1660075f9054906101000a900463ffffffff1660065461138f565b5f8190555083600990816108479190612374565b5060405180608001604052805f1515815260200160011515815260200160405180602001604052805f815250815260200160405180602001604052805f81525081525060035f5f5481526020019081526020015f205f820151815f015f6101000a81548160ff0219169083151502179055506020820151815f0160016101000a81548160ff02191690831515021790555060408201518160010190816108ed919061249b565b506060820151816002019081610903919061249b565b50905050604051806060016040528085815260200160405180602001604052805f81525081526020015f815250600c5f3373ffffffffffffffffffffffffffffffffffffffff1673ffffffffffffffffffffffffffffffffffffffff1681526020019081526020015f205f820151815f0190816109809190612374565b5060208201518160010190816109969190612374565b506040820151816002015590505033600d5f5f5481526020019081526020015f205f6101000a81548173ffffffffffffffffffffffffffffffffffffffff021916908373ffffffffffffffffffffffffffffffffffffffff16021790555033600b5f6101000a81548173ffffffffffffffffffffffffffffffffffffffff021916908373ffffffffffffffffffffffffffffffffffffffff16021790555060045f54908060018154018082558091505060019003905f5260205f20015f90919091909150555f5492505050919050565b60048181548110610a75575f80fd5b905f5260205f20015f915090505481565b6003602052805f5260405f205f91509050805f015f9054906101000a900460ff1690805f0160019054906101000a900460ff1690806001018054610ac990612177565b80601f0160208091040260200160405190810160405280929190818152602001828054610af590612177565b8015610b405780601f10610b1757610100808354040283529160200191610b40565b820191905f5260205f20905b815481529060010190602001808311610b2357829003601f168201915b505050505090806002018054610b5590612177565b80601f0160208091040260200160405190810160405280929190818152602001828054610b8190612177565b8015610bcc5780601f10610ba357610100808354040283529160200191610bcc565b820191905f5260205f20905b815481529060010190602001808311610baf57829003601f168201915b5050505050905084565b600a8054610be390612177565b80601f0160208091040260200160405190810160405280929190818152602001828054610c0f90612177565b8015610c5a5780601f10610c3157610100808354040283529160200191610c5a565b820191905f5260205f20905b815481529060010190602001808311610c3d57829003601f168201915b505050505081565b600d602052805f5260405f205f915054906101000a900473ffffffffffffffffffffffffffffffffffffffff1681565b60098054610c9f90612177565b80601f0160208091040260200160405190810160405280929190818152602001828054610ccb90612177565b8015610d165780601f10610ced57610100808354040283529160200191610d16565b820191905f5260205f20905b815481529060010190602001808311610cf957829003601f168201915b505050505081565b5f5481565b60035f8481526020019081526020015f205f0160019054906101000a900460ff16610d83576040517f08c379a0000000000000000000000000000000000000000000000000000000008152600401610d7a906125b4565b60405180910390fd5b8060029081610d92919061249b565b508160019081610da2919061249b565b5081600a9081610db29190612374565b50600160035f8581526020019081526020015f205f015f6101000a81548160ff0219169083151502179055508060035f8581526020019081526020015f206002019081610dff919061249b565b508160035f8581526020019081526020015f206001019081610e21919061249b565b505f600d5f8581526020019081526020015f205f9054906101000a900473ffffffffffffffffffffffffffffffffffffffff169050600a600c5f8373ffffffffffffffffffffffffffffffffffffffff1673ffffffffffffffffffffffffffffffffffffffff1681526020019081526020015f206001019081610ea491906125f9565b5042600c5f8373ffffffffffffffffffffffffffffffffffffffff1673ffffffffffffffffffffffffffffffffffffffff1681526020019081526020015f2060020181905550837f160ed0aaffbef6885155188b91459cb5a97d5daadccf7561d8c46deea6641b50600a8585604051610f1f9392919061275f565b60405180910390a250505050565b610f39825f5f8461146e565b5050565b5f815103610f77576040517ffe936cb700000000000000000000000000000000000000000000000000000000815260040160405180910390fd5b808260a001819052505050565b60605f610f92610100611514565b9050610fdc6040518060400160405280600c81526020017f636f64654c6f636174696f6e00000000000000000000000000000000000000008152508261153990919063ffffffff16565b611004835f01516002811115610ff557610ff46127a9565b5b8261156190919063ffffffff16565b61104c6040518060400160405280600881526020017f6c616e67756167650000000000000000000000000000000000000000000000008152508261153990919063ffffffff16565b61107483604001515f811115611065576110646127a9565b5b8261156190919063ffffffff16565b6110bc6040518060400160405280600681526020017f736f7572636500000000000000000000000000000000000000000000000000008152508261153990919063ffffffff16565b6110d383606001518261153990919063ffffffff16565b5f8360a0015151111561118a576111286040518060400160405280600481526020017f61726773000000000000000000000000000000000000000000000000000000008152508261153990919063ffffffff16565b611131816115b0565b5f5f90505b8360a001515181101561117f576111748460a00151828151811061115d5761115c6121a7565b5b60200260200101518361153990919063ffffffff16565b806001019050611136565b50611189816115d8565b5b5f83608001515111156112c9575f60028111156111aa576111a96127a9565b5b836020015160028111156111c1576111c06127a9565b5b036111f8576040517fa80d31f700000000000000000000000000000000000000000000000000000000815260040160405180910390fd5b6112406040518060400160405280600f81526020017f736563726574734c6f636174696f6e00000000000000000000000000000000008152508261153990919063ffffffff16565b6112698360200151600281111561125a576112596127a9565b5b8261156190919063ffffffff16565b6112b16040518060400160405280600781526020017f73656372657473000000000000000000000000000000000000000000000000008152508261153990919063ffffffff16565b6112c883608001518261160090919063ffffffff16565b5b5f8360c001515111156113805761131e6040518060400160405280600981526020017f62797465734172677300000000000000000000000000000000000000000000008152508261153990919063ffffffff16565b611327816115b0565b5f5f90505b8360c00151518110156113755761136a8460c001518281518110611353576113526121a7565b5b60200260200101518361160090919063ffffffff16565b80600101905061132c565b5061137f816115d8565b5b805f01515f0151915050919050565b5f5f7f000000000000000000000000000000000000000000000000000000000000000073ffffffffffffffffffffffffffffffffffffffff1663461d27628688600188886040518663ffffffff1660e01b81526004016113f3959493929190612810565b6020604051808303815f875af115801561140f573d5f5f3e3d5ffd5b505050506040513d601f19601f82011682018060405250810190611433919061287c565b9050807f1131472297a800fee664d1d89cfa8f7676ff07189ecc53f80bbb5f4969099db860405160405180910390a280915050949350505050565b5f8151036114a8576040517f22ce3edd00000000000000000000000000000000000000000000000000000000815260040160405180910390fd5b82845f019060028111156114bf576114be6127a9565b5b908160028111156114d3576114d26127a9565b5b815250508184604001905f8111156114ee576114ed6127a9565b5b90815f811115611501576115006127a9565b5b8152505080846060018190525050505050565b61151c611add565b611529815f015183611628565b505f816020018181525050919050565b611546826003835161169e565b61155c81835f015161183e90919063ffffffff16565b505050565b61158260026005600660ff16901b17835f015161185a90919063ffffffff16565b506115ac828260405160200161159891906128a7565b604051602081830303815290604052611600565b5050565b6115bb8160046118c1565b6001816020018181516115ce91906128ed565b9150818152505050565b6115e38160076118c1565b6001816020018181516115f69190612920565b9150818152505050565b61160d826002835161169e565b61162381835f015161183e90919063ffffffff16565b505050565b611630611afc565b5f60208361163e9190612980565b1461166a576020826116509190612980565b602061165c9190612920565b8261166791906128ed565b91505b818360200181815250506040518084525f81528281016020018181101561168f575f5ffd5b80604052505082905092915050565b60178167ffffffffffffffff16116116d8576116d28160058460ff16901b60ff1617845f015161185a90919063ffffffff16565b50611839565b60ff8167ffffffffffffffff16116117345761170a601860058460ff16901b17845f015161185a90919063ffffffff16565b5061172e8167ffffffffffffffff166001855f01516118e69092919063ffffffff16565b50611838565b61ffff8167ffffffffffffffff161161179157611767601960058460ff16901b17845f015161185a90919063ffffffff16565b5061178b8167ffffffffffffffff166002855f01516118e69092919063ffffffff16565b50611837565b63ffffffff8167ffffffffffffffff16116117f0576117c6601a60058460ff16901b17845f015161185a90919063ffffffff16565b506117ea8167ffffffffffffffff166004855f01516118e69092919063ffffffff16565b50611836565b611810601b60058460ff16901b17845f015161185a90919063ffffffff16565b506118348167ffffffffffffffff166008855f01516118e69092919063ffffffff16565b505b5b5b5b505050565b611846611afc565b6118528383845161196f565b905092915050565b611862611afc565b5f835f01515190505f60018261187891906128ed565b90508460200151821061189c5761189b8560028361189691906129b0565b611a4c565b5b845160208382010185815381518311156118b4578282525b5050849250505092915050565b6118e1601f60058360ff16901b17835f015161185a90919063ffffffff16565b505050565b6118ee611afc565b5f845f01515190505f818461190391906128ed565b90508560200151811115611928576119278660028361192291906129b0565b611a4c565b5b5f6001856101006119399190612b20565b6119439190612920565b905086518281018783198251161781528151841115611960578382525b50508693505050509392505050565b611977611afc565b8251821115611984575f5ffd5b5f845f01515190505f838261199991906128ed565b905085602001518111156119be576119bd866002836119b891906129b0565b611a4c565b5b5f5f875180518560208301019350808511156119d8578482525b60208901925050505b60208610611a1f57805182526020826119fa91906128ed565b9150602081611a0991906128ed565b9050602086611a189190612920565b95506119e1565b5f6001876020036101000a0390508019825116818451168181178552505050879450505050509392505050565b5f825f01519050611a5d8383611628565b50611a68838261183e565b50505050565b6040518060e001604052805f6002811115611a8c57611a8b6127a9565b5b81526020015f6002811115611aa457611aa36127a9565b5b81526020015f5f811115611abb57611aba6127a9565b5b8152602001606081526020016060815260200160608152602001606081525090565b6040518060400160405280611af0611afc565b81526020015f81525090565b6040518060400160405280606081526020015f81525090565b5f67ffffffffffffffff82169050919050565b611b3181611b15565b82525050565b5f602082019050611b4a5f830184611b28565b92915050565b5f604051905090565b5f5ffd5b5f5ffd5b5f819050919050565b611b7381611b61565b8114611b7d575f5ffd5b50565b5f81359050611b8e81611b6a565b92915050565b5f5ffd5b5f5ffd5b5f601f19601f8301169050919050565b7f4e487b71000000000000000000000000000000000000000000000000000000005f52604160045260245ffd5b611be282611b9c565b810181811067ffffffffffffffff82111715611c0157611c00611bac565b5b80604052505050565b5f611c13611b50565b9050611c1f8282611bd9565b919050565b5f67ffffffffffffffff821115611c3e57611c3d611bac565b5b611c4782611b9c565b9050602081019050919050565b828183375f83830152505050565b5f611c74611c6f84611c24565b611c0a565b905082815260208101848484011115611c9057611c8f611b98565b5b611c9b848285611c54565b509392505050565b5f82601f830112611cb757611cb6611b94565b5b8135611cc7848260208601611c62565b91505092915050565b5f5f5f60608486031215611ce757611ce6611b59565b5b5f611cf486828701611b80565b935050602084013567ffffffffffffffff811115611d1557611d14611b5d565b5b611d2186828701611ca3565b925050604084013567ffffffffffffffff811115611d4257611d41611b5d565b5b611d4e86828701611ca3565b9150509250925092565b5f73ffffffffffffffffffffffffffffffffffffffff82169050919050565b5f611d8182611d58565b9050919050565b611d9181611d77565b82525050565b5f602082019050611daa5f830184611d88565b92915050565b5f81519050919050565b5f82825260208201905092915050565b8281835e5f83830152505050565b5f611de282611db0565b611dec8185611dba565b9350611dfc818560208601611dca565b611e0581611b9c565b840191505092915050565b5f6020820190508181035f830152611e288184611dd8565b905092915050565b611e3981611d77565b8114611e43575f5ffd5b50565b5f81359050611e5481611e30565b92915050565b5f60208284031215611e6f57611e6e611b59565b5b5f611e7c84828501611e46565b91505092915050565b5f81519050919050565b5f82825260208201905092915050565b5f611ea982611e85565b611eb38185611e8f565b9350611ec3818560208601611dca565b611ecc81611b9c565b840191505092915050565b5f819050919050565b611ee981611ed7565b82525050565b5f6060820190508181035f830152611f078186611e9f565b90508181036020830152611f1b8185611e9f565b9050611f2a6040830184611ee0565b949350505050565b5f6020820190508181035f830152611f4a8184611e9f565b905092915050565b5f67ffffffffffffffff821115611f6c57611f6b611bac565b5b611f7582611b9c565b9050602081019050919050565b5f611f94611f8f84611f52565b611c0a565b905082815260208101848484011115611fb057611faf611b98565b5b611fbb848285611c54565b509392505050565b5f82601f830112611fd757611fd6611b94565b5b8135611fe7848260208601611f82565b91505092915050565b5f6020828403121561200557612004611b59565b5b5f82013567ffffffffffffffff81111561202257612021611b5d565b5b61202e84828501611fc3565b91505092915050565b61204081611b61565b82525050565b5f6020820190506120595f830184612037565b92915050565b61206881611ed7565b8114612072575f5ffd5b50565b5f813590506120838161205f565b92915050565b5f6020828403121561209e5761209d611b59565b5b5f6120ab84828501612075565b91505092915050565b5f602082840312156120c9576120c8611b59565b5b5f6120d684828501611b80565b91505092915050565b5f8115159050919050565b6120f3816120df565b82525050565b5f60808201905061210c5f8301876120ea565b61211960208301866120ea565b818103604083015261212b8185611dd8565b9050818103606083015261213f8184611dd8565b905095945050505050565b7f4e487b71000000000000000000000000000000000000000000000000000000005f52602260045260245ffd5b5f600282049050600182168061218e57607f821691505b6020821081036121a1576121a061214a565b5b50919050565b7f4e487b71000000000000000000000000000000000000000000000000000000005f52603260045260245ffd5b5f819050815f5260205f209050919050565b5f6020601f8301049050919050565b5f82821b905092915050565b5f600883026122307fffffffffffffffffffffffffffffffffffffffffffffffffffffffffffffffff826121f5565b61223a86836121f5565b95508019841693508086168417925050509392505050565b5f819050919050565b5f61227561227061226b84611ed7565b612252565b611ed7565b9050919050565b5f819050919050565b61228e8361225b565b6122a261229a8261227c565b848454612201565b825550505050565b5f5f905090565b6122b96122aa565b6122c4818484612285565b505050565b5b818110156122e7576122dc5f826122b1565b6001810190506122ca565b5050565b601f82111561232c576122fd816121d4565b612306846121e6565b81016020851015612315578190505b612329612321856121e6565b8301826122c9565b50505b505050565b5f82821c905092915050565b5f61234c5f1984600802612331565b1980831691505092915050565b5f612364838361233d565b9150826002028217905092915050565b61237d82611e85565b67ffffffffffffffff81111561239657612395611bac565b5b6123a08254612177565b6123ab8282856122eb565b5f60209050601f8311600181146123dc575f84156123ca578287015190505b6123d48582612359565b86555061243b565b601f1984166123ea866121d4565b5f5b82811015612411578489015182556001820191506020850194506020810190506123ec565b8683101561242e578489015161242a601f89168261233d565b8355505b6001600288020188555050505b505050505050565b5f819050815f5260205f209050919050565b601f8211156124965761246781612443565b612470846121e6565b8101602085101561247f578190505b61249361248b856121e6565b8301826122c9565b50505b505050565b6124a482611db0565b67ffffffffffffffff8111156124bd576124bc611bac565b5b6124c78254612177565b6124d2828285612455565b5f60209050601f831160018114612503575f84156124f1578287015190505b6124fb8582612359565b865550612562565b601f19841661251186612443565b5f5b8281101561253857848901518255600182019150602085019450602081019050612513565b868310156125555784890151612551601f89168261233d565b8355505b6001600288020188555050505b505050505050565b7f72657175657374206e6f7420666f756e640000000000000000000000000000005f82015250565b5f61259e601183611e8f565b91506125a98261256a565b602082019050919050565b5f6020820190508181035f8301526125cb81612592565b9050919050565b5f815490506125e081612177565b9050919050565b5f819050815f5260205f209050919050565b8181036126075750506126dc565b612610826125d2565b67ffffffffffffffff81111561262957612628611bac565b5b6126338254612177565b61263e8282856122eb565b5f601f83116001811461266b575f8415612659578287015490505b6126638582612359565b8655506126d5565b601f198416612679876125e7565b9650612684866121d4565b5f5b828110156126ab57848901548255600182019150600185019450602081019050612686565b868310156126c857848901546126c4601f89168261233d565b8355505b6001600288020188555050505b5050505050505b565b5f81546126ea81612177565b6126f48186611e8f565b9450600182165f811461270e576001811461272457612756565b60ff198316865281151560200286019350612756565b61272d856121d4565b5f5b8381101561274e5781548189015260018201915060208101905061272f565b808801955050505b50505092915050565b5f6060820190508181035f83015261277781866126de565b9050818103602083015261278b8185611dd8565b9050818103604083015261279f8184611dd8565b9050949350505050565b7f4e487b71000000000000000000000000000000000000000000000000000000005f52602160045260245ffd5b5f61ffff82169050919050565b6127ec816127d6565b82525050565b5f63ffffffff82169050919050565b61280a816127f2565b82525050565b5f60a0820190506128235f830188611b28565b81810360208301526128358187611dd8565b905061284460408301866127e3565b6128516060830185612801565b61285e6080830184612037565b9695505050505050565b5f8151905061287681611b6a565b92915050565b5f6020828403121561289157612890611b59565b5b5f61289e84828501612868565b91505092915050565b5f6020820190506128ba5f830184611ee0565b92915050565b7f4e487b71000000000000000000000000000000000000000000000000000000005f52601160045260245ffd5b5f6128f782611ed7565b915061290283611ed7565b925082820190508082111561291a576129196128c0565b5b92915050565b5f61292a82611ed7565b915061293583611ed7565b925082820390508181111561294d5761294c6128c0565b5b92915050565b7f4e487b71000000000000000000000000000000000000000000000000000000005f52601260045260245ffd5b5f61298a82611ed7565b915061299583611ed7565b9250826129a5576129a4612953565b5b828206905092915050565b5f6129ba82611ed7565b91506129c583611ed7565b92508282026129d381611ed7565b915082820484148315176129ea576129e96128c0565b5b5092915050565b5f8160011c9050919050565b5f5f8291508390505b6001851115612a4657808604811115612a2257612a216128c0565b5b6001851615612a315780820291505b8081029050612a3f856129f1565b9450612a06565b94509492505050565b5f82612a5e5760019050612b19565b81612a6b575f9050612b19565b8160018114612a815760028114612a8b57612aba565b6001915050612b19565b60ff841115612a9d57612a9c6128c0565b5b8360020a915084821115612ab457612ab36128c0565b5b50612b19565b5060208310610133831016604e8410600b8410161715612aef5782820a905083811115612aea57612ae96128c0565b5b612b19565b612afc84848460016129fd565b92509050818404811115612b1357612b126128c0565b5b81810290505b9392505050565b5f612b2a82611ed7565b9150612b3583611ed7565b9250612b627fffffffffffffffffffffffffffffffffffffffffffffffffffffffffffffffff8484612a4f565b90509291505056fea26469706673582212204bce6e387e6c4ab3b058b6170ac2a2a69497f9ff12578ff1370d2fee89012b9564736f6c634300081b0033636f6e73742063697479203d20617267735b305d3b636f6e737420617069526573706f6e7365203d2061776169742046756e6374696f6e732e6d616b654874747052657175657374287b75726c3a206068747470733a2f2f777474722e696e2f247b636974797d3f666f726d61743d33266d602c726573706f6e7365547970653a202774657874277d293b69662028617069526573706f6e73652e6572726f7229207b7468726f77204572726f72282752657175657374206661696c656427293b7d636f6e7374207b2064617461207d203d20617069526573706f6e73653b72657475726e2046756e6374696f6e732e656e636f6465537472696e672864617461293b",
					"opcodes": "PUSH1 0xA0 PUSH1 0x40 MSTORE PUSH20 0xA9D587A00A31A52ED70D6026794A8FC5E2F5DCB0 PUSH1 0x5 PUSH0 PUSH2 0x100 EXP DUP2 SLOAD DUP2 PUSH20 0xFFFFFFFFFFFFFFFFFFFFFFFFFFFFFFFFFFFFFFFF MUL NOT AND SWAP1 DUP4 PUSH20 0xFFFFFFFFFFFFFFFFFFFFFFFFFFFFFFFFFFFFFFFF AND MUL OR SWAP1 SSTORE POP PUSH32 0x66756E2D6176616C616E6368652D66756A692D31000000000000000000000000 PUSH0 SHL PUSH1 0x6 SSTORE PUSH3 0x493E0 PUSH1 0x7 PUSH0 PUSH2 0x100 EXP DUP2 SLOAD DUP2 PUSH4 0xFFFFFFFF MUL NOT AND SWAP1 DUP4 PUSH4 0xFFFFFFFF AND MUL OR SWAP1 SSTORE POP PUSH1 0x40 MLOAD DUP1 PUSH2 0x140 ADD PUSH1 0x40 MSTORE DUP1 PUSH2 0x103 DUP2 MSTORE PUSH1 0x20 ADD PUSH2 0x30B6 PUSH2 0x103 SWAP2 CODECOPY PUSH1 0x8 SWAP1 DUP2 PUSH2 0xCB SWAP2 SWAP1 PUSH2 0x3BC JUMP JUMPDEST POP CALLVALUE DUP1 ISZERO PUSH2 0xD7 JUMPI PUSH0 PUSH0 REVERT JUMPDEST POP PUSH1 0x40 MLOAD PUSH2 0x31B9 CODESIZE SUB DUP1 PUSH2 0x31B9 DUP4 CODECOPY DUP2 DUP2 ADD PUSH1 0x40 MSTORE DUP2 ADD SWAP1 PUSH2 0xF9 SWAP2 SWAP1 PUSH2 0x4CC JUMP JUMPDEST PUSH1 0x5 PUSH0 SWAP1 SLOAD SWAP1 PUSH2 0x100 EXP SWAP1 DIV PUSH20 0xFFFFFFFFFFFFFFFFFFFFFFFFFFFFFFFFFFFFFFFF AND DUP1 PUSH20 0xFFFFFFFFFFFFFFFFFFFFFFFFFFFFFFFFFFFFFFFF AND PUSH1 0x80 DUP2 PUSH20 0xFFFFFFFFFFFFFFFFFFFFFFFFFFFFFFFFFFFFFFFF AND DUP2 MSTORE POP POP POP DUP1 PUSH1 0x7 PUSH1 0x4 PUSH2 0x100 EXP DUP2 SLOAD DUP2 PUSH8 0xFFFFFFFFFFFFFFFF MUL NOT AND SWAP1 DUP4 PUSH8 0xFFFFFFFFFFFFFFFF AND MUL OR SWAP1 SSTORE POP POP PUSH2 0x4F7 JUMP JUMPDEST PUSH0 DUP2 MLOAD SWAP1 POP SWAP2 SWAP1 POP JUMP JUMPDEST PUSH32 0x4E487B7100000000000000000000000000000000000000000000000000000000 PUSH0 MSTORE PUSH1 0x41 PUSH1 0x4 MSTORE PUSH1 0x24 PUSH0 REVERT JUMPDEST PUSH32 0x4E487B7100000000000000000000000000000000000000000000000000000000 PUSH0 MSTORE PUSH1 0x22 PUSH1 0x4 MSTORE PUSH1 0x24 PUSH0 REVERT JUMPDEST PUSH0 PUSH1 0x2 DUP3 DIV SWAP1 POP PUSH1 0x1 DUP3 AND DUP1 PUSH2 0x1FA JUMPI PUSH1 0x7F DUP3 AND SWAP2 POP JUMPDEST PUSH1 0x20 DUP3 LT DUP2 SUB PUSH2 0x20D JUMPI PUSH2 0x20C PUSH2 0x1B6 JUMP JUMPDEST JUMPDEST POP SWAP2 SWAP1 POP JUMP JUMPDEST PUSH0 DUP2 SWAP1 POP DUP2 PUSH0 MSTORE PUSH1 0x20 PUSH0 KECCAK256 SWAP1 POP SWAP2 SWAP1 POP JUMP JUMPDEST PUSH0 PUSH1 0x20 PUSH1 0x1F DUP4 ADD DIV SWAP1 POP SWAP2 SWAP1 POP JUMP JUMPDEST PUSH0 DUP3 DUP3 SHL SWAP1 POP SWAP3 SWAP2 POP POP JUMP JUMPDEST PUSH0 PUSH1 0x8 DUP4 MUL PUSH2 0x26F PUSH32 0xFFFFFFFFFFFFFFFFFFFFFFFFFFFFFFFFFFFFFFFFFFFFFFFFFFFFFFFFFFFFFFFF DUP3 PUSH2 0x234 JUMP JUMPDEST PUSH2 0x279 DUP7 DUP4 PUSH2 0x234 JUMP JUMPDEST SWAP6 POP DUP1 NOT DUP5 AND SWAP4 POP DUP1 DUP7 AND DUP5 OR SWAP3 POP POP POP SWAP4 SWAP3 POP POP POP JUMP JUMPDEST PUSH0 DUP2 SWAP1 POP SWAP2 SWAP1 POP JUMP JUMPDEST PUSH0 DUP2 SWAP1 POP SWAP2 SWAP1 POP JUMP JUMPDEST PUSH0 PUSH2 0x2BD PUSH2 0x2B8 PUSH2 0x2B3 DUP5 PUSH2 0x291 JUMP JUMPDEST PUSH2 0x29A JUMP JUMPDEST PUSH2 0x291 JUMP JUMPDEST SWAP1 POP SWAP2 SWAP1 POP JUMP JUMPDEST PUSH0 DUP2 SWAP1 POP SWAP2 SWAP1 POP JUMP JUMPDEST PUSH2 0x2D6 DUP4 PUSH2 0x2A3 JUMP JUMPDEST PUSH2 0x2EA PUSH2 0x2E2 DUP3 PUSH2 0x2C4 JUMP JUMPDEST DUP5 DUP5 SLOAD PUSH2 0x240 JUMP JUMPDEST DUP3 SSTORE POP POP POP POP JUMP JUMPDEST PUSH0 PUSH0 SWAP1 POP SWAP1 JUMP JUMPDEST PUSH2 0x301 PUSH2 0x2F2 JUMP JUMPDEST PUSH2 0x30C DUP2 DUP5 DUP5 PUSH2 0x2CD JUMP JUMPDEST POP POP POP JUMP JUMPDEST JUMPDEST DUP2 DUP2 LT ISZERO PUSH2 0x32F JUMPI PUSH2 0x324 PUSH0 DUP3 PUSH2 0x2F9 JUMP JUMPDEST PUSH1 0x1 DUP2 ADD SWAP1 POP PUSH2 0x312 JUMP JUMPDEST POP POP JUMP JUMPDEST PUSH1 0x1F DUP3 GT ISZERO PUSH2 0x374 JUMPI PUSH2 0x345 DUP2 PUSH2 0x213 JUMP JUMPDEST PUSH2 0x34E DUP5 PUSH2 0x225 JUMP JUMPDEST DUP2 ADD PUSH1 0x20 DUP6 LT ISZERO PUSH2 0x35D JUMPI DUP2 SWAP1 POP JUMPDEST PUSH2 0x371 PUSH2 0x369 DUP6 PUSH2 0x225 JUMP JUMPDEST DUP4 ADD DUP3 PUSH2 0x311 JUMP JUMPDEST POP POP JUMPDEST POP POP POP JUMP JUMPDEST PUSH0 DUP3 DUP3 SHR SWAP1 POP SWAP3 SWAP2 POP POP JUMP JUMPDEST PUSH0 PUSH2 0x394 PUSH0 NOT DUP5 PUSH1 0x8 MUL PUSH2 0x379 JUMP JUMPDEST NOT DUP1 DUP4 AND SWAP2 POP POP SWAP3 SWAP2 POP POP JUMP JUMPDEST PUSH0 PUSH2 0x3AC DUP4 DUP4 PUSH2 0x385 JUMP JUMPDEST SWAP2 POP DUP3 PUSH1 0x2 MUL DUP3 OR SWAP1 POP SWAP3 SWAP2 POP POP JUMP JUMPDEST PUSH2 0x3C5 DUP3 PUSH2 0x17F JUMP JUMPDEST PUSH8 0xFFFFFFFFFFFFFFFF DUP2 GT ISZERO PUSH2 0x3DE JUMPI PUSH2 0x3DD PUSH2 0x189 JUMP JUMPDEST JUMPDEST PUSH2 0x3E8 DUP3 SLOAD PUSH2 0x1E3 JUMP JUMPDEST PUSH2 0x3F3 DUP3 DUP3 DUP6 PUSH2 0x333 JUMP JUMPDEST PUSH0 PUSH1 0x20 SWAP1 POP PUSH1 0x1F DUP4 GT PUSH1 0x1 DUP2 EQ PUSH2 0x424 JUMPI PUSH0 DUP5 ISZERO PUSH2 0x412 JUMPI DUP3 DUP8 ADD MLOAD SWAP1 POP JUMPDEST PUSH2 0x41C DUP6 DUP3 PUSH2 0x3A1 JUMP JUMPDEST DUP7 SSTORE POP PUSH2 0x483 JUMP JUMPDEST PUSH1 0x1F NOT DUP5 AND PUSH2 0x432 DUP7 PUSH2 0x213 JUMP JUMPDEST PUSH0 JUMPDEST DUP3 DUP2 LT ISZERO PUSH2 0x459 JUMPI DUP5 DUP10 ADD MLOAD DUP3 SSTORE PUSH1 0x1 DUP3 ADD SWAP2 POP PUSH1 0x20 DUP6 ADD SWAP5 POP PUSH1 0x20 DUP2 ADD SWAP1 POP PUSH2 0x434 JUMP JUMPDEST DUP7 DUP4 LT ISZERO PUSH2 0x476 JUMPI DUP5 DUP10 ADD MLOAD PUSH2 0x472 PUSH1 0x1F DUP10 AND DUP3 PUSH2 0x385 JUMP JUMPDEST DUP4 SSTORE POP JUMPDEST PUSH1 0x1 PUSH1 0x2 DUP9 MUL ADD DUP9 SSTORE POP POP POP JUMPDEST POP POP POP POP POP POP JUMP JUMPDEST PUSH0 PUSH0 REVERT JUMPDEST PUSH0 PUSH8 0xFFFFFFFFFFFFFFFF DUP3 AND SWAP1 POP SWAP2 SWAP1 POP JUMP JUMPDEST PUSH2 0x4AB DUP2 PUSH2 0x48F JUMP JUMPDEST DUP2 EQ PUSH2 0x4B5 JUMPI PUSH0 PUSH0 REVERT JUMPDEST POP JUMP JUMPDEST PUSH0 DUP2 MLOAD SWAP1 POP PUSH2 0x4C6 DUP2 PUSH2 0x4A2 JUMP JUMPDEST SWAP3 SWAP2 POP POP JUMP JUMPDEST PUSH0 PUSH1 0x20 DUP3 DUP5 SUB SLT ISZERO PUSH2 0x4E1 JUMPI PUSH2 0x4E0 PUSH2 0x48B JUMP JUMPDEST JUMPDEST PUSH0 PUSH2 0x4EE DUP5 DUP3 DUP6 ADD PUSH2 0x4B8 JUMP JUMPDEST SWAP2 POP POP SWAP3 SWAP2 POP POP JUMP JUMPDEST PUSH1 0x80 MLOAD PUSH2 0x2BA0 PUSH2 0x516 PUSH0 CODECOPY PUSH0 DUP2 DUP2 PUSH2 0x309 ADD MSTORE PUSH2 0x1393 ADD MSTORE PUSH2 0x2BA0 PUSH0 RETURN INVALID PUSH1 0x80 PUSH1 0x40 MSTORE CALLVALUE DUP1 ISZERO PUSH2 0xF JUMPI PUSH0 PUSH0 REVERT JUMPDEST POP PUSH1 0x4 CALLDATASIZE LT PUSH2 0xE8 JUMPI PUSH0 CALLDATALOAD PUSH1 0xE0 SHR DUP1 PUSH4 0x784B9AEB GT PUSH2 0x8A JUMPI DUP1 PUSH4 0x9FB51771 GT PUSH2 0x64 JUMPI DUP1 PUSH4 0x9FB51771 EQ PUSH2 0x263 JUMPI DUP1 PUSH4 0xA02E98DF EQ PUSH2 0x281 JUMPI DUP1 PUSH4 0xCD2B8D11 EQ PUSH2 0x2B1 JUMPI DUP1 PUSH4 0xFC2A88C3 EQ PUSH2 0x2CF JUMPI PUSH2 0xE8 JUMP JUMPDEST DUP1 PUSH4 0x784B9AEB EQ PUSH2 0x1D0 JUMPI DUP1 PUSH4 0x8796BA8C EQ PUSH2 0x200 JUMPI DUP1 PUSH4 0x9D866985 EQ PUSH2 0x230 JUMPI PUSH2 0xE8 JUMP JUMPDEST DUP1 PUSH4 0x29F0DE3F GT PUSH2 0xC6 JUMPI DUP1 PUSH4 0x29F0DE3F EQ PUSH2 0x144 JUMPI DUP1 PUSH4 0x2A916A62 EQ PUSH2 0x162 JUMPI DUP1 PUSH4 0x62747E42 EQ PUSH2 0x194 JUMPI DUP1 PUSH4 0x67E828BF EQ PUSH2 0x1B2 JUMPI PUSH2 0xE8 JUMP JUMPDEST DUP1 PUSH4 0x9C1BA2E EQ PUSH2 0xEC JUMPI DUP1 PUSH4 0xCA76175 EQ PUSH2 0x10A JUMPI DUP1 PUSH4 0x256FEC88 EQ PUSH2 0x126 JUMPI JUMPDEST PUSH0 PUSH0 REVERT JUMPDEST PUSH2 0xF4 PUSH2 0x2ED JUMP JUMPDEST PUSH1 0x40 MLOAD PUSH2 0x101 SWAP2 SWAP1 PUSH2 0x1B37 JUMP JUMPDEST PUSH1 0x40 MLOAD DUP1 SWAP2 SUB SWAP1 RETURN JUMPDEST PUSH2 0x124 PUSH1 0x4 DUP1 CALLDATASIZE SUB DUP2 ADD SWAP1 PUSH2 0x11F SWAP2 SWAP1 PUSH2 0x1CD0 JUMP JUMPDEST PUSH2 0x307 JUMP JUMPDEST STOP JUMPDEST PUSH2 0x12E PUSH2 0x3C9 JUMP JUMPDEST PUSH1 0x40 MLOAD PUSH2 0x13B SWAP2 SWAP1 PUSH2 0x1D97 JUMP JUMPDEST PUSH1 0x40 MLOAD DUP1 SWAP2 SUB SWAP1 RETURN JUMPDEST PUSH2 0x14C PUSH2 0x3EE JUMP JUMPDEST PUSH1 0x40 MLOAD PUSH2 0x159 SWAP2 SWAP1 PUSH2 0x1E10 JUMP JUMPDEST PUSH1 0x40 MLOAD DUP1 SWAP2 SUB SWAP1 RETURN JUMPDEST PUSH2 0x17C PUSH1 0x4 DUP1 CALLDATASIZE SUB DUP2 ADD SWAP1 PUSH2 0x177 SWAP2 SWAP1 PUSH2 0x1E5A JUMP JUMPDEST PUSH2 0x47A JUMP JUMPDEST PUSH1 0x40 MLOAD PUSH2 0x18B SWAP4 SWAP3 SWAP2 SWAP1 PUSH2 0x1EEF JUMP JUMPDEST PUSH1 0x40 MLOAD DUP1 SWAP2 SUB SWAP1 RETURN JUMPDEST PUSH2 0x19C PUSH2 0x5AC JUMP JUMPDEST PUSH1 0x40 MLOAD PUSH2 0x1A9 SWAP2 SWAP1 PUSH2 0x1E10 JUMP JUMPDEST PUSH1 0x40 MLOAD DUP1 SWAP2 SUB SWAP1 RETURN JUMPDEST PUSH2 0x1BA PUSH2 0x638 JUMP JUMPDEST PUSH1 0x40 MLOAD PUSH2 0x1C7 SWAP2 SWAP1 PUSH2 0x1F32 JUMP JUMPDEST PUSH1 0x40 MLOAD DUP1 SWAP2 SUB SWAP1 RETURN JUMPDEST PUSH2 0x1EA PUSH1 0x4 DUP1 CALLDATASIZE SUB DUP2 ADD SWAP1 PUSH2 0x1E5 SWAP2 SWAP1 PUSH2 0x1FF0 JUMP JUMPDEST PUSH2 0x6C4 JUMP JUMPDEST PUSH1 0x40 MLOAD PUSH2 0x1F7 SWAP2 SWAP1 PUSH2 0x2046 JUMP JUMPDEST PUSH1 0x40 MLOAD DUP1 SWAP2 SUB SWAP1 RETURN JUMPDEST PUSH2 0x21A PUSH1 0x4 DUP1 CALLDATASIZE SUB DUP2 ADD SWAP1 PUSH2 0x215 SWAP2 SWAP1 PUSH2 0x2089 JUMP JUMPDEST PUSH2 0xA66 JUMP JUMPDEST PUSH1 0x40 MLOAD PUSH2 0x227 SWAP2 SWAP1 PUSH2 0x2046 JUMP JUMPDEST PUSH1 0x40 MLOAD DUP1 SWAP2 SUB SWAP1 RETURN JUMPDEST PUSH2 0x24A PUSH1 0x4 DUP1 CALLDATASIZE SUB DUP2 ADD SWAP1 PUSH2 0x245 SWAP2 SWAP1 PUSH2 0x20B4 JUMP JUMPDEST PUSH2 0xA86 JUMP JUMPDEST PUSH1 0x40 MLOAD PUSH2 0x25A SWAP5 SWAP4 SWAP3 SWAP2 SWAP1 PUSH2 0x20F9 JUMP JUMPDEST PUSH1 0x40 MLOAD DUP1 SWAP2 SUB SWAP1 RETURN JUMPDEST PUSH2 0x26B PUSH2 0xBD6 JUMP JUMPDEST PUSH1 0x40 MLOAD PUSH2 0x278 SWAP2 SWAP1 PUSH2 0x1F32 JUMP JUMPDEST PUSH1 0x40 MLOAD DUP1 SWAP2 SUB SWAP1 RETURN JUMPDEST PUSH2 0x29B PUSH1 0x4 DUP1 CALLDATASIZE SUB DUP2 ADD SWAP1 PUSH2 0x296 SWAP2 SWAP1 PUSH2 0x20B4 JUMP JUMPDEST PUSH2 0xC62 JUMP JUMPDEST PUSH1 0x40 MLOAD PUSH2 0x2A8 SWAP2 SWAP1 PUSH2 0x1D97 JUMP JUMPDEST PUSH1 0x40 MLOAD DUP1 SWAP2 SUB SWAP1 RETURN JUMPDEST PUSH2 0x2B9 PUSH2 0xC92 JUMP JUMPDEST PUSH1 0x40 MLOAD PUSH2 0x2C6 SWAP2 SWAP1 PUSH2 0x1F32 JUMP JUMPDEST PUSH1 0x40 MLOAD DUP1 SWAP2 SUB SWAP1 RETURN JUMPDEST PUSH2 0x2D7 PUSH2 0xD1E JUMP JUMPDEST PUSH1 0x40 MLOAD PUSH2 0x2E4 SWAP2 SWAP1 PUSH2 0x2046 JUMP JUMPDEST PUSH1 0x40 MLOAD DUP1 SWAP2 SUB SWAP1 RETURN JUMPDEST PUSH1 0x7 PUSH1 0x4 SWAP1 SLOAD SWAP1 PUSH2 0x100 EXP SWAP1 DIV PUSH8 0xFFFFFFFFFFFFFFFF AND DUP2 JUMP JUMPDEST PUSH32 0x0 PUSH20 0xFFFFFFFFFFFFFFFFFFFFFFFFFFFFFFFFFFFFFFFF AND CALLER PUSH20 0xFFFFFFFFFFFFFFFFFFFFFFFFFFFFFFFFFFFFFFFF AND EQ PUSH2 0x38C JUMPI PUSH1 0x40 MLOAD PUSH32 0xC6829F8300000000000000000000000000000000000000000000000000000000 DUP2 MSTORE PUSH1 0x4 ADD PUSH1 0x40 MLOAD DUP1 SWAP2 SUB SWAP1 REVERT JUMPDEST PUSH2 0x397 DUP4 DUP4 DUP4 PUSH2 0xD23 JUMP JUMPDEST DUP3 PUSH32 0x85E1543BF2F84FE80C6BADBCE3648C8539AD1DF4D2B3D822938CA0538BE727E6 PUSH1 0x40 MLOAD PUSH1 0x40 MLOAD DUP1 SWAP2 SUB SWAP1 LOG2 POP POP POP JUMP JUMPDEST PUSH1 0xB PUSH0 SWAP1 SLOAD SWAP1 PUSH2 0x100 EXP SWAP1 DIV PUSH20 0xFFFFFFFFFFFFFFFFFFFFFFFFFFFFFFFFFFFFFFFF AND DUP2 JUMP JUMPDEST PUSH1 0x2 DUP1 SLOAD PUSH2 0x3FB SWAP1 PUSH2 0x2177 JUMP JUMPDEST DUP1 PUSH1 0x1F ADD PUSH1 0x20 DUP1 SWAP2 DIV MUL PUSH1 0x20 ADD PUSH1 0x40 MLOAD SWAP1 DUP2 ADD PUSH1 0x40 MSTORE DUP1 SWAP3 SWAP2 SWAP1 DUP2 DUP2 MSTORE PUSH1 0x20 ADD DUP3 DUP1 SLOAD PUSH2 0x427 SWAP1 PUSH2 0x2177 JUMP JUMPDEST DUP1 ISZERO PUSH2 0x472 JUMPI DUP1 PUSH1 0x1F LT PUSH2 0x449 JUMPI PUSH2 0x100 DUP1 DUP4 SLOAD DIV MUL DUP4 MSTORE SWAP2 PUSH1 0x20 ADD SWAP2 PUSH2 0x472 JUMP JUMPDEST DUP3 ADD SWAP2 SWAP1 PUSH0 MSTORE PUSH1 0x20 PUSH0 KECCAK256 SWAP1 JUMPDEST DUP2 SLOAD DUP2 MSTORE SWAP1 PUSH1 0x1 ADD SWAP1 PUSH1 0x20 ADD DUP1 DUP4 GT PUSH2 0x455 JUMPI DUP3 SWAP1 SUB PUSH1 0x1F AND DUP3 ADD SWAP2 JUMPDEST POP POP POP POP POP DUP2 JUMP JUMPDEST PUSH1 0xC PUSH1 0x20 MSTORE DUP1 PUSH0 MSTORE PUSH1 0x40 PUSH0 KECCAK256 PUSH0 SWAP2 POP SWAP1 POP DUP1 PUSH0 ADD DUP1 SLOAD PUSH2 0x499 SWAP1 PUSH2 0x2177 JUMP JUMPDEST DUP1 PUSH1 0x1F ADD PUSH1 0x20 DUP1 SWAP2 DIV MUL PUSH1 0x20 ADD PUSH1 0x40 MLOAD SWAP1 DUP2 ADD PUSH1 0x40 MSTORE DUP1 SWAP3 SWAP2 SWAP1 DUP2 DUP2 MSTORE PUSH1 0x20 ADD DUP3 DUP1 SLOAD PUSH2 0x4C5 SWAP1 PUSH2 0x2177 JUMP JUMPDEST DUP1 ISZERO PUSH2 0x510 JUMPI DUP1 PUSH1 0x1F LT PUSH2 0x4E7 JUMPI PUSH2 0x100 DUP1 DUP4 SLOAD DIV MUL DUP4 MSTORE SWAP2 PUSH1 0x20 ADD SWAP2 PUSH2 0x510 JUMP JUMPDEST DUP3 ADD SWAP2 SWAP1 PUSH0 MSTORE PUSH1 0x20 PUSH0 KECCAK256 SWAP1 JUMPDEST DUP2 SLOAD DUP2 MSTORE SWAP1 PUSH1 0x1 ADD SWAP1 PUSH1 0x20 ADD DUP1 DUP4 GT PUSH2 0x4F3 JUMPI DUP3 SWAP1 SUB PUSH1 0x1F AND DUP3 ADD SWAP2 JUMPDEST POP POP POP POP POP SWAP1 DUP1 PUSH1 0x1 ADD DUP1 SLOAD PUSH2 0x525 SWAP1 PUSH2 0x2177 JUMP JUMPDEST DUP1 PUSH1 0x1F ADD PUSH1 0x20 DUP1 SWAP2 DIV MUL PUSH1 0x20 ADD PUSH1 0x40 MLOAD SWAP1 DUP2 ADD PUSH1 0x40 MSTORE DUP1 SWAP3 SWAP2 SWAP1 DUP2 DUP2 MSTORE PUSH1 0x20 ADD DUP3 DUP1 SLOAD PUSH2 0x551 SWAP1 PUSH2 0x2177 JUMP JUMPDEST DUP1 ISZERO PUSH2 0x59C JUMPI DUP1 PUSH1 0x1F LT PUSH2 0x573 JUMPI PUSH2 0x100 DUP1 DUP4 SLOAD DIV MUL DUP4 MSTORE SWAP2 PUSH1 0x20 ADD SWAP2 PUSH2 0x59C JUMP JUMPDEST DUP3 ADD SWAP2 SWAP1 PUSH0 MSTORE PUSH1 0x20 PUSH0 KECCAK256 SWAP1 JUMPDEST DUP2 SLOAD DUP2 MSTORE SWAP1 PUSH1 0x1 ADD SWAP1 PUSH1 0x20 ADD DUP1 DUP4 GT PUSH2 0x57F JUMPI DUP3 SWAP1 SUB PUSH1 0x1F AND DUP3 ADD SWAP2 JUMPDEST POP POP POP POP POP SWAP1 DUP1 PUSH1 0x2 ADD SLOAD SWAP1 POP DUP4 JUMP JUMPDEST PUSH1 0x1 DUP1 SLOAD PUSH2 0x5B9 SWAP1 PUSH2 0x2177 JUMP JUMPDEST DUP1 PUSH1 0x1F ADD PUSH1 0x20 DUP1 SWAP2 DIV MUL PUSH1 0x20 ADD PUSH1 0x40 MLOAD SWAP1 DUP2 ADD PUSH1 0x40 MSTORE DUP1 SWAP3 SWAP2 SWAP1 DUP2 DUP2 MSTORE PUSH1 0x20 ADD DUP3 DUP1 SLOAD PUSH2 0x5E5 SWAP1 PUSH2 0x2177 JUMP JUMPDEST DUP1 ISZERO PUSH2 0x630 JUMPI DUP1 PUSH1 0x1F LT PUSH2 0x607 JUMPI PUSH2 0x100 DUP1 DUP4 SLOAD DIV MUL DUP4 MSTORE SWAP2 PUSH1 0x20 ADD SWAP2 PUSH2 0x630 JUMP JUMPDEST DUP3 ADD SWAP2 SWAP1 PUSH0 MSTORE PUSH1 0x20 PUSH0 KECCAK256 SWAP1 JUMPDEST DUP2 SLOAD DUP2 MSTORE SWAP1 PUSH1 0x1 ADD SWAP1 PUSH1 0x20 ADD DUP1 DUP4 GT PUSH2 0x613 JUMPI DUP3 SWAP1 SUB PUSH1 0x1F AND DUP3 ADD SWAP2 JUMPDEST POP POP POP POP POP DUP2 JUMP JUMPDEST PUSH1 0x8 DUP1 SLOAD PUSH2 0x645 SWAP1 PUSH2 0x2177 JUMP JUMPDEST DUP1 PUSH1 0x1F ADD PUSH1 0x20 DUP1 SWAP2 DIV MUL PUSH1 0x20 ADD PUSH1 0x40 MLOAD SWAP1 DUP2 ADD PUSH1 0x40 MSTORE DUP1 SWAP3 SWAP2 SWAP1 DUP2 DUP2 MSTORE PUSH1 0x20 ADD DUP3 DUP1 SLOAD PUSH2 0x671 SWAP1 PUSH2 0x2177 JUMP JUMPDEST DUP1 ISZERO PUSH2 0x6BC JUMPI DUP1 PUSH1 0x1F LT PUSH2 0x693 JUMPI PUSH2 0x100 DUP1 DUP4 SLOAD DIV MUL DUP4 MSTORE SWAP2 PUSH1 0x20 ADD SWAP2 PUSH2 0x6BC JUMP JUMPDEST DUP3 ADD SWAP2 SWAP1 PUSH0 MSTORE PUSH1 0x20 PUSH0 KECCAK256 SWAP1 JUMPDEST DUP2 SLOAD DUP2 MSTORE SWAP1 PUSH1 0x1 ADD SWAP1 PUSH1 0x20 ADD DUP1 DUP4 GT PUSH2 0x69F JUMPI DUP3 SWAP1 SUB PUSH1 0x1F AND DUP3 ADD SWAP2 JUMPDEST POP POP POP POP POP DUP2 JUMP JUMPDEST PUSH0 PUSH0 PUSH1 0x1 PUSH8 0xFFFFFFFFFFFFFFFF DUP2 GT ISZERO PUSH2 0x6E1 JUMPI PUSH2 0x6E0 PUSH2 0x1BAC JUMP JUMPDEST JUMPDEST PUSH1 0x40 MLOAD SWAP1 DUP1 DUP3 MSTORE DUP1 PUSH1 0x20 MUL PUSH1 0x20 ADD DUP3 ADD PUSH1 0x40 MSTORE DUP1 ISZERO PUSH2 0x714 JUMPI DUP2 PUSH1 0x20 ADD JUMPDEST PUSH1 0x60 DUP2 MSTORE PUSH1 0x20 ADD SWAP1 PUSH1 0x1 SWAP1 SUB SWAP1 DUP2 PUSH2 0x6FF JUMPI SWAP1 POP JUMPDEST POP SWAP1 POP DUP3 DUP2 PUSH0 DUP2 MLOAD DUP2 LT PUSH2 0x72B JUMPI PUSH2 0x72A PUSH2 0x21A7 JUMP JUMPDEST JUMPDEST PUSH1 0x20 MUL PUSH1 0x20 ADD ADD DUP2 SWAP1 MSTORE POP PUSH2 0x73E PUSH2 0x1A6E JUMP JUMPDEST PUSH2 0x7D9 PUSH1 0x8 DUP1 SLOAD PUSH2 0x74E SWAP1 PUSH2 0x2177 JUMP JUMPDEST DUP1 PUSH1 0x1F ADD PUSH1 0x20 DUP1 SWAP2 DIV MUL PUSH1 0x20 ADD PUSH1 0x40 MLOAD SWAP1 DUP2 ADD PUSH1 0x40 MSTORE DUP1 SWAP3 SWAP2 SWAP1 DUP2 DUP2 MSTORE PUSH1 0x20 ADD DUP3 DUP1 SLOAD PUSH2 0x77A SWAP1 PUSH2 0x2177 JUMP JUMPDEST DUP1 ISZERO PUSH2 0x7C5 JUMPI DUP1 PUSH1 0x1F LT PUSH2 0x79C JUMPI PUSH2 0x100 DUP1 DUP4 SLOAD DIV MUL DUP4 MSTORE SWAP2 PUSH1 0x20 ADD SWAP2 PUSH2 0x7C5 JUMP JUMPDEST DUP3 ADD SWAP2 SWAP1 PUSH0 MSTORE PUSH1 0x20 PUSH0 KECCAK256 SWAP1 JUMPDEST DUP2 SLOAD DUP2 MSTORE SWAP1 PUSH1 0x1 ADD SWAP1 PUSH1 0x20 ADD DUP1 DUP4 GT PUSH2 0x7A8 JUMPI DUP3 SWAP1 SUB PUSH1 0x1F AND DUP3 ADD SWAP2 JUMPDEST POP POP POP POP POP DUP3 PUSH2 0xF2D SWAP1 SWAP2 SWAP1 PUSH4 0xFFFFFFFF AND JUMP JUMPDEST PUSH0 DUP3 MLOAD GT ISZERO PUSH2 0x7F6 JUMPI PUSH2 0x7F5 DUP3 DUP3 PUSH2 0xF3D SWAP1 SWAP2 SWAP1 PUSH4 0xFFFFFFFF AND JUMP JUMPDEST JUMPDEST PUSH2 0x833 PUSH2 0x802 DUP3 PUSH2 0xF84 JUMP JUMPDEST PUSH1 0x7 PUSH1 0x4 SWAP1 SLOAD SWAP1 PUSH2 0x100 EXP SWAP1 DIV PUSH8 0xFFFFFFFFFFFFFFFF AND PUSH1 0x7 PUSH0 SWAP1 SLOAD SWAP1 PUSH2 0x100 EXP SWAP1 DIV PUSH4 0xFFFFFFFF AND PUSH1 0x6 SLOAD PUSH2 0x138F JUMP JUMPDEST PUSH0 DUP2 SWAP1 SSTORE POP DUP4 PUSH1 0x9 SWAP1 DUP2 PUSH2 0x847 SWAP2 SWAP1 PUSH2 0x2374 JUMP JUMPDEST POP PUSH1 0x40 MLOAD DUP1 PUSH1 0x80 ADD PUSH1 0x40 MSTORE DUP1 PUSH0 ISZERO ISZERO DUP2 MSTORE PUSH1 0x20 ADD PUSH1 0x1 ISZERO ISZERO DUP2 MSTORE PUSH1 0x20 ADD PUSH1 0x40 MLOAD DUP1 PUSH1 0x20 ADD PUSH1 0x40 MSTORE DUP1 PUSH0 DUP2 MSTORE POP DUP2 MSTORE PUSH1 0x20 ADD PUSH1 0x40 MLOAD DUP1 PUSH1 0x20 ADD PUSH1 0x40 MSTORE DUP1 PUSH0 DUP2 MSTORE POP DUP2 MSTORE POP PUSH1 0x3 PUSH0 PUSH0 SLOAD DUP2 MSTORE PUSH1 0x20 ADD SWAP1 DUP2 MSTORE PUSH1 0x20 ADD PUSH0 KECCAK256 PUSH0 DUP3 ADD MLOAD DUP2 PUSH0 ADD PUSH0 PUSH2 0x100 EXP DUP2 SLOAD DUP2 PUSH1 0xFF MUL NOT AND SWAP1 DUP4 ISZERO ISZERO MUL OR SWAP1 SSTORE POP PUSH1 0x20 DUP3 ADD MLOAD DUP2 PUSH0 ADD PUSH1 0x1 PUSH2 0x100 EXP DUP2 SLOAD DUP2 PUSH1 0xFF MUL NOT AND SWAP1 DUP4 ISZERO ISZERO MUL OR SWAP1 SSTORE POP PUSH1 0x40 DUP3 ADD MLOAD DUP2 PUSH1 0x1 ADD SWAP1 DUP2 PUSH2 0x8ED SWAP2 SWAP1 PUSH2 0x249B JUMP JUMPDEST POP PUSH1 0x60 DUP3 ADD MLOAD DUP2 PUSH1 0x2 ADD SWAP1 DUP2 PUSH2 0x903 SWAP2 SWAP1 PUSH2 0x249B JUMP JUMPDEST POP SWAP1 POP POP PUSH1 0x40 MLOAD DUP1 PUSH1 0x60 ADD PUSH1 0x40 MSTORE DUP1 DUP6 DUP2 MSTORE PUSH1 0x20 ADD PUSH1 0x40 MLOAD DUP1 PUSH1 0x20 ADD PUSH1 0x40 MSTORE DUP1 PUSH0 DUP2 MSTORE POP DUP2 MSTORE PUSH1 0x20 ADD PUSH0 DUP2 MSTORE POP PUSH1 0xC PUSH0 CALLER PUSH20 0xFFFFFFFFFFFFFFFFFFFFFFFFFFFFFFFFFFFFFFFF AND PUSH20 0xFFFFFFFFFFFFFFFFFFFFFFFFFFFFFFFFFFFFFFFF AND DUP2 MSTORE PUSH1 0x20 ADD SWAP1 DUP2 MSTORE PUSH1 0x20 ADD PUSH0 KECCAK256 PUSH0 DUP3 ADD MLOAD DUP2 PUSH0 ADD SWAP1 DUP2 PUSH2 0x980 SWAP2 SWAP1 PUSH2 0x2374 JUMP JUMPDEST POP PUSH1 0x20 DUP3 ADD MLOAD DUP2 PUSH1 0x1 ADD SWAP1 DUP2 PUSH2 0x996 SWAP2 SWAP1 PUSH2 0x2374 JUMP JUMPDEST POP PUSH1 0x40 DUP3 ADD MLOAD DUP2 PUSH1 0x2 ADD SSTORE SWAP1 POP POP CALLER PUSH1 0xD PUSH0 PUSH0 SLOAD DUP2 MSTORE PUSH1 0x20 ADD SWAP1 DUP2 MSTORE PUSH1 0x20 ADD PUSH0 KECCAK256 PUSH0 PUSH2 0x100 EXP DUP2 SLOAD DUP2 PUSH20 0xFFFFFFFFFFFFFFFFFFFFFFFFFFFFFFFFFFFFFFFF MUL NOT AND SWAP1 DUP4 PUSH20 0xFFFFFFFFFFFFFFFFFFFFFFFFFFFFFFFFFFFFFFFF AND MUL OR SWAP1 SSTORE POP CALLER PUSH1 0xB PUSH0 PUSH2 0x100 EXP DUP2 SLOAD DUP2 PUSH20 0xFFFFFFFFFFFFFFFFFFFFFFFFFFFFFFFFFFFFFFFF MUL NOT AND SWAP1 DUP4 PUSH20 0xFFFFFFFFFFFFFFFFFFFFFFFFFFFFFFFFFFFFFFFF AND MUL OR SWAP1 SSTORE POP PUSH1 0x4 PUSH0 SLOAD SWAP1 DUP1 PUSH1 0x1 DUP2 SLOAD ADD DUP1 DUP3 SSTORE DUP1 SWAP2 POP POP PUSH1 0x1 SWAP1 SUB SWAP1 PUSH0 MSTORE PUSH1 0x20 PUSH0 KECCAK256 ADD PUSH0 SWAP1 SWAP2 SWAP1 SWAP2 SWAP1 SWAP2 POP SSTORE PUSH0 SLOAD SWAP3 POP POP POP SWAP2 SWAP1 POP JUMP JUMPDEST PUSH1 0x4 DUP2 DUP2 SLOAD DUP2 LT PUSH2 0xA75 JUMPI PUSH0 DUP1 REVERT JUMPDEST SWAP1 PUSH0 MSTORE PUSH1 0x20 PUSH0 KECCAK256 ADD PUSH0 SWAP2 POP SWAP1 POP SLOAD DUP2 JUMP JUMPDEST PUSH1 0x3 PUSH1 0x20 MSTORE DUP1 PUSH0 MSTORE PUSH1 0x40 PUSH0 KECCAK256 PUSH0 SWAP2 POP SWAP1 POP DUP1 PUSH0 ADD PUSH0 SWAP1 SLOAD SWAP1 PUSH2 0x100 EXP SWAP1 DIV PUSH1 0xFF AND SWAP1 DUP1 PUSH0 ADD PUSH1 0x1 SWAP1 SLOAD SWAP1 PUSH2 0x100 EXP SWAP1 DIV PUSH1 0xFF AND SWAP1 DUP1 PUSH1 0x1 ADD DUP1 SLOAD PUSH2 0xAC9 SWAP1 PUSH2 0x2177 JUMP JUMPDEST DUP1 PUSH1 0x1F ADD PUSH1 0x20 DUP1 SWAP2 DIV MUL PUSH1 0x20 ADD PUSH1 0x40 MLOAD SWAP1 DUP2 ADD PUSH1 0x40 MSTORE DUP1 SWAP3 SWAP2 SWAP1 DUP2 DUP2 MSTORE PUSH1 0x20 ADD DUP3 DUP1 SLOAD PUSH2 0xAF5 SWAP1 PUSH2 0x2177 JUMP JUMPDEST DUP1 ISZERO PUSH2 0xB40 JUMPI DUP1 PUSH1 0x1F LT PUSH2 0xB17 JUMPI PUSH2 0x100 DUP1 DUP4 SLOAD DIV MUL DUP4 MSTORE SWAP2 PUSH1 0x20 ADD SWAP2 PUSH2 0xB40 JUMP JUMPDEST DUP3 ADD SWAP2 SWAP1 PUSH0 MSTORE PUSH1 0x20 PUSH0 KECCAK256 SWAP1 JUMPDEST DUP2 SLOAD DUP2 MSTORE SWAP1 PUSH1 0x1 ADD SWAP1 PUSH1 0x20 ADD DUP1 DUP4 GT PUSH2 0xB23 JUMPI DUP3 SWAP1 SUB PUSH1 0x1F AND DUP3 ADD SWAP2 JUMPDEST POP POP POP POP POP SWAP1 DUP1 PUSH1 0x2 ADD DUP1 SLOAD PUSH2 0xB55 SWAP1 PUSH2 0x2177 JUMP JUMPDEST DUP1 PUSH1 0x1F ADD PUSH1 0x20 DUP1 SWAP2 DIV MUL PUSH1 0x20 ADD PUSH1 0x40 MLOAD SWAP1 DUP2 ADD PUSH1 0x40 MSTORE DUP1 SWAP3 SWAP2 SWAP1 DUP2 DUP2 MSTORE PUSH1 0x20 ADD DUP3 DUP1 SLOAD PUSH2 0xB81 SWAP1 PUSH2 0x2177 JUMP JUMPDEST DUP1 ISZERO PUSH2 0xBCC JUMPI DUP1 PUSH1 0x1F LT PUSH2 0xBA3 JUMPI PUSH2 0x100 DUP1 DUP4 SLOAD DIV MUL DUP4 MSTORE SWAP2 PUSH1 0x20 ADD SWAP2 PUSH2 0xBCC JUMP JUMPDEST DUP3 ADD SWAP2 SWAP1 PUSH0 MSTORE PUSH1 0x20 PUSH0 KECCAK256 SWAP1 JUMPDEST DUP2 SLOAD DUP2 MSTORE SWAP1 PUSH1 0x1 ADD SWAP1 PUSH1 0x20 ADD DUP1 DUP4 GT PUSH2 0xBAF JUMPI DUP3 SWAP1 SUB PUSH1 0x1F AND DUP3 ADD SWAP2 JUMPDEST POP POP POP POP POP SWAP1 POP DUP5 JUMP JUMPDEST PUSH1 0xA DUP1 SLOAD PUSH2 0xBE3 SWAP1 PUSH2 0x2177 JUMP JUMPDEST DUP1 PUSH1 0x1F ADD PUSH1 0x20 DUP1 SWAP2 DIV MUL PUSH1 0x20 ADD PUSH1 0x40 MLOAD SWAP1 DUP2 ADD PUSH1 0x40 MSTORE DUP1 SWAP3 SWAP2 SWAP1 DUP2 DUP2 MSTORE PUSH1 0x20 ADD DUP3 DUP1 SLOAD PUSH2 0xC0F SWAP1 PUSH2 0x2177 JUMP JUMPDEST DUP1 ISZERO PUSH2 0xC5A JUMPI DUP1 PUSH1 0x1F LT PUSH2 0xC31 JUMPI PUSH2 0x100 DUP1 DUP4 SLOAD DIV MUL DUP4 MSTORE SWAP2 PUSH1 0x20 ADD SWAP2 PUSH2 0xC5A JUMP JUMPDEST DUP3 ADD SWAP2 SWAP1 PUSH0 MSTORE PUSH1 0x20 PUSH0 KECCAK256 SWAP1 JUMPDEST DUP2 SLOAD DUP2 MSTORE SWAP1 PUSH1 0x1 ADD SWAP1 PUSH1 0x20 ADD DUP1 DUP4 GT PUSH2 0xC3D JUMPI DUP3 SWAP1 SUB PUSH1 0x1F AND DUP3 ADD SWAP2 JUMPDEST POP POP POP POP POP DUP2 JUMP JUMPDEST PUSH1 0xD PUSH1 0x20 MSTORE DUP1 PUSH0 MSTORE PUSH1 0x40 PUSH0 KECCAK256 PUSH0 SWAP2 POP SLOAD SWAP1 PUSH2 0x100 EXP SWAP1 DIV PUSH20 0xFFFFFFFFFFFFFFFFFFFFFFFFFFFFFFFFFFFFFFFF AND DUP2 JUMP JUMPDEST PUSH1 0x9 DUP1 SLOAD PUSH2 0xC9F SWAP1 PUSH2 0x2177 JUMP JUMPDEST DUP1 PUSH1 0x1F ADD PUSH1 0x20 DUP1 SWAP2 DIV MUL PUSH1 0x20 ADD PUSH1 0x40 MLOAD SWAP1 DUP2 ADD PUSH1 0x40 MSTORE DUP1 SWAP3 SWAP2 SWAP1 DUP2 DUP2 MSTORE PUSH1 0x20 ADD DUP3 DUP1 SLOAD PUSH2 0xCCB SWAP1 PUSH2 0x2177 JUMP JUMPDEST DUP1 ISZERO PUSH2 0xD16 JUMPI DUP1 PUSH1 0x1F LT PUSH2 0xCED JUMPI PUSH2 0x100 DUP1 DUP4 SLOAD DIV MUL DUP4 MSTORE SWAP2 PUSH1 0x20 ADD SWAP2 PUSH2 0xD16 JUMP JUMPDEST DUP3 ADD SWAP2 SWAP1 PUSH0 MSTORE PUSH1 0x20 PUSH0 KECCAK256 SWAP1 JUMPDEST DUP2 SLOAD DUP2 MSTORE SWAP1 PUSH1 0x1 ADD SWAP1 PUSH1 0x20 ADD DUP1 DUP4 GT PUSH2 0xCF9 JUMPI DUP3 SWAP1 SUB PUSH1 0x1F AND DUP3 ADD SWAP2 JUMPDEST POP POP POP POP POP DUP2 JUMP JUMPDEST PUSH0 SLOAD DUP2 JUMP JUMPDEST PUSH1 0x3 PUSH0 DUP5 DUP2 MSTORE PUSH1 0x20 ADD SWAP1 DUP2 MSTORE PUSH1 0x20 ADD PUSH0 KECCAK256 PUSH0 ADD PUSH1 0x1 SWAP1 SLOAD SWAP1 PUSH2 0x100 EXP SWAP1 DIV PUSH1 0xFF AND PUSH2 0xD83 JUMPI PUSH1 0x40 MLOAD PUSH32 0x8C379A000000000000000000000000000000000000000000000000000000000 DUP2 MSTORE PUSH1 0x4 ADD PUSH2 0xD7A SWAP1 PUSH2 0x25B4 JUMP JUMPDEST PUSH1 0x40 MLOAD DUP1 SWAP2 SUB SWAP1 REVERT JUMPDEST DUP1 PUSH1 0x2 SWAP1 DUP2 PUSH2 0xD92 SWAP2 SWAP1 PUSH2 0x249B JUMP JUMPDEST POP DUP2 PUSH1 0x1 SWAP1 DUP2 PUSH2 0xDA2 SWAP2 SWAP1 PUSH2 0x249B JUMP JUMPDEST POP DUP2 PUSH1 0xA SWAP1 DUP2 PUSH2 0xDB2 SWAP2 SWAP1 PUSH2 0x2374 JUMP JUMPDEST POP PUSH1 0x1 PUSH1 0x3 PUSH0 DUP6 DUP2 MSTORE PUSH1 0x20 ADD SWAP1 DUP2 MSTORE PUSH1 0x20 ADD PUSH0 KECCAK256 PUSH0 ADD PUSH0 PUSH2 0x100 EXP DUP2 SLOAD DUP2 PUSH1 0xFF MUL NOT AND SWAP1 DUP4 ISZERO ISZERO MUL OR SWAP1 SSTORE POP DUP1 PUSH1 0x3 PUSH0 DUP6 DUP2 MSTORE PUSH1 0x20 ADD SWAP1 DUP2 MSTORE PUSH1 0x20 ADD PUSH0 KECCAK256 PUSH1 0x2 ADD SWAP1 DUP2 PUSH2 0xDFF SWAP2 SWAP1 PUSH2 0x249B JUMP JUMPDEST POP DUP2 PUSH1 0x3 PUSH0 DUP6 DUP2 MSTORE PUSH1 0x20 ADD SWAP1 DUP2 MSTORE PUSH1 0x20 ADD PUSH0 KECCAK256 PUSH1 0x1 ADD SWAP1 DUP2 PUSH2 0xE21 SWAP2 SWAP1 PUSH2 0x249B JUMP JUMPDEST POP PUSH0 PUSH1 0xD PUSH0 DUP6 DUP2 MSTORE PUSH1 0x20 ADD SWAP1 DUP2 MSTORE PUSH1 0x20 ADD PUSH0 KECCAK256 PUSH0 SWAP1 SLOAD SWAP1 PUSH2 0x100 EXP SWAP1 DIV PUSH20 0xFFFFFFFFFFFFFFFFFFFFFFFFFFFFFFFFFFFFFFFF AND SWAP1 POP PUSH1 0xA PUSH1 0xC PUSH0 DUP4 PUSH20 0xFFFFFFFFFFFFFFFFFFFFFFFFFFFFFFFFFFFFFFFF AND PUSH20 0xFFFFFFFFFFFFFFFFFFFFFFFFFFFFFFFFFFFFFFFF AND DUP2 MSTORE PUSH1 0x20 ADD SWAP1 DUP2 MSTORE PUSH1 0x20 ADD PUSH0 KECCAK256 PUSH1 0x1 ADD SWAP1 DUP2 PUSH2 0xEA4 SWAP2 SWAP1 PUSH2 0x25F9 JUMP JUMPDEST POP TIMESTAMP PUSH1 0xC PUSH0 DUP4 PUSH20 0xFFFFFFFFFFFFFFFFFFFFFFFFFFFFFFFFFFFFFFFF AND PUSH20 0xFFFFFFFFFFFFFFFFFFFFFFFFFFFFFFFFFFFFFFFF AND DUP2 MSTORE PUSH1 0x20 ADD SWAP1 DUP2 MSTORE PUSH1 0x20 ADD PUSH0 KECCAK256 PUSH1 0x2 ADD DUP2 SWAP1 SSTORE POP DUP4 PUSH32 0x160ED0AAFFBEF6885155188B91459CB5A97D5DAADCCF7561D8C46DEEA6641B50 PUSH1 0xA DUP6 DUP6 PUSH1 0x40 MLOAD PUSH2 0xF1F SWAP4 SWAP3 SWAP2 SWAP1 PUSH2 0x275F JUMP JUMPDEST PUSH1 0x40 MLOAD DUP1 SWAP2 SUB SWAP1 LOG2 POP POP POP POP JUMP JUMPDEST PUSH2 0xF39 DUP3 PUSH0 PUSH0 DUP5 PUSH2 0x146E JUMP JUMPDEST POP POP JUMP JUMPDEST PUSH0 DUP2 MLOAD SUB PUSH2 0xF77 JUMPI PUSH1 0x40 MLOAD PUSH32 0xFE936CB700000000000000000000000000000000000000000000000000000000 DUP2 MSTORE PUSH1 0x4 ADD PUSH1 0x40 MLOAD DUP1 SWAP2 SUB SWAP1 REVERT JUMPDEST DUP1 DUP3 PUSH1 0xA0 ADD DUP2 SWAP1 MSTORE POP POP POP JUMP JUMPDEST PUSH1 0x60 PUSH0 PUSH2 0xF92 PUSH2 0x100 PUSH2 0x1514 JUMP JUMPDEST SWAP1 POP PUSH2 0xFDC PUSH1 0x40 MLOAD DUP1 PUSH1 0x40 ADD PUSH1 0x40 MSTORE DUP1 PUSH1 0xC DUP2 MSTORE PUSH1 0x20 ADD PUSH32 0x636F64654C6F636174696F6E0000000000000000000000000000000000000000 DUP2 MSTORE POP DUP3 PUSH2 0x1539 SWAP1 SWAP2 SWAP1 PUSH4 0xFFFFFFFF AND JUMP JUMPDEST PUSH2 0x1004 DUP4 PUSH0 ADD MLOAD PUSH1 0x2 DUP2 GT ISZERO PUSH2 0xFF5 JUMPI PUSH2 0xFF4 PUSH2 0x27A9 JUMP JUMPDEST JUMPDEST DUP3 PUSH2 0x1561 SWAP1 SWAP2 SWAP1 PUSH4 0xFFFFFFFF AND JUMP JUMPDEST PUSH2 0x104C PUSH1 0x40 MLOAD DUP1 PUSH1 0x40 ADD PUSH1 0x40 MSTORE DUP1 PUSH1 0x8 DUP2 MSTORE PUSH1 0x20 ADD PUSH32 0x6C616E6775616765000000000000000000000000000000000000000000000000 DUP2 MSTORE POP DUP3 PUSH2 0x1539 SWAP1 SWAP2 SWAP1 PUSH4 0xFFFFFFFF AND JUMP JUMPDEST PUSH2 0x1074 DUP4 PUSH1 0x40 ADD MLOAD PUSH0 DUP2 GT ISZERO PUSH2 0x1065 JUMPI PUSH2 0x1064 PUSH2 0x27A9 JUMP JUMPDEST JUMPDEST DUP3 PUSH2 0x1561 SWAP1 SWAP2 SWAP1 PUSH4 0xFFFFFFFF AND JUMP JUMPDEST PUSH2 0x10BC PUSH1 0x40 MLOAD DUP1 PUSH1 0x40 ADD PUSH1 0x40 MSTORE DUP1 PUSH1 0x6 DUP2 MSTORE PUSH1 0x20 ADD PUSH32 0x736F757263650000000000000000000000000000000000000000000000000000 DUP2 MSTORE POP DUP3 PUSH2 0x1539 SWAP1 SWAP2 SWAP1 PUSH4 0xFFFFFFFF AND JUMP JUMPDEST PUSH2 0x10D3 DUP4 PUSH1 0x60 ADD MLOAD DUP3 PUSH2 0x1539 SWAP1 SWAP2 SWAP1 PUSH4 0xFFFFFFFF AND JUMP JUMPDEST PUSH0 DUP4 PUSH1 0xA0 ADD MLOAD MLOAD GT ISZERO PUSH2 0x118A JUMPI PUSH2 0x1128 PUSH1 0x40 MLOAD DUP1 PUSH1 0x40 ADD PUSH1 0x40 MSTORE DUP1 PUSH1 0x4 DUP2 MSTORE PUSH1 0x20 ADD PUSH32 0x6172677300000000000000000000000000000000000000000000000000000000 DUP2 MSTORE POP DUP3 PUSH2 0x1539 SWAP1 SWAP2 SWAP1 PUSH4 0xFFFFFFFF AND JUMP JUMPDEST PUSH2 0x1131 DUP2 PUSH2 0x15B0 JUMP JUMPDEST PUSH0 PUSH0 SWAP1 POP JUMPDEST DUP4 PUSH1 0xA0 ADD MLOAD MLOAD DUP2 LT ISZERO PUSH2 0x117F JUMPI PUSH2 0x1174 DUP5 PUSH1 0xA0 ADD MLOAD DUP3 DUP2 MLOAD DUP2 LT PUSH2 0x115D JUMPI PUSH2 0x115C PUSH2 0x21A7 JUMP JUMPDEST JUMPDEST PUSH1 0x20 MUL PUSH1 0x20 ADD ADD MLOAD DUP4 PUSH2 0x1539 SWAP1 SWAP2 SWAP1 PUSH4 0xFFFFFFFF AND JUMP JUMPDEST DUP1 PUSH1 0x1 ADD SWAP1 POP PUSH2 0x1136 JUMP JUMPDEST POP PUSH2 0x1189 DUP2 PUSH2 0x15D8 JUMP JUMPDEST JUMPDEST PUSH0 DUP4 PUSH1 0x80 ADD MLOAD MLOAD GT ISZERO PUSH2 0x12C9 JUMPI PUSH0 PUSH1 0x2 DUP2 GT ISZERO PUSH2 0x11AA JUMPI PUSH2 0x11A9 PUSH2 0x27A9 JUMP JUMPDEST JUMPDEST DUP4 PUSH1 0x20 ADD MLOAD PUSH1 0x2 DUP2 GT ISZERO PUSH2 0x11C1 JUMPI PUSH2 0x11C0 PUSH2 0x27A9 JUMP JUMPDEST JUMPDEST SUB PUSH2 0x11F8 JUMPI PUSH1 0x40 MLOAD PUSH32 0xA80D31F700000000000000000000000000000000000000000000000000000000 DUP2 MSTORE PUSH1 0x4 ADD PUSH1 0x40 MLOAD DUP1 SWAP2 SUB SWAP1 REVERT JUMPDEST PUSH2 0x1240 PUSH1 0x40 MLOAD DUP1 PUSH1 0x40 ADD PUSH1 0x40 MSTORE DUP1 PUSH1 0xF DUP2 MSTORE PUSH1 0x20 ADD PUSH32 0x736563726574734C6F636174696F6E0000000000000000000000000000000000 DUP2 MSTORE POP DUP3 PUSH2 0x1539 SWAP1 SWAP2 SWAP1 PUSH4 0xFFFFFFFF AND JUMP JUMPDEST PUSH2 0x1269 DUP4 PUSH1 0x20 ADD MLOAD PUSH1 0x2 DUP2 GT ISZERO PUSH2 0x125A JUMPI PUSH2 0x1259 PUSH2 0x27A9 JUMP JUMPDEST JUMPDEST DUP3 PUSH2 0x1561 SWAP1 SWAP2 SWAP1 PUSH4 0xFFFFFFFF AND JUMP JUMPDEST PUSH2 0x12B1 PUSH1 0x40 MLOAD DUP1 PUSH1 0x40 ADD PUSH1 0x40 MSTORE DUP1 PUSH1 0x7 DUP2 MSTORE PUSH1 0x20 ADD PUSH32 0x7365637265747300000000000000000000000000000000000000000000000000 DUP2 MSTORE POP DUP3 PUSH2 0x1539 SWAP1 SWAP2 SWAP1 PUSH4 0xFFFFFFFF AND JUMP JUMPDEST PUSH2 0x12C8 DUP4 PUSH1 0x80 ADD MLOAD DUP3 PUSH2 0x1600 SWAP1 SWAP2 SWAP1 PUSH4 0xFFFFFFFF AND JUMP JUMPDEST JUMPDEST PUSH0 DUP4 PUSH1 0xC0 ADD MLOAD MLOAD GT ISZERO PUSH2 0x1380 JUMPI PUSH2 0x131E PUSH1 0x40 MLOAD DUP1 PUSH1 0x40 ADD PUSH1 0x40 MSTORE DUP1 PUSH1 0x9 DUP2 MSTORE PUSH1 0x20 ADD PUSH32 0x6279746573417267730000000000000000000000000000000000000000000000 DUP2 MSTORE POP DUP3 PUSH2 0x1539 SWAP1 SWAP2 SWAP1 PUSH4 0xFFFFFFFF AND JUMP JUMPDEST PUSH2 0x1327 DUP2 PUSH2 0x15B0 JUMP JUMPDEST PUSH0 PUSH0 SWAP1 POP JUMPDEST DUP4 PUSH1 0xC0 ADD MLOAD MLOAD DUP2 LT ISZERO PUSH2 0x1375 JUMPI PUSH2 0x136A DUP5 PUSH1 0xC0 ADD MLOAD DUP3 DUP2 MLOAD DUP2 LT PUSH2 0x1353 JUMPI PUSH2 0x1352 PUSH2 0x21A7 JUMP JUMPDEST JUMPDEST PUSH1 0x20 MUL PUSH1 0x20 ADD ADD MLOAD DUP4 PUSH2 0x1600 SWAP1 SWAP2 SWAP1 PUSH4 0xFFFFFFFF AND JUMP JUMPDEST DUP1 PUSH1 0x1 ADD SWAP1 POP PUSH2 0x132C JUMP JUMPDEST POP PUSH2 0x137F DUP2 PUSH2 0x15D8 JUMP JUMPDEST JUMPDEST DUP1 PUSH0 ADD MLOAD PUSH0 ADD MLOAD SWAP2 POP POP SWAP2 SWAP1 POP JUMP JUMPDEST PUSH0 PUSH0 PUSH32 0x0 PUSH20 0xFFFFFFFFFFFFFFFFFFFFFFFFFFFFFFFFFFFFFFFF AND PUSH4 0x461D2762 DUP7 DUP9 PUSH1 0x1 DUP9 DUP9 PUSH1 0x40 MLOAD DUP7 PUSH4 0xFFFFFFFF AND PUSH1 0xE0 SHL DUP2 MSTORE PUSH1 0x4 ADD PUSH2 0x13F3 SWAP6 SWAP5 SWAP4 SWAP3 SWAP2 SWAP1 PUSH2 0x2810 JUMP JUMPDEST PUSH1 0x20 PUSH1 0x40 MLOAD DUP1 DUP4 SUB DUP2 PUSH0 DUP8 GAS CALL ISZERO DUP1 ISZERO PUSH2 0x140F JUMPI RETURNDATASIZE PUSH0 PUSH0 RETURNDATACOPY RETURNDATASIZE PUSH0 REVERT JUMPDEST POP POP POP POP PUSH1 0x40 MLOAD RETURNDATASIZE PUSH1 0x1F NOT PUSH1 0x1F DUP3 ADD AND DUP3 ADD DUP1 PUSH1 0x40 MSTORE POP DUP2 ADD SWAP1 PUSH2 0x1433 SWAP2 SWAP1 PUSH2 0x287C JUMP JUMPDEST SWAP1 POP DUP1 PUSH32 0x1131472297A800FEE664D1D89CFA8F7676FF07189ECC53F80BBB5F4969099DB8 PUSH1 0x40 MLOAD PUSH1 0x40 MLOAD DUP1 SWAP2 SUB SWAP1 LOG2 DUP1 SWAP2 POP POP SWAP5 SWAP4 POP POP POP POP JUMP JUMPDEST PUSH0 DUP2 MLOAD SUB PUSH2 0x14A8 JUMPI PUSH1 0x40 MLOAD PUSH32 0x22CE3EDD00000000000000000000000000000000000000000000000000000000 DUP2 MSTORE PUSH1 0x4 ADD PUSH1 0x40 MLOAD DUP1 SWAP2 SUB SWAP1 REVERT JUMPDEST DUP3 DUP5 PUSH0 ADD SWAP1 PUSH1 0x2 DUP2 GT ISZERO PUSH2 0x14BF JUMPI PUSH2 0x14BE PUSH2 0x27A9 JUMP JUMPDEST JUMPDEST SWAP1 DUP2 PUSH1 0x2 DUP2 GT ISZERO PUSH2 0x14D3 JUMPI PUSH2 0x14D2 PUSH2 0x27A9 JUMP JUMPDEST JUMPDEST DUP2 MSTORE POP POP DUP2 DUP5 PUSH1 0x40 ADD SWAP1 PUSH0 DUP2 GT ISZERO PUSH2 0x14EE JUMPI PUSH2 0x14ED PUSH2 0x27A9 JUMP JUMPDEST JUMPDEST SWAP1 DUP2 PUSH0 DUP2 GT ISZERO PUSH2 0x1501 JUMPI PUSH2 0x1500 PUSH2 0x27A9 JUMP JUMPDEST JUMPDEST DUP2 MSTORE POP POP DUP1 DUP5 PUSH1 0x60 ADD DUP2 SWAP1 MSTORE POP POP POP POP POP JUMP JUMPDEST PUSH2 0x151C PUSH2 0x1ADD JUMP JUMPDEST PUSH2 0x1529 DUP2 PUSH0 ADD MLOAD DUP4 PUSH2 0x1628 JUMP JUMPDEST POP PUSH0 DUP2 PUSH1 0x20 ADD DUP2 DUP2 MSTORE POP POP SWAP2 SWAP1 POP JUMP JUMPDEST PUSH2 0x1546 DUP3 PUSH1 0x3 DUP4 MLOAD PUSH2 0x169E JUMP JUMPDEST PUSH2 0x155C DUP2 DUP4 PUSH0 ADD MLOAD PUSH2 0x183E SWAP1 SWAP2 SWAP1 PUSH4 0xFFFFFFFF AND JUMP JUMPDEST POP POP POP JUMP JUMPDEST PUSH2 0x1582 PUSH1 0x2 PUSH1 0x5 PUSH1 0x6 PUSH1 0xFF AND SWAP1 SHL OR DUP4 PUSH0 ADD MLOAD PUSH2 0x185A SWAP1 SWAP2 SWAP1 PUSH4 0xFFFFFFFF AND JUMP JUMPDEST POP PUSH2 0x15AC DUP3 DUP3 PUSH1 0x40 MLOAD PUSH1 0x20 ADD PUSH2 0x1598 SWAP2 SWAP1 PUSH2 0x28A7 JUMP JUMPDEST PUSH1 0x40 MLOAD PUSH1 0x20 DUP2 DUP4 SUB SUB DUP2 MSTORE SWAP1 PUSH1 0x40 MSTORE PUSH2 0x1600 JUMP JUMPDEST POP POP JUMP JUMPDEST PUSH2 0x15BB DUP2 PUSH1 0x4 PUSH2 0x18C1 JUMP JUMPDEST PUSH1 0x1 DUP2 PUSH1 0x20 ADD DUP2 DUP2 MLOAD PUSH2 0x15CE SWAP2 SWAP1 PUSH2 0x28ED JUMP JUMPDEST SWAP2 POP DUP2 DUP2 MSTORE POP POP POP JUMP JUMPDEST PUSH2 0x15E3 DUP2 PUSH1 0x7 PUSH2 0x18C1 JUMP JUMPDEST PUSH1 0x1 DUP2 PUSH1 0x20 ADD DUP2 DUP2 MLOAD PUSH2 0x15F6 SWAP2 SWAP1 PUSH2 0x2920 JUMP JUMPDEST SWAP2 POP DUP2 DUP2 MSTORE POP POP POP JUMP JUMPDEST PUSH2 0x160D DUP3 PUSH1 0x2 DUP4 MLOAD PUSH2 0x169E JUMP JUMPDEST PUSH2 0x1623 DUP2 DUP4 PUSH0 ADD MLOAD PUSH2 0x183E SWAP1 SWAP2 SWAP1 PUSH4 0xFFFFFFFF AND JUMP JUMPDEST POP POP POP JUMP JUMPDEST PUSH2 0x1630 PUSH2 0x1AFC JUMP JUMPDEST PUSH0 PUSH1 0x20 DUP4 PUSH2 0x163E SWAP2 SWAP1 PUSH2 0x2980 JUMP JUMPDEST EQ PUSH2 0x166A JUMPI PUSH1 0x20 DUP3 PUSH2 0x1650 SWAP2 SWAP1 PUSH2 0x2980 JUMP JUMPDEST PUSH1 0x20 PUSH2 0x165C SWAP2 SWAP1 PUSH2 0x2920 JUMP JUMPDEST DUP3 PUSH2 0x1667 SWAP2 SWAP1 PUSH2 0x28ED JUMP JUMPDEST SWAP2 POP JUMPDEST DUP2 DUP4 PUSH1 0x20 ADD DUP2 DUP2 MSTORE POP POP PUSH1 0x40 MLOAD DUP1 DUP5 MSTORE PUSH0 DUP2 MSTORE DUP3 DUP2 ADD PUSH1 0x20 ADD DUP2 DUP2 LT ISZERO PUSH2 0x168F JUMPI PUSH0 PUSH0 REVERT JUMPDEST DUP1 PUSH1 0x40 MSTORE POP POP DUP3 SWAP1 POP SWAP3 SWAP2 POP POP JUMP JUMPDEST PUSH1 0x17 DUP2 PUSH8 0xFFFFFFFFFFFFFFFF AND GT PUSH2 0x16D8 JUMPI PUSH2 0x16D2 DUP2 PUSH1 0x5 DUP5 PUSH1 0xFF AND SWAP1 SHL PUSH1 0xFF AND OR DUP5 PUSH0 ADD MLOAD PUSH2 0x185A SWAP1 SWAP2 SWAP1 PUSH4 0xFFFFFFFF AND JUMP JUMPDEST POP PUSH2 0x1839 JUMP JUMPDEST PUSH1 0xFF DUP2 PUSH8 0xFFFFFFFFFFFFFFFF AND GT PUSH2 0x1734 JUMPI PUSH2 0x170A PUSH1 0x18 PUSH1 0x5 DUP5 PUSH1 0xFF AND SWAP1 SHL OR DUP5 PUSH0 ADD MLOAD PUSH2 0x185A SWAP1 SWAP2 SWAP1 PUSH4 0xFFFFFFFF AND JUMP JUMPDEST POP PUSH2 0x172E DUP2 PUSH8 0xFFFFFFFFFFFFFFFF AND PUSH1 0x1 DUP6 PUSH0 ADD MLOAD PUSH2 0x18E6 SWAP1 SWAP3 SWAP2 SWAP1 PUSH4 0xFFFFFFFF AND JUMP JUMPDEST POP PUSH2 0x1838 JUMP JUMPDEST PUSH2 0xFFFF DUP2 PUSH8 0xFFFFFFFFFFFFFFFF AND GT PUSH2 0x1791 JUMPI PUSH2 0x1767 PUSH1 0x19 PUSH1 0x5 DUP5 PUSH1 0xFF AND SWAP1 SHL OR DUP5 PUSH0 ADD MLOAD PUSH2 0x185A SWAP1 SWAP2 SWAP1 PUSH4 0xFFFFFFFF AND JUMP JUMPDEST POP PUSH2 0x178B DUP2 PUSH8 0xFFFFFFFFFFFFFFFF AND PUSH1 0x2 DUP6 PUSH0 ADD MLOAD PUSH2 0x18E6 SWAP1 SWAP3 SWAP2 SWAP1 PUSH4 0xFFFFFFFF AND JUMP JUMPDEST POP PUSH2 0x1837 JUMP JUMPDEST PUSH4 0xFFFFFFFF DUP2 PUSH8 0xFFFFFFFFFFFFFFFF AND GT PUSH2 0x17F0 JUMPI PUSH2 0x17C6 PUSH1 0x1A PUSH1 0x5 DUP5 PUSH1 0xFF AND SWAP1 SHL OR DUP5 PUSH0 ADD MLOAD PUSH2 0x185A SWAP1 SWAP2 SWAP1 PUSH4 0xFFFFFFFF AND JUMP JUMPDEST POP PUSH2 0x17EA DUP2 PUSH8 0xFFFFFFFFFFFFFFFF AND PUSH1 0x4 DUP6 PUSH0 ADD MLOAD PUSH2 0x18E6 SWAP1 SWAP3 SWAP2 SWAP1 PUSH4 0xFFFFFFFF AND JUMP JUMPDEST POP PUSH2 0x1836 JUMP JUMPDEST PUSH2 0x1810 PUSH1 0x1B PUSH1 0x5 DUP5 PUSH1 0xFF AND SWAP1 SHL OR DUP5 PUSH0 ADD MLOAD PUSH2 0x185A SWAP1 SWAP2 SWAP1 PUSH4 0xFFFFFFFF AND JUMP JUMPDEST POP PUSH2 0x1834 DUP2 PUSH8 0xFFFFFFFFFFFFFFFF AND PUSH1 0x8 DUP6 PUSH0 ADD MLOAD PUSH2 0x18E6 SWAP1 SWAP3 SWAP2 SWAP1 PUSH4 0xFFFFFFFF AND JUMP JUMPDEST POP JUMPDEST JUMPDEST JUMPDEST JUMPDEST POP POP POP JUMP JUMPDEST PUSH2 0x1846 PUSH2 0x1AFC JUMP JUMPDEST PUSH2 0x1852 DUP4 DUP4 DUP5 MLOAD PUSH2 0x196F JUMP JUMPDEST SWAP1 POP SWAP3 SWAP2 POP POP JUMP JUMPDEST PUSH2 0x1862 PUSH2 0x1AFC JUMP JUMPDEST PUSH0 DUP4 PUSH0 ADD MLOAD MLOAD SWAP1 POP PUSH0 PUSH1 0x1 DUP3 PUSH2 0x1878 SWAP2 SWAP1 PUSH2 0x28ED JUMP JUMPDEST SWAP1 POP DUP5 PUSH1 0x20 ADD MLOAD DUP3 LT PUSH2 0x189C JUMPI PUSH2 0x189B DUP6 PUSH1 0x2 DUP4 PUSH2 0x1896 SWAP2 SWAP1 PUSH2 0x29B0 JUMP JUMPDEST PUSH2 0x1A4C JUMP JUMPDEST JUMPDEST DUP5 MLOAD PUSH1 0x20 DUP4 DUP3 ADD ADD DUP6 DUP2 MSTORE8 DUP2 MLOAD DUP4 GT ISZERO PUSH2 0x18B4 JUMPI DUP3 DUP3 MSTORE JUMPDEST POP POP DUP5 SWAP3 POP POP POP SWAP3 SWAP2 POP POP JUMP JUMPDEST PUSH2 0x18E1 PUSH1 0x1F PUSH1 0x5 DUP4 PUSH1 0xFF AND SWAP1 SHL OR DUP4 PUSH0 ADD MLOAD PUSH2 0x185A SWAP1 SWAP2 SWAP1 PUSH4 0xFFFFFFFF AND JUMP JUMPDEST POP POP POP JUMP JUMPDEST PUSH2 0x18EE PUSH2 0x1AFC JUMP JUMPDEST PUSH0 DUP5 PUSH0 ADD MLOAD MLOAD SWAP1 POP PUSH0 DUP2 DUP5 PUSH2 0x1903 SWAP2 SWAP1 PUSH2 0x28ED JUMP JUMPDEST SWAP1 POP DUP6 PUSH1 0x20 ADD MLOAD DUP2 GT ISZERO PUSH2 0x1928 JUMPI PUSH2 0x1927 DUP7 PUSH1 0x2 DUP4 PUSH2 0x1922 SWAP2 SWAP1 PUSH2 0x29B0 JUMP JUMPDEST PUSH2 0x1A4C JUMP JUMPDEST JUMPDEST PUSH0 PUSH1 0x1 DUP6 PUSH2 0x100 PUSH2 0x1939 SWAP2 SWAP1 PUSH2 0x2B20 JUMP JUMPDEST PUSH2 0x1943 SWAP2 SWAP1 PUSH2 0x2920 JUMP JUMPDEST SWAP1 POP DUP7 MLOAD DUP3 DUP2 ADD DUP8 DUP4 NOT DUP3 MLOAD AND OR DUP2 MSTORE DUP2 MLOAD DUP5 GT ISZERO PUSH2 0x1960 JUMPI DUP4 DUP3 MSTORE JUMPDEST POP POP DUP7 SWAP4 POP POP POP POP SWAP4 SWAP3 POP POP POP JUMP JUMPDEST PUSH2 0x1977 PUSH2 0x1AFC JUMP JUMPDEST DUP3 MLOAD DUP3 GT ISZERO PUSH2 0x1984 JUMPI PUSH0 PUSH0 REVERT JUMPDEST PUSH0 DUP5 PUSH0 ADD MLOAD MLOAD SWAP1 POP PUSH0 DUP4 DUP3 PUSH2 0x1999 SWAP2 SWAP1 PUSH2 0x28ED JUMP JUMPDEST SWAP1 POP DUP6 PUSH1 0x20 ADD MLOAD DUP2 GT ISZERO PUSH2 0x19BE JUMPI PUSH2 0x19BD DUP7 PUSH1 0x2 DUP4 PUSH2 0x19B8 SWAP2 SWAP1 PUSH2 0x29B0 JUMP JUMPDEST PUSH2 0x1A4C JUMP JUMPDEST JUMPDEST PUSH0 PUSH0 DUP8 MLOAD DUP1 MLOAD DUP6 PUSH1 0x20 DUP4 ADD ADD SWAP4 POP DUP1 DUP6 GT ISZERO PUSH2 0x19D8 JUMPI DUP5 DUP3 MSTORE JUMPDEST PUSH1 0x20 DUP10 ADD SWAP3 POP POP POP JUMPDEST PUSH1 0x20 DUP7 LT PUSH2 0x1A1F JUMPI DUP1 MLOAD DUP3 MSTORE PUSH1 0x20 DUP3 PUSH2 0x19FA SWAP2 SWAP1 PUSH2 0x28ED JUMP JUMPDEST SWAP2 POP PUSH1 0x20 DUP2 PUSH2 0x1A09 SWAP2 SWAP1 PUSH2 0x28ED JUMP JUMPDEST SWAP1 POP PUSH1 0x20 DUP7 PUSH2 0x1A18 SWAP2 SWAP1 PUSH2 0x2920 JUMP JUMPDEST SWAP6 POP PUSH2 0x19E1 JUMP JUMPDEST PUSH0 PUSH1 0x1 DUP8 PUSH1 0x20 SUB PUSH2 0x100 EXP SUB SWAP1 POP DUP1 NOT DUP3 MLOAD AND DUP2 DUP5 MLOAD AND DUP2 DUP2 OR DUP6 MSTORE POP POP POP DUP8 SWAP5 POP POP POP POP POP SWAP4 SWAP3 POP POP POP JUMP JUMPDEST PUSH0 DUP3 PUSH0 ADD MLOAD SWAP1 POP PUSH2 0x1A5D DUP4 DUP4 PUSH2 0x1628 JUMP JUMPDEST POP PUSH2 0x1A68 DUP4 DUP3 PUSH2 0x183E JUMP JUMPDEST POP POP POP POP JUMP JUMPDEST PUSH1 0x40 MLOAD DUP1 PUSH1 0xE0 ADD PUSH1 0x40 MSTORE DUP1 PUSH0 PUSH1 0x2 DUP2 GT ISZERO PUSH2 0x1A8C JUMPI PUSH2 0x1A8B PUSH2 0x27A9 JUMP JUMPDEST JUMPDEST DUP2 MSTORE PUSH1 0x20 ADD PUSH0 PUSH1 0x2 DUP2 GT ISZERO PUSH2 0x1AA4 JUMPI PUSH2 0x1AA3 PUSH2 0x27A9 JUMP JUMPDEST JUMPDEST DUP2 MSTORE PUSH1 0x20 ADD PUSH0 PUSH0 DUP2 GT ISZERO PUSH2 0x1ABB JUMPI PUSH2 0x1ABA PUSH2 0x27A9 JUMP JUMPDEST JUMPDEST DUP2 MSTORE PUSH1 0x20 ADD PUSH1 0x60 DUP2 MSTORE PUSH1 0x20 ADD PUSH1 0x60 DUP2 MSTORE PUSH1 0x20 ADD PUSH1 0x60 DUP2 MSTORE PUSH1 0x20 ADD PUSH1 0x60 DUP2 MSTORE POP SWAP1 JUMP JUMPDEST PUSH1 0x40 MLOAD DUP1 PUSH1 0x40 ADD PUSH1 0x40 MSTORE DUP1 PUSH2 0x1AF0 PUSH2 0x1AFC JUMP JUMPDEST DUP2 MSTORE PUSH1 0x20 ADD PUSH0 DUP2 MSTORE POP SWAP1 JUMP JUMPDEST PUSH1 0x40 MLOAD DUP1 PUSH1 0x40 ADD PUSH1 0x40 MSTORE DUP1 PUSH1 0x60 DUP2 MSTORE PUSH1 0x20 ADD PUSH0 DUP2 MSTORE POP SWAP1 JUMP JUMPDEST PUSH0 PUSH8 0xFFFFFFFFFFFFFFFF DUP3 AND SWAP1 POP SWAP2 SWAP1 POP JUMP JUMPDEST PUSH2 0x1B31 DUP2 PUSH2 0x1B15 JUMP JUMPDEST DUP3 MSTORE POP POP JUMP JUMPDEST PUSH0 PUSH1 0x20 DUP3 ADD SWAP1 POP PUSH2 0x1B4A PUSH0 DUP4 ADD DUP5 PUSH2 0x1B28 JUMP JUMPDEST SWAP3 SWAP2 POP POP JUMP JUMPDEST PUSH0 PUSH1 0x40 MLOAD SWAP1 POP SWAP1 JUMP JUMPDEST PUSH0 PUSH0 REVERT JUMPDEST PUSH0 PUSH0 REVERT JUMPDEST PUSH0 DUP2 SWAP1 POP SWAP2 SWAP1 POP JUMP JUMPDEST PUSH2 0x1B73 DUP2 PUSH2 0x1B61 JUMP JUMPDEST DUP2 EQ PUSH2 0x1B7D JUMPI PUSH0 PUSH0 REVERT JUMPDEST POP JUMP JUMPDEST PUSH0 DUP2 CALLDATALOAD SWAP1 POP PUSH2 0x1B8E DUP2 PUSH2 0x1B6A JUMP JUMPDEST SWAP3 SWAP2 POP POP JUMP JUMPDEST PUSH0 PUSH0 REVERT JUMPDEST PUSH0 PUSH0 REVERT JUMPDEST PUSH0 PUSH1 0x1F NOT PUSH1 0x1F DUP4 ADD AND SWAP1 POP SWAP2 SWAP1 POP JUMP JUMPDEST PUSH32 0x4E487B7100000000000000000000000000000000000000000000000000000000 PUSH0 MSTORE PUSH1 0x41 PUSH1 0x4 MSTORE PUSH1 0x24 PUSH0 REVERT JUMPDEST PUSH2 0x1BE2 DUP3 PUSH2 0x1B9C JUMP JUMPDEST DUP2 ADD DUP2 DUP2 LT PUSH8 0xFFFFFFFFFFFFFFFF DUP3 GT OR ISZERO PUSH2 0x1C01 JUMPI PUSH2 0x1C00 PUSH2 0x1BAC JUMP JUMPDEST JUMPDEST DUP1 PUSH1 0x40 MSTORE POP POP POP JUMP JUMPDEST PUSH0 PUSH2 0x1C13 PUSH2 0x1B50 JUMP JUMPDEST SWAP1 POP PUSH2 0x1C1F DUP3 DUP3 PUSH2 0x1BD9 JUMP JUMPDEST SWAP2 SWAP1 POP JUMP JUMPDEST PUSH0 PUSH8 0xFFFFFFFFFFFFFFFF DUP3 GT ISZERO PUSH2 0x1C3E JUMPI PUSH2 0x1C3D PUSH2 0x1BAC JUMP JUMPDEST JUMPDEST PUSH2 0x1C47 DUP3 PUSH2 0x1B9C JUMP JUMPDEST SWAP1 POP PUSH1 0x20 DUP2 ADD SWAP1 POP SWAP2 SWAP1 POP JUMP JUMPDEST DUP3 DUP2 DUP4 CALLDATACOPY PUSH0 DUP4 DUP4 ADD MSTORE POP POP POP JUMP JUMPDEST PUSH0 PUSH2 0x1C74 PUSH2 0x1C6F DUP5 PUSH2 0x1C24 JUMP JUMPDEST PUSH2 0x1C0A JUMP JUMPDEST SWAP1 POP DUP3 DUP2 MSTORE PUSH1 0x20 DUP2 ADD DUP5 DUP5 DUP5 ADD GT ISZERO PUSH2 0x1C90 JUMPI PUSH2 0x1C8F PUSH2 0x1B98 JUMP JUMPDEST JUMPDEST PUSH2 0x1C9B DUP5 DUP3 DUP6 PUSH2 0x1C54 JUMP JUMPDEST POP SWAP4 SWAP3 POP POP POP JUMP JUMPDEST PUSH0 DUP3 PUSH1 0x1F DUP4 ADD SLT PUSH2 0x1CB7 JUMPI PUSH2 0x1CB6 PUSH2 0x1B94 JUMP JUMPDEST JUMPDEST DUP2 CALLDATALOAD PUSH2 0x1CC7 DUP5 DUP3 PUSH1 0x20 DUP7 ADD PUSH2 0x1C62 JUMP JUMPDEST SWAP2 POP POP SWAP3 SWAP2 POP POP JUMP JUMPDEST PUSH0 PUSH0 PUSH0 PUSH1 0x60 DUP5 DUP7 SUB SLT ISZERO PUSH2 0x1CE7 JUMPI PUSH2 0x1CE6 PUSH2 0x1B59 JUMP JUMPDEST JUMPDEST PUSH0 PUSH2 0x1CF4 DUP7 DUP3 DUP8 ADD PUSH2 0x1B80 JUMP JUMPDEST SWAP4 POP POP PUSH1 0x20 DUP5 ADD CALLDATALOAD PUSH8 0xFFFFFFFFFFFFFFFF DUP2 GT ISZERO PUSH2 0x1D15 JUMPI PUSH2 0x1D14 PUSH2 0x1B5D JUMP JUMPDEST JUMPDEST PUSH2 0x1D21 DUP7 DUP3 DUP8 ADD PUSH2 0x1CA3 JUMP JUMPDEST SWAP3 POP POP PUSH1 0x40 DUP5 ADD CALLDATALOAD PUSH8 0xFFFFFFFFFFFFFFFF DUP2 GT ISZERO PUSH2 0x1D42 JUMPI PUSH2 0x1D41 PUSH2 0x1B5D JUMP JUMPDEST JUMPDEST PUSH2 0x1D4E DUP7 DUP3 DUP8 ADD PUSH2 0x1CA3 JUMP JUMPDEST SWAP2 POP POP SWAP3 POP SWAP3 POP SWAP3 JUMP JUMPDEST PUSH0 PUSH20 0xFFFFFFFFFFFFFFFFFFFFFFFFFFFFFFFFFFFFFFFF DUP3 AND SWAP1 POP SWAP2 SWAP1 POP JUMP JUMPDEST PUSH0 PUSH2 0x1D81 DUP3 PUSH2 0x1D58 JUMP JUMPDEST SWAP1 POP SWAP2 SWAP1 POP JUMP JUMPDEST PUSH2 0x1D91 DUP2 PUSH2 0x1D77 JUMP JUMPDEST DUP3 MSTORE POP POP JUMP JUMPDEST PUSH0 PUSH1 0x20 DUP3 ADD SWAP1 POP PUSH2 0x1DAA PUSH0 DUP4 ADD DUP5 PUSH2 0x1D88 JUMP JUMPDEST SWAP3 SWAP2 POP POP JUMP JUMPDEST PUSH0 DUP2 MLOAD SWAP1 POP SWAP2 SWAP1 POP JUMP JUMPDEST PUSH0 DUP3 DUP3 MSTORE PUSH1 0x20 DUP3 ADD SWAP1 POP SWAP3 SWAP2 POP POP JUMP JUMPDEST DUP3 DUP2 DUP4 MCOPY PUSH0 DUP4 DUP4 ADD MSTORE POP POP POP JUMP JUMPDEST PUSH0 PUSH2 0x1DE2 DUP3 PUSH2 0x1DB0 JUMP JUMPDEST PUSH2 0x1DEC DUP2 DUP6 PUSH2 0x1DBA JUMP JUMPDEST SWAP4 POP PUSH2 0x1DFC DUP2 DUP6 PUSH1 0x20 DUP7 ADD PUSH2 0x1DCA JUMP JUMPDEST PUSH2 0x1E05 DUP2 PUSH2 0x1B9C JUMP JUMPDEST DUP5 ADD SWAP2 POP POP SWAP3 SWAP2 POP POP JUMP JUMPDEST PUSH0 PUSH1 0x20 DUP3 ADD SWAP1 POP DUP2 DUP2 SUB PUSH0 DUP4 ADD MSTORE PUSH2 0x1E28 DUP2 DUP5 PUSH2 0x1DD8 JUMP JUMPDEST SWAP1 POP SWAP3 SWAP2 POP POP JUMP JUMPDEST PUSH2 0x1E39 DUP2 PUSH2 0x1D77 JUMP JUMPDEST DUP2 EQ PUSH2 0x1E43 JUMPI PUSH0 PUSH0 REVERT JUMPDEST POP JUMP JUMPDEST PUSH0 DUP2 CALLDATALOAD SWAP1 POP PUSH2 0x1E54 DUP2 PUSH2 0x1E30 JUMP JUMPDEST SWAP3 SWAP2 POP POP JUMP JUMPDEST PUSH0 PUSH1 0x20 DUP3 DUP5 SUB SLT ISZERO PUSH2 0x1E6F JUMPI PUSH2 0x1E6E PUSH2 0x1B59 JUMP JUMPDEST JUMPDEST PUSH0 PUSH2 0x1E7C DUP5 DUP3 DUP6 ADD PUSH2 0x1E46 JUMP JUMPDEST SWAP2 POP POP SWAP3 SWAP2 POP POP JUMP JUMPDEST PUSH0 DUP2 MLOAD SWAP1 POP SWAP2 SWAP1 POP JUMP JUMPDEST PUSH0 DUP3 DUP3 MSTORE PUSH1 0x20 DUP3 ADD SWAP1 POP SWAP3 SWAP2 POP POP JUMP JUMPDEST PUSH0 PUSH2 0x1EA9 DUP3 PUSH2 0x1E85 JUMP JUMPDEST PUSH2 0x1EB3 DUP2 DUP6 PUSH2 0x1E8F JUMP JUMPDEST SWAP4 POP PUSH2 0x1EC3 DUP2 DUP6 PUSH1 0x20 DUP7 ADD PUSH2 0x1DCA JUMP JUMPDEST PUSH2 0x1ECC DUP2 PUSH2 0x1B9C JUMP JUMPDEST DUP5 ADD SWAP2 POP POP SWAP3 SWAP2 POP POP JUMP JUMPDEST PUSH0 DUP2 SWAP1 POP SWAP2 SWAP1 POP JUMP JUMPDEST PUSH2 0x1EE9 DUP2 PUSH2 0x1ED7 JUMP JUMPDEST DUP3 MSTORE POP POP JUMP JUMPDEST PUSH0 PUSH1 0x60 DUP3 ADD SWAP1 POP DUP2 DUP2 SUB PUSH0 DUP4 ADD MSTORE PUSH2 0x1F07 DUP2 DUP7 PUSH2 0x1E9F JUMP JUMPDEST SWAP1 POP DUP2 DUP2 SUB PUSH1 0x20 DUP4 ADD MSTORE PUSH2 0x1F1B DUP2 DUP6 PUSH2 0x1E9F JUMP JUMPDEST SWAP1 POP PUSH2 0x1F2A PUSH1 0x40 DUP4 ADD DUP5 PUSH2 0x1EE0 JUMP JUMPDEST SWAP5 SWAP4 POP POP POP POP JUMP JUMPDEST PUSH0 PUSH1 0x20 DUP3 ADD SWAP1 POP DUP2 DUP2 SUB PUSH0 DUP4 ADD MSTORE PUSH2 0x1F4A DUP2 DUP5 PUSH2 0x1E9F JUMP JUMPDEST SWAP1 POP SWAP3 SWAP2 POP POP JUMP JUMPDEST PUSH0 PUSH8 0xFFFFFFFFFFFFFFFF DUP3 GT ISZERO PUSH2 0x1F6C JUMPI PUSH2 0x1F6B PUSH2 0x1BAC JUMP JUMPDEST JUMPDEST PUSH2 0x1F75 DUP3 PUSH2 0x1B9C JUMP JUMPDEST SWAP1 POP PUSH1 0x20 DUP2 ADD SWAP1 POP SWAP2 SWAP1 POP JUMP JUMPDEST PUSH0 PUSH2 0x1F94 PUSH2 0x1F8F DUP5 PUSH2 0x1F52 JUMP JUMPDEST PUSH2 0x1C0A JUMP JUMPDEST SWAP1 POP DUP3 DUP2 MSTORE PUSH1 0x20 DUP2 ADD DUP5 DUP5 DUP5 ADD GT ISZERO PUSH2 0x1FB0 JUMPI PUSH2 0x1FAF PUSH2 0x1B98 JUMP JUMPDEST JUMPDEST PUSH2 0x1FBB DUP5 DUP3 DUP6 PUSH2 0x1C54 JUMP JUMPDEST POP SWAP4 SWAP3 POP POP POP JUMP JUMPDEST PUSH0 DUP3 PUSH1 0x1F DUP4 ADD SLT PUSH2 0x1FD7 JUMPI PUSH2 0x1FD6 PUSH2 0x1B94 JUMP JUMPDEST JUMPDEST DUP2 CALLDATALOAD PUSH2 0x1FE7 DUP5 DUP3 PUSH1 0x20 DUP7 ADD PUSH2 0x1F82 JUMP JUMPDEST SWAP2 POP POP SWAP3 SWAP2 POP POP JUMP JUMPDEST PUSH0 PUSH1 0x20 DUP3 DUP5 SUB SLT ISZERO PUSH2 0x2005 JUMPI PUSH2 0x2004 PUSH2 0x1B59 JUMP JUMPDEST JUMPDEST PUSH0 DUP3 ADD CALLDATALOAD PUSH8 0xFFFFFFFFFFFFFFFF DUP2 GT ISZERO PUSH2 0x2022 JUMPI PUSH2 0x2021 PUSH2 0x1B5D JUMP JUMPDEST JUMPDEST PUSH2 0x202E DUP5 DUP3 DUP6 ADD PUSH2 0x1FC3 JUMP JUMPDEST SWAP2 POP POP SWAP3 SWAP2 POP POP JUMP JUMPDEST PUSH2 0x2040 DUP2 PUSH2 0x1B61 JUMP JUMPDEST DUP3 MSTORE POP POP JUMP JUMPDEST PUSH0 PUSH1 0x20 DUP3 ADD SWAP1 POP PUSH2 0x2059 PUSH0 DUP4 ADD DUP5 PUSH2 0x2037 JUMP JUMPDEST SWAP3 SWAP2 POP POP JUMP JUMPDEST PUSH2 0x2068 DUP2 PUSH2 0x1ED7 JUMP JUMPDEST DUP2 EQ PUSH2 0x2072 JUMPI PUSH0 PUSH0 REVERT JUMPDEST POP JUMP JUMPDEST PUSH0 DUP2 CALLDATALOAD SWAP1 POP PUSH2 0x2083 DUP2 PUSH2 0x205F JUMP JUMPDEST SWAP3 SWAP2 POP POP JUMP JUMPDEST PUSH0 PUSH1 0x20 DUP3 DUP5 SUB SLT ISZERO PUSH2 0x209E JUMPI PUSH2 0x209D PUSH2 0x1B59 JUMP JUMPDEST JUMPDEST PUSH0 PUSH2 0x20AB DUP5 DUP3 DUP6 ADD PUSH2 0x2075 JUMP JUMPDEST SWAP2 POP POP SWAP3 SWAP2 POP POP JUMP JUMPDEST PUSH0 PUSH1 0x20 DUP3 DUP5 SUB SLT ISZERO PUSH2 0x20C9 JUMPI PUSH2 0x20C8 PUSH2 0x1B59 JUMP JUMPDEST JUMPDEST PUSH0 PUSH2 0x20D6 DUP5 DUP3 DUP6 ADD PUSH2 0x1B80 JUMP JUMPDEST SWAP2 POP POP SWAP3 SWAP2 POP POP JUMP JUMPDEST PUSH0 DUP2 ISZERO ISZERO SWAP1 POP SWAP2 SWAP1 POP JUMP JUMPDEST PUSH2 0x20F3 DUP2 PUSH2 0x20DF JUMP JUMPDEST DUP3 MSTORE POP POP JUMP JUMPDEST PUSH0 PUSH1 0x80 DUP3 ADD SWAP1 POP PUSH2 0x210C PUSH0 DUP4 ADD DUP8 PUSH2 0x20EA JUMP JUMPDEST PUSH2 0x2119 PUSH1 0x20 DUP4 ADD DUP7 PUSH2 0x20EA JUMP JUMPDEST DUP2 DUP2 SUB PUSH1 0x40 DUP4 ADD MSTORE PUSH2 0x212B DUP2 DUP6 PUSH2 0x1DD8 JUMP JUMPDEST SWAP1 POP DUP2 DUP2 SUB PUSH1 0x60 DUP4 ADD MSTORE PUSH2 0x213F DUP2 DUP5 PUSH2 0x1DD8 JUMP JUMPDEST SWAP1 POP SWAP6 SWAP5 POP POP POP POP POP JUMP JUMPDEST PUSH32 0x4E487B7100000000000000000000000000000000000000000000000000000000 PUSH0 MSTORE PUSH1 0x22 PUSH1 0x4 MSTORE PUSH1 0x24 PUSH0 REVERT JUMPDEST PUSH0 PUSH1 0x2 DUP3 DIV SWAP1 POP PUSH1 0x1 DUP3 AND DUP1 PUSH2 0x218E JUMPI PUSH1 0x7F DUP3 AND SWAP2 POP JUMPDEST PUSH1 0x20 DUP3 LT DUP2 SUB PUSH2 0x21A1 JUMPI PUSH2 0x21A0 PUSH2 0x214A JUMP JUMPDEST JUMPDEST POP SWAP2 SWAP1 POP JUMP JUMPDEST PUSH32 0x4E487B7100000000000000000000000000000000000000000000000000000000 PUSH0 MSTORE PUSH1 0x32 PUSH1 0x4 MSTORE PUSH1 0x24 PUSH0 REVERT JUMPDEST PUSH0 DUP2 SWAP1 POP DUP2 PUSH0 MSTORE PUSH1 0x20 PUSH0 KECCAK256 SWAP1 POP SWAP2 SWAP1 POP JUMP JUMPDEST PUSH0 PUSH1 0x20 PUSH1 0x1F DUP4 ADD DIV SWAP1 POP SWAP2 SWAP1 POP JUMP JUMPDEST PUSH0 DUP3 DUP3 SHL SWAP1 POP SWAP3 SWAP2 POP POP JUMP JUMPDEST PUSH0 PUSH1 0x8 DUP4 MUL PUSH2 0x2230 PUSH32 0xFFFFFFFFFFFFFFFFFFFFFFFFFFFFFFFFFFFFFFFFFFFFFFFFFFFFFFFFFFFFFFFF DUP3 PUSH2 0x21F5 JUMP JUMPDEST PUSH2 0x223A DUP7 DUP4 PUSH2 0x21F5 JUMP JUMPDEST SWAP6 POP DUP1 NOT DUP5 AND SWAP4 POP DUP1 DUP7 AND DUP5 OR SWAP3 POP POP POP SWAP4 SWAP3 POP POP POP JUMP JUMPDEST PUSH0 DUP2 SWAP1 POP SWAP2 SWAP1 POP JUMP JUMPDEST PUSH0 PUSH2 0x2275 PUSH2 0x2270 PUSH2 0x226B DUP5 PUSH2 0x1ED7 JUMP JUMPDEST PUSH2 0x2252 JUMP JUMPDEST PUSH2 0x1ED7 JUMP JUMPDEST SWAP1 POP SWAP2 SWAP1 POP JUMP JUMPDEST PUSH0 DUP2 SWAP1 POP SWAP2 SWAP1 POP JUMP JUMPDEST PUSH2 0x228E DUP4 PUSH2 0x225B JUMP JUMPDEST PUSH2 0x22A2 PUSH2 0x229A DUP3 PUSH2 0x227C JUMP JUMPDEST DUP5 DUP5 SLOAD PUSH2 0x2201 JUMP JUMPDEST DUP3 SSTORE POP POP POP POP JUMP JUMPDEST PUSH0 PUSH0 SWAP1 POP SWAP1 JUMP JUMPDEST PUSH2 0x22B9 PUSH2 0x22AA JUMP JUMPDEST PUSH2 0x22C4 DUP2 DUP5 DUP5 PUSH2 0x2285 JUMP JUMPDEST POP POP POP JUMP JUMPDEST JUMPDEST DUP2 DUP2 LT ISZERO PUSH2 0x22E7 JUMPI PUSH2 0x22DC PUSH0 DUP3 PUSH2 0x22B1 JUMP JUMPDEST PUSH1 0x1 DUP2 ADD SWAP1 POP PUSH2 0x22CA JUMP JUMPDEST POP POP JUMP JUMPDEST PUSH1 0x1F DUP3 GT ISZERO PUSH2 0x232C JUMPI PUSH2 0x22FD DUP2 PUSH2 0x21D4 JUMP JUMPDEST PUSH2 0x2306 DUP5 PUSH2 0x21E6 JUMP JUMPDEST DUP2 ADD PUSH1 0x20 DUP6 LT ISZERO PUSH2 0x2315 JUMPI DUP2 SWAP1 POP JUMPDEST PUSH2 0x2329 PUSH2 0x2321 DUP6 PUSH2 0x21E6 JUMP JUMPDEST DUP4 ADD DUP3 PUSH2 0x22C9 JUMP JUMPDEST POP POP JUMPDEST POP POP POP JUMP JUMPDEST PUSH0 DUP3 DUP3 SHR SWAP1 POP SWAP3 SWAP2 POP POP JUMP JUMPDEST PUSH0 PUSH2 0x234C PUSH0 NOT DUP5 PUSH1 0x8 MUL PUSH2 0x2331 JUMP JUMPDEST NOT DUP1 DUP4 AND SWAP2 POP POP SWAP3 SWAP2 POP POP JUMP JUMPDEST PUSH0 PUSH2 0x2364 DUP4 DUP4 PUSH2 0x233D JUMP JUMPDEST SWAP2 POP DUP3 PUSH1 0x2 MUL DUP3 OR SWAP1 POP SWAP3 SWAP2 POP POP JUMP JUMPDEST PUSH2 0x237D DUP3 PUSH2 0x1E85 JUMP JUMPDEST PUSH8 0xFFFFFFFFFFFFFFFF DUP2 GT ISZERO PUSH2 0x2396 JUMPI PUSH2 0x2395 PUSH2 0x1BAC JUMP JUMPDEST JUMPDEST PUSH2 0x23A0 DUP3 SLOAD PUSH2 0x2177 JUMP JUMPDEST PUSH2 0x23AB DUP3 DUP3 DUP6 PUSH2 0x22EB JUMP JUMPDEST PUSH0 PUSH1 0x20 SWAP1 POP PUSH1 0x1F DUP4 GT PUSH1 0x1 DUP2 EQ PUSH2 0x23DC JUMPI PUSH0 DUP5 ISZERO PUSH2 0x23CA JUMPI DUP3 DUP8 ADD MLOAD SWAP1 POP JUMPDEST PUSH2 0x23D4 DUP6 DUP3 PUSH2 0x2359 JUMP JUMPDEST DUP7 SSTORE POP PUSH2 0x243B JUMP JUMPDEST PUSH1 0x1F NOT DUP5 AND PUSH2 0x23EA DUP7 PUSH2 0x21D4 JUMP JUMPDEST PUSH0 JUMPDEST DUP3 DUP2 LT ISZERO PUSH2 0x2411 JUMPI DUP5 DUP10 ADD MLOAD DUP3 SSTORE PUSH1 0x1 DUP3 ADD SWAP2 POP PUSH1 0x20 DUP6 ADD SWAP5 POP PUSH1 0x20 DUP2 ADD SWAP1 POP PUSH2 0x23EC JUMP JUMPDEST DUP7 DUP4 LT ISZERO PUSH2 0x242E JUMPI DUP5 DUP10 ADD MLOAD PUSH2 0x242A PUSH1 0x1F DUP10 AND DUP3 PUSH2 0x233D JUMP JUMPDEST DUP4 SSTORE POP JUMPDEST PUSH1 0x1 PUSH1 0x2 DUP9 MUL ADD DUP9 SSTORE POP POP POP JUMPDEST POP POP POP POP POP POP JUMP JUMPDEST PUSH0 DUP2 SWAP1 POP DUP2 PUSH0 MSTORE PUSH1 0x20 PUSH0 KECCAK256 SWAP1 POP SWAP2 SWAP1 POP JUMP JUMPDEST PUSH1 0x1F DUP3 GT ISZERO PUSH2 0x2496 JUMPI PUSH2 0x2467 DUP2 PUSH2 0x2443 JUMP JUMPDEST PUSH2 0x2470 DUP5 PUSH2 0x21E6 JUMP JUMPDEST DUP2 ADD PUSH1 0x20 DUP6 LT ISZERO PUSH2 0x247F JUMPI DUP2 SWAP1 POP JUMPDEST PUSH2 0x2493 PUSH2 0x248B DUP6 PUSH2 0x21E6 JUMP JUMPDEST DUP4 ADD DUP3 PUSH2 0x22C9 JUMP JUMPDEST POP POP JUMPDEST POP POP POP JUMP JUMPDEST PUSH2 0x24A4 DUP3 PUSH2 0x1DB0 JUMP JUMPDEST PUSH8 0xFFFFFFFFFFFFFFFF DUP2 GT ISZERO PUSH2 0x24BD JUMPI PUSH2 0x24BC PUSH2 0x1BAC JUMP JUMPDEST JUMPDEST PUSH2 0x24C7 DUP3 SLOAD PUSH2 0x2177 JUMP JUMPDEST PUSH2 0x24D2 DUP3 DUP3 DUP6 PUSH2 0x2455 JUMP JUMPDEST PUSH0 PUSH1 0x20 SWAP1 POP PUSH1 0x1F DUP4 GT PUSH1 0x1 DUP2 EQ PUSH2 0x2503 JUMPI PUSH0 DUP5 ISZERO PUSH2 0x24F1 JUMPI DUP3 DUP8 ADD MLOAD SWAP1 POP JUMPDEST PUSH2 0x24FB DUP6 DUP3 PUSH2 0x2359 JUMP JUMPDEST DUP7 SSTORE POP PUSH2 0x2562 JUMP JUMPDEST PUSH1 0x1F NOT DUP5 AND PUSH2 0x2511 DUP7 PUSH2 0x2443 JUMP JUMPDEST PUSH0 JUMPDEST DUP3 DUP2 LT ISZERO PUSH2 0x2538 JUMPI DUP5 DUP10 ADD MLOAD DUP3 SSTORE PUSH1 0x1 DUP3 ADD SWAP2 POP PUSH1 0x20 DUP6 ADD SWAP5 POP PUSH1 0x20 DUP2 ADD SWAP1 POP PUSH2 0x2513 JUMP JUMPDEST DUP7 DUP4 LT ISZERO PUSH2 0x2555 JUMPI DUP5 DUP10 ADD MLOAD PUSH2 0x2551 PUSH1 0x1F DUP10 AND DUP3 PUSH2 0x233D JUMP JUMPDEST DUP4 SSTORE POP JUMPDEST PUSH1 0x1 PUSH1 0x2 DUP9 MUL ADD DUP9 SSTORE POP POP POP JUMPDEST POP POP POP POP POP POP JUMP JUMPDEST PUSH32 0x72657175657374206E6F7420666F756E64000000000000000000000000000000 PUSH0 DUP3 ADD MSTORE POP JUMP JUMPDEST PUSH0 PUSH2 0x259E PUSH1 0x11 DUP4 PUSH2 0x1E8F JUMP JUMPDEST SWAP2 POP PUSH2 0x25A9 DUP3 PUSH2 0x256A JUMP JUMPDEST PUSH1 0x20 DUP3 ADD SWAP1 POP SWAP2 SWAP1 POP JUMP JUMPDEST PUSH0 PUSH1 0x20 DUP3 ADD SWAP1 POP DUP2 DUP2 SUB PUSH0 DUP4 ADD MSTORE PUSH2 0x25CB DUP2 PUSH2 0x2592 JUMP JUMPDEST SWAP1 POP SWAP2 SWAP1 POP JUMP JUMPDEST PUSH0 DUP2 SLOAD SWAP1 POP PUSH2 0x25E0 DUP2 PUSH2 0x2177 JUMP JUMPDEST SWAP1 POP SWAP2 SWAP1 POP JUMP JUMPDEST PUSH0 DUP2 SWAP1 POP DUP2 PUSH0 MSTORE PUSH1 0x20 PUSH0 KECCAK256 SWAP1 POP SWAP2 SWAP1 POP JUMP JUMPDEST DUP2 DUP2 SUB PUSH2 0x2607 JUMPI POP POP PUSH2 0x26DC JUMP JUMPDEST PUSH2 0x2610 DUP3 PUSH2 0x25D2 JUMP JUMPDEST PUSH8 0xFFFFFFFFFFFFFFFF DUP2 GT ISZERO PUSH2 0x2629 JUMPI PUSH2 0x2628 PUSH2 0x1BAC JUMP JUMPDEST JUMPDEST PUSH2 0x2633 DUP3 SLOAD PUSH2 0x2177 JUMP JUMPDEST PUSH2 0x263E DUP3 DUP3 DUP6 PUSH2 0x22EB JUMP JUMPDEST PUSH0 PUSH1 0x1F DUP4 GT PUSH1 0x1 DUP2 EQ PUSH2 0x266B JUMPI PUSH0 DUP5 ISZERO PUSH2 0x2659 JUMPI DUP3 DUP8 ADD SLOAD SWAP1 POP JUMPDEST PUSH2 0x2663 DUP6 DUP3 PUSH2 0x2359 JUMP JUMPDEST DUP7 SSTORE POP PUSH2 0x26D5 JUMP JUMPDEST PUSH1 0x1F NOT DUP5 AND PUSH2 0x2679 DUP8 PUSH2 0x25E7 JUMP JUMPDEST SWAP7 POP PUSH2 0x2684 DUP7 PUSH2 0x21D4 JUMP JUMPDEST PUSH0 JUMPDEST DUP3 DUP2 LT ISZERO PUSH2 0x26AB JUMPI DUP5 DUP10 ADD SLOAD DUP3 SSTORE PUSH1 0x1 DUP3 ADD SWAP2 POP PUSH1 0x1 DUP6 ADD SWAP5 POP PUSH1 0x20 DUP2 ADD SWAP1 POP PUSH2 0x2686 JUMP JUMPDEST DUP7 DUP4 LT ISZERO PUSH2 0x26C8 JUMPI DUP5 DUP10 ADD SLOAD PUSH2 0x26C4 PUSH1 0x1F DUP10 AND DUP3 PUSH2 0x233D JUMP JUMPDEST DUP4 SSTORE POP JUMPDEST PUSH1 0x1 PUSH1 0x2 DUP9 MUL ADD DUP9 SSTORE POP POP POP JUMPDEST POP POP POP POP POP POP JUMPDEST JUMP JUMPDEST PUSH0 DUP2 SLOAD PUSH2 0x26EA DUP2 PUSH2 0x2177 JUMP JUMPDEST PUSH2 0x26F4 DUP2 DUP7 PUSH2 0x1E8F JUMP JUMPDEST SWAP5 POP PUSH1 0x1 DUP3 AND PUSH0 DUP2 EQ PUSH2 0x270E JUMPI PUSH1 0x1 DUP2 EQ PUSH2 0x2724 JUMPI PUSH2 0x2756 JUMP JUMPDEST PUSH1 0xFF NOT DUP4 AND DUP7 MSTORE DUP2 ISZERO ISZERO PUSH1 0x20 MUL DUP7 ADD SWAP4 POP PUSH2 0x2756 JUMP JUMPDEST PUSH2 0x272D DUP6 PUSH2 0x21D4 JUMP JUMPDEST PUSH0 JUMPDEST DUP4 DUP2 LT ISZERO PUSH2 0x274E JUMPI DUP2 SLOAD DUP2 DUP10 ADD MSTORE PUSH1 0x1 DUP3 ADD SWAP2 POP PUSH1 0x20 DUP2 ADD SWAP1 POP PUSH2 0x272F JUMP JUMPDEST DUP1 DUP9 ADD SWAP6 POP POP POP JUMPDEST POP POP POP SWAP3 SWAP2 POP POP JUMP JUMPDEST PUSH0 PUSH1 0x60 DUP3 ADD SWAP1 POP DUP2 DUP2 SUB PUSH0 DUP4 ADD MSTORE PUSH2 0x2777 DUP2 DUP7 PUSH2 0x26DE JUMP JUMPDEST SWAP1 POP DUP2 DUP2 SUB PUSH1 0x20 DUP4 ADD MSTORE PUSH2 0x278B DUP2 DUP6 PUSH2 0x1DD8 JUMP JUMPDEST SWAP1 POP DUP2 DUP2 SUB PUSH1 0x40 DUP4 ADD MSTORE PUSH2 0x279F DUP2 DUP5 PUSH2 0x1DD8 JUMP JUMPDEST SWAP1 POP SWAP5 SWAP4 POP POP POP POP JUMP JUMPDEST PUSH32 0x4E487B7100000000000000000000000000000000000000000000000000000000 PUSH0 MSTORE PUSH1 0x21 PUSH1 0x4 MSTORE PUSH1 0x24 PUSH0 REVERT JUMPDEST PUSH0 PUSH2 0xFFFF DUP3 AND SWAP1 POP SWAP2 SWAP1 POP JUMP JUMPDEST PUSH2 0x27EC DUP2 PUSH2 0x27D6 JUMP JUMPDEST DUP3 MSTORE POP POP JUMP JUMPDEST PUSH0 PUSH4 0xFFFFFFFF DUP3 AND SWAP1 POP SWAP2 SWAP1 POP JUMP JUMPDEST PUSH2 0x280A DUP2 PUSH2 0x27F2 JUMP JUMPDEST DUP3 MSTORE POP POP JUMP JUMPDEST PUSH0 PUSH1 0xA0 DUP3 ADD SWAP1 POP PUSH2 0x2823 PUSH0 DUP4 ADD DUP9 PUSH2 0x1B28 JUMP JUMPDEST DUP2 DUP2 SUB PUSH1 0x20 DUP4 ADD MSTORE PUSH2 0x2835 DUP2 DUP8 PUSH2 0x1DD8 JUMP JUMPDEST SWAP1 POP PUSH2 0x2844 PUSH1 0x40 DUP4 ADD DUP7 PUSH2 0x27E3 JUMP JUMPDEST PUSH2 0x2851 PUSH1 0x60 DUP4 ADD DUP6 PUSH2 0x2801 JUMP JUMPDEST PUSH2 0x285E PUSH1 0x80 DUP4 ADD DUP5 PUSH2 0x2037 JUMP JUMPDEST SWAP7 SWAP6 POP POP POP POP POP POP JUMP JUMPDEST PUSH0 DUP2 MLOAD SWAP1 POP PUSH2 0x2876 DUP2 PUSH2 0x1B6A JUMP JUMPDEST SWAP3 SWAP2 POP POP JUMP JUMPDEST PUSH0 PUSH1 0x20 DUP3 DUP5 SUB SLT ISZERO PUSH2 0x2891 JUMPI PUSH2 0x2890 PUSH2 0x1B59 JUMP JUMPDEST JUMPDEST PUSH0 PUSH2 0x289E DUP5 DUP3 DUP6 ADD PUSH2 0x2868 JUMP JUMPDEST SWAP2 POP POP SWAP3 SWAP2 POP POP JUMP JUMPDEST PUSH0 PUSH1 0x20 DUP3 ADD SWAP1 POP PUSH2 0x28BA PUSH0 DUP4 ADD DUP5 PUSH2 0x1EE0 JUMP JUMPDEST SWAP3 SWAP2 POP POP JUMP JUMPDEST PUSH32 0x4E487B7100000000000000000000000000000000000000000000000000000000 PUSH0 MSTORE PUSH1 0x11 PUSH1 0x4 MSTORE PUSH1 0x24 PUSH0 REVERT JUMPDEST PUSH0 PUSH2 0x28F7 DUP3 PUSH2 0x1ED7 JUMP JUMPDEST SWAP2 POP PUSH2 0x2902 DUP4 PUSH2 0x1ED7 JUMP JUMPDEST SWAP3 POP DUP3 DUP3 ADD SWAP1 POP DUP1 DUP3 GT ISZERO PUSH2 0x291A JUMPI PUSH2 0x2919 PUSH2 0x28C0 JUMP JUMPDEST JUMPDEST SWAP3 SWAP2 POP POP JUMP JUMPDEST PUSH0 PUSH2 0x292A DUP3 PUSH2 0x1ED7 JUMP JUMPDEST SWAP2 POP PUSH2 0x2935 DUP4 PUSH2 0x1ED7 JUMP JUMPDEST SWAP3 POP DUP3 DUP3 SUB SWAP1 POP DUP2 DUP2 GT ISZERO PUSH2 0x294D JUMPI PUSH2 0x294C PUSH2 0x28C0 JUMP JUMPDEST JUMPDEST SWAP3 SWAP2 POP POP JUMP JUMPDEST PUSH32 0x4E487B7100000000000000000000000000000000000000000000000000000000 PUSH0 MSTORE PUSH1 0x12 PUSH1 0x4 MSTORE PUSH1 0x24 PUSH0 REVERT JUMPDEST PUSH0 PUSH2 0x298A DUP3 PUSH2 0x1ED7 JUMP JUMPDEST SWAP2 POP PUSH2 0x2995 DUP4 PUSH2 0x1ED7 JUMP JUMPDEST SWAP3 POP DUP3 PUSH2 0x29A5 JUMPI PUSH2 0x29A4 PUSH2 0x2953 JUMP JUMPDEST JUMPDEST DUP3 DUP3 MOD SWAP1 POP SWAP3 SWAP2 POP POP JUMP JUMPDEST PUSH0 PUSH2 0x29BA DUP3 PUSH2 0x1ED7 JUMP JUMPDEST SWAP2 POP PUSH2 0x29C5 DUP4 PUSH2 0x1ED7 JUMP JUMPDEST SWAP3 POP DUP3 DUP3 MUL PUSH2 0x29D3 DUP2 PUSH2 0x1ED7 JUMP JUMPDEST SWAP2 POP DUP3 DUP3 DIV DUP5 EQ DUP4 ISZERO OR PUSH2 0x29EA JUMPI PUSH2 0x29E9 PUSH2 0x28C0 JUMP JUMPDEST JUMPDEST POP SWAP3 SWAP2 POP POP JUMP JUMPDEST PUSH0 DUP2 PUSH1 0x1 SHR SWAP1 POP SWAP2 SWAP1 POP JUMP JUMPDEST PUSH0 PUSH0 DUP3 SWAP2 POP DUP4 SWAP1 POP JUMPDEST PUSH1 0x1 DUP6 GT ISZERO PUSH2 0x2A46 JUMPI DUP1 DUP7 DIV DUP2 GT ISZERO PUSH2 0x2A22 JUMPI PUSH2 0x2A21 PUSH2 0x28C0 JUMP JUMPDEST JUMPDEST PUSH1 0x1 DUP6 AND ISZERO PUSH2 0x2A31 JUMPI DUP1 DUP3 MUL SWAP2 POP JUMPDEST DUP1 DUP2 MUL SWAP1 POP PUSH2 0x2A3F DUP6 PUSH2 0x29F1 JUMP JUMPDEST SWAP5 POP PUSH2 0x2A06 JUMP JUMPDEST SWAP5 POP SWAP5 SWAP3 POP POP POP JUMP JUMPDEST PUSH0 DUP3 PUSH2 0x2A5E JUMPI PUSH1 0x1 SWAP1 POP PUSH2 0x2B19 JUMP JUMPDEST DUP2 PUSH2 0x2A6B JUMPI PUSH0 SWAP1 POP PUSH2 0x2B19 JUMP JUMPDEST DUP2 PUSH1 0x1 DUP2 EQ PUSH2 0x2A81 JUMPI PUSH1 0x2 DUP2 EQ PUSH2 0x2A8B JUMPI PUSH2 0x2ABA JUMP JUMPDEST PUSH1 0x1 SWAP2 POP POP PUSH2 0x2B19 JUMP JUMPDEST PUSH1 0xFF DUP5 GT ISZERO PUSH2 0x2A9D JUMPI PUSH2 0x2A9C PUSH2 0x28C0 JUMP JUMPDEST JUMPDEST DUP4 PUSH1 0x2 EXP SWAP2 POP DUP5 DUP3 GT ISZERO PUSH2 0x2AB4 JUMPI PUSH2 0x2AB3 PUSH2 0x28C0 JUMP JUMPDEST JUMPDEST POP PUSH2 0x2B19 JUMP JUMPDEST POP PUSH1 0x20 DUP4 LT PUSH2 0x133 DUP4 LT AND PUSH1 0x4E DUP5 LT PUSH1 0xB DUP5 LT AND OR ISZERO PUSH2 0x2AEF JUMPI DUP3 DUP3 EXP SWAP1 POP DUP4 DUP2 GT ISZERO PUSH2 0x2AEA JUMPI PUSH2 0x2AE9 PUSH2 0x28C0 JUMP JUMPDEST JUMPDEST PUSH2 0x2B19 JUMP JUMPDEST PUSH2 0x2AFC DUP5 DUP5 DUP5 PUSH1 0x1 PUSH2 0x29FD JUMP JUMPDEST SWAP3 POP SWAP1 POP DUP2 DUP5 DIV DUP2 GT ISZERO PUSH2 0x2B13 JUMPI PUSH2 0x2B12 PUSH2 0x28C0 JUMP JUMPDEST JUMPDEST DUP2 DUP2 MUL SWAP1 POP JUMPDEST SWAP4 SWAP3 POP POP POP JUMP JUMPDEST PUSH0 PUSH2 0x2B2A DUP3 PUSH2 0x1ED7 JUMP JUMPDEST SWAP2 POP PUSH2 0x2B35 DUP4 PUSH2 0x1ED7 JUMP JUMPDEST SWAP3 POP PUSH2 0x2B62 PUSH32 0xFFFFFFFFFFFFFFFFFFFFFFFFFFFFFFFFFFFFFFFFFFFFFFFFFFFFFFFFFFFFFFFF DUP5 DUP5 PUSH2 0x2A4F JUMP JUMPDEST SWAP1 POP SWAP3 SWAP2 POP POP JUMP INVALID LOG2 PUSH5 0x6970667358 0x22 SLT KECCAK256 0x4B 0xCE PUSH15 0x387E6C4AB3B058B6170AC2A2A69497 0xF9 SELFDESTRUCT SLT JUMPI DUP16 CALL CALLDATACOPY 0xD 0x2F 0xEE DUP10 ADD 0x2B SWAP6 PUSH5 0x736F6C6343 STOP ADDMOD SHL STOP CALLER PUSH4 0x6F6E7374 KECCAK256 PUSH4 0x69747920 RETURNDATASIZE KECCAK256 PUSH2 0x7267 PUSH20 0x5B305D3B636F6E737420617069526573706F6E73 PUSH6 0x203D20617761 PUSH10 0x742046756E6374696F6E PUSH20 0x2E6D616B654874747052657175657374287B7572 PUSH13 0x3A206068747470733A2F2F7774 PUSH21 0x722E696E2F247B636974797D3F666F726D61743D33 0x26 PUSH14 0x602C726573706F6E736554797065 GASPRICE KECCAK256 0x27 PUSH21 0x657874277D293B69662028617069526573706F6E73 PUSH6 0x2E6572726F72 0x29 KECCAK256 PUSH28 0x7468726F77204572726F72282752657175657374206661696C656427 0x29 EXTCODESIZE PUSH30 0x636F6E7374207B2064617461207D203D20617069526573706F6E73653B72 PUSH6 0x7475726E2046 PUSH22 0x6E6374696F6E732E656E636F6465537472696E672864 PUSH2 0x7461 0x29 EXTCODESIZE "
				},
				"gasEstimates": {
					"creation": {
						"codeDepositCost": "2233600",
						"executionCost": "infinite",
						"totalCost": "infinite"
					},
					"external": {
						"cities(address)": "infinite",
						"getAdd(bytes32)": "2871",
						"handleOracleFulfillment(bytes32,bytes,bytes)": "infinite",
						"lastCity()": "infinite",
						"lastError()": "infinite",
						"lastRequestId()": "2512",
						"lastResponse()": "infinite",
						"lastSender()": "2576",
						"lastTemperature()": "infinite",
						"requestIds(uint256)": "4916",
						"requests(bytes32)": "infinite",
						"sendreq(string)": "infinite",
						"source()": "infinite",
						"subscriptionId()": "2541"
					},
					"internal": {
						"fulfillRequest(bytes32,bytes memory,bytes memory)": "infinite"
					}
				},
				"methodIdentifiers": {
					"cities(address)": "2a916a62",
					"getAdd(bytes32)": "a02e98df",
					"handleOracleFulfillment(bytes32,bytes,bytes)": "0ca76175",
					"lastCity()": "cd2b8d11",
					"lastError()": "29f0de3f",
					"lastRequestId()": "fc2a88c3",
					"lastResponse()": "62747e42",
					"lastSender()": "256fec88",
					"lastTemperature()": "9fb51771",
					"requestIds(uint256)": "8796ba8c",
					"requests(bytes32)": "9d866985",
					"sendreq(string)": "784b9aeb",
					"source()": "67e828bf",
					"subscriptionId()": "09c1ba2e"
				}
			},
			"storageLayout": {
				"storage": [
					{
						"astId": 2258,
						"contract": "WeatherFunctions.sol:WeatherFunctions",
						"label": "lastRequestId",
						"offset": 0,
						"slot": "0",
						"type": "t_bytes32"
					},
					{
						"astId": 2260,
						"contract": "WeatherFunctions.sol:WeatherFunctions",
						"label": "lastResponse",
						"offset": 0,
						"slot": "1",
						"type": "t_bytes_storage"
					},
					{
						"astId": 2262,
						"contract": "WeatherFunctions.sol:WeatherFunctions",
						"label": "lastError",
						"offset": 0,
						"slot": "2",
						"type": "t_bytes_storage"
					},
					{
						"astId": 2276,
						"contract": "WeatherFunctions.sol:WeatherFunctions",
						"label": "requests",
						"offset": 0,
						"slot": "3",
						"type": "t_mapping(t_bytes32,t_struct(RequestStatus)2271_storage)"
					},
					{
						"astId": 2279,
						"contract": "WeatherFunctions.sol:WeatherFunctions",
						"label": "requestIds",
						"offset": 0,
						"slot": "4",
						"type": "t_array(t_bytes32)dyn_storage"
					},
					{
						"astId": 2292,
						"contract": "WeatherFunctions.sol:WeatherFunctions",
						"label": "router",
						"offset": 0,
						"slot": "5",
						"type": "t_address"
					},
					{
						"astId": 2295,
						"contract": "WeatherFunctions.sol:WeatherFunctions",
						"label": "donID",
						"offset": 0,
						"slot": "6",
						"type": "t_bytes32"
					},
					{
						"astId": 2298,
						"contract": "WeatherFunctions.sol:WeatherFunctions",
						"label": "gasLimit",
						"offset": 0,
						"slot": "7",
						"type": "t_uint32"
					},
					{
						"astId": 2300,
						"contract": "WeatherFunctions.sol:WeatherFunctions",
						"label": "subscriptionId",
						"offset": 4,
						"slot": "7",
						"type": "t_uint64"
					},
					{
						"astId": 2303,
						"contract": "WeatherFunctions.sol:WeatherFunctions",
						"label": "source",
						"offset": 0,
						"slot": "8",
						"type": "t_string_storage"
					},
					{
						"astId": 2305,
						"contract": "WeatherFunctions.sol:WeatherFunctions",
						"label": "lastCity",
						"offset": 0,
						"slot": "9",
						"type": "t_string_storage"
					},
					{
						"astId": 2307,
						"contract": "WeatherFunctions.sol:WeatherFunctions",
						"label": "lastTemperature",
						"offset": 0,
						"slot": "10",
						"type": "t_string_storage"
					},
					{
						"astId": 2309,
						"contract": "WeatherFunctions.sol:WeatherFunctions",
						"label": "lastSender",
						"offset": 0,
						"slot": "11",
						"type": "t_address"
					},
					{
						"astId": 2321,
						"contract": "WeatherFunctions.sol:WeatherFunctions",
						"label": "cities",
						"offset": 0,
						"slot": "12",
						"type": "t_mapping(t_address,t_struct(CityStruct)2316_storage)"
					},
					{
						"astId": 2325,
						"contract": "WeatherFunctions.sol:WeatherFunctions",
						"label": "getAdd",
						"offset": 0,
						"slot": "13",
						"type": "t_mapping(t_bytes32,t_address)"
					}
				],
				"types": {
					"t_address": {
						"encoding": "inplace",
						"label": "address",
						"numberOfBytes": "20"
					},
					"t_array(t_bytes32)dyn_storage": {
						"base": "t_bytes32",
						"encoding": "dynamic_array",
						"label": "bytes32[]",
						"numberOfBytes": "32"
					},
					"t_bool": {
						"encoding": "inplace",
						"label": "bool",
						"numberOfBytes": "1"
					},
					"t_bytes32": {
						"encoding": "inplace",
						"label": "bytes32",
						"numberOfBytes": "32"
					},
					"t_bytes_storage": {
						"encoding": "bytes",
						"label": "bytes",
						"numberOfBytes": "32"
					},
					"t_mapping(t_address,t_struct(CityStruct)2316_storage)": {
						"encoding": "mapping",
						"key": "t_address",
						"label": "mapping(address => struct WeatherFunctions.CityStruct)",
						"numberOfBytes": "32",
						"value": "t_struct(CityStruct)2316_storage"
					},
					"t_mapping(t_bytes32,t_address)": {
						"encoding": "mapping",
						"key": "t_bytes32",
						"label": "mapping(bytes32 => address)",
						"numberOfBytes": "32",
						"value": "t_address"
					},
					"t_mapping(t_bytes32,t_struct(RequestStatus)2271_storage)": {
						"encoding": "mapping",
						"key": "t_bytes32",
						"label": "mapping(bytes32 => struct WeatherFunctions.RequestStatus)",
						"numberOfBytes": "32",
						"value": "t_struct(RequestStatus)2271_storage"
					},
					"t_string_storage": {
						"encoding": "bytes",
						"label": "string",
						"numberOfBytes": "32"
					},
					"t_struct(CityStruct)2316_storage": {
						"encoding": "inplace",
						"label": "struct WeatherFunctions.CityStruct",
						"members": [
							{
								"astId": 2311,
								"contract": "WeatherFunctions.sol:WeatherFunctions",
								"label": "city",
								"offset": 0,
								"slot": "0",
								"type": "t_string_storage"
							},
							{
								"astId": 2313,
								"contract": "WeatherFunctions.sol:WeatherFunctions",
								"label": "Temperature",
								"offset": 0,
								"slot": "1",
								"type": "t_string_storage"
							},
							{
								"astId": 2315,
								"contract": "WeatherFunctions.sol:WeatherFunctions",
								"label": "timeStamp",
								"offset": 0,
								"slot": "2",
								"type": "t_uint256"
							}
						],
						"numberOfBytes": "96"
					},
					"t_struct(RequestStatus)2271_storage": {
						"encoding": "inplace",
						"label": "struct WeatherFunctions.RequestStatus",
						"members": [
							{
								"astId": 2264,
								"contract": "WeatherFunctions.sol:WeatherFunctions",
								"label": "fulfilled",
								"offset": 0,
								"slot": "0",
								"type": "t_bool"
							},
							{
								"astId": 2266,
								"contract": "WeatherFunctions.sol:WeatherFunctions",
								"label": "exists",
								"offset": 1,
								"slot": "0",
								"type": "t_bool"
							},
							{
								"astId": 2268,
								"contract": "WeatherFunctions.sol:WeatherFunctions",
								"label": "response",
								"offset": 0,
								"slot": "1",
								"type": "t_bytes_storage"
							},
							{
								"astId": 2270,
								"contract": "WeatherFunctions.sol:WeatherFunctions",
								"label": "err",
								"offset": 0,
								"slot": "2",
								"type": "t_bytes_storage"
							}
						],
						"numberOfBytes": "96"
					},
					"t_uint256": {
						"encoding": "inplace",
						"label": "uint256",
						"numberOfBytes": "32"
					},
					"t_uint32": {
						"encoding": "inplace",
						"label": "uint32",
						"numberOfBytes": "4"
					},
					"t_uint64": {
						"encoding": "inplace",
						"label": "uint64",
						"numberOfBytes": "8"
					}
				}
			},
			"userdoc": {
				"kind": "user",
				"methods": {
					"handleOracleFulfillment(bytes32,bytes,bytes)": {
						"notice": "Chainlink Functions response handler called by the Functions Router during fullilment from the designated transmitter node in an OCR round."
					}
				},
				"version": 1
			}
		}
	}
}